:100000000C94460018950000189500001895000003
:10001000189500001895000018950000189500002C
:10002000189500001895000018950000189500001C
:10003000189500001895000018950000189500000C
:1000400018950000189500001895000018950000FC
:100050000C94D7041895000018950000189500001E
:1000600018950000189500000C9450051895000094
:1000700018950000189500001895000018950000CC
:100080001895000018950000189500008FEF8DBF9F
:10009000C8EDE0EC4E2E80E48EBFD0E4F0E45F2E9D
:1000A000A89584B7082E877F84BF88E1992780931D
:1000B000600090936000EEEFFFE3A0E0B1E08827DE
:1000C0008D933197E9F780E48093C40080E08093BA
:1000D000C50088E18093C1006624E0E0FF2700812D
:1000E000A2E2B1E00C93A2E2B1E00C9103FB16F0A6
:1000F0000C94830082E08093630380915D0380937E
:1001000064030C9486008FEF8093630322982A9AED
:1001100074B7777F74BF8FE197E08093600090930E
:10012000600078947091C10070687093C100709104
:10013000BC0071607093BC003B9A80E48093CC005B
:1001400080E08093CD007091C8007D7F7093C800DF
:1001500087E08093CA0088E18093C9001A990C94C3
:10016000B3000E94BB02E0E0F0E0A0E1B0E00E943A
:100170003415053011F40C94BF000E94BB020E949C
:10018000040380916000886080936000A5E5B1E081
:100190008C918F5F8C93009155010F3F11F00C945F
:1001A0005F01A4E5B1E08C918F5F8C9300915401C5
:1001B0000A3511F00C94050100916703003018F026
:1001C00011F00C94E5000C940301A7E6B3E08C91C8
:1001D0008F5F8C93009167030C3318F011F00C942F
:1001E000F3000C94030181E080935C0281E0809332
:1001F0005D0280E08093670385E0809363038091D4
:100200005D03809364030C945F01043B11F00C9434
:10021000340100913A01013081E009F080E08F93D0
:10022000A6E2B0E00C9104FB81E00EF480E09F9127
:100230008923882311F40C942F01A6E5B1E08C9159
:100240008F5F8C9300915601053018F011F00C94DB
:100250002B010C942D010E9438050C94320180E092
:10026000809356010C945F010F3F11F00C945F01D5
:10027000A5E6B3E00D911C91003050E0150718F091
:1002800011F00C9445010C944901A5E6B3E00E94DD
:100290000713A5E6B3E00D911C910C3350E0150750
:1002A00018F011F00C9456010C945F0183E08093D8
:1002B000630380915D03809364030E947B030E942B
:1002C0006C13ACE3B1E08C9300913C01013011F070
:1002D0000C943B020E947213ACE3B1E08C9300914A
:1002E0006B03003011F00C94780181E080936B0374
:1002F00000919B040A3F10F00C94320200913C01E3
:100300000D3F11F40C94960180913C01ABE9B4E0EF
:10031000AD90BB24AFE9B3E0AA0DBB1D8C93ABE954
:10032000B4E08C918F5F8C930C94300200919B040D
:10033000063010F00C94AD018BE080936303809144
:100340005D0380936403ECEBFAE20E9499140E942F
:1003500056130E9462130C942E0280EE8093A20327
:1003600000919B04063011F00C94EC0191E09A93FB
:10037000A0EAB3E0EAE8F3E022270E944B14ACE3E2
:10038000B1E00C9300913C01003011F00C94EA01B3
:1003900091E09A93A0EAB3E0E5E9F3E022270E9416
:1003A0004B14ACE3B1E00C9300913C01013011F02F
:1003B0000C94E3018AE08093630380915D03809352
:1003C00064030C94EA018BE08093630380915D03E6
:1003D000809364030C942E02A0EAB3E0E4E7F3E018
:1003E000222791E00E945014ADE3B1E00C930091FC
:1003F0003D01013011F00C94270281E080933C0113
:1004000040919B0400913C01041718F011F00C94EA
:100410002102ACE3B1E0AD90BB24AFE9B3E0AA0D9B
:10042000BB1D8C9180933F0131E0AFE3B1E00E94AE
:100430005D13ACE3B1E08C918F5F8C9310F40C945E
:1004400000020E9485070E949E030C942E028DE0FC
:100450008093630380915D03809364030E94260769
:100460000C943B0289E08093630380915D03809349
:1004700064030E94260700915F03003018F011F01A
:100480000C9444020C94B80280E080935F030091C6
:100490005D02013018F011F00C9450020C945C02D3
:1004A00080E080935B0186E08093630380915D032D
:1004B000809364030C94B802A5E6B3E00D911C91FF
:1004C000003050E0150711F00C946A02A5E6B3E085
:1004D0000E94071300915E020E3F11F00C94780207
:1004E00080915B0180935A010E94D9100C94B8024C
:1004F00000913B01013081E009F080E08F93009191
:100500005E03013081E009F080E09F918923882318
:1005100011F40C94930280915B0180935A010E9424
:10052000D9100C94B80200913A01013081E009F031
:1005300080E08F9300915E03023081E009F080E05B
:100540009F918923882311F40C94AE0280915B0162
:1005500080935A010E94D9100C94B80280E08093D5
:100560005B0186E08093630380915D038093640365
:10057000A8950C94C100E1E0F0E00E948513E6E14B
:10058000F0E0A0E1BB2781E08C937BE70E94181587
:10059000A42DB52DE0ECFAE20E9499140E944514B6
:1005A000E1E0F0E0D2017BE70E942915E7E1F0E00D
:1005B000A0E1BB278CE38C937BE70E941815E8E150
:1005C000F0E0A0E1BB2781E08C937BE70E94181547
:1005D000E9E1F0E0A0E1BB2781E08C937BE70E949A
:1005E0001815EBE1F0E0A0E1BB2782E28C937BE7FA
:1005F0000E941815E0E0F0E0A0E1BB2785E08C93B5
:100600007BE70E9418150895E6E1F0E0A8E3B1E069
:100610000E943415E1E0F0E0A3E2B1E094E10E9431
:100620003E15E7E1F0E0A9E3B1E00E943415E8E10E
:10063000F0E0AAE3B1E00E943415E9E1F0E0ABE3B9
:10064000B1E00E94341581E080935D0380E08093E7
:10065000640380E080935C0181E080935E030E94EC
:100660007B0381E080935C0281E080935D0280E007
:10067000809367030E94380580E08093540180E0F6
:1006800080935501EBE1F0E0ACE6B3E00E94341555
:10069000AFE7B3E0EAECFAE20E9499140E94451435
:1006A00080916C0380938103A4E7B3E0E0EDFAE26C
:1006B0000E9499140E94451480916C0380937703E3
:1006C000AAE8B3E0E6EDFAE20E9499140E9445140C
:1006D00080916C0380938D03A5E9B3E0ECEDFAE221
:1006E0000E9499140E94451480916C038093980392
:1006F0000E942607089580E080935A0180E080934D
:100700005B0181E080935C0280E090E0A5E6B3E0CD
:100710008D939C93ADE5B3E08C918F5F8C9340916A
:10072000640300915D03041711F00C949D0380E0B5
:10073000809364038FEF80936303089580915D023B
:10074000815080935D0281E080933D0140915D0284
:1007500000913D01041718F011F00C94C703ADE3AC
:10076000B1E0AD90BB24ACE5B1E0AA0DBB1D8C910E
:1007700080933E0131E0AEE3B1E00E945D13ADE352
:10078000B1E08C918F5F8C9310F40C94A60381E000
:1007900080935C0281E080935D0280E08093670338
:1007A0000895E6EDF2E20E949914A8E5B1E08C917B
:1007B00099270E948B14ADE5B1E00E944514ADE588
:1007C000B1E00E945815AEE3B1E08C9300915C015A
:1007D000013011F00C942B0400913E0141E0040F14
:1007E000AFE3B1E00C9380913E0180933D014091D5
:1007F0003D0101E0041718F011F00C941E04ADE364
:10080000B1E0AD90BB24ACE5B1E0AA0DBB1D8C916D
:10081000AFE3B1E0AD90BB24ACE5B1E0AA0DBB1DE8
:100820008C9380913F01815080933F0180913D01E5
:10083000815080933D0110F00C94F70380913E01AC
:1008400080935D0100913E0142E0040FADE5B2E00E
:100850000C930C94C004023011F00C9471040091BC
:100860003E0142E0040FAFE3B1E00C9380913E0102
:1008700080933D0140913D0101E0041718F011F013
:100880000C946104ADE3B1E0AD90BB24ACE5B1E004
:10089000AA0DBB1D8C91AFE3B1E0AD90BB24ACE5DC
:1008A000B1E0AA0DBB1D8C9380913F0181508093D4
:1008B0003F0180913D01815080933D0110F00C94E7
:1008C0003A0480E080935D0180913E0180935E0157
:1008D00000913E0143E0040FADE5B2E00C930C94AF
:1008E000C004043011F00C94C00400913E0144E0B7
:1008F000040FAFE3B1E00C9380913E0180933D0182
:1009000040913D0101E0041718F011F00C94A70488
:10091000ADE3B1E0AD90BB24ACE5B1E0AA0DBB1DE9
:100920008C91AFE3B1E0AD90BB24ACE5B1E0AA0D92
:10093000BB1D8C9380913F01815080933F0180913A
:100940003D01815080933D0110F00C94800480EFB4
:1009500080935D018091580180935E0180915901DF
:1009600080935F0180913E018093600100913E0180
:1009700045E0040FADE5B2E00C9381E080935C01AB
:10098000A8E5B1E08C918F5F8C9300915801013103
:1009900010F40C94CE0480E08093580180915901AA
:1009A00081508093590181E080935C0208950F92F9
:1009B0001F922F923F924F925F927F92AF92BF927F
:1009C000CF92DF92EF92FF920F931F932F933F935B
:1009D0004F935F936F937F938F939F93AF93BF9347
:1009E000CF93DF93EF93FF938FB78F938BB78F9353
:1009F00088278BBF00915B010A3F10F00C9405051E
:100A0000ABE5B1E08C918F5F8C93ABE5B1E0AD903D
:100A1000BB24ADE5B2E0AA0DBB1D8091C6008C934E
:100A200081E080935F0381E080935E038F918BBFB1
:100A30008F918FBFFF91EF91DF91CF91BF91AF91D8
:100A40009F918F917F916F915F914F913F912F91E6
:100A50001F910F91FF90EF90DF90CF90BF90AF90DC
:100A60007F905F904F903F902F901F900F90189520
:100A700080E08093560170E07093B90070E070934D
:100A8000B90071E17093B80070E87093BB00A9E3FE
:100A9000B1E08C918093BA0075E47093BC00089526
:100AA0000F921F922F923F924F925F927F92AF923E
:100AB000BF920F931F932F933F934F935F936F9327
:100AC0007F938F939F93AF93BF93CF93DF93EF93D6
:100AD000FF938FB78F938BB78F9388278BBF00912E
:100AE000B9004CEF0423ACE3B1E00C9300913C015E
:100AF000003611F00C94810575EC7093BC000C94D9
:100B0000EC06083611F00C948A0575EC7093BC0065
:100B10000C94EC06003711F00C94930575EC70936F
:100B2000BC000C94EC06083711F00C949C0575EC95
:100B30007093BC000C94EC06003811F00C94C105C5
:100B400000915B010A3F10F00C94AB05ABE5B1E0FE
:100B50008C918F5F8C93ABE5B1E0AD90BB24ADE59C
:100B6000B2E0AA0DBB1D8091BB008C9382E0809304
:100B70005E0381E080935F0375EC7093BC000C947E
:100B8000EC06083811F00C94E60500915B010A3F71
:100B900010F00C94D005ABE5B1E08C918F5F8C9395
:100BA000ABE5B1E0AD90BB24ADE5B2E0AA0DBB1D55
:100BB0008091BB008C9382E080935E0381E0809300
:100BC0005F0375EC7093BC000C94EC06003911F0D7
:100BD0000C940B0600915B010A3F10F00C94F50594
:100BE000ABE5B1E08C918F5F8C93ABE5B1E0AD905C
:100BF000BB24ADE5B2E0AA0DBB1D8091BB008C9378
:100C000082E080935E0381E080935F0375EC7093D4
:100C1000BC000C94EC06083911F00C9430060091DD
:100C20005B010A3F10F00C941A06ABE5B1E08C9121
:100C30008F5F8C93ABE5B1E0AD90BB24ADE5B2E046
:100C4000AA0DBB1D8091BB008C9382E080935E0354
:100C500081E080935F0375EC7093BC000C94EC060C
:100C6000003A11F00C94390675EC7093BC000C94AA
:100C7000EC06083A11F00C946C0640915D0200916C
:100C80005C02041781E008F080E08F9300913A0144
:100C9000013081E009F080E09F918923882311F4DD
:100CA0000C946406ACE5B2E0AD90BB24ACE5B1E0D9
:100CB000AA0DBB1D8C918093BB00ACE5B2E08C917A
:100CC0008F5F8C930C94670670E87093BB0075EC93
:100CD0007093BC000C94EC06003B11F00C949F0642
:100CE00040915D0200915C02041781E008F080E011
:100CF0008F9300913A01013081E009F080E09F91EB
:100D00008923882311F40C949706ACE5B2E0AD90EA
:100D1000BB24ACE5B1E0AA0DBB1D8C918093BB0058
:100D2000ACE5B2E08C918F5F8C930C949A0670E8DE
:100D30007093BB0075EC7093BC000C94EC06083B00
:100D400011F00C94D20640915D0200915C020417F0
:100D500081E008F080E08F9300913A01013081E05A
:100D600009F080E09F918923882311F40C94CA062E
:100D7000ACE5B2E0AD90BB24ACE5B1E0AA0DBB1D83
:100D80008C918093BB00ACE5B2E08C918F5F8C932B
:100D90000C94CD0670E87093BB0075EC7093BC00AA
:100DA0000C94EC06003C11F00C94DE0670E8709395
:100DB000BB0075EC7093BC000C94EC06083C11F081
:100DC0000C94EA0670E87093BB0075EC7093BC005D
:100DD0000C94EC060E94380540915D0200915C0283
:100DE000041710F40C94080781E080935C0281E002
:100DF00080935D0280E08093670300915901003089
:100E000018F011F00C9406070C9408070E94D10307
:100E10008F918BBF8F918FBFFF91EF91DF91CF911A
:100E2000BF91AF919F918F917F916F915F914F9102
:100E30003F912F911F910F91BF90AF907F905F9046
:100E40004F903F902F901F900F90189581E08093C6
:100E50009B0480E080939C0480E080936B0380E09F
:100E600090E0ADE6B3E08D939C9381E090E0A9E63D
:100E7000B3E08D939C93429A089542987091C90073
:100E80007F7E7093C9008EEF0E947E138EEF0E94CA
:100E90007E1331E0ACE6B3E00E94791380EE0E944D
:100EA0007E1381E080933C0140916F0300913C01EF
:100EB000041718F011F00C947507ACE3B1E0AD9095
:100EC000BB24AFEFB0E0AA0DBB1D8C9180933D0118
:100ED00031E0ADE3B1E00E947913ACE3B1E08C9175
:100EE0008F5F8C9310F40C9454078DEF0E947E1347
:100EF000429A0E947B0381E090E00E94041470916A
:100F0000C90070617093C90008950091A403023074
:100F100011F00C941B0985E080935D019091A90369
:100F20000E94F413082F11272227332740E051EEA7
:100F300065EF75E00E942214A8E4B1E00D931D93C3
:100F40002D933D939091A8030E94F413082F11272D
:100F50002227332740E452E46FE070E00E9422141D
:100F6000ACE4B1E00D931D932D933D93A8E4B1E063
:100F70000D911D912D913C91ACE4B1E04D915D91AD
:100F80006D917C910E949F14A8E4B1E00D931D9394
:100F90002D933D939091A7030E94F413082F1127DE
:100FA0002227332740E157E260E070E00E942214DC
:100FB000ACE4B1E00D931D932D933D93A8E4B1E013
:100FC0000D911D912D913C91ACE4B1E04D915D915D
:100FD0006D917C910E949F14A8E4B1E00D931D9344
:100FE0002D933D939091A6030E94F413082F11278F
:100FF0002227332744E650E060E070E00E9422148C
:10100000ACE4B1E00D931D932D933D93A8E4B1E0C2
:101010000D911D912D913C91ACE4B1E04D915D910C
:101020006D917C910E949F14A8E4B1E00D931D93F3
:101030002D933D93A8E4B1E00D911D912D913C912C
:101040009091A5030E94F413482F55276627772710
:101050000E949F14A8E4B1E00D931D932D933D933E
:10106000A8E4B1E00D911D912D913C9140E857E429
:1010700061EA79E10E94A414A8E4B1E00D931D9304
:101080002D933D9380914B0180935E0180914A01A5
:1010900080935F01809149018093600180914801B4
:1010A000809361019091AF030E94F413082F1127E0
:1010B0002227332740E051EE65EF75E00E942214AD
:1010C000A8E4B1E00D931D932D933D939091AE0351
:1010D0000E94F413082F11272227332740E452E4FB
:1010E0006FE070E00E942214ACE4B1E00D931D9318
:1010F0002D933D93A8E4B1E00D911D912D913C916C
:10110000ACE4B1E04D915D916D917C910E949F1492
:10111000A8E4B1E00D931D932D933D939091AD0301
:101120000E94F413082F11272227332740E157E2AA
:1011300060E070E00E942214ACE4B1E00D931D93D6
:101140002D933D93A8E4B1E00D911D912D913C911B
:10115000ACE4B1E04D915D916D917C910E949F1442
:10116000A8E4B1E00D931D932D933D939091AC03B2
:101170000E94F413082F11272227332744E650E05A
:1011800060E070E00E942214ACE4B1E00D931D9386
:101190002D933D93A8E4B1E00D911D912D913C91CB
:1011A000ACE4B1E04D915D916D917C910E949F14F2
:1011B000A8E4B1E00D931D932D933D93A8E4B1E015
:1011C0000D911D912D913C9140E05EED69E37AE136
:1011D0000E94A414A8E4B1E00D931D932D933D93B8
:1011E000A8E4B1E00D911D912D913C919091AB033C
:1011F0000E94F413482F5527662777270E949F14D3
:10120000A8E4B1E00D931D932D933D9380914B0184
:101210008093620180914A0180936301809149012A
:101220008093640180914801809365018AE08093F6
:101230005D020C94740A033011F00C94F70982E0FB
:1012400080935D019091A5030E94F413A8E4B1E09E
:101250008D9388278D938D938C939091A6030E94F4
:10126000F413082F11272227332744E650E060E0CB
:1012700070E00E942214ACE4B1E00D931D932D9315
:101280003D93A8E4B1E00D911D912D913C91ACE40A
:10129000B1E04D915D916D917C910E949F14A8E405
:1012A000B1E00D931D932D933D939091A7030E9460
:1012B000F413082F11272227332740E157E260E07B
:1012C00070E00E942214ACE4B1E00D931D932D93C5
:1012D0003D93A8E4B1E00D911D912D913C91ACE4BA
:1012E000B1E04D915D916D917C910E949F14A8E4B5
:1012F000B1E00D931D932D933D939091A8030E940F
:10130000F413082F11272227332740E452E46FE01B
:1013100070E00E942214ACE4B1E00D931D932D9374
:101320003D93A8E4B1E00D911D912D913C91ACE469
:10133000B1E04D915D916D917C910E949F14A8E464
:10134000B1E00D931D932D933D939091A9030E94BD
:10135000F413082F11272227332740E051EE65EFC1
:1013600075E00E942214ACE4B1E00D931D932D931F
:101370003D93A8E4B1E00D911D912D913C91ACE419
:10138000B1E04D915D916D917C910E949F14A8E414
:10139000B1E00D931D932D933D93A8E4B1E00D9121
:1013A0001D912D913C9140E857E461EA79E10E945A
:1013B000A414A8E4B1E00D931D932D933D9382E016
:1013C00080935D0280914B0180935E0180914A0180
:1013D00080935F0180914901809360018091480171
:1013E0008093610185E080935D020C94740A04305F
:1013F00011F00C940E0A84E080935D018091A503A6
:1014000080935E010091A60341E0041BAFE5B1E0CB
:101410000C9384E080935D020C94740A0C3011F0FC
:101420000C94740A8BE080935D019091A7030E9455
:10143000F413082F11272227332740E157E260E0F9
:1014400070E00E942214A8E4B1E00D931D932D9347
:101450003D939091A6030E94F413082F112744E6B0
:1014600050E00E941814A4E4B1E00D931C93A8E48A
:10147000B1E00D911D912D913C91A4E4B1E04D910D
:101480005C91662777270E949F14A8E4B1E00D9332
:101490001D932D933D93A8E4B1E00D911D912D91E5
:1014A0003C919091A5030E94F413482F552766277D
:1014B00077270E949F14A8E4B1E00D931D932D930C
:1014C0003D93A8E4B1E08D919C91A2E4B1E08D93AD
:1014D0009C938091430180935E01809142018093AF
:1014E0005F0183E080935D02089500915A0104300A
:1014F00010F40C94860B80E08093730380915F025C
:1015000080937203809160028093710380916102E5
:1015100080937003A0E0B1E0E2EEFAE20E94991439
:101520000E94451440E856E968E970E0A0E7B3E09E
:101530000D911D912D913C91041715072607370732
:1015400010F00C947D0BA0E7B3E00D911D912D914F
:101550003C9140E857E461EA79E10E949F14A0E7DA
:10156000B3E00D931D932D933D93A0E7B3E00D9150
:101570001D912D913C9140E051EE65EF75E00E9488
:101580009513A8E4B1E04D935D936D937D938091A5
:10159000480180933C0180913C010E94ED13A5E03D
:1015A000B1E08C93A0E7B3E00D911D912D913C919A
:1015B00040E051EE65EF75E00E949513A0E7B3E0BF
:1015C0000D931D932D933D93A0E7B3E00D911D91D5
:1015D0002D913C9140E452E46FE070E00E9495133D
:1015E000A8E4B1E04D935D936D937D9380914801A4
:1015F00080933C0180913C010E94ED13A4E0B1E096
:101600008C93A0E7B3E00D911D912D913C9140E4A6
:1016100052E46FE070E00E949513A0E7B3E00D93F1
:101620001D932D933D93A0E7B3E00D911D912D9156
:101630003C9140E157E260E070E00E949513A8E41D
:10164000B1E04D935D936D937D93809148018093BC
:101650003C0180913C010E94ED13A3E0B1E08C932A
:10166000A0E7B3E00D911D912D913C9140E157E22F
:1016700060E070E00E949513A0E7B3E00D931D9326
:101680002D933D93A0E7B3E00D911C9144E650E00B
:101690000E943C13A2E4B1E04D935C93809142011F
:1016A00080933C0180913C010E94ED13A2E0B1E0E7
:1016B0008C93A0E7B3E00D911D912D913C9144E6F0
:1016C00050E060E070E00E949513A0E7B3E00D9356
:1016D0001D932D933D938091700380933C018091E5
:1016E0003C010E94ED13A1E0B1E08C9386E0809371
:1016F0006F030E943D070C94840B84E08093630386
:1017000080915D03809364030E947B030895A0E0B1
:10171000B1E0EAEEFAE20E9499140E94451481E0D9
:1017200080936F030E943D07089500915A01043091
:1017300010F40C94D00B00916002053081E008F0A9
:1017400080E08F9300916002023081E008F080E039
:101750009F918923882311F40C94C70B86E0809312
:10176000000180915F0280933C0180913C01809355
:1017700001010091600241E0040FA2E0B1E00C938E
:1017800083E080936F030E943D070C94D00B84E0AC
:101790008093630380915D03809364030E947B03C5
:1017A0000895A0E0B1E0ECEEFAE20E9499140E94E4
:1017B000451481E080936F030E943D07089582E005
:1017C000A0E0B1E08C9381E080936F030E943D071D
:1017D0000895A0E0B1E0EEEEFAE20E9499140E94B2
:1017E000451481E080936F030E943D070895A0E0B7
:1017F000B1E0E0EFFAE20E9499140E94451481E002
:1018000080936F030E943D070895A0E0B1E0E2EFEE
:10181000FAE20E9499140E94451481E080936F03BC
:101820000E943D070895A0E0B1E0E4EFFAE20E94D3
:1018300099140E94451481E080936F030E943D0734
:10184000089500915A01043010F40C94CF0CAFE5C8
:10185000B2E00D91112744E650E00E941814A2E472
:10186000B1E00D931C93A0E6B2E00D91112740E08A
:1018700051E00E941814A4E4B1E00D931C93A2E47B
:10188000B1E00D911C91A4E4B1E04D915C91040F85
:10189000151FA2E4B1E00D931C93A2E4B1E00D91F9
:1018A0001C91A1E6B2E04D915527040F151FA2E44B
:1018B000B1E00D931C9340EA56E861E070E0A2E4C9
:1018C000B1E00D911C91222733270E94A9140CF43A
:1018D00002C00C94C60C8DE080930001A2E4B1E03C
:1018E0000D911C9140E157E20E943C13A4E4B1E049
:1018F0004D935C938091440180933C0180913C0125
:101900000E94ED13A3E0B1E08C93A2E4B1E00D914D
:101910001C9140E157E20E943C13A2E4B1E00D9318
:101920001C93A2E4B1E00D911C9144E650E00E94AA
:101930003C13A4E4B1E04D935C9380914401809307
:101940003C0180913C010E94ED13A2E0B1E08C9338
:10195000A2E4B1E00D911C9144E650E00E943C13DA
:10196000A2E4B1E00D931C938091420180933C016D
:1019700080913C010E94ED13A1E0B1E08C9384E0E2
:1019800080936F030E943D070C94CF0C84E08093FA
:10199000630380915D03809364030E947B03089539
:1019A000A0E0B1E0E6EFFAE20E9499140E9445142B
:1019B00081E080936F030E943D07089580E080934B
:1019C0005B0180E080935A01089500915A01033031
:1019D00010F40C94390D80915F028093580180912E
:1019E00060028093590100915801013181E008F0B3
:1019F00080E08F9300915901013181E008F080E08F
:101A00009F918923882311F40C94300D0091590182
:101A1000003018F011F00C940F0D0C942E0D81E095
:101A20008093670384E080935C010E94D10300915E
:101A30005E03013011F00C942E0D0E949E03009164
:101A40005901003018F011F00C94280D0C942E0D53
:101A50000E94D1030E949E030C941F0D0C94370D1D
:101A600084E08093630380915D03809364030E940C
:101A70007B03089581E0809367039EE180E0ADE5FC
:101A8000B1E00E940F138CEF80935D0183E080939F
:101A90003C01EDE5F3E0A0E0B1E00E94CC14A0E051
:101AA000B1E00E945815AFE3B1E08C9381E08093E0
:101AB0003D0140913F0100913D01041718F011F0E4
:101AC0000C94810DADE3B1E0AD90BB24AFEFB0E07D
:101AD000AA0DBB1D8C91ACE3B1E0AD90BB24ACE58D
:101AE000B1E0AA0DBB1D8C93ACE3B1E08C918F5F8C
:101AF0008C93ADE3B1E08C918F5F8C9310F40C94D8
:101B0000590D00916303003011F00C94910DA0E089
:101B1000B1E0E8EFFAE20E9499140E9445140C9497
:101B20005D0E013011F00C949F0DA0E0B1E0EEE0ED
:101B3000FBE20E9499140E9445140C945D0E023041
:101B400011F00C94AD0DA0E0B1E0ECE1FBE20E94DD
:101B500099140E9445140C945D0E033011F00C94FE
:101B6000BB0DA0E0B1E0E0E3FBE20E9499140E940B
:101B700045140C945D0E043011F00C94C90DA0E0D6
:101B8000B1E0E6E4FBE20E9499140E9445140C9433
:101B90005D0E053011F00C94D70DA0E0B1E0EAE540
:101BA000FBE20E9499140E9445140C945D0E0630CD
:101BB00011F00C94E50DA0E0B1E0E0E7FBE20E943B
:101BC00099140E9445140C945D0E073011F00C948A
:101BD000F30DA0E0B1E0ECE8FBE20E9499140E9452
:101BE00045140C945D0E083011F00C94010EA0E029
:101BF000B1E0E4EAFBE20E9499140E9445140C94BF
:101C00005D0E093011F00C940F0EA0E0B1E0E2EC93
:101C1000FBE20E9499140E9445140C945D0E0A3058
:101C200011F00C941D0EA0E0B1E0E4EDFBE20E9487
:101C300099140E9445140C945D0E0B3011F00C9415
:101C40002B0EA0E0B1E0E0EEFBE20E9499140E94AE
:101C500045140C945D0E0C3011F00C94390EA0E07C
:101C6000B1E0E4EFFBE20E9499140E9445140C9449
:101C70005D0E0D3011F00C94470EA0E0B1E0E6E0EF
:101C8000FCE20E9499140E9445140C945D0E0F3FD3
:101C900011F00C94550EA0E0B1E0EEE1FCE20E94E0
:101CA00099140E9445140C945D0EA0E0B1E0ECE2A2
:101CB000FCE20E9499140E944514A0E0B1E00E9449
:101CC0005815AFE3B1E08C9381E080933D014091E2
:101CD0003F0100913D01041718F011F00C948F0E94
:101CE000ADE3B1E0AD90BB24AFEFB0E0AA0DBB1DFA
:101CF0008C91ACE3B1E0AD90BB24ACE5B1E0AA0DB2
:101D0000BB1D8C93ACE3B1E08C918F5F8C93ADE302
:101D1000B1E08C918F5F8C9310F40C94670EE4E625
:101D2000F3E0A0E0B1E00E94CC14A0E0B1E00E949A
:101D30005815AFE3B1E08C9381E080933D01409171
:101D40003F0100913D01041718F011F00C94C70EEB
:101D5000ADE3B1E0AD90BB24AFEFB0E0AA0DBB1D89
:101D60008C91ACE3B1E0AD90BB24ACE5B1E0AA0D41
:101D7000BB1D8C93ACE3B1E08C918F5F8C93ADE392
:101D8000B1E08C918F5F8C9310F40C949F0E0091B6
:101D90003C0143E0041BAEE5B1E00C9380913C01B3
:101DA00080935D0200915E03013011F00C94DA0E15
:101DB0000E949E030E947B03089581E08093670345
:101DC0008DEF80935D0184E080935E0183E08093DA
:101DD0005D0200915E03013011F00C94F10E0E943F
:101DE0009E030E947B03089500915A01023010F473
:101DF0000C940A1000915F02003011F00C94600FF7
:101E000000915A01033010F40C945E0F00916002AF
:101E1000003011F00C94100F0E947B030C945E0FA5
:101E20000091600243E0040FACE3B1E00C934091F9
:101E30003C0100915A01041710F40C945E0F94E1D8
:101E400080E0A3E2B1E00E940F1300913C01073152
:101E500018F011F00C942E0F0C94310F87E1809341
:101E60003C0184E080933D0140913C0100913D01A3
:101E7000041718F011F00C94570FADE3B1E0AD90DA
:101E8000BB24ADE5B2E0AA0DBB1D8C91ADE3B1E082
:101E9000AD90BB24AFE1B1E0AA0DBB1D8C93ADE3C7
:101EA000B1E08C918F5F8C9310F40C94340FE1E0CF
:101EB000F0E0A3E2B1E07BE70E9429150C940A1040
:101EC000013011F00C94790F00915A01033010F495
:101ED0000C94770F8091600280933801E6E1F0E086
:101EE000A8E3B1E07BE70E9418150E947B030C94E5
:101EF0000A10023011F00C94A10F00915A01033026
:101F000010F40C949F0F00916002023010F00C94BA
:101F1000960F8091600280933A01E8E1F0E0AAE335
:101F2000B1E07BE70E9418150C949D0F84E080932C
:101F3000630380915D03809364030E947B030C9490
:101F40000A10033011F00C94D50F00915A010330A0
:101F500010F40C94D30F8091600280933D010091A6
:101F60003D01003810F00C94CA0FADE3B1E00C91C4
:101F700042E0049F0C9280913D0180933901E7E19A
:101F8000F0E0A9E3B1E07BE70E9418150E94380554
:101F90000C94D10F84E08093630380915D03809360
:101FA00064030E947B030C940A10043011F00C941B
:101FB000011000915A01033010F40C94FF0F80912E
:101FC000600280933D0100913D01023010F00C94BD
:101FD000F60F80913D0180933B01E9E1F0E0ABE336
:101FE000B1E07BE70E9418150C94FD0F84E080930C
:101FF000630380915D03809364030E947B030C94D0
:102000000A1084E08093630380915D0380936403EE
:102010000E947B03089500915A01023010F40C9441
:10202000D81081E0809367038FEF80935D018091EA
:102030005F0280935E0180E080935D0200915F0209
:10204000003011F00C945E10A3E2B1E00E9458152C
:10205000AEE3B1E08C9380913E0180935F0184E018
:1020600080935D0281E080933D0140913E010091AB
:102070003D01041718F011F00C945C10ADE3B1E0D1
:10208000AD90BB24A2E2B1E0AA0DBB1D8C91ADE5E1
:10209000B2E0AD90BB24ACE5B1E0AA0DBB1D8C93C2
:1020A000ADE5B2E08C918F5F8C93ADE3B1E08C91A4
:1020B0008F5F8C930C9435100C94C510013011F087
:1020C0000C946B108091380180935F0184E08093C1
:1020D0005D020C94C510023011F00C9478108091C0
:1020E0003A0180935F0184E080935D020C94C510F7
:1020F000033011F00C948D100091390142E00E94E0
:102100004815ADE3B1E00C9380913D0180935F01F0
:1021100084E080935D020C94C510043011F00C949F
:102120009A1080913B0180935F0184E080935D026F
:102130000C94C510053011F00C94A61080E080932B
:102140005F0184E080935D020C94C510063011F0AD
:102150000C94BE1083E080935F0188E3A0E6B1E0B9
:102160008C938EE4A1E6B1E08C9381E3A2E6B1E02A
:102170008C9387E080935D020C94C51084E080937B
:10218000630380915D038093640300915D020030DE
:1021900018F011F00C94CE100C94D61000915E0340
:1021A000013011F00C94D6100E949E030E947B0314
:1021B000089500915E02003011F00C94F91081E056
:1021C0008093670380E08093580181E080935901F8
:1021D00082E080935C010E94D10300915E03013094
:1021E00011F00C94F5100E949E030E947B030C9446
:1021F000681100915E020F3E10F00C9432110091B4
:102200005E020C3010F00C942E11ECE2F1E1EF9331
:10221000FF93E4E1F1E1AEE5B2E08C919927880FFC
:10222000991FE80FF91F09940C9400000C94750A8B
:102230000C94870B0C94950B0C94D10B0C94DF0B26
:102240000C94E90B0C94F70B0C94050C0C94130CE8
:102250000C94210C0C94D00C0C9430110E947B0334
:102260000C94681100915E0240EF041BACE3B1E0F6
:102270000C93E8E6F1E1EF93FF93E8E4F1E1ACE3DE
:10228000B1E08C919927880F991FE80FF91F0994E5
:102290000C94E50C0C94DE0C0C94DE0C0C94DE0C0F
:1022A0000C94DE0C0C94DE0C0C94DE0C0C94DE0C06
:1022B0000C94DE0C0C94DE0C0C94DE0C0C94DE0CF6
:1022C0000C943A0D0C94DD0E0C94F40E0C940B103F
:1022D0000895F894FFCF303B6D3B444B3152493B5E
:1022E000494334373120496E746572666163653BDA
:1022F0005630312E333B313B3137353B313B313773
:102300003B312D3100313B6F702C66726571656E0B
:1023100063793B313B31303030303030302C7B34DE
:10232000333030303030303020746F20343339392E
:1023300039393939307D3B6C696E3B487A00323B24
:1023400061702C61733100333B6F732C6D6F64656A
:102350003B323B302C4C53423B312C5553423B31AA
:102360002C414D3B332C43573B302C46494C313BA1
:10237000312C46494C3200342C61733300353B61BB
:10238000702C62616E642065646765206672657199
:1023900075656E636965733B313B312C7B3433303B
:1023A0003030303030307D2C6C6F773B6C696E3B59
:1023B000487A3B312C7B3434303030303030307D13
:1023C0002C686967683B6C696E3B2A3130487A003B
:1023D000363B6F752C7365742076666F206D6F6465
:1023E000653B313B302C69646C653B312C56464F64
:1023F000206D6F646500373B6F752C736574206DBD
:10240000656D6F7279206D6F64653B313B302E696D
:10241000646C653B312C6D656D6F7279206D6F64F6
:102420006500383B6F752C636F70792076666F207E
:10243000616E64206D6F646520746F206D656D6FD3
:1024400072793B313B302C69646C653B312C636F96
:10245000707920746F206D656D6F727900393B6FF4
:10246000752C636F7079206D656D6F727920746F54
:102470002076666F20616E64206D6F64653B313B32
:10248000302C69646C653B312C636F707920746FFC
:102490002076666F20616E64206D6F646500313058
:1024A0003B6F702C7772697465206F666673657414
:1024B0003B313B3130303030303B6C696E3B2A3140
:1024C0003030487A0031313B61702C61733130001B
:1024D0003234303B6C6E2C414E4E4F554E43454D81
:1024E000454E54533B3137353B3137003235323B63
:1024F00061612C4C415354204552524F523B323073
:102500002C6C6173745F6572726F72003235333B8D
:1025100061612C4D594320494E464F3B622C41434B
:1025200054495645003235343B6B612C494E444981
:1025300056494455414C495A4154494F4E3B32301B
:102540002C4E414D452C44657669636520313B62D4
:102550002C4E554D4245522C313B612C4932432C77
:10256000313B622C4144524553532C33302C7B3049
:1025700020746F203132377D3B612C5345524941E5
:102580004C2C3100323535203B6C612C494E44498E
:1025900056494455414C495A4154494F4E3B3230BB
:1025A0002C4E414D452C44657669636520313B6274
:1025B0002C4E554D4245522C313B612C4932432C17
:1025C000313B622C4144524553532C33302C7B30E9
:1025D00020746F203132377D3B612C534552494185
:1025E0004C2C313B622C42415544524154452C30D5
:1025F0002C7B31393230307D3B332C4E554D4245AA
:10260000525F4F465F424954532C386E3100ED9172
:10261000FC91EF5FFF4FFC93EE93089580E29030C2
:1026200019F08D939A95E9F79C93089509D00E942B
:10263000181400FC10D0089503D01ED001F8F9CF73
:102640000024E89457FF02C009D0689400F80BD02A
:1026500010F80124089502D009D0089550954095AE
:102660004F5F5F4F0895E89417FF08950095109508
:102670000F5F1F4F68940895352F242FE894452B42
:1026800011F468940895512F402F0027112780E1FD
:10269000440F551F001F111F021B130B416018F43C
:1026A000020F131F4E7F8A9599F708950E94811497
:1026B000802D11F00AD0FACF08958D9106D03A9569
:1026C000E1F708958DE001D08AE00090C00005FE9A
:1026D000FCCF8093C600089581E00090C80007FEFB
:1026E000882708950090C80007FEFCCF8091CE0097
:1026F00008958D9103D03A95E1F708950090C800B0
:1027000005FEFCCF8093CE00089588EE93E07CD048
:102710003197D9F7089500FC05D0089530D005D041
:1027200001F8F9CF37D03FD00895842F952FA62FE9
:10273000B72FE894452B462B472B11F46894089546
:10274000402F512F622F732F002711272227332765
:10275000F0E2440F551F661F771F001F111F221F35
:10276000331F081B190B2A0B3B0B416028F4080F81
:10277000191F2A1F3B1F4E7FFA9559F70895002411
:10278000E89477FF02C006D0689400F809D010F8EA
:102790000124089512D04F5F5F4F6F4F7F4F089510
:1027A000E89437FF089500951095209530950F5FB8
:1027B0001F4F2F4F3F4F6894089540955095609557
:1027C00070950895982F82958F70805D8D939F707E
:1027D000905D9D9388278C9308954AE0082F0E946E
:1027E00048150295802B0895892F8F70905110F015
:1027F000865FFCCF08953197F1F70895689462F8E9
:102800000895E89462F80895EF93FF93EE27E82B7C
:10281000E92B31F0E8E8F3E13197F1F70197D1F7CF
:10282000FF91EF91089501911191219130810895C7
:102830000F92B801469F8001479F100D569F100DC3
:102840000F9008950F921F922F92C801D901489FAF
:1028500080014A9F90014B9F202C499F100D211D04
:10286000321D5A9F202C589F100D211D321D599F3B
:10287000200D311D689F200D311D699F300D789FFF
:10288000300D2F901F900F9008950E9481140D928B
:102890000020D9F7089599910027A90FB01F11972B
:1028A000492F4A95FBB65E2F6F2FE8941127439569
:1028B000203019F0D895802D01C080818823E1F067
:1028C0007C917723C9F0781759F40EF0042F1395F3
:1028D00068941196319658F78BB783958BBFE7CFE5
:1028E000112321F0411BA11B1127B10BE894E52F07
:1028F000F62FFBBE1196DBCF882311F00027089539
:102900000895D895319628F48F938BB783958BBF14
:102910008F91002008950196019721F00E94811463
:10292000E9F7FACF08950F9301E00BBF0F91889458
:1029300008950F930027F9CF0F9302E0F6CF040F0D
:10294000151F261F371F0895041B150B260B370B69
:10295000089504171507260737070895000F111F5C
:10296000221F331F089500951095209530950F5F15
:102970001F4F2F4F3F4F0895019110810FC00E94AC
:1029800013140EC00E94131410C00191108117FF80
:1029900005C03FEF2FEF04C0008111272227332706
:1029A00037FF03C0E0DF8DE28D93CF92DF92EF928D
:1029B000AA24BB24CC24DD24EE2440E2EAE0FF2755
:1029C00055E093E38081890F87FD9F7083FD907FA1
:1029D000891B81935A95A9F7C1DFAA1CBB1CCC1C8B
:1029E000DD1CEE1C4A9551F7E894EFE0FF27829139
:1029F0000CD0EB30E0F71EF068948A2D0AD08827BF
:102A00008D93EF90DF90CF900895982F829501D00D
:102A1000892F8F70805D26F0803309F408956894C3
:102A20008D930895F999FECFE1BDF2BD31960895D9
:102A300091E001C092E07B3751F47FB7F894F2DF68
:102A40008D9180BDFA9AF99A9A95C9F77FBF772739
:102A50000895E8DF8D917B3729F480BDFA9AF99AC1
:102A60008823B9F77727089591E001C092E0DADF73
:102A7000F89A80B58D939A95D1F70895D3DFF89A97
:102A800080B58D93882319F09A95C1F79D93089589
:102A9000FF93881BF9E0001FFA9511F4FF91089548
:102AA000881F841B18F4840F8894F5CF0894F3CF03
:102AB0008FEF83959D919923E1F708954F4500008D
:102AC00044657669636520310000FEFE00E0000089
:102AD000FEFEE0000000FEFEE000FB00FEFEE00067
:102AE000FA003030303030300000030004000700BE
:102AF000080009000A000C003A20636F6D6D616EDA
:102B000064206E6F7420666F756E643A20003A2000
:102B1000493243206572726F723A20003A20776121
:102B2000746368646F672072657365743A2000008F
:102B30003A20636F6D6D616E6420776174636864C1
:102B40006F673A2000003A20706172616D657465AC
:102B500072206572726F723A20003A207478207485
:102B6000696D6520746F6F206C6F6E673A2000008E
:102B70003A206E6F742076616C69642061742074F1
:102B80006861742074696D653A2000003A206932EA
:102B9000635F627566666572206F766572666C6FDC
:102BA000773A20003A20493263206E6F74207265B4
:102BB00061647920746F20726563656976653A2077
:102BC00000003A20434956206F766572666C6F7735
:102BD0003A2000003A20434956204E4F4B3A2000FD
:102BE0003A206F7468657220434956206572726F8F
:102BF000723A20003A204349562077617463686432
:102C00006F673A2000003A204E6F2076616C69644D
:102C100020434956206865616465723A20003A2075
:102C20006E6F206572726F723A2000003A206F74E6
:0C2C3000686572206572726F723A2000B5
:00000001FF
