:1000000019C018951895189518951895189518955C
:100010001895189518951895189518951895189578
:100020001895189518951895189518951895189568
:10003000189518958FEF8DBFC8EDE0EC4E2E84E03B
:100040008EBFD4E0F4E05F2EA89584B7082E877F9A
:1000500084BF88E199278093600090936000EEEF61
:10006000F3E0A0E0B1E088278D933197E9F780E4D1
:100070008093C40080E08093C50088E18093C10034
:100080006624E0E0FF270081A0E0B1E00C93A0E04F
:10009000B1E00C9103FB0EF008C082E0809357039F
:1000A000809152038093580303C08FEF80935703CE
:1000B00022981A9A74B7777F74BF8FE197E0809384
:1000C00060009093600070E07093B9007CE57093DD
:1000D000B8001A9901C0CBD0E0E0F0E0A0E1B0E0B8
:1000E000B9DC053009F401C0C2D0F7D080916000BE
:1000F000886080936000A8E4B1E08C918F5F8C935E
:10010000009148010F3F09F078C0A7E4B1E08C915D
:100110008F5F8C93009147010A3509F022C0ABE54F
:10012000B3E00D911C91003050E0150710F009F07C
:1001300001C016C0ABE5B3E0A8DBABE5B3E00D91C1
:100140001C91083250E0150710F009F001C008C0FA
:10015000F4D085E080935703809152038093580335
:100160004CC0043B09F025C000911801013081E02A
:1001700009F080E08F93A6E2B0E00C9104FB81E0EF
:100180000EF480E09F918923882309F40EC0A9E42E
:10019000B1E08C918F5F8C9300914901023310F094
:1001A00009F001C001C096D203C080E080934901EC
:1001B00024C00F3F09F021C0A9E5B3E00D911C91C7
:1001C000003050E0150710F009F001C003C0A9E5A8
:1001D000B3E05BDBA9E5B3E00D911C91083250E080
:1001E000150710F009F001C008C083E080935703A1
:1001F0008091520380935803B0D000915002013097
:1002000010F009F001C001C0C4D055DBAAE4B1E090
:100210008C9300914A01013009F01DC052DBAAE421
:10022000B1E08C9300915102003009F00DC0809133
:100230004A01A1E5B3E0AD90BB24A1E5B2E0AA0D6F
:10024000BB1D8C934BD207C086E0809357038091EF
:100250005203809358039FB7F8948091600088619F
:1002600080936000877E809360009FBF3FCFE1E076
:10027000F0E040DBE6E1F0E0A0E1BB2781E08C9319
:100280007BE7CCDBA42DB52DE4E5FBE156DBE1E01B
:10029000F0E0D2017BE7D3DBE7E1F0E0A0E1BB27B0
:1002A00082E08C937BE7BADBE8E1F0E0A0E1BB27DA
:1002B00081E08C937BE7B2DBE9E1F0E0A0E1BB27D2
:1002C00081E08C937BE7AADBE0E0F0E0A0E1BB27D4
:1002D00085E08C937BE7A2DB0895E6E1F0E0A6E100
:1002E000B1E0B8DBE1E0F0E0A1E0B1E094E1BCDB3B
:1002F000E7E1F0E0A7E1B1E0ADDBE8E1F0E0A8E1A3
:10030000B1E0A8DBE9E1F0E0A9E1B1E0A3DB81E045
:100310008093520380E08093580380E080934F01E4
:1003200081E08093530319D008D0D4D180E080932A
:10033000470180E080934801089581E080934F0257
:1003400081E08093500280E08093510280E090E051
:10035000ABE5B3E08D939C93089581E080935103C6
:1003600080E090E0A9E5B3E08D939C93A2E5B3E033
:100370008C918F5F8C934091580300915203041726
:1003800009F006C080E0809358038FEF80935703F5
:1003900008958091500281508093500281E08093B3
:1003A0001B014091500200911B01041710F009F04D
:1003B00016C0ABE1B1E0AD90BB24AFE4B1E0AA0D53
:1003C000BB1D8C9180931C0131E0ACE1B1E086DA79
:1003D000ABE1B1E08C918F5F8C9308F4E2CFADDF9D
:1003E000089581E080931B0100911B010E3F10F0E6
:1003F00009F011C080E0ABE1B1E0AD90BB24AFE407
:10040000B1E0AA0DBB1D8C93ABE1B1E08C918F5F85
:100410008C9308F4E9CFABE4B1E00D911C9100306E
:1004200050E0150709F004C0E4E2F6E128DAA1C0C3
:10043000013050E0150709F004C0EEE5F6E11FDADF
:1004400098C0023050E0150709F004C0E8E6F6E174
:1004500016DA8FC0033050E0150709F004C0E2E758
:10046000F6E10DDA86C0043050E0150709F004C04B
:10047000EAEAF6E104DA7DC0053050E0150709F03C
:1004800004C0E4EBF6E1FBD974C0063050E0150778
:1004900009F004C0E0ECF6E1F2D96BC0073050E09F
:1004A000150709F004C0E0EEF6E1E9D962C00830B2
:1004B00050E0150709F004C0E8EFF6E1E0D959C0B3
:1004C000093050E0150709F004C0E8E1F7E1D7D999
:1004D00050C00A3050E0150709F004C0E6E2F7E129
:1004E000CED947C00B3050E0150709F004C0E6E351
:1004F000F7E1C5D93EC00C3050E0150709F004C043
:10050000E4E4F7E1BCD935C00D3050E0150709F03F
:1005100004C0E0E6F7E1B3D92CC00E3050E0150777
:1005200009F004C0E0E8F7E1AAD923C00F3050E099
:10053000150709F004C0EAE9F7E1A1D91AC00031B2
:1005400050E0150709F004C0EAEDF7E198D911C0B1
:10055000013150E0150709F004C0E4E4F8E18FD957
:1005600008C0023150E0150709F003C0EAE5F8E1E0
:1005700086D988D9A0E5B1E0E0D981D9A0E5B1E07C
:100580008DDAACE1B1E08C9380911C0180931B016A
:1005900040911B0101E0041710F009F021C0009107
:1005A0001B0140914F01040FAAE1B1E00C93ABE1B4
:1005B000B1E0AD90BB24AFE4B1E0AA0DBB1D8C91BE
:1005C000AAE1B1E0AD90BB24AFE4B1E0AA0DBB1D40
:1005D0008C9380911B01815080931B0108F0D8CF30
:1005E00000914F01013009F02BC080911C018093D4
:1005F000500100911C0142E0040FA0E5B2E00C9311
:1006000081E080934F01ABE4B1E03FD900911C0140
:1006100042E0040FA0E5B2E00C93ABE4B1E00D9131
:100620001C91033150E0150708F406C080E090E00B
:10063000ABE4B1E08D939C9382E08093510243C080
:10064000023009F00FC080E08093500180911C01BE
:100650008093510100911C0143E0040FA0E5B2E03A
:100660000C9331C0043009F02EC080EF809350010C
:1006700080914B018093510180914D0180935201F3
:1006800080911C018093530100911C0145E0040FEF
:10069000A0E5B2E00C9381E080934F01ABE4B1E0C0
:1006A000F4D8ABE4B1E00D911C91033150E0150793
:1006B00008F406C080E090E0ABE4B1E08D939C9339
:1006C00082E080935102ADE4B1E0E6D881E080930E
:1006D0004F02089580E0809349010895A9E5B3E0B1
:1006E0000D911C91003050E0150709F003C0A9E5F9
:1006F000B3E0CBD800915202003009F021C082E073
:100700008093510281E090E0ABE5B3E08D939C9340
:1007100080E090E0ABE4B1E08D939C9381E090E0C9
:10072000ADE4B1E08D939C9382E080934F0159DE5C
:1007300000915303013009F001C02BDE0EDE64C7C7
:10074000013009F086C000915D03013009F078C0E6
:1007500000915103023008F46DC000915302003043
:1007600009F002C0FADD65C0009153020A3F10F0A3
:1007700009F001C009C084E08093570380915203BF
:1007800080935803EADD55C00091530242E0040F04
:10079000AEE5B3E00C9340915E0300915103041762
:1007A00008F442C083E080935F03AEE5B3E08C9130
:1007B00082508C9381E080931B0140915E030091F5
:1007C0001B01041710F009F02DC0AFE5B3E0AD90A8
:1007D000BB24A1E5B2E0AA0DBB1D8C9180931A0148
:1007E000109117011E7F65D97BD910911A0178D914
:1007F0006ED9AFE5B3E08C918F5F8C9362FA0EF007
:100800000AC081E08093570380915203809358037C
:1008100080E080935E03ABE1B1E08C918F5F8C93BD
:1008200008F4CBCF9ADD05C0A1E5B3E08C918F5FD2
:100830008C9305C0A1E5B3E08C918F5F8C9308C0C9
:1008400080E080935703809152038093580385DDA5
:10085000DBC6023009F067C000915D03013009F08A
:100860005AC000915103023008F44FC00091530266
:10087000003009F448C0009153020A3F10F009F01B
:1008800001C008C084E08093570380915203809395
:10089000580339C08091530280935E0381E08093B6
:1008A0001B0140915E0300911B01041710F009F039
:1008B0002AC0109117011160FCD812D92ED907D97E
:1008C000AAE1B1E01C9362FA0EF405C031E0AAE19E
:1008D000B1E004D80CC080E806D881E080935703CB
:1008E000809152038093580380E080935E03AFE5CC
:1008F000B3E08C918F5F8C93ABE1B1E08C918F5F13
:100900008C9308F4CECF29DD05C0A1E5B3E08C912E
:100910008F5F8C9307C080E08093570380915203D0
:100920008093580371C6003109F026C000915D0321
:10093000003009F018C082E08093510281E090E01D
:10094000ABE5B3E08D939C9383E090E0ABE4B1E042
:100950008D939C9381E090E0ADE4B1E08D939C9306
:1009600040DD17DD07C080E080935703809152037C
:1009700080935803F2DC48C6013109F08BC0009126
:100980005D03003009F07DC000915103023008F48E
:1009900072C000915302003009F002C0DEDC6AC070
:1009A000009153020A3F10F009F001C009C084E031
:1009B000809357038091520380935803CEDC5AC032
:1009C0000091530242E0040FAAE1B1E00C93409180
:1009D0001A0100915103041708F447C081E0809385
:1009E00052020091530242E0040FAEE5B3E00C93D3
:1009F00081E080935F0381E080931B0140915E035F
:100A000000911B01041710F009F02DC0AFE5B3E011
:100A1000AD90BB24A1E5B2E0AA0DBB1D8C918093E3
:100A20001A01109117011E7F44D85AD810911A014B
:100A300057D84DD8AFE5B3E08C918F5F8C9362FAB5
:100A40000EF00AC081E08093570380915203809397
:100A5000580380E080935E03ABE1B1E08C918F5F3F
:100A60008C9308F4CBCF79DC05C0A1E5B3E08C9181
:100A70008F5F8C9305C0A1E5B3E08C918F5F8C9361
:100A800008C080E0809357038091520380935803FD
:100A900064DCBAC5023109F0C1C000915D030030C9
:100AA00009F0B3C082E08093510281E090E0ABE5B1
:100AB000B3E08D939C9381E080935E0381E080930B
:100AC0005F0382E08093520281E080931B0140919A
:100AD0005E0300911B01041710F009F02DC0AFE573
:100AE000B3E0AD90BB24A1E5B2E0AA0DBB1D8C9193
:100AF00080931A01109117011E7FDBD7F1D7109157
:100B00001A01EED7E4D7AFE5B3E08C918F5F8C93F9
:100B100062FA0EF00AC081E080935703809152037D
:100B20008093580380E080935E03ABE1B1E08C9149
:100B30008F5F8C9308F4CBCF00915E03013009F0F6
:100B400063C0109117011160B4D7CAD7E6D7BFD7D9
:100B5000AEE5B3E01C93109117011160AAD7C0D77E
:100B6000DCD7B5D7AEE5B3E01C9362FA0EF00AC04D
:100B700081E080935703809152038093580380E073
:100B800080935E0300915E03003010F009F001C015
:100B90003BC082E1A8D631E0AEE5B3E09FD681E06C
:100BA00080931B0140915E0300911B01041710F01C
:100BB00009F02AC01091170111607BD791D7ADD7EA
:100BC00086D7AAE1B1E01C9362FA0EF405C031E0C9
:100BD000AAE1B1E083D60CC080E885D681E080939D
:100BE0005703809152038093580380E080935E0303
:100BF000AFE5B3E08C918F5F8C93ABE1B1E08C916A
:100C00008F5F8C9308F4CECF07C080E080935703AA
:100C10008091520380935803A0DBF6C4033109F09E
:100C2000B8C000915D03003009F0AAC081E0809354
:100C30005E0381E080935F038CEF8093520281E03A
:100C400080931B0140915E0300911B01041710F07B
:100C500009F02DC0AFE5B3E0AD90BB24A1E5B2E053
:100C6000AA0DBB1D8C9180931A01109117011E7F54
:100C700020D736D710911A0133D729D7AFE5B3E083
:100C80008C918F5F8C9362FA0EF00AC081E08093A2
:100C90005703809152038093580380E080935E0352
:100CA000ABE1B1E08C918F5F8C9308F4CBCF0091D6
:100CB0005E03013009F063C0109117011160F9D68D
:100CC0000FD72BD704D7AEE5B3E01C9310911701D3
:100CD0001160EFD605D721D7FAD6AEE5B3E01C9365
:100CE00062FA0EF00AC081E08093570380915203AC
:100CF0008093580380E080935E0300915E03003090
:100D000010F009F001C03BC082E1EDD531E0AEE565
:100D1000B3E0E4D581E080931B0140915E03009134
:100D20001B01041710F009F02AC01091170111607F
:100D3000C0D6D6D6F2D6CBD6AAE1B1E01C9362FAE1
:100D40000EF405C031E0AAE1B1E0C8D50CC080E8DE
:100D5000CAD581E080935703809152038093580352
:100D600080E080935E03AFE5B3E08C918F5F8C935E
:100D7000ABE1B1E08C918F5F8C9308F4CECF07C0CC
:100D800080E0809357038091520380935803E5DA03
:100D90003BC4043109F08CC000915D03003009F0C0
:100DA0007EC081E080935E0381E080935F038DEFDE
:100DB0008093520281E080931B0140915E03009179
:100DC0001B01041710F009F02DC0AFE5B3E0AD90A2
:100DD000BB24A1E5B2E0AA0DBB1D8C9180931A0142
:100DE000109117011E7F65D67BD610911A0178D617
:100DF0006ED6AFE5B3E08C918F5F8C9362FA0EF004
:100E00000AC081E080935703809152038093580376
:100E100080E080935E03ABE1B1E08C918F5F8C93B7
:100E200008F4CBCF00915E03013009F037C084E1B4
:100E30005AD581E080931B0140915E0300911B0114
:100E4000041710F009F02AC010911701116031D673
:100E500047D663D63CD6AAE1B1E01C9362FA0EF401
:100E600005C031E0AAE1B1E039D50CC080E83BD53E
:100E700081E080935703809152038093580380E070
:100E800080935E03AFE5B3E08C918F5F8C93ABE111
:100E9000B1E08C918F5F8C9308F4CECF07C080E0D7
:100EA00080935703809152038093580356DAACC362
:100EB0000C3E09F036C000915103023008F42BC0FB
:100EC00000915302003881E008F080E08F93009198
:100ED0005302003080E010F009F081E09F918923F7
:100EE000882309F40FC00091530242E0049FA7E158
:100EF000B1E00C92E7E1F0E0A7E1B1E07BE78ED54D
:100F0000E9DB07C084E0809357038091520380930C
:100F1000580323DA05C0A1E5B3E08C918F5F8C9371
:100F200073C30D3E09F00FC08DEEDDD400911701A3
:100F300042E0A4D5AAE1B1E00C9331E0AAE1B1E02E
:100F4000CDD40BDA61C30E3E09F034C000915103D9
:100F5000023008F429C000915302003009F00CC09F
:100F600080E080935D03EAE1F0E0A0E1BB2780E050
:100F70008C937BE753D516C0013009F00CC081E09B
:100F800080935D03EAE1F0E0A0E1BB2781E08C9370
:100F90007BE744D507C084E08093570380915203D8
:100FA00080935803DAD905C0A1E5B3E08C918F5F37
:100FB0008C932AC30F3E09F008C08FEE94D431E021
:100FC000ADE5B3E08BD4C9D91FC3003F09F068C0B9
:100FD00000915103033008F45DC0A3E5B2E08C91A9
:100FE000ABE4B1E08D9388278C93A4E5B2E08C91BB
:100FF000ADE4B1E08D9388278C93ABE4B1E00D9123
:101000001C91033150E0150781E008F080E08F93D8
:10101000ADE4B1E00D911C91033150E0150781E082
:1010200008F080E09F918923882309F42AC0009169
:101030005402003010F009F001C022C082E0809319
:10104000510281E090E0ABE5B3E08D939C9384E0A6
:1010500080934F01C6D900915303013009F010C0AD
:1010600098D9ADE4B1E00D911C91003050E0150726
:1010700010F009F001C003C0B4D98BD9F2CF5DD90B
:1010800007C084E0809357038091520380935803F4
:1010900064D905C0A1E5B3E08C918F5F8C93B4C295
:1010A0000C3F09F022C182E08093510281E090E080
:1010B000ABE5B3E08D939C9300915703003009F0AA
:1010C00006C0A0E5B1E0EEE5FBE137D456C0013043
:1010D00009F006C0A0E5B1E0E4E7FBE12ED44DC085
:1010E000023009F006C0A0E5B1E0E2E8FBE125D45A
:1010F00044C0033009F006C0A0E5B1E0E6E9FBE139
:101100001CD43BC0043009F006C0A0E5B1E0ECEA15
:10111000FBE113D432C0053009F006C0A0E5B1E010
:10112000E0ECFBE10AD429C0063009F006C0A0E5D6
:10113000B1E0E6EDFBE101D420C0073009F006C0C4
:10114000A0E5B1E0E2EFFBE1F8D317C0083009F009
:1011500006C0A0E5B1E0EAE0FCE1EFD30EC00F3F2E
:1011600009F006C0A0E5B1E0E6E2FCE1E6D305C087
:10117000A0E5B1E0E4E3FCE1E0D3A0E5B1E08ED48A
:10118000ACE1B1E08C9380911C0180931B014091F4
:101190001B0101E0041710F009F019C0ABE1B1E048
:1011A000AD90BB24AFE4B1E0AA0DBB1D8C91ABE1C7
:1011B000B1E0AD90BB24A4E5B1E0AA0DBB1D8C93BA
:1011C00080911B01815080931B0108F0E0CF8CEFD0
:1011D0008093500180E28093510180E2809352011C
:1011E00080E28093530180E280935401E2E5F3E0D2
:1011F000A2E3B1E0C7D3A2E3B1E050D4ADE1B1E0E6
:101200008C9381E080931B0140911D0100911B0193
:10121000041710F009F019C0ABE1B1E0AD90BB24A8
:10122000A1E3B1E0AA0DBB1D8C91ABE1B1E0AD90A3
:10123000BB24A1E5B1E0AA0DBB1D8C93ABE1B1E0ED
:101240008C918F5F8C9308F4DFCF00911C0146E0F6
:10125000040FA0E5B2E00C93E8E5F3E0A2E3B1E00F
:1012600091D3A2E3B1E01AD4ADE1B1E08C9381E077
:1012700080931B0140911D0100911B01041710F088
:1012800009F01EC0ABE1B1E0AD90BB24A1E3B1E039
:10129000AA0DBB1D8C91A0E5B2E0AD90BB24AFE4DC
:1012A000B1E0AA0DBB1D8C93A0E5B2E08C918F5FDD
:1012B0008C93ABE1B1E08C918F5F8C9308F4DACF23
:1012C000ACE1B1E08C918D5F8C9300911C01409159
:1012D0001D01040FA1E5B1E00C930091530301300F
:1012E00009F001C056D839D88FC10D3F09F01AC096
:1012F00082E08093510281E090E0ABE5B3E08D9312
:101300009C938DEF8093500184E08093510183E0A2
:101310008093500200915303013009F001C039D885
:101320001CD872C10E3F09F0BEC0009151030230BB
:1013300008F4B3C000915302003009F060C000917E
:101340005103033008F455C000915402003009F0F5
:1013500002C003D84DC00091540243E0040FAAE13B
:10136000B1E00C9340911A0100915103041708F465
:101370003AC094E180E0A1E0B1E096D200911A0178
:10138000073110F009F001C003C087E180931A0112
:1013900084E080931B0140911A0100911B01041706
:1013A00010F009F019C0ABE1B1E0AD90BB24A1E5AC
:1013B000B2E0AA0DBB1D8C91ABE1B1E0AD90BB24B6
:1013C000ADEFB0E0AA0DBB1D8C93ABE1B1E08C9109
:1013D0008F5F8C9308F4DFCFE1E0F0E0A1E0B1E0B3
:1013E0007BE72DD305C0A1E5B3E08C918F5F8C9393
:1013F00005C0A1E5B3E08C918F5F8C934DC00130A7
:1014000009F017C000915103033008F40CC080911B
:10141000540280931601E6E1F0E0A6E1B1E07BE73B
:10142000FDD29BD705C0A1E5B3E08C918F5F8C9373
:1014300033C0033009F028C000915103033008F491
:101440001DC08091540280931B0100911B0102304A
:1014500008F00BC080911B0180931901E9E1F0E0D5
:10146000A9E1B1E07BE7DAD207C084E080935703BB
:10147000809152038093580370D705C0A1E5B3E073
:101480008C918F5F8C9308C084E080935703809188
:1014900052038093580361D705C0A1E5B3E08C9156
:1014A0008F5F8C93B1C00F3F09F0A6C0009151032C
:1014B000023008F49BC082E08093510281E090E00A
:1014C000ABE5B3E08D939C938FEF809350018091B7
:1014D00053028093510180E08093500200915302A7
:1014E000003009F036C0A1E0B1E0D8D2ACE1B1E003
:1014F0008C9380911C018093520184E08093500270
:1015000081E080931B0140911C0100911B01041795
:1015100010F009F01DC0ABE1B1E0AD90BB24A0E03C
:10152000B1E0AA0DBB1D8C91A0E5B2E0AD90BB244B
:10153000AFE4B1E0AA0DBB1D8C93A0E5B2E08C91A5
:101540008F5F8C93ABE1B1E08C918F5F8C93DBCF9D
:101550003EC0013009F008C080911601809352010D
:1015600084E08093500233C0023009F008C08091BB
:1015700019018093520184E08093500228C0033007
:1015800009F007C080E08093520184E0809350020C
:101590001EC0043009F013C083E08093520188E339
:1015A000A3E5B1E08C938EE4A4E5B1E08C9381E3F4
:1015B000A5E5B1E08C9387E08093500208C084E0F9
:1015C000809357038091520380935803B6D60091BD
:1015D0005002003010F009F001C006C00091530322
:1015E000013009F001C0D5D6B8D605C0A1E5B3E0F9
:1015F0008C918F5F8C9308C080E08093570380911B
:10160000520380935803A9D69FB7F8948091600045
:10161000886180936000877E809360009FBF0895FB
:10162000F894FFCF303B6D3B444B3152493B525312
:101630003233325F4932435F696E7465726661634B
:1016400065204D61737465723B5630362E303B31E8
:101650003B3132303B313B32303B312D3100313B7D
:101660006F613B3235300000323B61612C61733178
:10167000000031363B6D3B444B3152493B525332B3
:1016800033325F4932435F696E74657266616365C8
:1016900020536C6176653B5630362E303B313B39FA
:1016A000303B313B383B312D310031372C6F613BC2
:1016B0003235300031382C61612C617331370000D4
:1016C00031393B61612C4C415354204552524F52A9
:1016D0003B32302C6C6173745F6572726F72000004
:1016E00032303B61612C4D594320494E464F3B629D
:1016F0002C414354495645003233363B6F612C49E7
:101700003243206164726573733B622C7B302074BA
:101710006F203132377D00003233373B61612C61FD
:101720007332333600003233383B6F612C6E6F5F9B
:101730006D79633B61003233393B61612C617332F7
:10174000333800003234303B6C6E2C414E4E4F55D6
:101750004E43454D454E54533B3132303B323000C1
:101760003235323B61612C4C415354204552524F2B
:10177000523B32302C6C6173745F6572726F720011
:101780003235333B61612C4D594320494E464F3B26
:10179000622C41435449564500003235343B6B615D
:1017A0002C494E444956494455414C495A415449A3
:1017B0004F4E3B32302C4E414D452C44657669638B
:1017C0006520313B622C4E554D4245522C313B61D8
:1017D0002C53455249414C2C31003235353B6C611C
:1017E0002C494E444956494455414C495A41544963
:1017F0004F4E3B32302C4E414D452C44657669634B
:101800006520313B622C4E554D4245522C313B6197
:101810002C53455249414C2C313B622C424155449A
:10182000524154452C302C7B31393230307D3B33A2
:101830002C4E554D4245525F4F465F424954532C02
:10184000386E3100522021282431202432292049A9
:101850004620243233393D310000522021282431E2
:1018600036202431372024313820243139202432C5
:10187000302920494620243233393D3000008E2E55
:101880009F2E0895E82DF92D0895ED91FC91EF5FBD
:10189000FF4FFC93EE930895ED91FC91E150F040E1
:1018A000FC93EE93089580E2903019F08D939A9511
:1018B000E9F79C93089581E00090C00007FE882717
:1018C000089588270090C00007FE089500C0809109
:1018D000C00087FFFCCF8091C60008958D9103D092
:1018E0003A95E1F708950090C00005FEFCCF809383
:1018F000C600089588EE93E00CD03197D9F708958B
:101900003197F1F70895689462F80895E89462F8C1
:101910000895EF93FF93EE27E82BE92B31F0E8E8E9
:10192000F3E13197F1F70197D1F7FF91EF91089526
:101930000191119121913081089504D00D920020E0
:10194000E1F70895C895319600200895000F111F02
:10195000221F331F089500951095209530950F5F35
:101960001F4F2F4F3F4F0895019110810DC0E0DFB1
:101970000DC0DEDF10C00191108117FF05C03FEFE1
:101980002FEF04C0008111272227332737FF03C020
:10199000E2DF8DE28D93CF92DF92EF92AA24BB24F7
:1019A000CC24DD24EE2440E2EAE0FF2755E093E377
:1019B0008081890F87FD9F7083FD907F891B8193B4
:1019C0005A95A9F7C3DFAA1CBB1CCC1CDD1CEE1C5E
:1019D0004A9551F7E894EFE0FF2782910CD0EB3065
:1019E000E0F71EF068948A2D0AD088278D93EF9037
:1019F000DF90CF900895982F829501D0892F8F7016
:101A0000805D26F0803309F4089568948D930895DD
:101A1000F999FECFE1BDF2BD3196089591E001C084
:101A200092E07B3751F47FB7F894F2DF8D9180BD5F
:101A3000FA9AF99A9A95C9F77FBF77270895E8DF50
:101A40008D917B3729F480BDFA9AF99A8823B9F7EA
:101A50007727089591E001C092E0DADFF89A80B527
:101A60008D939A95D1F70895D3DFF89A80B58D9329
:101A7000882319F09A95C1F79D930895FF93881BC9
:101A8000F9E0001FFA9511F4FF910895881F841B57
:101A900018F4840F8894F5CF0894F3CF8FEF8395D3
:101AA0009D919923E1F708953C983D984498459875
:101AB00008953D9A3C9803D03D9801D03C9AEF930D
:101AC000FF93E5E1F0E01CDFFF91EF9108953D9A6F
:101AD0003C9AF5DF3D98359BFECFF1DF3C98EFCF88
:101AE0000894111F01C0110F69F03D9A18F400000D
:101AF0003C9802C03C9A00C0E2DF3D98359BFECF87
:101B0000DEDFF1CF3D9A3C98DADF3D98359BFECF82
:101B1000E8943499689462F8D2CF089401C088940C
:101B2000331F11E03D9A3C98CADF3D98359BFECFAC
:101B3000C6DF889434990894111FA0F73D9A379511
:101B400010F43C9801C03C9ABADF3D98359BFECF1B
:101B5000B6DF0895446576696365203100003A2058
:101B6000636F6D6D616E64206E6F7420666F756E4D
:101B7000643A20003A20493243206572726F723A0B
:101B800020003A207761746368646F672072657320
:101B900065743A2000003A20636F6D6D616E6420B9
:101BA0007761746368646F673A2000003A2070615F
:101BB00072616D65746572206572726F723A200091
:101BC0003A2074782074696D6520746F6F206C6F93
:101BD0006E673A2000003A206E6F742076616C695F
:101BE0006420617420746861742074696D653A20A2
:101BF00000003A206932635F627566666572206F25
:101C0000766572666C6F773A2000493263206E6F9A
:101C10007420726561647920746F207265636569F0
:101C200076653A2000003A206E6F206572726F72FE
:101C30003A2000003A206F74686572206572726FF6
:041C4000723A2000D4
:00000001FF
