:100000000C94340018950000189500001895000015
:10001000189500001895000018950000189500002C
:10002000189500001895000018950000189500001C
:10003000189500001895000018950000189500000C
:1000400018950000189500001895000018950000FC
:1000500018950000189500001895000018950000EC
:1000600018950000189500008FEF8DBFC8EDE0ECEB
:100070004E2E88E08EBFD8E0F8E05F2EA89584B7BA
:10008000082E877F84BF88E1992780936000909332
:100090006000EEEFF7E0A0E0B1E088278D933197A4
:1000A000E9F780E48093C40080E08093C50088E194
:1000B0008093C10066248FE190E0ADE6B3E08D93BC
:1000C0009C938BE390E0AFE6B3E08D939C938AE53D
:1000D00090E0A1E7B3E08D939C9388E790E0A3E7DD
:1000E000B3E08D939C9387E990E0A5E7B3E08D930F
:1000F0009C9385EB90E0A7E7B3E08D939C9384ED10
:1001000090E0A9E7B3E08D939C9383EF90E0ABE799
:10011000B3E08D939C9381E191E0ADE7B3E08D93E3
:100120009C9380E391E0AFE7B3E08D939C938EE4E2
:1001300091E0A1E8B3E08D939C93E0E0FF2700817C
:10014000A0E0B1E00C93A0E0B1E00C9103FB16F04D
:100150000C94B30082E08093550380915003809308
:1001600056030C94B6008FEF8093550322982A9A79
:100170001A9A74B7777F74BF8FE197E0809360001D
:1001800090936000229A2A9A0E94970E01E010E054
:1001900020E030E0A6E9B3E00D931D932D933C934E
:1001A0001A990C94D5000E94C002E0E0F0E0A0E1B2
:1001B000B0E00E94820F053011F40C94E1000E941F
:1001C000C0020E94FE0280916000886080936000FF
:1001D000A8E4B1E08C918F5F8C93009148010F3FB0
:1001E00011F00C948101A7E4B1E08C918F5F8C93A6
:1001F000009147010A3511F00C942701A9E5B3E0FD
:100200000D911C91003050E0150718F011F00C947E
:100210000B010C942501A9E5B3E00E94E90DA9E5C5
:10022000B3E00D911C91083250E0150718F011F061
:100230000C941C010C9425010E94360385E08093E8
:10024000550380915003809356030C948101043B25
:1002500011F00C94560100911801013081E009F071
:1002600080E08F93A6E2B0E00C9104FB81E00EF4F5
:1002700080E09F918923882311F40C945101A9E413
:10028000B1E08C918F5F8C9300914901023318F09B
:1002900011F00C944D010C944F010E94BB040C947E
:1002A000540180E0809349010C9481010F3F11F0CB
:1002B0000C948101A7E5B3E00D911C91003050E052
:1002C000150718F011F00C9467010C946B01A7E569
:1002D000B3E00E94E90DA7E5B3E00D911C9108324F
:1002E00050E0150718F011F00C9478010C9481017E
:1002F00083E08093550380915003809356030E94BE
:10030000460340E050E060E070E0A6E9B3E00D9104
:100310001D912D913C91041715072607370718F0FA
:1003200011F00C9495010C94B901A6E9B3E00E9478
:10033000DC0D40E452E46FE070E0A6E9B3E00D911B
:100340001D912D913C91041715072607370718F0CA
:1003500011F00C94AD010C94B90100E010E020E024
:1003600030E0A6E9B3E00D931D932D933C930E94DA
:1003700064070E94F80DAAE4B1E08C9300914A0151
:10038000013011F00C9404020E94FE0DAAE4B1E0C9
:100390008C9300911901013081E009F080E08F9386
:1003A000009150020E3F81E009F080E09F91892B7F
:1003B000882311F40C94FD0100914F02003011F0DC
:1003C0000C94F40180914A01AFE4B3E0AD90BB24FA
:1003D000AFE4B2E0AA0DBB1D8C9381E08093510382
:1003E0000E9487070C94FB0186E08093550380915F
:1003F0005003809356030C94040286E080935503C7
:100400008091500380935603ACEBB0E00C9107FB56
:1004100016F00C94B302AAE1B1E08091B9008C937C
:10042000EAE1F1E0A8EAB8E00E941A0F0E940B0E80
:100430000E94180E0091B900003811F00C9462026D
:1004400000911801013081E009F080E08F93009164
:1004500050020E3F81E009F080E09F91892B8823B4
:1004600011F40C94590200914F02003011F00C94D9
:100470005002AAE1B1E08091BB008C9380911A01F7
:10048000AFE4B3E0AD90BB24AFE4B2E0AA0DBB1D76
:100490008C9382E0809351030E9487070C9457024B
:1004A00088E08093550380915003809356030C9409
:1004B000600288E080935503809150038093560337
:1004C0000C94AD020091B900083B11F00C94AD0200
:1004D00000914E02013081E009F080E08F9300919D
:1004E0001801003081E009F080E09F91892B88237A
:1004F00011F40C94800270E87093BB000C94AD0270
:1005000040914E0200914D02041710F00C94AD0280
:10051000ADE4B2E0AD90BB24ADE4B1E0AA0DBB1DEB
:100520008C918093BB00ADE4B2E08C918F5F8C9393
:1005300040914E0200914D02041710F40C94AD024C
:100540000E94360300914C01003018F011F00C9419
:10055000AB020C94AD020E948F0380E080934901AE
:1005600074EC7093BC009FB7F89480916000886130
:1005700080936000877E809360009FBF0C94E300AF
:10058000E1E0F0E00E94220EE6E1F0E0A0E1BB270E
:1005900081E08C937BE70E94660FA42DB52DE8E5E2
:1005A000FFE10E94E50EE1E0F0E0D2017BE70E946E
:1005B000770FE7E1F0E0A0E1BB278CE48C937BE7C9
:1005C0000E94660FE8E1F0E0A0E1BB2781E08C9398
:1005D0007BE70E94660FE9E1F0E0A0E1BB2781E044
:1005E0008C937BE70E94660FE0E0F0E0A0E1BB2780
:1005F00085E08C937BE70E94660F0895E6E1F0E0CA
:10060000A6E1B1E00E94820FE1E0F0E0A1E0B1E0FC
:1006100094E10E948C0FE7E1F0E0A7E1B1E00E94D5
:10062000820FE8E1F0E0A8E1B1E00E94820FE9E189
:10063000F0E0A9E1B1E00E94820F81E080935003D5
:1006400080E08093560380E080934D0181E08093A9
:1006500051030E9446030E9436030E94BB0480E0BF
:100660008093470180E080934801089581E0809362
:100670004D0281E080934E0280E080934F0280E043
:1006800090E0A9E5B3E08D939C93089581E0809379
:100690004F0380E090E0A7E5B3E08D939C93A0E545
:1006A000B3E08C918F5F8C9340915603009150037F
:1006B000041711F00C94620380E0809356038FEFCF
:1006C00080935503089580914E02815080934E028D
:1006D00081E080931B0140914E0200911B010417A1
:1006E00018F011F00C948C03ABE1B1E0AD90BB2499
:1006F000ADE4B1E0AA0DBB1D8C9180931C0131E0EB
:10070000ACE1B1E00E94130EABE1B1E08C918F5FE0
:100710008C9310F40C946B030E943603089581E0CF
:1007200080931B0100911B010E3F18F011F00C94F7
:10073000AB0380E0ABE1B1E0AD90BB24ADE4B1E050
:10074000AA0DBB1D8C93ABE1B1E08C918F5F8C93B4
:1007500010F40C94920300914B01003011F00C94B2
:10076000B703E4E1FAE10E94D60D0C9405040130D0
:1007700011F00C94C103E6E3FAE10E94D60D0C944B
:100780000504023011F00C94CB03E8E4FAE10E9476
:10079000D60D0C940504033011F00C94D503E2E659
:1007A000FAE10E94D60D0C940504043011F00C946B
:1007B000DF03ECE6FAE10E94D60D0C940504053047
:1007C00011F00C94E903E8E8FAE10E94D60D0C94CC
:1007D0000504063011F00C94F303E8EAFAE10E94F4
:1007E000D60D0C940504073011F00C94FD03E2ECD7
:1007F000FAE10E94D60D0C940504083011F00C9417
:100800000504E2E2FBE10E94D60D0E94D90DAEE4A0
:10081000B1E00E94E50E0E94D60DAEE4B1E00E9468
:10082000A60FACE1B1E08C9380911C0180931B0179
:1008300040911B0101E0041718F011F00C944204E0
:1008400000911B0140914D01040FAAE1B1E00C930E
:10085000ABE1B1E0AD90BB24ADE4B1E0AA0DBB1DAE
:100860008C91AAE1B1E0AD90BB24ADE4B1E0AA0D5A
:10087000BB1D8C9380911B01815080931B0110F054
:100880000C94180400914D01013011F00C94700487
:1008900080911C0180934E0100911C0142E0040FE5
:1008A000AEE4B2E00C9381E080934D01ABE4B1E0A3
:1008B0008C918F5F8C9300911C0142E0040FAEE499
:1008C000B2E00C9300914B01033110F40C946B04D3
:1008D00080E080934B0182E080934F020C94B2043D
:1008E000023011F00C94840480E080934E018091DA
:1008F0001C0180934F0100911C0143E0040FAEE402
:10090000B2E00C930C94B204043011F00C94B204D5
:1009100080EF80934E0180914B0180934F01809135
:100920004C018093500180911C01809351010091F2
:100930001C0145E0040FAEE4B2E00C9381E080932B
:100940004D01ABE4B1E08C918F5F8C9300914B0132
:10095000033110F40C94AF0480E080934B0182E0EB
:1009600080934F0280914C01815080934C0181E033
:1009700080934D02089580E08093490170E0709368
:10098000B90070E87093BB00A7E1B1E08C9180934F
:10099000BA0074EC7093BC00089580918A03809330
:1009A00089030091890340E70423AAE1B1E00C9395
:1009B00094E0AAE1B1E00E94EB0EAAE1B1E00C9153
:1009C0004AE0049F0C92009189034FE00423ABE1BD
:1009D000B1E00C9300911A0140911B01040FABE1AF
:1009E000B1E00C93ABE1B1E08C91A9E6B3E08D935B
:1009F00088278D938D938C9380918B0380938903AB
:100A00000091890340E70423AAE1B1E00C9394E04C
:100A1000AAE1B1E00E94EB0EAAE1B1E00C914AE03C
:100A2000049F0C92009189034FE00423ABE1B1E0F5
:100A30000C9300911B0140911A01040FABE1B1E04E
:100A40000C93ABE1B1E08C91ACE5B3E08D938827DA
:100A50008D938D938C93ACE5B3E00D911D912D9109
:100A60003C914CE350E060E070E00E94C20EACE5C7
:100A7000B3E00D931D932D933D93A9E6B3E00D9143
:100A80001D912D913C91ACE5B3E04D915D916D913F
:100A90007C910E94F70EA9E6B3E00D931D932D9370
:100AA0003D9380918C03809389030091890340E3F7
:100AB0000423AAE1B1E00C9394E0AAE1B1E00E9422
:100AC000EB0EAAE1B1E00C914AE0049F0C92009178
:100AD00089034FE00423ABE1B1E00C9300911B01CB
:100AE00040911A01040FABE1B1E00C93ABE1B1E02E
:100AF0008C91ACE5B3E08D9388278D938D938C9387
:100B0000ACE5B3E00D911D912D913C9140E15EE08B
:100B100060E070E00E94C20EACE5B3E00D931D935F
:100B20002D933D93A9E6B3E00D911D912D913C913C
:100B3000ACE5B3E04D915D916D917C910E94F70E13
:100B4000A9E6B3E00D931D932D933D9380918E0301
:100B5000809389030091890340E30423AAE1B1E073
:100B60000C9394E0AAE1B1E00E94EB0EAAE1B1E09F
:100B70000C914AE0049F0C92009189034FE00423FA
:100B8000ABE1B1E00C9300911B0140911A01040FFD
:100B9000ABE1B1E00C9380911B01815080931B016C
:100BA000ABE1B1E08C91A4E6B3E08D9388278D93FF
:100BB0008D938C9380918F03809389030091890397
:100BC00040E10423AAE1B1E00C9394E0AAE1B1E092
:100BD0000E94EB0EAAE1B1E00C914AE0049F0C9256
:100BE000009189034FE00423ABE1B1E00C93009145
:100BF0001B0140911A01040FA8E6B3E00C93809109
:100C0000680381508093680300916803003011F0FD
:100C10000C941806A4E6B3E00D911D912D913C9122
:100C2000ACE5B3E00D931D932D933C930C943F06DC
:100C3000A8E6B3E0AD90BB24ABE6B3E0AA0CBB1CC6
:100C4000AA0DBB1D8D919C91ACE5B3E08D939D9356
:100C500088278D938C93ACE5B3E00D911D912D9178
:100C60003C91A4E6B3E04D915D916D917C910E9421
:100C7000F70EACE5B3E00D931D932D933D93ACE5DA
:100C8000B3E00D911D912D913C9140E851E561E05B
:100C900070E00E94C20EACE5B3E00D931D932D935E
:100CA0003D93A9E6B3E00D911D912D913C91ACE5EA
:100CB000B3E04D915D916D917C910E94F70EA9E694
:100CC000B3E00D931D932D933D93809190038093FA
:100CD00089030091890340EF0423AAE1B1E00C935A
:100CE00094E0AAE1B1E00E94EB0E009189034FE08D
:100CF0000423ABE1B1E00C93AAE1B1E00C914AE02E
:100D0000049F0C9200911B0140911A01040FABE16A
:100D1000B1E00C93ABE1B1E08C91A0E6B3E08D9330
:100D200088278D938D938C93A0E6B3E00D911D9150
:100D30002D913C914EE150E060E070E00E94F70E92
:100D4000ACE5B3E00D931D932D933D93ABE1B1E082
:100D50000C9111272227332744E050E060E070E037
:100D60000E94320EA5E8B3E04D935D936D937D93A1
:100D7000A5E8B3E00D911D912D913C9148E050E024
:100D800060E070E00E94F70EA5E8B3E00D931D93BC
:100D90002D933D93ACE5B3E00D911D912D913C91C8
:100DA0004DE651E060E070E00E94C20EACE5B3E0B9
:100DB0000D931D932D933D93ACE5B3E00D911D91E3
:100DC0002D913C91A5E8B3E04D915D916D917C91A1
:100DD0000E94F70EACE5B3E00D931D932D933D9368
:100DE000ACE5B3E00D911D912D913C9140E851E5AA
:100DF00061E070E00E94C20EACE5B3E00D931D937C
:100E00002D933D93A9E6B3E00D911D912D913C9159
:100E1000ACE5B3E04D915D916D917C910E94F70E30
:100E2000A9E6B3E00D931D932D933D9300916003CC
:100E300044E00E94960FABE1B1E08C9300911B015E
:100E400044E00E94960FAAE1B1E08C9300911A0150
:100E5000003011F00C94470700916803023018F03D
:100E600011F00C9435070C944707A9E6B3E00D91F7
:100E70001D912D913C9140E851E561E070E00E94A8
:100E8000F70EA9E6B3E00D931D932D933D9380E0FB
:100E900080934F0180E08093500180E08093510166
:100EA00080E08093520180916C0380935301809184
:100EB0006B038093540180916A0380935501809164
:100EC00069038093560108952A988DE880931A014A
:100ED00091E0AAE1B1E00E948D0E87E080931A01B3
:100EE000EF93FF93EAE5F1E00E947F0EFF91EF910F
:100EF00091E0AAE1B1E00E948D0EEF93FF93EAE545
:100F0000F1E00E947F0EFF91EF912A9A0895A7E5E4
:100F1000B3E00D911C91003050E0150711F00C94D6
:100F20009507A7E5B3E00E94E90D0091500200305B
:100F300011F00C94BB0782E080934F0281E090E0B7
:100F4000A9E5B3E08D939C9380E080934B0181E011
:100F500080934C0182E080934D010E948F030091A9
:100F60005103013011F00C94B7070E9463030E94F3
:100F700046030C94070D013011F00C941F0882E019
:100F800080934F0281E090E0A9E5B3E08D939C93BC
:100F9000EF93FF93EAE5F1E00E947F0EFF91EF915E
:100FA0002A9881E080931A0100911A01073018F005
:100FB00011F00C940A0800911A014FEB040FABE1F9
:100FC000B1E00C9391E0ABE1B1E00E948D0EEF93A4
:100FD000FF93EAE5F1E00E947F0EFF91EF9191E02F
:100FE000AAE1B1E0AD90BB24A9E8B3E0AA0DBB1D16
:100FF0000E94820EEF93FF93EAE5F1E00E947F0EDC
:10100000FF91EF91AAE1B1E08C918F5F8C9310F486
:101010000C94D4072A9A0E94CD0481E080934E015B
:101020008AE080934E0200915103013011F00C943C
:101030001B080E9463030E9446030C94070D0230B4
:1010400011F00C94700800914F03033010F40C94CD
:101050006908009151020F3010F00C945E089BE07B
:1010600080E0AAE8B3E00E94F10D0091510240E84F
:10107000040FAAE8B3E00C938091520280938B0393
:101080002A9891E0AAE8B3E00E948D0EEF93FF93B7
:10109000EAE5F1E00E947F0EFF91EF9191E0ABE86D
:1010A000B3E00E948D0EEF93FF93EAE5F1E00E941A
:1010B0007F0EFF91EF912A9A0C94650884E080934B
:1010C000550380915003809356030E9446030C946D
:1010D0006E08AFE4B3E08C918F5F8C930C94070D96
:1010E000033011F00C94E40800914F03023010F427
:1010F0000C94DD08009151020F3010F00C94D208CE
:1011000082E080934F0281E090E0A9E5B3E08D9307
:101110009C930091510240EC040FAAE8B3E00C93B9
:101120002A98EF93FF93EAE5F1E00E947F0EFF918A
:10113000EF9191E0AAE8B3E00E948D0EEF93FF9348
:10114000EAE5F1E00E947F0EFF91EF919BE080E0E5
:10115000AAE8B3E00E94F10D91E0AAE8B3E00E9492
:10116000820EEF93FF93EAE5F1E00E947F0EFF917C
:10117000EF912A9A83E080934E01809151028093EF
:101180004F0180918A038093500184E080934E0246
:1011900000915103013011F00C94D0080E946303B8
:1011A0000C94D90884E08093550380915003809378
:1011B00056030E9446030C94E208AFE4B3E08C911E
:1011C0008F5F8C930C94070D003F11F00C944D0928
:1011D00000914F03033010F40C94460980915102A2
:1011E00080934B018091520280934C0100914B01FE
:1011F000033181E008F080E08F9300914C010331CE
:1012000081E008F080E09F918923882311F40C94F9
:101210003B0900915202003018F011F00C941209B1
:101220000C94390982E080934F0281E090E0A9E5B7
:10123000B3E08D939C9384E080934D010E948F03D3
:1012400000915103013011F00C9439090E9463039D
:1012500000914C01003018F011F00C9431090C94FD
:1012600037090E948F030E9463030C9428090E948F
:1012700036030C94420984E0809355038091500317
:10128000809356030E9446030C944B09AFE4B3E0ED
:101290008C918F5F8C930C94070D0C3F11F00C9484
:1012A000AD0A82E080934F0281E090E0A9E5B3E0CF
:1012B0008D939C9300915503003011F00C946809B4
:1012C000AEE4B1E0E2E6FFE10E94E50E0C94E6092F
:1012D000013011F00C947409AEE4B1E0E8E7FFE1ED
:1012E0000E94E50E0C94E609023011F00C9480097E
:1012F000AEE4B1E0E6E8FFE10E94E50E0C94E609F9
:10130000033011F00C948C09AEE4B1E0EAE9FFE19E
:101310000E94E50E0C94E609043011F00C94980933
:10132000AEE4B1E0E0EBFFE10E94E50E0C94E609CB
:10133000053011F00C94A409AEE4B1E0E4ECFFE157
:101340000E94E50E0C94E609063011F00C94B009E9
:10135000AEE4B1E0EAEDFFE10E94E50E0C94E6098F
:10136000073011F00C94BC09AEE4B1E0E6EFFFE108
:101370000E94E50E0C94E609083011F00C94C8099F
:10138000AEE4B1E0EEE0F0E20E94E50E0C94E60976
:10139000093011F00C94D409AEE4B1E0EAE2F0E2D5
:1013A0000E94E50E0C94E6090F3F11F00C94E00941
:1013B000AEE4B1E0EEE3F0E20E94E50E0C94E60943
:1013C000AEE4B1E0ECE4F0E20E94E50EAEE4B1E0A0
:1013D0000E94A60FACE1B1E08C9380911C01809338
:1013E0001B0140911B0101E0041718F011F00C944F
:1013F000130AABE1B1E0AD90BB24ADE4B1E0AA0DBE
:10140000BB1D8C91ABE1B1E0AD90BB24A2E5B1E096
:10141000AA0DBB1D8C9380911B01815080931B01F1
:1014200010F00C94F1098CEF80934E0180E28093D0
:101430004F0180E28093500180E28093510180E26D
:1014400080935201E0E5F3E0A2E3B1E00E941A0FBD
:10145000A2E3B1E00E94A60FADE1B1E08C9381E080
:1014600080931B0140911D0100911B01041718F08E
:1014700011F00C94550AABE1B1E0AD90BB24A1E3AF
:10148000B1E0AA0DBB1D8C91ABE1B1E0AD90BB24E6
:10149000AFE4B1E0AA0DBB1D8C93ABE1B1E08C9140
:1014A0008F5F8C9310F40C94320A00911C0146E07B
:1014B000040FAEE4B2E00C93E6E5F3E0A2E3B1E0A2
:1014C0000E941A0FA2E3B1E00E94A60FADE1B1E0C5
:1014D0008C9381E080931B0140911D0100911B01C1
:1014E000041718F011F00C94940AABE1B1E0AD9040
:1014F000BB24A1E3B1E0AA0DBB1D8C91AEE4B2E028
:10150000AD90BB24ADE4B1E0AA0DBB1D8C93AEE45D
:10151000B2E08C918F5F8C93ABE1B1E08C918F5FE7
:101520008C9310F40C946C0AACE1B1E08C918D5F5B
:101530008C9300911C0140911D01040FAFE4B1E0B8
:101540000C9300915103013011F00C94A90A0E94F0
:1015500063030E9446030C94070D0D3F11F00C9499
:10156000CF0A82E080934F0281E090E0A9E5B3E0EA
:101570008D939C938DEF80934E0184E080934F0177
:1015800083E080934E0200915103013011F00C94DE
:10159000CB0A0E9463030E9446030C94070D0E3F82
:1015A00011F00C941C0C00914F03023010F40C94B9
:1015B000150C00915102003011F00C944D0B00916C
:1015C0004F03033010F40C94460B0091520200308C
:1015D00011F00C94EF0A0E9446030C94440B009106
:1015E000520243E0040FAAE1B1E00C9340911A01CA
:1015F00000914F03041710F40C943F0B94E180E02A
:10160000A1E0B1E00E94F10D00911A01073118F03C
:1016100011F00C940D0B0C94100B87E180931A01C0
:1016200084E080931B0140911A0100911B01041773
:1016300018F011F00C94360BABE1B1E0AD90BB2487
:10164000AFE4B2E0AA0DBB1D8C91ABE1B1E0AD906F
:10165000BB24ADEFB0E0AA0DBB1D8C93ABE1B1E0B4
:101660008C918F5F8C9310F40C94130BE1E0F0E0FD
:10167000A1E0B1E07BE70E94770F0C94440BAFE44C
:10168000B3E08C918F5F8C930C944B0BAFE4B3E081
:101690008C918F5F8C930C94130C013011F00C948F
:1016A0006D0B00914F03033010F40C94660B809186
:1016B000520280931601E6E1F0E0A6E1B1E07BE79B
:1016C0000E94660F0E9446030C946B0BAFE4B3E0DC
:1016D0008C918F5F8C930C94130C023011F00C944E
:1016E0009C0B00914F03033010F40C94950B009168
:1016F0005202023010F00C948A0B809152028093B7
:101700001801E8E1F0E0A8E1B1E07BE70E94660F94
:101710000C94910B84E08093550380915003809347
:1017200056030E9446030C949A0BAFE4B3E08C91ED
:101730008F5F8C930C94130C033011F00C94D70B27
:1017400000914F03033010F40C94D00B809152029F
:1017500080931B0100911B01003810F00C94C50B05
:10176000ABE1B1E00C9142E0049F0C9280911B012F
:1017700080931701E7E1F0E0A7E1B1E07BE70E9489
:10178000660F0E94BB040C94CC0B84E0809355033D
:1017900080915003809356030E9446030C94D50B0E
:1017A000AFE4B3E08C918F5F8C930C94130C0430F6
:1017B00011F00C940A0C00914F03033010F40C94B8
:1017C000030C8091520280931B0100911B01023097
:1017D00010F00C94F80B80911B0180931901E9E142
:1017E000F0E0A9E1B1E07BE70E94660F0C94FF0BEB
:1017F00084E08093550380915003809356030E94A8
:1018000046030C94080CAFE4B3E08C918F5F8C938B
:101810000C94130C84E080935503809150038093C3
:1018200056030E9446030C941A0CAFE4B3E08C916B
:101830008F5F8C930C94070D0F3F11F00C94FE0CEE
:1018400000914F03023010F40C94F70C82E0809367
:101850004F0281E090E0A9E5B3E08D939C938FEF78
:1018600080934E018091510280934F0180E08093DC
:101870004E0200915102003011F00C94790CA1E05D
:10188000B1E00E94A60FACE1B1E08C9380911C0105
:101890008093500184E080934E0281E080931B018D
:1018A00040911C0100911B01041718F011F00C94D9
:1018B000770CABE1B1E0AD90BB24A0E0B1E0AA0DA4
:1018C000BB1D8C91AEE4B2E0AD90BB24ADE4B1E0C1
:1018D000AA0DBB1D8C93AEE4B2E08C918F5F8C930C
:1018E000ABE1B1E08C918F5F8C930C94500C0C9415
:1018F000E20C013011F00C94860C8091160180935B
:10190000500184E080934E020C94E20C023011F0FE
:101910000C94930C809118018093500184E0809383
:101920004E020C94E20C033011F00C94A80C0091C0
:10193000170142E00E94960FABE1B1E00C93809159
:101940001B018093500184E080934E020C94E20CC2
:10195000043011F00C94B50C809119018093500162
:1019600084E080934E020C94E20C053011F00C944C
:10197000C10C80E08093500184E080934E020C946F
:10198000E20C063011F00C94D90C83E080935001E6
:1019900088E3A1E5B1E08C938EE4A2E5B1E08C93FD
:1019A00081E3A3E5B1E08C9387E080934E020C9431
:1019B000E20C84E08093550380915003809356039A
:1019C0000E94360300914E02003018F011F00C9482
:1019D000EB0C0C94F30C00915103013011F00C94BA
:1019E000F30C0E9463030E9446030C94FC0CAFE4CA
:1019F000B3E08C918F5F8C930C94070D80E0809303
:101A0000550380915003809356030E944603089526
:101A1000F894FFCF303B6D3B444B3152493B52541D
:101A2000433B5630332E303B313B3134353B313B39
:101A3000393B312D3100313B61612C72656164208D
:101A400074696D653B740000323B6F6D2C77726971
:101A500074652072656769737465723B623B3135EA
:101A60000000333B616D2C2C617332003234303B0B
:101A70006C6E2C414E4E4F554E43454D454E545382
:101A80003B3134353B3900003235323B61612C4CFF
:101A9000415354204552524F523B32302C6C6173AB
:101AA000745F6572726F72003235333B61612C4D29
:101AB000594320494E464F3B622C414354495645B9
:101AC00000003235343B6B612C494E444956494441
:101AD00055414C495A4154494F4E3B32302C4E41AE
:101AE0004D452C44657669636520313B622C4E552B
:101AF0004D4245522C313B612C4932432C313B62E3
:101B00002C4144524553532C31392C7B3020746F77
:101B1000203132377D3B612C53455249414C2C31A9
:101B200000003235353B6C612C494E4449564944DE
:101B300055414C495A4154494F4E3B32302C4E414D
:101B40004D452C44657669636520313B622C4E55CA
:101B50004D4245522C313B612C4932432C313B6282
:101B60002C4144524553532C31392C7B3020746F17
:101B7000203132377D3B612C53455249414C2C3149
:101B80003B622C42415544524154452C302C7B3110
:101B9000393230307D3B332C4E554D4245525F4FEC
:101BA000465F424954532C386E3100008E2E9F2ED2
:101BB0000895E82DF92D08950D911D912D913C91D9
:101BC0000F5F1F4F2F4F3F4F3C932E931E930E934B
:101BD0000895ED91FC91EF5FFF4FFC93EE93089514
:101BE00080E2903019F08D939A95E9F79C930895CF
:101BF00081E00090C00007FE8827089588270090A4
:101C0000C00007FE089500C08091C00087FFFCCF90
:101C10008091C6000895A8EAB8E08D91882311F05C
:101C20000AD0FBCF08958D9106D03A95E1F708953B
:101C30008DE001D08AE00090C00005FEFCCF8093CB
:101C4000C600089588EE93E089D03197D9F70895BA
:101C500000FC05D0089530D005D001F8F9CF37D079
:101C60003FD00895842F952FA62FB72FE894452BAA
:101C7000462B472B11F468940895402F512F622F63
:101C8000732F0027112722273327F0E2440F551F17
:101C9000661F771F001F111F221F331F081B190B00
:101CA0002A0B3B0B416028F4080F191F2A1F3B1F0A
:101CB0004E7FFA9559F708950024E89477FF02C003
:101CC00006D0689400F809D010F80124089512D0C5
:101CD0004F5F5F4F6F4F7F4F0895E89437FF089530
:101CE00000951095209530950F5F1F4F2F4F3F4F58
:101CF0006894089540955095609570950895319732
:101D0000F1F708950E949F0E8C910E94A10E8D9371
:101D10009A95D1F70E94A00E08950E949F0E8D9172
:101D20000E94A10E9A95D9F70E94A00E0895259AB7
:101D300024982C9A239A229A86E58CBD08950895BA
:101D400008958EBD00904D0007FEFCCF8EB508951E
:101D5000689462F80895E89462F80895EF93FF9309
:101D6000EE27E82BE92B31F0E8E8F3E13197F1F7C2
:101D70000197D1F7FF91EF91089501911191219170
:101D8000308108950F921F922F92C801D901489F68
:101D900080014A9F90014B9F202C499F100D211DCF
:101DA000321D5A9F202C589F100D211D321D599F06
:101DB000200D311D689F200D311D699F300D789FCA
:101DC000300D2F901F900F9008950E94F30E0D92EA
:101DD0000020D9F70895903029F08C9186959A9536
:101DE000E9F78C930895C895319600200895040F63
:101DF000151F261F371F0895000F111F221F331FA5
:101E0000089500951095209530950F5F1F4F2F4F27
:101E10003F4F0895019110810FC00E94BD0E0EC06A
:101E20000E94BD0E10C00191108117FF05C03FEF49
:101E30002FEF04C0008111272227332737FF03C06B
:101E4000E0DF8DE28D93CF92DF92EF92AA24BB2444
:101E5000CC24DD24EE2440E2EAE0FF2755E093E3C2
:101E60008081890F87FD9F7083FD907F891B8193FF
:101E70005A95A9F7C1DFAA1CBB1CCC1CDD1CEE1CAB
:101E80004A9551F7E894EFE0FF2782910CD0EB30B0
:101E9000E0F71EF068948A2D0AD088278D93EF9082
:101EA000DF90CF900895982F829501D0892F8F7061
:101EB000805D26F0803309F4089568948D93089529
:101EC000F999FECFE1BDF2BD3196089591E001C0D0
:101ED00092E07B3751F47FB7F894F2DF8D9180BDAB
:101EE000FA9AF99A9A95C9F77FBF77270895E8DF9C
:101EF0008D917B3729F480BDFA9AF99A8823B9F736
:101F00007727089591E001C092E0DADFF89A80B572
:101F10008D939A95D1F70895D3DFF89A80B58D9374
:101F2000882319F09A95C1F79D930895FF93881B14
:101F3000F9E0001FFA9511F4FF910895881F841BA2
:101F400018F4840F8894F5CF0894F3CF8FEF83951E
:101F50009D919923E1F70895446576696365203181
:101F600000003A20636F6D6D616E64206E6F7420A7
:101F7000666F756E643A20003A20493243206572DC
:101F8000726F723A20003A207761746368646F67F9
:101F90002072657365743A2000003A20636F6D6D9E
:101FA000616E64207761746368646F673A20000033
:101FB0003A20706172616D65746572206572726F2E
:101FC000723A20003A2074782074696D6520746F2D
:101FD0006F206C6F6E673A2000003A206E6F74209D
:101FE00076616C696420617420746861742074691E
:101FF0006D653A2000003A206932635F627566665B
:102000006572206F766572666C6F773A2000493290
:1020100063206E6F7420726561647920746F207222
:102020006563656976653A2000003A206D6F6475D6
:102030006C206E6F742072656164793A20003A20DA
:102040006E6F206572726F723A2000003A206F74D2
:0C205000686572206572726F723A2000A1
:00000001FF
