:100000000C94460018950000189500001895000003
:10001000189500001895000018950000189500002C
:10002000189500001895000018950000189500001C
:100030001895000018950000189500000C9486078C
:1000400018950000189500001895000018950000FC
:100050000C946C0418950000189500001895000089
:1000600018950000189500000C94240518950000C0
:100070000C940908189500001895000018950000C8
:100080001895000018950000189500008FEF8DBF9F
:10009000C0ECE2E94E2E80E48EBFD0E4F0E45F2EA7
:1000A000A89584B7082E882784BF88E19927809374
:1000B000600090936000EEEFFFE3A0E0B1E08827DE
:1000C0008D933197E9F780E48093C40080E08093BA
:1000D000C50088E18093C10080E08093CD008AE074
:1000E0008093CC0088E18093C9006624EAE0F0E0C8
:1000F0000E947328E4EAF6E50E9427290E944A2814
:100100000E945628E0E0FF270081AAE6B1E00C93A8
:10011000AAE6B1E00C9103FB16F00C94980082E083
:100120008093950380919403809396030C949B0095
:100130008FEF809395032298429A23982B9A80E020
:1001400080939A0381E080934E0100914E0100302C
:1001500011F00C94B1001B9B0C94B10081E08093D2
:100160009A03559A5D9A56985E9A579A5F9A70913B
:10017000C10070687093C10074B7777F74BF8FE15E
:1001800097E0809360009093600078947091BC0039
:1001900071607093BC000E949128089A109A21986F
:1001A000299A249A2C983F9A479A8AE08093CC0007
:1001B00080E08093CD007091C8007D7F7093C8006F
:1001C00086E08093CA0088E18093C90080E0809334
:1001D000800085E080938100789470916F00716059
:1001E00070936F007091C90070687093C90085E0CA
:1001F000809381001A990C94FF000E94F002E1E0C4
:10020000F0E0A0E1B0E00E94CA29053011F40C949E
:100210000B010E94F002E7E1F0E0A0E8B1E00E94EB
:10022000CA29E2E0F0E0ABE6B1E094E10E94D42913
:1002300081E08093940380E08093960380E0809334
:10024000930181E08093930281E08093940280E0A7
:100250008093990380E08093890180E080938A01F4
:100260000E949603EAE1F0E0A4E8B1E00E94CA2906
:10027000EBE1F0E0A6E8B1E00E94CA29E9E1F0E094
:10028000A3E8B1E00E94CA2984E080939B03E8E1DF
:10029000F0E0A1E8B1E00E94CA29E9E1F0E0A3E8BA
:1002A000B1E00E94CA290E940C05ECE1F0E0ABE944
:1002B000B3E00E94CA29EEE1F0E0ACE9B3E095E0DA
:1002C0000E94D429E4E2F0E0A4E7B4E094E00E94C4
:1002D000CD2981E08093A20380E08093A30380E096
:1002E00080936E0480E080936F0480E080937004BC
:1002F00080E08093710484E670E0A4EAB3E00E9499
:10030000A12980E08093730480E0809378040E94A8
:10031000E2060E94D20400E010E020E030E0A1E319
:10032000B0E40D931D932D933C93E8E2F0E0ACE232
:10033000B0E40E94CA29E9E2F0E0ADE2B0E494E062
:100340000E94CD2970E076BD0E94630880E0809312
:100350006B4080E080936C408EE780931B0180E0CF
:1003600080931C0180E080931D0182E080931E0138
:1003700081E080931F0185E08093200187EF8093C7
:1003800021018EE78093220188E0809335400E940E
:10039000340D81E0809372400E94B50F809160001F
:1003A000886080936000AAE8B1E08C918F5F8C93A5
:1003B00000918A010F3F11F00C946C02A9E8B1E0A2
:1003C0008C918F5F8C93009189010A3511F00C9408
:1003D000120200919903003018F011F00C94F20110
:1003E0000C941002A9E9B3E08C918F5F8C9300917B
:1003F00099030C3318F011F00C9400020C941002C5
:1004000081E08093930281E08093940280E0809366
:10041000990385E0809395038091940380939603DC
:100420000C946C02043B11F00C9441020091820187
:10043000013081E009F080E08F93A6E2B0E00C91FA
:1004400004FB81E00EF480E09F918923882311F45E
:100450000C943C02ABE8B1E08C918F5F8C930091DF
:100460008B01053018F011F00C9438020C943A020C
:100470000E940C050C943F0280E080938B010C9449
:100480006C020F3F11F00C946C02A7E9B3E00D91E0
:100490001C91003050E0150718F011F00C94520236
:1004A0000C945602A7E9B3E00E942128A7E9B3E023
:1004B0000D911C910C3350E0150718F011F00C94BD
:1004C00063020C946C0283E0809395038091940303
:1004D000809396030E94960300919B03003018F0CE
:1004E00011F00C9475020C94850200919B0301306D
:1004F00011F00C947F020E946F120C94850204305C
:1005000011F00C9485020E940E160E94550900916C
:100510009402013018F011F00C9490020C94A20295
:1005200080E08093900180E08093910180E080934F
:10053000920186E0809395038091940380939603C3
:100540000C94ED024091920100919101041718F072
:1005500011F00C94AD020C94ED0280919101809306
:100560009201A7E9B3E00D911C91003050E015070E
:1005700011F00C94BF02A7E9B3E00E9421288091FA
:1005800091018093900100919A03003011F00C9436
:10059000ED02009195020E3F11F00C94D3020E94DF
:1005A0005C210C94ED0200918C01013011F00C944F
:1005B000DD020E945C210C94ED0280E080939001AA
:1005C00080E08093910180E08093920186E08093A7
:1005D00095038091940380939603A8950C94CE0183
:1005E000E1E0F0E00E947328E7E1F0E0A0E1BB2742
:1005F00081E08C937BE70E94AE29A42DB52DEAEA19
:10060000F6E50E9427290E94F828E2E0F0E0D201F6
:100610007BE70E94BF29EAE1F0E0A0E1BB2781E08F
:100620008C937BE70E94AE29EBE1F0E0A0E1BB27D1
:1006300081E08C937BE70E94AE29E9E1F0E0A0E144
:10064000BB2780E08C937BE70E94AE29A42DB52DBB
:10065000E4EBF6E50E9427290E94F828EEE1F0E09D
:10066000D2017BE70E94BF29ECE1F0E0A0E1BB27CB
:1006700084E08C937BE70E94AE29E8E1F0E0A0E102
:10068000BB2788E38C937BE70E94AE29E9E1F0E089
:10069000A0E1BB2781E08C937BE70E94AE29ECE1CF
:1006A000F0E0A0E1B0E00E94CA29003011F00C9403
:1006B0006703E4E2F0E008EE13E020E030E0A0E1C0
:1006C000BB2794E07BE70E94B1290C9477030430A8
:1006D00011F00C947703E4E2F0E008E210E020E08F
:1006E00030E0A0E1BB2794E07BE70E94B129E8E27B
:1006F000F0E0A0E1BB2780E08C937BE70E94AE296D
:10070000E9E2F0E001E010E020E030E0A0E1BB270A
:1007100094E07BE70E94B129E1E0F0E0A0E1BB2793
:1007200085E08C937BE70E94AE29089580E080935A
:10073000900180E08093910180E08093920181E0BC
:100740008093930280E090E0A7E9B3E08D939C93BF
:10075000A4E9B3E08C918F5F8C9340919603009154
:100760009403041711F00C94BB0380E0809396036C
:100770008FEF809395030895809194028150809328
:10078000940281E080934F014091940200914F01C7
:10079000041718F011F00C94E503AFE4B1E0AD904C
:1007A000BB24A3E9B1E0AA0DBB1D8C91809350013D
:1007B00031E0A0E5B1E00E945128AFE4B1E08C91B6
:1007C0008F5F8C9310F40C94C40381E080935301E9
:1007D00000919B03003080E010F009F081E08F93DE
:1007E00000915301013081E009F080E09F9189235D
:1007F000882311F40C94190400919402003018F02D
:1008000011F00C9405040C941904809194028093C7
:10081000720400919B03013011F00C9413040E94A8
:10082000CA110C941904043011F00C9419040E949C
:10083000E51481E08093930281E08093940280E04C
:10084000809399030895E2EEF3E40E94272980E063
:1008500090E00E941429A5E9B2E00E94F828A5E9D9
:10086000B2E00E94EE29A0E5B1E08C9380E0809395
:100870009401809150018093950183E080939402CC
:1008800081E080934F014091500100914F01041786
:1008900018F011F00C946B04AFE4B1E0AD90BB2400
:1008A000A4E9B2E0AA0DBB1D8C91A4E9B2E0AD9021
:1008B000BB24A3E9B1E0AA0DBB1D8C93A4E9B2E06F
:1008C0008C918F5F8C93AFE4B1E08C918F5F8C93B0
:1008D00010F40C94430408950F921F922F923F92AC
:1008E0004F925F927F92AF92BF92CF92DF92EF9240
:1008F000FF920F931F932F933F934F935F936F93A9
:100900007F938F939F93AF93BF93CF93DF93EF9397
:10091000FF939FB79F939BB79F9399279BBFAEE48D
:10092000B1E08091C6008C9300918501013011F0F7
:100930000C94B004009191010A3F10F00C94A504AE
:10094000A1E9B1E08C918F5F8C9380914E01A1E978
:10095000B1E0AD90BB24A4E9B2E0AA0DBB1D8C931D
:100960009F919BBF9F919FBFFF91EF91DF91CF918F
:10097000BF91AF919F918F917F916F915F914F91B7
:100980003F912F911F910F91FF90EF90DF90CF90AB
:10099000BF90AF907F905F904F903F902F901F90AF
:1009A0000F90189580E080938C01009184010130B4
:1009B00081E009F080E08F9300918601013081E0B1
:1009C00009F080E09F91892B882311F40C94EB04AB
:1009D00081E08093850100918501013081E009F07B
:1009E00080E08F9300918301013081E009F080E085
:1009F0009F91892B8F9300919B03003080E010F032
:100A000009F081E09F91892B882311F40C940B0548
:100A100081E080938C01089580E080938B0170E0E9
:100A20007093B90070E07093B90071E17093B800F1
:100A300070E87093BB00A1E8B1E08C918093BA009C
:100A400075E47093BC0008950F921F922F923F920D
:100A50004F925F927F92AF92BF920F931F932F930B
:100A60003F934F935F936F937F938F939F93AF9336
:100A7000BF93CF93DF93EF93FF939FB79F939BB762
:100A80009F9399279BBF0091B9004CEF0423AEE4DC
:100A9000B1E00C9300914E01003611F00C94550515
:100AA00075EC7093BC000C94A806083611F00C94F9
:100AB0005E0575EC7093BC000C94A806003711F02D
:100AC0000C94670575EC7093BC000C94A80608376D
:100AD00011F00C94700575EC7093BC000C94A80692
:100AE000003811F00C948F05009191010A3F10F02D
:100AF0000C947F05A1E9B1E08C918F5F8C93A1E903
:100B0000B1E0AD90BB24A4E9B2E0AA0DBB1D809179
:100B1000BB008C9375EC7093BC000C94A80608384D
:100B200011F00C94AE05009191010A3F10F00C9465
:100B30009E05A1E9B1E08C918F5F8C93A1E9B1E0B2
:100B4000AD90BB24A4E9B2E0AA0DBB1D8091BB000F
:100B50008C9375EC7093BC000C94A806003911F0CE
:100B60000C94CD05009191010A3F10F00C94BD0545
:100B7000A1E9B1E08C918F5F8C93A1E9B1E0AD90D8
:100B8000BB24A4E9B2E0AA0DBB1D8091BB008C93ED
:100B900075EC7093BC000C94A806083911F00C9405
:100BA000EC05009191010A3F10F00C94DC05A1E9DD
:100BB000B1E08C918F5F8C93A1E9B1E0AD90BB2443
:100BC000A4E9B2E0AA0DBB1D8091BB008C9375EC2B
:100BD0007093BC000C94A806003A11F00C94F50533
:100BE00075EC7093BC000C94A806083A11F00C94B4
:100BF00028064091940200919302041781E008F0C6
:100C000080E08F9300918201013081E009F080E063
:100C10009F918923882311F40C942006A3E9B2E064
:100C2000AD90BB24A3E9B1E0AA0DBB1D8C918093CC
:100C3000BB00A3E9B2E08C918F5F8C930C942306E8
:100C400070E87093BB0075EC7093BC000C94A80620
:100C5000003B11F00C945B064091940200919302CA
:100C6000041781E008F080E08F9300918201013049
:100C700081E009F080E09F918923882311F40C948E
:100C80005306A3E9B2E0AD90BB24A3E9B1E0AA0DFD
:100C9000BB1D8C918093BB00A3E9B2E08C918F5F68
:100CA0008C930C94560670E87093BB0075EC7093AF
:100CB000BC000C94A806083B11F00C948E064091E1
:100CC000940200919302041781E008F080E08F9372
:100CD00000918201013081E009F080E09F91892339
:100CE000882311F40C948606A3E9B2E0AD90BB24EE
:100CF000A3E9B1E0AA0DBB1D8C918093BB00A3E9D1
:100D0000B2E08C918F5F8C930C94890670E870939D
:100D1000BB0075EC7093BC000C94A806003C11F06D
:100D20000C949A0670E87093BB0075EC7093BC004D
:100D30000C94A806083C11F00C94A60670E8709379
:100D4000BB0075EC7093BC000C94A8060E940C05C7
:100D50004091940200919302041710F40C94C4067D
:100D600081E08093930281E08093940280E08093FD
:100D7000990300918F01003018F011F00C94C20615
:100D80000C94C4060E9423049F919BBF9F919FBF18
:100D9000FF91EF91DF91CF91BF91AF919F918F9193
:100DA0007F916F915F914F913F912F911F910F9183
:100DB000BF90AF907F905F904F903F902F901F908B
:100DC0000F90189500919B03013011F00C94EC06E4
:100DD0000E9449110C94F206043011F00C94F206B2
:100DE0000E94801308952C9891E0A9E0B4E00E943D
:100DF0008728A881B9819C91A4EAB3E00E947C284D
:100E00002C9A08952C98A881B9819C91A9E0B4E00E
:100E10000E9487282C9A0895ACE9B3E00E94EE293D
:100E2000A1E5B1E08C9381E080934F0140915101A5
:100E300000914F01041718F011F00C943907AFE43A
:100E4000B1E0AD90BB24ABE9B3E0AA0DBB1D8C9122
:100E5000AFE4B1E0AD90BB24A9E0B4E0AA0DBB1DA6
:100E60008C93AFE4B1E08C918F5F8C9310F40C9471
:100E7000160781E08093530181E080934E014091F9
:100E8000720400914E01041718F011F00C948107C0
:100E9000AFE4B1E08C918F5F8C93009153010030EF
:100EA00011F00C946707AEE4B1E0AD90BB24A4E967
:100EB000B2E0AA0DBB1D8C91AFE4B1E0AD90BB24B4
:100EC000A8E0B4E0AA0DBB1D8C930C947907AEE4A6
:100ED000B1E0AD90BB24A3E9B1E0AA0DBB1D8C919C
:100EE000AFE4B1E0AD90BB24A8E0B4E0AA0DBB1D17
:100EF0008C93AEE4B1E08C918F5F8C9310F40C94E2
:100F00003F0780914F018093720408950F921F92C2
:100F10002F923F924F925F927F92AF92BF920F9328
:100F20001F932F933F934F935F936F937F938F9371
:100F30009F93AF93BF93CF93DF93EF93FF939FB7AD
:100F40009F939BB79F9399279BBFADE2B0E44D91D0
:100F50005D916D917C91A1E3B0E40D911D912D9176
:100F60003C91041715072607370710F40C94E10786
:100F70000091A203013011F00C94D5078EE7809305
:100F80001B0180E080931C0183E080931D0180E0C1
:100F900080931E018CEF80931F018EE780932001C8
:100FA00086E0809335400E94340D00E010E020E0A0
:100FB00030E0A1E3B0E40D931D932D933C930C948A
:100FC000E507A1E3B0E40E94142880E090E090934C
:100FD0008500809384009F919BBF9F919FBFFF914D
:100FE000EF91DF91CF91BF91AF919F918F917F91C1
:100FF0006F915F914F913F912F911F910F91BF90F2
:10100000AF907F905F904F903F902F901F900F90E8
:1010100018950F921F922F923F924F925F927F925C
:10102000AF92BF92CF92DF92EF92FF920F931F93F6
:101030002F933F934F935F936F937F938F939F93E0
:10104000AF93BF93CF93DF93EF93FF939FB79F939C
:101050009BB79F9399279BBF0E946028AEE4B1E0A5
:101060008C9380914E01A9E7B4E0AD90BB24A5E339
:10107000B0E4AA0DBB1D8C93A9E7B4E08C918F5FFF
:101080008C939F919BBF9F919FBFFF91EF91DF91A9
:10109000CF91BF91AF919F918F917F916F915F9110
:1010A0004F913F912F911F910F91FF90EF90DF9003
:1010B000CF90BF90AF907F905F904F903F902F90D8
:1010C0001F900F90189581E090E0A9E6B0E48D9311
:1010D0009C93A9E6B0E40D911C910B3F52E01507DB
:1010E00018F011F00C94070980E090E0A9E6B0E454
:1010F000AD90BD90AAE7B4E0AA0CBB1CAA0DBB1D25
:101100008D939C9380E090E0A9E6B0E4AD90BD9013
:10111000A0E7BAE0AA0CBB1CAA0DBB1D8D939C9343
:1011200080E090E0A9E6B0E4AD90BD90A6E6B0E125
:10113000AA0CBB1CAA0DBB1D8D939C9380E090E074
:10114000A9E6B0E4AD90BD90ACE5B6E1AA0CBB1C3D
:10115000AA0DBB1D8D939C9380E090E0A9E6B0E4BE
:10116000AD90BD90A2E5BCE1AA0CBB1CAA0DBB1DB5
:101170008D939C9380E090E0A9E6B0E4AD90BD90A3
:10118000A8E4B2E2AA0CBB1CAA0DBB1D8D939C93D4
:1011900080E090E0A9E6B0E4AD90BD90AEE3B8E2A7
:1011A000AA0CBB1CAA0DBB1D8D939C9380E090E004
:1011B000A9E6B0E4AD90BD90A4E3BEE2AA0CBB1CCE
:1011C000AA0DBB1D8D939C9380E090E0A9E6B0E44E
:1011D000AD90BD90AAE2B4E3AA0CBB1CAA0DBB1D46
:1011E0008D939C9380E090E0A9E6B0E4AD90BD9033
:1011F000A0E2BAE3AA0CBB1CAA0DBB1D8D939C9365
:10120000A9E6B0E40E94212810F40C94690880E05B
:1012100090E0A9E6B0E4AD90BD90AAE7B4E0AA0CD6
:10122000BB1CAA0DBB1D8D939C9380E090E0AAE1AE
:10123000B0E48D939C9380E090E0ACE1B0E48D93BA
:101240009C9380E090E0AEE1B0E48D939C9380E0CD
:1012500090E0A0E2B0E48D939C9380E090E0A2E265
:10126000B0E48D939C9380E090E0A4E2B0E48D9391
:101270009C9380E090E0A6E2B0E48D939C9380E0A4
:1012800090E0A8E2B0E48D939C9380E090E0AAE225
:10129000B0E48D939C9381E090E0A9E6B0E48D9357
:1012A0009C9381E080937904089500917904013042
:1012B00018F011F00C945E090C94110A0091790455
:1012C000023381E008F480E08F93009136400E37BE
:1012D00081E009F480E09F91892B882311F40C941C
:1012E000760981E0809379040C94110A00917904C5
:1012F000053018F011F00C947F090C94110A00913C
:10130000790441E0041BAEE4B1E00C93AEE4B1E03B
:10131000AD90BB24A5E3B0E4AA0DBB1D0C910E3724
:1013200011F00C94110A00913940003011F00C9426
:10133000CF0900913A40003011F40C94CD0980910E
:101340003840809373400E94050C00917340033035
:1013500011F00C94AF090E94120A0C94CD090038C8
:1013600011F00C94B7090E946A0B0C94CD09003D52
:1013700011F00C94BF090E94A20B0C94CD09013D01
:1013800011F00C94C7090E94A20B0C94CD09023DE8
:1013900011F00C94CD090E94A20B0C940E0A01309E
:1013A00011F00C94DC0989E08093950380919403FB
:1013B000809396030C940E0A023011F00C94E90904
:1013C0008AE08093950380919403809396030C9414
:1013D0000E0A043011F00C94F6098BE0809395030B
:1013E00080919403809396030C940E0A083211F0B6
:1013F0000C94030A8CE0809395038091940380936E
:1014000096030C940E0A033411F00C940E0A8DE02E
:1014100080939503809194038093960381E0809359
:101420007904089580913740809355018091384028
:1014300080935401A4E5B1E08D919C91A9E6B0E4BC
:10144000AD90BD90AAE7B4E0AA0CBB1CAA0DBB1DD1
:101450008D939C93A4E5B1E08D919C91A8E1B0E4BB
:101460008D939C93809139408093550180913A40AF
:1014700080935401A4E5B1E08D919C91A9E6B0E47C
:10148000AD90BD90A0E7BAE0AA0CBB1CAA0DBB1D95
:101490008D939C93A4E5B1E08D919C91AAE1B0E479
:1014A0008D939C9380913B408093550180913C406B
:1014B00080935401A4E5B1E08D919C91A9E6B0E43C
:1014C000AD90BD90A6E6B0E1AA0CBB1CAA0DBB1D59
:1014D0008D939C93A4E5B1E08D919C91ACE1B0E437
:1014E0008D939C9380913D408093550180913E4027
:1014F00080935401A4E5B1E08D919C91A9E6B0E4FC
:10150000AD90BD90ACE5B6E1AA0CBB1CAA0DBB1D0D
:101510008D939C93A4E5B1E08D919C91AEE1B0E4F4
:101520008D939C9380913F408093550180914040E2
:1015300080935401A4E5B1E08D919C91A9E6B0E4BB
:10154000AD90BD90A2E5BCE1AA0CBB1CAA0DBB1DD1
:101550008D939C93A4E5B1E08D919C91A0E2B0E4C1
:101560008D939C938091414080935501809142409E
:1015700080935401A4E5B1E08D919C91A9E6B0E47B
:10158000AD90BD90A8E4B2E2AA0CBB1CAA0DBB1D95
:101590008D939C93A4E5B1E08D919C91A2E2B0E47F
:1015A0008D939C938091434080935501809144405A
:1015B00080935401A4E5B1E08D919C91A9E6B0E43B
:1015C000AD90BD90AEE3B8E2AA0CBB1CAA0DBB1D4A
:1015D0008D939C93A4E5B1E08D919C91A4E2B0E43D
:1015E0008D939C9380914540809355018091464016
:1015F00080935401A4E5B1E08D919C91A9E6B0E4FB
:10160000AD90BD90A4E3BEE2AA0CBB1CAA0DBB1D0D
:101610008D939C93A4E5B1E08D919C91A6E2B0E4FA
:101620008D939C93809147408093550180914840D1
:1016300080935401A4E5B1E08D919C91A9E6B0E4BA
:10164000AD90BD90AAE2B4E3AA0CBB1CAA0DBB1DD1
:101650008D939C93A4E5B1E08D919C91A8E2B0E4B8
:101660008D939C93809149408093550180914A408D
:1016700080935401A4E5B1E08D919C91A9E6B0E47A
:10168000AD90BD90A0E2BAE3AA0CBB1CAA0DBB1D95
:101690008D939C93A4E5B1E08D919C91AAE2B0E476
:1016A0008D939C93A9E6B0E40E942128A9E6B0E4BA
:1016B0000D911C910B3F52E0150718F011F00C949E
:1016C000630B0C94690B81E090E0A9E6B0E48D9384
:1016D0009C93089500917240013011F00C948D0B91
:1016E0008091374080936E408091384080936F4066
:1016F000809139408093704080913A40809371404E
:10170000EDE2F0E0AEE6B0E494E07BE70E94B129C0
:1017100080E0809372400C94A10B8AE18093940145
:101720008091384080939501809139408093960153
:1017300080913A408093970185E0809394020E94C3
:10174000BC030895809195028093940100913640E6
:1017500041E0041BA5E9B1E00C9383E080934F01C5
:1017600082E08093500181E00E94C32800913640BE
:1017700041E0041BA881B9810C9381E080934E0164
:10178000A881B9814C9100914E01041718F011F015
:101790000C94F90BA0E5B1E0AD90BB24A5E3B0E457
:1017A000AA0DBB1D8C9180935101A0E5B1E0AD90D5
:1017B000BB24A5E3B0E4AA0DBB1D8C91AFE4B1E05E
:1017C000AD90BB24A3E9B1E0AA0DBB1D8C93AFE49F
:1017D000B1E08C918F5F8C93A0E5B1E08C918F5F2D
:1017E0008C93AEE4B1E08C918F5F8C9310F40C94E9
:1017F000C00B81E0481A80E0580A229680914F0180
:10180000809394020E94BC03089581E080934F016D
:1018100080E080936B4081E00E94C32800917904AE
:1018200042E0041BA881B9810C9385E080934E01AE
:10183000A881B9814C9100914E01041718F011F064
:101840000C94A50CAEE4B1E0AD90BB24A5E3B0E4EC
:10185000AA0DBB1D0C910D3711F00C94340C81E0D6
:1018600080936B400C949D0C00916B40013011F003
:101870000C94860CAEE4B1E0AD90BB24A5E3B0E4DB
:10188000AA0DBB1D0C910E3511F00C94530C8FE773
:10189000AFE4B1E0AD90BB24A5E3B0E4AA0DBB1D5D
:1018A0008C930C94810C0D3511F00C94630C8DE726
:1018B000AFE4B1E0AD90BB24A5E3B0E4AA0DBB1D3D
:1018C0008C930C94810C013311F00C94730C81E116
:1018D000AFE4B1E0AD90BB24A5E3B0E4AA0DBB1D1D
:1018E0008C930C94810C033311F00C94810C83E1E4
:1018F000AFE4B1E0AD90BB24A5E3B0E4AA0DBB1DFD
:101900008C9380E080936B400C94980CAEE4B1E033
:10191000AD90BB24A5E3B0E4AA0DBB1D8C91AFE450
:10192000B1E0AD90BB24A5E3B0E4AA0DBB1D8C9340
:10193000AFE4B1E08C918F5F8C93AEE4B1E08C9119
:101940008F5F8C9310F40C94180C81E0481A80E09F
:10195000580A22960895ADE6B0E4AD90BB24AAE102
:10196000B1E0AA0DBB1D0C910E3711F00C94D30CF5
:101970008DE7ADE6B0E4AD90BB24AAE1B1E0AA0DDD
:10198000BB1D8C93ADE6B0E48C918F5F8C938EE59C
:10199000ADE6B0E4AD90BB24AAE1B1E0AA0DBB1D59
:1019A0008C930C942E0D0D3711F00C94F20C8DE7E6
:1019B000ADE6B0E4AD90BB24AAE1B1E0AA0DBB1D39
:1019C0008C93ADE6B0E48C918F5F8C938DE5ADE6A2
:1019D000B0E4AD90BB24AAE1B1E0AA0DBB1D8C938D
:1019E0000C942E0D013111F00C94110D8DE7ADE624
:1019F000B0E4AD90BB24AAE1B1E0AA0DBB1D8C936D
:101A0000ADE6B0E48C918F5F8C9381E3ADE6B0E4FA
:101A1000AD90BB24AAE1B1E0AA0DBB1D8C930C9440
:101A20002E0D033111F00C942E0D8DE7ADE6B0E4D0
:101A3000AD90BB24AAE1B1E0AA0DBB1D8C93ADE62D
:101A4000B0E48C918F5F8C9383E3ADE6B0E4AD900E
:101A5000BB24AAE1B1E0AA0DBB1D8C93ADE6B0E4B6
:101A60008C918F5F8C93089581E080934E0140911B
:101A7000354000914E01041718F011F00C94580DE8
:101A8000AEE4B1E0AD90BB24AAE1B1E0AA0DBB1D6C
:101A90008C9180934F0131E0AFE4B1E00E94672860
:101AA000AEE4B1E08C918F5F8C9310F40C94370D01
:101AB000089500919001043010F40C94F60E0091FA
:101AC0009802003011F00C94690D0E94F70E0C94EE
:101AD000F40EA6E9B2E00D91112740E051E00E941A
:101AE000CB28A4E5B1E00D931C93A4E5B1E08C9163
:101AF00080FB882780F9082F8827182FA7E9B2E0F4
:101B00004D915527040F151FA4E5B1E00D931C93CB
:101B10008091980280934E01A4E5B1E00D911C9153
:101B20000B3F52E0150781E008F080E08F930091B1
:101B30004E010F3781E008F080E09F9189238823D0
:101B400011F40C94ED0E81E080939903809195023D
:101B500080939401809196028093950180919702E1
:101B600080939601809198028093970185E08093FD
:101B7000940281E080934F0140914E0100914F010A
:101B8000041718F011F00C94E00E0091950201304A
:101B900011F00C94DD0DA4E5B1E0AD90BD90AAE785
:101BA000B4E0AA0CBB1CAA0DBB1D8D919C91A8E5AD
:101BB000B1E08D939C930C94A10E023011F00C9423
:101BC000F30DA4E5B1E0AD90BD90A0E7BAE0AA0C9A
:101BD000BB1CAA0DBB1D8D919C91A8E5B1E08D9316
:101BE0009C930C94A10E033011F00C94090EA4E503
:101BF000B1E0AD90BD90A6E6B0E1AA0CBB1CAA0D69
:101C0000BB1D8D919C91A8E5B1E08D939C930C94A4
:101C1000A10E043011F00C941F0EA4E5B1E0AD90BC
:101C2000BD90ACE5B6E1AA0CBB1CAA0DBB1D8D9105
:101C30009C91A8E5B1E08D939C930C94A10E053086
:101C400011F00C94350EA4E5B1E0AD90BD90A2E585
:101C5000BCE1AA0CBB1CAA0DBB1D8D919C91A8E5F3
:101C6000B1E08D939C930C94A10E063011F00C946E
:101C70004B0EA4E5B1E0AD90BD90A8E4B2E2AA0C91
:101C8000BB1CAA0DBB1D8D919C91A8E5B1E08D9365
:101C90009C930C94A10E073011F00C94610EA4E5F6
:101CA000B1E0AD90BD90AEE3B8E2AA0CBB1CAA0DAA
:101CB000BB1D8D919C91A8E5B1E08D939C930C94F4
:101CC000A10E083011F00C94770EA4E5B1E0AD90B0
:101CD000BD90A4E3BEE2AA0CBB1CAA0DBB1D8D9156
:101CE0009C91A8E5B1E08D939C930C94A10E0930D2
:101CF00011F00C948D0EA4E5B1E0AD90BD90AAE278
:101D0000B4E3AA0CBB1CAA0DBB1D8D919C91A8E548
:101D1000B1E08D939C930C94A10E0A3011F00C94B9
:101D2000A10EA4E5B1E0AD90BD90A0E2BAE3AA0C8B
:101D3000BB1CAA0DBB1D8D919C91A8E5B1E08D93B4
:101D40009C93A8E5B1E011968C91A4E9B2E0AD9026
:101D5000BB24A3E9B1E0AA0DBB1D8C93A4E9B2E0BA
:101D60008C918F5F8C93A8E5B1E08C91A4E9B2E0EF
:101D7000AD90BB24A3E9B1E0AA0DBB1D8C93A4E9EF
:101D8000B2E08C918F5F8C93A4E5B1E00E94212892
:101D9000A4E5B1E00D911C910B3F52E0150710F442
:101DA0000C94D80E80E090E0A4E5B1E08D939C9374
:101DB000AFE4B1E08C918F5F8C9310F40C94BC0D68
:101DC00000919402013018F011F00C94E90E0C947B
:101DD000EB0E0E94BC030C94F40E84E080939503F8
:101DE00080919403809396030E94960308958091B6
:101DF00095028093940100919502013011F00C94AA
:101E00000B0FA8E1B0E48D919C91A8E5B1E08D9312
:101E10009C930C94870F023011F00C94190FAAE1D7
:101E2000B0E48D919C91A8E5B1E08D939C930C94C6
:101E3000870F033011F00C94270FACE1B0E48D91C3
:101E40009C91A8E5B1E08D939C930C94870F04308E
:101E500011F00C94350FAEE1B0E48D919C91A8E5A2
:101E6000B1E08D939C930C94870F053011F00C9486
:101E7000430FA0E2B0E48D919C91A8E5B1E08D9371
:101E80009C930C94870F063011F00C94510FA2E232
:101E9000B0E48D919C91A8E5B1E08D939C930C9456
:101EA000870F073011F00C945F0FA4E2B0E48D911E
:101EB0009C91A8E5B1E08D939C930C94870F08301A
:101EC00011F00C946D0FA6E2B0E48D919C91A8E501
:101ED000B1E08D939C930C94870F093011F00C9412
:101EE0007B0FA8E2B0E48D919C91A8E5B1E08D93C1
:101EF0009C930C94870F0A3011F00C94870FAAE280
:101F0000B0E48D919C91A8E5B1E08D939C93A9E6F6
:101F1000B0E411968C91A5E9B1E08C93A9E6B0E408
:101F20008C91A6E9B1E08C9381E080939701A8E5BC
:101F3000B1E011968C91A8E9B1E08C93A8E5B1E0ED
:101F40008C91A9E9B1E08C9387E080939402009191
:101F50009402013018F011F00C94B00F0C94B20FF1
:101F60000E94BC030E94960308958EE780931B0194
:101F700080E080931C0180E880931D0181E08093C4
:101F80001E0180E080931F018DE7809320018EE584
:101F9000809321018EE78093220188E08093354071
:101FA0000E94340D84E080936C40089581E8809312
:101FB000090480E880930A0482E0D2018C9381E0D6
:101FC0000E94C3280E940207229681E00E94BF2837
:101FD00081E88093090481E880930A0482E0D201B9
:101FE0008C9381E00E94C3280E940207229681E020
:101FF0000E94BF28089582E18093090481E0D20104
:102000008C9381E00E94C3280E94F306229681E00F
:102010000E94BF28089582E9809309048FEF80937E
:102020000A0482E0D2018C9381E00E94C3280E94BE
:102030000207229681E00E94BF2881E090E00E9482
:10204000A82882E0D2018C9381E00E94C3280E94DC
:102050000207229681E00E94BF28089586E08093BF
:10206000090483E0D2018C9381E00E94C3280E947E
:10207000F306229681E00E94BF28A4EAB3E00C9107
:1020800011272227332740E050E061E070E00E94F2
:10209000D528AAE5B1E00D931D932D933D93A5EAB4
:1020A000B3E00C9111272227332740E051E060E094
:1020B00070E00E94D528AEE5B1E00D931D932D93FD
:1020C0003D93AAE5B1E00D911D912D913C91AEE5B6
:1020D000B1E04D915D916D917C910E942D29AAE511
:1020E000B1E00D931D932D933D93AAE5B1E00D91C1
:1020F0001D912D913C91A6EAB3E04C91552766279E
:1021000077270E942D29AAE5B1E00D931D932D9309
:102110003D93EAE5F1E00E94162A0E94792AA6E69C
:10212000B1E00E94202AE4E9F6E50E9427290E94F6
:102130003D2BE6E6F1E00E94162A0E94FF2AEDE020
:10214000F0E0A6E6B1E00E949A29E8E9F6E50E94EF
:1021500027290E943D2BE6E6F1E00E94162A0E9404
:10216000A62AEDE0F0E0A6E6B1E00E949A29E6E6B4
:10217000F1E00E942B2AAAE5B1E0EDE0FF270E94E2
:102180009A29AAE5B1E00D911D912D913C9140E471
:102190005EE06FEC79E10E943229AAE5B1E00D938F
:1021A0001D932D933D930895AAE5B1E00D911D91E6
:1021B0002D913C9140E45EE06FEC79E10E942D2985
:1021C000AAE5B1E00D931D932D933D93EAE5F1E06F
:1021D0000E94162A0E94792AA7E1B1E00E94202AD3
:1021E000A6E6B1E0ECE9F6E50E9427290E940C2959
:1021F000E6E6F1E00E941B2AE7E1F1E00E94162AE0
:102200000E94A62AEDE0F0E0A7E1B1E00E949A2941
:10221000E7E1F1E00E942B2AAAE5B1E0EDE0FF271B
:102220000E949A2986E88093090480915C0180933A
:102230000A0480915B0180930B0480915A01809382
:102240000C0484E0D2018C9381E00E94C3280E9498
:102250000207229681E00E94BF2808950E94D60FAF
:1022600081E090E00E94A8280E940B1081E88093F2
:10227000090485E880930A0482E0D2018C9381E00E
:102280000E94C3280E940207229681E00E94BF2874
:1022900008950E94D60F81E88093090483E0D2015B
:1022A0008C9381E00E94C3280E94F306229681E06D
:1022B0000E94BF288091A40380934E0100914E019B
:1022C000013811F40C94681180E080939B03089509
:1022D00089E8809309048FEC80930A0482E0D2019C
:1022E0008C9381E00E94C3280E940207229681E01D
:1022F0000E94BF2880EA8093090483E080930A0447
:102300008FEF80930B0483E0D2018C9381E00E94D5
:10231000C3280E940207229681E00E94BF2886EA15
:102320008093090484E080930A0482E0D2018C93B4
:1023300081E00E94C3280E940207229681E00E9449
:10234000BF288EE98093090484E780930A0482E021
:10235000D2018C9381E00E94C3280E94020722963A
:1023600081E00E94BF28A4E7B4E00D911D912D915A
:102370003C9148EE53E060E070E00E94D528AAE569
:10238000B1E00D931D932D933D930E94D4100E94B4
:102390002E11089584E680934E010E94D60F81E0AD
:1023A00090E00E94A8288DE88093090480E880933B
:1023B0000A0482E0D2018C9381E00E94C3280E942B
:1023C0000207229681E00E94BF2880E880930904DA
:1023D0000E940C0780917204D2018C9381E00E94CC
:1023E000C3280E940207229681E00E94BF2882EA49
:1023F000809309040091720441E0041BAAE0B4E058
:102400000C9382E0D2018C9381E00E94C3280E9449
:102410000207229681E00E94BF2881E090E00E949E
:10242000A82881E88093090483E880930A0482E065
:10243000D2018C9381E00E94C3280E940207229659
:1024400081E00E94BF289FB7F89480916000886166
:1024500080936000877E809360009FBF80E08093C0
:102460004F010E94FB0F0091A40348E00423AEE457
:10247000B1E00C9300914E01083011F00C9443121E
:102480008AEF80934F01AFE4B1E08C918F5F8C9322
:1024900084E690E00E94A82800914F010A3F08F4CA
:1024A000E0CF809160008860809360000E940B10F4
:1024B0008DE88093090480E880930A0482E0D201C9
:1024C0008C9381E00E94C3280E940207229681E03B
:1024D0000E94BF280E942E110E94960308950E9418
:1024E000FB0F8091A40380934E0100914E010030B8
:1024F00018F011F00C947E120C947F1300914E0191
:1025000040E20423AFE4B1E00C9300914E0140E4BB
:102510000423A0E5B1E00C9300914F01003211F0CB
:102520000C9496120E942E110C947F13009150016E
:10253000003411F00C947F138DE88093090480E03F
:1025400080930A0482E0D2018C9381E00E94C32828
:102550000E940207229681E00E94BF2883E18093B7
:10256000090481E0D2018C9381E00E94C3280E947B
:10257000F306229681E00E94BF288091A4038093F5
:102580004E0180E08093090480914E01D2018C932A
:1025900081E00E94C3280E94F306229681E00E94F7
:1025A000BF28ACE9B3E00E94EE29A0E5B1E08C932E
:1025B00081E080934F0181E080935101409150016F
:1025C00000915101041718F011F00C940813A1E5C3
:1025D000B1E0AD90BB24A3EAB3E0AA0DBB1D4C91C2
:1025E000A1E5B1E0AD90BB24ABE9B3E0AA0DBB1D02
:1025F0000C91041711F40C94001380E080934F01A8
:10260000A1E5B1E08C918F5F8C9310F40C94DE12F5
:1026100000914F01013011F00C947D13A0E5B1E061
:102620008C918F5F8C9381E08093530100915301D3
:10263000003011F00C9443138091500180934F01AE
:1026400040914E0100914F01041718F011F00C94C5
:102650004113AFE4B1E0AD90BB24A3EAB3E0AA0D0F
:10266000BB1D8C918093510131E0A1E5B1E00E9446
:102670005128AFE4B1E08C918F5F8C9310F40C94EF
:1026800020130C947D1381E08093510180E08093AE
:1026900091018091500180934F0140914E01009132
:1026A0004F01041718F011F00C947A13AFE4B1E065
:1026B000AD90BB24A3EAB3E0AA0DBB1D8C91A1E5AC
:1026C000B1E0AD90BB24A4E9B2E0AA0DBB1D8C9390
:1026D000A1E9B1E08C918F5F8C93A1E5B1E08C9181
:1026E0008F5F8C93AFE4B1E08C918F5F8C9310F48B
:1026F0000C944D1381E0809378040E942E1108956C
:1027000047982C9881E08093090481E0D2018C9352
:1027100081E00E94C3280E94F306229681E00E9475
:10272000BF288091A40380934E0100914E010F3386
:1027300011F40C949F1380E080939B0308950E94F2
:1027400056140E948F1481E28093090481E08093E3
:102750000A0482E0D2018C9381E00E94C3280E9487
:102760000207229681E00E94BF2882E2809309043A
:1027700081E080930A0482E0D2018C9381E00E9480
:10278000C3280E940207229681E00E94BF2885E2AA
:10279000809309048091740480930A0482E0D2013A
:1027A0008C9381E00E94C3280E940207229681E058
:1027B0000E94BF2881E38093090480E280930A0489
:1027C00082E0D2018C9381E00E94C3280E9402071C
:1027D000229681E00E94BF2886E2809309048BE064
:1027E00080930A0482E0D2018C9381E00E94C32886
:1027F0000E940207229681E00E94BF288CE380930A
:10280000090481E080930A0482E0D2018C9381E084
:102810000E94C3280E940207229681E00E94BF28DE
:102820008DE38093090484E080930A0482E0D2015E
:102830008C9381E00E94C3280E940207229681E0C7
:102840000E94BF2880E2809309048FE080930A04ED
:1028500082E0D2018C9381E00E94C3280E9402078B
:10286000229681E00E94BF28479A089582EE8093C5
:10287000090481E0D2018C9381E00E94C3280E9468
:102880000207229681E00E94BF28089581EE80937E
:10289000090481E0D2018C9381E00E94C3280E9448
:1028A0000207229681E00E94BF28089587E2809364
:1028B000090480E780930A0482E0D2018C9381E0CE
:1028C0000E94C3280E940207229681E00E94BF282E
:1028D0000895479885E28093090480917404809359
:1028E0000A0482E0D2018C9381E00E94C3280E94F6
:1028F0000207229681E00E94BF280895479885E04C
:102900008093090481E0D2018C9381E00E94C32866
:102910000E94F306229681E00E94BF2808954798FE
:1029200086E070E0A9E0B4E00E94A129ACE9B3E040
:102930000E94EE29A0E5B1E08C9382E080934F01E4
:1029400081E080934E014091500100914E010417A7
:1029500018F011F00C94C614AEE4B1E0AD90BB24B5
:10296000ABE9B3E0AA0DBB1D8C91AEE4B1E0AD9034
:10297000BB24A9E0B4E0AA0DBB1D8C93AEE4B1E08A
:102980008C918F5F8C9310F40C94A3148AE2809343
:10299000090486E0D2018C9381E00E94C3280E9442
:1029A0000207229681E00E94BF2880E380930904F9
:1029B00086E0D2018C9381E00E94C3280E94020726
:1029C000229681E00E94BF28089547980E944614ED
:1029D0000E94561480E2809309048EE080930A04DA
:1029E00082E0D2018C9381E00E94C3280E940207FA
:1029F000229681E00E94BF2881E080934F0181E010
:102A00008093530180E08093520100917204003260
:102A100018F011F00C940E150C94131580E28093AD
:102A200051010C941A15809172048093510181E038
:102A30008093520180EA8093090482E080935001E0
:102A400081E00E94C32800914F0140915101040F81
:102A5000A881B9810C9380914F0180934E01A88188
:102A6000B9814C9100914E01041718F011F00C94AB
:102A7000721500915301003011F00C945315AEE41F
:102A8000B1E0AD90BB24A4E9B2E0AA0DBB1D8C91CE
:102A9000A0E5B1E0AD90BB24A8E0B4E0AA0DBB1D59
:102AA0008C930C946515AEE4B1E0AD90BB24A3E922
:102AB000B1E0AA0DBB1D8C91A0E5B1E0AD90BB24A7
:102AC000A8E0B4E0AA0DBB1D8C93A0E5B1E08C9109
:102AD0008F5F8C93AEE4B1E08C918F5F8C9310F498
:102AE0000C942F1581E0481A80E0580A2296009134
:102AF000510141E0040FD2010C9381E00E94C328F0
:102B00000E940207229681E00E94BF2882E090E0A6
:102B10000E94A828479A81E090E00E94A828479840
:102B200080E08093500187E08093090481E0D20126
:102B30008C9381E00E94C3280E94F306229681E0D4
:102B40000E94BF280091A40340E70423AEE4B1E053
:102B50000C9300914E01003211F40C94B81581E0F1
:102B600090E00E94A828A0E5B1E08C918F5F8C9343
:102B700000915001023380E010F009F081E08F9362
:102B800000914E01003281E009F080E09F91892B95
:102B9000882311F40C94931500915001023318F01E
:102BA00011F00C94D5150C94D81581E08093520146
:102BB00000914F0140915101040FAFE4B1E00C933B
:102BC0000091720440915101041BA2E7B4E00C9300
:102BD00000915201003011F00C94F21584E190E064
:102BE0000E94A82800915201013011F00C940515A3
:102BF0000E94561480E2809309048FE080930A04B7
:102C000082E0D2018C9381E00E94C3280E940207D7
:102C1000229681E00E94BF28479A089587E1809319
:102C2000090481E0D2018C9381E00E94C3280E94B4
:102C3000F306229681E00E94BF28A4EAB3E00C913B
:102C400000FB16F40C948E1647982C9880E680931F
:102C5000090481E0D2018C9381E00E94C3280E9484
:102C6000F306229681E00E94BF288091A4038093FE
:102C70004E0181E68093090481E080935301009125
:102C80005301003011F00C94781680914E01D2015E
:102C90008C9381E00E94C3280E94F306229681E073
:102CA0000E94BF2881E080934F0140914E01009126
:102CB0004F01041718F011F00C947616AFE4B1E050
:102CC000AD90BB24A3EAB3E0AA0DBB1D8C91809309
:102CD000510131E0A1E5B1E00E945128AFE4B1E03B
:102CE0008C918F5F8C9310F40C9455160C9489166C
:102CF0002C9891E0A9E0B4E00E94872890914E01C1
:102D0000A5E9B2E00E947C282C9A80914E01809324
:102D100091010E9456140E943614479A089581E04A
:102D20008093990380E080938E0181E080938F01EE
:102D300082E0809393010E9423040E94BC030E94BE
:102D4000960308950E94590D08950E94590D089503
:102D50000E94590D08950E94590D08950E94590D21
:102D600008950E94590D08950E94590D08950E94DA
:102D7000590D08950E94590D08950E94590D089506
:102D80008BE080939401A9E6B0E411968C91A5E9BB
:102D9000B1E08C93A9E6B0E48C91A6E9B1E08C9304
:102DA00084E0809394020E94BC030E9496030895DD
:102DB00000919001023010F40C94351700919702A5
:102DC000023010F00C942C178EE780931B0180E0EA
:102DD00080931C0100919602013011F00C9414179D
:102DE00080E080931D0182E080931E0181E080934A
:102DF0001F0185E08093200187EF809321018EE7FA
:102E00008093220188E08093354000E010E020E0CC
:102E100030E0A1E3B0E40D931D932D933C9381E04A
:102E20008093A2030C94281781E080931D0180E019
:102E300080931E018EEF80931F018EE78093200107
:102E400086E08093354080E08093A2030E9463086F
:102E50000E94340D0C94331784E080939503809185
:102E60009403809396030E94960308950091900125
:102E7000023010F40C94D21700919602073010F033
:102E80000C94C9178091960280932C4000912C409D
:102E9000003011F00C94581701E010E020E030E011
:102EA000ADE2B0E40D931D932D933C930C94B617B3
:102EB000013011F00C94681703E010E020E030E0DE
:102EC000ADE2B0E40D931D932D933C930C94B61793
:102ED000023011F00C94781709E010E020E030E0A7
:102EE000ADE2B0E40D931D932D933C930C94B61773
:102EF000033011F00C94881702E110E020E030E07C
:102F0000ADE2B0E40D931D932D933C930C94B61752
:102F1000043011F00C94981704EB10E020E030E03E
:102F2000ADE2B0E40D931D932D933C930C94B61732
:102F3000053011F00C94A8170CE112E020E030E00D
:102F4000ADE2B0E40D931D932D933C930C94B61712
:102F5000063011F00C94B61708E314E020E030E0DE
:102F6000ADE2B0E40D931D932D933C93E8E2F0E0C5
:102F7000ACE2B0E47BE70E94AE29E9E2F0E0ADE22A
:102F8000B0E494E07BE70E94B1290E9463080C94AE
:102F9000D01784E0809395038091940380939603E7
:102FA0000E94960308958EE08093940180912C40B6
:102FB0008093950183E0809394020E94BC030E9459
:102FC0009603089500919001043010F40C94B91800
:102FD00080E080935D018091960280935C018091F6
:102FE000970280935B018091980280935A0141E699
:102FF0005EEA6AE070E0AAE5B1E00D911D912D91C5
:103000003C91041715072607370710F00C94B018E9
:10301000AAE5B1E00D911D912D913C91AEE6B0E491
:103020000D931D932D933C938EE780931B0180E0BD
:1030300080931C0180E880931D0185E080931E0130
:1030400080E080931F0180E08093200187E08093DF
:103050006D4080919602ADE6B0E4AD90BB24AAE14C
:10306000B1E0AA0DBB1D8C930E94AB0C809197021E
:10307000ADE6B0E4AD90BB24AAE1B1E0AA0DBB1D62
:103080008C930E94AB0C80919802ADE6B0E4AD90B9
:10309000BB24AAE1B1E0AA0DBB1D8C930E94AB0C2E
:1030A00005E810E0A6E9B2E04D915527040F151F81
:1030B000AAE7B4E00D931C93AAE7B4E00D911C912C
:1030C000A7E9B2E04D915527040F151FAAE7B4E018
:1030D0000D931C93AAE7B4E00D911C91A8E9B2E00E
:1030E0004D915527040F151FAAE7B4E00D931C93CB
:1030F000AAE7B4E00D911C91A9E9B2E04D915527E2
:10310000040F151FAAE7B4E00D931C93AAE7B4E0DF
:103110008C91AEE4B1E08C930FEF40914E01041B13
:10312000ADE6B0E4AD90BB24AAE1B1E0AA0DBB1DB1
:103130000C93ADE6B0E48C918F5F8C938EE7ADE697
:10314000B0E4AD90BB24AAE1B1E0AA0DBB1D8C9305
:1031500080916D40809335400E94340D0C94B718D7
:1031600084E08093950380919403809396030E945A
:103170009603089580E1809394018091704080933C
:10318000950180916F408093960180916E4080936D
:10319000970185E0809394020E94BC030E949603ED
:1031A00008958EE780931B0180E080931C0186E5E3
:1031B00080931D0180E080931E0189EA80931F01A6
:1031C0008EE78093200186E0809335400E94340D85
:1031D0000E94960308958EE780931B0180E0809300
:1031E0001C0180ED80931D0181E080931E0180E031
:1031F00080931F018EE2809320018EE7809321014E
:1032000087E0809335400E94340D0E949603089514
:103210008EE780931B0180E080931C0180ED8093FA
:103220001D0181E080931E0183E080931F018BE2EA
:10323000809320018EE78093210187E080933540C1
:103240000E94340D0E94960308958EE780931B011F
:1032500080E080931C0181ED80931D0180E08093CC
:103260001E018EE280931F018EE78093200186E08D
:10327000809335400E94340D0E94960308958EE796
:1032800080931B0180E080931C0183ED80931D01DE
:1032900080E080931E018CE280931F018EE7809373
:1032A000200186E0809335400E94340D0E9463081F
:1032B0000E94960308958EE780931B0180E080931F
:1032C0001C0182ED80931D0181E080931E0180E04E
:1032D00080931F018CE2809320018EE7809321016F
:1032E00087E0809335400E94340D0E949603089534
:1032F00000919001033010F40C94031A00917804AB
:10330000003011F00C94F7191B990C94EE19A6E9F2
:10331000B2E00D91112740E051E00E94CB28A4E5D6
:10332000B1E00D931C93A4E5B1E00D911C91A7E9C8
:10333000B2E04D915527040F151FA4E5B1E00D93A0
:103340001C9300919B03013011F00C94E319A4E548
:10335000B1E00D911C91043A56E0150710F00C9461
:10336000DA19A4E5B1E08D919C91A4E7B4E08D93C6
:103370009D9388278D938C93E4E2F0E0A4E7B4E07A
:1033800094E07BE70E94B129A4E7B4E00D911D9180
:103390002D913C9148EE53E060E070E00E94D5280A
:1033A000AAE5B1E00D931D932D933D930E94D41097
:1033B0000C94E11984E080939503809194038093A9
:1033C00096030C94EA1986E0809395038091940308
:1033D000809396030E9496030C94F51986E08093DF
:1033E000950380919403809396030C94FE1986E0D4
:1033F00080939503809194038093960380E080935B
:1034000078040E949603089500919B03013011F007
:103410000C944F1A0E942E10EAE5F1E00E94162A41
:103420000E94792AA6E6B1E00E94202AE0EAF6E5A9
:103430000E9427290E943D2BE6E6F1E00E94162A11
:103440000E94A62AEDE0F0E0A6E6B1E00E949A29EB
:10345000E6E6F1E00E942B2AA4E7B4E0EDE0FF27C6
:103460000E949A2981E08093990386E080939401D9
:10347000A4E7B4E08D919C91A4E5B1E08D939C9379
:10348000809155018093950180915401809396011C
:1034900084E0809394020E94BC030C94561A86E048
:1034A0008093950380919403809396030E949603E2
:1034B000089500919001023010F40C94B11A00911B
:1034C0007804003011F00C94A51A1B990C949C1AE6
:1034D00000919B03043011F00C94931A0091960212
:1034E000013810F00C948A1AAEE4B1E08C91A4E794
:1034F000B4E08D9388278D938D938C93E4E2F0E074
:10350000A4E7B4E094E07BE70E94B1290E9469142B
:103510000C94911A84E08093950380919403809396
:1035200096030C949A1A86E08093950380919403F5
:10353000809396030C94A31A86E080939503809160
:103540009403809396030C94AC1A86E080939503C1
:10355000809194038093960380E0809378040E9486
:103560009603089500919B03043011F00C94D51A32
:103570000E947E14A4EAB3E08C91A4E7B4E08D939A
:1035800088278D938D938C9381E08093990388E0B5
:1035900080939401809174048093950183E08093DB
:1035A00094020E94BC030C94DC1A86E0809395037D
:1035B00080919403809396030E949603089580E07F
:1035C0008093910180E08093900108950091900193
:1035D000033010F40C94311C8091960280938E017C
:1035E0008091970280938F0100918E01053381E0D5
:1035F00008F080E08F9300918F01053381E008F09F
:1036000080E09F918923882311F40C94281C009159
:103610008F01003018F011F00C94101B0C94261C34
:1036200080E08093880181E08093990380EF80930C
:10363000940180918E018093950180918F018093F8
:10364000960184E080939402E2EEF3E40E9427293D
:10365000AEE8B1E08C9199270E941429A5E9B2E067
:103660000E94F828A5E9B2E00E94EE29A0E5B1E0A9
:103670008C9380915001A4E9B2E0AD90BB24A3E902
:10368000B1E0AA0DBB1D8C93A4E9B2E08C918F5FD1
:103690008C9381E080934F014091500100914F0144
:1036A000041718F011F00C94741BAFE4B1E0AD9066
:1036B000BB24A4E9B2E0AA0DBB1D8C91A4E9B2E041
:1036C000AD90BB24A3E9B1E0AA0DBB1D8C93A4E986
:1036D000B2E08C918F5F8C93AFE4B1E08C918F5FFF
:1036E0008C9310F40C944C1B81E080938701AEE81E
:1036F000B1E08C918F5F8C9380918F01815080938A
:103700008F0100918F01003018F011F00C948A1B8A
:103710000C94201C00918F01003080E010F009F023
:1037200081E08F9300918801003081E009F080E012
:103730009F918923882311F40C94201CE2EEF3E47A
:103740000E942729AEE8B1E08C9199270E941429A4
:10375000A5E9B2E00E94F828A5E9B2E00E94EE29AE
:10376000A0E5B1E08C93A4E9B2E00D911127A0E5AA
:10377000B1E04D915527040F151FA4E5B1E00D935D
:103780001C93A4E5B1E00E942128A4E5B1E00D91CD
:103790001C910A3F50E0150710F00C94111C809109
:1037A0005001A4E9B2E0AD90BB24A3E9B1E0AA0DB9
:1037B000BB1D8C93A4E9B2E08C918F5F8C9381E068
:1037C00080934F014091500100914F01041718F070
:1037D00011F00C940A1CAFE4B1E0AD90BB24A4E955
:1037E000B2E0AA0DBB1D8C91A4E9B2E0AD90BB2460
:1037F000A3E9B1E0AA0DBB1D8C93A4E9B2E08C91C2
:103800008F5F8C93AFE4B1E08C918F5F8C9310F459
:103810000C94E21BA7E8B1E08C918F5F8C930C9421
:10382000141C81E08093880180918F0181508093E6
:103830008F01AEE8B1E08C918F5F8C930C948A1B62
:1038400080918701809396010E94BC030C942F1CE9
:1038500084E08093950380919403809396030E9463
:103860009603089581E0809399038EE170E0A4E9C6
:10387000B1E00E94A1298CEF8093940183E08093B2
:103880004E01E4E9F3E0ABE1B1E00E945529ABE180
:10389000B1E00E94EE29A1E5B1E08C9381E0809334
:1038A0004F014091510100914F01041718F011F0A0
:1038B0000C94791CAFE4B1E0AD90BB24AAE1B1E077
:1038C000AA0DBB1D8C91AEE4B1E0AD90BB24A3E981
:1038D000B1E0AA0DBB1D8C93AEE4B1E08C918F5F7B
:1038E0008C93AFE4B1E08C918F5F8C9310F40C94C7
:1038F000511C00919503003011F00C94891CABE130
:10390000B1E0EAEBF6E50E9427290E94F8280C9422
:10391000631D013011F00C94971CABE1B1E0E0EDB8
:10392000F6E50E9427290E94F8280C94631D0230B6
:1039300011F00C94A51CABE1B1E0EEEDF6E50E94B0
:1039400027290E94F8280C94631D033011F00C9471
:10395000B31CABE1B1E0E2EFF6E50E9427290E943B
:10396000F8280C94631D043011F00C94C11CABE1D9
:10397000B1E0E8E0F7E50E9427290E94F8280C94BE
:10398000631D053011F00C94CF1CABE1B1E0ECE10C
:10399000F7E50E9427290E94F8280C94631D063041
:1039A00011F00C94DD1CABE1B1E0E2E3F7E50E941D
:1039B00027290E94F8280C94631D073011F00C94FD
:1039C000EB1CABE1B1E0EEE4F7E50E9427290E9491
:1039D000F8280C94631D083011F00C94F91CABE12D
:1039E000B1E0E6E6F7E50E9427290E94F8280C944A
:1039F000631D093011F00C94071DABE1B1E0E4E860
:103A0000F7E50E9427290E94F8280C94631D0A30CC
:103A100011F00C94151DABE1B1E0EEEAF7E50E9460
:103A200027290E94F8280C94631D0B3011F00C9488
:103A3000231DABE1B1E0E2ECF7E50E9427290E94EB
:103A4000F8280C94631D0C3011F00C94311DABE17F
:103A5000B1E0E6EFF7E50E9427290E94F8280C94D0
:103A6000631D0D3011F00C943F1DABE1B1E0E2E2BB
:103A7000F8E50E9427290E94F8280C94631D0E3057
:103A800011F00C944D1DABE1B1E0ECE4F8E50E94BF
:103A900027290E94F8280C94631D0F3F11F00C9405
:103AA0005B1DABE1B1E0E2E6F8E50E9427290E9448
:103AB000F8280C94631DABE1B1E0E0E7F8E50E9463
:103AC00027290E94F828ABE1B1E00E94EE29A1E588
:103AD000B1E08C9381E080934F01409151010091BE
:103AE0004F01041718F011F00C94951DAFE4B1E0EC
:103AF000AD90BB24AAE1B1E0AA0DBB1D8C91AEE450
:103B0000B1E0AD90BB24A3E9B1E0AA0DBB1D8C933D
:103B1000AEE4B1E08C918F5F8C93AFE4B1E08C9117
:103B20008F5F8C9310F40C946D1DE6E9F3E0ABE12C
:103B3000B1E00E945529ABE1B1E00E94EE29A1E578
:103B4000B1E08C9381E080934F014091510100914D
:103B50004F01041718F011F00C94CD1DAFE4B1E043
:103B6000AD90BB24AAE1B1E0AA0DBB1D8C91AEE4DF
:103B7000B1E0AD90BB24A3E9B1E0AA0DBB1D8C93CD
:103B8000AEE4B1E08C918F5F8C93AFE4B1E08C91A7
:103B90008F5F8C9310F40C94A51D00914E0143E0AF
:103BA000041BA5E9B1E00C9380914E01809394022F
:103BB0000E94BC030E949603089581E080939903BC
:103BC0008DEF8093940184E08093950183E080934E
:103BD00094020E94BC030E949603089500919001F4
:103BE000023010F40C94182000919602003011F06D
:103BF0000C94601E00919001033010F40C945E1E32
:103C000000919702003011F00C940A1E0E94960356
:103C10000C945E1E8091970280934E0100914E019C
:103C200043E0040FA3E5B1E00C93409153010091F0
:103C30009001041710F40C945E1E84E170E0ABE672
:103C4000B1E00E94A12900914E01073118F011F056
:103C50000C942C1E0C942F1E87E180934E0184E05F
:103C600080934F0140914E0100914F01041718F0CD
:103C700011F00C94551EAFE4B1E0AD90BB24A4E963
:103C8000B2E0AA0DBB1D8C91AFE4B1E0AD90BB24B6
:103C9000A7E6B1E0AA0DBB1D8C93AFE4B1E08C9117
:103CA0008F5F8C9310F40C94321EE2E0F0E0ABE6F0
:103CB000B1E07BE70E94BF290E9496030C94162076
:103CC000013011F00C94791E00919001033010F432
:103CD0000C94771E8091970280938001E7E1F0E0D9
:103CE000A0E8B1E07BE70E94AE290E9496030C9405
:103CF0001620023011F00C94A51E009190010330A3
:103D000010F40C94A31E8091970280934F010091B0
:103D10004F01023010F00C949A1E80914F01809355
:103D20008401EAE1F0E0A4E8B1E07BE70E94AE297B
:103D30000C94A11E84E0809395038091940380935A
:103D400096030E9496030C941620033011F00C94F5
:103D5000D11E00919001033010F40C94CF1E80917D
:103D6000970280934F0100914F01023010F00C94A4
:103D7000C61E80914F0180938601EBE1F0E0A6E83A
:103D8000B1E07BE70E94AE290C94CD1E84E08093C5
:103D9000950380919403809396030E9496030C945C
:103DA0001620043011F00C94181F0091900103307C
:103DB00010F40C94161F00917804003011F00C944C
:103DC0000D1F1B990C94041F8091970280934F0143
:103DD00000914F01073010F00C94FB1E80914F01B1
:103DE00080939B03ECE1F0E0ABE9B3E07BE70E945A
:103DF000AE290C94021F84E0809395038091940374
:103E0000809396030C940B1F86E08093950380911A
:103E10009403809396030C94141F86E0809395037B
:103E200080919403809396030E9496030C9416202D
:103E3000053011F00C94B11F00919001033010F483
:103E40000C94AF1F8091970280934E0100914E0118
:103E500043E0040FA3E5B1E00C93409153010091BE
:103E60009001041710F40C94AF1F009178040030F7
:103E700011F00C94A61F1B990C949D1F00914E01EC
:103E8000053018F011F00C94941F00919702003047
:103E900011F00C944F1F0E9496030C94921F85E022
:103EA00070E0ACE9B3E00E94A12984E08093500166
:103EB00081E080934F0140914E0100914F01041722
:103EC00018F011F00C94831FA0E5B1E0AD90BB2475
:103ED000A4E9B2E0AA0DBB1D8C91AFE4B1E0AD90B6
:103EE000BB24ABE9B3E0AA0DBB1D8C93A0E5B1E008
:103EF0008C918F5F8C93AFE4B1E08C918F5F8C934A
:103F000010F40C945B1FEEE1F0E0ACE9B3E07BE76A
:103F10000E94BF2900919B03043011F00C94921F62
:103F20000E948F140C949B1F84E0809395038091D2
:103F30009403809396030C94A41F86E080939503CA
:103F400080919403809396030C94AD1F86E0809338
:103F5000950380919403809396030E9496030C949A
:103F60001620063011F00C94D91F009190010330F7
:103F700010F40C94D71F00919702023010F00C94AB
:103F8000CE1F8091970280938301E9E1F0E0A3E8DE
:103F9000B1E07BE70E94AE290C94D51F84E08093AA
:103FA000950380919403809396030E9496030C944A
:103FB0001620073011F00C940D2000919001033071
:103FC00010F40C940B208091970280934F01009184
:103FD0004F01003810F00C940220AFE4B1E00C91D6
:103FE00042E0049F0C9280914F0180938101E8E1AF
:103FF000F0E0A1E8B1E07BE70E94AE290E940C0549
:104000000C94092084E0809395038091940380931D
:1040100096030E9496030C94162084E080939503E7
:1040200080919403809396030E9496030E94D20489
:10403000089500919001023010F40C945B2181E00E
:10404000809399038FEF80939401809196028093DF
:10405000950180E08093940200919602003011F067
:104060000C948A2084E17FEFA1E0B1E00E94A129B5
:10407000E1E0F1E0ABE6B1E00E94F62911F00C942A
:104080005020ABE6B1E0E0E8F8E50E9427290E9465
:10409000F828E2E0F0E0ABE6B1E07BE70E94BF2960
:1040A000ABE6B1E00E94EE29A0E5B1E08C938091EF
:1040B00050018093960184E08093940281E0809384
:1040C0004F014091500100914F01041718F011F079
:1040D0000C948820AFE4B1E0AD90BB24AAE6B1E037
:1040E000AA0DBB1D8C91A4E9B2E0AD90BB24A3E95D
:1040F000B1E0AA0DBB1D8C93A4E9B2E08C918F5F57
:104100008C93AFE4B1E08C918F5F8C930C94612021
:104110000C944E21013011F00C9497208091800175
:104120008093960184E0809394020C944E21023097
:1041300011F00C94A420809185018093960184E075
:10414000809394020C944E21033011F00C94B02013
:1041500080E08093960184E0809394020C944E2139
:10416000043011F00C94C82083E08093960188E31A
:10417000A7E9B1E08C938EE4A8E9B1E08C9381E3E8
:10418000A9E9B1E08C9387E0809394020C944E21CE
:10419000053011F00C94D520809186018093960112
:1041A00084E0809394020C944E21063011F00C941C
:1041B000E22080919B038093960184E08093940297
:1041C0000C944E21073011F00C942521ACE9B3E09A
:1041D0000E94EE29A0E5B1E08C938091500180937C
:1041E000960184E080934F0181E080934E014091DD
:1041F000500100914E01041718F011F00C941F218A
:10420000AEE4B1E0AD90BB24ABE9B3E0AA0DBB1DB9
:104210008C91AFE4B1E0AD90BB24A3E9B1E0AA0D6D
:10422000BB1D8C93AFE4B1E08C918F5F8C93AEE4B7
:10423000B1E08C918F5F8C9310F40C94F7208091F7
:104240004F01809394020C944E21083011F00C948D
:104250003221809183018093960184E080939402BF
:104260000C944E21093011F00C94472100918101EA
:1042700042E00E94DE29AFE4B1E00C9380914F014F
:104280008093960184E0809394020C944E2184E004
:1042900080939503809194038093960300919402F8
:1042A000003018F011F00C9457210C9459210E9401
:1042B000BC030E9496030895009195020F3E10F0F2
:1042C0000C94BA21009195020B3110F00C94AF219F
:1042D000EDEAF1E2EF93FF93E7E7F1E2A5E9B2E05F
:1042E0008C919927880F991FE80FF91F09940C9456
:1042F0008F160C94A2160C94A5160C94A8160C9468
:10430000AB160C94AE160C94B1160C94B4160C9417
:10431000B7160C94BA160C94BD160C94C0160C94D7
:10432000D8160C9436170C94D3170C94E2170C94EF
:10433000BA180C94D1180C94EB180C9408190C941E
:1043400025190C943F190C945B190C9478190C9452
:10435000041A0C94591A0C94B21A0C94B82180E0E7
:104360008093950380919403809396030E94960313
:104370000C94F0210091950240EF041BAEE4B1E0F3
:104380000C93E0EFF1E2EF93FF93E0EDF1E2AEE4A6
:10439000B1E08C919927880F991FE80FF91F0994B4
:1043A0000C94E61A0C94DF1A0C94DF1A0C94DF1AA2
:1043B0000C94DF1A0C94DF1A0C94DF1A0C94DF1A99
:1043C0000C94DF1A0C94DF1A0C94DF1A0C94DF1A89
:1043D0000C94321C0C94DD1D0C94EE1D0C941920D1
:1043E0000895303B6D3B444B3152493B64757374C7
:1043F0002073656E736F72207769746820726164D0
:10440000696F20696E746572666163653B56303111
:104410002E303B313B3233303B313B34303B312D5E
:104420003100313B616E2C6D61737320636F6E637D
:10443000656E74726174696F6E20312E30207567FD
:104440002F63626D3B773B3736332C737461727424
:104450002061742028302D373633293B3132342CFB
:10446000746F2073656E6420302061637475616CB5
:104470002076616C756500323B616E2C6D617373E3
:1044800020636F6E63656E74726174696F6E203243
:104490002E352075672F63626D3B773B3736332CA3
:1044A00073746172742061742028302D373633297B
:1044B0003B3132342C746F2073656E642030206180
:1044C000637475616C2076616C756500333B616E59
:1044D0002C6D61737320636F6E63656E74726174AB
:1044E000696F6E20342E302075672F63626D3B77C5
:1044F0003B3736332C73746172742061742028301A
:104500002D373633293B3132342C746F2073656E6E
:104510006420302061637475616C2076616C756510
:1045200000343B616E2C6D61737320636F6E636545
:104530006E74726174696F6E2031302075672F63FD
:10454000626D3B773B3736332C7374617274206134
:10455000742028302D373633293B3132342C746F98
:104560002073656E6420302061637475616C207601
:10457000616C756500353B616E2C6E756D626572A0
:1045800020636F6E63656E74726174696F6E203044
:104590002E35202F63626D3B773B3736332C737497
:1045A0006172742061742028302D373633293B31F5
:1045B00032342C746F2073656E6420302061637414
:1045C00075616C2076616C756500363B616E2C6E92
:1045D000756D62657220636F6E63656E747261746F
:1045E000696F6E20312E30202F63626D3B773B3731
:1045F00036332C73746172742061742028302D3727
:104600003633293B3132342C746F2073656E64204D
:10461000302061637475616C2076616C756500375C
:104620003B616E2C6E756D62657220636F6E6365A3
:104630006E74726174696F6E20322E35202F636242
:104640006D3B773B3736332C737461727420617421
:104650002028302D373633293B3132342C746F20EB
:1046600073656E6420302061637475616C207661BF
:104670006C756500383B616E2C6E756D62657220DD
:10468000636F6E63656E74726174696F6E20342E31
:1046900030202F63626D3B773B3736332C73746168
:1046A00072742061742028302D373633293B313223
:1046B000342C746F2073656E6420302061637475D0
:1046C000616C2076616C756500393B616E2C6E758E
:1046D0006D62657220636F6E63656E74726174697A
:1046E0006F6E203130202F63626D3B773B3736335E
:1046F0002C73746172742061742028302D37363326
:10470000293B3132342C746F2073656E6420302065
:1047100061637475616C2076616C75650031303B46
:10472000616E2C7479706963616C2073697A65209D
:10473000756D3B773B3736332C737461727420612F
:10474000742028302D373633293B3132342C746FA6
:104750002073656E6420302061637475616C20760F
:10476000616C75650031313B61612C6D656D6F72F7
:1047700079706F696E7465723B770031323B6F738D
:104780002C73746F702F7374617274206D65617314
:104790007572656D656E743B313B302C6F66663BA0
:1047A000312C6F6E0031333B6F732C6D6561737507
:1047B00072696E672074696D653B313B302C3373D1
:1047C0003B312C3130733B322C3330733B332C3143
:1047D0006D696E3B342C31306D696E3B352C333056
:1047E0006D696E3B362C36306D696E0031343B613D
:1047F000732C617331330031353B6F702C636C6502
:10480000616E696E6720696E74657276616C3B31AA
:104810003B3730303030303B6C696E3B73003136A3
:104820003B61702C617331350031373B6F752C73F0
:104830007461727420636C65616E696E673B313BB5
:10484000302C69646C653B312C7374617274003177
:10485000383B61612C70726F647563742074797079
:10486000653B33313B31342C434841505445522C45
:1048700041444D494E495354524154494F4E0031E1
:10488000393B61612C73657269616C206E756D6274
:1048900065723B33313B31342C43484150544552CF
:1048A0002C41444D494E495354524154494F4E00B6
:1048B00032303B61612C76657273696F6E3B3331C8
:1048C0003B31342C434841505445522C41444D49CE
:1048D0004E495354524154494F4E0032313B6F754B
:1048E0002C72657365743B313B302C69646C653B9D
:1048F000312C72657365740032323B61612C7374C4
:10490000617475732072656769737465723B3230C8
:104910003B31342C434841505445522C41444D497D
:104920004E495354524154494F4E0032333B6F70FD
:104930002C6672657175656E6379203433334D482A
:104940007A204C6F7261203B313B313730302C2C58
:104950007B315F343333303030746F34333437303D
:10496000307D3B6C696E3B6B487A0032343B617042
:104970002C617332330032353B6F702C6672657177
:1049800075656E63793B313B3132382C2C7B315F5E
:1049900032343030746F323532377D3B6C696E3B68
:1049A0004D487A0032363B61702C617332350032EB
:1049B00034303B616E2C414E4E4F554E43454D4574
:1049C0004E54533B3134353B34302C737461727424
:1049D0002061743B34302C656C656D656E74733B7F
:1049E00031342C434841505445522C41444D494E9A
:1049F000495354524154494F4E003235323B616164
:104A00002C4C415354204552524F523B36302C6C63
:104A10006173745F6572726F72003235333B61612E
:104A20002C4D594320494E464F3B622C414354493B
:104A30005645003235343B6F612C494E4449564946
:104A40004455414C495A4154494F4E3B32302C4E0B
:104A5000414D452C44657669636520313B622C4E9F
:104A6000554D4245522C313B612C52533233322C3E
:104A7000313B612C5553422C313B622C726164698D
:104A80006F747970652C312C7B6E6F2C4C6F72615A
:104A90002C776C616E2C525946413638392C6E7227
:104AA0006632352C626C7565746F6F74687D3B344B
:104AB0002C726164696F6E616D652C7261646978D6
:104AC0003B612C49324361637469762C312C343B51
:104AD000622C493263616464726573732C32383BB3
:104AE00031342C434841505445522C41444D494E99
:104AF000495354524154494F4E003235353B616160
:104B00002C494E444956494455414C495A4154490F
:104B10004F4E3B32302C4E414D452C4465766963F7
:104B20006520313B622C4E554D4245522C313B6144
:104B30002C52533233322C313B622C424155445279
:104B40004154452C302C7B31393230307D3B332C75
:104B50004E554D4245525F4F465F424954532C38A3
:104B60006E313B612C5553422C313B622C72616497
:104B7000696F747970652C312C7B6E6F2C4C6F7261
:104B8000612C776C616E2C525946413638392C6E47
:104B9000726632352C626C7565746F6F74687D3B1C
:104BA000352C726164696F6E616D652C7261646928
:104BB000783B612C49324361637469762C313B62E6
:104BC0002C493263616464726573732C32383B31F3
:104BD000342C434841505445522C41444D494E4990
:104BE0005354524154494F4E004C3B6F72696769B0
:104BF0006E616C3B656E676C6973683B6465757468
:104C0000736368004C3B647573742073656E736FD7
:104C1000723B647573742073656E736F723B466587
:104C2000696E737461756273656E736F723B6D61EB
:104C3000737320636F6E63656E74726174696F6EF7
:104C400020312E303B6D61737320636F6E63656E30
:104C500074726174696F6E20312E303B4D617373D5
:104C600065204B6F6E7A656E74726174696F6E2029
:104C7000312E303B6D61737320636F6E63656E74AC
:104C8000726174696F6E20322E353B6D61737320D3
:104C9000636F6E63656E74726174696F6E20322E1D
:104CA000353B4D61737365204B6F6E7A656E747220
:104CB0006174696F6E20322E353B004C3B6D617321
:104CC0007320636F6E63656E74726174696F6E20BA
:104CD000342E303B6D61737320636F6E63656E7449
:104CE000726174696F6E20342E303B4D6173736551
:104CF000204B6F6E7A656E74726174696F6E2034CA
:104D00002E303B6D61737320636F6E63656E7472DA
:104D10006174696F6E2031303B6D61737320636F16
:104D20006E63656E74726174696F6E2031303B4DD5
:104D300061737365204B6F6E7A656E74726174690E
:104D40006F6E2031303B004C3B6E756D626572209A
:104D5000636F6E63656E74726174696F6E20302E5E
:104D6000353B6E756D62657220636F6E63656E7440
:104D7000726174696F6E20302E353B5465696C63C7
:104D800068656E7A61686C20302E353B6E756D6299
:104D9000657220636F6E63656E74726174696F6EA5
:104DA00020312E303B6E756D62657220636F6E63CD
:104DB000656E74726174696F6E20312E303B54657C
:104DC000696C6368656E7A61686C20312E303B00D7
:104DD0004C3B6E756D62657220636F6E63656E74B9
:104DE000726174696F6E20322E353B6E756D62652F
:104DF0007220636F6E63656E74726174696F6E208A
:104E0000322E353B5465696C6368656E7A61686CF7
:104E100020322E353B6E756D62657220636F6E6356
:104E2000656E74726174696F6E20342E303B6E75DE
:104E30006D62657220636F6E63656E747261746912
:104E40006F6E20342E303B5465696C6368656E7AF2
:104E500061686C20342E303B004C3B6E756D626592
:104E60007220636F6E63656E74726174696F6E2019
:104E700031303B6E756D62657220636F6E63656E77
:104E800074726174696F6E2031303B5465696C6374
:104E900068656E7A61686C2031303B747970696343
:104EA000616C2073697A653B7479706963616C2009
:104EB00073697A653B7479706973636865204772BA
:104EC0006F657373653B6D656D6F7279706F696E39
:104ED0007465723B6D656D6F7279706F696E746524
:104EE000723B53706569636865727A65696765725C
:104EF0003B004C3B73746F702F7374617274206D40
:104F00006561737572656D656E743B73746F702F38
:104F10007374617274206D6561737572656D656E11
:104F2000743B4D657373756E672073746F702F7368
:104F3000746172743B6D6561737572696E6720741C
:104F4000696D653B6D6561737572696E6720746923
:104F50006D653B4D6573737A6569743B636C656120
:104F60006E696E6720696E74657276616C3B636C06
:104F700065616E696E6720696E74657276616C3BFF
:104F80005265696E6967756E6773696E746572766E
:104F9000616C6C3B004C3B737461727420636C6594
:104FA000616E696E673B737461727420636C6561D6
:104FB0006E696E673B7374617274657420526569C3
:104FC0006E6967756E673B70726F64756374207489
:104FD0007970653B70726F64756374207479706565
:104FE0003B5479703B73657269616C206E756D62BC
:104FF00065723B73657269616C206E756D62657276
:105000003B53657269656E6E756D6D65723B766555
:105010007273696F6E3B76657273696F6E3B205673
:10502000657273696F6E3B000D911D912D913C91DE
:105030000F5F1F4F2F4F3F4F3C932E931E930E93A6
:105040000895ED91FC91EF5FFF4FFC93EE9308956F
:1050500005D00E94CB2800FC0CD008950024E894D1
:1050600057FF02C009D0689400F80BD010F8012453
:10507000089502D009D00895509540954F5F5F4F35
:105080000895E89417FF0895009510950F5F1F4F3E
:10509000689408950E94FE28802D11F00AD0FACF5E
:1050A00008958D9106D03A95E1F708958DE001D0ED
:1050B0008AE00090C00005FEFCCF8093C6000895F2
:1050C0000090C80007FEFCCF8091CE0008958D911E
:1050D00003D03A95E1F708950090C80005FEFCCF93
:1050E0008093CE00089588EE93E032D03197D9F7BF
:1050F00008953197F1F708950E9499288C910E94A4
:105100009B288D939A95D1F70E949A2808950E9422
:1051100099288D910E949B289A95D9F70E949A28E8
:105120000895279A26982E9A259A249A83E58CBD6D
:105130000895089508958EBD00904D0007FEFCCFA0
:105140008EB50895689462F80895E89462F8089519
:10515000EF93FF93EE27E82BE92B31F0E8E8F3E13A
:105160003197F1F70197D1F7FF91EF9108950191F0
:105170001191219130810895481A590A0895481AC9
:105180008827580A089599275A924A92480E591E1C
:105190000895015010400F92B801469F8001479F2B
:1051A000100D569F100D0F9008950F921F922F9281
:1051B000C801D901489F80014A9F90014B9F202C34
:1051C000499F100D211D321D5A9F202C589F100DF4
:1051D000211D321D599F200D311D689F200D311D4D
:1051E000699F300D789F300D2F901F900F9008957C
:1051F0000E94FE280D920020D9F70895D895319687
:1052000028F48F938BB783958BBF8F9100200895DF
:1052100091E005C092E003C094E001C098E0EEDFA9
:105220000D929A95E1F708950196019721F00E9459
:10523000FE28E9F7FACF08950F9200240BBE0F90D5
:1052400008950F9301E00BBF0F91889408950F9379
:105250000027F9CF0F9302E0F6CF040F151F261F8A
:10526000371F0895041B150B260B370B0895000FED
:10527000111F221F331F089500951095209530951A
:105280000F5F1F4F2F4F3F4F0895019110810FC0A7
:105290000E94B7280EC00E94B72810C0019110814B
:1052A00017FF05C03FEF2FEF04C000811127222711
:1052B000332737FF03C0E0DF8DE28D93CF92DF927B
:1052C000EF92AA24BB24CC24DD24EE2440E2EAE0C1
:1052D000FF2755E093E38081890F87FD9F7083FD51
:1052E000907F891B81935A95A9F7C1DFAA1CBB1C2B
:1052F000CC1CDD1CEE1C4A9551F7E894EFE0FF272B
:1053000082910BD0EB30E0F71EF068948A2D09D023
:105310004D93EF90DF90CF900895982F829501D014
:10532000892F8F70805D26F0803309F4089568948A
:105330008D93089594E081918D939A95E1F7089566
:1053400070E2803021F07D938A95E9F78C9308957F
:10535000F999FECFE1BDF2BD3196089591E001C00B
:1053600092E07B3751F47FB7F894F2DF8D9180BDE6
:10537000FA9AF99A9A95C9F77FBF77270895E8DFD7
:105380008D917B3729F480BDFA9AF99A8823B9F771
:105390007727089591E001C092E0DADFF89A80B5AE
:1053A0008D939A95D1F70895D3DFF89A80B58D93B0
:1053B000882319F09A95C1F79D930895FF93881B50
:1053C000F9E0001FFA9511F4FF910895881F841BDE
:1053D00018F4840F8894F5CF0894F3CF8FEF83955A
:1053E0009D919923E1F70895689401C0E894AF93E3
:1053F000BF938D9116F0919103C00E94FE28902DCD
:10540000891718F011F48823A1F7BF91AF9108957F
:10541000B7FE089590E8B91611F4D0FE08959FEFF5
:10542000D91AE90AF90A09F403950895D190E1908F
:10543000F1900191089521913191419151910895F7
:10544000DD92ED92FD920C930895502F2D2D3E2D5F
:105450004F2D612F0895EADF992711278F2D880F8F
:1054600080E8F82A802F881F08F41FEF41F08F573B
:10547000082F07FD04C0003240F08FEF01C08827DD
:10548000982FD82EE82EF82E09C08FE1801B082F08
:10549000F694E794D79497950A95D1F7112351F094
:1054A0009095D094E094F09481E0980F8827D81ECE
:1054B000E81EF81E0F2DFE2CED2CD92E0895652F19
:1054C00090E8440F551F5927990F47956078102F82
:1054D00090E8FF0C001F0927990FF7941078003807
:1054E0000895FF0C90E89027110F9795F794092FD6
:1054F00008951127BD2CDE2CEF2CF02E0EE1FF209D
:1055000039F4FE2CED2CDB2CBB240850C2F752C022
:1055100032F00A95BB0CDD1CEE1CFF1CF9CF78DFC6
:10552000E0CF2DEC3CEC4CEC5DE366270FC07EDF5A
:105530008CDFDD24EE2490E8F92E0FE307C07BDF3B
:1055400005C02227332740E251E46627552351F155
:10555000002381F1B4DF71F11627005850580894E8
:10556000050B18F407FD03C025C007FD23C04695B1
:1055700037952795F694E794D79425D0FF202AF005
:10558000DD0CEE1CFF1C015073F09D2D969548F02C
:10559000DD203AF4EE202AF491E0D90E9927E91E95
:1055A000F91E9FCF07C09FE7092FF92A9FEFD92E39
:1055B000E92E0895DD24EE24FF2400271127089505
:1055C0000FE79FEFF2CF9F929924AA24BB2488E192
:1055D000D216E306F40628F0D21AE30AF40A089475
:1055E00001C08894991CAA1CBB1CDD0CEE1CFF1C7E
:1055F0008A9571F7D92CEA2CFB2C9F9008955FDFD8
:10560000D9F05038C9F016270058952F90580894B3
:10561000091F12F418F40EC008F00EC00FD0FF20BE
:105620002AF0BB0CDD1CEE1CFF1C02C0039513F01E
:10563000EFDE57CF0C94D32A0C94DA2A9F92FF9274
:10564000EF928D2DFF24EE24DD24BB2493E0849F74
:105650001001829FB00CD11CE21CF31C839FD00C64
:10566000E11C2224F21C9A9531F0BD2CDE2CEF2C8B
:10567000FF248F91ECCF9F9008950E94FE28202D4B
:105680000E94FE28302D0E94FE28402D0E94FE28F8
:10569000502D08950024F44B00000049002474426A
:1056A00000007A44737461727400446576696365BE
:1056B000203100007261646978003A20636F6D6D7B
:1056C000616E64206E6F7420666F756E643A2000A0
:1056D0003A20493243206572726F723A20003A20B4
:1056E0007761746368646F672072657365743A20CC
:1056F00000003A20636F6D6D616E642077617463A2
:1057000068646F673A2000003A20706172616D65CD
:10571000746572206572726F723A20003A20747854
:105720002074696D6520746F6F206C6F6E673A200E
:1057300000003A206E6F742076616C696420617499
:1057400020746861742074696D653A2000003A2005
:105750006932635F627566666572206F7665726630
:105760006C6F773A20003A20493263206E6F7420C4
:10577000726561647920746F20726563656976650E
:105780003A2000003A2057726F6E6720646174619E
:10579000206C656E67746820746F6F206D75636828
:1057A00020202F206C6974746C65203A20003A2008
:1057B000556E6B6E6F776E20636F6D6D616E643AC0
:1057C00020003A20496C6C6567616C20636F6D6DD9
:1057D000616E6420706172616D65746572206F75B1
:1057E00074206F6620616C6C6F7765642072616EE7
:1057F00067653A2000003A20496E7465726E616CEC
:105800002066756E6374696F6E20617267756D6571
:105810006E74206F7574206F662072616E67653AD2
:1058200020003A20436F6D6D616E64206E6F7420AE
:10583000616C6C6F77656420696E20637572726548
:105840006E742073746174653A2000003A206E6FA4
:10585000206461746120617661696C61626C653A93
:1058600020003A206E6F206572726F723A2000003D
:105870003A206F74686572206572726F723A200008
:0858800044657669636531009F
:00000001FF
