:100000000C94460018950000189500001895000003
:10001000189500001895000018950000189500002C
:10002000189500001895000018950000189500001C
:100030001895000018950000189500000C94F30620
:1000400018950000189500001895000018950000FC
:100050000C940D04189500001895000018950000E8
:1000600018950000189500000C948E041895000057
:100070000C9476071895000018950000189500005C
:100080001895000018950000189500008FEF8DBF9F
:10009000C8EDE0EC4E2E80E48EBFD0E4F0E45F2E9D
:1000A000A89584B7082E882784BF88E19927809374
:1000B000600090936000EEEFFFE3A0E0B1E08827DE
:1000C0008D933197E9F780E48093C40080E08093BA
:1000D000C50088E18093C10080E08093CD008AE074
:1000E0008093CC0088E18093C9006624E0E0FF277C
:1000F0000081AAE4B1E00C93AAE4B1E00C9103FB07
:1001000016F00C948C0082E080939603809191030A
:10011000809397030C948F008FEF809396030E9437
:1001200010212298429A3F9A479A2198299A239817
:100130002B9A74B7777F74BF8FE197E0809360004C
:100140009093600078947091C10070687093C100C2
:100150007091BC0071607093BC008AE08093CC0009
:1001600080E08093CD007091C8007D7F7093C800BF
:1001700086E08093CA0088E18093C90080E0809384
:10018000800085E080938100789470916F007160A9
:1001900070936F007091C90070687093C90085E01A
:1001A000809381003F9A3E983D981A990C94DA000A
:1001B0000E94D801E1E0F0E0A0E1B0E00E940E2250
:1001C000053011F40C94E6000E94D8010E946402EC
:1001D00080916000886080936000A9E8B1E08C9114
:1001E0008F5F8C93009189010F3F11F00C94860171
:1001F000A8E8B1E08C918F5F8C93009188010A355B
:1002000011F00C942C0100919A03003018F011F0B9
:100210000C940C010C942A01AAE9B3E08C918F5F35
:100220008C9300919A030C3318F011F00C941A017E
:100230000C942A0181E08093900281E080939102E6
:1002400080E080939A0385E08093960380919103E8
:10025000809397030C948601043B11F00C945B018E
:1002600000916201013081E009F080E08F93A6E205
:10027000B0E00C9104FB81E00EF480E09F918923B3
:10028000882311F40C945601AAE8B1E08C918F5F99
:100290008C9300918A01053018F011F00C945201F2
:1002A0000C9454010E9476040C94590180E08093D0
:1002B0008A010C9486010F3F11F00C948601A8E985
:1002C000B3E00D911C91003050E0150718F011F0CB
:1002D0000C946C010C947001A8E9B3E00E94AA2070
:1002E000A8E9B3E00D911C910C3350E0150718F00C
:1002F00011F00C947D010C94860183E080939603A9
:1003000080919103809397030E94350300919D0390
:10031000013011F00C94940100919F03003011F012
:100320000C9494010E949E100E94C20800919203B6
:10033000003018F011F00C949F010C94D50180E06E
:100340008093920300919102013018F011F00C9407
:10035000AB010C94B70180E080938F0186E080931D
:10036000960380919103809397030C94D501A8E99B
:10037000B3E00D911C91003050E0150711F00C9482
:10038000C501A8E9B3E00E94AA2080918F01809363
:100390008E01009192020E3F11F00C94D3010E9445
:1003A000631A0C94D5010E94631AA8950C94E80076
:1003B000E1E0F0E00E94F220E7E1F0E0A0E1BB27FD
:1003C00081E08C937BE70E94EE21A42DB52DE6E31E
:1003D000F7E40E9471210E944E21E2E0F0E0D20198
:1003E0007BE70E940322E8E1F0E0A0E1BB2788E37D
:1003F0008C937BE70E94EE21E9E1F0E0A0E1BB27CE
:1004000081E08C937BE70E94EE21EAE1F0E0A0E13D
:10041000BB2781E08C937BE70E94EE21EBE1F0E0CB
:10042000A0E1BB2781E08C937BE70E94EE2181E075
:1004300080939E0381E080939B03ECE1F0E0A0E1D8
:10044000BB2780E08C937BE70E94EE21A42DB52D85
:10045000E0E4F7E40E9471210E944E21EDE1F0E01A
:10046000D2017BE70E940322E6E2F0E0A0E1BB2795
:1004700080E08C937BE70E94EE21E7E2F0E001E070
:1004800010E020E030E0A0E1BB2794E07BE70E9491
:10049000F12180E080939F03A42DB52DE0E4F7E4E3
:1004A0000E9471210E944E21EDE1F0E0D2017BE734
:1004B0000E940322E1E0F0E0A0E1BB2785E08C93FD
:1004C0007BE70E94EE21089581E080939C03E7E1A1
:1004D000F0E0A0E6B1E00E940E22E2E0F0E0ABE442
:1004E000B1E094E10E941822E8E1F0E0A1E6B1E079
:1004F0000E940E22E9E1F0E0A2E6B1E00E940E22A5
:10050000EAE1F0E0A4E6B1E00E940E22EBE1F0E0C7
:10051000A5E6B1E00E940E2280919E0380939D0388
:100520000E94580681E08093910380E080939703B6
:1005300080E080939001ECE1F0E0AFE9B3E00E944D
:100540000E22EDE1F0E0A0EAB3E094E00E94182270
:100550000E94350381E08093900281E080939102B4
:1005600080E080939A030E94760480E08093880163
:1005700080E08093890180E08093680100916801A8
:10058000003011F00C94CE0200E019EE24EA35E3BD
:10059000ABE1B4E00D931D932D933C931B990C9408
:1005A000D60280E080939B030C94D90281E0809373
:1005B0009B0380E08093AD0380E08093130480E090
:1005C0008093140480E08093150480E080931604E7
:1005D00080E080939F0380E08093170480E0809305
:1005E000190400E010E020E030E0A3E6B0E40D9351
:1005F0001D932D933C93E6E2F0E0AEE5B0E40E945B
:100600000E22E7E2F0E0AFE5B0E494E00E941122B0
:1006100070E076BD0E94D00780E080939D4080E02E
:1006200080939E408EE78093170180E080931801AD
:1006300080E08093190182E080931A0181E0809329
:100640001B0185E080931C0187EF80931D018EE7DD
:1006500080931E0188E0809367400E94B30C81E084
:100660008093A4400E94360F089580E080938E010D
:1006700080E080938F0181E08093900280E090E0A1
:10068000A8E9B3E08D939C93A1E9B3E08C918F5FCF
:100690008C934091970300919103041711F00C94EF
:1006A000570380E0809397038FEF8093960308951C
:1006B0008091910281508093910281E08093690141
:1006C0004091910200916901041718F011F00C9407
:1006D0009403A9E6B1E0AD90BB24A0E9B1E0AA0D76
:1006E000BB1D8C9180936A0100919C03003011F036
:1006F0000C94870300919B03013011F00C94850347
:1007000031E0AAE6B1E00E94D3200C948C0331E0E2
:10071000AAE6B1E00E94D320A9E6B1E08C918F5FF8
:100720008C9310F40C94600300919C03003011F042
:100730000C94A40300919B03003011F00C94A203CD
:100740000E94960F0C94BA0300919D03013011F0A2
:100750000C94BA0300919F03033010F00C94B4037F
:100760000E94960F0C94BA03033011F00C94BA0354
:100770000E94FB1181E08093900281E080939102BE
:1007800080E080939A030895E4EEF5E30E947121DE
:1007900080E090E00E945E21A2E9B2E00E944E213A
:1007A000A2E9B2E00E943222AAE6B1E08C9380E096
:1007B0008093910180916A018093920183E08093FC
:1007C000910281E08093690140916A010091690181
:1007D000041718F011F00C940C04A9E6B1E0AD90E8
:1007E000BB24A1E9B2E0AA0DBB1D8C91A1E9B2E046
:1007F000AD90BB24A0E9B1E0AA0DBB1D8C93A1E98B
:10080000B2E08C918F5F8C93A9E6B1E08C918F5F01
:100810008C9310F40C94E40308950F921F922F927E
:100820003F924F925F927F92AF92BF92CF92DF92B0
:10083000EF92FF920F931F932F933F934F935F93EA
:100840006F937F938F939F93AF93BF93CF93DF93D8
:10085000EF93FF938FB78F938BB78F9388278BBFBF
:10086000A8E6B1E08091C6008C930091630101304D
:1008700011F00C94540400918F010A3F10F00C9475
:100880004604AFE8B1E08C918F5F8C938091680152
:10089000AFE8B1E0AD90BB24A1E9B2E0AA0DBB1D69
:1008A0008C9381E0809392038F918BBF8F918FBF48
:1008B000FF91EF91DF91CF91BF91AF919F918F9178
:1008C0007F916F915F914F913F912F911F910F9168
:1008D000FF90EF90DF90CF90BF90AF907F905F90B0
:1008E0004F903F902F901F900F90189580E080932D
:1008F0008A0170E07093B90070E07093B90071E103
:100900007093B80070E87093BB00A1E6B1E08C91E1
:100910008093BA0075E47093BC0008950F921F9203
:100920002F923F924F925F927F92AF92BF920F931E
:100930001F932F933F934F935F936F937F938F9367
:100940009F93AF93BF93CF93DF93EF93FF938FB7B3
:100950008F938BB78F9388278BBF0091B9004CEF93
:100960000423A8E6B1E00C9300916801003611F071
:100970000C94BF0475EC7093BC000C941E060836F2
:1009800011F00C94C80475EC7093BC000C941E0616
:10099000003711F00C94D10475EC7093BC000C94EA
:1009A0001E06083711F00C94DA0475EC7093BC0045
:1009B0000C941E06003811F00C94FC0400918F0179
:1009C0000A3F10F00C94E904AFE8B1E08C918F5F1E
:1009D0008C93AFE8B1E0AD90BB24A1E9B2E0AA0DE1
:1009E000BB1D8091BB008C9381E08093920375ECDA
:1009F0007093BC000C941E06083811F00C941E0570
:100A000000918F010A3F10F00C940B05AFE8B1E0A4
:100A10008C918F5F8C93AFE8B1E0AD90BB24A1E9DE
:100A2000B2E0AA0DBB1D8091BB008C9381E0809346
:100A3000920375EC7093BC000C941E06003911F003
:100A40000C94400500918F010A3F10F00C942D0585
:100A5000AFE8B1E08C918F5F8C93AFE8B1E0AD90DF
:100A6000BB24A1E9B2E0AA0DBB1D8091BB008C9311
:100A700081E08093920375EC7093BC000C941E0689
:100A8000083911F00C94620500918F010A3F10F0B3
:100A90000C944F05AFE8B1E08C918F5F8C93AFE879
:100AA000B1E0AD90BB24A1E9B2E0AA0DBB1D8091DD
:100AB000BB008C9381E08093920375EC7093BC0033
:100AC0000C941E06003A11F00C946B0575EC7093B3
:100AD000BC000C941E06083A11F00C949E0540913F
:100AE000910200919002041781E008F080E08F935A
:100AF00000916201013081E009F080E09F9189233B
:100B0000882311F40C949605A0E9B2E0AD90BB24C3
:100B1000A0E9B1E0AA0DBB1D8C918093BB00A0E9B8
:100B2000B2E08C918F5F8C930C94990570E8709370
:100B3000BB0075EC7093BC000C941E06003B11F0DA
:100B40000C94D1054091910200919002041781E02C
:100B500008F080E08F9300916201013081E009F09C
:100B600080E09F918923882311F40C94C905A0E9A2
:100B7000B2E0AD90BB24A0E9B1E0AA0DBB1D8C9101
:100B80008093BB00A0E9B2E08C918F5F8C930C94B2
:100B9000CC0570E87093BB0075EC7093BC000C94AE
:100BA0001E06083B11F00C9404064091910200913E
:100BB0009002041781E008F080E08F9300916201B9
:100BC000013081E009F080E09F918923882311F4AE
:100BD0000C94FC05A0E9B2E0AD90BB24A0E9B1E023
:100BE000AA0DBB1D8C918093BB00A0E9B2E08C9153
:100BF0008F5F8C930C94FF0570E87093BB0075ECCD
:100C00007093BC000C941E06003C11F00C9410066E
:100C100070E87093BB0075EC7093BC000C941E06DA
:100C2000083C11F00C941C0670E87093BB0075EC46
:100C30007093BC000C941E060E94760440919102B1
:100C400000919002041710F40C943A0681E080930E
:100C5000900281E08093910280E080939A0300915A
:100C60008D01003018F011F00C9438060C943A06FF
:100C70000E94C4038F918BBF8F918FBFFF91EF9123
:100C8000DF91CF91BF91AF919F918F917F916F91A4
:100C90005F914F913F912F911F910F91BF90AF9016
:100CA0007F905F904F903F902F901F900F901895DE
:100CB00080E08093630100916401013081E009F0DC
:100CC00080E08F9300916501013081E009F080E0C0
:100CD0009F91892B882311F40C94710681E08093F5
:100CE000630100916201013081E009F080E08F939F
:100CF00000916301013081E009F080E09F91892B30
:100D0000882311F40C94840600919D03013011F0A6
:100D10000C948A06089581E08093680180E08093B6
:100D2000690100916801003011F00C94A206009155
:100D30009B03003011F00C94A00681E080936901C0
:100D40000C94AB0600919D03013011F00C94AB069E
:100D500081E08093690100916901013011F00C94E8
:100D6000C1060091A503003011F00C94BB060E944F
:100D70006B110C94C106033011F00C94C1060E9453
:100D80000912089591E0A7EAB3E00E94062190912C
:100D9000AD03AEEAB3E00E94FB20089591E0A7EA1C
:100DA000B3E00E940621089592E0A7EAB3E00E9412
:100DB0000621089594E0A7EAB3E00E940621089571
:100DC0009091AD03A1E9B1E00E940621089591E060
:100DD000A7EAB3E00E94062190911404AEEAB3E0C2
:100DE0000E94FB2008950F921F922F923F924F92E4
:100DF0005F927F92AF92BF920F931F932F933F9377
:100E00004F935F936F937F938F939F93AF93BF9312
:100E1000CF93DF93EF93FF938FB78F938BB78F931E
:100E200088278BBFAFE5B0E44D915D916D917C91CA
:100E3000A3E6B0E40D911D912D913C910417150787
:100E40002607370710F40C944E070091A6030130D3
:100E500011F00C9442078EE78093170180E0809395
:100E6000180183E08093190180E080931A018CEFD0
:100E700080931B018EE780931C0186E0809367407E
:100E80000E94B30C00E010E020E030E0A3E6B0E404
:100E90000D931D932D933C930C945207A3E6B0E45D
:100EA0000E949D2080E090E09093850080938400D4
:100EB0008F918BBF8F918FBFFF91EF91DF91CF917A
:100EC000BF91AF919F918F917F916F915F914F9162
:100ED0003F912F911F910F91BF90AF907F905F90A6
:100EE0004F903F902F901F900F9018950F921F9248
:100EF0002F923F924F925F927F92AF92BF92CF928A
:100F0000DF92EF92FF920F931F932F933F934F9394
:100F10005F936F937F938F939F93AF93BF93CF9381
:100F2000DF93EF93FF938FB78F938BB78F938827C0
:100F30008BBF0E94DF20A8E6B1E08C93809168010E
:100F4000AFE1B4E0AD90BB24A7E6B0E4AA0DBB1DB1
:100F50008C93AFE1B4E08C918F5F8C938F918BBFBA
:100F60008F918FBFFF91EF91DF91CF91BF91AF91A3
:100F70009F918F917F916F915F914F913F912F91B1
:100F80001F910F91FF90EF90DF90CF90BF90AF90A7
:100F90007F905F904F903F902F901F900F901895EB
:100FA00081E090E0ABE9B0E48D939C93ABE9B0E4D1
:100FB0000D911C91023053E0150718F011F00C94BC
:100FC000740880E090E0ABE9B0E4AD90BD90A0E2A1
:100FD000B4E0AA0CBB1CAA0DBB1D8D939C9380E0B2
:100FE00090E0ABE9B0E4AD90BD90A4E2BAE0AA0C09
:100FF000BB1CAA0DBB1D8D939C9380E090E0ABE9D8
:10100000B0E4AD90BD90A8E2B0E1AA0CBB1CAA0D63
:10101000BB1D8D939C9380E090E0ABE9B0E4AD9074
:10102000BD90ACE2B6E1AA0CBB1CAA0DBB1D8D9312
:101030009C9380E090E0ABE9B0E4AD90BD90A0E37C
:10104000BCE1AA0CBB1CAA0DBB1D8D939C9380E038
:1010500090E0ABE9B0E4AD90BD90A4E3B2E2AA0C9D
:10106000BB1CAA0DBB1D8D939C9380E090E0ABE967
:10107000B0E4AD90BD90A8E3B8E2AA0CBB1CAA0DE9
:10108000BB1D8D939C9380E090E0ABE9B0E4AD9004
:10109000BD90ACE3BEE2AA0CBB1CAA0DBB1D8D9398
:1010A0009C9380E090E0ABE9B0E4AD90BD90A0E40B
:1010B000B4E3AA0CBB1CAA0DBB1D8D939C9380E0CE
:1010C00090E0ABE9B0E4AD90BD90A4E4BAE3AA0C23
:1010D000BB1CAA0DBB1D8D939C93ABE9B0E40E9491
:1010E000AA2010F40C94D60780E090E0ABE9B0E4BD
:1010F000AD90BD90A0E2B4E0AA0CBB1CAA0DBB1D34
:101100008D939C9380E090E0ACE4B0E48D939C934D
:1011100080E090E0AEE4B0E48D939C9380E090E0BA
:10112000A0E5B0E48D939C9380E090E0A2E5B0E46C
:101130008D939C9380E090E0A4E5B0E48D939C9324
:1011400080E090E0A6E5B0E48D939C9380E090E091
:10115000A8E5B0E48D939C9380E090E0AAE5B0E42C
:101160008D939C9380E090E0ACE5B0E48D939C93EC
:1011700081E090E0ABE9B0E48D939C9381E08093B3
:101180001F04089500911F04013018F011F00C9411
:10119000CB080C94900900911F04023381E008F4FD
:1011A00080E08F93009168400E3781E009F480E081
:1011B0009F91892B882311F40C94E30881E080939C
:1011C0001F040C94900900911F04053018F011F0D1
:1011D0000C94EC080C94900900911F0441E0041B4E
:1011E000A8E6B1E00C93A8E6B1E0AD90BB24A7E679
:1011F000B0E4AA0DBB1D0C910E3711F00C949009B0
:1012000000911F04053018F011F00C9409090C949A
:10121000860900916B40003011F00C944509009153
:101220006C40003011F40C94430980916A40809323
:10123000A5400E94840B0091A540033011F00C944E
:1012400025090E9491090C944309003811F00C946F
:101250002D090E94E90A0C944309003D11F00C94F9
:1012600035090E94210B0C944309013D11F00C94A7
:101270003D090E94210B0C944309023D11F00C948E
:1012800043090E94210B0C948409013011F00C9445
:10129000520989E08093960380919103809397038C
:1012A0000C948409023011F00C945F098AE0809359
:1012B000960380919103809397030C9484090430E2
:1012C00011F00C946C098BE080939603809191034C
:1012D000809397030C948409083211F00C947909D7
:1012E0008CE08093960380919103809397030C94F4
:1012F0008409033411F00C9484098DE080939603E3
:1013000080919103809397030C948D0989E08093D9
:101310009603809191038093970381E080931F044B
:1013200008958091694080936F0180916A40809315
:101330006E01AEE6B1E08D919C91ABE9B0E4AD9069
:10134000BD90A0E2B4E0AA0CBB1CAA0DBB1D8D93FE
:101350009C93AEE6B1E08D919C91AAE4B0E48D93AC
:101360009C9380916B4080936F0180916C4080933F
:101370006E01AEE6B1E08D919C91ABE9B0E4AD9029
:10138000BD90A4E2BAE0AA0CBB1CAA0DBB1D8D93B4
:101390009C93AEE6B1E08D919C91ACE4B0E48D936A
:1013A0009C9380916D4080936F0180916E408093FB
:1013B0006E01AEE6B1E08D919C91ABE9B0E4AD90E9
:1013C000BD90A8E2B0E1AA0CBB1CAA0DBB1D8D9379
:1013D0009C93AEE6B1E08D919C91AEE4B0E48D9328
:1013E0009C9380916F4080936F01809170408093B7
:1013F0006E01AEE6B1E08D919C91ABE9B0E4AD90A9
:10140000BD90ACE2B6E1AA0CBB1CAA0DBB1D8D932E
:101410009C93AEE6B1E08D919C91A0E5B0E48D93F4
:101420009C938091714080936F0180917240809372
:101430006E01AEE6B1E08D919C91ABE9B0E4AD9068
:10144000BD90A0E3BCE1AA0CBB1CAA0DBB1D8D93F3
:101450009C93AEE6B1E08D919C91A2E5B0E48D93B2
:101460009C938091734080936F018091744080932E
:101470006E01AEE6B1E08D919C91ABE9B0E4AD9028
:10148000BD90A4E3B2E2AA0CBB1CAA0DBB1D8D93B8
:101490009C93AEE6B1E08D919C91A4E5B0E48D9370
:1014A0009C938091754080936F01809176408093EA
:1014B0006E01AEE6B1E08D919C91ABE9B0E4AD90E8
:1014C000BD90A8E3B8E2AA0CBB1CAA0DBB1D8D936E
:1014D0009C93AEE6B1E08D919C91A6E5B0E48D932E
:1014E0009C938091774080936F01809178408093A6
:1014F0006E01AEE6B1E08D919C91ABE9B0E4AD90A8
:10150000BD90ACE3BEE2AA0CBB1CAA0DBB1D8D9323
:101510009C93AEE6B1E08D919C91A8E5B0E48D93EB
:101520009C938091794080936F0180917A40809361
:101530006E01AEE6B1E08D919C91ABE9B0E4AD9067
:10154000BD90A0E4B4E3AA0CBB1CAA0DBB1D8D93F7
:101550009C93AEE6B1E08D919C91AAE5B0E48D93A9
:101560009C9380917B4080936F0180917C4080931D
:101570006E01AEE6B1E08D919C91ABE9B0E4AD9027
:10158000BD90A4E4BAE3AA0CBB1CAA0DBB1D8D93AD
:101590009C93AEE6B1E08D919C91ACE5B0E48D9367
:1015A0009C93ABE9B0E40E94AA20ABE9B0E40D91B2
:1015B0001C91023053E0150718F011F00C94E20A68
:1015C0000C94E80A81E090E0ABE9B0E48D939C9341
:1015D00008950091A440013011F00C940C0B8091FF
:1015E00069408093A04080916A408093A14080919F
:1015F0006B408093A24080916C408093A340EBE2CB
:10160000F0E0A0EAB0E494E07BE70E94F12180E002
:101610008093A4400C94200B8AE1809391018091E7
:101620006A408093920180916B40809393018091F6
:101630006C408093940185E0809391020E9458034E
:10164000089580919202809391010091684041E059
:10165000041BA2E9B1E00C9383E08093690182E06E
:1016600080936A0181E00E943E210091684041E040
:10167000041BA881B9810C9381E080936801A88143
:10168000B9814C9100916801041718F011F00C9485
:10169000780BAAE6B1E0AD90BB24A7E6B0E4AA0DB2
:1016A000BB1D8C9180936B01AAE6B1E0AD90BB2489
:1016B000A7E6B0E4AA0DBB1D8C91A9E6B1E0AD9000
:1016C000BB24A0E9B1E0AA0DBB1D8C93A9E6B1E053
:1016D0008C918F5F8C93AAE6B1E08C918F5F8C9395
:1016E000A8E6B1E08C918F5F8C9310F40C943F0BC3
:1016F00081E0481A80E0580A22968091690180931F
:1017000091020E945803089581E08093690180E06E
:1017100080939D4081E00E943E2100911F0442E0A1
:10172000041BA881B9810C9385E080936801A8818E
:10173000B9814C9100916801041718F011F00C94D4
:10174000240CA8E6B1E0AD90BB24A7E6B0E4AA0D56
:10175000BB1D0C910D3711F00C94B30B81E08093FD
:101760009D400C941C0C00919D40013011F00C9494
:10177000050CA8E6B1E0AD90BB24A7E6B0E4AA0D45
:10178000BB1D0C910E3511F00C94D20B8FE7A9E61E
:10179000B1E0AD90BB24A7E6B0E4AA0DBB1D8C93CD
:1017A0000C94000C0D3511F00C94E20B8DE7A9E6BA
:1017B000B1E0AD90BB24A7E6B0E4AA0DBB1D8C93AD
:1017C0000C94000C013311F00C94F20B81E1A9E6AA
:1017D000B1E0AD90BB24A7E6B0E4AA0DBB1D8C938D
:1017E0000C94000C033311F00C94000C83E1A9E677
:1017F000B1E0AD90BB24A7E6B0E4AA0DBB1D8C936D
:1018000080E080939D400C94170CA8E6B1E0AD9069
:10181000BB24A7E6B0E4AA0DBB1D8C91A9E6B1E0FC
:10182000AD90BB24A7E6B0E4AA0DBB1D8C93A9E63E
:10183000B1E08C918F5F8C93A8E6B1E08C918F5FC3
:101840008C9310F40C94970B81E0481A80E0580AAE
:1018500022960895AFE9B0E4AD90BB24A6E1B1E0D3
:10186000AA0DBB1D0C910E3711F00C94520C8DE794
:10187000AFE9B0E4AD90BB24A6E1B1E0AA0DBB1D79
:101880008C93AFE9B0E48C918F5F8C938EE5AFE9D8
:10189000B0E4AD90BB24A6E1B1E0AA0DBB1D8C93D2
:1018A0000C94AD0C0D3711F00C94710C8DE7AFE971
:1018B000B0E4AD90BB24A6E1B1E0AA0DBB1D8C93B2
:1018C000AFE9B0E48C918F5F8C938DE5AFE9B0E424
:1018D000AD90BB24A6E1B1E0AA0DBB1D8C930C9486
:1018E000AD0C013111F00C94900C8DE7AFE9B0E430
:1018F000AD90BB24A6E1B1E0AA0DBB1D8C93AFE96E
:10190000B0E48C918F5F8C9381E3AFE9B0E4AD904C
:10191000BB24A6E1B1E0AA0DBB1D8C930C94AD0CC9
:10192000033111F00C94AD0C8DE7AFE9B0E4AD904C
:10193000BB24A6E1B1E0AA0DBB1D8C93AFE9B0E4D6
:101940008C918F5F8C9383E3AFE9B0E4AD90BB24BF
:10195000A6E1B1E0AA0DBB1D8C93AFE9B0E48C9178
:101960008F5F8C93089581E0809368014091674078
:1019700000916801041718F011F00C94D70CA8E638
:10198000B1E0AD90BB24A6E1B1E0AA0DBB1D8C91E6
:101990008093690131E0A9E6B1E00E94E620A8E663
:1019A000B1E08C918F5F8C9310F40C94B60C0E9474
:1019B0003503089500918E01043010F40C94770ED5
:1019C00000919502003011F00C94EA0C0E94780E00
:1019D0000C94750EA3E9B2E00D91112740E051E09F
:1019E0000E944421AEE6B1E00D931C93AEE6B1E057
:1019F0008C9180FB882780F9082F8827182FA4E96D
:101A0000B2E04D915527040F151FAEE6B1E00D93DE
:101A10001C938091950280936801AEE6B1E00D9130
:101A20001C91023053E0150781E008F080E08F93AD
:101A3000009168010F3781E008F080E09F918923D1
:101A4000882311F40C946E0E81E080939A038091A8
:101A500092028093910180919302809392018091F0
:101A6000940280939301809195028093940185E084
:101A70008093910281E08093690140916801009117
:101A80006901041718F011F00C94610E0091920294
:101A9000013011F00C945E0DAEE6B1E0AD90BD905A
:101AA000A0E2B4E0AA0CBB1CAA0DBB1D8D919C91B9
:101AB000A2E7B1E08D939C930C94220E023011F0BA
:101AC0000C94740DAEE6B1E0AD90BD90A4E2BAE026
:101AD000AA0CBB1CAA0DBB1D8D919C91A2E7B1E085
:101AE0008D939C930C94220E033011F00C948A0D6C
:101AF000AEE6B1E0AD90BD90A8E2B0E1AA0CBB1C8F
:101B0000AA0DBB1D8D919C91A2E7B1E08D939C9392
:101B10000C94220E043011F00C94A00DAEE6B1E04E
:101B2000AD90BD90ACE2B6E1AA0CBB1CAA0DBB1DEA
:101B30008D919C91A2E7B1E08D939C930C94220E21
:101B4000053011F00C94B60DAEE6B1E0AD90BD904D
:101B5000A0E3BCE1AA0CBB1CAA0DBB1D8D919C91FE
:101B6000A2E7B1E08D939C930C94220E063011F005
:101B70000C94CC0DAEE6B1E0AD90BD90A4E3B2E222
:101B8000AA0CBB1CAA0DBB1D8D919C91A2E7B1E0D4
:101B90008D939C930C94220E073011F00C94E20D5F
:101BA000AEE6B1E0AD90BD90A8E3B8E2AA0CBB1CD4
:101BB000AA0DBB1D8D919C91A2E7B1E08D939C93E2
:101BC0000C94220E083011F00C94F80DAEE6B1E042
:101BD000AD90BD90ACE3BEE2AA0CBB1CAA0DBB1D30
:101BE0008D919C91A2E7B1E08D939C930C94220E71
:101BF000093011F00C940E0EAEE6B1E0AD90BD9040
:101C0000A0E4B4E3AA0CBB1CAA0DBB1D8D919C9152
:101C1000A2E7B1E08D939C930C94220E0A3011F050
:101C20000C94220EAEE6B1E0AD90BD90A4E4BAE310
:101C3000AA0CBB1CAA0DBB1D8D919C91A2E7B1E023
:101C40008D939C93A2E7B1E011968C91A1E9B2E04B
:101C5000AD90BB24A0E9B1E0AA0DBB1D8C93A1E916
:101C6000B2E08C918F5F8C93A2E7B1E08C91A1E9F7
:101C7000B2E0AD90BB24A0E9B1E0AA0DBB1D8C93EE
:101C8000A1E9B2E08C918F5F8C93AEE6B1E00E9447
:101C9000AA20AEE6B1E00D911C91023053E0150789
:101CA00010F40C94590E80E090E0AEE6B1E08D9314
:101CB0009C93A9E6B1E08C918F5F8C9310F40C9407
:101CC0003D0D00919102013018F011F00C946A0E54
:101CD0000C946C0E0E9458030C94750E84E0809353
:101CE000960380919103809397030E943503089592
:101CF000809192028093910100919202013011F043
:101D00000C948C0EAAE4B0E48D919C91A2E7B1E012
:101D10008D939C930C94080F023011F00C949A0E42
:101D2000ACE4B0E48D919C91A2E7B1E08D939C93DB
:101D30000C94080F033011F00C94A80EAEE4B0E43C
:101D40008D919C91A2E7B1E08D939C930C94080F28
:101D5000043011F00C94B60EA0E5B0E48D919C9186
:101D6000A2E7B1E08D939C930C94080F053011F01D
:101D70000C94C40EA2E5B0E48D919C91A2E7B1E071
:101D80008D939C930C94080F063011F00C94D20E96
:101D9000A4E5B0E48D919C91A2E7B1E08D939C9372
:101DA0000C94080F073011F00C94E00EA6E5B0E497
:101DB0008D919C91A2E7B1E08D939C930C94080FB8
:101DC000083011F00C94EE0EA8E5B0E48D919C91D2
:101DD000A2E7B1E08D939C930C94080F093011F0A9
:101DE0000C94FC0EAAE5B0E48D919C91A2E7B1E0C1
:101DF0008D939C930C94080F0A3011F00C94080FEB
:101E0000ACE5B0E48D919C91A2E7B1E08D939C93F9
:101E1000ABE9B0E411968C91A2E9B1E08C93ABE907
:101E2000B0E48C91A3E9B1E08C9381E080939401BC
:101E3000A2E7B1E011968C91A5E9B1E08C93A2E7FD
:101E4000B1E08C91A6E9B1E08C9387E08093910298
:101E500000919102013018F011F00C94310F0C94A4
:101E6000330F0E9458030E94350308958EE7809334
:101E7000170180E08093180180E88093190181E0C8
:101E800080931A0180E080931B018DE780931C01F1
:101E90008EE580931D018EE780931E0188E080937C
:101EA00067400E94B30C84E080939E40089581E8CF
:101EB0008093A70380E88093A8030E94D406089526
:101EC00081E88093A70381E88093A8030E94D40649
:101ED000089581E88093A70383E88093A8030E9474
:101EE000D406089581E88093A70385E88093A8032A
:101EF0000E94D406089582E18093A7038FEF809318
:101F0000A8030E94D40608958DE08093A70380E083
:101F10008093A8030E94D40608958DE08093A703C0
:101F200080E88093A8030E94D40608950E94600F61
:101F30008DE88093A70380E88093A8030E94D406CD
:101F40000E94D40600919C03003011F00C94B10F54
:101F500000918F0141E0041BA8E1B4E00C930C94C4
:101F6000B80F0091900241E0041BA8E1B4E00C938B
:101F700081E08093690181E080931A04A0EAB3E0D4
:101F80000E943222A8E6B1E08C930091180440919F
:101F90006801040FADEAB3E00C938091AD03809328
:101FA000690100919C03003011F00C9404108091A1
:101FB000180480936A0140916A0101E0041718F047
:101FC00011F00C940210AAE6B1E0AD90BB24A1E997
:101FD000B2E0AA0DBB1D8C91A9E6B1E0AD90BB2487
:101FE000A0E9B1E0AA0DBB1D8C93809169018150DD
:101FF0008093690180916A01815080936A0110F099
:102000000C94DB0F0C942F108091180480936A01BC
:1020100040916A0101E0041718F011F00C942F10A0
:10202000AAE6B1E0AD90BB24A0E9B1E0AA0DBB1DCA
:102030008C91A9E6B1E0AD90BB24A0E9B1E0AA0D76
:10204000BB1D8C93809169018150809369018091BF
:102050006A01815080936A0110F00C94081081E0AD
:1020600080936A014091680100916A01041718F099
:1020700011F00C945510AAE6B1E0AD90BB24AFE985
:10208000B3E0AA0DBB1D8C91AAE6B1E0AD90BB24D4
:10209000A0E9B1E0AA0DBB1D8C93AAE6B1E08C913A
:1020A0008F5F8C9310F40C94321080E88093910130
:1020B0000091180440916801040FA2E9B1E00C936B
:1020C0000E94E00682EA8093A7038091180480931F
:1020D000A8030E94D4060E948D0F0E94690F8AEF08
:1020E00070E0A2E9B2E00E94E121089582E18093CC
:1020F000A7030E94C2068091AE0380936801A8E600
:10210000B1E08C9188708C9300916801083011F0D7
:102110000C949D1081E08093A70380E88093A8032E
:102120000E947B0F81E090E00E942A210E94600FB4
:102130000E94720F80E080931A04089582E18093D8
:10214000A70381E08093AD030E94C2060091AE0315
:1021500040E40423A8E6B1E00C9300916801003448
:1021600011F00C946A110091AE0340E30423A8E639
:10217000B1E00C9300916801003911F00C946011EA
:1021800083E18093A7030E94C2068091AE038093EF
:1021900014048DE88093A70380E08093A8030E9435
:1021A000D4060E94E70681E08093690181E0809374
:1021B000680100916801043018F011F00C940111CD
:1021C000A8E6B1E0AD90BB24ADEAB3E0AA0DBB1D1B
:1021D0004C91A8E6B1E0AD90BB24AFE9B3E0AA0D05
:1021E000BB1D0C91041711F00C94F91080E0809342
:1021F0006901A8E6B1E08C918F5F8C9310F40C9488
:10220000D9100091140444E0041BA9E6B1E00C933A
:1022100085E080936A0181E080938F0181E0809363
:1022200068014091690100916801041718F011F0EC
:102230000C94581100919C03013011F00C94391149
:10224000AAE6B1E0AD90BB24ADEAB3E0AA0DBB1D98
:102250008C91A8E6B1E0AD90BB24A1E9B2E0AA0D53
:10226000BB1D8C93AFE8B1E08C918F5F8C930C9485
:102270004B11AAE6B1E0AD90BB24ADEAB3E0AA0DE4
:10228000BB1D8C91A8E6B1E0AD90BB24A0E9B1E004
:10229000AA0DBB1D8C93AAE6B1E08C918F5F8C9345
:1022A000A8E6B1E08C918F5F8C9310F40C9411111F
:1022B00000919C03003011F00C9460110E945803AF
:1022C0000E947B0F8DE08093A70380E08093A8039A
:1022D0000E94D406089508950E94570F86E88093BF
:1022E000A70380911C048093A8030E94D40687E86A
:1022F0008093A70380911D048093A8030E94D406B5
:1023000088E88093A70380911E048093A8030E940D
:10231000D4060E94720F08950E94570F86E08093A2
:10232000A70383E08093AD030E94C206EEE2F7E4C8
:102330000E9471210E948A23EEEAF3E0D080EE240D
:10234000FF2400270E94C2220E94F522EDE0F0E067
:10235000A0E8B1E00E94DA21E2E3F7E40E947121F3
:102360000E948A23EFEAF3E0D080EE24FF240027C6
:102370000E94C2220E94F522EDE0F0E0A4E8B1E064
:102380000E94DA21E4E8F1E00E945F22E0E8F1E057
:102390000E945A220E943C23EDE0F0E0A0E8B1E068
:1023A0000E94DA21E0EBF3E0D080EE24FF24002746
:1023B0000E94C2220E946422E0E8F1E00E945A22B8
:1023C0000E943C23EDE0F0E0A0E8B1E00E94DA21B9
:1023D000E0E8F1E00E946A22ABE1B4E0EDE0FF2723
:1023E0000E94DA210E94720F089591E0AEEAB3E0F4
:1023F0000E94FB20089580EA8093A70384E08093E5
:10240000A8030E94D40681EE8093A7030E94CE0603
:102410000895089581E080939A0380E080938C0171
:1024200081E080938D0182E0809390010E94C4033B
:102430000E9458030E94350308950E94DA0C089503
:102440000E94DA0C08950E94DA0C08950E94DA0CBA
:1024500008950E94DA0C08950E94DA0C08950E94F3
:10246000DA0C08950E94DA0C08950E94DA0C08959F
:102470000E94DA0C08958BE080939101ABE9B0E4FF
:1024800011968C91A2E9B1E08C93ABE9B0E48C9108
:10249000A3E9B1E08C9384E0809391020E945803F9
:1024A0000E943503089500918E01023010F40C94BF
:1024B000B01200919402023010F00C94A7128EE733
:1024C0008093170180E080931801009193020130FE
:1024D00011F00C948F1280E08093190182E08093B8
:1024E0001A0181E080931B0185E080931C0187EF36
:1024F00080931D018EE780931E0188E080936740E2
:1025000000E010E020E030E0A3E6B0E40D931D937E
:102510002D933C9381E08093A6030C94A31281E059
:102520008093190180E080931A018EEF80931B0144
:102530008EE780931C0186E08093674080E0809363
:10254000A6030E94D0070E94B30C0C94B01284E042
:102550008093960380919103809397030E943503A3
:10256000089500918E01023010F40C944D130091E7
:102570009302073010F00C944413809193028093DF
:102580005E4000915E40003011F00C94D31201E0E7
:1025900010E020E030E0AFE5B0E40D931D932D9303
:1025A0003C930C943113013011F00C94E31203E0CE
:1025B00010E020E030E0AFE5B0E40D931D932D93E3
:1025C0003C930C943113023011F00C94F31209E097
:1025D00010E020E030E0AFE5B0E40D931D932D93C3
:1025E0003C930C943113033011F00C94031302E16B
:1025F00010E020E030E0AFE5B0E40D931D932D93A3
:102600003C930C943113043011F00C94131304EB2D
:1026100010E020E030E0AFE5B0E40D931D932D9382
:102620003C930C943113053011F00C9423130CE1FE
:1026300012E020E030E0AFE5B0E40D931D932D9360
:102640003C930C943113063011F00C94311308E3D1
:1026500014E020E030E0AFE5B0E40D931D932D933E
:102660003C93E6E2F0E0AEE5B0E47BE70E94EE21C9
:10267000E7E2F0E0AFE5B0E494E07BE70E94F1210F
:102680000E94D0070C944B1384E0809396038091B2
:102690009103809397030E94350308958EE0809301
:1026A000910180915E408093920183E0809391023A
:1026B0000E9458030E943503089500918E01043052
:1026C00010F40C94321480E080937701809193028F
:1026D0008093760180919402809375018091950298
:1026E0008093740141E65EEA6AE070E0A4E7B1E03D
:1026F0000D911D912D913C91041715072607370761
:1027000010F00C942B14A4E7B1E00D911D912D91C4
:102710003C91A0EAB0E40D931D932D933C938EE77A
:102720008093170180E08093180180E8809319015D
:1027300085E080931A0180E080931B0180E0809304
:102740001C0187E080939F4080919302AFE9B0E441
:10275000AD90BB24A6E1B1E0AA0DBB1D8C930E94F5
:102760002A0C80919402AFE9B0E4AD90BB24A6E1BD
:10277000B1E0AA0DBB1D8C930E942A0C809195029A
:10278000AFE9B0E4AD90BB24A6E1B1E0AA0DBB1D5A
:102790008C930E942A0C05E810E0A3E9B2E04D9169
:1027A0005527040F151FA0E2B4E00D931C93A0E27F
:1027B000B4E00D911C91A4E9B2E04D915527040FAE
:1027C000151FA0E2B4E00D931C93A0E2B4E00D91BC
:1027D0001C91A5E9B2E04D915527040F151FA0E209
:1027E000B4E00D931C93A0E2B4E00D911C91A6E916
:1027F000B2E04D915527040F151FA0E2B4E00D93F0
:102800001C93A0E2B4E08C91A8E6B1E08C930FEFAA
:1028100040916801041BAFE9B0E4AD90BB24A6E190
:10282000B1E0AA0DBB1D0C93AFE9B0E48C918F5FB2
:102830008C938EE7AFE9B0E4AD90BB24A6E1B1E0A4
:10284000AA0DBB1D8C9380919F40809367400E948E
:10285000B30C0C94321484E080939603809191031E
:102860008093970308958AE1809391018091A2401B
:10287000809392018091A140809393018091A04028
:102880008093940185E0809391020E9458030E94F6
:10289000350308958EE78093170180E08093180137
:1028A00086E58093190180E080931A0189EA80937C
:1028B0001B018EE780931C0186E0809367400E9495
:1028C000B30C08958EE78093170180E08093180180
:1028D00080ED8093190181E080931A0180E080935C
:1028E0001B018EE280931C018EE780931D0187E01F
:1028F000809367400E94B30C08958EE78093170180
:1029000080E08093180180ED8093190181E080932D
:102910001A0183E080931B018BE280931C018EE7F8
:1029200080931D0187E0809367400E94B30C089557
:102930008EE78093170180E08093180181ED8093EA
:10294000190180E080931A018EE280931B018EE7CB
:1029500080931C0186E0809367400E94B30C089529
:102960008EE78093170180E08093180183ED8093B8
:10297000190180E080931A018CE280931B018EE79D
:1029800080931C0186E0809367400E94B30C0E94F4
:10299000D00708958EE78093170180E08093180197
:1029A00082ED8093190181E080931A0180E0809389
:1029B0001B018CE280931C018EE780931D0187E050
:1029C000809367400E94B30C089580E080938F014C
:1029D00080E080938E01089500918E01033010F401
:1029E0000C9437168091930280938C01809194020D
:1029F00080938D0100918C01053381E008F080E027
:102A00008F9300918D01053381E008F080E09F9164
:102A10008923882311F40C942E1600918D01003027
:102A200018F011F00C9416150C942C1680E080937D
:102A3000670181E080939A0380EF809391018091F8
:102A40008C018093920180918D018093930184E0A9
:102A500080939102E4EEF5E30E947121ACE8B1E0CD
:102A60008C9199270E945E21A2E9B2E00E944E213A
:102A7000A2E9B2E00E943222AAE6B1E08C938091F2
:102A80006A01A1E9B2E0AD90BB24A0E9B1E0AA0DD2
:102A9000BB1D8C93A1E9B2E08C918F5F8C9381E098
:102AA0008093690140916A0100916901041718F04F
:102AB00011F00C947A15A9E6B1E0AD90BB24A1E920
:102AC000B2E0AA0DBB1D8C91A1E9B2E0AD90BB2490
:102AD000A0E9B1E0AA0DBB1D8C93A1E9B2E08C91F5
:102AE0008F5F8C93A9E6B1E08C918F5F8C9310F48B
:102AF0000C94521581E080936601ACE8B1E08C91B2
:102B00008F5F8C9380918D01815080938D01009116
:102B10008D01003018F011F00C9490150C942616CD
:102B200000918D01003080E010F009F081E08F937A
:102B300000916701003081E009F080E09F918923D6
:102B4000882311F40C942616E4EEF5E30E9471211B
:102B5000ACE8B1E08C9199270E945E21A2E9B2E035
:102B60000E944E21A2E9B2E00E943222AAE6B1E020
:102B70008C93A1E9B2E00D911127AAE6B1E04D9145
:102B80005527040F151FAEE6B1E00D931C93AEE67A
:102B9000B1E00E94AA20AEE6B1E00D911C910A3F7F
:102BA00050E0150710F00C94171680916A01A1E906
:102BB000B2E0AD90BB24A0E9B1E0AA0DBB1D8C939F
:102BC000A1E9B2E08C918F5F8C9381E080936901E1
:102BD00040916A0100916901041718F011F00C94FA
:102BE0001016A9E6B1E0AD90BB24A1E9B2E0AA0DB0
:102BF000BB1D8C91A1E9B2E0AD90BB24A0E9B1E08E
:102C0000AA0DBB1D8C93A1E9B2E08C918F5F8C93D0
:102C1000A9E6B1E08C918F5F8C9310F40C94E815C9
:102C2000A6E6B1E08C918F5F8C930C941A1681E02C
:102C30008093670180918D01815080938D01ACE874
:102C4000B1E08C918F5F8C930C949015809166010C
:102C5000809393010E9458030C94351684E080936E
:102C6000960380919103809397030E943503089502
:102C700081E080939A038EE170E0A1E9B1E00E94C7
:102C8000E1218CEF8093910183E080936801E1E979
:102C9000F3E0A7E1B1E00E949521A7E1B1E00E9435
:102CA0003222ABE6B1E08C9381E0809369014091E0
:102CB0006B0100916901041718F011F00C947F1654
:102CC000A9E6B1E0AD90BB24A6E1B1E0AA0DBB1D21
:102CD0008C91A8E6B1E0AD90BB24A0E9B1E0AA0DCB
:102CE000BB1D8C93A8E6B1E08C918F5F8C93A9E615
:102CF000B1E08C918F5F8C9310F40C945716009177
:102D00009603003011F00C948F16A7E1B1E0E6E4D1
:102D1000F7E40E9471210E944E210C946917013042
:102D200011F00C949D16A7E1B1E0ECE5F7E40E94E8
:102D300071210E944E210C946917023011F00C94FD
:102D4000AB16A7E1B1E0EAE6F7E40E9471210E9428
:102D50004E210C946917033011F00C94B916A7E1B9
:102D6000B1E0EEE7F7E40E9471210E944E210C943D
:102D70006917043011F00C94C716A7E1B1E0E4E93B
:102D8000F7E40E9471210E944E210C9469170530CE
:102D900011F00C94D516A7E1B1E0E8EAF7E40E943F
:102DA00071210E944E210C946917063011F00C9489
:102DB000E316A7E1B1E0EEEBF7E40E9471210E9477
:102DC0004E210C946917073011F00C94F116A7E10D
:102DD000B1E0EAEDF7E40E9471210E944E210C94CB
:102DE0006917083011F00C94FF16A7E1B1E0E2EF8B
:102DF000F7E40E9471210E944E210C94691709305A
:102E000011F00C940D17A7E1B1E0E0E1F8E40E94A5
:102E100071210E944E210C9469170A3011F00C9414
:102E20001B17A7E1B1E0EAE3F8E40E9471210E94D8
:102E30004E210C9469170B3011F00C942917A7E15F
:102E4000B1E0EEE4F8E40E9471210E944E210C945E
:102E500069170C3011F00C943717A7E1B1E0E2E8E4
:102E6000F8E40E9471210E944E210C9469170D30E4
:102E700011F00C944517A7E1B1E0EEEAF8E40E94E6
:102E800071210E944E210C9469170E3011F00C94A0
:102E90005317A7E1B1E0E8EDF8E40E9471210E9428
:102EA0004E210C9469170F3F11F00C946117A7E1A4
:102EB000B1E0EEEEF8E40E9471210E944E210C94E4
:102EC0006917A7E1B1E0ECEFF8E40E9471210E94DC
:102ED0004E21A7E1B1E00E943222ABE6B1E08C9333
:102EE00081E08093690140916B01009169010417B1
:102EF00018F011F00C949B17A9E6B1E0AD90BB243B
:102F0000A6E1B1E0AA0DBB1D8C91A8E6B1E0AD90A1
:102F1000BB24A0E9B1E0AA0DBB1D8C93A8E6B1E0EB
:102F20008C918F5F8C93A9E6B1E08C918F5F8C932D
:102F300010F40C947317E7E9F3E0A7E1B1E00E9405
:102F40009521A7E1B1E00E943222ABE6B1E08C937B
:102F500081E08093690140916B0100916901041740
:102F600018F011F00C94D317A9E6B1E0AD90BB2492
:102F7000A6E1B1E0AA0DBB1D8C91A8E6B1E0AD9031
:102F8000BB24A0E9B1E0AA0DBB1D8C93A8E6B1E07B
:102F90008C918F5F8C93A9E6B1E08C918F5F8C93BD
:102FA00010F40C94AB170091680143E0041BA2E9F4
:102FB000B1E00C9380916801809391020E945803C4
:102FC0000E943503089581E080939A038DEF8093EA
:102FD000910184E08093920183E0809391020E94AA
:102FE00058030E943503089500918E01023010F4B9
:102FF0000C94621900919302003011F00C94621845
:1030000000918E01033010F40C946018009194022A
:10301000003011F00C9410180E9435030C946018C5
:103020000091940243E0040FA8E6B1E00C934091B4
:10303000680100918E01041710F40C94601884E16B
:1030400070E0ABE4B1E00E94E1210091680107313A
:1030500018F011F00C942E180C94311887E180931D
:10306000680184E0809369014091680100916901E1
:10307000041718F011F00C945718A9E6B1E0AD90C0
:10308000BB24A1E9B2E0AA0DBB1D8C91A9E6B1E079
:10309000AD90BB24A7E4B1E0AA0DBB1D8C93A9E6BB
:1030A000B1E08C918F5F8C9310F40C943418E2E0B3
:1030B000F0E0ABE4B1E07BE70E9403220E9435031D
:1030C0000C946019013011F00C947B1800918E0162
:1030D000033010F40C94791880919402809360016D
:1030E000E7E1F0E0A0E6B1E07BE70E94EE210E947C
:1030F00035030C946019023011F00C94A71800915C
:103100008E01033010F40C94A518809194028093E2
:10311000690100916901023010F00C949C188091B3
:10312000690180936401EAE1F0E0A4E6B1E07BE7A5
:103130000E94EE210C94A31884E080939603809162
:103140009103809397030E9435030C946019033018
:1031500011F00C94D31800918E01033010F40C94EC
:10316000D118809194028093690100916901023025
:1031700010F00C94C8188091690180936501EBE10F
:10318000F0E0A5E6B1E07BE70E94EE210C94CF18B9
:1031900084E08093960380919103809397030E942B
:1031A00035030C946019043011F00C94FB18009155
:1031B0008E01033010F40C94F9180091940205303C
:1031C00010F00C94F0188091940280939F03ECE12E
:1031D000F0E0AFE9B3E07BE70E94EE210C94F71832
:1031E00084E08093960380919103809397030E94DB
:1031F00035030C946019053011F00C9423190091DB
:103200008E01033010F40C942119009194020230C5
:1032100010F00C9418198091940280936201E9E1F6
:10322000F0E0A2E6B1E07BE70E94EE210C941F19CA
:1032300084E08093960380919103809397030E948A
:1032400035030C946019063011F00C945719009155
:103250008E01033010F40C945519809194028093E0
:10326000690100916901003810F00C944C19A9E62D
:10327000B1E00C9142E0049F0C928091690180932F
:103280006101E8E1F0E0A1E6B1E07BE70E94EE2118
:103290000E9476040C94531984E0809396038091E5
:1032A0009103809397030E9435030C94601984E086
:1032B0008093960380919103809397030E94350336
:1032C0000E945806089500918E01023010F40C946B
:1032D000621A81E080939A038FEF8093910180912D
:1032E00093028093920180E0809391020091930277
:1032F000003011F00C94D41984E17FEFA1E0B1E02B
:103300000E94E121E1E0F1E0ABE4B1E00E943A2269
:1033100011F00C949A19ABE4B1E0ECE0F9E40E94EE
:1033200071210E944E21E2E0F0E0ABE4B1E07BE7E6
:103330000E940322ABE4B1E00E943222AAE6B1E08F
:103340008C9380916A018093930184E08093910231
:1033500081E08093690140916A010091690104173D
:1033600018F011F00C94D219A9E6B1E0AD90BB248D
:10337000AAE4B1E0AA0DBB1D8C91A1E9B2E0AD9029
:10338000BB24A0E9B1E0AA0DBB1D8C93A1E9B2E07A
:103390008C918F5F8C93A9E6B1E08C918F5F8C93B9
:1033A0000C94AB190C94551A013011F00C94E119DE
:1033B000809160018093930184E0809391020C944A
:1033C000551A023011F00C94EE198091640180932B
:1033D000930184E0809391020C94551A033011F00C
:1033E0000C94FA1980E08093930184E08093910219
:1033F0000C94551A063011F00C94121A83E0809345
:10340000930188E3A4E9B1E08C938EE4A5E9B1E0EF
:103410008C9381E3A6E9B1E08C9384E080939102E0
:103420000C94551A043011F00C941F1A8091650108
:103430008093930184E0809391020C94551A053097
:1034400011F00C942C1A80919F038093930184E0D7
:10345000809391020C94551A063011F00C94391A8D
:10346000809162018093930184E0809391020C9497
:10347000551A073011F00C944E1A0091610142E088
:103480000E942222A9E6B1E00C9380916901809309
:10349000930184E0809391020C94551A84E0809308
:1034A00096038091910380939703009191020030DD
:1034B00018F011F00C945E1A0C94601A0E945803D4
:1034C0000E9435030895009192020F3E10F00C9473
:1034D000B91A009192020C3210F00C94AE1AECEA78
:1034E000FAE1EF93FF93EEE7FAE1A2E9B2E08C9103
:1034F0009927880F991FE80FF91F09940C940A1255
:103500000C941D120C9420120C9423120C9426126D
:103510000C9429120C942C120C942F120C9432122D
:103520000C9435120C9438120C943B120C945312D8
:103530000C94B1120C944E130C945D130C94331430
:103540000C944A140C9462140C947D140C949814EA
:103550000C94B0140C94CA140C94B71A80E08093A5
:10356000960380919103809397030E9435030C94F6
:10357000EF1A0091920240EF041BA8E6B1E00C9311
:10358000EFEEFAE1EF93FF93EFECFAE1A8E6B1E09A
:103590008C919927880F991FE80FF91F09940C94B3
:1035A000EC140C94E5140C94E5140C94E5140C94B0
:1035B000E5140C94E5140C94E5140C94E5140C94A7
:1035C000E5140C94E5140C94E5140C94E5140C9497
:1035D00038160C94E3170C94F4170C94631908959F
:1035E000F894FFCF303B6D3B444B3152493B6475FF
:1035F00073742073656E736F7220776974682072BC
:103600006164696F20696E746572666163653B56BB
:1036100030312E303B313B3134353B313B33363B5F
:10362000312D3100313B616E2C6D61737320636FFE
:103630006E63656E74726174696F6E20312E302016
:1036400075672F63626D3B773B3730302C73746145
:1036500072742061742028302D373730293B313285
:10366000342C746F2073656E6420303A206163746B
:1036700075616C2076616C756500323B616E2C6DF6
:1036800061737320636F6E63656E74726174696FCA
:103690006E20322E352075672F63626D3B773B3786
:1036A00030302C73746172742061742028302D378F
:1036B0003730293B3132342C746F2073656E6420AF
:1036C000303A2061637475616C2076616C756500B9
:1036D000333B616E2C6D61737320636F6E63656E37
:1036E00074726174696F6E20342E302075672F6399
:1036F000626D3B773B3730302C737461727420619C
:10370000742028302D373730293B3132342C746FF8
:103710002073656E6420303A2061637475616C209B
:1037200076616C756500343B616E2C6D617373203E
:10373000636F6E63656E74726174696F6E20313091
:103740002075672F63626D3B773B3730302C737485
:103750006172742061742028302D373730293B3155
:1037600032342C746F2073656E6420303A206163AC
:103770007475616C2076616C756500353B616E2CEB
:103780006E756D62657220636F6E63656E747261D3
:1037900074696F6E20302E35202F63626D3B773B4E
:1037A0003730302C73746172742061742028302D8E
:1037B000373730293B3132342C746F2073656E6497
:1037C00020303A2061637475616C2076616C756598
:1037D00000363B616E2C6E756D62657220636F6E94
:1037E00063656E74726174696F6E20312E30202FA4
:1037F00063626D3B773B3730302C73746172742099
:1038000061742028302D373730293B3132342C7405
:103810006F2073656E6420303A2061637475616C4B
:103820002076616C756500373B616E2C6E756D623C
:10383000657220636F6E63656E74726174696F6E1A
:1038400020322E35202F63626D3B773B3730302C92
:1038500073746172742061742028302D37373029D9
:103860003B3132342C746F2073656E6420303A2003
:1038700061637475616C2076616C756500383B61BD
:103880006E2C6E756D62657220636F6E63656E740B
:10389000726174696F6E20342E30202F63626D3B2D
:1038A000773B3730302C7374617274206174202838
:1038B000302D373730293B3132342C746F2073650B
:1038C0006E6420303A2061637475616C2076616C9F
:1038D000756500393B616E2C6E756D626572206393
:1038E0006F6E63656E74726174696F6E2031302023
:1038F0002F63626D3B773B3730302C737461727489
:103900002061742028302D373730293B3132342C58
:10391000746F2073656E6420303A20616374756142
:103920006C2076616C75650031303B616E2C74796A
:10393000706963616C2073697A6520756D3B773BB4
:103940003730302C73746172742061742028302DEC
:10395000373730293B3132342C746F2073656E64F5
:1039600020303A2061637475616C2076616C7565F6
:103970000031313B61612C6D656D6F7279706F69DB
:103980006E7465723B770031323B6F732C73746FCA
:10399000702F7374617274206D6561737572656DDB
:1039A000656E743B313B302C6F66663B312C6F6E1D
:1039B0000031333B6F732C6D6561737572696E678F
:1039C0002074696D653B313B302C33733B312C31B6
:1039D00030733B322C3330733B332C316D696E3B8B
:1039E000342C31306D696E3B352C33306D696E3B54
:1039F000362C36306D696E0031343B61732C617347
:103A000031330031353B6F702C636C65616E696ECC
:103A10006720696E74657276616C3B313B3730307C
:103A20003030303B6C696E3B730031363B61702C3B
:103A3000617331350031373B6F752C73746172746B
:103A400020636C65616E696E673B313B302C696445
:103A50006C653B312C73746172740031383B616169
:103A60002C70726F6475637420747970653B3331A8
:103A70003B31342C434841505445522C41444D492C
:103A80004E495354524154494F4E0031393B6161C4
:103A90002C73657269616C206E756D6265723B3363
:103AA000313B31342C434841505445522C41444D14
:103AB000494E495354524154494F4E0032303B61B4
:103AC000612C76657273696F6E3B33313B31342CF8
:103AD000434841505445522C41444D494E4953545A
:103AE000524154494F4E0032313B6F752C72657311
:103AF00065743B313B302C69646C653B312C7265DD
:103B00007365740032323B61612C73746174757338
:103B10002072656769737465723B32303B31342CB7
:103B2000434841505445522C41444D494E49535409
:103B3000524154494F4E003234303B616E2C414E5D
:103B40004E4F554E43454D454E54533B3134353B16
:103B500033362C73746172742061743B33362C6578
:103B60006C656D656E74733B31342C434841505421
:103B700045522C41444D494E495354524154494FAA
:103B80004E003235323B61612C4C4153542045523A
:103B9000524F523B36302C6C6173745F6572726F9A
:103BA00072003235333B61612C4D594320494E46FA
:103BB0004F3B622C414354495645003235343B6FEC
:103BC000612C494E444956494455414C495A415447
:103BD000494F4E3B32302C4E414D452C4465766961
:103BE000636520313B622C4E554D4245522C313B92
:103BF000612C52533233322C313B612C5553422CC1
:103C0000313B612C776972656C6573732C303B6155
:103C10002C49324361637469762C313B622C493202
:103C200063616464726573732C32383B31342C43A6
:103C30004841505445522C41444D494E49535452E9
:103C40004154494F4E003235353B61612C494E4459
:103C50004956494455414C495A4154494F4E3B32CB
:103C6000302C4E414D452C44657669636520313BCF
:103C7000622C4E554D4245522C313B612C525332F1
:103C800033322C313B622C42415544524154452C35
:103C9000302C7B31393230307D3B332C4E554D4208
:103CA00045525F4F465F424954532C386E313B6159
:103CB0002C5553422C313B612C776972656C6573CE
:103CC000732C303B612C49324361637469762C312B
:103CD0003B622C493263616464726573732C3431C6
:103CE0003B31342C434841505445522C41444D49BA
:103CF0004E495354524154494F4E004C3B6F7269E8
:103D000067696E616C3B656E676C6973683B64657F
:103D10007574736368004C3B647573742073656ECF
:103D2000736F723B647573742073656E736F723B4F
:103D30004665696E737461756273656E736F723B0D
:103D40006D61737320636F6E63656E747261746905
:103D50006F6E20312E303B6D61737320636F6E6325
:103D6000656E74726174696F6E20312E303B4D61E7
:103D7000737365204B6F6E7A656E74726174696FD0
:103D80006E20312E303B6D61737320636F6E6365FF
:103D90006E74726174696F6E20322E353B6D617383
:103DA0007320636F6E63656E74726174696F6E20E9
:103DB000322E353B4D61737365204B6F6E7A656EA5
:103DC00074726174696F6E20322E353B004C3B6D0E
:103DD00061737320636F6E63656E74726174696F73
:103DE0006E20342E303B6D61737320636F6E63659C
:103DF0006E74726174696F6E20342E303B4D617346
:103E00007365204B6F6E7A656E74726174696F6E44
:103E100020342E303B6D61737320636F6E63656E6B
:103E200074726174696F6E2031303B6D6173732001
:103E3000636F6E63656E74726174696F6E2031308A
:103E40003B4D61737365204B6F6E7A656E74726162
:103E500074696F6E2031303B004C3B6E756D62654E
:103E60007220636F6E63656E74726174696F6E2029
:103E7000302E353B6E756D62657220636F6E6365C3
:103E80006E74726174696F6E20302E353B546569B3
:103E90006C6368656E7A61686C20302E353B6E7598
:103EA0006D62657220636F6E63656E7472617469B2
:103EB0006F6E20312E303B6E756D62657220636FC0
:103EC0006E63656E74726174696F6E20312E303B63
:103ED0005465696C6368656E7A61686C20312E3058
:103EE0003B004C3B6E756D62657220636F6E63655F
:103EF0006E74726174696F6E20322E353B6E756D13
:103F000062657220636F6E63656E74726174696F4F
:103F10006E20322E353B5465696C6368656E7A613C
:103F2000686C20322E353B6E756D62657220636F52
:103F30006E63656E74726174696F6E20342E303BEF
:103F40006E756D62657220636F6E63656E7472610B
:103F500074696F6E20342E303B5465696C636865FC
:103F60006E7A61686C20342E303B004C3B6E756D70
:103F700062657220636F6E63656E74726174696FDF
:103F80006E2031303B6E756D62657220636F6E63BB
:103F9000656E74726174696F6E2031303B5465696F
:103FA0006C6368656E7A61686C2031303B7479703F
:103FB0006963616C2073697A653B747970696361C8
:103FC0006C2073697A653B747970697363686520E6
:103FD00047726F657373653B6D656D6F7279706F56
:103FE000696E7465723B6D656D6F7279706F696E25
:103FF0007465723B53706569636865727A65696759
:1040000065723B004C3B73746F702F7374617274F4
:10401000206D6561737572656D656E743B73746F49
:10402000702F7374617274206D6561737572656D44
:10403000656E743B4D657373756E672073746F7036
:104040002F73746172743B6D6561737572696E670D
:104050002074696D653B6D6561737572696E67206B
:1040600074696D653B4D6573737A6569743B636C08
:1040700065616E696E6720696E74657276616C3B0E
:10408000636C65616E696E6720696E7465727661D6
:104090006C3B5265696E6967756E6773696E7465AE
:1040A0007276616C6C3B004C3B737461727420637C
:1040B0006C65616E696E673B737461727420636CCA
:1040C00065616E696E673B737461727465742052CA
:1040D00065696E6967756E673B70726F647563744E
:1040E00020747970653B70726F64756374207479A5
:1040F00070653B5479703B73657269616C206E75B5
:104100006D6265723B73657269616C206E756D627C
:1041100065723B53657269656E6E756D6D65723B58
:1041200076657273696F6E3B76657273696F6E3B0D
:104130002056657273696F6E3B000D911D912D9134
:104140003C910F5F1F4F2F4F3F4F3C932E931E9379
:104150000E930895ED91FC91EF5FFF4FFC93EE936A
:10416000089505D00E94442100FC0CD0089500243D
:10417000E89457FF02C009D0689400F80BD010F8FB
:104180000124089502D009D00895509540954F5FBD
:104190005F4F0895E89417FF0895009510950F5FFD
:1041A0001F4F689408958D9103D03A95E1F70895D3
:1041B0000090C00005FEFCCF8093C60008950090DB
:1041C000C80007FEFCCF8091CE0008958D9103D0EA
:1041D0003A95E1F708950090C80005FEFCCF809362
:1041E000CE00089588EE93E035D03197D9F7089541
:1041F0003197F1F708950E9419218C910E941D2199
:104200008D939A95D1F70E941B2108950E94192140
:104210008D910E941D219A95D9F70E941B21089526
:10422000279A26982E9A259A249A2C9A83E58CBD53
:1042300008952C9808952C9A08958EBD00904D00F5
:1042400007FEFCCF8EB50895689462F80895E8944F
:1042500062F80895EF93FF93EE27E82BE92B31F0F6
:10426000E8E8F3E13197F1F70197D1F7FF91EF918A
:1042700008950191119121913081089599275A92C1
:104280004A92480E591E08950F92B801469F800128
:10429000479F100D569F100D0F9008950E945421B6
:1042A0000D920020D9F70895D895319628F48F9370
:1042B0008BB783958BBF8F9100200895019601974E
:1042C00021F00E945421E9F7FACF08950F920024BB
:1042D0000BBE0F9008950F9301E00BBF0F918894D0
:1042E00008950F930027F9CF0F9302E0F6CF000F48
:1042F000111F221F331F08950095109520953095AA
:104300000F5F1F4F2F4F3F4F0895019110810FC036
:104310000E9439210EC00E94392110C001911081E4
:1043200017FF05C03FEF2FEF04C0008111272227A0
:10433000332737FF03C0E0DF8DE28D93CF92DF920A
:10434000EF92AA24BB24CC24DD24EE2440E2EAE050
:10435000FF2755E093E38081890F87FD9F7083FDE0
:10436000907F891B81935A95A9F7C1DFAA1CBB1CBA
:10437000CC1CDD1CEE1C4A9551F7E894EFE0FF27BA
:1043800082910BD0EB30E0F71EF068948A2D09D0B3
:104390004D93EF90DF90CF900895982F829501D0A4
:1043A000892F8F70805D26F0803309F4089568941A
:1043B0008D93089594E081918D939A95E1F70895F6
:1043C00070E2803021F07D938A95E9F78C9308950F
:1043D000F999FECFE1BDF2BD3196089591E001C09B
:1043E00092E07B3771F47FB7F894F2DF8D91F89A01
:1043F00060B5681719F080BDFA9AF99A9A95A9F7ED
:104400007FBF77270895E4DF8D917B3729F480BD46
:10441000FA9AF99A8823B9F77727089591E001C0AD
:1044200092E0D6DFF89A80B58D939A95D1F70895EA
:10443000CFDFF89A80B58D93882319F09A95C1F74C
:104440009D930895FF93881BF9E0001FFA9511F4DE
:10445000FF910895881F841B18F4840F8894F5CF6A
:104460000894F3CF8FEF83959D919923E1F70895F9
:10447000689401C0E894AF93BF938D9116F0919129
:1044800003C00E945421902D891718F011F488233D
:10449000A1F7BF91AF910895B7FE089590E8B916BE
:1044A00011F4D0FE08959FEFD91AE90AF90A09F428
:1044B00003950895D190E190F19001910895219193
:1044C0003191419151910895502F2D2D3E2D4F2D19
:1044D000612F0895EFDF992711278F2D880F80E82E
:1044E000F82A802F881F08F41FEF41F08F57082FFC
:1044F00007FD04C0003240F08FEF01C08827982FDD
:10450000D82EE82EF82E09C08FE1801B082FF694D4
:10451000E794D79497950A95D1F7112351F0909588
:10452000D094E094F09481E0980F8827D81EE81E7C
:10453000F81E0F2DFE2CED2CD92E0895D094E0946A
:10454000F09491E0D90E9927E91EF91E109508956F
:10455000652F90E8440F551F5927990F47956078AC
:10456000102F90E8FF0C001F0927990FF79410787F
:1045700000380895FF0C90E89027110F9795F79455
:10458000092F0895102FBD2CDE2CEF2CF02E1123B7
:104590004AF4B094D094E094F0949FEFB91AD90AF9
:1045A000E90AF90A0EE1FF2039F4FE2CED2CDB2C90
:1045B000BB240850C2F710C032F00A95BB0CDD1CBA
:1045C000EE1CFF1CF9CF68DFD5CF9FE7092FF92A32
:1045D0009FEFD92EE92E0895DD24EE24FF24002735
:1045E000112708950FE79FEFF2CFB2DFD9F05038CF
:1045F000C9F016270058952F90580894091F12F4F7
:1046000018F40EC008F00EC00FD0FF202AF0BB0C2B
:10461000DD1CEE1CFF1C02C0039513F03DDFAACF8A
:104620000C94E5220C94EC229F92FF92EF928D2D38
:10463000FF24EE24DD24BB2493E0849F1001829F9D
:10464000B00CD11CE21CF31C839FD00CE11C222473
:10465000F21C9A9531F0BD2CDE2CEF2CFF248F91AB
:10466000ECCF9F9008950AF045D084CF5FE32227D6
:104670003327442701C023DF6BDF5038B1F3003804
:1046800099F3902F951B8BF312F434D0FACF983115
:1046900018F0222733274427983028F0232F342F6F
:1046A00044279850F9CF992329F0469537952795B7
:1046B0009A95D9F7912F962742F014D0B0F6F79437
:1046C000E794D7940F5F8BF680CF10D051F008F4A9
:1046D00035DFFF2052F2DD0CEE1CFF1C0150CBF742
:1046E00074CF7ACFD20EE31EF41E0895D21AE30AD5
:1046F000F40A0895DF92EF92FF920F931F93D22E48
:10470000E32EF42E052F162F6F915F914F913F915D
:104710002F9108950E945421202D0E945421302D64
:104720000E945421402D0E945421502D089500F5DF
:104730007F4700008043446576696365203100004F
:104740007261646900003A20636F6D6D616E642070
:104750006E6F7420666F756E643A20003A2049329D
:1047600043206572726F723A20003A207761746359
:1047700068646F672072657365743A2000003A20A0
:10478000636F6D6D616E64207761746368646F67D9
:104790003A2000003A20706172616D657465722084
:1047A0006572726F723A20003A2074782074696DD5
:1047B0006520746F6F206C6F6E673A2000003A209E
:1047C0006E6F742076616C69642061742074686116
:1047D000742074696D653A2000003A206932635F85
:1047E000627566666572206F766572666C6F773A81
:1047F00020003A20493263206E6F74207265616434
:104800007920746F20726563656976653A200000CF
:104810003A2057726F6E672064617461206C656E18
:1048200067746820746F6F206D75636820202F2077
:104830006C6974746C65203A20003A20556E6B6E7A
:104840006F776E20636F6D6D616E643A20003A2061
:10485000496C6C6567616C20636F6D6D616E64207F
:10486000706172616D65746572206F7574206F661A
:1048700020616C6C6F7765642072616E67653A20A9
:1048800000003A20496E7465726E616C2066756E28
:104890006374696F6E20617267756D656E74206FE9
:1048A0007574206F662072616E67653A20003A2049
:1048B000436F6D6D616E64206E6F7420616C6C6F00
:1048C00077656420696E2063757272656E742073FB
:1048D000746174653A2000003A206E6F2064617440
:1048E0006120617661696C61626C653A20003A20F2
:1048F0006E6F206572726F723A2000003A206F74FA
:10490000686572206572726F723A2000446576693C
:0449100063653100AA
:00000001FF
