:100000000C94460018950000189500001895000003
:10001000189500001895000018950000189500002C
:10002000189500001895000018950000189500001C
:10003000189500001895000018950000189500000C
:1000400018950000189500001895000018950000FC
:100050000C94B20418950000189500001895000043
:1000600018950000189500000C942B0518950000B9
:1000700018950000189500001895000018950000CC
:100080001895000018950000189500008FEF8DBF9F
:10009000C8EDE0EC4E2E80E48EBFD0E4F0E45F2E9D
:1000A000A89584B7082E877F84BF88E1992780931D
:1000B000600090936000EEEFFFE3A0E0B1E08827DE
:1000C0008D933197E9F780E48093C40080E08093BA
:1000D000C50088E18093C1006624E0E0FF2700812D
:1000E000AAE7B1E00C93AAE7B1E00C9103FB16F08C
:1000F0000C94830082E08093BD038091B7038093CA
:10010000BE030C9486008FEF8093BD0322982C9A37
:1001100074B7777F74BF8FE197E08093600090930E
:10012000600078947091C10070687093C100709104
:10013000BC0071607093BC003B9A80E48093CC005B
:1001400080E08093CD007091C8007D7F7093C800DF
:1001500087E08093CA0088E18093C9001C990C94C1
:10016000B3000E94B502E0E0F0E0A0E1B0E00E9440
:100170005969053011F40C94BF000E94B5020E9429
:10018000FE0280916000886080936000ADEAB1E07B
:100190008C918F5F8C930091AD010F3F11F00C9407
:1001A0005801ACEAB1E08C918F5F8C930091AC0167
:1001B0000A3511F00C94FE000091C103003018F0D4
:1001C00011F00C94E5000C94FC00A1ECB3E08C91D0
:1001D0008F5F8C930091C103083218F011F00C94DA
:1001E000F3000C94FC000E946E0385E08093BD0335
:1001F0008091B7038093BE030C945801043B11F027
:100200000C942D0100919201013081E009F080E011
:100210008F93A6E2B0E00C9101FB81E00EF480E048
:100220009F918923882311F40C942801AEEAB1E050
:100230008C918F5F8C930091AE01053018F011F016
:100240000C9424010C9426010E9413050C942B019C
:1002500080E08093AE010C9458010F3F11F00C9494
:100260005801AFEBB3E00D911C91003050E0150741
:1002700018F011F00C943E010C944201AFEBB3E086
:100280000E94F066AFEBB3E00D911C91083250E094
:10029000150718F011F00C944F010C94580183E0ED
:1002A0008093BD038091B7038093BE030E947B03BC
:1002B0000E946B67A4E9B1E08C9300919401013036
:1002C00011F00C943E020E947167A4E9B1E08C9396
:1002D000E4E9F1E0A8EAB0E40E94F1680E944D6709
:1002E0000E9461670091CD03003011F00C947B01F6
:1002F00081E08093CD0300910E050A3F10F00C942D
:100300003502009194010D3F11F40C9499018091F4
:100310009401AEE0B5E0AD90BB24A2E1B4E0AA0D3B
:10032000BB1D8C93AEE0B5E08C918F5F8C930C94E9
:10033000330200910E05063010F00C94B0018BE0F2
:100340008093BD038091B7038093BE03E6E0F3ED95
:100350000E94BE680E9455670E9461670C9431023A
:1003600080EE8093150400910E05063011F00C9478
:10037000EF0191E09A93A3E1B4E0E2EFF3E02227EA
:100380000E947068A4E9B1E00C93009194010030E0
:1003900011F00C94ED0191E09A93A3E1B4E0EDEF3C
:1003A000F3E022270E947068A4E9B1E00C93009169
:1003B0009401013011F00C94E6018AE08093BD03B2
:1003C0008091B7038093BE030C94ED018BE0809382
:1003D000BD038091B7038093BE030C943102A3E167
:1003E000B4E0ECEDF3E0222791E00E947568A5E906
:1003F000B1E00C9300919501013011F00C942A02A8
:1004000081E08093940140910E05009194010417BE
:1004100018F011F00C942402A4E9B1E0AD90BB24D3
:10042000A2E1B4E0AA0DBB1D8C918093970131E04D
:10043000A7E9B1E00E945C67A4E9B1E08C918F5F0D
:100440008C9310F40C9403020E94040E0E949803F3
:100450000C9431028DE08093BD038091B7038093AB
:10046000BE030E94B8060C943E0289E08093BD034F
:100470008091B7038093BE030E94B8060091B90330
:10048000003018F011F00C9447020C949602009181
:10049000B702013018F011F00C9450020C945C0279
:1004A00080E08093B50186E08093BD038091B7031F
:1004B0008093BE030C9493020091B802003011F0B7
:1004C0000C9466020E9406470C9493020091B501B9
:1004D000023010F40C9493020091B9020E3F81E0B7
:1004E00009F480E08F9300919301003081E009F0DE
:1004F00080E09F9189238F9300919201003081E0E9
:1005000009F080E09F918923882311F40C948D02D7
:1005100080E08093B5010C9493028091B90280939E
:10052000B4010E94064780E08093B9034091B7026E
:100530000091B602041718F011F00C94A1020C946B
:10054000B2020E946E03A2EBB1E00D911C9100304B
:1005500050E0150718F011F00C94B0020C94B202A0
:100560000E94C403A8950C94C100E1E0F0E00E9451
:100570008467E6E1F0E0A0E1BB2781E08C937BE7B4
:100580000E943D69A42DB52DEAE0F3ED0E94BE68FE
:100590000E944468E1E0F0E0D2017BE70E944E69EE
:1005A000E7E1F0E0A0E1BB2780E28C937BE70E94CB
:1005B0003D69E8E1F0E0A0E1BB2781E08C937BE7B7
:1005C0000E943D69E9E1F0E0A0E1BB2781E08C9366
:1005D0007BE70E943D69EBE1F0E0A0E1BB2780E70B
:1005E0008C937BE70E943D69E0E0F0E0A0E1BB274F
:1005F00085E08C937BE70E943D690895E6E1F0E099
:10060000A0E9B1E00E945969E1E0F0E0ABE7B1E0B8
:1006100094E10E946369E7E1F0E0A1E9B1E00E94A2
:100620005969E8E1F0E0A2E9B1E00E945969E9E125
:10063000F0E0A3E9B1E00E94596981E08093B7033B
:1006400080E08093BE0380E08093B60181E08093D8
:10065000B8030E947B030E946E030E94130580E092
:100660008093AC0180E08093AD01EBE1F0E0AEEC73
:10067000B3E00E945969A7EEB3E0E4E1F3ED0E9414
:10068000BE680E9444688091CE038093E903ACED7C
:10069000B3E0EAE1F3ED0E94BE680E9444688091F5
:1006A000CE038093DF03A2EFB3E0E0E2F3ED0E941C
:1006B000BE680E9444688091CE038093F503ADEF3D
:1006C000B3E0E6E2F3ED0E94BE680E9444688091C8
:1006D000CE03809300040E94B806089581E08093C1
:1006E000B60281E08093B70280E08093C10370E896
:1006F0007093BB00089580E08093B50180E090E0A6
:10070000AFEBB3E08D939C93A7EBB3E08C918F5F3D
:100710008C934091BE030091B703041711F00C9421
:10072000970380E08093BE038FEF8093BD0308950D
:100730008091B70281508093B70281E08093950148
:100740004091B70200919501041718F011F00C9434
:10075000C103A5E9B1E0AD90BB24A6EBB1E0AA0DC1
:10076000BB1D8C918093960131E0A6E9B1E00E9417
:100770005C67A5E9B1E08C918F5F8C9310F40C94C9
:10078000A0030E946E03089581E08093950100917B
:1007900095010E3F18F011F00C94E00380E0A5E9FC
:1007A000B1E0AD90BB24A6EBB1E0AA0DBB1D8C93CC
:1007B000A5E9B1E08C918F5F8C9310F40C94C70382
:1007C000E4E3FEE90E94BE68A0EBB1E08D919C914C
:1007D0000E94B068A7EBB1E00E944468A7EBB1E0CB
:1007E0000E947D69A6E9B1E08C930091B6010130C9
:1007F00011F00C94000481E0809394010C94100497
:10080000023011F00C94090482E0809394010C945E
:100810001004043011F00C94100487E080939401CC
:1008200080919601809395014091950101E0041714
:1008300018F011F00C943E04009195014091940140
:10084000040FA7E9B1E00C93A5E9B1E0AD90BB249A
:10085000A6EBB1E0AA0DBB1D8C91A7E9B1E0AD906C
:10086000BB24A6EBB1E0AA0DBB1D8C938091950132
:1008700081508093950110F00C9414040091B601FE
:10088000013011F00C944A04809196018093B701D5
:100890000C948904023011F00C945E0480E0809383
:1008A000B701809196018093B8010091960143E0D1
:1008B000040FA7EBB2E00C930C948904043011F000
:1008C0000C9489048FEF8093B70180EF8093B80177
:1008D000A0EBB1E011968C91A9EBB1E08C93A0EB69
:1008E000B1E08C91AAEBB1E08C93A2EBB1E0119650
:1008F0008C91ABEBB1E08C93A2EBB1E08C91ACEBC3
:10090000B1E08C93809196018093BD0181E080934A
:10091000B6010091960140919401040FA7EBB2E05B
:100920000C93A7EBB2E08C918F5F8C93A0EBB1E0BE
:100930000E94F066A0EBB1E00D911C910C3751E0E4
:10094000150710F40C94AA0480E090E0A0EBB1E04D
:100950008D939C93A2EBB1E00E94F76681E08093B7
:10096000B60208950F921F922F923F924F925F927C
:100970007F92AF92BF92CF92DF92EF92FF920F934E
:100980001F932F933F934F935F936F937F938F9317
:100990009F93AF93BF93CF93DF93EF93FF938FB763
:1009A0008F938BB78F9388278BBF0091B5010A3F38
:1009B00010F00C94E004A5EBB1E08C918F5F8C9368
:1009C000A5EBB1E0AD90BB24A7EBB2E0AA0DBB1D37
:1009D0008091C6008C9381E08093B90381E080937D
:1009E000B8038F918BBF8F918FBFFF91EF91DF91F4
:1009F000CF91BF91AF919F918F917F916F915F91B7
:100A00004F913F912F911F910F91FF90EF90DF90A9
:100A1000CF90BF90AF907F905F904F903F902F907E
:100A20001F900F90189580E08093AE0170E0709356
:100A3000B90070E07093B90071E17093B80070E88C
:100A40007093BB00A1E9B1E08C918093BA0075E48A
:100A50007093BC0008950F921F922F923F924F9275
:100A60005F927F92AF92BF920F931F932F933F930A
:100A70004F935F936F937F938F939F93AF93BF93A6
:100A8000CF93DF93EF93FF938FB78F938BB78F93B2
:100A900088278BBF0091B9004CEF0423A4E9B1E093
:100AA0000C9300919401003611F00C945C0575ECE8
:100AB0007093BC000C949A06083611F00C946505EE
:100AC00075EC7093BC000C949A06003711F00C94EE
:100AD0006E0575EC7093BC000C949A06083711F003
:100AE0000C94770575EC7093BC000C949A06003852
:100AF00011F00C949C050091B5010A3F10F00C9484
:100B00008605A5EBB1E08C918F5F8C93A5EBB1E0EE
:100B1000AD90BB24A7EBB2E0AA0DBB1D8091BB003A
:100B20008C9382E08093B80381E08093B90375ECE5
:100B30007093BC000C949A06083811F00C94C1050F
:100B40000091B5010A3F10F00C94AB05A5EBB1E0A4
:100B50008C918F5F8C93A5EBB1E0AD90BB24A7EB9C
:100B6000B2E0AA0DBB1D8091BB008C9382E0809304
:100B7000B80381E08093B90375EC7093BC000C94CA
:100B80009A06003911F00C94E6050091B5010A3F70
:100B900010F00C94D005A5EBB1E08C918F5F8C9395
:100BA000A5EBB1E0AD90BB24A7EBB2E0AA0DBB1D55
:100BB0008091BB008C9382E08093B80381E08093A6
:100BC000B90375EC7093BC000C949A06083911F0C7
:100BD0000C940B060091B5010A3F10F00C94F5053A
:100BE000A5EBB1E08C918F5F8C93A5EBB1E0AD905C
:100BF000BB24A7EBB2E0AA0DBB1D8091BB008C9378
:100C000082E08093B80381E08093B90375EC709320
:100C1000BC000C949A06003A11F00C94140675EC82
:100C20007093BC000C949A06083A11F00C941D06BF
:100C300075EC7093BC000C949A06003B11F00C9478
:100C4000260675EC7093BC000C949A06083B11F0D4
:100C50000C9459064091B7020091B602041781E046
:100C600008F080E08F9300919201013081E009F05B
:100C700080E09F918923882311F40C945106A6EB00
:100C8000B2E0AD90BB24A6EBB1E0AA0DBB1D8C91E8
:100C90008093BB00A6EBB2E08C918F5F8C930C9499
:100CA000540670E87093BB0075EC7093BC000C9414
:100CB0009A06003C11F00C948F0670E87093BB000C
:100CC0004091B7020091B602041781E008F080E07D
:100CD0008F9300919201013081E009F080E09F91B3
:100CE0008923882311F40C948706A6EBB2E0AD901B
:100CF000BB24A6EBB1E0AA0DBB1D8C918093BB0079
:100D0000A6EBB2E08C918F5F8C930C948A0670E80E
:100D10007093BB0075EC7093BC000C949A06083C71
:100D200011F00C94980675EC7093BC000C949A0624
:100D30000E9413058F918BBF8F918FBFFF91EF9111
:100D4000DF91CF91BF91AF919F918F917F916F91E3
:100D50005F914F913F912F911F910F91BF90AF9055
:100D60007F905F904F903F902F901F900F9018951D
:100D700081E080930E0580E080930F0580E08093F2
:100D8000CD0380E08093100583E08093D60380E05C
:100D90008093DB0380E090E0AFECB3E08D939C9315
:100DA00081E090E0ABECB3E08D939C93429A0E947B
:100DB0006E03089542987091C9007F7E7093C900B8
:100DC0008EEF0E947D678EEF0E947D6731E0AEEC72
:100DD000B3E00E94786780EE0E947D678EEF0E94EC
:100DE00064678EEF0E94646731E0AEECB3E00E946E
:100DF0005C6780EE0E94646781E08093940140917B
:100E0000D50300919401041718F011F00C942507F4
:100E1000A4E9B1E0AD90BB24AFEFB0E0AA0DBB1DDB
:100E20008C918093950131E0A5E9B1E00E9478674B
:100E300031E0A5E9B1E00E945C67A4E9B1E08C91E2
:100E40008F5F8C9310F40C94FF068DEF0E947D67EA
:100E50008DEF0E946467429A0E947B0381E090E0DC
:100E60000E9403687091C90070617093C900089571
:100E70000091B501033010F40C9464074091940183
:100E80000091BA02041710F00C945B078AE1A0E00D
:100E9000B1E08D9388278C938091D20380930101D8
:100EA0008091BA028093020183E08093D5030E946F
:100EB000DA060C94640784E08093BD038091B70345
:100EC0008093BE030E947B0308950091B501033017
:100ED00010F40C949C07409194010091BA020417FD
:100EE00010F00C9493078AE1A0E0B1E08D9388277D
:100EF0008C9385E0A0E0B1E00E9446678D9388273F
:100F00008C9380E0809302018091D403809303014D
:100F10008091BA028093040185E08093D5030E94FA
:100F2000DA060C949C0784E08093BD038091B7039C
:100F30008093BE030E947B0308950091B5010330A6
:100F400010F40C94E707409194010091BA02041741
:100F500010F00C94DE078AE1A0E0B1E08D938827C1
:100F60008C9385E0A0E0B1E00E9446678D938827CE
:100F70008C9380E0809302018091D40380930301DD
:100F80000091BA0244E60E946D69A4E0B1E00C93BE
:100F90000091BA0244E60E946D69A4E9B1E08C9325
:100FA000809194010E94EC67A5E0B1E08C9386E00B
:100FB0008093D5030E94DA060C94E70784E08093BF
:100FC000BD038091B7038093BE030E947B03089505
:100FD0000091B501033010F40C9412084091940173
:100FE0000091BA02041710F00C9409088091D10303
:100FF000809300018091D203809301018091BA0215
:101000008093020183E08093D5030E94DA060C945A
:10101000120884E08093BD038091B7038093BE03E0
:101020000E947B0308950091B501033010F40C94E5
:101030004008409194010091BA02041710F00C94FA
:1010400037088091D103809300018091D20380936F
:1010500001010091BA0241E0040FA2E0B1E00C935B
:1010600083E08093D5030E94DA060C94400884E064
:101070008093BD038091B7038093BE030E947B03DE
:1010800008950091B501033010F40C946F0880911D
:10109000D103809300018091D203809301010091DC
:1010A000BA0244E60E946D69A4E9B1E00C93809114
:1010B0009401809302010091BA0244E60E946D6996
:1010C000A4E9B1E08C93809194010E94EC67A3E0C5
:1010D000B1E08C9384E08093D5030E94DA060895F2
:1010E0000091B501033010F40C9494088AE1A0E05B
:1010F000B1E08D9388278C9385E0A0E0B1E00E9459
:1011000046678D9388278C9380E0809302018091BD
:10111000D403809303018091BA028093040185E097
:101120008093D5030E94DA0608950091B50103303B
:1011300010F40C94C1088AE1A0E0B1E08D938827F7
:101140008C9385E0A0E0B1E00E9446678D938827EC
:101150008C9380E0A0E0B1E00E9446678D938827E1
:101160008C938091D403809303018091BA020E94F2
:10117000EC67A4E0B1E08C9385E08093D5030E94F6
:10118000DA0608950091B501033010F40C94EE08CE
:101190008AE1A0E0B1E08D9388278C9385E0A0E000
:1011A000B1E00E9446678D9388278C9381E0A0E090
:1011B000B1E00E9446678D9388278C938091D40379
:1011C000809303018091BA020E94EC67A4E0B1E031
:1011D0008C9385E08093D5030E94DA0608950091F0
:1011E000B501033010F40C942F098AE1A0E0B1E0BE
:1011F0008D9388278C9385E0A0E0B1E00E9446673C
:101200008D9388278C9380E0A0E0B1E00E94466730
:101210008D9388278C938091D40380930301009150
:10122000BA0244E60E946D69A4E9B1E00C93809192
:101230009401809304010091BA0244E60E946D6912
:10124000A4E9B1E08C93809194010E94EC67A5E041
:10125000B1E08C9386E08093D5030E94DA0608956E
:101260000091B501033010F40C9470098AE1A0E0FC
:10127000B1E08D9388278C9385E0A0E0B1E00E94D7
:1012800046678D9388278C9381E0A0E0B1E00E94AF
:1012900046678D9388278C938091D40380930301B4
:1012A0000091BA0244E60E946D69A4E9B1E00C9392
:1012B00080919401809304010091BA0244E60E9457
:1012C0006D69A4E9B1E08C93809194010E94EC6770
:1012D000A5E0B1E08C9386E08093D5030E94DA0606
:1012E0000895A0E0B1E088278C93A8E9B1E0AD9023
:1012F000BB24A7EBB2E0AA0DBB1D8C918093DA034F
:10130000A8E9B1E0AD90BB24A8EBB2E0AA0DBB1DEB
:101310008C918093D903A8E9B1E0AD90BB24A9EBEF
:10132000B2E0AA0DBB1D8C918093D803A8E9B1E06F
:10133000AD90BB24AAEBB2E0AA0DBB1D8C918093AB
:10134000D703A4EAB1E04D915D916D917C91A7ED39
:10135000B3E00D911D912D913C91041715072607BF
:10136000370710F00C94A50AA7EDB3E00D911D917D
:101370002D913C9140E355E760E070E00E94C46825
:10138000A7EDB3E00D931D932D933D93A7EDB3E02F
:101390000D911D912D913C9140E051EE65EF75E06E
:1013A0000E949467A0EAB1E04D935D936D937D93A5
:1013B0008091A00180939401809194010E94EC6738
:1013C000A7E9B1E0AD90BB24A3E0B1E0AA0DBB1D3D
:1013D0008C93A7EDB3E00D911D912D913C9140E0D0
:1013E00051EE65EF75E00E949467A7EDB3E00D93B1
:1013F0001D932D933D93A7EDB3E00D911D912D917C
:101400003C9140E452E46FE070E00E949467A0EAEF
:10141000B1E04D935D936D937D938091A001809396
:101420009401809194010E94EC67A7E9B1E0AD902E
:10143000BB24A2E0B1E0AA0DBB1D8C93A7EDB3E0E5
:101440000D911D912D913C9140E452E46FE070E0CC
:101450000E949467A7EDB3E00D931D932D933D93E8
:10146000A7EDB3E00D911D912D913C9140E157E224
:1014700060E070E00E949467A0EAB1E04D935D9354
:101480006D937D938091A00180939401809194014C
:101490000E94EC67A7E9B1E0AD90BB24A1E0B1E008
:1014A000AA0DBB1D8C93A7EDB3E00D911D912D915D
:1014B0003C9140E157E260E070E00E949467A7ED44
:1014C000B3E00D931D932D933D93A7EDB3E00D91E4
:1014D0001C9144E650E00E942C67AAE9B1E04D93CC
:1014E0005C9380919A0180939401809194010E9471
:1014F000EC67A7E9B1E0AD90BB24A0E0B1E0AA0D94
:10150000BB1D8C93A7EDB3E00D911D912D913C91E6
:1015100044E650E060E070E00E949467A7EDB3E01D
:101520000D931D932D933D938091D7038093940148
:10153000809194010E94EC67A7E9B1E0AD90BB24D3
:10154000AFEFB0E0AA0DBB1D8C930895089500E0A5
:1015500010E020E030E0A0EAB1E00D931D932D9360
:101560003C93A8E9B1E0AD90BB24A2E1B4E0AA0DA0
:10157000BB1D8C9180939401909194010E94F3671C
:10158000A4E9B1E08C93A4E9B1E08C91A0EAB1E0C8
:101590008D9388278D938D938C93A8E9B1E08C91DE
:1015A0008F5F8C93A8E9B1E0AD90BB24A2E1B4E0D9
:1015B000AA0DBB1D8C9180939401909194010E947F
:1015C000F367A4E9B1E08C93A4E9B1E00C91112791
:1015D0002227332744E650E060E070E00E94216853
:1015E000A4EAB1E00D931D932D933D93A0EAB1E0E1
:1015F0000D911D912D913C91A4EAB1E04D915D9129
:101600006D917C910E94C468A0EAB1E00D931D9396
:101610002D933D93A8E9B1E08C918F5F8C93A8E95D
:10162000B1E0AD90BB24A2E1B4E0AA0DBB1D8C914A
:1016300080939401909194010E94F367A4E9B1E032
:101640008C93A4E9B1E00C9111272227332740E1C4
:1016500057E260E070E00E942168A4EAB1E00D93D7
:101660001D932D933D93A0EAB1E00D911D912D9115
:101670003C91A4EAB1E04D915D916D917C910E9405
:10168000C468A0EAB1E00D931D932D933D93A8E9A2
:10169000B1E08C918F5F8C93A8E9B1E0AD90BB2451
:1016A000A2E1B4E0AA0DBB1D8C91809394019091AE
:1016B00094010E94F367A4E9B1E08C93A4E9B1E03E
:1016C0000C9111272227332740E452E46FE070E0A9
:1016D0000E942168A4EAB1E00D931D932D933D93E0
:1016E000A0EAB1E00D911D912D913C91A4EAB1E0E9
:1016F0004D915D916D917C910E94C468A0EAB1E02A
:101700000D931D932D933D93A8E9B1E08C918F5FCC
:101710008C93A8E9B1E0AD90BB24A2E1B4E0AA0D9E
:10172000BB1D8C9180939401909194010E94F3676A
:10173000A4E9B1E08C93A4E9B1E00C911127222730
:10174000332740E051EE65EF75E00E942168A4EA7E
:10175000B1E00D931D932D933D93A0EAB1E00D915F
:101760001D912D913C91A4EAB1E04D915D916D9157
:101770007C910E94C468A0EAB1E00D931D932D9363
:101780003D93A0EAB1E00D911D912D913C9140E374
:1017900055E760E070E00E94C968A0EAB1E00D93EF
:1017A0001D932D933D9384E0809394014091940187
:1017B00001E0041718F011F00C94FD0BA4E9B1E05E
:1017C000AD90BB24AFE9B1E0AA0DBB1D8C91A7EB96
:1017D000B2E0AD90BB24A6EBB1E0AA0DBB1D8C938B
:1017E000A7EBB2E08C918F5F8C9380919401815034
:1017F0008093940110F00C94D60B08950091190475
:101800000F3F10F00C94F90D0091190441E0041BF6
:10181000A9EBB1E00C930091980144E0040FA7E913
:10182000B1E00C93A7E9B1E0AD90BB24A2E1B4E034
:10183000AA0DBB1D9C910E94F367082F1127222738
:10184000332740E051EE65EF75E00E942168A0EA81
:10185000B1E00D931D932D933D930091980143E0CA
:10186000040FA7E9B1E00C93A7E9B1E0AD90BB2468
:10187000A2E1B4E0AA0DBB1D9C910E94F367082F62
:1018800011272227332740E452E46FE070E00E94E2
:101890002168A4EAB1E00D931D932D933D93A0EA36
:1018A000B1E00D911D912D913C91A4EAB1E04D91D3
:1018B0005D916D917C910E94C468A0EAB1E00D93A6
:1018C0001D932D933D930091980142E0040FA7E9E9
:1018D000B1E00C93A7E9B1E0AD90BB24A2E1B4E084
:1018E000AA0DBB1D9C910E94F367082F1127222788
:1018F000332740E157E260E070E00E942168A4EAEB
:10190000B1E00D931D932D933D93A0EAB1E00D91AD
:101910001D912D913C91A4EAB1E04D915D916D91A5
:101920007C910E94C468A0EAB1E00D931D932D93B1
:101930003D930091980141E0040FA7E9B1E00C93B9
:10194000A7E9B1E0AD90BB24A2E1B4E0AA0DBB1DB4
:101950009C910E94F367082F11272227332744E622
:1019600050E060E070E00E942168A4EAB1E00D93CD
:101970001D932D933D93A0EAB1E00D911D912D9102
:101980003C91A4EAB1E04D915D916D917C910E94F2
:10199000C468A0EAB1E00D931D932D933D93A0EA96
:1019A000B1E00D911D912D913C91A8E9B1E0AD9070
:1019B000BB24A2E1B4E0AA0DBB1D9C910E94F36779
:1019C000482F5527662777270E94C468A0EAB1E010
:1019D0000D931D932D933D938091A3018093BA01A4
:1019E0008091A2018093BB018091A1018093BC01F1
:1019F0008091A0018093BD01009198014AE0040FFD
:101A0000A7E9B1E00C93A7E9B1E0AD90BB24A2E156
:101A1000B4E0AA0DBB1D9C910E94F367082F11270B
:101A20002227332740E051EE65EF75E00E942168E0
:101A3000A0EAB1E00D931D932D933D930091980181
:101A400049E0040FA7E9B1E00C93A7E9B1E0AD903C
:101A5000BB24A2E1B4E0AA0DBB1D9C910E94F367D8
:101A6000082F11272227332740E452E46FE070E06B
:101A70000E942168A4EAB1E00D931D932D933D933C
:101A8000A0EAB1E00D911D912D913C91A4EAB1E045
:101A90004D915D916D917C910E94C468A0EAB1E086
:101AA0000D931D932D933D930091980148E0040FF1
:101AB000A7E9B1E00C93A7E9B1E0AD90BB24A2E1A6
:101AC000B4E0AA0DBB1D9C910E94F367082F11275B
:101AD0002227332740E157E260E070E00E9421684E
:101AE000A4EAB1E00D931D932D933D93A0EAB1E0DC
:101AF0000D911D912D913C91A4EAB1E04D915D9124
:101B00006D917C910E94C468A0EAB1E00D931D9391
:101B10002D933D930091980147E0040FA7E9B1E0B0
:101B20000C93A7E9B1E0AD90BB24A2E1B4E0AA0D0B
:101B3000BB1D9C910E94F367082F11272227332792
:101B400044E650E060E070E00E942168A4EAB1E061
:101B50000D931D932D933D93A0EAB1E00D911D913E
:101B60002D913C91A4EAB1E04D915D916D917C91F4
:101B70000E94C468A0EAB1E00D931D932D933D939C
:101B80000091980146E0040FA7E9B1E00C93A0EAA8
:101B9000B1E00D911D912D913C91A7E9B1E0AD907F
:101BA000BB24A2E1B4E0AA0DBB1D9C910E94F36787
:101BB000482F5527662777270E94C468A0EAB1E01E
:101BC0000D931D932D933D938091A3018093BE01AE
:101BD0008091A2018093BF018091A1018093C001F7
:101BE0008091A0018093C1018CE08093B7020C9496
:101BF000030E86E08093BD038091B7038093BE03FC
:101C000081E08093B7020895009117040A3110F023
:101C10000C945A1081E08093B701009117040230B0
:101C200011F00C941D0E84E08093B80186E080933F
:101C300098010E94FE0B0C945810033011F00C9484
:101C40002E0E81E08093B80186E08093980183E0B6
:101C50008093B7020E94A70A0C945810043011F028
:101C60000C94610E83E08093B801809118048093F6
:101C7000B9010091B901053018F011F00C94420E31
:101C80000C94470E8091B90181508093B901009165
:101C9000190441E0041BAAEBB1E00C9385E08093AA
:101CA000B70200911105083610F00C945F0EA1E107
:101CB000B5E08C918F5F8C9380E0809312050C943B
:101CC00058100C3011F00C94DA0E8EE08093B801AD
:101CD00090911A040E94F367082F112722273327B7
:101CE00040E157E260E070E00E942168A0EAB1E0C4
:101CF0000D931D932D933D93909119040E94F367CA
:101D0000082F11272227332744E650E060E070E0D7
:101D10000E942168A4EAB1E00D931D932D933D9399
:101D2000A0EAB1E00D911D912D913C91A4EAB1E0A2
:101D30004D915D916D917C910E94C468A0EAB1E0E3
:101D40000D931D932D933D93A4EAB1E00D911D9148
:101D50002D913C91909118040E94F367482F5527CC
:101D6000662777270E94C468A4EAB1E00D931D930B
:101D70002D933D93A4EAB1E08C9183FBA9EBB1E0F4
:101D8000882780F98C93A4EAB1E08C9182FBAAEBBE
:101D9000B1E0882780F98C93A4EAB1E08C9181FBB3
:101DA000ABEBB1E0882780F98C9386E08093B70293
:101DB0000C945810013111F00C94F20E86E18093CE
:101DC000B80180E08093B90100911804023111F04C
:101DD0000C94ED0E81E08093B90184E08093B7020A
:101DE0000C945810043111F00C94510F87E180933A
:101DF00095010091180442E0049FA4E9B1E00C921F
:101E00000091950140919401040FA5E9B1E00C9374
:101E100000911804033018F011F00C94110F0C9479
:101E2000320FA5E9B1E08C9184508C930091180495
:101E30000F3018F011F00C941F0F0C94320FA5E91D
:101E4000B1E08C9184508C9300911804023118F009
:101E500011F00C942D0F0C94320FA5E9B1E08C9188
:101E600084508C93809195018093B801009119045E
:101E700044E6049FA4E9B1E00C9290911A040E94F8
:101E8000F367A5E9B1E08C9300919401409195012D
:101E9000040FA9EBB1E00C9384E08093B7020C949B
:101EA0005810053111F00C94C00F00911804013046
:101EB00011F00C94640F80E48093B80180911904B0
:101EC0008093B9010C94BB0F023011F00C94830F76
:101ED00081E48093B8010091190444E6049FA9EBC2
:101EE000B1E00C9290911A040E94F367A4E9B1E06A
:101EF0008C930091B90140919401040FA9EBB1E0DA
:101F00000C930C94BB0F00911804013181E008F48C
:101F100080E08F9300911804043181E010F009F003
:101F200080E09F918923882311F40C94BB0F0091CA
:101F3000180441E1041BA4E9B1E00C9302E44091D0
:101F40009401040FA8EBB1E00C930091190444E64E
:101F5000049FA9EBB1E00C9290911A040E94F367E0
:101F6000A4E9B1E08C930091B90140919401040F70
:101F7000A9EBB1E00C9384E08093B7020C94581065
:101F8000063111F00C944A1000911804023011F03F
:101F90000C94CF0F87E48093B8010C943610023173
:101FA00011F00C94D80F89E48093B8010C9436108A
:101FB000023211F00C94E10F8BE48093B8010C9481
:101FC000361000911804003481E008F480E08F930B
:101FD00000911804083481E010F009F080E09F912E
:101FE0008923882311F40C940B100091180440E409
:101FF000041BA4E9B1E00C93A4E9B1E00C9142E028
:10200000049F0C920DE440919401040FA8EBB1E001
:102010000C930C9436100B3411F00C9414108FE5C3
:102020008093B8010C9436100C3411F00C941D10F0
:1020300081E68093B8010C9436100F3411F00C94A3
:10204000261083E68093B8010C943610003511F009
:102050000C942F1085E68093B8010C94361001354E
:1020600011F00C94361087E68093B8018091190422
:102070008093B9010091B901023111F00C9445101F
:102080008091B90181508093B90184E08093B702B7
:102090000C945810093111F00C94581088E6809374
:1020A000B801809118048093B90184E08093B7024D
:1020B0000C94B313009117040B3110F00C94B3136C
:1020C00000911804053010F00C94F61081E0809314
:1020D000B70100911804003011F00C9473100E94A5
:1020E000A60A0C94F410013011F00C94CE1000915B
:1020F0001505003018F011F00C9480100C94CC10E1
:102100008AE1A0E0B1E08D9388278C9381E0A0E084
:10211000B1E00E9446678D9388278C9380911505C6
:102120008093020181E08093030181E08093940118
:10213000009194010E3018F011F00C94B910A4E93C
:10214000B1E0AD90BB24AAE1B4E0AA0DBB1D8C9117
:10215000A4E9B1E0AD90BB24A3E0B1E0AA0DBB1DA2
:102160008C93A4E9B1E08C918F5F8C9310F40C9464
:102170009810ECE2F3ED0E94BE680E9455670E9441
:10218000616782E18093D5030E94DA0681E0809343
:10219000B70280E0809315050C94F410033011F021
:1021A0000C94E210809117058093B8019091190466
:1021B0000E94F367A9EBB1E08C9384E08093B702AF
:1021C0000C94F410043011F00C94F4108091170565
:1021D0008093B801909119040E94F367A9EBB1E0D4
:1021E0008C9384E08093B7020C94B313009118048D
:1021F000053011F00C9448120091190444E6049F34
:10220000A3E1B5E00C92009113050F9390911A048D
:102210000E94F367482F0F91040FA3E1B5E00C93E0
:1022200000911305043610F00C940A120091130566
:10223000023310F00C949011A3E1B5E08C9183501F
:102240008C93EEE8F1E1EF93FF93E0E3F1E1A3E19A
:10225000B5E08C919927880F991FE80FF91F099411
:102260000C94763D0C94843D0C949F3D0C94AD3DB4
:102270000C94BB3D0C94D63D0C94E43D0C94F23D83
:102280000C940D3E0C941B3E0C94293E0C94493E3C
:102290000C94693E0C94893E0C94973E0C94B73E86
:1022A0000C94D73E0C94F73E0C94173F0C94373F98
:1022B0000C94453F0C94533F0C94613F0C946F3F3A
:1022C0000C947D3F0C948B3F0C94993F0C94A73F4A
:1022D0000C94B53F0C94C33F0C94D13F0C94DF3F5A
:1022E0000C94ED3F0C94FB3F0C9409400C9441403E
:1022F0000C944F400C9460400C947E400C9496409B
:102300000C94A4400C94EA400C94F7400C940441C3
:102310000C9421410C942E410C943B410C940812D6
:10232000A3E1B5E08C9182538C93E8E0F2E1EF9366
:10233000FF93E4EAF1E1A3E1B5E08C919927880FDE
:10234000991FE80FF91F09940C9458410C946541AA
:102350000C9472410C947F410C94E2410C94EF4137
:102360000C9440420C9491420C94E2420C943343FE
:102370000C9440430C944D430C945A430C94674383
:102380000C9474430C9481430C949E430C94AB4383
:102390000C94B8430C94C5430C94D2430C94DF4383
:1023A0000C94EC430C94F9430C9406440C9416449E
:1023B0000C9426440C9433440C9440440C944D44A7
:1023C0000C945A440C9467440C9474440C948144C7
:1023D0000C948E440C949B440C94A8440C94B544E7
:1023E0000C94C2440C94CF440C94DC440C94E94407
:1023F0000C94F6440C9403450C9420450C94304501
:102400000C943D450C944A450C9457450C946745F3
:102410000C944612A3E1B5E08C9184568C93E6E4CB
:10242000F2E1EF93FF93EEE1F2E1A3E1B5E08C91ED
:102430009927880F991FE80FF91F09940C94A1455B
:102440000C94B1450C94C6450C94D3450C94E045CE
:102450000C94ED450C94FA450C9407460C941446E4
:102460000C9421460C942E460C943B460C94484602
:102470000C9465460C9482460C9492460C94AF469C
:102480000C94CC460C94DC460C94E9460C94B313A3
:1024900000911804063011F00C945D1282E08093D4
:1024A000B70182E68093B801809119048093B90145
:1024B00084E08093B7020C94B313073011F00C94AE
:1024C000701282E08093B70184E68093B801809116
:1024D00019048093B90184E08093B7020C94B3137C
:1024E000083011F00C94831282E08093B70186E6E5
:1024F0008093B801809119048093B90184E080939E
:10250000B7020C94B313093011F00C94961282E0C8
:102510008093B70188E68093B80180911904809375
:10252000B90184E08093B7020C94B3130A3011F020
:102530000C94A91282E08093B7018AE68093B801D7
:10254000809119048093B90184E08093B7020C94C0
:10255000B3130B3011F00C94971382E08093B70102
:1025600000911904023010F00C94E21290911B04B7
:102570000E94F367082F112744E650E00E94176875
:10258000AAE9B1E00D931C93AAE9B1E00D911C9169
:102590000F931F9390911C040E94F367482F5527B7
:1025A0001F910F91040F151FAAE9B1E00D931C9321
:1025B00080919B018093B90180919A018093BA0127
:1025C0000C946F1380911A048093190580911B0459
:1025D00080931A0580911C0480931B05A7E1B5E048
:1025E0000D911C91003752E0150711F00C945B130C
:1025F00000911C044FE00423A4E9B1E00C93009186
:102600001C0440EF0423A5E9B1E00C9391E0A5E997
:10261000B1E00E945D680091940140919501042B06
:10262000A4E9B1E00C93ABE1B4E00D9111274FE0C8
:1026300050E004231523AAE9B1E00D931C9396E022
:10264000AAE9B1E00E945268ABE1B4E00D91112714
:1026500040EF50E004231523ACE9B1E00D931C9347
:1026600099E0ACE9B1E00E945268AAE9B1E00D91AD
:102670001C91ACE9B1E04D915C91042B152BAAE9BA
:10268000B1E00D931C93AAE9B1E00D911C91A4E96E
:10269000B1E04D915527042B152BAAE9B1E00D931C
:1026A0001C9380919B018093B90180919A01809342
:1026B000BA010C946F1380911A048093940194E0F2
:1026C000A4E9B1E00E945D68809194018093B90112
:1026D00000911A044FE00423AAEBB1E00C9380911F
:1026E0009B018093B90180919A018093BA01009176
:1026F0001904003011F00C9482138CE68093B80119
:102700000C949213013011F00C948B138EE680938D
:10271000B8010C949213023011F00C94921380E7DC
:102720008093B80185E08093B7020C94B3130C300A
:1027300011F00C94B31382E08093B7010091190457
:10274000003011F00C94A91382E78093B8010C9427
:10275000AC1384E78093B80180911A048093B90187
:1027600084E08093B70208950091B501063010F41B
:102770000C94AB14AAEBB2E00C911127222733275B
:1027800040E050E060E071E00E942168A0EAB1E022
:102790000D931D932D933D93ABEBB2E00C9111275C
:1027A0002227332740E050E061E070E00E9421687A
:1027B000A7ECB3E00D931D932D933D93A0EAB1E0F8
:1027C0000D911D912D913C91A7ECB3E04D915D9140
:1027D0006D917C910E94C468A0EAB1E00D931D93B5
:1027E0002D933D93ACEBB2E00C91112722273327B8
:1027F00040E051E060E070E00E942168A7ECB3E0A7
:102800000D931D932D933D93A0EAB1E00D911D9181
:102810002D913C91A7ECB3E04D915D916D917C9130
:102820000E94C468A0EAB1E00D931D932D933D93DF
:10283000A0EAB1E00D911D912D913C91ADEBB2E07C
:102840004C915527662777270E94C468A0EAB1E01B
:102850000D931D932D933D9340ED5CE46BEE7BE077
:10286000A0EAB1E00D911D912D913C91041715073F
:102870002607370710F00C94491400ED1CE42BEEEA
:102880003BE0A4EAB1E00D931D932D933C930C948F
:102890008914A0EAB1E00D911D912D913C9140E089
:1028A00054E867ED77E10E94C468A0EAB1E00D93B7
:1028B0001D932D933D93A0EAB1E08C9184FBAAEB8C
:1028C000B2E0882780F98C93A0EAB1E08C9183FB79
:1028D000ABEBB2E0882780F98C93A0EAB1E08C9151
:1028E00082FBACEBB2E0882780F98C93A0EAB1E0E0
:1028F0008C9181FBADEBB2E0882780F98C9300EBE3
:1029000010E725EF3BE1A4EAB1E00D931D932D9371
:102910003C9382E08093980182E0809397010E942B
:102920007109A0E0B1E08C91803011F40C94A214F4
:1029300080E08093000186E08093D5030E94DA0650
:102940000C94A91484E08093BD038091B703809315
:10295000BE030E947B030895A0E0B1E0E2E3F3ED43
:102960000E94BE680E94446881E08093D5030E9463
:10297000DA0608950091B501043010F40C940B159B
:102980000091BA02083081E008F080E08F93009156
:10299000BB02033081E008F080E09F918923882307
:1029A00011F40C94021586E0809300018091BA0224
:1029B0008093940100919401053018F011F00C946B
:1029C000E3140C94E814A4E9B1E08C918F5F8C932C
:1029D00080919401809301010091BB0241E0040FBA
:1029E000A4E9B1E00C93809194018093020183E00B
:1029F0008093D5030E94DA06809101018093160529
:102A00000C940B1584E08093BD038091B7038093F1
:102A1000BE030E947B030895A0E0B1E0E4E3F3ED80
:102A20000E94BE680E94446881E08093D5030E94A2
:102A3000DA06089582E08093000181E08093D50357
:102A40000E94DA060895A0E0B1E0E6E3F3ED0E940B
:102A5000BE680E94446881E08093D5030E94DA0634
:102A600080E08093140508950091B501033010F4BF
:102A70000C946D150091BA02043010F00C9464159A
:102A80008091BA028093940100919401023011F078
:102A90000C944D1580EA80939401009194010330C9
:102AA00011F00C94561580EB8093940187E080938D
:102AB0000001809194018093010182E08093D5030D
:102AC0000E94DA060C946D1584E08093BD0380911A
:102AD000B7038093BE030E947B030895A0E0B1E09A
:102AE000E8E3F3ED0E94BE680E94446881E08093B1
:102AF000D5030E94DA0681E08093140508950091C1
:102B0000B501033010F40C94CB150091BA020B36CA
:102B100010F00C94C2150091BA02033610F00C9418
:102B2000A41580E0809394010091BA0241E0040F63
:102B3000A5E9B1E00C93809195010E94EC67A5E9AD
:102B4000B1E08C930C94B01581E080939401809156
:102B5000BA0280939501A5E9B1E08C9183568C93DC
:102B600088E080930001809194018093010180911D
:102B700095018093020183E08093D5030E94DA06D9
:102B80000C94CB1584E08093BD038091B7038093B0
:102B9000BE030E947B0308950091B501033010F439
:102BA0000C94F5150091BA02053010F00C94EC1558
:102BB00088E08093000180EA809301010091BA02CD
:102BC00041E0040FA2E0B1E00C9383E08093D503D1
:102BD0000E94DA060C94F51584E08093BD03809181
:102BE000B7038093BE030E947B030895A0E0B1E089
:102BF000EAE3F3ED0E94BE680E94446881E080939E
:102C0000D5030E94DA060895A0E0B1E0ECE3F3ED0D
:102C10000E94BE680E94446881E08093D5030E94B0
:102C2000DA060895A0E0B1E0EEE3F3ED0E94BE689D
:102C30000E94446881E08093D5030E94DA060895DB
:102C40000091B501043010F40C94AE168DE0809321
:102C500000018091BA0280939B018091BB02809316
:102C60009A0140E452E46FE070E0AAE9B1E00D910E
:102C70001C91222733270E94CE680CF402C00C94CA
:102C8000A516A3ECB3E00D911D912D913C9140E16F
:102C900057E260E070E00E949467A7ECB3E04D93C8
:102CA0005D936D937D938091C7038093950180918F
:102CB00095010E94EC67A3E0B1E08C93AAE9B1E032
:102CC0000D911C9140E157E20E942C67AAE9B1E006
:102CD0000D931C93AAE9B1E00D911C912227332793
:102CE00044E650E060E070E00E949467A7ECB3E037
:102CF0004D935D936D937D938091C7038093950170
:102D0000809195010E94EC67A2E0B1E08C93AAE962
:102D1000B1E00D911C9144E650E00E942C67AAE9B5
:102D2000B1E00D931C9380919A018093950180915D
:102D300095010E94EC67A1E0B1E08C9384E0809360
:102D4000D5030E94DA060C94AC1684E08093BD0390
:102D50008091B7038093BE030E947B030895A0E097
:102D6000B1E0E0E4F3ED0E94BE680E94446881E0B7
:102D70008093D5030E94DA0608950091B5010330CF
:102D800010F40C94EE160091BA02053010F00C9479
:102D9000E5168EE0809300018091B90280930101D5
:102DA00000910101023018F011F00C94D9160C9426
:102DB000DE16A1E0B1E08C91815E8C9382E080937D
:102DC000D5030E94DA060C94EE1684E08093BD03CE
:102DD0008091B7038093BE030E947B0308958EE029
:102DE0008093000180EB8093010182E08093D50302
:102DF0000E94DA0608958EE08093000181EB8093B3
:102E0000010182E08093D5030E94DA0608950091C3
:102E1000B501033010F40C9434170091BA0202305B
:102E200010F00C942B178EE0809300010091BA02F1
:102E3000003011F00C94211780ED809301010C9467
:102E4000241783ED8093010182E08093D5030E94D3
:102E5000DA060C94341784E08093BD038091B703A5
:102E60008093BE030E947B0308950091B501033057
:102E700010F40C9466170091BA02053010F00C940F
:102E80005D178FE0809300010091BA02013018F0C5
:102E900011F00C944D170C945217AAEBB2E08C91E0
:102EA000825F8C938091BA028093010182E08093CB
:102EB000D5030E94DA060C94661784E08093BD0364
:102EC0008091B7038093BE030E947B030895009115
:102ED000B501033010F40C948D170091BA020B3039
:102EE00010F00C94841780E1809300018091BA0265
:102EF0000E94EC67A1E0B1E08C9382E08093D5035F
:102F00000E94DA060C948D1784E08093BD038091B3
:102F1000B7038093BE030E947B0308950091B5011F
:102F2000033010F40C94BD170091BA02023010F077
:102F30000C94B41781E18093000180E080939401A8
:102F40000091BA02013011F00C94A91782E180932C
:102F50009401809194018093010182E08093D503D4
:102F60000E94DA060C94BD1784E08093BD03809123
:102F7000B7038093BE030E947B03089581E1809391
:102F8000000181E08093D5030E94DA060895009144
:102F9000B501033010F40C94EA170091BA02033023
:102FA00010F00C94E11783E1809300018091BA0244
:102FB0008093010182E08093D5030E94DA060C948D
:102FC000EA1784E08093BD038091B7038093BE032A
:102FD0000E947B03089584E18093D10381E0809374
:102FE000D2030E944108089584E1A0E0B1E08D93EE
:102FF00088278C9381E0A0E0B1E00E9446678D9322
:1030000088278C9382E08093D5030E94DA06089586
:1030100081E08093D4030E947008089584E1A0E0C9
:10302000B1E08D9388278C9382E0A0E0B1E00E940C
:1030300046678D9388278C9382E08093D5030E9406
:10304000DA06089584E18093D10383E08093D2036C
:103050000E944108089584E1A0E0B1E08D938827A3
:103060008C9383E0A0E0B1E00E9446678D938827AF
:103070008C9382E08093D5030E94DA06089584E160
:103080008093D10386E08093D2030E944108089583
:1030900084E1A0E0B1E08D9388278C9386E0A0E0E6
:1030A000B1E00E9446678D9388278C9382E08093DD
:1030B000D5030E94DA06089584E18093D10387E066
:1030C0008093D2030E944108089584E1A0E0B1E01A
:1030D0008D9388278C9387E0A0E0B1E00E9446673B
:1030E0008D9388278C9382E08093D5030E94DA0623
:1030F00084E18093D10388E08093D2030E94410849
:10310000089584E1A0E0B1E08D9388278C9388E056
:10311000A0E0B1E00E9446678D9388278C9382E0FF
:103120008093D5030E94DA06089584E18093D10349
:1031300089E08093D2030E944108089584E1A0E0D1
:10314000B1E08D9388278C9389E0A0E0B1E00E94E4
:1031500046678D9388278C9382E08093D5030E94E5
:10316000DA06089584E18093D1038AE08093D20344
:103170000E944108089584E1A0E0B1E08D93882782
:103180008C938AE0A0E0B1E00E9446678D93882787
:103190008C9382E08093D5030E94DA06089584E13F
:1031A0008093D1038BE08093D2030E94410808955D
:1031B00084E1A0E0B1E08D9388278C938BE0A0E0C0
:1031C000B1E00E9446678D9388278C9382E08093BC
:1031D000D5030E94DA06089584E18093D1038CE040
:1031E0008093D2030E944108089584E1A0E0B1E0F9
:1031F0008D9388278C938CE0A0E0B1E00E94466715
:103200008D9388278C9382E08093D5030E94DA0601
:10321000089584E18093D1038DE08093D2030E94CE
:103220004108089584E1A0E0B1E08D9388278C9354
:103230008DE0A0E0B1E00E9446678D9388278C93D3
:1032400082E08093D5030E94DA06089584E180939A
:10325000D1038EE08093D2030E944108089584E157
:10326000A0E0B1E08D9388278C938EE0A0E0B1E0E0
:103270000E9446678D9388278C9382E08093D503C4
:103280000E94DA0684E18093D1038FE08093D20319
:103290000E944108089584E1A0E0B1E08D93882761
:1032A0008C938FE0A0E0B1E00E9446678D93882761
:1032B0008C9382E08093D5030E94DA06089584E11E
:1032C0008093D10382E18093D2030E94410884E17C
:1032D000A0E0B1E08D9388278C9382E1A0E0B1E07B
:1032E0000E9446678D9388278C9382E08093D50354
:1032F0000E94DA06089584E18093D10385E18093EA
:10330000D2030E944108089584E1A0E0B1E08D93CA
:1033100088278C9385E1A0E0B1E00E9446678D93F9
:1033200088278C9382E08093D5030E94DA06089563
:1033300084E18093D10386E18093D2030E94410807
:10334000089584E1A0E0B1E08D9388278C9386E115
:10335000A0E0B1E00E9446678D9388278C9382E0BD
:103360008093D5030E94DA06089584E18093D10307
:1033700087E18093D2030E944108089584E1A0E090
:10338000B1E08D9388278C9387E1A0E0B1E00E94A3
:1033900046678D9388278C9382E08093D5030E94A3
:1033A000DA06089584E18093D10388E18093D20303
:1033B0000E944108089584E1A0E0B1E08D93882740
:1033C0008C9388E1A0E0B1E00E9446678D93882746
:1033D0008C9382E08093D5030E94DA06089584E1FD
:1033E0008093D10389E18093D2030E94410808951C
:1033F00084E1A0E0B1E08D9388278C9389E1A0E07F
:10340000B1E00E9446678D9388278C9382E0809379
:10341000D5030E94DA06089584E18093D1038AE1FE
:103420008093D2030E944108089584E1A0E0B1E0B6
:103430008D9388278C938AE1A0E0B1E00E944667D3
:103440008D9388278C9382E08093D5030E94DA06BF
:10345000089585E1A0E0B1E08D9388278C9381E009
:10346000A0E0B1E00E9446678D9388278C9382E0AC
:103470008093D5030E94DA06089585E1A0E0B1E0CB
:103480008D9388278C9382E0A0E0B1E00E9446678C
:103490008D9388278C9382E08093D5030E94DA066F
:1034A000089585E1A0E0B1E08D9388278C9381E1B8
:1034B000A0E0B1E00E9446678D9388278C9382E05C
:1034C0008093D5030E94DA06089585E1A0E0B1E07B
:1034D0008D9388278C9382E1A0E0B1E00E9446673B
:1034E0008D9388278C9382E08093D5030E94DA061F
:1034F000089585E1A0E0B1E08D9388278C9383E166
:10350000A0E0B1E00E9446678D9388278C9382E00B
:103510008093D5030E94DA06089585E1A0E0B1E02A
:103520008D9388278C9384E1A0E0B1E00E944667E8
:103530008D9388278C9382E08093D5030E94DA06CE
:10354000089586E18093D10382E08093D20382E0E4
:10355000809394010E94E807089586E1A0E0B1E01D
:103560008D9388278C9382E0A0E0B1E00E944667AB
:103570008D9388278C9382E08093D5030E94DA068E
:10358000089586E18093D10382E18093D20383E0A2
:10359000809394010E941308089586E1A0E0B1E0B1
:1035A0008D9388278C9382E1A0E0B1E00E9446676A
:1035B0008D9388278C9382E08093D5030E94DA064E
:1035C000089586E18093D10382E28093D20382E062
:1035D000809394010E94E807089586E1A0E0B1E09D
:1035E0008D9388278C9382E2A0E0B1E00E94466729
:1035F0008D9388278C9382E08093D5030E94DA060E
:10360000089586E18093D10380E48093D20382E021
:10361000809394010E94E807089586E1A0E0B1E05C
:103620008D9388278C9380E4A0E0B1E00E944667E8
:103630008D9388278C9382E08093D5030E94DA06CD
:10364000089586E18093D10381E48093D20382E0E0
:10365000809394010E94E807089586E1A0E0B1E01C
:103660008D9388278C9381E4A0E0B1E00E944667A7
:103670008D9388278C9382E08093D5030E94DA068D
:10368000089586E18093D10382E48093D20382E09F
:10369000809394010E94E807089586E1A0E0B1E0DC
:1036A0008D9388278C9382E4A0E0B1E00E94466766
:1036B0008D9388278C9382E08093D5030E94DA064D
:1036C000089586E18093D10383E48093D20382E05E
:1036D000809394010E94E807089586E1A0E0B1E09C
:1036E0008D9388278C9383E4A0E0B1E00E94466725
:1036F0008D9388278C9382E08093D5030E94DA060D
:10370000089586E18093D10384E48093D20382E01C
:10371000809394010E94E807089586E1A0E0B1E05B
:103720008D9388278C9384E4A0E0B1E00E944667E3
:103730008D9388278C9382E08093D5030E94DA06CC
:10374000089586E18093D10385E48093D20382E0DB
:10375000809394010E94E807089586E1A0E0B1E01B
:103760008D9388278C9385E4A0E0B1E00E944667A2
:103770008D9388278C9382E08093D5030E94DA068C
:10378000089586E18093D10386E48093D20382E09A
:10379000809394010E94E807089586E1A0E0B1E0DB
:1037A0008D9388278C9386E4A0E0B1E00E94466761
:1037B0008D9388278C9382E08093D5030E94DA064C
:1037C000089586E18093D10387E48093D20383E058
:1037D000809394010E94E807089586E1A0E0B1E09B
:1037E0008D9388278C9387E4A0E0B1E00E94466720
:1037F0008D9388278C9382E08093D5030E94DA060C
:10380000089586E18093D10388E48093D20382E017
:10381000809394010E94E807089586E1A0E0B1E05A
:103820008D9388278C9388E4A0E0B1E00E944667DE
:103830008D9388278C9382E08093D5030E94DA06CB
:10384000089586E18093D1038BE48093D20382E0D4
:10385000809394010E94E807089586E1A0E0B1E01A
:103860008D9388278C938BE4A0E0B1E00E9446679B
:103870008D9388278C9382E08093D5030E94DA068B
:10388000089586E18093D1038CE48093D20382E093
:10389000809394010E94E807089586E1A0E0B1E0DA
:1038A0008D9388278C938CE4A0E0B1E00E9446675A
:1038B0008D9388278C9382E08093D5030E94DA064B
:1038C000089586E18093D1038FE48093D20382E050
:1038D000809394010E94E807089586E1A0E0B1E09A
:1038E0008D9388278C938FE4A0E0B1E00E94466717
:1038F0008D9388278C9382E08093D5030E94DA060B
:10390000089586E18093D10380E58093D20383E01C
:10391000809394010E94E807089586E1A0E0B1E059
:103920008D9388278C9380E5A0E0B1E00E944667E4
:103930008D9388278C9382E08093D5030E94DA06CA
:10394000089586E18093D10381E58093D20382E0DC
:10395000809394010E94E807089586E1A0E0B1E019
:103960008D9388278C9381E5A0E0B1E00E944667A3
:103970008D9388278C9382E08093D5030E94DA068A
:10398000089589E1A0E0B1E08D9388278C9381E0D0
:103990008093D5030E94DA0608950091B5010330A3
:1039A00010F40C94101D0091BA02073610F00C941C
:1039B000071D8AE1A0E0B1E08D9388278C9380E019
:1039C000A0E0B1E00E9446678D9388278C93009118
:1039D000BA02043610F00C94F61C80E080930201C9
:1039E0008091BA02809303010C94001D81E08093C2
:1039F00002010091BA0244E6041BA3E0B1E00C937B
:103A000084E08093D5030E94DA060C94101D84E0B4
:103A10008093BD038091B7038093BE030E947B0314
:103A200008950091B501033010F40C94541D0091D9
:103A3000BA02073610F00C944B1D8AE1A0E0B1E009
:103A40008D9388278C9380E0A0E0B1E00E944667C8
:103A50008D9388278C930091BA02043610F00C9451
:103A60003A1D80E0809302018091BA0280930301A5
:103A70000C94441D81E0809302010091BA0244E657
:103A8000041BA3E0B1E00C9384E08093D5030E9473
:103A9000DA060C94541D84E08093BD038091B70333
:103AA0008093BE030E947B0308950091B501083006
:103AB00010F40C94EC1D0091BA020D3081E008F076
:103AC00080E08F930091BB02033081E008F080E03A
:103AD0009F918923882311F40C94E31D8091BB02EC
:103AE0008093940100919401003018F011F00C942F
:103AF0007B1D0C94E11D00919401073410F00C948F
:103B0000D81D0091940144E0040FA5E9B1E00C93A5
:103B1000409195010091B501041710F40C94D61D45
:103B2000AAEBB2E08C918F5F8C938AE1A0E0B1E0C8
:103B30008D9388278C9382E0A0E0B1E00E944667D5
:103B40008D9388278C938091BA028093020181E043
:103B5000809395014091940100919501041718F00C
:103B600011F00C94CD1DA5E9B1E0AD90BB24ABEBF9
:103B7000B2E0AA0DBB1D8C91A5E9B1E0AD90BB24CC
:103B8000A2E0B1E0AA0DBB1D8C93A5E9B1E08C9138
:103B90008F5F8C9310F40C94AA1D0091940143E064
:103BA000040FA5EDB3E00C930E94DA060C94E11D1E
:103BB00084E08093BD038091B7038093BE030E948D
:103BC0007B030C94EC1D84E08093BD038091B703CC
:103BD0008093BE030E947B0308950091B5010430D9
:103BE00010F40C94321E0091BA020D3081E008F0FE
:103BF00080E08F930091BB02033081E008F080E009
:103C00009F918923882311F40C94291E8AE1A0E056
:103C1000B1E08D9388278C9381E0A0E0B1E00E9411
:103C200046678D9388278C930091BA0241E0040F78
:103C3000A2E0B1E00C930091BB0241E0040FA3E0CD
:103C4000B1E00C9384E08093D5030E94DA060C94D3
:103C5000321E84E08093BD038091B7038093BE033E
:103C60000E947B0308950091B501043010F40C9478
:103C7000CD1E0091BA02043010F00C94C41E809145
:103C8000BB028093940100919401003018F011F070
:103C90000C944C1E0C94C21E00919401073410F039
:103CA0000C94B91E0091940144E0040FA5E9B1E021
:103CB0000C93409195010091B501041710F40C94F8
:103CC000B71EAAEBB2E08C918F5F8C938AE1A0E0E3
:103CD000B1E08D9388278C9385E0A0E0B1E00E944D
:103CE00046678D9388278C9380E0A0E0B1E00E9426
:103CF00046678D9388278C9382E0A0E0B1E00E9414
:103D000046678D9388278C938091BA028093030134
:103D100081E08093950140919401009195010417F1
:103D200018F011F00C94AE1EA5E9B1E0AD90BB24E3
:103D3000ABEBB2E0AA0DBB1D8C91A5E9B1E0AD9053
:103D4000BB24A4E0B1E0AA0DBB1D8C93A5E9B1E0B2
:103D50008C918F5F8C9310F40C948B1E00919401C6
:103D600045E0040FA5EDB3E00C930E94DA060C9435
:103D7000C21E84E08093BD038091B7038093BE038D
:103D80000E947B030C94CD1E84E08093BD03809140
:103D9000B7038093BE030E947B0308950091B50191
:103DA000033010F40C940F1F0091BA02043010F08D
:103DB0000C94061F8AE1A0E0B1E08D9388278C93D4
:103DC00085E0A0E0B1E00E9446678D9388278C9340
:103DD00080E0A0E0B1E00E9446678D9388278C9335
:103DE00082E0A0E0B1E00E9446678D9388278C9323
:103DF0000091BA0241E0040FA4E0B1E00C9383E02B
:103E00008093D5030E94DA060C940F1F84E0809300
:103E1000BD038091B7038093BE030E947B03089586
:103E200000911605023011F00C94201F83E080935E
:103E3000D20382E3809394010E9438070C94271FD9
:103E400084E08093BD038091B7038093BE030895FF
:103E500000911605023011F00C94491F8AE1A0E090
:103E6000B1E08D9388278C9383E0A0E0B1E00E94BD
:103E700046678D9388278C9382E08093D50380E7F3
:103E800090E0A7E1B5E08D939C930E94DA060C9434
:103E9000501F84E08093BD038091B7038093BE03DD
:103EA000089500911605023011F40C94611F83E00F
:103EB0008093D20382E3809394010E9438070C948C
:103EC000681F84E08093BD038091B7038093BE0395
:103ED000089500911605023011F40C948A1F8AE1AE
:103EE000A0E0B1E08D9388278C9383E0A0E0B1E05F
:103EF0000E9446678D9388278C9382E08093D50338
:103F000082E790E0A7E1B5E08D939C930E94DA06EA
:103F10000C94911F84E08093BD038091B70380933C
:103F2000BE03089500911605023011F00C94A21FF3
:103F300084E08093D2038EE0809394010E9438073E
:103F40000C94A91F84E08093BD038091B7038093F4
:103F5000BE03089500911605023011F00C94CB1F9A
:103F60008AE1A0E0B1E08D9388278C9384E0A0E003
:103F7000B1E00E9446678D9388278C9382E08093FE
:103F8000D50384E790E0A7E1B5E08D939C930E9470
:103F9000DA060C94D21F84E08093BD038091B703AE
:103FA0008093BE03089500911605023011F40C941D
:103FB000E31F84E08093D2038EE0809394010E94FB
:103FC00038070C94EA1F84E08093BD038091B70307
:103FD0008093BE03089500911605023011F40C94ED
:103FE0000C208AE1A0E0B1E08D9388278C9384E0D7
:103FF000A0E0B1E00E9446678D9388278C9382E011
:104000008093D50386E790E0A7E1B5E08D939C937C
:104010000E94DA060C94132084E08093BD03809103
:10402000B7038093BE03089583E08093940183E0F7
:104030008093D4030E94650708958AE1A0E0B1E06F
:104040008D9388278C9385E0A0E0B1E00E944667BD
:104050008D9388278C9380E0A0E0B1E00E944667B2
:104060008D9388278C9383E0A0E0B1E00E9446679F
:104070008D9388278C9384E08093D5030E94DA0681
:10408000089583E08093940184E08093D4030E9498
:10409000950808958AE1A0E0B1E08D9388278C937C
:1040A00085E0A0E0B1E00E9446678D9388278C935D
:1040B00080E0A0E0B1E00E9446678D9388278C9352
:1040C00084E0A0E0B1E00E9446678D9388278C933E
:1040D00084E08093D5030E94DA06089583E08093FC
:1040E000940185E08093D4030E94950808958AE1A5
:1040F000A0E0B1E08D9388278C9385E0A0E0B1E04B
:104100000E9446678D9388278C9380E0A0E0B1E001
:104110000E9446678D9388278C9385E0A0E0B1E0EC
:104120000E9446678D9388278C9384E08093D50303
:104130000E94DA06089583E08093940186E08093DC
:10414000D4030E94950808958AE1A0E0B1E08D9320
:1041500088278C9385E0A0E0B1E00E9446678D93AC
:1041600088278C9380E0A0E0B1E00E9446678D93A1
:1041700088278C9386E0A0E0B1E00E9446678D938B
:1041800088278C9384E08093D5030E94DA060895F3
:1041900083E08093940187E08093D4030E94950884
:1041A00008958AE1A0E0B1E08D9388278C9385E0A3
:1041B000A0E0B1E00E9446678D9388278C9380E051
:1041C000A0E0B1E00E9446678D9388278C9387E03A
:1041D000A0E0B1E00E9446678D9388278C9384E02D
:1041E0008093D5030E94DA06089583E080939401BA
:1041F00088E08093D4030E94950808958AE1A0E0A6
:10420000B1E08D9388278C9385E0A0E0B1E00E9417
:1042100046678D9388278C9380E0A0E0B1E00E94F0
:1042200046678D9388278C9388E0A0E0B1E00E94D8
:1042300046678D9388278C9384E08093D5030E94F2
:10424000DA06089582E08093940189E08093D40394
:104250000E94950808958AE1A0E0B1E08D93882737
:104260008C9385E0A0E0B1E00E9446678D9388279B
:104270008C9380E0A0E0B1E00E9446678D93882790
:104280008C9389E0A0E0B1E00E9446678D93882777
:104290008C9384E08093D5030E94DA06089583E02E
:1042A0008093940180E18093D4030E94950808953F
:1042B0008AE1A0E0B1E08D9388278C9385E0A0E0AF
:1042C000B1E00E9446678D9388278C9380E0A0E040
:1042D000B1E00E9446678D9388278C9380E1A0E02F
:1042E000B1E00E9446678D9388278C9384E0809389
:1042F000D5030E94DA06089583E08093940181E15A
:104300008093D4030E94950808958AE1A0E0B1E06B
:104310008D9388278C9385E0A0E0B1E00E944667EA
:104320008D9388278C9380E0A0E0B1E00E944667DF
:104330008D9388278C9381E1A0E0B1E00E944667CD
:104340008D9388278C9384E08093D5030E94DA06AE
:10435000089582E08093940182E18093D4030E94C7
:10436000950808958AE1A0E0B1E08D9388278C93A9
:1043700085E0A0E0B1E00E9446678D9388278C938A
:1043800080E0A0E0B1E00E9446678D9388278C937F
:1043900082E1A0E0B1E00E9446678D9388278C936C
:1043A00084E08093D5030E94DA06089583E1809328
:1043B000D4030E94EF0808958AE1A0E0B1E08D9354
:1043C00088278C9385E0A0E0B1E00E9446678D933A
:1043D00088278C9380E0A0E0B1E00E9446678D932F
:1043E00088278C9383E1A0E0B1E00E9446678D931B
:1043F00088278C9384E08093D5030E94DA06089581
:1044000089E78093940184E18093D4030E949D07FF
:1044100008958AE1A0E0B1E08D9388278C9385E030
:10442000A0E0B1E00E9446678D9388278C9380E0DE
:10443000A0E0B1E00E9446678D9388278C9384E1C9
:10444000A0E0B1E00E9446678D9388278C9384E0BA
:104450008093D5030E94DA06089585E18093D40302
:104460000E94EF0808958AE1A0E0B1E08D938827CB
:104470008C9385E0A0E0B1E00E9446678D93882789
:104480008C9380E0A0E0B1E00E9446678D9388277E
:104490008C9385E1A0E0B1E00E9446678D93882768
:1044A0008C9384E08093D5030E94DA06089582E01D
:1044B0008093940186E18093D4030E949508089527
:1044C0008AE1A0E0B1E08D9388278C9385E0A0E09D
:1044D000B1E00E9446678D9388278C9380E0A0E02E
:1044E000B1E00E9446678D9388278C9386E1A0E017
:1044F000B1E00E9446678D9388278C9384E0809377
:10450000D5030E94DA06089587E18093D4030E94C0
:10451000EF0808958AE1A0E0B1E08D9388278C939D
:1045200085E0A0E0B1E00E9446678D9388278C93D8
:1045300080E0A0E0B1E00E9446678D9388278C93CD
:1045400087E1A0E0B1E00E9446678D9388278C93B5
:1045500084E08093D5030E94DA06089588E1809371
:10456000D4030E94EF0808958AE1A0E0B1E08D93A2
:1045700088278C9385E0A0E0B1E00E9446678D9388
:1045800088278C9380E0A0E0B1E00E9446678D937D
:1045900088278C9388E1A0E0B1E00E9446678D9364
:1045A00088278C9384E08093D5030E94DA060895CF
:1045B00089E18093D4030E94EF0808958AE1A0E086
:1045C000B1E08D9388278C9385E0A0E0B1E00E9454
:1045D00046678D9388278C9380E0A0E0B1E00E942D
:1045E00046678D9388278C9389E1A0E0B1E00E9413
:1045F00046678D9388278C9384E08093D5030E942F
:10460000DA06089580E28093D4030E94EF080895AB
:104610008AE1A0E0B1E08D9388278C9385E0A0E04B
:10462000B1E00E9446678D9388278C9380E0A0E0DC
:10463000B1E00E9446678D9388278C9380E2A0E0CA
:10464000B1E00E9446678D9388278C9384E0809325
:10465000D5030E94DA06089581E28093D4030E9474
:10466000EF0808958AE1A0E0B1E08D9388278C934C
:1046700085E0A0E0B1E00E9446678D9388278C9387
:1046800080E0A0E0B1E00E9446678D9388278C937C
:1046900081E2A0E0B1E00E9446678D9388278C9369
:1046A00084E08093D5030E94DA06089583E0809326
:1046B000940182E28093D4030E94950808958AE1D0
:1046C000A0E0B1E08D9388278C9385E0A0E0B1E075
:1046D0000E9446678D9388278C9380E0A0E0B1E02C
:1046E0000E9446678D9388278C9382E2A0E0B1E018
:1046F0000E9446678D9388278C9384E08093D5032E
:104700000E94DA06089582E08093940183E2809308
:10471000D4030E94950808958AE1A0E0B1E08D934A
:1047200088278C9385E0A0E0B1E00E9446678D93D6
:1047300088278C9380E0A0E0B1E00E9446678D93CB
:1047400088278C9383E2A0E0B1E00E9446678D93B6
:1047500088278C9384E08093D5030E94DA0608951D
:1047600082E08093940184E28093D4030E949508B0
:1047700008958AE1A0E0B1E08D9388278C9385E0CD
:10478000A0E0B1E00E9446678D9388278C9380E07B
:10479000A0E0B1E00E9446678D9388278C9384E265
:1047A000A0E0B1E00E9446678D9388278C9384E057
:1047B0008093D5030E94DA06089582E080939401E5
:1047C00085E28093D4030E94950808958AE1A0E0D1
:1047D000B1E08D9388278C9385E0A0E0B1E00E9442
:1047E00046678D9388278C9380E0A0E0B1E00E941B
:1047F00046678D9388278C9385E2A0E0B1E00E9404
:1048000046678D9388278C9384E08093D5030E941C
:10481000DA06089582E08093940186E28093D403BF
:104820000E94950808958AE1A0E0B1E08D93882761
:104830008C9385E0A0E0B1E00E9446678D938827C5
:104840008C9380E0A0E0B1E00E9446678D938827BA
:104850008C9386E2A0E0B1E00E9446678D938827A2
:104860008C9384E08093D5030E94DA06089582E059
:104870008093940187E28093D4030E949508089561
:104880008AE1A0E0B1E08D9388278C9385E0A0E0D9
:10489000B1E00E9446678D9388278C9380E0A0E06A
:1048A000B1E00E9446678D9388278C9387E2A0E051
:1048B000B1E00E9446678D9388278C9384E08093B3
:1048C000D5030E94DA06089582E08093940188E27D
:1048D0008093D4030E94950808958AE1A0E0B1E096
:1048E0008D9388278C9385E0A0E0B1E00E94466715
:1048F0008D9388278C9380E0A0E0B1E00E9446670A
:104900008D9388278C9388E2A0E0B1E00E944667EF
:104910008D9388278C9384E08093D5030E94DA06D8
:10492000089582E08093940189E28093D4030E94E9
:10493000950808958AE1A0E0B1E08D9388278C93D3
:1049400085E0A0E0B1E00E9446678D9388278C93B4
:1049500080E0A0E0B1E00E9446678D9388278C93A9
:1049600089E2A0E0B1E00E9446678D9388278C938E
:1049700084E08093D5030E94DA06089582E0809354
:10498000940180E38093D4030E94950808958AE1FE
:10499000A0E0B1E08D9388278C9385E0A0E0B1E0A2
:1049A0000E9446678D9388278C9380E0A0E0B1E059
:1049B0000E9446678D9388278C9380E3A0E0B1E046
:1049C0000E9446678D9388278C9384E08093D5035B
:1049D0000E94DA06089582E08093940181E3809337
:1049E000D4030E94950808958AE1A0E0B1E08D9378
:1049F00088278C9385E0A0E0B1E00E9446678D9304
:104A000088278C9380E0A0E0B1E00E9446678D93F8
:104A100088278C9381E3A0E0B1E00E9446678D93E4
:104A200088278C9384E08093D5030E94DA0608954A
:104A300082E08093940182E38093D4030E949508DE
:104A400008958AE1A0E0B1E08D9388278C9385E0FA
:104A5000A0E0B1E00E9446678D9388278C9380E0A8
:104A6000A0E0B1E00E9446678D9388278C9382E393
:104A7000A0E0B1E00E9446678D9388278C9384E084
:104A80008093D5030E94DA06089582E08093940112
:104A900083E38093D4030E94950808958AE1A0E0FF
:104AA000B1E08D9388278C9385E0A0E0B1E00E946F
:104AB00046678D9388278C9380E0A0E0B1E00E9448
:104AC00046678D9388278C9383E3A0E0B1E00E9432
:104AD00046678D9388278C9384E08093D5030E944A
:104AE000DA06089582E08093940184E38093D403EE
:104AF0000E94950808958AE1A0E0B1E08D9388278F
:104B00008C9385E0A0E0B1E00E9446678D938827F2
:104B10008C9380E0A0E0B1E00E9446678D938827E7
:104B20008C9384E3A0E0B1E00E9446678D938827D0
:104B30008C9384E08093D5030E94DA06089582E086
:104B40008093940185E38093D4030E94950808958F
:104B50008AE1A0E0B1E08D9388278C9385E0A0E006
:104B6000B1E00E9446678D9388278C9380E0A0E097
:104B7000B1E00E9446678D9388278C9385E3A0E07F
:104B8000B1E00E9446678D9388278C9384E08093E0
:104B9000D5030E94DA06089582E08093940186E3AB
:104BA0008093D4030E94950808958AE1A0E0B1E0C3
:104BB0008D9388278C9385E0A0E0B1E00E94466742
:104BC0008D9388278C9380E0A0E0B1E00E94466737
:104BD0008D9388278C9386E3A0E0B1E00E9446671E
:104BE0008D9388278C9384E08093D5030E94DA0606
:104BF00008950091B501033010F40C94772680914C
:104C0000BA028093940100919401003018F011F0E1
:104C10000C940C260C9477260091BA020B3010F0FD
:104C20000C9470260091940143E0040FA5E9B1E0D3
:104C30000C93409195010091B501041710F40C9468
:104C40006E268AE1A0E0B1E08D9388278C9385E001
:104C5000A0E0B1E00E9446678D9388278C9380E0A6
:104C6000A0E0B1E00E9446678D9388278C9387E38C
:104C7000A0E0B1E00E9446678D9388278C9381E085
:104C8000809396014091940100919601041718F0C9
:104C900011F00C946526A6E9B1E0AD90BB24AAEB17
:104CA000B2E0AA0DBB1D8C91A6E9B1E0AD90BB248A
:104CB000A3E0B1E0AA0DBB1D8C93A6E9B1E08C91F5
:104CC0008F5F8C9310F40C94422604E04091940181
:104CD000040FA5EDB3E00C930E94DA060C9477263E
:104CE00084E08093BD038091B7038093BE03089551
:104CF0008AE1A0E0B1E08D9388278C9385E0A0E065
:104D0000B1E00E9446678D9388278C9380E0A0E0F5
:104D1000B1E00E9446678D9388278C9387E3A0E0DB
:104D2000B1E00E9446678D9388278C9384E080933E
:104D3000D5030E94DA06089582E08093940188E307
:104D40008093D4030E94950808958AE1A0E0B1E021
:104D50008D9388278C9385E0A0E0B1E00E944667A0
:104D60008D9388278C9380E0A0E0B1E00E94466795
:104D70008D9388278C9388E3A0E0B1E00E9446677A
:104D80008D9388278C9384E08093D5030E94DA0664
:104D900008958AE1A0E0B1E08D9388278C9385E0A7
:104DA000A0E0B1E00E9446678D9388278C9380E055
:104DB000A0E0B1E00E9446678D9388278C9389E339
:104DC000A0E0B1E00E9446678D9388278C9380E233
:104DD000A0E0B1E00E9446678D9388278C93809174
:104DE000BA020E94EC67A5E0B1E08C9386E0809364
:104DF000D5030E94DA0608958AE1A0E0B1E08D9320
:104E000088278C9385E0A0E0B1E00E9446678D93EF
:104E100088278C9380E0A0E0B1E00E9446678D93E4
:104E200088278C9389E3A0E0B1E00E9446678D93C8
:104E300088278C9384E08093D5030E94DA06089536
:104E40000091B501043010F40C9473270091BA025C
:104E50000C3081E008F080E08F930091BB020F31AD
:104E600081E008F080E09F918923882311F40C945D
:104E70006C278AE1A0E0B1E08D9388278C9385E0D0
:104E8000A0E0B1E00E9446678D9388278C9380E074
:104E9000A0E0B1E00E9446678D9388278C9380E460
:104EA000A0E0B1E00E9446678D9388278C938091A3
:104EB000BB020E94EC67A4E0B1E08C938091BC023D
:104EC0000E94EC67A5E0B1E08C9386E08093D50367
:104ED0000E94DA060C94732784E08093BD038091CE
:104EE000B7038093BE0308958AE1A0E0B1E08D93FB
:104EF00088278C9385E0A0E0B1E00E9446678D93FF
:104F000088278C9380E0A0E0B1E00E9446678D93F3
:104F100088278C9380E4A0E0B1E00E9446678D93DF
:104F200088278C9384E08093D5030E94DA06089545
:104F30000091B501043010F40C94EB270091BA02F3
:104F4000083181E008F080E08F930091BB020C33C0
:104F500081E008F080E09F918923882311F40C946C
:104F6000E4278AE1A0E0B1E08D9388278C9385E067
:104F7000A0E0B1E00E9446678D9388278C9380E083
:104F8000A0E0B1E00E9446678D9388278C9381E46E
:104F9000A0E0B1E00E9446678D9388278C938091B2
:104FA000BA020E94EC67A4E0B1E08C938091BB024E
:104FB0000E94EC67A5E0B1E08C9386E08093D50376
:104FC0000E94DA060C94EB2784E08093BD03809165
:104FD000B7038093BE0308958AE1A0E0B1E08D930A
:104FE00088278C9385E0A0E0B1E00E9446678D930E
:104FF00088278C9380E0A0E0B1E00E9446678D9303
:1050000088278C9381E4A0E0B1E00E9446678D93ED
:1050100088278C9384E08093D5030E94DA06089554
:1050200082E08093940182E48093D4030E949508E7
:1050300008958AE1A0E0B1E08D9388278C9385E004
:10504000A0E0B1E00E9446678D9388278C9380E0B2
:10505000A0E0B1E00E9446678D9388278C9382E49C
:10506000A0E0B1E00E9446678D9388278C9384E08E
:105070008093D5030E94DA0608950091B5010430AB
:1050800010F40C94D8288091BA0280939B018091EF
:10509000BB0280939A01AAE9B1E00D911C91003402
:1050A0005BE0150710F00C94D1288AE1A0E0B1E094
:1050B0008D9388278C9385E0A0E0B1E00E9446673D
:1050C0008D9388278C9380E0A0E0B1E00E94466732
:1050D0008D9388278C9383E4A0E0B1E00E9446671B
:1050E0008D9388278C93AAE9B1E00D911C91043728
:1050F00054E0150718F011F00C948F2804E714E021
:10510000AAE9B1E04D915C91041B150BAAE9B1E04D
:105110000D931C9381E0809306010C949C28AAE9CE
:10512000B1E00D911C9104571440AAE9B1E00D9330
:105130001C9380E080930601AAE9B1E00D911C91D7
:105140004CE350E00E942C67ACE9B1E04D935C93D6
:1051500080919C0180939401AAE9B1E00D911C918A
:105160004CE350E00E942C67ACE9B1E00D931C9336
:1051700080919C0180939501809194010E94EC673D
:10518000A4E0B1E08C93809195010E94EC67A5E0CA
:10519000B1E08C9386E08093D5030E94DA060C94EC
:1051A000D82884E08093BD038091B7038093BE0329
:1051B00008958AE1A0E0B1E08D9388278C9385E083
:1051C000A0E0B1E00E9446678D9388278C9380E031
:1051D000A0E0B1E00E9446678D9388278C9383E41A
:1051E000A0E0B1E00E9446678D9388278C9384E00D
:1051F0008093D5030E94DA06089583E0809394019A
:1052000084E48093D4030E94950808958AE1A0E085
:10521000B1E08D9388278C9385E0A0E0B1E00E94F7
:1052200046678D9388278C9380E0A0E0B1E00E94D0
:1052300046678D9388278C9384E4A0E0B1E00E94B8
:1052400046678D9388278C9384E08093D5030E94D2
:10525000DA06089582E08093940185E48093D40374
:105260000E94950808958AE1A0E0B1E08D93882717
:105270008C9385E0A0E0B1E00E9446678D9388277B
:105280008C9380E0A0E0B1E00E9446678D93882770
:105290008C9385E4A0E0B1E00E9446678D93882757
:1052A0008C9384E08093D5030E94DA06089586E407
:1052B0008093D4030E94EF0808958AE1A0E0B1E052
:1052C0008D9388278C9385E0A0E0B1E00E9446672B
:1052D0008D9388278C9380E0A0E0B1E00E94466720
:1052E0008D9388278C9386E4A0E0B1E00E94466706
:1052F0008D9388278C9384E08093D5030E94DA06EF
:10530000089582E08093940187E48093D4030E94FF
:10531000950808958AE1A0E0B1E08D9388278C93E9
:1053200085E0A0E0B1E00E9446678D9388278C93CA
:1053300080E0A0E0B1E00E9446678D9388278C93BF
:1053400087E4A0E0B1E00E9446678D9388278C93A4
:1053500084E08093D5030E94DA06089582E080936A
:10536000940188E48093D4030E94950808958AE10B
:10537000A0E0B1E08D9388278C9385E0A0E0B1E0B8
:105380000E9446678D9388278C9380E0A0E0B1E06F
:105390000E9446678D9388278C9388E4A0E0B1E053
:1053A0000E9446678D9388278C9384E08093D50371
:1053B0000E94DA06089589E48093D4030E94EF08DE
:1053C00008958AE1A0E0B1E08D9388278C9385E071
:1053D000A0E0B1E00E9446678D9388278C9380E01F
:1053E000A0E0B1E00E9446678D9388278C9389E402
:1053F000A0E0B1E00E9446678D9388278C9384E0FB
:105400008093D5030E94DA06089582E08093940188
:1054100080E58093D4030E94950808958AE1A0E076
:10542000B1E08D9388278C9385E0A0E0B1E00E94E5
:1054300046678D9388278C9380E0A0E0B1E00E94BE
:1054400046678D9388278C9380E5A0E0B1E00E94A9
:1054500046678D9388278C9384E08093D5030E94C0
:10546000DA06089583E08093940181E58093D40364
:105470000E94950808958AE1A0E0B1E08D93882705
:105480008C9385E0A0E0B1E00E9446678D93882769
:105490008C9380E0A0E0B1E00E9446678D9388275E
:1054A0008C9381E5A0E0B1E00E9446678D93882748
:1054B0008C9384E08093D5030E94DA06089582E0FD
:1054C0008093940182E58093D4030E949508089507
:1054D0008AE1A0E0B1E08D9388278C9385E0A0E07D
:1054E000B1E00E9446678D9388278C9380E0A0E00E
:1054F000B1E00E9446678D9388278C9382E5A0E0F7
:10550000B1E00E9446678D9388278C9384E0809356
:10551000D5030E94DA0608950091B501043010F415
:105520000C94362B8091BA0280939B018091BB0230
:1055300080939A01AAE9B1E00D911C9100325EE4DA
:10554000150710F00C942D2B8AE1A0E0B1E08D93AB
:1055500088278C9385E0A0E0B1E00E9446678D9398
:1055600088278C9380E0A0E0B1E00E9446678D938D
:1055700088278C9383E5A0E0B1E00E9446678D9375
:1055800088278C93AAE9B1E00D911C91003157E274
:10559000150710F00C94DD2A81E0809307010FE0DD
:1055A00017E2AAE9B1E04D915C91041B150BAAE941
:1055B000B1E00D931C930C94EA2A80E080930701DC
:1055C000AAE9B1E00D911C91085E1340AAE9B1E08F
:1055D0000D931C930091C70348EE0E946D69A4E9E6
:1055E000B1E00C938091940180930601AAE9B1E0A7
:1055F0000D911C9148EE53E00E942C67AAE9B1E09E
:105600000D931C930091C7034AE00E946D69A4E9C1
:10561000B1E00C93809194010E94EC67A5E0B1E0A9
:105620008C9300919A014AE00E946D69A4E9B1E06F
:105630008C93A4E9B1E00C9140E1049F0C9280911D
:1056400094010E94EC67A4E0B1E08C9388E0809321
:10565000D5030E94DA060C94362B84E08093BD03B8
:105660008091B7038093BE030E947B0308958AE173
:10567000A0E0B1E08D9388278C9385E0A0E0B1E0B5
:105680000E9446678D9388278C9380E0A0E0B1E06C
:105690000E9446678D9388278C9383E5A0E0B1E054
:1056A0000E9446678D9388278C9384E08093D5036E
:1056B0000E94DA06089582E08093940184E5809345
:1056C000D4030E94950808958AE1A0E0B1E08D938B
:1056D00088278C9385E0A0E0B1E00E9446678D9317
:1056E00088278C9380E0A0E0B1E00E9446678D930C
:1056F00088278C9384E5A0E0B1E00E9446678D93F3
:1057000088278C9384E08093D5030E94DA0608955D
:105710000091B501043010F40C940A2C8091BA0267
:1057200080939B018091BB0280939A01AAE9B1E02A
:105730000D911C91003157E2150710F00C94012CCB
:105740008AE1A0E0B1E08D9388278C9385E0A0E00A
:10575000B1E00E9446678D9388278C9380E0A0E09B
:10576000B1E00E9446678D9388278C9385E5A0E081
:10577000B1E00E9446678D9388278C930091C70300
:1057800048EE0E946D69A4E9B1E00C938091940108
:1057900080930601AAE9B1E00D911C9148EE53E017
:1057A0000E942C67AAE9B1E00D931C930091C703F6
:1057B0004AE00E946D69A4E9B1E00C9380919401E4
:1057C0000E94EC67A5E0B1E08C9300919A014AE059
:1057D0000E946D69A4E9B1E08C93A4E9B1E00C9159
:1057E00040E1049F0C92809194010E94EC67A4E038
:1057F000B1E08C9387E08093D5030E94DA060C9485
:105800000A2C84E08093BD038091B7038093BE038C
:105810000E947B0308958AE1A0E0B1E08D93882780
:105820008C9385E0A0E0B1E00E9446678D938827C5
:105830008C9380E0A0E0B1E00E9446678D938827BA
:105840008C9385E5A0E0B1E00E9446678D938827A0
:105850008C9384E08093D5030E94DA06089500912A
:10586000B501043010F40C94B12C8091BA028093ED
:105870009B018091BB0280939A01AAE9B1E00D914E
:105880001C91003157E2150710F00C94A82C8AE106
:10589000A0E0B1E08D9388278C9385E0A0E0B1E093
:1058A0000E9446678D9388278C9380E0A0E0B1E04A
:1058B0000E9446678D9388278C9386E5A0E0B1E02F
:1058C0000E9446678D9388278C930091C70348EE0A
:1058D0000E946D69A4E9B1E00C93809194018093DA
:1058E0000601AAE9B1E00D911C9148EE53E00E9437
:1058F0002C67AAE9B1E00D931C930091C7034AE01D
:105900000E946D69A4E9B1E00C93809194010E941A
:10591000EC67A5E0B1E08C9300919A014AE00E9407
:105920006D69A4E9B1E08C93A4E9B1E00C9140E188
:10593000049F0C92809194010E94EC67A4E0B1E076
:105940008C9387E08093D5030E94DA060C94B12CE7
:1059500084E08093BD038091B7038093BE030E94CF
:105960007B0308958AE1A0E0B1E08D9388278C93B2
:1059700085E0A0E0B1E00E9446678D9388278C9374
:1059800080E0A0E0B1E00E9446678D9388278C9369
:1059900086E5A0E0B1E00E9446678D9388278C934E
:1059A00084E08093D5030E94DA0608950091B50142
:1059B000043010F40C94582D8091BA0280939B010E
:1059C0008091BB0280939A01AAE9B1E00D911C91EC
:1059D000003157E2150710F00C944F2D8AE1A0E03A
:1059E000B1E08D9388278C9385E0A0E0B1E00E9420
:1059F00046678D9388278C9380E0A0E0B1E00E94F9
:105A000046678D9388278C9387E5A0E0B1E00E94DC
:105A100046678D9388278C930091C70348EE0E94B8
:105A20006D69A4E9B1E00C93809194018093060123
:105A3000AAE9B1E00D911C9148EE53E00E942C6759
:105A4000AAE9B1E00D931C930091C7034AE00E94BC
:105A50006D69A4E9B1E00C93809194010E94EC6718
:105A6000A5E0B1E08C9300919A014AE00E946D6933
:105A7000A4E9B1E08C93A4E9B1E00C9140E1049F6A
:105A80000C92809194010E94EC67A4E0B1E08C93A9
:105A900087E08093D5030E94DA060C94582D84E0A9
:105AA0008093BD038091B7038093BE030E947B0364
:105AB00008958AE1A0E0B1E08D9388278C9385E07A
:105AC000A0E0B1E00E9446678D9388278C9380E028
:105AD000A0E0B1E00E9446678D9388278C9387E50C
