:100000000C94380018950000189500001895000011
:10001000189500001895000018950000189500002C
:10002000189500001895000018950000189500001C
:10003000189500001895000018950000189500000C
:1000400018950000189500001895000018950000FC
:100050000C943103189500001895000018950000C5
:1000600018950000189500001895000018950000DC
:100070008FEF8DBFC8EDE0EC4E2E80E18EBFD0E15A
:10008000F0E15F2EA89584B7082E882784BF88E109
:1000900099278093600090936000EEEFFFE0A0E06E
:1000A000B1E088278D933197E9F780E48093C4000D
:1000B00080E08093C50088E18093C100662480E8D9
:1000C0008093000184E690E00E942516E0E0FF277F
:1000D0000081AAE4B1E00C93AAE4B1E00C9103FB27
:1000E00016F00C947C0082E080939603809191033B
:1000F000809397030C947F008FEF809396030E9468
:100100000B162298429A3F9A479A2198299A239847
:100110002B9A74B7777F74BF8FE197E0809360006C
:100120009093600078947091C10070687093C100E2
:1001300070E07093B90071E17093B8000E943416BA
:100140001A990C94A5000E947401E1E0F0E0A0E18E
:10015000B0E00E94A217053011F40C94B1000E9487
:1001600074010E94C4010E942F0480916000886085
:1001700080936000A9E8B1E08C918F5F8C9300912F
:1001800089010F3F11F00C942401A8E8B1E08C9193
:100190008F5F8C93009188010A3511F00C94F9005F
:1001A00000919A03003018F011F00C94D9000C94CF
:1001B000F700AAE9B3E08C918F5F8C9300919A03CA
:1001C0000C3318F011F00C94E7000C94F70081E068
:1001D0008093900281E08093910280E080939A0363
:1001E00085E08093960380919103809397030C940C
:1001F00024010F3F11F00C942401A8E9B3E00D9104
:100200001C91003050E0150718F011F00C940A0111
:100210000C940E01A8E9B3E00E946115A8E9B3E0CF
:100220000D911C910C3350E0150718F011F00C944F
:100230001B010C94240183E0809396038091910329
:10024000809397030E945B0200919D03013011F09F
:100250000C94320100919F03003011F00C94320194
:100260000E94D90500919203003018F011F00C940F
:100270003B010C94710180E0809392030091910204
:10028000013018F011F00C9447010C94530180E0F8
:1002900080938F0186E080939603809191038093F1
:1002A00097030C947101A8E9B3E00D911C91003003
:1002B00050E0150711F00C946101A8E9B3E00E9429
:1002C000611580918F0180938E01009192020E3F03
:1002D00011F00C946F010E941D120C9471010E9488
:1002E0001D12A8950C94B500E1E0F0E00E9496156F
:1002F000E7E1F0E0A0E1BB2781E08C937BE70E947F
:100300008217A42DB52DE8E5F3E30E94E416E2E0A0
:10031000F0E0D2017BE70E949717EAE1F0E0A0E16C
:10032000BB2781E08C937BE70E948217EBE1F0E032
:10033000A0E1BB2781E08C937BE70E94821781E0DC
:1003400080939E0381E080939B03ECE1F0E0A0E1C9
:10035000BB2783E08C937BE70E948217A42DB52DE9
:10036000E2E6F3E30E94E416EDE1F0E0D2017BE780
:100370000E949717E1E0F0E0A0E1BB2785E08C93B5
:100380007BE70E948217089581E080939C03E7E158
:10039000F0E0A0E6B1E00E94A217E2E0F0E0ABE4FA
:1003A000B1E094E10E94AC17E8E1F0E0A1E6B1E031
:1003B0000E94A217E9E1F0E0A2E6B1E00E94A217D4
:1003C000EAE1F0E0A4E6B1E00E94A217EBE1F0E080
:1003D000A5E6B1E00E94A21780919E0380939D0341
:1003E0000E94940381E08093910380E080939703BF
:1003F00080E080939001ECE1F0E0AFE9B3E00E948F
:10040000A217EDE1F0E0A0EAB3E094E00E94AC179F
:100410000E945B0281E08093900281E080939102D0
:1004200080E080939A0380E08093880180E080934D
:10043000890183E08093680100916801003011F028
:100440000C942C0200E019EE24EA35E3ABE1B4E0B1
:100450000D931D932D933C931B990C94340280E0D3
:1004600080939B030C94370281E080939B0380E090
:100470008093AD0380E08093130480E080931404A4
:1004800080E08093150480E08093160483E08093DD
:100490009F0380E08093170480E08093190480918B
:1004A0009E0380939D03EDE1F0E0A0EAB3E094E0C9
:1004B0000E94AC17089580E080938E0180E08093C5
:1004C0008F0181E08093900280E090E0A8E9B3E0A2
:1004D0008D939C93A1E9B3E08C918F5F8C934091B5
:1004E000970300919103041711F00C947D0280E0B2
:1004F000809397038FEF80939603089580919102E4
:1005000081508093910281E0809369014091910232
:1005100000916901041718F011F00C94BA02A9E6D1
:10052000B1E0AD90BB24A0E9B1E0AA0DBB1D8C9158
:1005300080936A0100919C03003011F00C94AD028D
:1005400000919B03013011F00C94AB0231E0AAE65C
:10055000B1E00E948A150C94B20231E0AAE6B1E043
:100560000E948A15A9E6B1E08C918F5F8C9310F4FC
:100570000C94860200919C03003011F00C94CA0286
:1005800000919B03003011F00C94C8020E94D1042A
:100590000C94E00200919D03013011F00C94E002F4
:1005A00000919F03033010F00C94DA020E94D104F2
:1005B0000C94E002033011F00C94E0020E94320728
:1005C00081E08093900281E08093910280E08093AB
:1005D0009A030895E8E5F5E280E090E00E94F916BC
:1005E000A2E9B2E00E94E416A2E9B2E00E94C617B6
:1005F000AAE6B1E08C9380E08093910180916A013A
:100600008093920183E08093910281E0809369015D
:1006100040916A0100916901041718F011F00C94DF
:100620003003A9E6B1E0AD90BB24A1E9B2E0AA0D88
:10063000BB1D8C91A1E9B2E0AD90BB24A0E9B1E073
:10064000AA0DBB1D8C93A1E9B2E08C918F5F8C93B6
:10065000A9E6B1E08C918F5F8C9310F40C940803A1
:1006600008950F921F922F923F924F925F927F9226
:10067000AF92BF92CF92DF92EF92FF920F931F93B0
:100680002F933F934F935F936F937F938F939F939A
:10069000AF93BF93CF93DF93EF93FF938FB78F9376
:1006A000A8E6B1E08091C6008C930091630101300F
:1006B00011F00C94740300918F010A3F10F00C9418
:1006C0006603AFE8B1E08C918F5F8C9380916801F5
:1006D000AFE8B1E0AD90BB24A1E9B2E0AA0DBB1D2B
:1006E0008C9381E0809392038F918FBFFF91EF9164
:1006F000DF91CF91BF91AF919F918F917F916F913A
:100700005F914F913F912F911F910F91FF90EF902B
:10071000DF90CF90BF90AF907F905F904F903F90D1
:100720002F901F900F90189580E0809363010091A7
:100730006401013081E009F080E08F930091650150
:10074000013081E009F080E09F91892B882311F42A
:100750000C94AD0381E0809363010091620101304C
:1007600081E009F080E08F9300916301013081E026
:1007700009F080E09F91892B882311F40C94C00329
:1007800000919D03013011F00C94C603089581E09F
:100790008093680180E080936901009168010030D6
:1007A00011F00C94DE0300919B03003011F00C94C7
:1007B000DC0381E0809369010C94E70300919D03C1
:1007C000013011F00C94E70381E0809369010091FE
:1007D0006901013011F00C94FD030091A503003074
:1007E00011F00C94F7030E94A6060C94FD0303304D
:1007F00011F00C94FD030E944007089591E0A7EAD0
:10080000B3E00E9401169091AD03AEEAB3E00E94FE
:10081000F615089591E0A7EAB3E00E940116089545
:1008200092E0A7EAB3E00E940116089594E0A7EAD7
:10083000B3E00E94011608959091AD03A1E9B1E0E3
:100840000E940116089591E0A7EAB3E00E94011604
:1008500090911404AEEAB3E00E94F615089585E085
:100860008093240480E18093250480E08093260413
:1008700083E08A9310910001A4E2B4E00E948816FC
:10088000089583E08A9310910001A4E2B4E00E94ED
:100890008816089581E480936801109100011E7FFD
:1008A0000E944B160E945F1610911F040E945F1653
:1008B0000E9457162091000180E092E0A0E2B4E08F
:1008C0000E949316089580E080932804809120046C
:1008D00080936F018091210480936E0100916F01DC
:1008E0000F3718F011F00C9477040C949104AFE6D4
:1008F000B1E08C918C939FEF89278C93AEE6B1E0A9
:100900008C918C939FEF89278C93AFE6B1E08C910B
:100910008F778C93AEE6B1E00E94611581E0809301
:100920002804089581E88093A70380E88093A803B2
:100930000E941004089581E88093A70381E88093C2
:10094000A8030E941004089581E88093A70383E818
:100950008093A8030E941004089581E88093A70360
:1009600085E88093A8030E941004089582E1809393
:10097000A7038FEF8093A8030E94100408958DE0D1
:100980008093A70380E08093A8030E941004089539
:100990008DE08093A70380E88093A8030E94100451
:1009A00008950E949B048DE88093A70380E88093BC
:1009B000A8030E9410040E94100400919C030030C0
:1009C00011F00C94EC0400918F0141E0041BA8E1AC
:1009D000B4E00C930C94F3040091900241E0041BEA
:1009E000A8E1B4E00C9381E08093690181E08093F9
:1009F0001A04A0EAB3E00E94C617A8E6B1E08C93FF
:100A00000091180440916801040FADEAB3E00C9323
:100A10008091AD038093690100919C03003011F037
:100A20000C943F058091180480936A0140916A01FB
:100A300001E0041718F011F00C943D05AAE6B1E0AE
:100A4000AD90BB24A1E9B2E0AA0DBB1D8C91A9E633
:100A5000B1E0AD90BB24A0E9B1E0AA0DBB1D8C9321
:100A60008091690181508093690180916A01815070
:100A700080936A0110F00C9416050C946A0580911D
:100A8000180480936A0140916A0101E0041718F08C
:100A900011F00C946A05AAE6B1E0AD90BB24A0E980
:100AA000B1E0AA0DBB1D8C91A9E6B1E0AD90BB24CD
:100AB000A0E9B1E0AA0DBB1D8C9380916901815022
:100AC0008093690180916A01815080936A0110F0DE
:100AD0000C94430581E080936A0140916801009184
:100AE0006A01041718F011F00C949005AAE6B1E021
:100AF000AD90BB24AFE9B3E0AA0DBB1D8C91AAE673
:100B0000B1E0AD90BB24A0E9B1E0AA0DBB1D8C9370
:100B1000AAE6B1E08C918F5F8C9310F40C946D0574
:100B200080E8809391010091180440916801040FBE
:100B3000A2E9B1E00C930E941C0482EA8093A7030F
:100B4000809118048093A8030E9410040E94C80496
:100B50000E94A4048AEF70E0A2E9B2E00E94751737
:100B6000089582E18093A7030E94FE038091AE0363
:100B700080936801A8E6B1E08C9188708C93009115
:100B80006801083011F00C94D80581E08093A70328
:100B900080E88093A8030E94B60481E090E00E9460
:100BA00025160E949B040E94AD0480E080931A04E5
:100BB000089582E18093A70381E08093AD030E94B2
:100BC000FE030091AE0340E40423A8E6B1E00C93D9
:100BD00000916801003411F00C94A5060091AE0359
:100BE00040E30423A8E6B1E00C93009168010039CA
:100BF00011F00C949B0683E18093A7030E94FE03EF
:100C00008091AE03809314048DE88093A70380E065
:100C10008093A8030E9410040E94230481E0809323
:100C2000690181E08093680100916801043018F047
:100C300011F00C943C06A8E6B1E0AD90BB24ADEAFF
:100C4000B3E0AA0DBB1D4C91A8E6B1E0AD90BB246A
:100C5000AFE9B3E0AA0DBB1D0C91041711F00C9481
:100C6000340680E080936901A8E6B1E08C918F5F43
:100C70008C9310F40C9414060091140444E0041BAB
:100C8000A9E6B1E00C9385E080936A0181E080934E
:100C90008F0181E0809368014091690100916801B2
:100CA000041718F011F00C94930600919C03013086
:100CB00011F00C947406AAE6B1E0AD90BB24ADEA45
:100CC000B3E0AA0DBB1D8C91A8E6B1E0AD90BB24AA
:100CD000A1E9B2E0AA0DBB1D8C93AFE8B1E08C9105
:100CE0008F5F8C930C948606AAE6B1E0AD90BB248E
:100CF000ADEAB3E0AA0DBB1D8C91A8E6B1E0AD90C2
:100D0000BB24A0E9B1E0AA0DBB1D8C93AAE6B1E01B
:100D10008C918F5F8C93A8E6B1E08C918F5F8C9360
:100D200010F40C944C0600919C03003011F00C94CC
:100D30009B060E947E020E94B6048DE08093A7036A
:100D400080E08093A8030E941004089508950E94F3
:100D5000920486E88093A70380911C048093A803E3
:100D60000E94100487E88093A70380911D0480935C
:100D7000A8030E94100488E88093A70380911E04B2
:100D80008093A8030E9410040E94AD0408950E945D
:100D9000920486E08093A70383E08093AD030E94D2
:100DA000FE03ECE4F3E30E949919EEEAF3E0D0804D
:100DB000EE24FF2400270E9473180E940419EDE01E
:100DC000F0E0A0E8B1E00E946E17E0E5F3E30E94D6
:100DD0009919EFEAF3E0D080EE24FF2400270E9467
:100DE00073180E940419EDE0F0E0A4E8B1E00E945D
:100DF0006E17E4E8F1E00E94F317E0E8F1E00E94EA
:100E0000EE170E944B19EDE0F0E0A0E8B1E00E947F
:100E10006E17E0EBF3E0D080EE24FF2400270E9461
:100E200073180E94FD17E0E8F1E00E94EE170E949F
:100E30004B19EDE0F0E0A0E8B1E00E946E17E0E8A9
:100E4000F1E00E940318ABE1B4E0EDE0FF270E945F
:100E50006E170E94AD04089591E0AEEAB3E00E94DF
:100E6000F615089580EA8093A70384E08093A80391
:100E70000E94100481EE8093A7030E940A04089543
:100E8000089581E080939A0380E080938C0181E053
:100E900080938D0182E0809390010E94EA020E947B
:100EA0007E020E945B02089581E080931F040E94ED
:100EB0004A040E946304AEE6B1E00D911C91003338
:100EC00055E7150718F011F00C94960700912804C7
:100ED000003011F00C947807AEE6B1E00D911C9152
:100EE000005D1A48AEE6B1E00D931C930C948407A4
:100EF00000E315E7AEE6B1E04D915C91041B150BE4
:100F0000AEE6B1E00D931C9381E080939101809156
:100F10006F018093920180916E018093930184E030
:100F2000809391020E947E020C949D0789E0809339
:100F3000960380919103809397030E945B0208952A
:100F400082E080931F040E944A04809120048093D1
:100F50006F018091210480936E0193E0AEE6B1E0D1
:100F60000E94EA16AEE6B1E00D911C9144E050E01B
:100F70000E94B716AEE6B1E00D931C9382E0809319
:100F8000910180916F018093920180916E01809315
:100F9000930184E0809391020E947E020E945B0292
:100FA000089584E080931F040E944A040E94630411
:100FB000AEE6B1E00D911C91003355E7150718F02E
:100FC00011F00C94130800912804003011F00C94D7
:100FD000F507AEE6B1E00D911C91005D1A48AEE652
:100FE000B1E00D931C930C94010800E315E7AEE605
:100FF000B1E04D915C91041B150BAEE6B1E00D9391
:101000001C9383E08093910180916F018093920102
:1010100080916E018093930184E0809391020E94FD
:101020007E020C941A0889E08093960380919103C4
:10103000809397030E945B02089583E080931F04CE
:101040000E944A048091200480936F0180912104C2
:1010500080936E01AEE6B1E00D911C9142E050E04C
:101060000E94B716AEE6B1E00D931C93AEE6B1E078
:101070000D911C91003355E7150718F011F00C94F1
:10108000510884E08093910180916F0180939201D7
:1010900080916E018093930184E0809391020E947D
:1010A0007E020E945B02089582E080931F040E94EA
:1010B0004A048091200480936F01809121048093E1
:1010C0006E0193E0AEE6B1E00E94EA16AEE6B1E052
:1010D0000D911C9144E050E00E94B716AEE6B1E0DD
:1010E0000D931C93EEE6F1E0D190E080FF24002701
:1010F0000E945B18A9E2B4E00E94F81781E0809397
:101100001F040E944A040E946304AEE6B1E00D9100
:101110001C91003355E7150718F011F00C94D60810
:10112000EEE6F1E0D190E080FF2400270E945B18FA
:101130000E94FD17E9E2F4E00E94EE170E940419F4
:10114000EDE0F0E0A9E2B4E00E946E17E4E5F3E31D
:101150000E949919E9E2F4E00E94EE170E94AB1890
:10116000EDE0F0E0A9E2B4E00E946E17E9E2F4E0FD
:101170000E940318A4E7B1E0EDE0FF270E946E177C
:1011800085E0809391018091760180939201809116
:10119000750180939301809174018093940185E09F
:1011A000809391020E947E020C94DD0889E0809376
:1011B00096038091910380939703089500918E0187
:1011C000033010F40C94F70885E080931F0480919D
:1011D0001F048093240480919302809325048091BE
:1011E0009402809326040E9441040E945B020895A9
:1011F00085E080931F040E944A0487E08093910158
:101200008091200480939201809121048093930126
:1012100084E0809391020E947E020E945B02089506
:1012200000919B03003011F00C94440900918E0151
:10123000023010F40C94420900919302043010F033
:101240000C9439094091930200919F03041711F403
:101250000C9437098091930280939F03ECE1F0E0B6
:10126000A3E9B2E07BE70E9482170C94A0000C94E3
:10127000400984E0809396038091910380939703C3
:101280000E945B020C944D0986E080939603809146
:101290009103809397030E945B02089500919B0342
:1012A000003011F00C94660981E080939A0389E084
:1012B0008093910183E08093920183E08093910277
:1012C0000E947E020E945B020C946F0986E080936C
:1012D000960380919103809397030E945B02089587
:1012E00000919B03003011F00C94D60900918E01FF
:1012F000023010F40C94D4090091930241E0040FE1
:10130000A8E6B1E00C9300916801053018F011F0E7
:101310000C94CB094091680100918E01041710F4E0
:101320000C94C90981E08093690183E0809368018E
:101330004091680100916801041718F011F00C94B5
:10134000C009A8E6B1E0AD90BB24A1E9B2E0AA0DC6
:10135000BB1D8C91A9E6B1E0AD90BB24AFE9B3E031
:10136000AA0DBB1D8C93A9E6B1E08C918F5F8C9385
:10137000A8E6B1E08C918F5F8C9310F40C949809DF
:10138000EDE1F0E0A0EAB3E07BE70E9497170E944E
:101390005B020C94D40984E08093960380919103BE
:1013A000809397030E945B020C94DD0986E0809392
:1013B00096038091910380939703089500919B0376
:1013C000003011F00C94290A81E080939A038BE09D
:1013D00080939101A0EAB3E00E94C617A2E9B1E0B0
:1013E0008C9383E08093690181E080936801409150
:1013F000920100916801041718F011F00C941F0A73
:10140000A8E6B1E0AD90BB24AFE9B3E0AA0DBB1DE7
:101410008C91A9E6B1E0AD90BB24A0E9B1E0AA0DA2
:10142000BB1D8C93A9E6B1E08C918F5F8C93A8E6ED
:10143000B1E08C918F5F8C9310F40C94F70980913C
:101440006901809391020E947E020E945B020C94CB
:10145000320A86E0809396038091910380939703EC
:101460000E945B02089500919B03003011F00C94E0
:10147000B50A00918E01033010F40C94B30AA3E96D
:10148000B2E00C9111272227332740E051E060E0C1
:1014900070E00E94C116ABE1B4E00D931D932D9353
:1014A0003D93ABE1B4E00D911D912D913C91A4E9E8
:1014B000B2E04C915527662777270E940117ABE1D0
:1014C000B4E00D931D932D933D9347E25AE569E0F7
:1014D00070E0ABE1B4E00D911D912D913C910417AA
:1014E00015072607370710F00C94AC0AABE1B4E0FF
:1014F0000D911D912D913C9140E454E76AE278E012
:101500000E940117ABE1B4E00D931D932D933D9321
:10151000ABE1B4E00D911D912D913C914EE350E073
:1015200060E070E00E94C116ABE1B4E00D931D9342
:101530002D933D93E2E2F0E0ABE1B4E094E07BE791
:101540000E94851700919F03003011F00C94AA0AA5
:101550000E94A7060C94B30A84E0809396038091BE
:101560009103809397030C94BE0A86E080939603C0
:1015700080919103809397030E945B0208950091EC
:101580009B03003011F00C94000B81E080939A03D0
:101590008DE080939101ABE1B4E00D911D912D910F
:1015A0003C9140E454E76AE278E00E940617A4E721
:1015B000B1E00D931D932D933D93A4E7B1E00D9100
:1015C0001D912D913C914EE350E060E070E00E944F
:1015D000A615A4E7B1E04D935D936D937D93809143
:1015E000740180939201809175018093930184E04E
:1015F000809391020E947E020E945B020C94090B70
:1016000086E08093960380919103809397030E94D4
:101610005B02089500919B03003011F00C948C0B39
:1016200000918E01043010F40C948A0BA3E9B2E00F
:101630000C9111272227332740E051E060E070E051
:101640000E94C116ABE1B4E00D931D932D933D9321
:10165000ABE1B4E00D911D912D913C91A4E9B2E074
:101660004C915527662777270E940117ABE1B4E01C
:101670000D931D932D933D9346E75DE46CE170E07F
:10168000ABE1B4E00D911D912D913C91041715072C
:101690002607370710F00C94830BABE1B4E00D91F3
:1016A0001D912D913C9140E85AE160E778E10E945C
:1016B0000117ABE1B4E00D931D932D933D93ABE186
:1016C000B4E00D911D912D913C914EE350E060E00E
:1016D00070E00E94C116ABE1B4E00D931D932D9311
:1016E0003D93E2E2F0E0ABE1B4E094E07BE70E94FE
:1016F000851700919F03003011F00C94810B0E941C
:10170000A7060C948A0B84E0809396038091910342
:10171000809397030C94950B86E0809396038091B9
:101720009103809397030E945B02089500919B03AD
:10173000003011F00C94DB0B81E080939A038FE072
:1017400080939101ABE1B4E00D911D912D913C91FD
:1017500040E85AE160E778E10E940617A4E7B1E0AB
:101760000D931D932D933D93A4E7B1E00D911D9131
:101770002D913C914EE350E060E070E00E94A61590
:10178000A4E7B1E04D935D936D937D9380917401D7
:1017900080939201809175018093930180917601ED
:1017A0008093940185E0809391020E947E020E94C2
:1017B0005B020C94E40B86E0809396038091910386
:1017C000809397030E945B02089500919B03003071
:1017D00011F00C94670C00918E01043010F40C94FD
:1017E000650CA3E9B2E00C9111272227332740E0D2
:1017F00051E060E070E00E94C116ABE1B4E00D93EF
:101800001D932D933D93ABE1B4E00D911D912D916E
:101810003C91A4E9B2E04C915527662777270E94B6
:101820000117ABE1B4E00D931D932D933D934FE56C
:1018300050E96FE070E0ABE1B4E00D911D912D91A6
:101840003C91041715072607370710F00C945E0C1F
:10185000ABE1B4E00D911D912D913C9140E055E339
:1018600060EE70E30E940117ABE1B4E00D931D93AD
:101870002D933D93ABE1B4E00D911D912D913C91E1
:101880004EE350E060E070E00E94C116ABE1B4E0CE
:101890000D931D932D933D93E2E2F0E0ABE1B4E0B4
:1018A00094E07BE70E94851700919F03003011F0C0
:1018B0000C945C0C0E94A7060C94650C84E0809349
:1018C000960380919103809397030C94700C86E0AB
:1018D0008093960380919103809397030E945B020B
:1018E000089500919B03003011F00C94B60C81E038
:1018F00080939A0381E180939101ABE1B4E00D9173
:101900001D912D913C9140E055E360EE70E30E9403
:101910000617A4E7B1E00D931D932D933D93A4E723
:10192000B1E00D911D912D913C914EE350E060E0AE
:1019300070E00E94A615A4E7B1E04D935D936D930E
:101940007D938091740180939201809175018093C1
:101950009301809176018093940185E080939102B8
:101960000E947E020E945B020C94BF0C86E0809372
:10197000960380919103809397030E945B020895E0
:1019800081E080939A0382E18093910180919B038F
:101990008093920183E0809391020E947E020E94D4
:1019A0005B02089580E080938F0180E080938E0138
:1019B000089500918E01033010F40C94200E809154
:1019C000930280938C018091940280938D01009109
:1019D0008C010A3181E008F080E08F9300918D0145
:1019E0000A3181E008F080E09F918923882311F477
:1019F0000C94170E00918D01003018F011F00C942A
:101A0000030D0C94150E80E08093670181E08093B4
:101A10009A0380EF8093910180918C0180939201D1
:101A200080918D018093930184E080939102E8E599
:101A3000F5E2ACE8B1E08C9199270E94F916A2E991
:101A4000B2E00E94E416A2E9B2E00E94C617AAE63C
:101A5000B1E08C9380916A01A1E9B2E0AD90BB2422
:101A6000A0E9B1E0AA0DBB1D8C93A1E9B2E08C9175
:101A70008F5F8C9381E08093690140916A010091AE
:101A80006901041718F011F00C94650DA9E6B1E096
:101A9000AD90BB24A1E9B2E0AA0DBB1D8C91A1E9D8
:101AA000B2E0AD90BB24A0E9B1E0AA0DBB1D8C93C0
:101AB000A1E9B2E08C918F5F8C93A9E6B1E08C91A3
:101AC0008F5F8C9310F40C943D0D81E08093660140
:101AD000ACE8B1E08C918F5F8C9380918D01815047
:101AE00080938D0100918D01003018F011F00C945D
:101AF0007B0D0C940F0E00918D01003080E010F0F2
:101B000009F081E08F9300916701003081E009F0D6
:101B100080E09F918923882311F40C940F0EE8E54F
:101B2000F5E2ACE8B1E08C9199270E94F916A2E9A0
:101B3000B2E00E94E416A2E9B2E00E94C617AAE64B
:101B4000B1E08C93A1E9B2E00D911127AAE6B1E0D2
:101B50004D915527040F151FAEE6B1E00D931C9370
:101B6000AEE6B1E00E946115AEE6B1E00D911C91C8
:101B70000A3F50E0150710F00C94000E80916A01A6
:101B8000A1E9B2E0AD90BB24A0E9B1E0AA0DBB1D74
:101B90008C93A1E9B2E08C918F5F8C9381E080936C
:101BA000690140916A0100916901041718F011F070
:101BB0000C94F90DA9E6B1E0AD90BB24A1E9B2E027
:101BC000AA0DBB1D8C91A1E9B2E0AD90BB24A0E9A8
:101BD000B1E0AA0DBB1D8C93A1E9B2E08C918F5F9F
:101BE0008C93A9E6B1E08C918F5F8C9310F40C94E8
:101BF000D10DA6E6B1E08C918F5F8C930C94030E0F
:101C000081E08093670180918D01815080938D01E7
:101C1000ACE8B1E08C918F5F8C930C947B0D80913C
:101C20006601809393010E947E020C941E0E84E054
:101C30008093960380919103809397030E945B02A7
:101C4000089581E080939A038EE170E0A1E9B1E00C
:101C50000E9475178CEF8093910183E08093680157
:101C6000E1E9F3E0A7E1B1E00E942917A7E1B1E0C3
:101C70000E94C617ABE6B1E08C9381E080936901C6
:101C800040916B0100916901041718F011F00C9458
:101C9000680EA9E6B1E0AD90BB24A6E1B1E0AA0DC3
:101CA000BB1D8C91A8E6B1E0AD90BB24A0E9B1E0EA
:101CB000AA0DBB1D8C93A8E6B1E08C918F5F8C932D
:101CC000A9E6B1E08C918F5F8C9310F40C94400ED8
:101CD00000919603003011F00C94760EA7E1B1E06C
:101CE000E8E6F3E30E94E4160C94F40E013011F0E0
:101CF0000C94820EA7E1B1E0EEE7F3E30E94E41654
:101D00000C94F40E023011F00C948E0EA7E1B1E0A9
:101D1000ECE8F3E30E94E4160C94F40E033011F0A7
:101D20000C949A0EA7E1B1E0E0EAF3E30E94E41616
:101D30000C94F40E043011F00C94A60EA7E1B1E05F
:101D4000E6EBF3E30E94E4160C94F40E053011F078
:101D50000C94B20EA7E1B1E0EAECF3E30E94E416C2
:101D60000C94F40E063011F00C94BE0EA7E1B1E015
:101D7000E0EEF3E30E94E4160C94F40E073011F049
:101D80000C94CA0EA7E1B1E0ECEFF3E30E94E41675
:101D90000C94F40E083011F00C94D60EA7E1B1E0CB
:101DA000E4E1F4E30E94E4160C94F40E093011F01F
:101DB0000C94E20EA7E1B1E0E2E3F4E30E94E41642
:101DC0000C94F40E0F3F11F00C94EE0EA7E1B1E06D
:101DD000E2E4F4E30E94E4160C94F40EA7E1B1E00F
:101DE000E0E5F4E30E94E416A7E1B1E00E94C61723
:101DF000ABE6B1E08C9381E08093690140916B0187
:101E000000916901041718F011F00C94260FA9E64F
:101E1000B1E0AD90BB24A6E1B1E0AA0DBB1D8C9151
:101E2000A8E6B1E0AD90BB24A0E9B1E0AA0DBB1DCE
:101E30008C93A8E6B1E08C918F5F8C93A9E6B1E01A
:101E40008C918F5F8C9310F40C94FE0EE7E9F3E015
:101E5000A7E1B1E00E942917A7E1B1E00E94C617EF
:101E6000ABE6B1E08C9381E08093690140916B0116
:101E700000916901041718F011F00C945E0FA9E6A7
:101E8000B1E0AD90BB24A6E1B1E0AA0DBB1D8C91E1
:101E9000A8E6B1E0AD90BB24A0E9B1E0AA0DBB1D5E
:101EA0008C93A8E6B1E08C918F5F8C93A9E6B1E0AA
:101EB0008C918F5F8C9310F40C94360F0091680115
:101EC00043E0041BA2E9B1E00C9380916801809388
:101ED00091020E947E020E945B02089581E080933D
:101EE0009A038DEF8093910184E08093920183E0C7
:101EF000809391020E947E020E945B0208950091ED
:101F00008E01023010F40C941111009193020030F4
:101F100011F00C94ED0F00918E01033010F40C942D
:101F2000EB0F00919402003011F00C949B0F0E9473
:101F30005B020C94EB0F0091940243E0040FA8E6BF
:101F4000B1E00C934091680100918E01041710F4E8
:101F50000C94EB0F84E170E0ABE4B1E00E947517E4
:101F600000916801073118F011F00C94B90F0C942E
:101F7000BC0F87E18093680184E080936901409100
:101F8000680100916901041718F011F00C94E20F38
:101F9000A9E6B1E0AD90BB24A1E9B2E0AA0DBB1D5A
:101FA0008C91A9E6B1E0AD90BB24A7E4B1E0AA0D05
:101FB000BB1D8C93A9E6B1E08C918F5F8C9310F4DC
:101FC0000C94BF0FE2E0F0E0ABE4B1E07BE70E94ED
:101FD00097170E945B020C940F11013011F00C94C2
:101FE000061000918E01033010F40C9404108091BF
:101FF000940280936001E7E1F0E0A0E6B1E07BE7C6
:102000000E9482170E945B020C940F11023011F0A3
:102010000C942E1000918E01033010F40C942C10AF
:1020200000919402023010F00C94231080919402DD
:1020300080936201E9E1F0E0A2E6B1E07BE70E9473
:1020400082170C942A1084E0809396038091910368
:10205000809397030E945B020C940F11033011F0E0
:102060000C94601000918E01033010F40C945E10FB
:10207000809194028093690100916901003810F009
:102080000C945510A9E6B1E00C9142E0049F0C922B
:102090008091690180936101E8E1F0E0A1E6B1E09F
:1020A0007BE70E9482170C945C1084E08093960377
:1020B00080919103809397030E945B020C940F110F
:1020C000043011F00C948C1000918E01033010F448
:1020D0000C948A10809194028093690100916901A7
:1020E000023010F00C94811080916901809364019A
:1020F000EAE1F0E0A4E6B1E07BE70E9482170C94ED
:10210000881084E0809396038091910380939703D5
:102110000E945B020C940F11053011F00C94B81062
:1021200000918E01033010F40C94B610809194024B
:102130008093690100916901023010F00C94AD1098
:102140008091690180936501EBE1F0E0A5E6B1E0E3
:102150007BE70E9482170C94B41084E0809396036E
:1021600080919103809397030E945B020C940F115E
:10217000063011F00C94DD1000918E01033010F444
:102180000C94DB1000919402023010F00C94D210E9
:102190008091940280939D0380919D0380939E0380
:1021A0000C94D91084E080939603809191038093DE
:1021B00097030E945B020C940F11053011F00C94F0
:1021C000061100918E01033010F40C9404118091DB
:1021D00094028093690100916901023010F00C941F
:1021E000FB108091690180939D0380919D038093F2
:1021F0009E030C94021184E08093960380919103D6
:10220000809397030E945B020C940F1184E08093EB
:10221000960380919103809397030E945B020E9432
:102220009403089500918E01023010F40C941C1256
:1022300081E080939A038FEF8093910180919302C4
:102240008093920180E0809391020091930200308C
:1022500011F00C94811184E17FEFA1E0B1E00E94C4
:102260007517E1E0F1E0ABE4B1E00E94CE1711F0A8
:102270000C944711ABE4B1E0E0E6F4E30E94E4160D
:10228000E2E0F0E0ABE4B1E07BE70E949717ABE45B
:10229000B1E00E94C617AAE6B1E08C9380916A0172
:1022A0008093930184E08093910281E0809369019F
:1022B00040916A0100916901041718F011F00C9423
:1022C0007F11A9E6B1E0AD90BB24AAE4B1E0AA0D6C
:1022D000BB1D8C91A1E9B2E0AD90BB24A0E9B1E0B7
:1022E000AA0DBB1D8C93A1E9B2E08C918F5F8C93FA
:1022F000A9E6B1E08C918F5F8C930C9458110C94EB
:102300000F12013011F00C948E11809160018093B6
:10231000930184E0809391020C940F12023011F02B
:102320000C949B11809162018093930184E08093CF
:1023300091020C940F12033011F00C94B011009123
:10234000610142E00E94B617A9E6B1E00C938091CA
:1023500069018093930184E0809391020C940F12A1
:10236000043011F00C94BD118091640180939301AD
:1023700084E0809391020C940F12053011F00C94BC
:10238000C91180E08093930184E0809391020C94C2
:102390000F12063011F00C94E11183E08093930149
:1023A00088E3A4E9B1E08C938EE4A5E9B1E08C93D5
:1023B00081E3A6E9B1E08C9384E0809391020C94D0
:1023C0000F12073011F00C94EE118091650180938B
:1023D000930184E0809391020C940F12083011F065
:1023E0000C94FB1180919D038093930184E0809372
:1023F00091020C940F12063011F00C940812809187
:102400009D038093940185E0809391020C940F12B8
:1024100084E08093960380919103809397030091C9
:102420009102003018F011F00C9418120C941A124A
:102430000E947E020E945B020895009192020C3E6F
:1024400010F00C946B1200919202033110F00C9476
:102450006012EEE5F2E1EF93FF93E8E3F2E1A2E927
:10246000B2E08C919927880F991FE80FF91F099402
:102470000C9441070C9454070C94A0070C94D107BA
:102480000C941D080C9454080C94DE080C94F80865
:102490000C9410090C944E090C9470090C94DE09EC
:1024A0000C94330A0C94BF0A0C940A0B0C94960BF0
:1024B0000C94E50B0C94710C0C94C00C0C946912E8
:1024C00080E08093960380919103809397030E940C
:1024D0005B020C94A912009192024CEE041BA8E638
:1024E000B1E00C93E9EAF2E1EF93FF93E1E8F2E166
:1024F000A8E6B1E08C919927880F991FE80FF91F82
:1025000009940C94EC000C94ED000C94EE000C94E7
:10251000EF000C94D90C0C94D20C0C94D20C0C94AB
:10252000D20C0C94D20C0C94D20C0C94D20C0C94B3
:10253000D20C0C94D20C0C94D20C0C94D20C0C94A3
:10254000D20C0C94210E0C946E0F0C947F0F0C94F3
:1025500012110895F894FFCF303B6D3B444B31523C
:10256000493B5620492073656E736F723B5630317C
:102570002E303B313B3134353B313B32353B312D15
:102580003100313B61702C7368756E7420766F6C0E
:10259000746167653B313B36303030312C2C7B30F9
:1025A0002E315F2D333030302E30746F3330303079
:1025B0002E307D3B6C696E3B6D5600323B61702C5A
:1025C00062757320766F6C746167653B313B3235A1
:1025D0003030312C2C7B315F30746F3235303030FD
:1025E0007D3B6C696E3B6D5600333B61702C6375AF
:1025F0007272656E743B313B36303030302C2C7B40
:10260000302E315F2D333030302E30746F33303018
:10261000302E307D3B6C696E3B6D4100343B617008
:102620002C706F7765723B313B33303030312C3B4F
:102630006C696E3B6D5700353B61702C706F776530
:10264000723B313B373530303030302C2C7B302EE4
:1026500030315F30746F37353030302E30307D3B65
:102660006C696E3B6D5700363B6F612C494E4120C3
:1026700063616C6962726174696F6E20726567690B
:10268000737465723B7700373B61612C6173360070
:10269000383B6F732C726164696F20747970653B8D
:1026A000313B302C52464D3935203930303B312CBE
:1026B00052464D3935203435303B20322C52464D70
:1026C0003935203135303B332C6E524632343B3471
:1026D0002C574C414E3B352C525946413638393BEC
:1026E00031342C434841505445522C41444D494EBD
:1026F000495354524154494F4E00393B61732C6148
:1027000073383B31342C434841505445522C41449A
:102710004D494E495354524154494F4E0031303B7C
:102720006F612C726164696F206E616D653B352C41
:102730002C726164693B31342C43484150544552FA
:102740002C41444D494E495354524154494F4E2215
:10275000200031313B61612C617331303B31342CCD
:10276000434841505445522C41444D494E495354DD
:10277000524154494F4E0031323B6F702C667265A6
:102780007175656E63793B313B3631323930332CAC
:102790002C7B36325F313337303030303030746F2D
:1027A0003137353030303030307D3B6C696E3B48EE
:1027B0007A3B31342C434841505445522C41444DCE
:1027C000494E495354524154494F4E0031333B61B5
:1027D000702C617331320031343B6F702C6672653E
:1027E0007175656E63793B313B3138353438333838
:1027F0002C7B36325F343130303030303030746FD3
:102800003532353030303030307D3B6C696E3B488E
:102810007A3B31342C434841505445522C41444D6D
:10282000494E495354524154494F4E0031353B6152
:10283000702C617331340031363B6F702C667265D9
:102840007175656E63793B313B31303139393939D6
:102850002C7B36325F383230303030303030746F6D
:10286000313032303030303030307D3B6C696E3B4F
:10287000487A3B31342C434841505445522C414412
:102880004D494E495354524154494F4E0031373B04
:1028900061702C617331360031383B61732C6D6F80
:1028A00064653B313B302C636F6E6669677572619E
:1028B00074696F6E3B312C6F7065726174650032A4
:1028C00034303B616E2C414E4E4F554E43454D4585
:1028D0004E54533B3134353B32352C737461727432
:1028E0002061743B32352C656C656D656E74733B8D
:1028F00031342C434841505445522C41444D494EAB
:10290000495354524154494F4E003235323B616174
:102910002C4C415354204552524F523B36302C6C74
:102920006173745F6572726F72003235333B61613F
:102930002C4D594320494E464F3B622C414354494C
:102940005645003235343B6F612C494E4449564957
:102950004455414C495A4154494F4E3B32302C4E1C
:10296000414D452C44657669636520313B622C4EB0
:10297000554D4245522C313B612C493243616374C1
:1029800069762C313B622C493263616464726573F1
:10299000732C34303B612C52533233322C313B6137
:1029A0002C5553422C313B612C776972656C6573F1
:1029B000732C313B31342C434841505445522C4107
:1029C000444D494E495354524154494F4E003235BB
:1029D000353B61612C494E444956494455414C4967
:1029E0005A4154494F4E3B32302C4E414D452C44B8
:1029F000657669636520313B622C4E554D424552E8
:102A00002C313B612C49324361637469762C313B34
:102A1000622C493263616464726573732C34303B99
:102A2000612C52533233322C313B622C424155449B
:102A3000524154452C302C7B31393230307D3B3380
:102A40002C4E554D4245525F4F465F424954532CE0
:102A5000386E313B612C5553422C313B612C7769E8
:102A600072656C6573732C313B31342C4348415093
:102A70005445522C41444D494E49535452415449B6
:102A80004F4E00523B212437202124382021243965
:102A900020213130202124313120212431322021C4
:102AA00024313320212431342021243134202124A5
:102AB0003135202124313620494620243137353D17
:102AC0003100ED91FC91EF5FFF4FFC93EE93089581
:102AD00005D00E94B71600FC0CD008950024E8949D
:102AE00057FF02C009D0689400F80BD010F80124F9
:102AF000089502D009D00895509540954F5F5F4FDB
:102B00000895E89417FF0895009510950F5F1F4FE3
:102B1000689408958D9103D03A95E1F70895009057
:102B2000C00005FEFCCF8093C600089588EE93E0B8
:102B30008CD03197D9F7089500FC05D0089530D096
:102B400005D001F8F9CF37D03FD00895842F952FC5
:102B5000A62FB72FE894452B462B472B11F46894EA
:102B60000895402F512F622F732F002711272227FE
:102B70003327F0E2440F551F661F771F001F111FF8
:102B8000221F331F081B190B2A0B3B0B416028F433
:102B9000080F191F2A1F3B1F4E7FFA9559F70895FA
:102BA0000024E89477FF02C006D0689400F809D0AA
:102BB00010F80124089512D04F5F5F4F6F4F7F4F81
:102BC0000895E89437FF0895009510952095309565
:102BD0000F5F1F4F2F4F3F4F6894089540955095BA
:102BE0006095709508953197F1F708950E94141635
:102BF0008C910E9418168D939A95D1F70E94161603
:102C000008950E9414168D910E9418169A95D9F76E
:102C10000E9416160895279A26982E9A259A249A85
:102C20002C9A83E58CBD08952C9808952C9A0895CC
:102C30008EBD00904D0007FEFCCF8EB508956894C0
:102C400062F80895E89462F80895EF93FF93EE27F1
:102C5000E82BE92B31F0E8E8F3E13197F1F7019740
:102C6000D1F7FF91EF91089539983898419A409A99
:102C7000089568944093BC008F939F938827992769
:102C8000019629F04091BC0047FFFACFE8949F914C
:102C90008F9162F8089544EAECDF4091B900487FD3
:102CA000483019F0403109F0689462F8089544E919
:102CB0004093BC004091BC0044FDFCCF08951093AC
:102CC000BB0044E8D6DF8F939F938827992701960E
:102CD00071F04091B900487F483FC9F3E89448310A
:102CE00039F0483229F0403419F0403509F0689441
:102CF0009F918F9162F8089544E801C044ECB9DFD8
:102D00001091BB004091B900487F483FD9F3089526
:102D1000C2DF0EF408951E7FD2DF89911D91CFDFAF
:102D20008A95E1F7C4CF122F803069F0B4DF0EF43A
:102D300008951E7FC4DFAF93BF931D91C0DF8A95B6
:102D4000E1F7BF91AF91A7DF903059F0122F1160DA
:102D5000B6DF913011F4D0DF01C0D0DF1D939A951A
:102D6000C1F7A5CF019111912191308108950F9262
:102D7000B801469F8001479F100D569F100D0F9080
:102D800008950F921F922F92C801D901489F800188
:102D90004A9F90014B9F202C499F100D211D321DF1
:102DA0005A9F202C589F100D211D321D599F200D18
:102DB000311D689F200D311D699F300D789F300DAA
:102DC0002F901F900F9008950E94F5160D920020ED
:102DD000D9F70895903041F00D911C911695079503
:102DE0009A95E1F71C930E930895C89531960020AB
:102DF00008950196019721F00E94F516E9F7FACFA0
:102E00000895040F151F261F371F0895041B150B67
:102E1000260B370B0895000F111F221F331F089533
:102E200000951095209530950F5F1F4F2F4F3F4F06
:102E30000895019110810FC00E94B2160EC00E9429
:102E4000B21610C00191108117FF05C03FEF2FEFA0
:102E500004C0008111272227332737FF03C0E0DF9A
:102E60008DE28D93CF92DF92EF92AA24BB24CC24E3
:102E7000DD24EE2440E2EAE0FF2755E093E3808181
:102E8000890F87FD9F7083FD907F891B81935A95E1
:102E9000A9F7C1DFAA1CBB1CCC1CDD1CEE1C4A958B
:102EA00051F7E894EFE0FF2782910BD0EB30E0F789
:102EB0001EF068948A2D09D04D93EF90DF90CF904B
:102EC0000895982F829501D0892F8F70805D26F00C
:102ED000803309F4089568948D93089594E0819166
:102EE0008D939A95E1F7089570E2803021F07D93FB
:102EF0008A95E9F78C930895F999FECFE1BDF2BD6B
:102F00003196089591E001C092E07B3771F47FB76C
:102F1000F894F2DF8D91F89A60B5681719F080BDCA
:102F2000FA9AF99A9A95A9F77FBF77270895E4DF6F
:102F30008D917B3729F480BDFA9AF99A8823B9F7E5
:102F40007727089591E001C092E0D6DFF89A80B526
:102F50008D939A95D1F70895CFDFF89A80B58D9328
:102F6000882319F09A95C1F79D930895FF93881BC4
:102F7000F9E0001FFA9511F4FF910895881F841B52
:102F800018F4840F8894F5CF0894F3CF8FEF8395CE
:102F90009D919923E1F70895689401C0E894AF9357
:102FA000BF938D9116F0919103C00E94F516902D5C
:102FB000891718F011F48823A1F7BF91AF910895F4
:102FC000B7FE089590E8B91611F4D0FE08959FEF6A
:102FD000D91AE90AF90A09F403950895D190E19004
:102FE000F19001910895219131914191519108956C
:102FF000DD92ED92FD920C930895502F2D2D3E2DD4
:103000004F2D612F0895EADF992711278F2D880F03
:1030100080E8F82A802F881F08F41FEF41F08F57AF
:10302000082F07FD04C0003240F08FEF01C0882751
:10303000982FD82EE82EF82E09C08FE1801B082F7C
:10304000F694E794D79497950A95D1F7112351F008
:103050009095D094E094F09481E0980F8827D81E42
:10306000E81EF81E0F2DFE2CED2CD92E0895D094BD
:10307000E094F09491E0D90E9927E91EF91E10957D
:103080000895652F90E8440F551F5927990F4795CC
:103090006078102F90E8FF0C001F0927990FF79414
:1030A000107800380895FF0C90E89027110F97953D
:1030B000F794092F08951127BD2CDE2CEF2CF02E4C
:1030C0000EE1FF2039F4FE2CED2CDB2CBB24085044
:1030D000C2F775C032F00A95BB0CDD1CEE1CFF1C5C
:1030E000F9CF6EDFE0CF102FBD2CDE2CEF2CF02EB1
:1030F00011234AF4B094D094E094F0949FEFB91A5D
:10310000D90AE90AF90A0EE1FF2039F4FE2CED2C68
:10311000DB2CBB240850C2F752C032F00A95BB0C1E
:10312000DD1CEE1CFF1CF9CF4BDFBDCF2DEC3CECC2
:103130004CEC5DE366270FC051DF5FDFDD24EE243A
:1031400090E8F92E0FE307C04EDF05C02227332792
:1031500040E251E46627552351F1002381F191DFCC
:1031600071F11627005850580894050B18F407FD04
:1031700003C025C007FD23C0469537952795F694D3
:10318000E794D79425D0FF202AF0DD0CEE1CFF1C1D
:10319000015073F09D2D969548F0DD203AF4EE2015
:1031A0002AF491E0D90E9927E91EF91E7CCF07C0B9
:1031B0009FE7092FF92A9FEFD92EE92E0895DD24E4
:1031C000EE24FF240027112708950FE79FEFF2CF89
:1031D0009F929924AA24BB2488E1D216E306F40620
:1031E00028F0D21AE30AF40A089401C08894991CC2
:1031F000AA1CBB1CDD0CEE1CFF1C8A9571F7D92C98
:10320000EA2CFB2C9F9008953CDFD9F05038C9F090
:1032100016270058952F90580894091F12F418F497
:103220000EC008F00EC00FD0FF202AF0BB0CDD1C32
:10323000EE1CFF1C02C0039513F0C2DE34CF0C94C9
:10324000D8180C94DF189F92FF92EF928D2DFF24D7
:10325000EE24DD24BB2493E0849F1001829FB00CF8
:10326000D11CE21CF31C839FD00CE11C2224F21C15
:103270009A9531F0BD2CDE2CEF2CFF248F91ECCFF2
:103280009F9008950AF045D00ECF5FE322273327A1
:10329000442701C0A8DEF5DE5038B1F3003899F3B9
:1032A000902F951B8BF312F434D0FACF983118F08D
:1032B000222733274427983028F0232F342F442700
:1032C0009850F9CF992329F04695379527959A95E7
:1032D000D9F7912F962742F014D0B0F6F794E794DF
:1032E000D7940F5F8BF664CF10D051F008F4BFDE97
:1032F000FF2052F2DD0CEE1CFF1C0150CBF758CF23
:103300005ECFD20EE31EF41E0895D21AE30AF40A29
:103310000895DF92EF92FF920F931F93D22EE32E28
:10332000F42E052F162F6F915F914F913F912F91A2
:1033300008950E94F516202D0E94F516302D0E944A
:10334000F516402D0E94F516502D089500F57F4783
:10335000000080430000C8424465766963652031FF
:1033600000007261646900003A20636F6D6D616EE8
:1033700064206E6F7420666F756E643A20003A2088
:10338000493243206572726F723A20003A207761A9
:10339000746368646F672072657365743A20000017
:1033A0003A20636F6D6D616E642077617463686449
:1033B0006F673A2000003A20706172616D65746534
:1033C00072206572726F723A20003A20747820740D
:1033D000696D6520746F6F206C6F6E673A20000016
:1033E0003A206E6F742076616C6964206174207479
:1033F0006861742074696D653A2000003A20693272
:10340000635F627566666572206F766572666C6F63
:10341000773A20003A20493263206E6F742072653B
:1034200061647920746F20726563656976653A20FE
:1034300000003A20686967682076616C75653A20FB
:1034400000003A206E6F206572726F723A200000A1
:103450003A206F74686572206572726F723A20004C
:083460004465766963653100E3
:00000001FF
