:100000000C94460018950000189500001895000003
:10001000189500001895000018950000189500002C
:10002000189500001895000018950000189500001C
:10003000189500001895000018950000189500000C
:1000400018950000189500001895000018950000FC
:100050000C94FD04189500001895000018950000F8
:1000600018950000189500000C947E051895000066
:1000700018950000189500001895000018950000CC
:100080001895000018950000189500008FEF8DBF9F
:10009000C0ECE2E94E2E80E48EBFD0E4F0E45F2EA7
:1000A000A89584B7082E882784BF88E19927809374
:1000B000600090936000EEEFFFE3A0E0B1E08827DE
:1000C0008D933197E9F780E48093C40080E08093BA
:1000D000C50088E18093C1006624EAE0F0E00E9458
:1000E000431BE8E1FCE30E94F71B0E942D1B0E94CA
:1000F000391BE0E0FF270081A0E2B3E00C93A0E20F
:10010000B3E00C9103FB16F00C94920082E0809314
:10011000692A8091672A80936A2A81E080936B2AFA
:100120000C9495008FEF8093692A2298429A239825
:100130002B9A80E080936E2A80E0809300030091E8
:100140000003003011F00C94AB001B9B0C94AB002F
:1001500081E080936E2A559A5D9A56985E9A579AD6
:100160005F9A7091C10070687093C10074B7777F17
:1001700074BF8FE197E08093600090936000789463
:100180007091BC0071607093BC000E94611B089A62
:10019000109A2198299A249A2C983F9A479A1A994A
:1001A0000C94D4000E942A03E1E0F0E0A0E1B0E06A
:1001B0000E949A1C053011F40C94E0000E942A035E
:1001C000E7E1F0E0A6E3B3E00E949A1CE2E0F0E091
:1001D000A1E2B3E094E10E94A41C81E08093672A2D
:1001E00080E080936A2A80E080936B2A81E090E02F
:1001F000A3E6BAE28D939C9380E090E0A5E6BAE294
:100200008D939C9380E08093460380E08093470326
:100210000E94CB03EAE1F0E0ACE3B3E00E949A1C59
:10022000EBE1F0E0AFE3B3E00E949A1CECE1F0E018
:10023000A0E4B3E093E00E94A41CE0E2F0E0A4E4B8
:10024000B3E00E949A1CE9E1F0E0A9E3B3E00E9468
:100250009A1CE1E2F0E0A5E4B3E00E949A1CE2E21D
:10026000F0E0AFE6BAE20E949A1CE4E2F0E0A0E718
:10027000BAE295E00E94A41CEAE2F0E0ACEDBAE23A
:1002800094E00E949D1CEEE2F0E0A0EEBAE294E061
:100290000E949D1CE8E1F0E0A7E3B3E00E949A1CF5
:1002A000E9E1F0E0A9E3B3E00E949A1C0E94630533
:1002B00080E08093762A84E670E0A7E7BAE20E94A5
:1002C000711C0E94420780916000886080936000EA
:1002D000A7E4B3E08C918F5F8C93009147030436C1
:1002E00011F00C94E301A6E4B3E08C918F5F8C9342
:1002F00000914603043B11F00C94A90100913803CE
:10030000013081E009F080E08F93A6E2B0E00C912B
:1003100001FB81E00EF480E09F918923882311F492
:100320000C94A401ABE3B3E08C918F5F8C930091AC
:100330003B03053018F011F00C94A0010C94A201BD
:100340000E9463050C94A70180E080933B030C940A
:10035000E3010F3F11F00C94E301ACE6BAE20D911A
:100360001C91003050E0150718F011F00C94BA0100
:100370000C94BE01ACE6BAE20E94F51AACE6BAE211
:100380000D911C91023050E0150718F011F00C94FB
:10039000CB010C94E30183E08093692A8091672A62
:1003A00080936A2A81E080936B2A0E94CB0380E0CD
:1003B00090E0ADE4B3E08D939C9380E090E0AFE4F7
:1003C000B3E08D939C9380E0809300030091000341
:1003D000013011F00C94050200916F2A003018F0E2
:1003E00011F00C94F5010C94050200916F2A013074
:1003F00011F00C94FF010E948B0A0C94050204304A
:1004000011F00C9405020E94360E00916E2A013004
:1004100011F00C94690200916F2A013011F00C94D4
:1004200015020E948B0A0C941B02043011F00C94EC
:100430001B020E94360EADE4B3E00D911C9100301A
:1004400050E0150718F011F00C9428020C94690282
:10045000ADE4B3E04D915C91AFE4B3E00D911C913C
:100460000417150711F40C9442028AE080930403E8
:10047000ADE4B3E08D919C91AFE4B3E08D939C9398
:100480000C946902809104038150809304030091CD
:100490000403003011F00C94650280914D038093A9
:1004A000E42A00916F2A013011F00C945B020E9443
:1004B000E6090C946102043011F00C9461020E9470
:1004C0000D0D0E94CB030C94690285E090E00E9420
:1004D000781BADE4B3E00D911C91003050E015079E
:1004E00080E010F009F081E08F9300916E2A0030D7
:1004F00081E009F080E09F918923882311F40C9416
:100500001D03ACE6BAE20D911C91003050E01507D6
:1005100011F00C948F02ACE6BAE20E94F51A009139
:100520006E2A003011F00C941D03ADE4B3E00D9180
:100530001C91013050E0150710F40C941D0300913C
:10054000DA160E3F11F00C94A9020E9425190C94A2
:100550001D0380E0809300030091682A003011F0B1
:100560000C94BD0200913C03013011F00C94BB02CD
:1005700081E0809300030C940703013011F00C9488
:10058000CC0200914403013011F00C94CA0281E0C6
:10059000809300030C940703023011F00C94E802DE
:1005A00000913C03013081E009F080E08F930091DD
:1005B0004403013081E009F080E09F91892B88237A
:1005C00011F40C94E60281E0809300030C9407037D
:1005D000033011F00C94F70200913903013011F04F
:1005E0000C94F50281E0809300030C94070304301F
:1005F00011F00C94070300916F2A003018F011F0ED
:100600000C9404030C94070381E080930003009191
:100610000003013011F00C9411030E9425190C9471
:100620001D030E94CB0386E08093692A8091672A8C
:1006300080936A2A81E080936B2A9FB7F894809117
:100640006000886180936000877E809360009FBF18
:100650000C946301E1E0F0E00E94431BE7E1F0E06D
:10066000A0E1BB2781E08C937BE70E947E1CA42D38
:10067000B52DEEE1FCE30E94F71B0E94C81BE2E0EF
:10068000F0E0D2017BE70E948F1CEAE1F0E0A0E1FC
:10069000BB2781E08C937BE70E947E1CEBE1F0E0BE
:1006A000A0E1BB2780E08C937BE70E947E1CA42DF9
:1006B000B52DE8E2FCE30E94F71B0E94C81BECE1A9
:1006C000F0E0D2017BE70E948F1CE0E2F0E0A0E1C5
:1006D000BB2781E08C937BE70E947E1CE9E1F0E080
:1006E000A0E1BB2780E08C937BE70E947E1CE1E2C7
:1006F000F0E0A0E1BB2781E08C937BE70E947E1CA9
:10070000A42DB52DECE2FCE30E94F71B0E94C81B50
:10071000E4E2F0E0D2017BE70E948F1CE2E2F0E02D
:10072000A0E1BB2784E08C937BE70E947E1CE8E17C
:10073000F0E0A0E1BB2780E58C937BE70E947E1C64
:10074000E9E1F0E0A0E1BB2781E08C937BE70E9428
:100750007E1CEAE2F0E008EE13E020E030E0A0E1E9
:10076000BB2794E07BE70E94811CEEE2F0E008E208
:1007700010E020E030E0A0E1BB2794E07BE70E949E
:10078000811CE1E0F0E0A0E1BB2785E08C937BE7F2
:100790000E947E1C089500913E03003081E009F024
:1007A00080E08F9300913A03003081E009F080E00F
:1007B0009F918923882311F40C94230400916B2AC0
:1007C000003011F00C94F403ADE4B3E00D911C91F2
:1007D000AFE4B3E04D915C91041B150BADE4B3E0C5
:1007E0000D931C930C94FA0380E090E0ADE4B3E029
:1007F0008D939C9380E090E0AFE4B3E08D939C9365
:1008000081E090E0A3E6BAE28D939C9380E090E0D3
:10081000ACE6BAE28D939C93A7E6BAE28C918F5F27
:100820008C9340916A2A0091672A041711F00C9466
:100830001F0480E080936A2A8FEF8093692A80E00A
:1008400080936B2AA895089581E080933E03A3E6E8
:10085000BAE20E94FC1A81E090E0A8E0B3E08D9338
:100860009C93A3E6BAE24D915C91A8E0B3E00D91B0
:100870001C910417150718F011F00C945604A8E009
:10088000B3E0AD90BD90A0E5B3E0AA0DBB1D8C9187
:100890008093020331E0A2E0B3E00E94341BA8E0A1
:1008A000B3E00E94F51A10F40C94310480E08093B8
:1008B000050300916F2A003080E010F009F081E01C
:1008C0008F9300910503013081E009F080E09F9152
:1008D0008923882311F40C948E04A3E6BAE20D91C7
:1008E0001C91003050E0150718F011F00C947A04B8
:1008F0000C948E048091632A8093E42A00916F2ADD
:10090000013011F00C9488040E94E6090C948E04C6
:10091000043011F00C948E040E940D0D81E090E0E3
:10092000A3E6BAE28D939C9380E080933E030E94FD
:10093000CB030895ADE4B3E08D919C91AFE4B3E0B7
:100940008D939C93E6E2F3E30E94F71B80E090E036
:100950000E94E41BA1E5B3E00E94C81BA1E5B3E03F
:100960000E94BE1CA2E0B3E08C930091020342E01F
:10097000040FA1E0B3E00C93809102038093000385
:100980004091000301E0041718F011F00C94E70403
:10099000A0E0B3E0AD90BB24A0E5B3E0AA0DBB1D81
:1009A0008C91A1E0B3E0AD90BB24A0E5B3E0AA0D2B
:1009B000BB1D8C9380910103815080930103809132
:1009C000000381508093000310F00C94C00480E079
:1009D000809351038091020380935203A2E0B3E01D
:1009E0000D9111270D5F1F4FA3E6BAE20D931C93E3
:1009F0000E9424040E94CB0308950F921F922F920D
:100A00003F924F925F927F92AF92BF92CF92DF92CE
:100A1000EF92FF920F931F932F933F934F935F9308
:100A20006F937F938F939F93AF93BF93CF93DF93F6
:100A3000EF93FF939FB79F939BB79F9399279BBF7C
:100A4000A0E0B3E08091C6008C93ADE4B3E00D91DB
:100A50001C91043853E1150710F00C943305ADE4F4
:100A6000B3E00E94F51A80910003ADE4B3E0AD90CD
:100A7000BD90A9EDB6E1AA0DBB1D8C9382E08093D9
:100A8000682A9F919BBF9F919FBFFF91EF91DF913C
:100A9000CF91BF91AF919F918F917F916F915F9116
:100AA0004F913F912F911F910F91FF90EF90DF9009
:100AB000CF90BF90AF907F905F904F903F902F90DE
:100AC0001F900F90189580E080933B0370E0709327
:100AD000B90070E07093B90071E17093B80070E8EC
:100AE0007093BB00A7E3B3E08C918093BA0075E4E8
:100AF0007093BC0080E080933A0308950F921F9298
:100B00002F923F924F925F927F92AF92BF920F933C
:100B10001F932F933F934F935F936F937F938F9385
:100B20009F93AF93BF93CF93DF93EF93FF939FB7C1
:100B30009F939BB79F9399279BBF009139030030E8
:100B400011F00C94A70575EC7093BC00089581E03A
:100B500080933A030091B9004CEF0423A0E0B3E086
:100B60000C9300910003003611F00C94BC0575EC59
:100B70007093BC000C940C07083611F00C94C5055A
:100B800075EC7093BC000C940C07003711F00C94BA
:100B9000CE0575EC7093BC000C940C07083711F06F
:100BA0000C94D70575EC7093BC000C940C070038BE
:100BB00011F00C94FC05ADE4B3E00D911C910438E8
:100BC00053E1150710F00C94E905ADE4B3E00E9481
:100BD000F51AADE4B3E0AD90BD90A9EDB6E1AA0D74
:100BE000BB1D8091BB008C9383E08093682A75ECD9
:100BF0007093BC000C940C07083811F00C9421067B
:100C0000ADE4B3E00D911C91043853E1150710F0E9
:100C10000C940E06ADE4B3E00E94F51AADE4B3E027
:100C2000AD90BD90A9EDB6E1AA0DBB1D8091BB00B2
:100C30008C9375EC7093BC0083E08093682A0C94CD
:100C40000C07003911F00C944606ADE4B3E00D91A9
:100C50001C91043853E1150710F00C943306ADE4F1
:100C6000B3E00E94F51AADE4B3E0AD90BD90A9EDFC
:100C7000B6E1AA0DBB1D8091BB008C9375EC7093FF
:100C8000BC0083E08093682A0C940C07083911F0AB
:100C90000C946B06ADE4B3E00D911C91043853E164
:100CA000150710F00C945806ADE4B3E00E94F51A55
:100CB000ADE4B3E0AD90BD90A9EDB6E1AA0DBB1DCA
:100CC0008091BB008C9375EC7093BC0083E08093A3
:100CD000682A0C940C07003A11F00C94740675EC19
:100CE0007093BC000C940C07083A11F00C949E060B
:100CF000A3E6BAE24D915C91A5E6BAE20D911C9192
:100D00000417150710F00C949606A5E6BAE2AD900C
:100D1000BD90A0E5B3E0AA0DBB1D8C918093BB00F4
:100D2000A5E6BAE20E94F51A0C94990670E8709351
:100D3000BB0075EC7093BC000C940C07003B11F0E9
:100D40000C94C806A3E6BAE24D915C91A5E6BAE21E
:100D50000D911C910417150710F00C94C006A5E620
:100D6000BAE2AD90BD90A0E5B3E0AA0DBB1D8C9199
:100D70008093BB00A5E6BAE20E94F51A0C94C30664
:100D800070E87093BB0075EC7093BC000C940C077A
:100D9000083B11F00C94F206A3E6BAE24D915C9187
:100DA000A5E6BAE20D911C910417150710F00C94FA
:100DB000EA06A5E6BAE2AD90BD90A0E5B3E0AA0DC3
:100DC000BB1D8C918093BB00A5E6BAE20E94F51A88
:100DD0000C94ED0670E87093BB0075EC7093BC004A
:100DE0000C940C07003C11F00C94FE0670E8709314
:100DF000BB0075EC7093BC000C940C07083C11F020
:100E00000C940A0770E87093BB0075EC7093BC00FB
:100E10000C940C070E946305A3E6BAE24D915C9125
:100E2000A5E6BAE20D911C910417150710F40C9475
:100E3000240781E090E0A5E6BAE28D939C9380E0E0
:100E400080933A030E94CB039F919BBF9F919FBFCA
:100E5000FF91EF91DF91CF91BF91AF919F918F91D2
:100E60007F916F915F914F913F912F911F910F91C2
:100E7000BF90AF907F905F904F903F902F901F90CA
:100E80000F90189500916F2A013011F00C944C07C7
:100E90000E9465090C945207043011F00C9452071B
:100EA0000E949E0B0895A0E7BAE20E94BE1CA3E038
:100EB000B3E08C9381E080930103409103030091A0
:100EC0000103041718F011F00C948007A1E0B3E0BF
:100ED000AD90BB24AFE6BAE2AA0DBB1D8C91A1E098
:100EE000B3E0AD90BB24A7E7BAE2AA0DBB1D8C937B
:100EF000A1E0B3E08C918F5F8C9310F40C945D07AC
:100F000080E08093050381E0809300034091E42A10
:100F100000910003041718F011F00C94C807A1E029
:100F2000B3E08C918F5F8C9300910503003011F03A
:100F30000C94AE07A0E0B3E0AD90BB24A9EDB6E100
:100F4000AA0DBB1D8C91A1E0B3E0AD90BB24A6E738
:100F5000BAE2AA0DBB1D8C930C94C007A0E0B3E0CD
:100F6000AD90BB24A0E5B3E0AA0DBB1D8C91A1E020
:100F7000B3E0AD90BB24A6E7BAE2AA0DBB1D8C93EB
:100F8000A0E0B3E08C918F5F8C9310F40C948607F3
:100F9000809101038093E42A08952C9891E0A7E7BB
:100FA000BAE20E94571BA881B9819C91A7E7BAE2D7
:100FB0000E944C1B2C9A08952C98A881B9819C9171
:100FC000A7E7BAE20E94571B2C9A089581E8809304
:100FD000772A80E88093782A82E0D2018C9381E09E
:100FE0000E94931B0E94DC07229681E00E948F1BC7
:100FF00081E88093772A81E88093782A82E0D20181
:101000008C9381E00E94931B0E94DC07229681E072
:101010000E948F1B089582E18093772A81E0D2019C
:101020008C9381E00E94931B0E94CD07229681E061
:101030000E948F1B089582E98093772A8FEF809317
:10104000782A82E0D2018C9381E00E94931B0E9457
:10105000DC07229681E00E948F1B81E090E00E94D5
:10106000781B82E0D2018C9381E00E94931B0E9446
:10107000DC07229681E00E948F1B089586E0809312
:10108000772A83E0D2018C9381E00E94931B0E9417
:10109000CD07229681E00E948F1BA7E7BAE20C9150
:1010A00011272227332740E050E061E070E00E94E2
:1010B000A51BACE0B3E00D931D932D933D93A8E7E2
:1010C000BAE20C9111272227332740E051E060E07B
:1010D00070E00E94A51BA0E1B3E00D931D932D933A
:1010E0003D93ACE0B3E00D911D912D913C91A0E1B9
:1010F000B3E04D915D916D917C910E94FD1BACE040
:10110000B3E00D931D932D933D93ACE0B3E00D91AF
:101110001D912D913C91A9E7BAE24C915527662784
:1011200077270E94FD1BACE0B3E00D931D932D9338
:101130003D93ECE0F3E00E94D21C0E94351DA8E133
:10114000B3E00E94DC1CECE0FCE30E94F71B0E9471
:10115000F91DE8E1F3E00E94D21C0E94BB1DEDE006
:10116000F0E0A8E1B3E00E946A1CE0E1FCE30E9429
:10117000F71B0E94F91DE8E1F3E00E94D21C0E94D7
:10118000621DEDE0F0E0A8E1B3E00E946A1CE8E136
:10119000F3E00E94E71CACE0B3E0EDE0FF270E9423
:1011A0006A1CACE0B3E00D911D912D913C9140E49F
:1011B0005EE06FEC79E10E94021CACE0B3E00D93BD
:1011C0001D932D933D93ACE0B3E00D911D912D91B6
:1011D0003C91ACEDBAE20D931D932D933C93089591
:1011E000ACE0B3E00D911D912D913C9140E45EE0A7
:1011F0006FEC79E10E94FD1BACE0B3E00D931D9311
:101200002D933D93ECE0F3E00E94D21C0E94351D2B
:10121000ACE1B3E00E94DC1CA8E1B3E0E4E1FCE354
:101220000E94F71B0E94DC1BE8E1F3E00E94D71C40
:10123000ECE1F3E00E94D21C0E94621DEDE0F0E0C0
:10124000ACE1B3E00E946A1CECE1F3E00E94E71C11
:10125000ACE0B3E0EDE0FF270E946A1C86E88093D3
:10126000772A80910E038093782A80910D038093D2
:10127000792A80910C0380937A2A84E0D2018C939E
:1012800081E00E94931B0E94DC07229681E00E946D
:101290008F1B08950E94E60781E090E00E94781B72
:1012A0000E941B0881E88093772A85E88093782A3A
:1012B00082E0D2018C9381E00E94931B0E94DC07A4
:1012C000229681E00E948F1B08950E94E60781E824
:1012D0008093772A83E0D2018C9381E00E94931B54
:1012E0000E94CD07229681E00E948F1B8091772A71
:1012F0008093000300910003013811F40C948409D9
:1013000080E080936F2A089589E88093772A8FEC94
:101310008093782A82E0D2018C9381E00E94931B13
:101320000E94DC07229681E00E948F1B80EA809356
:10133000772A83E08093782A8FEF8093792A83E05D
:10134000D2018C9381E00E94931B0E94DC072296BD
:1013500081E00E948F1B86EA8093772A84E0809345
:10136000782A82E0D2018C9381E00E94931B0E9434
:10137000DC07229681E00E948F1B8EE98093772AFA
:1013800084E78093782A82E0D2018C9381E00E94E6
:10139000931B0E94DC07229681E00E948F1BACED1C
:1013A000BAE20D911D912D913C9148EE53E060E021
:1013B00070E00E94A51BACE0B3E00D931D932D934C
:1013C0003D930E94F0080E944A09089584E68093A4
:1013D00000030E94E60781E090E00E94781B8DE800
:1013E0008093772A80E88093782A82E0D2018C93D8
:1013F00081E00E94931B0E94DC07229681E00E94FC
:101400008F1B80E88093772A0E9453078091E42AFB
:10141000D2018C9381E00E94931B0E94DC072296EC
:1014200081E00E948F1B82EA8093772A0091E42A50
:1014300041E0041BA8E7BAE20C9382E0D2018C934E
:1014400081E00E94931B0E94DC07229681E00E94AB
:101450008F1B81E090E00E94781B81E88093772ABF
:1014600083E88093782A82E0D2018C9381E00E9405
:10147000931B0E94DC07229681E00E948F1B9FB77E
:10148000F89480916000886180936000877E8093EB
:1014900060009FBF80E0809301030E940B080091D1
:1014A000772A48E00423A0E0B3E00C930091000306
:1014B000083011F00C945F0A8AEF80930103A1E0D9
:1014C000B3E08C918F5F8C9384E690E00E94781B50
:1014D000009101030A3F08F4E0CF8091600088602A
:1014E000809360000E941B088DE88093772A80E833
:1014F0008093782A82E0D2018C9381E00E94931B32
:101500000E94DC07229681E00E948F1B0E944A09FC
:101510000E94CB0308950E940B088091772A809344
:10152000000300910003003018F011F00C949A0AA7
:101530000C949D0B0091000340E20423A1E0B3E072
:101540000C930091000340E40423A2E0B3E00C9369
:1015500000910103003211F00C94B20A0E944A0972
:101560000C949D0B00910203003411F00C949D0B20
:101570008DE88093772A80E08093782A82E0D201F8
:101580008C9381E00E94931B0E94DC07229681E0ED
:101590000E948F1B83E18093772A81E0D2018C9394
:1015A00081E00E94931B0E94CD07229681E00E9459
:1015B0008F1B8091772A8093000380E08093772AA5
:1015C00080910003D2018C9381E00E94931B0E94C2
:1015D000CD07229681E00E948F1BA0E7BAE20E940D
:1015E000BE1CA2E0B3E08C9381E08093010381E014
:1015F000809303034091020300910303041718F042
:1016000011F00C94240BA3E0B3E0AD90BB24A6E74B
:10161000BAE2AA0DBB1D4C91A3E0B3E0AD90BB2490
:10162000AFE6BAE2AA0DBB1D0C91041711F40C949D
:101630001C0B80E080930103A3E0B3E08C918F5FEB
:101640008C9310F40C94FA0A00910103013011F00C
:101650000C94980BA2E0B3E08C918F5F8C9380E0A8
:101660008093050300910503003011F00C945F0B8B
:1016700080910203809301034091000300910103D4
:10168000041718F011F00C945D0BA1E0B3E0AD90DD
:10169000BB24A6E7BAE2AA0DBB1D8C91809303037D
:1016A00031E0A3E0B3E00E94341BA1E0B3E08C91F1
:1016B0008F5F8C9310F40C943C0B0C94980B81E08E
:1016C0008093030380E090E0ADE4B3E08D939C93BE
:1016D0008091020380930103409100030091010374
:1016E000041718F011F00C94980BA1E0B3E0AD9042
:1016F000BB24A6E7BAE2AA0DBB1D8C91A3E0B3E020
:10170000AD90BB24A9EDB6E1AA0DBB1D8C93ADE451
:10171000B3E00E94F51AA3E0B3E08C918F5F8C9345
:10172000A1E0B3E08C918F5F8C9310F40C946C0B60
:101730000E944A0984E08093682A089547982C986B
:1017400081E08093772A81E0D2018C9381E00E942E
:10175000931B0E94CD07229681E00E948F1B8091EF
:10176000772A80930003009100030F3311F40C9447
:10177000BD0B80E080936F2A08950E94740C0E9434
:10178000B70C81E28093772A81E08093782A82E007
:10179000D2018C9381E00E94931B0E94DC07229669
:1017A00081E00E948F1B82E28093772A81E0809300
:1017B000782A82E0D2018C9381E00E94931B0E94E0
:1017C000DC07229681E00E948F1B85E28093772AB6
:1017D0008091E02A8093782A82E0D2018C9381E084
:1017E0000E94931B0E94DC07229681E00E948F1BBF
:1017F00081E38093772A80E28093782A82E0D20185
:101800008C9381E00E94931B0E94DC07229681E06A
:101810000E948F1B86E28093772A8BE08093782A40
:1018200082E0D2018C9381E00E94931B0E94DC072E
:10183000229681E00E948F1B8CE38093772A81E0BF
:101840008093782A82E0D2018C9381E00E94931BDE
:101850000E94DC07229681E00E948F1B8DE380931B
:10186000772A84E08093782A82E0D2018C9381E009
:101870000E94931B0E94DC07229681E00E948F1B2E
:1018800080E28093772A8FE08093782A82E0D201E9
:101890008C9381E00E94931B0E94DC07229681E0DA
:1018A0000E948F1B479A089582EE8093772A81E0E9
:1018B000D2018C9381E00E94931B0E94DC07229648
:1018C00081E00E948F1B089581EE8093772A81E04A
:1018D000D2018C9381E00E94931B0E94DC07229628
:1018E00081E00E948F1B089587E28093772A80E72A
:1018F0008093782A82E0D2018C9381E00E94931B2E
:101900000E94DC07229681E00E948F1B0895479871
:1019100085E28093772A8091E02A8093782A82E07A
:10192000D2018C9381E00E94931B0E94DC072296D7
:1019300081E00E948F1B0895479885E08093772A65
:1019400081E0D2018C9381E00E94931B0E94CD071D
:10195000229681E00E948F1BA7E7BAE28C91A0EE4D
:10196000BAE28D9388278D938D938C930895479831
:1019700086E070E0A7E7BAE20E94711CA0E7BAE235
:101980000E94BE1CA2E0B3E08C9382E0809301032E
:1019900081E080930003409102030091000304174B
:1019A00018F011F00C94EE0CA0E0B3E0AD90BB2465
:1019B000AFE6BAE2AA0DBB1D8C91A0E0B3E0AD90FA
:1019C000BB24A7E7BAE2AA0DBB1D8C93A0E0B3E04D
:1019D0008C918F5F8C9310F40C94CB0C8AE28093E3
:1019E000772A86E0D2018C9381E00E94931B0E94AB
:1019F000DC07229681E00E948F1B80E38093772A88
:101A000086E0D2018C9381E00E94931B0E94DC0748
:101A1000229681E00E948F1B089547980E94640CD3
:101A20000E94740C80E28093772A8EE08093782A5B
:101A300082E0D2018C9381E00E94931B0E94DC071C
:101A4000229681E00E948F1B81E08093010380E059
:101A50008093050380E0809304030091E42A003220
:101A600018F011F00C94360D0C943B0D80E280932D
:101A700003030C94420D8091E42A8093030381E0D8
:101A80008093040380EA8093772A82E080930203A4
:101A900081E00E94931B0091010340910303040F16
:101AA000A881B9810C938091010380930003A881E0
:101AB000B9814C9100910003041718F011F00C94B7
:101AC0009A0D00910503003011F00C947B0DA0E0FD
:101AD000B3E0AD90BB24A9EDB6E1AA0DBB1D8C917E
:101AE000A2E0B3E0AD90BB24A6E7BAE2AA0DBB1D0D
:101AF0008C930C948D0DA0E0B3E0AD90BB24A0E5D9
:101B0000B3E0AA0DBB1D8C91A2E0B3E0AD90BB2465
:101B1000A6E7BAE2AA0DBB1D8C93A2E0B3E08C91BC
:101B20008F5F8C93A0E0B3E08C918F5F8C9310F467
:101B30000C94570D81E0481A80E0580A22960091D3
:101B4000030341E0040FD2010C9381E00E94931B38
:101B50000E94DC07229681E00E948F1B82E090E0C9
:101B60000E94781B479A81E090E00E94781B47987A
:101B700080E08093020387E08093772A81E0D2019E
:101B80008C9381E00E94931B0E94CD07229681E0F6
:101B90000E948F1B0091772A40E70423A0E0B3E066
:101BA0000C9300910003003211F40C94E00D81E0DD
:101BB00090E00E94781BA2E0B3E08C918F5F8C9341
:101BC00000910203023380E010F009F081E08F936E
:101BD00000910003003281E009F080E09F91892BA1
:101BE000882311F40C94BB0D00910203023318F00A
:101BF00011F00C94FD0D0C94000E81E08093040311
:101C00000091010340910303040FA1E0B3E00C93A2
:101C10000091E42A40910303041BA4EEBAE20C9362
:101C200000910403003011F00C941A0E84E190E04E
:101C30000E94781B00910403013011F00C942D0DCB
:101C40000E94740C80E28093772A8FE08093782A38
:101C500082E0D2018C9381E00E94931B0E94DC07FA
:101C6000229681E00E948F1B479A089587E1809316
:101C7000772A81E0D2018C9381E00E94931B0E941D
:101C8000CD07229681E00E948F1BA7E7BAE20C9154
:101C900000FB16F40C94BD0E47982C9880E68093B8
:101CA000772A81E0D2018C9381E00E94931B0E94ED
:101CB000CD07229681E00E948F1B8091772A809326
:101CC000000381E68093772A80E0809305030091EA
:101CD0000503003011F00C94A00E80910003D20196
:101CE0008C9381E00E94931B0E94CD07229681E095
:101CF0000E948F1B81E080930103409100030091BB
:101D00000103041718F011F00C949E0EA1E0B3E04B
:101D1000AD90BB24A6E7BAE2AA0DBB1D8C918093BF
:101D2000030331E0A3E0B3E00E94341BA1E0B3E081
:101D30008C918F5F8C9310F40C947D0E0C94B50EE7
:101D40002C9891E0A7E7BAE20E94571B90910003FC
:101D5000AAEDB6E10E944C1B2C9AA0E0B3E08C9156
:101D6000ADE4B3E08D9388278C930E94740C0E949D
:101D7000540C84E08093682A479A08950E949A043C
:101D80000E9424040E94CB030895ADE4B3E00D91BA
:101D90001C91033050E0150710F40C94530FADE480
:101DA000B3E08D919C91AFE4B3E08D939C9300914F
:101DB000682A043011F40C94470F1B990C943B0FC4
:101DC000ABEDB6E10D91112740E051E00E949B1B65
:101DD000A6E0B3E00D931C93A6E0B3E00D911C9137
:101DE000ACEDB6E14D915527040F151FA6E0B3E009
:101DF0000D931C93A6E0B3E00D911C91043A56E0BC
:101E0000150710F00C942D0FA6E0B3E08D919C9176
:101E1000ACEDBAE28D939D9388278D938C93EAE283
:101E2000F0E0ACEDBAE294E07BE70E94811CACEDFF
:101E3000BAE20D911D912D913C9148EE53E060E086
:101E400070E00E94A51BACE0B3E00D931D932D93B1
:101E50003D930E94F0080C94370F84E08093692A28
:101E60008091672A80936A2A81E080936B2A0E947E
:101E7000CB030C94450F86E08093692A8091672AF2
:101E800080936A2A81E080936B2A0C94510F86E03C
:101E90008093692A8091672A80936A2A81E08093DF
:101EA0006B2A0E94CB030895ADE4B3E08D919C9121
:101EB000AFE4B3E08D939C9300916F2A013011F051
:101EC0000C94640F0E943E0882E080935103ACEDB5
:101ED000BAE28D919C91A6E0B3E08D939C93E6E0ED
:101EE000F3E0AAE7B0E40E94151C0E94251B0E94A3
:101EF000391B8091070380935203809106038093DE
:101F0000530384E090E0A3E6BAE28D939C930E9491
:101F100024040895ADE4B3E00D911C91023050E02B
:101F2000150710F40C94E50FADE4B3E08D919C918E
:101F3000AFE4B3E08D939C930091682A043011F4D0
:101F40000C94D90F1B990C94CD0F0091DB1601381E
:101F500010F00C94C10FA0E0B3E08C91A0EEBAE2B7
:101F60008D9388278D938D938C93EEE2F0E0A0EE15
:101F7000BAE294E07BE70E94811C0E94870C0C94DB
:101F8000CB0F84E08093692A8091672A80936A2A24
:101F900081E080936B2A0C94D70F86E08093692AA6
:101FA0008091672A80936A2A81E080936B2A0C943F
:101FB000E30F86E08093692A8091672A80936A2ADA
:101FC00081E080936B2A0E94CB030895ADE4B3E0D7
:101FD0008D919C91AFE4B3E08D939C9300916F2A17
:101FE000043011F00C94F60F0E949C0C84E0809356
:101FF00051038091E02A8093520383E090E0A3E6AE
:10200000BAE28D939C930E9424040895ADE4B3E05A
:102010008D919C91AFE4B3E08D939C9385E0809388
:1020200051031B990C94191081E0809352030C9476
:102030001C1080E08093520383E090E0A3E6BAE2B4
:102040008D939C930E9424040895ADE4B3E08D9198
:102050009C91AFE4B3E08D939C930E94CB030895D1
:10206000ADE4B3E00D911C91033050E0150710F47E
:102070000C943511ADE4B3E08D919C91AFE4B3E0E5
:102080008D939C93ABEDB6E18C91A9E4B3E08D9375
:1020900088278C93ACEDB6E18C91ABE4B3E08D93E3
:1020A00088278C9384E090E0A3E6BAE28D939C931A
:1020B000A9E4B3E00D911C910E3050E0150781E0CA
:1020C00008F080E08F93ABE4B3E00D911C910E30EB
:1020D00050E0150781E008F080E09F918923882374
:1020E00011F40C942911ABE4B3E00D911C91003074
:1020F00050E0150718F011F00C9480100C94271183
:1021000084E090E0A3E6BAE28D939C9380E090E0B7
:10211000A6E0B3E08D939C93A9E4B3E08D919C91EC
:10212000AAE0B3E08D939C93E6E2F3E30E94F71BF1
:10213000AAE0B3E08D919C910E94E41BA1E0B1E084
:102140000E94C81BA1E0B1E00E94BE1CA2E0B3E067
:102150008C93A3E6BAE20D911C91A2E0B3E04D91FD
:102160005527040F151FA8E0B3E00D931C93A3E0BF
:10217000B3E08C918F5F8C93A8E0B3E00D911C913C
:10218000083853E1150718F011F00C9408118091EC
:102190000203A3E6BAE2AD90BD90A0E5B3E0AA0DBC
:1021A000BB1D8C93A3E6BAE20E94F51A81E08093EE
:1021B00000034091020300910003041718F011F08E
:1021C0000C940011A0E0B3E0AD90BB24A0E0B1E01E
:1021D000AA0DBB1D8C91A3E6BAE2AD90BD90A0E51F
:1021E000B3E0AA0DBB1D8C93A3E6BAE20E94F51AD8
:1021F000A0E0B3E08C918F5F8C9310F40C94D91015
:10220000A6E0B3E00E94F51AAAE0B3E00E94F51A36
:10221000ABE4B3E00E94FC1AABE4B3E00D911C9177
:10222000003050E0150711F00C94941080EF80936B
:1022300051038091DB1680935203809106038093B3
:10224000000380910003809353030E9424040C94A4
:10225000351184E08093692A8091672A80936A2AE5
:1022600081E080936B2A0E94CB030895ADE4B3E034
:102270000D911C91033050E0150710F40C9491134C
:1022800083E090E0A3E6BAE28D939C93ADE4B3E0E3
:102290008D919C91AFE4B3E08D939C931B9B0C9428
:1022A0005E1186E08093692A8091672A80936A2A6A
:1022B00081E080936B2A0E94CB0308950091DB1686
:1022C000003011F00C94B1110091682A023011F421
:1022D0000C94A3111B990C949711A3E6BAE2AD904C
:1022E000BD90A9EDB6E1AA0DBB1D8C9180930103B1
:1022F00000910103043010F00C948B1180910103C4
:1023000080933F03EBE1F0E0AFE3B3E07BE70E94B3
:102310007E1C0C94951184E08093692A8091672A31
:1023200080936A2A81E080936B2A0C94A11186E045
:102330008093692A8091672A80936A2A81E080933A
:102340006B2A0C94AD1186E08093692A8091672AEC
:1023500080936A2A81E080936B2A0E94CB030C94BD
:102360009113013011F00C945112A3E6BAE2AD9032
:10237000BD90A9EDB6E1AA0DBB1D0C91003011F086
:102380000C94C6110E94CB030C944F12A3E6BAE240
:10239000AD90BD90A9EDB6E1AA0DBB1D8C918093C7
:1023A0000003009100034091632A040FA5E0B3E00D
:1023B0000C93A3E6BAE20E94F51AA5E0B3E04D91B2
:1023C0005527ADE4B3E00D911C910417150710F4E7
:1023D0000C944F12ADE4B3E08D919C91AFE4B3E067
:1023E0008D939C9300910003053010F00C944312E0
:1023F0000091682A023011F40C94371283E070E0E7
:10240000A0E4B3E00E94711C81E08093010340913D
:10241000000300910103041718F011F00C942E1220
:10242000A3E6BAE2AD90BD90A9EDB6E1AA0DBB1D41
:102430008C91A1E0B3E0AD90BB24AFE3B3E0AA0D73
:10244000BB1D8C93A3E6BAE20E94F51AA1E0B3E0AB
:102450008C918F5F8C9310F40C940712E4E2F0E0FF
:10246000A0E7BAE27BE70E948F1C0C94411286E041
:102470008093692A8091672A80936A2A81E08093F9
:102480006B2A0C944D1284E08093692A8091672A0C
:1024900080936A2A81E080936B2A0E94CB030C947C
:1024A0009113023011F00C9493120091682A0430B9
:1024B00011F40C948512A3E6BAE2AD90BD90A9ED9B
:1024C000B6E1AA0DBB1D8C9180930103009101031D
:1024D000073010F00C9479128091010380936F2AD9
:1024E000E2E2F0E0AFE6BAE27BE70E947E1C0C94E9
:1024F000831284E08093692A8091672A80936A2AF4
:1025000081E080936B2A0C948F1286E08093692A75
:102510008091672A80936A2A81E080936B2A0E94C7
:10252000CB030C949113033011F00C943B13A3E6EE
:10253000BAE2AD90BD90A9EDB6E1AA0DBB1D0C911C
:10254000003011F00C94A8120E94CB030C943913A4
:10255000A3E6BAE2AD90BD90A9EDB6E1AA0DBB1D10
:102560008C9180930003009100034091632A040F33
:10257000A5E0B3E00C93A3E6BAE20E94F51AA5E049
:10258000B3E04D915527ADE4B3E00D911C910417D4
:10259000150710F40C943913ADE4B3E08D919C91C0
:1025A000AFE4B3E08D939C9300910003053010F0ED
:1025B0000C942D130091682A043011F40C9421130B
:1025C00085E070E0A0E7BAE20E94711C81E0809390
:1025D00001034091000300910103041718F011F06A
:1025E0000C941013A3E6BAE2AD90BD90A9EDB6E14C
:1025F000AA0DBB1D8C91A1E0B3E0AD90BB24AFE66A
:10260000BAE2AA0DBB1D8C93A3E6BAE20E94F51AAA
:10261000A1E0B3E08C918F5F8C9310F40C94E912DD
:10262000E4E2F0E0A0E7BAE27BE70E948F1C0091B1
:102630006F2A043011F00C941F130E94B70C0C94F5
:102640002B1386E08093692A8091672A80936A2AF7
:1026500081E080936B2A0C94371384E08093692A7D
:102660008091672A80936A2A81E080936B2A0E9476
:10267000CB030C949113043011F00C94851300914A
:10268000682A033011F40C947713A3E6BAE2AD90F4
:10269000BD90A9EDB6E1AA0DBB1D8C9180930103FD
:1026A00000910103003810F00C946B13A1E0B3E02B
:1026B0000C9142E0049F0C928091010380933703B8
:1026C000E8E1F0E0A7E3B3E07BE70E947E1C0E9414
:1026D00063050C94751384E08093692A8091672ABE
:1026E00080936A2A81E080936B2A0C94811386E0A0
:1026F0008093692A8091672A80936A2A81E0809377
:102700006B2A0E94CB030C94911384E08093692A76
:102710008091672A80936A2A81E080936B2A0E94C5
:10272000CB030895ADE4B3E00D911C91023050E06D
:10273000150710F40C94A714ADE4B3E08D919C91AF
:10274000AFE4B3E08D939C9387EF80935103809126
:10275000DB168093520383E090E0A3E6BAE28D9308
:102760009C930091DB16003011F00C94C8138091FB
:102770003F03A3E6BAE2AD90BD90A0E5B3E0AA0D99
:10278000BB1D8C93A3E6BAE20E94F51A0C94981430
:10279000013011F00C940E14A0E4B3E00E94BE1CB2
:1027A000A2E0B3E08C9380910203A3E6BAE2AD907D
:1027B000BD90A0E5B3E0AA0DBB1D8C93A3E6BAE2E1
:1027C0000E94F51A81E0809300034091020300917A
:1027D0000003041718F011F00C940C14A0E0B3E0FF
:1027E000AD90BB24AFE3B3E0AA0DBB1D8C91A3E673
:1027F000BAE2AD90BD90A0E5B3E0AA0DBB1D8C93ED
:10280000A3E6BAE20E94F51AA0E0B3E08C918F5FD4
:102810008C9310F40C94E5130C949814023011F07E
:102820000C94231480916F2AA3E6BAE2AD90BD9078
:10283000A0E5B3E0AA0DBB1D8C93A3E6BAE20E940B
:10284000F51A0C949814033011F00C946914A0E755
:10285000BAE20E94BE1CA2E0B3E08C938091020316
:10286000A3E6BAE2AD90BD90A0E5B3E0AA0DBB1D12
:102870008C93A3E6BAE20E94F51A81E080930003EC
:102880004091020300910003041718F011F00C941A
:102890006714A0E0B3E0AD90BB24AFE6BAE2AA0DA6
:1028A000BB1D8C91A3E6BAE2AD90BD90A0E5B3E06C
:1028B000AA0DBB1D8C93A3E6BAE20E94F51AA0E014
:1028C000B3E08C918F5F8C9310F40C9440140C94B3
:1028D0009814043011F00C9486140091370342E0F0
:1028E0000E94AE1CA1E0B3E00C9380910103A3E62B
:1028F000BAE2AD90BD90A0E5B3E0AA0DBB1D8C93EC
:10290000A3E6BAE20E94F51A0C94981484E080932E
:10291000692A8091672A80936A2A81E080936B2AD2
:1029200080E090E0A3E6BAE28D939C930E94CB03F3
:10293000A3E6BAE20D911C91003050E0150718F0A3
:1029400011F00C94A5140C94A7140E94240408956B
:10295000ADE4B3E08D919C91AFE4B3E08D939C9393
:102960008EE170E0A1E5B3E00E94711C8CEF8093D2
:10297000510383E080930003E7E6FAE2A1E0B1E0CF
:102980000E94251CA1E0B1E00E94BE1CA3E0B3E0C0
:102990008C9381E080930103409103030091010334
:1029A000041718F011F00C94F414A1E0B3E0AD900A
:1029B000BB24A0E0B1E0AA0DBB1D8C91A0E0B3E068
:1029C000AD90BB24A0E5B3E0AA0DBB1D8C93A0E0A5
:1029D000B3E08C918F5F8C93A1E0B3E08C918F5F1B
:1029E0008C9310F40C94CC140091692A003011F0EF
:1029F0000C940415A1E0B1E0E2E3FCE30E94F71BB4
:102A00000E94C81B0C948A15013011F00C94121509
:102A1000A1E0B1E0E8E4FCE30E94F71B0E94C81BC0
:102A20000C948A15023011F00C942015A1E0B1E04D
:102A3000E6E5FCE30E94F71B0E94C81B0C948A1574
:102A4000033011F00C942E15A1E0B1E0EAE6FCE3AE
:102A50000E94F71B0E94C81B0C948A15043011F0C9
:102A60000C943C15A1E0B1E0E0E8FCE30E94F71B08
:102A70000E94C81B0C948A15053011F00C944A155D
:102A8000A1E0B1E0E4E9FCE30E94F71B0E94C81B4F
:102A90000C948A15063011F00C945815A1E0B1E0A1
:102AA000EAEAFCE30E94F71B0E94C81B0C948A15FB
:102AB000073011F00C946615A1E0B1E0E6ECFCE300
:102AC0000E94F71B0E94C81B0C948A15083011F055
:102AD0000C947415A1E0B1E0EEEDFCE30E94F71B4D
:102AE0000E94C81B0C948A150F3F11F00C9482159C
:102AF000A1E0B1E0ECEFFCE30E94F71B0E94C81BD1
:102B00000C948A15A1E0B1E0EAE0FDE30E94F71B16
:102B10000E94C81BA1E0B1E00E94BE1CA3E0B3E08C
:102B20008C9381E0809301034091030300910103A2
:102B3000041718F011F00C94BC15A1E0B3E0AD90AF
:102B4000BB24A0E0B1E0AA0DBB1D8C91A0E0B3E0D6
:102B5000AD90BB24A0E5B3E0AA0DBB1D8C93A0E013
:102B6000B3E08C918F5F8C93A1E0B3E08C918F5F89
:102B70008C9310F40C949415EAE6FAE2A1E0B1E02B
:102B80000E94251CA1E0B1E00E94BE1CA3E0B3E0BE
:102B90008C9381E080930103409103030091010332
:102BA000041718F011F00C94F415A1E0B3E0AD9007
:102BB000BB24A0E0B1E0AA0DBB1D8C91A0E0B3E066
:102BC000AD90BB24A0E5B3E0AA0DBB1D8C93A0E0A3
:102BD000B3E08C918F5F8C93A1E0B3E08C918F5F19
:102BE0008C9310F40C94CC150091000343E0041B6B
:102BF000A2E5B3E00C93A0E0B3E08C91A3E6BAE2C7
:102C00008D9388278C930E9424040895ADE4B3E04B
:102C10008D919C91AFE4B3E08D939C938DEF809365
:102C2000510384E08093520383E090E0A3E6BAE28C
:102C30008D939C930E9424040895ADE4B3E00D911C
:102C40001C91033050E0150710F40C94321883E007
:102C500090E0A3E6BAE28D939C93ADE4B3E08D914E
:102C60009C91AFE4B3E08D939C930091DB16003010
:102C700011F00C94C816A3E6BAE2AD90BD90A9ED90
:102C8000B6E1AA0DBB1D0C91003011F00C944C164E
:102C90000E94CB030C94C616A3E6BAE2AD90BD9099
:102CA000A9EDB6E1AA0DBB1D8C91809300030091A4
:102CB00000034091632A040FA5E0B3E00C93A3E660
:102CC000BAE20E94F51AA5E0B3E04D915527ADE4B4
:102CD000B3E00D911C910417150710F40C94C6165F
:102CE00000910003043118F011F00C94BA16ADE411
:102CF000B3E08D919C91AFE4B3E08D939C9384E11C
:102D000070E0A1E2B3E00E94711C81E080930103B6
:102D10004091000300910103041718F011F00C9486
:102D2000AF16A3E6BAE2AD90BD90A9EDB6E1AA0D4B
:102D3000BB1D8C91A1E0B3E0AD90BB24A0E2B3E059
:102D4000AA0DBB1D8C93A3E6BAE20E94F51AA1E07E
:102D5000B3E08C918F5F8C9310F40C948816E2E0B2
:102D6000F0E0A1E2B3E07BE70E948F1C0E94CB035E
:102D70000C94C41684E08093692A8091672A80931A
:102D80006A2A81E080936B2A0E94CB030C9432184C
:102D9000013011F00C94E216A3E6BAE2AD90BD90BA
:102DA000A9EDB6E1AA0DBB1D8C9180933603E7E136
:102DB000F0E0A6E3B3E07BE70E947E1C0E94CB0319
:102DC0000C943218023011F00C9433170091682AD9
:102DD000023011F40C9425171B990C941917A3E6D3
:102DE000BAE2AD90BD90A9EDB6E1AA0DBB1D8C91E4
:102DF0008093010300910103023010F00C940D1731
:102E00008091010380933C03EAE1F0E0ACE3B3E09E
:102E10007BE70E947E1C0C94171784E08093692A3C
:102E20008091672A80936A2A81E080936B2A0C94B0
:102E3000231786E08093692A8091672A80936A2A03
:102E400081E080936B2A0C942F1786E08093692A87
:102E50008091672A80936A2A81E080936B2A0E947E
:102E6000CB030C943218033011F00C9484170091AA
:102E7000682A023011F40C9476171B990C946A1787
:102E8000A3E6BAE2AD90BD90A9EDB6E1AA0DBB1DD7
:102E90008C918093010300910103023010F00C9497
:102EA0005E178091010380934403E0E2F0E0A4E424
:102EB000B3E07BE70E947E1C0C94681784E080934B
:102EC000692A8091672A80936A2A81E080936B2A1D
:102ED0000C94741786E08093692A8091672A809306
:102EE0006A2A81E080936B2A0C94801786E0809395
:102EF000692A8091672A80936A2A81E080936B2AED
:102F00000E94CB030C943218043011F00C94D517A6
:102F10000091682A043011F40C94C7171B990C9483
:102F2000BB17A3E6BAE2AD90BD90A9EDB6E1AA0D3C
:102F3000BB1D8C918093010300910103023010F0BE
:102F40000C94AF178091010380934503E1E2F0E018
:102F5000A5E4B3E07BE70E947E1C0C94B91784E0E3
:102F60008093692A8091672A80936A2A81E08093FE
:102F70006B2A0C94C51786E08093692A8091672A92
:102F800080936A2A81E080936B2A0C94D11786E0A3
:102F90008093692A8091672A80936A2A81E08093CE
:102FA0006B2A0E94CB030C943218053011F00C945C
:102FB00026180091682A033011F40C9418181B99F4
:102FC0000C940C18A3E6BAE2AD90BD90A9EDB6E161
:102FD000AA0DBB1D8C918093010300910103023067
:102FE00010F00C9400188091010380933903E9E1FB
:102FF000F0E0A9E3B3E07BE70E947E1C0C940A1882
:1030000084E08093692A8091672A80936A2A81E00C
:1030100080936B2A0C94161886E08093692A80911D
:10302000672A80936A2A81E080936B2A0C94221885
:1030300086E08093692A8091672A80936A2A81E0DA
:1030400080936B2A0E94CB030C94321884E0809307
:10305000692A8091672A80936A2A81E080936B2A8B
:103060000E94CB030895ADE4B3E00D911C910230B2
:1030700050E0150710F40C942419ADE4B3E08D91E1
:103080009C91AFE4B3E08D939C938FEF80935103B9
:103090008091DB168093520383E090E0A3E6BAE2CE
:1030A0008D939C930091DB16003011F00C949A18CC
:1030B000A1E2B3E00E94BE1CA2E0B3E08C93809139
:1030C0000203A3E6BAE2AD90BD90A0E5B3E0AA0D7D
:1030D000BB1D8C93A3E6BAE20E94F51A81E08093AF
:1030E00000034091020300910003041718F011F04F
:1030F0000C949818A0E0B3E0AD90BB24A0E2B3E03C
:10310000AA0DBB1D8C91A3E6BAE2AD90BD90A0E5DF
:10311000B3E0AA0DBB1D8C93A3E6BAE20E94F51A98
:10312000A0E0B3E08C918F5F8C9310F40C94711835
:103130000C941519013011F00C94AF1880913603DE
:10314000A3E6BAE2AD90BD90A0E5B3E0AA0DBB1D29
:103150008C93A3E6BAE20E94F51A0C94151902307A
:1031600011F00C94C41880913C03A3E6BAE2AD9030
:10317000BD90A0E5B3E0AA0DBB1D8C93A3E6BAE217
:103180000E94F51A0C941519033011F00C94D918FB
:1031900080914403A3E6BAE2AD90BD90A0E5B3E010
:1031A000AA0DBB1D8C93A3E6BAE20E94F51A0C94FB
:1031B0001519043011F00C94EE1880914503A3E624
:1031C000BAE2AD90BD90A0E5B3E0AA0DBB1D8C9313
:1031D000A3E6BAE20E94F51A0C941519053011F015
:1031E0000C94031980913903A3E6BAE2AD90BD9027
:1031F000A0E5B3E0AA0DBB1D8C93A3E6BAE20E9442
:10320000F51A0C94151984E08093692A8091672A35
:1032100080936A2A81E080936B2A80E090E0A3E6A5
:10322000BAE28D939C930E94CB03A3E6BAE20D9180
:103230001C91003050E0150718F011F00C94221981
:103240000C9424190E94240408950091DA16003F7A
:1032500010F00C945C190091DA16063010F00C9402
:103260004E19ECE4F9E1EF93FF93E0E4F9E1AAED04
:10327000B6E18C919927880F991FE80FF91F0994DF
:103280000C94BE0E0C94C50E0C94540F0C948A0F23
:103290000C94E60F0C9406100C945A1980E080935D
:1032A000692A8091672A80936A2A81E080936B2A39
:1032B0000E94CB030C9492190091DA1640EF041B84
:1032C000A0E0B3E00C93E2E9F9E1EF93FF93E2E7CA
:1032D000F9E1A0E0B3E08C919927880F991FE80FDE
:1032E000F91F09940C9430100C9425100C9425109F
:1032F0000C9425100C9425100C9425100C94361168
:103300000C9492130C9425100C9425100C942510F9
:103310000C9425100C94A8140C9406160C941D16ED
:103320000C9433180895303B6D3B444B3152493B6C
:1033300073657269616C20746F20776972656C6562
:10334000737320696E746572666163653B563031D4
:103350002E303B313B3233303B313B31343B312D2E
:103360003100313B6F702C6672657175656E6379E3
:10337000203433334D487A204C6F7261203B313B0F
:10338000313730302C2C7B315F3433333030307474
:103390006F3433343730307D3B6C696E3B6B487A29
:1033A00000323B61702C61733100333B6F702C66CF
:1033B00072657175656E63793B313B3132382C2C07
:1033C0007B315F32343030746F323532377D3B6C55
:1033D000696E3B4D487A00343B61702C6173333128
:1033E0003000353B61732C636F6E6669677572617F
:1033F00074696F6E3B313B302C6F66663B312C6FCE
:103400006E003234303B616E2C414E4E4F554E4370
:10341000454D454E54533B3130303B31322C737463
:103420006172743B31342C656C656D656E74733BF1
:1034300031342C434841505445522C41444D494E5F
:10344000495354524154494F4E003234363B6F6118
:103450002C434F4D3B622C52533233325F42415525
:10346000442C302C7B31396B32302C34386B342C7B
:103470003131356B7D3B332C52533233325F42490D
:1034800054532C386E313B622C524144494F5F54A7
:103490005950452C2C312C7B6E6F2C4C6F72612C4B
:1034A000776C616E2C726679613638392C6E726673
:1034B00032352C626C7565746F6F74687D3B342C8B
:1034C000524144494F5F4E414D452C2C7261646915
:1034D000783B2C343B622C49324341445245535390
:1034E0002C32383B32322C434841505445522C4107
:1034F000444D494E495354524154494F4E00323481
:10350000373B61612C6173323436003235323B61B6
:10351000612C4C415354204552524F523B32302C77
:103520006C6173745F6572726F72003235333B6128
:10353000612C4D594320494E464F3B622C41435428
:10354000495645003235343B6F612C494E4449564B
:10355000494455414C495A4154494F4E3B32302C15
:103560004E414D452C44657669636520313B622CA4
:103570004E554D4245522C313B612C525332333221
:103580002C313B612C5553422C313B612C52414430
:10359000494F2C343B612C4932432C313B32322C85
:1035A000434841505445522C41444D494E4953548F
:1035B000524154494F4E003235353B61612C6173A5
:1035C00032353400523B2124312021243220212461
:1035D0003320212434202124323436202124323552
:1035E000342049462024353D3000ED91FC91EF5FB9
:1035F000FF4FFC93EE930895ED91FC91E150F04064
:10360000FC93EE93089505D00E949B1B00FC0CD008
:1036100008950024E89457FF02C009D0689400F888
:103620000BD010F80124089502D009D008955095C8
:1036300040954F5F5F4F0895E89417FF08950095F8
:1036400010950F5F1F4F68940895AAE7B0E48D911D
:10365000882311F011D0FBCF08950E94CE1B802D3E
:1036600011F00AD0FACF08958D9106D03A95E1F77E
:1036700008958DE001D08AE00090C00005FEFCCFE7
:103680008093C600089588EE93E032D03197D9F741
:1036900008953197F1F708950E94691B8C910E945B
:1036A0006B1B8D939A95D1F70E946A1B08950E9417
:1036B000691B8D910E946B1B9A95D9F70E946A1B1A
:1036C0000895279A26982E9A259A249A83E58CBDE8
:1036D0000895089508958EBD00904D0007FEFCCF1B
:1036E0008EB50895689462F80895E89462F8089594
:1036F000EF93FF93EE27E82BE92B31F0E8E8F3E1B5
:103700003197F1F70197D1F7FF91EF91089501916A
:103710001191219130810895481A590A0895481A43
:103720008827580A089599275A924A92480E591E96
:103730000895015010400F92B801469F8001479FA5
:10374000100D569F100D0F9008950F921F922F92FB
:10375000C801D901489F80014A9F90014B9F202CAE
:10376000499F100D211D321D5A9F202C589F100D6E
:10377000211D321D599F200D311D689F200D311DC7
:10378000699F300D789F300D2F901F900F900895F6
:103790000E94CE1B0D920020D9F70895D89531963E
:1037A00028F48F938BB783958BBF8F91002008955A
:1037B00091E005C092E003C094E001C098E0EEDF24
:1037C0000D929A95E1F708950196019721F00E94D4
:1037D000CE1BE9F7FACF08950F9200240BBE0F908D
:1037E00008950F9301E00BBF0F91889408950F93F4
:1037F0000027F9CF0F9302E0F6CF040F151F261F05
:10380000371F0895041B150B260B370B0895000F67
:10381000111F221F331F0895009510952095309594
:103820000F5F1F4F2F4F3F4F0895019110810FC021
:103830000E94871B0EC00E94871B10C0019110813F
:1038400017FF05C03FEF2FEF04C00081112722278B
:10385000332737FF03C0E0DF8DE28D93CF92DF92F5
:10386000EF92AA24BB24CC24DD24EE2440E2EAE03B
:10387000FF2755E093E38081890F87FD9F7083FDCB
:10388000907F891B81935A95A9F7C1DFAA1CBB1CA5
:10389000CC1CDD1CEE1C4A9551F7E894EFE0FF27A5
:1038A00082910BD0EB30E0F71EF068948A2D09D09E
:1038B0004D93EF90DF90CF900895982F829501D08F
:1038C000892F8F70805D26F0803309F40895689405
:1038D0008D93089594E081918D939A95E1F70895E1
:1038E00070E2803021F07D938A95E9F78C930895FA
:1038F000F999FECFE1BDF2BD3196089591E001C086
:1039000092E07B3751F47FB7F894F2DF8D9180BD60
:10391000FA9AF99A9A95C9F77FBF77270895E8DF51
:103920008D917B3729F480BDFA9AF99A8823B9F7EB
:103930007727089591E001C092E0DADFF89A80B528
:103940008D939A95D1F70895D3DFF89A80B58D932A
:10395000882319F09A95C1F79D930895FF93881BCA
:10396000F9E0001FFA9511F4FF910895881F841B58
:1039700018F4840F8894F5CF0894F3CF8FEF8395D4
:103980009D919923E1F70895B7FE089590E8B9163F
:1039900011F4D0FE08959FEFD91AE90AF90A09F443
:1039A00003950895D190E190F190019108952191AE
:1039B0003191419151910895DD92ED92FD920C93D8
:1039C0000895502F2D2D3E2D4F2D612F0895EADFA4
:1039D000992711278F2D880F80E8F82A802F881FBC
:1039E00008F41FEF41F08F57082F07FD04C0003285
:1039F00040F08FEF01C08827982FD82EE82EF82EA0
:103A000009C08FE1801B082FF694E794D79497950F
:103A10000A95D1F7112351F09095D094E094F09449
:103A200081E0980F8827D81EE81EF81E0F2DFE2C67
:103A3000ED2CD92E0895652F90E8440F551F592776
:103A4000990F47956078102F90E8FF0C001F092709
:103A5000990FF794107800380895FF0C90E890279C
:103A6000110F9795F794092F08951127BD2CDE2C7F
:103A7000EF2CF02E0EE1FF2039F4FE2CED2CDB2C88
:103A8000BB240850C2F752C032F00A95BB0CDD1CB3
:103A9000EE1CFF1CF9CF78DFE0CF2DEC3CEC4CECBA
:103AA0005DE366270FC07EDF8CDFDD24EE2490E827
:103AB000F92E0FE307C07BDF05C02227332740E242
:103AC00051E46627552351F1002381F1B4DF71F1F0
:103AD0001627005850580894050B18F407FD03C02A
:103AE00025C007FD23C0469537952795F694E794A2
:103AF000D79425D0FF202AF0DD0CEE1CFF1C0150CE
:103B000073F09D2D969548F0DD203AF4EE202AF4CE
:103B100091E0D90E9927E91EF91E9FCF07C09FE7B4
:103B2000092FF92A9FEFD92EE92E0895DD24EE24DE
:103B3000FF240027112708950FE79FEFF2CF9F92F0
:103B40009924AA24BB2488E1D216E306F40628F0BF
:103B5000D21AE30AF40A089401C08894991CAA1C9A
:103B6000BB1CDD0CEE1CFF1C8A9571F7D92CEA2CCE
:103B7000FB2C9F9008955FDFD9F05038C9F01627CD
:103B80000058952F90580894091F12F418F40EC08D
:103B900008F00EC00FD0FF202AF0BB0CDD1CEE1C7D
:103BA000FF1C02C0039513F0EFDE57CF0C948F1D5E
:103BB0000C94961D9F92FF92EF928D2DFF24EE2480
:103BC000DD24BB2493E0849F1001829FB00CD11CA4
:103BD000E21CF31C839FD00CE11C2224F21C9A955A
:103BE00031F0BD2CDE2CEF2CFF248F91ECCF9F9079
:103BF00008950E94CE1B202D0E94CE1B302D0E94C6
:103C0000CE1B402D0E94CE1B502D08950024F44B56
:103C100000000049002474427374617274004465AA
:103C20007669636520310000384E31007261646945
:103C300078003A20636F6D6D616E64206E6F742042
:103C4000666F756E643A20003A20493243206572EF
:103C5000726F723A20003A207761746368646F670C
:103C60002072657365743A2000003A20636F6D6DB1
:103C7000616E64207761746368646F673A20000046
:103C80003A20706172616D65746572206572726F41
:103C9000723A20003A2074782074696D6520746F40
:103CA0006F206C6F6E673A2000003A206E6F7420B0
:103CB00076616C6964206174207468617420746931
:103CC0006D653A2000003A206932635F627566666E
:103CD0006572206F766572666C6F773A20003A20C5
:103CE000493263206E6F7420726561647920746F4D
:103CF00020726563656976653A2000003A206E6F30
:103D0000206572726F723A2000003A206F74686505
:0A3D100072206572726F723A200093
:00000001FF
