:100000000C94340018950000189500001895000015
:10001000189500001895000018950000189500002C
:10002000189500001895000018950000189500001C
:10003000189500001895000018950000189500000C
:1000400018950000189500000C94C904189500003C
:1000500018950000189500001895000018950000EC
:100060000C943C05189500008FEF8DBFC8EDE0ECB7
:100070004E2E88E08EBFD8E0F8E05F2EA89584B7BA
:10008000082E877F84BF88E1992780936000909332
:100090006000EEEFF7E0A0E0B1E088278D933197A4
:1000A000E9F780E48093C40080E08093C50088E194
:1000B0008093C1000E9440116624E0E0FF27008188
:1000C000A1E2B1E00C93A1E2B1E00C9103FB16F0C8
:1000D0000C94730082E08093620380915C038093B0
:1000E00063030C9476008FEF8093620322982A9A20
:1000F00074B7777F74BF8FE197E08093600090932F
:10010000600078947091C10070687093C100709124
:10011000BC0071607093BC00219A529A539A1A994C
:100120000C9494000E94B202E0E0F0E0A0E1B0E0A4
:100130000E94A912053011F40C94A0000E94B20292
:100140000E940D0380916000886080936000A4E5A8
:10015000B1E08C918F5F8C93009154010F3F11F0AF
:100160000C946801A3E5B1E08C918F5F8C930091B2
:1001700053010A3511F00C94E6000091660300303B
:1001800018F011F00C94C6000C94E400A6E6B3E05D
:100190008C918F5F8C93009166030C3318F011F0F3
:1001A0000C94D4000C94E40081E080935B0281E025
:1001B00080935C0280E08093660385E08093620315
:1001C00080915C03809363030C944001043B11F025
:1001D0000C94150100913901013081E009F080E0B3
:1001E0008F93A6E2B0E00C9104FB81E00EF480E076
:1001F0009F918923882311F40C941001A5E5B1E0A7
:100200008C918F5F8C9300915501053018F011F09F
:100210000C940C010C940E010E9424050C94130103
:1002200080E0809355010C9440010F3F11F00C9435
:100230004001A4E6B3E00D911C91003050E0150799
:1002400018F011F00C9426010C942A01A4E6B3E0F6
:100250000E943911A4E6B3E00D911C910C3350E0DB
:10026000150718F011F00C9437010C94400183E04D
:100270008093620380915C03809363030E946F0309
:10028000009154010E3F81E009F080E08F930091CE
:100290005301043681E009F080E09F91892388238F
:1002A00011F40C9454015A9A009154010E3F81E0CC
:1002B00009F080E08F9300915301043681E009F04A
:1002C00080E09F918923882311F40C9468015A9847
:1002D00000916A03023018F011F00C9471010C9433
:1002E000C901A4EAB3E08C9199278A939A930E945A
:1002F0004711ADE3B1E00C930091A30340913D01A0
:10030000040FABE3B1E00C9380913B01E5EAF3E02D
:1003100001E00A93A8EDB3E00E947712A8EDB3E0E4
:100320008C91ADE3B1E08C930E9472079FB7F89473
:1003300080916000886180936000877E8093600078
:100340009FBFA3E8B3E08D919C910E94BB11A2EAEC
:10035000B3E08C918F5F8C930091A203063011F073
:100360000C94C40181E08093A20380E20E949E115C
:10037000A5E8B3E08D919C910E94BB11A5E8B3E084
:100380008D919C910E94BB11809160008860809348
:1003900060000091DB04003018F011F00C94D201E1
:1003A0000C94F501ABEDB4E0AD90BB24AEEDB3E041
:1003B000AA0DBB1D8C9180933D010E947207ABED8D
:1003C000B4E08C918F5F8C934091DA040091DB0450
:1003D000041718F011F00C94EF010C94F50180E073
:1003E0008093DB0480E08093DA0400915E030030A8
:1003F00018F011F00C94FE010C948F0200915C0235
:10040000013018F011F00C9407020C94130280E0F4
:100410008093590186E08093620380915C0380930E
:1004200063030C948C0200916A03013011F00C9468
:100430008702AAE5B1E0AD90BB24ACE5B2E0AA0D1D
:10044000BB1D0C91073080E010F009F081E08F9324
:10045000AAE5B1E0AD90BB24ACE5B2E0AA0DBB1DAE
:100460000C910F3E81E008F080E09F918923882362
:1004700011F40C948002AAE5B1E0AD90BB24ACE588
:10048000B2E0AA0DBB1D0C910A3011F00C947E0253
:1004900081E080933B0140915A0100913B01041798
:1004A00018F011F00C9479020091DA040A3F10F070
:1004B0000C947102AAEDB4E08C918F5F8C93ABE346
:1004C000B1E0AD90BB24ACE5B2E0AA0DBB1D8C91B0
:1004D000AAEDB4E0AD90BB24AEEDB3E0AA0DBB1D18
:1004E0008C93ABE3B1E08C918F5F8C9310F40C9400
:1004F0004B0281E08093DB040E946F030C94850221
:1005000080E080936A030E940C070C948C0280E0C8
:1005100080936A030E940C0780E080935E03409101
:100520005C0200915B02041718F011F00C949A021F
:100530000C94A50200915801003018F011F00C94B1
:10054000A3020C94A5020E94C5039FB7F894809162
:100550006000886180936000877E809360009FBF09
:100560000C94A200E1E0F0E00E94A511E6E1F0E0C9
:10057000A0E1BB2781E08C937BE70E948D12A42D24
:10058000B52DECEBF8E20E94D911E1E0F0E0D201E8
:100590000E949E12E7E1F0E0A0E1BB2788E48C9383
:1005A0007BE70E948D12E8E1F0E0A0E1BB2781E04B
:1005B0008C937BE70E948D12E9E1F0E0A0E1BB277C
:1005C00081E08C937BE70E948D1280E080936A0328
:1005D000EBE1F0E0AAE6B3E07BE70E948D1287E052
:1005E00080937D03ECE1F0E0ADE7B3E07BE70E94B0
:1005F0008D1286E080938903EDE1F0E0A9E8B3E095
:100600007BE70E948D12E0E0F0E0A0E1BB2785E0EF
:100610008C937BE70E948D120895E6E1F0E0A7E35A
:10062000B1E00E94A912E1E0F0E0A2E2B1E094E1C1
:100630000E94B312E7E1F0E0A8E3B1E00E94A91242
:10064000E8E1F0E0A9E3B1E00E94A912E9E1F0E0FD
:10065000AAE3B1E00E94A91281E080935C0380E0EC
:100660008093630380E080935B0181E080935D036E
:100670000E946F0381E080935B0281E080935C02C3
:1006800080E0809366030E94240580E080935301FC
:1006900080E080935401EBE1F0E0AAE6B3E00E9431
:1006A000A912ECE1F0E0ADE7B3E00E94A912EDE1A0
:1006B000F0E0A9E8B3E00E94A912EBE1F0E0AAE6BD
:1006C000B3E00E94A912A5EAB3E0E6ECF8E20E94CA
:1006D000D91181E08093DA040E94D108089580E066
:1006E0008093590180E080935A0181E080935B02FE
:1006F00080E090E0A4E6B3E08D939C93ACE5B3E09A
:100700008C918F5F8C934091630300915C0304177D
:1007100011F00C94910380E0809363038FEF80933A
:100720006203089580915C02815080935C0281E0B5
:1007300080933C0140915C0200913C01041718F049
:1007400011F00C94BB03ACE3B1E0AD90BB24ABE57E
:10075000B1E0AA0DBB1D8C9180933D0131E0ADE36A
:10076000B1E00E949911ACE3B1E08C918F5F8C9362
:1007700010F40C949A0381E080935B0281E08093F3
:100780005C0280E0809366030895E0E7FEE1A7E560
:10079000B1E08C9199270E94EF11ACE5B1E00E9485
:1007A000D911ACE5B1E00E94CD12ADE3B1E08C937C
:1007B00000915B01013011F00C941D0400913D018A
:1007C00041E0040FAEE3B1E00C9380913D018093D2
:1007D0003C0140913C0101E0041718F011F00C9429
:1007E0001004ACE3B1E0AD90BB24ABE5B1E0AA0DE1
:1007F000BB1D8C91AEE3B1E0AD90BB24ABE5B1E0A5
:10080000AA0DBB1D8C9380913E01815080933E01C7
:1008100080913C01815080933C0110F00C94E903DD
:1008200080913D0180935C0100913D0142E0040F05
:10083000ACE5B2E00C930C94B204023011F00C94CD
:10084000630400913D0142E0040FAEE3B1E00C937C
:1008500080913D0180933C0140913C0101E00417EF
:1008600018F011F00C945304ACE3B1E0AD90BB244C
:10087000ABE5B1E0AA0DBB1D8C91AEE3B1E0AD904C
:10088000BB24ABE5B1E0AA0DBB1D8C9380913E016A
:10089000815080933E0180913C01815080933C01C6
:1008A00010F00C942C0480E080935C0180913D0159
:1008B00080935D0100913D0143E0040FACE5B2E09F
:1008C0000C930C94B204043011F00C94B204009117
:1008D0003D0144E0040FAEE3B1E00C9380913D0193
:1008E00080933C0140913C0101E0041718F011F0A5
:1008F0000C949904ACE3B1E0AD90BB24ABE5B1E05E
:10090000AA0DBB1D8C91AEE3B1E0AD90BB24ABE56D
:10091000B1E0AA0DBB1D8C9380913E018150809364
:100920003E0180913C01815080933C0110F00C9479
:10093000720480EF80935C018091570180935D0188
:100940008091580180935E0180913D0180935F0109
:1009500000913D0145E0040FACE5B2E00C9381E06D
:1009600080935B01A7E5B1E08C918F5F8C93009140
:1009700057010E3010F40C94C00480E080935701AE
:100980008091580181508093580181E080935B02EF
:1009900008950F921F922F923F924F925F927F92F3
:1009A000AF92BF92CF92DF92EF92FF920F931F937D
:1009B0002F933F934F935F936F937F938F939F9367
:1009C000AF93BF93CF93DF93EF93FF938FB78F9343
:1009D00000915A010A3F10F00C94F304AAE5B1E02B
:1009E0008C918F5F8C93AAE5B1E0AD90BB24ACE510
:1009F000B2E0AA0DBB1D8091C6008C9381E080936C
:100A00005E0381E080935D038F918FBFFF91EF9133
:100A1000DF91CF91BF91AF919F918F917F916F9116
:100A20005F914F913F912F911F910F91FF90EF9008
:100A3000DF90CF90BF90AF907F905F904F903F90AE
:100A40002F901F900F90189580E08093550170E0D3
:100A50007093B90070E07093B90071E17093B800C1
:100A600070E87093BB00A8E3B1E08C918093BA006A
:100A700075E47093BC0008950F921F922F923F92DD
:100A80004F925F927F92AF92BF920F931F932F93DB
:100A90003F934F935F936F937F938F939F93AF9306
:100AA000BF93CF93DF93EF93FF938FB78F93009113
:100AB000B9004CEF0423ABE3B1E00C9300913B0190
:100AC000003611F00C94690575EC7093BC000C9421
:100AD000D406083611F00C94720575EC7093BC00C6
:100AE0000C94D406003711F00C947B0575EC7093D0
:100AF000BC000C94D406083711F00C94840575ECF6
:100B00007093BC000C94D406003811F00C94A90525
:100B100000915A010A3F10F00C949305AAE5B1E048
:100B20008C918F5F8C93AAE5B1E0AD90BB24ACE5CE
:100B3000B2E0AA0DBB1D8091BB008C9382E0809334
:100B40005D0381E080935E0375EC7093BC000C94B0
:100B5000D406083811F00C94CE0500915A010A3FD2
:100B600010F00C94B805AAE5B1E08C918F5F8C93DE
:100B7000AAE5B1E0AD90BB24ACE5B2E0AA0DBB1D87
:100B80008091BB008C9382E080935D0381E0809331
:100B90005E0375EC7093BC000C94D406003911F020
:100BA0000C94F30500915A010A3F10F00C94DD05F6
:100BB000AAE5B1E08C918F5F8C93AAE5B1E0AD908E
:100BC000BB24ACE5B2E0AA0DBB1D8091BB008C93A9
:100BD00082E080935D0381E080935E0375EC709307
:100BE000BC000C94D406083911F00C94180600913E
:100BF0005A010A3F10F00C940206AAE5B1E08C916C
:100C00008F5F8C93AAE5B1E0AD90BB24ACE5B2E078
:100C1000AA0DBB1D8091BB008C9382E080935D0385
:100C200081E080935E0375EC7093BC000C94D40655
:100C3000003A11F00C94210675EC7093BC000C94F2
:100C4000D406083A11F00C94540640915C020091CD
:100C50005B02041781E008F080E08F930091390176
:100C6000013081E009F080E09F918923882311F40D
:100C70000C944C06ABE5B2E0AD90BB24ABE5B1E023
:100C8000AA0DBB1D8C918093BB00ABE5B2E08C91AB
:100C90008F5F8C930C944F0670E87093BB0075ECDB
:100CA0007093BC000C94D406003B11F00C948706A2
:100CB00040915C0200915B02041781E008F080E043
:100CC0008F9300913901013081E009F080E09F911C
:100CD0008923882311F40C947F06ABE5B2E0AD9034
:100CE000BB24ABE5B1E0AA0DBB1D8C918093BB008A
:100CF000ABE5B2E08C918F5F8C930C94820670E828
:100D00007093BB0075EC7093BC000C94D406083B48
:100D100011F00C94BA0640915C0200915B0204173A
:100D200081E008F080E08F9300913901013081E08B
:100D300009F080E09F918923882311F40C94B20676
:100D4000ABE5B2E0AD90BB24ABE5B1E0AA0DBB1DB5
:100D50008C918093BB00ABE5B2E08C918F5F8C935C
:100D60000C94B50670E87093BB0075EC7093BC00F2
:100D70000C94D406003C11F00C94C60670E87093F5
:100D8000BB0075EC7093BC000C94D406083C11F0C9
:100D90000C94D20670E87093BB0075EC7093BC00A5
:100DA0000C94D4060E94240540915C0200915B02E1
:100DB000041710F40C94F00681E080935B0281E04C
:100DC00080935C0280E080936603009158010030BC
:100DD00018F011F00C94EE060C94F0060E94C50376
:100DE0008F918FBFFF91EF91DF91CF91BF91AF9125
:100DF0009F918F917F916F915F914F913F912F9133
:100E00001F910F91BF90AF907F905F904F903F9058
:100E10002F901F900F90189500915D02003011F0F7
:100E20000C9416070E94A70E0C94710700915D02A6
:100E30000F3F81E009F080E08F9300915E020E3F4A
:100E400081E009F080E09F918923882311F40C94BC
:100E5000310780915A01809359010E94A70E0C948A
:100E6000710700913A01013081E009F080E08F9331
:100E700000915D03013081E009F080E09F918923BA
:100E8000882311F40C944C0780915A0180935901E6
:100E90000E94A70E0C94710700913901013081E086
:100EA00009F080E08F9300915D03023081E009F04A
:100EB00080E09F918923882311F40C946707809127
:100EC0005A01809359010E94A70E0C94710780E08B
:100ED00080935A0186E08093620380915C03809343
:100EE000630308959FB7F8948091600088618093B0
:100EF0006000877E809360009FBF8FEF80936B03BD
:100F0000EDE3F1E0ADE3B1E00E94F71100913D01A6
:100F10000E3211F00C94910780E080936B030C94D7
:100F20004A080C3211F00C949A0781E080936B030D
:100F30000C944A080A3311F00C94A30782E08093C2
:100F40006B030C944A080B3311F00C94AC0783E04C
:100F500080936B030C944A080F3311F00C94B5077F
:100F600084E080936B030C944A080D3211F00C94CA
:100F7000BE0785E080936B030C944A080B3511F093
:100F80000C94C70786E080936B030C944A080832E0
:100F900011F00C94D00787E080936B030C944A08FF
:100FA000093211F00C94D90788E080936B030C94FC
:100FB0004A08073211F00C94E20789E080936B0332
:100FC0000C944A080D3311F00C94EB078AE08093DF
:100FD0006B030C944A080B3211F00C94F4078BE06D
:100FE00080936B030C944A080F3211F00C94FD07A8
:100FF0008CE080936B030C944A08003411F00C943D
:1010000006088DE080936B030C944A0800913D0123
:10101000003381E008F480E08F9300913D010933B3
:1010200081E010F009F080E09F918923882311F47A
:101030000C94230800913D0142E2041BABE6B3E0AF
:101040000C930C944A0800913D01013481E008F4AE
:1010500080E08F9300913D010A3581E010F009F0A6
:1010600080E09F918923882311F40C94400800911B
:101070003D0149E2041BABE6B3E00C930C944A0833
:10108000003211F00C944A08A5E8B3E08D919C91D0
:101090000E94BB1100916B030F3F10F00C94CB0822
:1010A00031E0ADE3B1E00E949911ECE6F1E2ABE68C
:1010B000B3E08C9199270E94EF11ACE6B3E00E9457
:1010C000D911ACE6B3E00E94CD12ABE7B3E08C934C
:1010D00081E080937C0340917B0300917C030417A3
:1010E00018F011F00C94C50880917C03ECE6F3E055
:1010F00001E00A93A7E7B3E00E947712A7E7B3E005
:10110000EAEFF8E20E94D31211F00C949C08219AA5
:10111000A7E8B3E0ED91FC91AFE7B3E08D919C912E
:101120000197299A0E94AE1129980E94AE11482F6A
:10113000492BB1F70C94AF08219AA7E8B3E0ED91E1
:10114000FC91A1E8B3E08D919C910197299A0E94AE
:10115000AE1129980E94AE11482F492BB1F740914A
:101160007B0300917C03041710F00C94BD08ACE9DC
:10117000B3E08D919C910E94BB11ACE7B3E08C91E0
:101180008F5F8C9310F40C946B08A3E8B3E08D91FF
:101190009C910E94BB1180916000886080936000E8
:1011A000089500917D0341E0040FAEE7B3E00C9396
:1011B000AEE7B3E00C9145E0049F0C92EEE7F3E05C
:1011C000D080EE24FF2400270E946B130E94FF12A0
:1011D000E8EAF8E20E943A140E94A313EDE0F0E07E
:1011E000A8E9B3E00E94691200EB14E0AEE7B3E0B7
:1011F0004D9155270E947F11ACE9B3E04D935C936C
:10120000ACE9B3E00D911C9143E050E00E94CF1196
:10121000A3E8B3E00D931C9307E010E0ACE9B3E062
:101220004D915C910E94CF11A5E8B3E00D931C9302
:10123000A9E8B3E00D9111270F5F1F4FAAE8B3E0B3
:101240000D931C93EAE8F3E0D190E080FF2400279F
:101250000E9453130E94FF12ECEAF8E20E943A1433
:101260000E94A313EDE0F0E0ACE8B3E00E94691245
:10127000ABEDB3E0E0EBF8E20E94E711EBEDF3E059
:101280000E94FA12ECE8F3E00E94F5120E94FC13AF
:10129000EDE0F0E0A0E9B3E00E946912E4EBF8E2CF
:1012A0000E944714E0E9F3E00E94F5120E94FC134B
:1012B000EDE0F0E0A4E9B3E00E946912E4E9F3E0B4
:1012C0000E940513A7E8B3E0DD92EC92E0E9F3E0B9
:1012D0000E94FA12E8E9F3E00E94F5120E94A313BB
:1012E000EDE0F0E0AEE9B3E00E946912E8EBF8E26D
:1012F0000E944714EEE9F3E00E94F5120E94A31346
:10130000EDE0F0E0AEE9B3E00E946912EEE9F3E04F
:101310000E940513AFE7B3E0DD92EC9203E010E02A
:10132000AFE7B3E04D915C910E94CF11A1E8B3E02B
:101330000D931C93089500915901023010F40C9400
:10134000000A00915E02003081E009F080E08F9396
:1013500000915E020A3F80E010F009F081E09F9169
:10136000892B882311F40C94B9090E946F030C9403
:10137000000A00915E0242E0040FA9E6B3E00C937C
:101380004091690300915901041710F40C94000A6C
:1013900000915E0242E0040FABE3B1E00C9383E006
:1013A00080933C0140913B0100913C01041718F0EF
:1013B00011F00C94FE09ACE3B1E0AD90BB24ACE5B8
:1013C000B2E0AA0DBB1D8C9180933D010E94720773
:1013D00040913B0100913C01041710F00C94F60978
:1013E000A3E8B3E08D919C910E94BB11ACE3B1E006
:1013F0008C918F5F8C9310F40C94D2090E946F0330
:10140000089500915901023010F40C94250A0091BE
:101410005E02043110F00C941C0A80915E028093ED
:101420007D03ECE1F0E0ADE7B3E07BE70E948D12D5
:101430000E94D1080C94230A84E080936203809177
:101440005C03809363030E946F03089583E080939D
:101450005C0180917D0380935D0183E080935C0259
:1014600000915D03013011F00C94380A0E94920340
:101470000E946F03089500915901023010F40C94FA
:101480005F0A00915E02043110F00C94560A8091BC
:101490005E0280938903EDE1F0E0A9E8B3E07BE729
:1014A0000E948D120E94D1080C945D0A84E0809302
:1014B000620380915C03809363030E946F0308952D
:1014C00085E080935C018091890380935D0183E0D6
:1014D00080935C0200915D03013011F00C94720A5C
:1014E0000E9492030E946F030895009159010230F7
:1014F00010F40C94F30A00915E02093010F00C9481
:10150000EA0A81E08093DA0480915E0280936A03A4
:10151000EBE1F0E0AAE6B3E07BE70E948D1281E008
:101520008093A20300916A03023011F00C94A00A88
:101530008AE08093A40380E08093A3030C94E80ADC
:10154000033011F00C94AC0A86E08093A4038AE087
:101550008093A3030C94E80A043011F00C94B80AA9
:1015600086E08093A4038FE08093A3030C94E80AA1
:10157000053011F00C94C40A87E08093A40385E140
:101580008093A3030C94E80A063011F00C94D00A5F
:1015900087E08093A4038CE18093A3030C94E80A72
:1015A000073011F00C94DC0A8EE08093A40383E2F0
:1015B0008093A3030C94E80A083011F00C94E80A15
:1015C00082E38093A40380E08093A3030C94E80A51
:1015D0000C94F10A84E08093620380915C03809311
:1015E00063030E946F03089587E080935C018091FC
:1015F0006A0380935D0183E080935C0200915D0348
:10160000013011F00C94060B0E9492030E946F03AC
:10161000089580E080935A0180E0809359010895F5
:1016200000915901033010F40C94640B80915F0217
:101630008093570180915E02809358010091570179
:101640000E3081E008F080E08F93009158010E3059
:1016500081E008F080E09F918923882311F40C94A5
:101660005B0B00915801003018F011F00C943A0B0C
:101670000C94590B81E08093660384E080935B01B6
:101680000E94C50300915D03013011F00C94590BC9
:101690000E94920300915801003018F011F00C9450
:1016A000530B0C94590B0E94C5030E9492030C9497
:1016B0004A0B0C94620B84E08093620380915C037C
:1016C000809363030E946F03089581E08093660313
:1016D0008EE170E0ACE5B1E00E9470128CEF809377
:1016E0005C0183E080933B01ECE5F3E0A0E0B1E036
:1016F0000E942112A0E0B1E00E94CD12AEE3B1E061
:101700008C9381E080933C0140913E0100913C012B
:10171000041718F011F00C94AC0BACE3B1E0AD90F1
:10172000BB24AFEFB0E0AA0DBB1D8C91ABE3B1E0E1
:10173000AD90BB24ABE5B1E0AA0DBB1D8C93ABE330
:10174000B1E08C918F5F8C93ACE3B1E08C918F5FB3
:101750008C9310F40C94840B00916203003011F010
:101760000C94BA0BA0E0B1E0ECEFF8E20E94D911C2
:101770000C942C0C013011F00C94C60BA0E0B1E0DD
:10178000E2E1F9E20E94D9110C942C0C023011F024
:101790000C94D20BA0E0B1E0E0E2F9E20E94D91192
:1017A0000C942C0C033011F00C94DE0BA0E0B1E093
:1017B000E4E3F9E20E94D9110C942C0C043011F0EE
:1017C0000C94EA0BA0E0B1E0EAE4F9E20E94D9113E
:1017D0000C942C0C053011F00C94F60BA0E0B1E049
:1017E000EEE5F9E20E94D9110C942C0C063011F0B0
:1017F0000C94020CA0E0B1E0E4E7F9E20E94D911F8
:101800000C942C0C073011F00C940E0CA0E0B1E0FD
:10181000E0E9F9E20E94D9110C942C0C083011F087
:101820000C941A0CA0E0B1E0E8EAF9E20E94D911A8
:101830000C942C0C0F3F11F00C94260CA0E0B1E09E
:10184000E6ECF9E20E94D9110C942C0CA0E0B1E076
:10185000E4EDF9E20E94D911A0E0B1E00E94CD12BE
:10186000AEE3B1E08C9381E080933C0140913E0176
:1018700000913C01041718F011F00C945E0CACE3DD
:10188000B1E0AD90BB24AFEFB0E0AA0DBB1D8C91D1
:10189000ABE3B1E0AD90BB24ABE5B1E0AA0DBB1D5D
:1018A0008C93ABE3B1E08C918F5F8C93ACE3B1E0B0
:1018B0008C918F5F8C9310F40C94360CE3E6F3E07C
:1018C000A0E0B1E00E942112A0E0B1E00E94CD12A0
:1018D000AEE3B1E08C9381E080933C0140913E0106
:1018E00000913C01041718F011F00C94960CACE335
:1018F000B1E0AD90BB24AFEFB0E0AA0DBB1D8C9161
:10190000ABE3B1E0AD90BB24ABE5B1E0AA0DBB1DEC
:101910008C93ABE3B1E08C918F5F8C93ACE3B1E03F
:101920008C918F5F8C9310F40C946E0C00913B01A2
:1019300043E0041BADE5B1E00C9380913B01809343
:101940005C0200915D03013011F00C94A90C0E941F
:1019500092030E946F03089581E0809366038DEFE8
:1019600080935C0184E080935D0183E080935C025E
:1019700000915D03013011F00C94C00C0E949203A1
:101980000E946F03089500915901023010F40C94E5
:10199000D80D00915E02003011F00C942E0D0091D4
:1019A0005901033010F40C942C0D00915F020030AB
:1019B00011F00C94DF0C0E946F030C942C0D00911D
:1019C0005F0243E0040FABE3B1E00C9340913B01B5
:1019D00000915901041710F40C942C0D84E170E06F
:1019E000A2E2B1E00E94701200913B01073118F0B1
:1019F00011F00C94FD0C0C94000D87E180933B01D9
:101A000084E080933C0140913B0100913C0104172C
:101A100018F011F00C94260DACE3B1E0AD90BB24AE
:101A2000ACE5B2E0AA0DBB1D8C91ACE3B1E0AD908A
:101A3000BB24AEE1B1E0AA0DBB1D8C93ACE3B1E0D9
:101A40008C918F5F8C9310F40C94030DE1E0F0E027
:101A5000A2E2B1E00E949E120C94D80D013011F068
:101A60000C94470D00915901033010F40C94450D6E
:101A700080915F0280933701E6E1F0E0A7E3B1E0F7
:101A80007BE70E948D120E946F030C94D80D0230E8
:101A900011F00C946F0D00915901033010F40C9467
:101AA0006D0D00915F02023010F00C94640D809176
:101AB0005F0280933901E8E1F0E0A9E3B1E07BE760
:101AC0000E948D120C946B0D84E0809362038091D0
:101AD0005C03809363030E946F030C94D80D033062
:101AE00011F00C94A30D00915901033010F40C94E3
:101AF000A10D80915F0280933C0100913C01003870
:101B000010F00C94980DACE3B1E00C9142E0049F0E
:101B10000C9280913C0180933801E7E1F0E0A8E36A
:101B2000B1E07BE70E948D120E9424050C949F0D6A
:101B300084E08093620380915C03809363030E943E
:101B40006F030C94D80D043011F00C94CF0D00915C
:101B50005901033010F40C94CD0D80915F028093F5
:101B60003C0100913C01023010F00C94C40D8091B6
:101B70003C0180933A01E9E1F0E0AAE3B1E07BE7C0
:101B80000E948D120C94CB0D84E0809362038091AF
:101B90005C03809363030E946F030C94D80D84E070
:101BA0008093620380915C03809363030E946F03C0
:101BB000089500915901023010F40C94A60E81E0B2
:101BC000809366038FEF80935C0180915E02809327
:101BD0005D0180E080935C0200915E02003011F0B4
:101BE0000C942C0EA2E2B1E00E94CD12ADE3B1E064
:101BF0008C9380913D0180935E0184E080935C0230
:101C000081E080933C0140913D0100913C0104172B
:101C100018F011F00C942A0EACE3B1E0AD90BB24A7
:101C2000A1E2B1E0AA0DBB1D8C91ACE5B2E0AD9094
:101C3000BB24ABE5B1E0AA0DBB1D8C93ACE5B2E0D3
:101C40008C918F5F8C93ACE3B1E08C918F5F8C9320
:101C50000C94030E0C94930E013011F00C94390E79
:101C60008091370180935E0184E080935C020C9444
:101C7000930E023011F00C94460E8091390180933E
:101C80005E0184E080935C020C94930E033011F0AB
:101C90000C945B0E0091380142E00E94BD12ACE34F
:101CA000B1E00C9380913C0180935E0184E08093CD
:101CB0005C020C94930E043011F00C94680E809129
:101CC0003A0180935E0184E080935C020C94930E51
:101CD000053011F00C94740E80E080935E0184E076
:101CE00080935C020C94930E063011F00C948C0ED1
:101CF00083E080935E0188E3AFE5B1E08C938EE4EE
:101D0000A0E6B1E08C9381E3A1E6B1E08C9387E09B
:101D100080935C020C94930E84E080936203809124
:101D20005C038093630300915C02003018F011F0B3
:101D30000C949C0E0C94A40E00915D03013011F0E4
:101D40000C94A40E0E9492030E946F0308950091C8
:101D50005D02003011F00C94C70E81E080936603A1
:101D600080E08093570181E08093580182E0809366
:101D70005B010E94C50300915D03013011F00C94DA
:101D8000C30E0E9492030E946F030C94350F0091C2
:101D90005D020F3E10F00C94FF0E00915D020830C2
:101DA00010F00C94F40EE2EFFEE0EF93FF93E2EEFE
:101DB000FEE0ADE5B2E08C919927880F991FE80FFE
:101DC000F91F09940C9400000C949B090C94010ACF
:101DD0000C94260A0C943B0A0C94600A0C94750A25
:101DE0000C94F40A0C94FD0E80E0809362038091C1
:101DF0005C03809363030E946F030C94350F009182
:101E00005D0240EF041BABE3B1E00C93E5E3FFE0C0
:101E1000EF93FF93E5E1FFE0ABE3B1E08C9199270D
:101E2000880F991FE80FF91F09940C94100B0C945C
:101E3000090B0C94090B0C94090B0C94090B0C94D2
:101E4000090B0C94090B0C94090B0C94090B0C94C2
:101E5000090B0C94090B0C94090B0C94650B0C9456
:101E6000AC0C0C94C30C0C94D90D0895F894FFCFCE
:101E7000303B6D3B444B3152493B6D6F7273652073
:101E800073656E6465723B5630352E303B313B31A5
:101E900039303B313B31343B312D3100313B6F61C7
:101EA0002C73656E64206D6F7273653B3235302C18
:101EB0007B2E2C307832632C3A2C307833622C3FD6
:101EC0002C2D2C5F2C282C292C272C3D2C2B2C2F17
:101ED0002C402C30746F31302C61746F7A2C41742B
:101EE0006F5A7D00323B6F702C6D6F72736520737B
:101EF000706565643B313B32302C7B355F35746FE8
:101F00003130307D3B6C696E3B57706D00333B6107
:101F1000702C61733200343B6F702C6D6F7273657F
:101F2000206672657175656E63793B313B32302C8A
:101F30007B3130305F313030746F323030307D3B48
:101F40006C696E3B487A00353B61702C61733400DC
:101F5000363B6F732C6D6F64653B313B302C627286
:101F60006F77736572206D6F64653B312C6D79639B
:101F7000206D6F64653B322C6D6F72736520696EE6
:101F80007075743B332C3020746F20393B342C61D6
:101F900020746F20663B352C6720746F206C3B36B5
:101FA0002C6D20746F20733B372C7420746F207A53
:101FB0003B382C7370656369616C3B392C616C6CC8
:101FC00000373B61732C617336003234303B616EF5
:101FD0002C414E4E4F554E43454D454E54533B318B
:101FE00039303B31353B31342C4348415054455214
:101FF0002C41444D494E495354524154494F4E008F
:102000003235323B61612C4C415354204552524F82
:10201000523B32302C6C6173745F6572726F720068
:102020003235333B61612C4D594320494E464F3B7D
:10203000622C414354495645003235343B6F612C84
:10204000494E444956494455414C495A4154494FD7
:102050004E3B32302C4E414D452C446576696365CC
:1020600020313B622C4E554D4245522C313B612C68
:102070004932432C313B622C4144524553532C315D
:10208000382C7B315F30746F3132377D3B612C539C
:10209000455249414C2C313B31342C43484150543A
:1020A00045522C41444D494E495354524154494F95
:1020B0004E003235353B61612C494E444956494406
:1020C00055414C495A4154494F4E3B32302C4E41B8
:1020D0004D452C44657669636520313B622C4E5535
:1020E0004D4245522C313B612C4932432C313B62ED
:1020F0002C4144524553532C31382C7B315F307482
:102100006F3132377D3B612C53455249414C2C3164
:102110003B622C42415544524154452C302C7B317A
:10212000393230307D3B332C4E554D4245525F4F56
:10213000465F424954532C386E313B31342C43486E
:1021400041505445522C41444D494E4953545241FB
:1021500054494F4E005220212A204946202124363E
:102160002630204F52202124362631002E2D2E2DB0
:102170002E2D002D2D2E2E2D2D002D2D2D2E2E2EE3
:10218000002D2E2D2E2D2E002E2E2D2D2E2E002DFF
:102190002E2E2E2E2D002E2E2D2D2E2D002D2E2DC1
:1021A0002D2E002D2E2D2D2E2D002E2D2D2D2D2EB4
:1021B000002D2E2E2E2D002E2D2E2D2E002D2E2ECE
:1021C0002D2E002E2D2D2E2D2E002D2D2D2D2D00C2
:1021D0002E2D2D2D2D002E2E2D2D2D002E2E2E2D83
:1021E0002D002E2E2E2E2D002E2E2E2E2E002D2E9C
:1021F0002E2E2E002D2D2E2E2E002D2D2D2E2E008E
:102200002D2D2D2D2E002E2D002D2E2E2E002D2E7F
:102210002D2E002D2E2E002E002E2E2D2E002D2D9B
:102220002E002E2E2E2E002E2E002E2D2D2D002D8A
:102230002E2D002E2D2E2E002D2D002D2E002D2D7D
:102240002D002E2D2D2E002D2D2E2D002E2D2E006D
:102250002E2E2E002D002E2E2D002E2E2E2D002E59
:102260002D2D002D2E2E2D002D2E2D2D002D2D2E21
:102270002E00ED91FC91EF5FFF4FFC93EE930895DC
:1022800015E000E00093DC041093DD040895409114
:10229000DC045091DD040DEF13E40E94CF110D53C7
:1022A00011460093DC041093DD045991499127D025
:1022B000089509D00E94CF1100FC10D0089503D0DA
:1022C0001ED001F8F9CF0024E89457FF02C009D0CE
:1022D000689400F80BD010F80124089502D009D0BA
:1022E0000895509540954F5F5F4F0895E89417FF0C
:1022F0000895009510950F5F1F4F68940895352F2E
:10230000242FE894452B11F468940895512F402F01
:102310000027112780E1440F551F001F111F021BCA
:10232000130B416018F4020F131F4E7F8A9599F723
:1023300008958D9103D03A95E1F708950090C0007B
:1023400005FEFCCF8093C600089588EE93E013D07D
:102350003197D9F708953197F1F70895AE2FBF2F30
:1023600011974A2F4B2BE1F70895689462F808956E
:10237000E89462F80895EF93FF93EE27E82BE92B9A
:1023800031F0E8E8F3E13197F1F70197D1F7FF91E8
:10239000EF910895019111912191308108950F924B
:1023A000B801469F8001479F100D569F100D0F905A
:1023B00008950E94DF110D920020D9F70895C89565
:1023C00031960020089591E005C092E003C094E0AA
:1023D00001C098E0F4DF0D929A95E1F70895019617
:1023E000019721F00E94DF11E9F7FACF089581915A
:1023F00004D08D938823D9F70895813618F08B3750
:1024000008F48F7D0895000F111F221F331F0895B8
:1024100000951095209530950F5F1F4F2F4F3F4F20
:102420000895019110810FC00E94CA110EC00E9430
:10243000CA1110C00191108117FF05C03FEF2FEFA7
:1024400004C0008111272227332737FF03C0E0DFB4
:102450008DE28D93CF92DF92EF92AA24BB24CC24FD
:10246000DD24EE2440E2EAE0FF2755E093E380819B
:10247000890F87FD9F7083FD907F891B81935A95FB
:10248000A9F7C1DFAA1CBB1CCC1CDD1CEE1C4A95A5
:1024900051F7E894EFE0FF2782910BD0EB30E0F7A3
:1024A0001EF068948A2D09D04D93EF90DF90CF9065
:1024B0000895982F829501D0892F8F70805D26F026
:1024C000803309F4089568948D93089588278D9337
:1024D000089594E081918D939A95E1F7089570E2C3
:1024E000803021F07D938A95E9F78C9308950991C6
:1024F0009191992359F08A95D9F73197002331F0BA
:1025000081918D930A958823C9F70895DFCFF999B2
:10251000FECFE1BDF2BD3196089591E001C092E099
:102520007B3751F47FB7F894F2DF8D9180BDFA9A32
:10253000F99A9A95C9F77FBF77270895E8DF8D91BB
:102540007B3729F480BDFA9AF99A8823B9F777275F
:10255000089591E001C092E0DADFF89A80B58D939A
:102560009A95D1F70895D3DFF89A80B58D93882393
:1025700019F09A95C1F79D930895FF93881BF9E090
:10258000001FFA9511F4FF910895881F841B18F419
:10259000840F8894F5CF0894F3CF8FEF83959D91A6
:1025A0009923E1F70895689401C0E894AF93BF932D
:1025B0008D9116F0919103C00E94DF11902D891723
:1025C00018F011F48823A1F7BF91AF910895B7FED9
:1025D000089590E8B91611F4D0FE08959FEFD91A26
:1025E000E90AF90A09F403950895D190E190F19070
:1025F0000191089521913191419151910895502F68
:102600002D2D3E2D4F2D612F0895EFDF9927112796
:102610008F2D880F80E8F82A802F881F08F41FEF7D
:1026200041F08F57082F07FD04C0003240F08FEFB4
:1026300001C08827982FD82EE82EF82E09C08FE1E8
:10264000801B082FF694E794D79497950A95D1F7B5
:10265000112351F09095D094E094F09481E0980F7C
:102660008827D81EE81EF81E0F2DFE2CED2CD92E23
:102670000895652F90E8440F551F5927990F4795E6
:102680006078102F90E8FF0C001F0927990FF7942E
:10269000107800380895FF0C90E89027110F979557
:1026A000F794092F08951127BD2CDE2CEF2CF02E66
:1026B0000EE1FF2039F4FE2CED2CDB2CBB2408505E
:1026C000C2F775C032F00A95BB0CDD1CEE1CFF1C76
:1026D000F9CF7DDFE0CF102FBD2CDE2CEF2CF02EBC
:1026E00011234AF4B094D094E094F0949FEFB91A77
:1026F000D90AE90AF90A0EE1FF2039F4FE2CED2C83
:10270000DB2CBB240850C2F752C032F00A95BB0C38
:10271000DD1CEE1CFF1CF9CF5ADFBDCF2DEC3CECCD
:102720004CEC5DE366270FC060DF69DFDD24EE243B
:1027300090E8F92E0FE307C05DDF05C0222733279D
:1027400040E251E46627552351F1002381F191DFE6
:1027500071F11627005850580894050B18F407FD1E
:1027600003C025C007FD23C0469537952795F694ED
:10277000E794D79425D0FF202AF0DD0CEE1CFF1C37
:10278000015073F09D2D969548F0DD203AF4EE202F
:102790002AF491E0D90E9927E91EF91E7CCF07C0D3
:1027A0009FE7092FF92A9FEFD92EE92E0895DD24FE
:1027B000EE24FF240027112708950FE79FEFF2CFA3
:1027C0009F929924AA24BB2488E1D216E306F4063A
:1027D00028F0D21AE30AF40A089401C08894991CDC
:1027E000AA1CBB1CDD0CEE1CFF1C8A9571F7D92CB2
:1027F000EA2CFB2C9F9008953CDFD9F05038C9F0AB
:1028000016270058952F90580894091F12F418F4B1
:102810000EC008F00EC00FD0FF202AF0BB0CDD1C4C
:10282000EE1CFF1C02C0039513F0D1DE34CF0C94D4
:10283000D0130C94D7139F92FF92EF928D2DFF240B
:10284000EE24DD24BB2493E0849F1001829FB00C12
:10285000D11CE21CF31C839FD00CE11C2224F21C2F
:102860009A9531F0BD2CDE2CEF2CFF248F91ECCF0C
:102870009F9008950E94DF11D02C0E94DF11E02C60
:102880000E94DF11F02C0E94DF11002D08950E949C
:10289000DF11202D0E94DF11302D0E94DF11402D0D
:1028A0000E94DF11502D0895007C92490000803F66
:1028B00000409C450000A04000000040446576694F
:1028C00063652031000030313233343536373839E2
:1028D0004142434445464748494A4B4C4D4E4F5070
:1028E0005152535455565758595A2E2C3A3B3F2D56
:1028F0005F2829273D2B2F4000002E003A20636FD0
:102900006D6D616E64206E6F7420666F756E643AD3
:1029100020003A20493243206572726F723A2000DB
:102920003A207761746368646F67207265736574B9
:102930003A2000003A20636F6D6D616E642077610C
:10294000746368646F673A2000003A2070617261B6
:102950006D65746572206572726F723A20003A205C
:1029600074782074696D6520746F6F206C6F6E676A
:102970003A2000003A206E6F742076616C69642002
:10298000617420746861742074696D653A20000078
:102990003A206932635F627566666572206F76659C
:1029A00072666C6F773A20003A20493263206E6F6E
:1029B0007420726561647920746F20726563656943
:1029C00076653A2000003A206E6F206572726F7251
:1029D0003A2000003A206F74686572206572726F49
:0429E000723A200027
:00000001FF
