:100000000C94460018950000189500001895000003
:10001000189500001895000018950000189500002C
:10002000189500001895000018950000189500001C
:100030001895000018950000189500000C941508FC
:1000400018950000189500001895000018950000FC
:100050000C942C05189500001895000018950000C8
:1000600018950000189500000C94AD051895000037
:100070000C94980818950000189500001895000039
:100080001895000018950000189500008FEF8DBF9F
:10009000C0ECE2E94E2E80E48EBFD0E4F0E45F2EA7
:1000A000A89584B7082E882784BF88E19927809374
:1000B000600090936000EEEFFFE3A0E0B1E08827DE
:1000C0008D933197E9F780E48093C40080E08093BA
:1000D000C50088E18093C10080E08093CD008AE074
:1000E0008093CC0088E18093C9006624EAE0F0E0C8
:1000F0000E942F2CE0EFFDE50E94E32C0E94062CCD
:100100000E94122CE0E0FF270081A0E2B3E00C93F4
:10011000A0E2B3E00C9103FB16F00C949B0082E08C
:10012000809301048091FF038093020481E0809317
:1001300003040C949E008FEF809301042298429A4E
:1001400023982B9A80E08093060481E0809300033B
:1001500000910003003011F00C94B4001B9B0C9430
:10016000B40081E080930604559A5D9A56985E9A91
:10017000579A5F9A7091C10070687093C10074B70C
:10018000777F74BF8FE197E0809360009093600069
:1001900078947091BC0071607093BC000E944D2CEB
:1001A000089A109A2198299A249A2C983F9A479A4B
:1001B0008AE08093CC0080E08093CD007091C800ED
:1001C0007D7F7093C80086E08093CA0088E18093A9
:1001D000C90080E08093800085E08093810078945E
:1001E00070916F00716070936F007091C9007068BA
:1001F0007093C90085E0809381001A990C940201E4
:100200000E943803E1E0F0E0A0E1B0E00E94862D1A
:10021000053011F40C940E010E943803E7E1F0E080
:10022000A6E3B3E00E94862DE2E0F0E0A1E2B3E0B5
:1002300094E10E94902D81E08093FF0380E0809301
:10024000020480E08093030481E090E0ABEFB3E030
:100250008D939C9380E090E0ADEFB3E08D939C9301
:1002600080E08093460380E0809347030E94FA0376
:10027000EAE1F0E0ACE3B3E00E94862DEBE1F0E0D0
:10028000AFE3B3E00E94862DECE1F0E0A0E4B3E040
:1002900093E00E94902DE0E2F0E0A4E4B3E00E943D
:1002A000862DE9E1F0E0A9E3B3E00E94862DE1E2CA
:1002B000F0E0A5E4B3E00E94862DE2E2F0E0A7E0E2
:1002C000B4E00E94862DE4E2F0E0A8E0B4E095E01E
:1002D0000E94902DEAE2F0E0A4E7B4E094E00E94EE
:1002E000892DEEE2F0E0A8E7B4E094E00E94892DC9
:1002F000E8E1F0E0A7E3B3E00E94862DE9E1F0E059
:10030000A9E3B3E00E94862D0E94920580E08093CD
:100310000E0484E670E0AFE0B4E00E945D2D0E9420
:10032000710700E010E020E030E0A5E3B0E40D93B9
:100330001D932D933C93E2E3F0E0A0E3B0E40E9430
:10034000862DE3E3F0E0A1E3B0E494E00E94892D80
:1003500070E076BD0E94F20880E080936F40E7E392
:10036000F0E0A1E7B0E494E00E94892D0E94C5105E
:100370000E942A1080916000886080936000A7E44A
:10038000B3E08C918F5F8C9300914703043611F09A
:100390000C943A02A6E4B3E08C918F5F8C930091A9
:1003A0004603043B11F00C94000200913803013025
:1003B00081E009F080E08F93A6E2B0E00C9104FBAD
:1003C00081E00EF480E09F918923882311F40C943E
:1003D000FB01ABE3B3E08C918F5F8C9300913B0307
:1003E000053018F011F00C94F7010C94F9010E94FB
:1003F00092050C94FE0180E080933B030C943A023A
:100400000F3F11F00C943A02A4E0B4E00D911C915E
:10041000003050E0150718F011F00C9411020C9404
:100420001502A4E0B4E00E94CE2BA4E0B4E00D914C
:100430001C91023050E0150718F011F00C942202C4
:100440000C943A0283E0809301048091FF0380932F
:10045000020481E0809303040E94FA0380E090E0AC
:10046000ADE4B3E08D939C9380E090E0AFE4B3E023
:100470008D939C9381E080930003009100030130F1
:1004800011F00C945C0200910704003018F011F098
:100490000C944C020C945C0200910704013011F0A2
:1004A0000C9456020E94B2130C945C02043011F0BA
:1004B0000C945C020E945D1700910704003018F054
:1004C00011F00C9465020C94750200910704013040
:1004D00011F00C946F020E94B2130C947502043058
:1004E00011F00C9475020E945D170E94E409ADE4BE
:1004F000B3E00D911C91003050E0150780E010F042
:1005000009F081E08F9300910604003081E009F04A
:1005100080E09F918923882311F40C942B03A4E09D
:10052000B4E00D911C91003050E0150711F00C94CF
:100530009D02A4E0B4E00E94CE2B0091060400309E
:1005400011F00C942B03ADE4B3E00D911C9101303C
:1005500050E0150710F40C942B030091A6030E3FF6
:1005600011F00C94B7020E941C250C942B0380E020
:100570008093000300910004003011F00C94CB0232
:1005800000913C03013011F00C94C90281E080938A
:1005900000030C941503013011F00C94DA02009161
:1005A0004403013011F00C94D80281E080930003E1
:1005B0000C941503023011F00C94F60200913C03E8
:1005C000013081E009F080E08F9300914403013015
:1005D00081E009F080E09F91892B882311F40C942D
:1005E000F40281E0809300030C941503033011F0B2
:1005F0000C94050300913903013011F00C940303AE
:1006000081E0809300030C941503043011F00C94E6
:10061000150300910704003018F011F00C94120338
:100620000C94150381E080930003009100030130D6
:1006300011F00C941F030E941C250C942B030E94A4
:10064000FA0386E0809301048091FF038093020403
:1006500081E0809303049FB7F894809160008861E3
:1006600080936000877E809360009FBF0C94BA01E6
:10067000E1E0F0E00E942F2CE7E1F0E0A0E1BB27F1
:1006800081E08C937BE70E946A2DA42DB52DE6EFC7
:10069000FDE50E94E32C0E94B42CE2E0F0E0D201E0
:1006A0007BE70E947B2DEAE1F0E0A0E1BB2781E03F
:1006B0008C937BE70E946A2DEBE1F0E0A0E1BB2781
:1006C00080E08C937BE70E946A2DA42DB52DE0E09D
:1006D000FEE50E94E32C0E94B42CECE1F0E0D20194
:1006E0007BE70E947B2DE0E2F0E0A0E1BB2781E008
:1006F0008C937BE70E946A2DE9E1F0E0A0E1BB2743
:1007000080E08C937BE70E946A2DE1E2F0E0A0E1BB
:10071000BB2781E08C937BE70E946A2DA42DB52D29
:10072000E4E0FEE50E94E32C0E94B42CE4E2F0E059
:10073000D2017BE70E947B2DE2E2F0E0A0E1BB2743
:1007400084E08C937BE70E946A2DE8E1F0E0A0E171
:10075000BB2788E38C937BE70E946A2DE9E1F0E0F8
:10076000A0E1BB2781E08C937BE70E946A2DEAE23F
:10077000F0E008EE13E020E030E0A0E1BB2794E0D9
:100780007BE70E946D2DEEE2F0E008E210E020E051
:1007900030E0A0E1BB2794E07BE70E946D2DE2E30F
:1007A000F0E0A0E1BB2780E08C937BE70E946A2DFC
:1007B000E3E3F0E001E010E020E030E0A0E1BB275F
:1007C00094E07BE70E946D2DE7E3F0E000EC17E298
:1007D00029E030E0A0E1BB2794E07BE70E946D2D8B
:1007E000E1E0F0E0A0E1BB2785E08C937BE70E948D
:1007F0006A2D089500913E03003081E009F080E009
:100800008F9300913A03003081E009F080E09F91DE
:100810008923882311F40C945204009103040030BE
:1008200011F00C942304ADE4B3E00D911C91AFE4FE
:10083000B3E04D915C91041B150BADE4B3E00D9357
:100840001C930C94290480E090E0ADE4B3E08D9318
:100850009C9380E090E0AFE4B3E08D939C9381E0C3
:1008600090E0ABEFB3E08D939C9380E090E0A4E048
:10087000B4E08D939C93AFEFB3E08C918F5F8C933A
:10088000409102040091FF03041711F00C944E04F0
:1008900080E0809302048FEF8093010480E08093D6
:1008A0000304A895089581E080933E03ABEFB3E085
:1008B0000E94D52B81E090E0A8E0B3E08D939C935B
:1008C000ABEFB3E04D915C91A8E0B3E00D911C91CA
:1008D0000417150718F011F00C948504A8E0B3E094
:1008E000AD90BD90A0E5B3E0AA0DBB1D8C918093A7
:1008F000020331E0A2E0B3E00E940D2CA8E0B3E0D7
:100900000E94CE2B10F40C94600481E080930503C8
:1009100000910704003080E010F009F081E08F932F
:1009200000910503013081E009F080E09F91892367
:10093000882311F40C94BD04ABEFB3E00D911C912E
:10094000003050E0150718F011F00C94A9040C9435
:10095000BD048091FB0380937C0400910704013067
:1009600011F00C94B7040E940D130C94BD040430D4
:1009700011F00C94BD040E94341681E090E0ABEFBE
:10098000B3E08D939C9380E080933E030E94FA0332
:100990000895ADE4B3E08D919C91AFE4B3E08D9305
:1009A0009C93ECE6FBE40E94E32C80E090E00E9444
:1009B000D02CA1E5B3E00E94B42CA1E5B3E00E94E5
:1009C000AA2DA2E0B3E08C930091020342E0040F51
:1009D000A1E0B3E00C938091020380930003409167
:1009E000000301E0041718F011F00C941605A0E0C4
:1009F000B3E0AD90BB24A0E5B3E0AA0DBB1D8C9184
:100A0000A1E0B3E0AD90BB24A0E5B3E0AA0DBB1D0F
:100A10008C938091010381508093010380910003A6
:100A200081508093000310F00C94EF0480E08093D9
:100A300051038091020380935203A2E0B3E00D9131
:100A400011270D5F1F4FABEFB3E00D931C930E9476
:100A500053040E94FA0308950F921F922F923F921F
:100A60004F925F927F92AF92BF92CF92DF92EF92BE
:100A7000FF920F931F932F933F934F935F936F9327
:100A80007F938F939F93AF93BF93CF93DF93EF9316
:100A9000FF939FB79F939BB79F9399279BBFA0E01E
:100AA000B3E08091C6008C93ADE4B3E00D911C914E
:100AB000003550E0150710F00C946205ADE4B3E08A
:100AC0000E94CE2B80910003ADE4B3E0AD90BD90C9
:100AD000A5EAB3E0AA0DBB1D8C9382E080930004CD
:100AE0009F919BBF9F919FBFFF91EF91DF91CF910E
:100AF000BF91AF919F918F917F916F915F914F9136
:100B00003F912F911F910F91FF90EF90DF90CF9029
:100B1000BF90AF907F905F904F903F902F901F902D
:100B20000F90189580E080933B0370E07093B900BC
:100B300070E07093B90071E17093B80070E8709341
:100B4000BB00A7E3B3E08C918093BA0075E4709387
:100B5000BC0080E080933A0308950F921F922F9279
:100B60003F924F925F927F92AF92BF920F931F93EB
:100B70002F933F934F935F936F937F938F939F93A5
:100B8000AF93BF93CF93DF93EF93FF939FB79F9361
:100B90009BB79F9399279BBF00913903003011F0B9
:100BA0000C94D60575EC7093BC00089581E0809399
:100BB0003A030091B9004CEF0423A0E0B3E00C939A
:100BC00000910003003611F00C94EB0575EC709366
:100BD000BC000C943B07083611F00C94F40575EC3E
:100BE0007093BC000C943B07003711F00C94FD058A
:100BF00075EC7093BC000C943B07083711F00C9413
:100C0000060675EC7093BC000C943B07003811F09D
:100C10000C942B06ADE4B3E00D911C91003550E02F
:100C2000150710F00C941806ADE4B3E00E94CE2B2B
:100C3000ADE4B3E0AD90BD90A5EAB3E0AA0DBB1D55
:100C40008091BB008C9383E08093000475EC7093DB
:100C5000BC000C943B07083811F00C945006ADE42E
:100C6000B3E00D911C91003550E0150710F00C9485
:100C70003D06ADE4B3E00E94CE2BADE4B3E0AD9011
:100C8000BD90A5EAB3E0AA0DBB1D8091BB008C937B
:100C900075EC7093BC0083E0809300040C943B07D8
:100CA000003911F00C947506ADE4B3E00D911C9180
:100CB000003550E0150710F00C946206ADE4B3E087
:100CC0000E94CE2BADE4B3E0AD90BD90A5EAB3E0B9
:100CD000AA0DBB1D8091BB008C9375EC7093BC007A
:100CE00083E0809300040C943B07083911F00C94C6
:100CF0009A06ADE4B3E00D911C91003550E0150764
:100D000010F00C948706ADE4B3E00E94CE2BADE466
:100D1000B3E0AD90BD90A5EAB3E0AA0DBB1D8091F4
:100D2000BB008C9375EC7093BC0083E0809300044F
:100D30000C943B07003A11F00C94A30675EC7093E9
:100D4000BC000C943B07083A11F00C94CD06ABEFB5
:100D5000B3E04D915C91ADEFB3E00D911C910417A0
:100D6000150710F00C94C506ADEFB3E0AD90BD9043
:100D7000A0E5B3E0AA0DBB1D8C918093BB00ADEF45
:100D8000B3E00E94CE2B0C94C80670E87093BB00B1
:100D900075EC7093BC000C943B07003B11F00C9475
:100DA000F706ABEFB3E04D915C91ADEFB3E00D9181
:100DB0001C910417150710F00C94EF06ADEFB3E08B
:100DC000AD90BD90A0E5B3E0AA0DBB1D8C918093C2
:100DD000BB00ADEFB3E00E94CE2B0C94F20670E89E
:100DE0007093BB0075EC7093BC000C943B07083B00
:100DF00011F00C942107ABEFB3E04D915C91ADEF96
:100E0000B3E00D911C910417150710F00C9419070D
:100E1000ADEFB3E0AD90BD90A0E5B3E0AA0DBB1D72
:100E20008C918093BB00ADEFB3E00E94CE2B0C946D
:100E30001C0770E87093BB0075EC7093BC000C94B9
:100E40003B07003C11F00C942D0770E87093BB0039
:100E500075EC7093BC000C943B07083C11F00C94AB
:100E6000390770E87093BB0075EC7093BC000C946C
:100E70003B070E949205ABEFB3E04D915C91ADEF63
:100E8000B3E00D911C910417150710F40C9453074F
:100E900081E090E0ADEFB3E08D939C9380E0809390
:100EA0003A030E94FA039F919BBF9F919FBFFF91BE
:100EB000EF91DF91CF91BF91AF919F918F917F91F2
:100EC0006F915F914F913F912F911F910F91BF9023
:100ED000AF907F905F904F903F902F901F900F901A
:100EE000189500910704013011F00C947B070E94C3
:100EF0008C120C948107043011F00C9481070E942D
:100F0000C5140895A8E0B4E00E94AA2DA3E0B3E0C0
:100F10008C9381E0809301034091030300910103CE
:100F2000041718F011F00C94AF07A1E0B3E0AD90F6
:100F3000BB24A7E0B4E0AA0DBB1D8C91A1E0B3E0F7
:100F4000AD90BB24AFE0B4E0AA0DBB1D8C93A1E033
:100F5000B3E08C918F5F8C9310F40C948C0781E03C
:100F60008093050381E08093000340917C0400910D
:100F70000003041718F011F00C94F707A1E0B3E098
:100F80008C918F5F8C9300910503003011F00C94CD
:100F9000DD07A0E0B3E0AD90BB24A5EAB3E0AA0D65
:100FA000BB1D8C91A1E0B3E0AD90BB24AEE0B4E0FA
:100FB000AA0DBB1D8C930C94EF07A0E0B3E0AD909D
:100FC000BB24A0E5B3E0AA0DBB1D8C91A1E0B3E06A
:100FD000AD90BB24AEE0B4E0AA0DBB1D8C93A0E0A5
:100FE000B3E08C918F5F8C9310F40C94B5078091D3
:100FF000010380937C0408952C9891E0AFE0B4E065
:101000000E94432CA881B9819C91AFE0B4E00E947A
:10101000382C2C9A08952C98A881B9819C91AFE026
:10102000B4E00E94432C2C9A08950F921F922F92A5
:101030003F924F925F927F92AF92BF920F931F9316
:101040002F933F934F935F936F937F938F939F93D0
:10105000AF93BF93CF93DF93EF93FF939FB79F938C
:101060009BB79F9399279BBFA1E3B0E44D915D91FE
:101070006D917C91A5E3B0E40D911D912D913C9172
:10108000041715072607370710F40C947008009111
:101090007640013011F00C9464088EE780930101D2
:1010A00080E08093020183E08093030180E08093DD
:1010B00004018CEF809305018EE78093060186E0A2
:1010C000809339400E94900D00E010E020E030E075
:1010D000A5E3B0E40D931D932D933C930C947408F9
:1010E000A5E3B0E40E94C12B80E090E090938500DE
:1010F000809384009F919BBF9F919FBFFF91EF9131
:10110000DF91CF91BF91AF919F918F917F916F911F
:101110005F914F913F912F911F910F91BF90AF9091
:101120007F905F904F903F902F901F900F90189559
:101130000F921F922F923F924F925F927F92AF92A7
:10114000BF92CF92DF92EF92FF920F931F932F9354
:101150003F934F935F936F937F938F939F93AF933F
:10116000BF93CF93DF93EF93FF939FB79F939BB76B
:101170009F9399279BBF0E941C2CA0E0B3E08C9307
:1011800080910003ADE7B4E0AD90BB24A9E3B0E4E7
:10119000AA0DBB1D8C93ADE7B4E08C918F5F8C934F
:1011A0009F919BBF9F919FBFFF91EF91DF91CF9147
:1011B000BF91AF919F918F917F916F915F914F916F
:1011C0003F912F911F910F91FF90EF90DF90CF9063
:1011D000BF90AF907F905F904F903F902F901F9067
:1011E0000F90189581E090E0ADE6B0E48D939C936C
:1011F000ADE6B0E40D911C910B3F52E0150718F0DD
:1012000011F00C94960980E090E0ADE6B0E4AD906A
:10121000BD90AEE7B4E0AA0CBB1CAA0DBB1D8D931C
:101220009C9380E090E0ADE6B0E4AD90BD90A4E783
:10123000BAE0AA0CBB1CAA0DBB1D8D939C9380E049
:1012400090E0ADE6B0E4AD90BD90AAE6B0E1AA0CA6
:10125000BB1CAA0DBB1D8D939C9380E090E0ADE676
:10126000B0E4AD90BD90A0E6B6E1AA0CBB1CAA0DFF
:10127000BB1D8D939C9380E090E0ADE6B0E4AD9013
:10128000BD90A6E5BCE1AA0CBB1CAA0DBB1D8D93AD
:101290009C9380E090E0ADE6B0E4AD90BD90ACE40E
:1012A000B2E2AA0CBB1CAA0DBB1D8D939C9380E0DF
:1012B00090E0ADE6B0E4AD90BD90A2E4B8E2AA0C37
:1012C000BB1CAA0DBB1D8D939C9380E090E0ADE606
:1012D000B0E4AD90BD90A8E3BEE2AA0CBB1CAA0D81
:1012E000BB1D8D939C9380E090E0ADE6B0E4AD90A3
:1012F000BD90AEE2B4E3AA0CBB1CAA0DBB1D8D933E
:101300009C9380E090E0ADE6B0E4AD90BD90A4E2A7
:10131000BAE3AA0CBB1CAA0DBB1D8D939C93ADE632
:10132000B0E40E94CE2B10F40C94F80880E090E01A
:10133000ADE6B0E4AD90BD90AEE7B4E0AA0CBB1C46
:10134000AA0DBB1D8D939C9380E090E0AEE1B0E4CC
:101350008D939C9380E090E0A0E2B0E48D939C9309
:1013600080E090E0A2E2B0E48D939C9380E090E076
:10137000A4E2B0E48D939C9380E090E0A6E2B0E418
:101380008D939C9380E090E0A8E2B0E48D939C93D1
:1013900080E090E0AAE2B0E48D939C9380E090E03E
:1013A000ACE2B0E48D939C9380E090E0AEE2B0E4D8
:1013B0008D939C9381E090E0ADE6B0E48D939C9397
:1013C00081E080937D04089500917D04013018F040
:1013D00011F00C94ED090C94A00A00917D040233E5
:1013E00081E008F480E08F9300913A400E3781E06D
:1013F00009F480E09F91892B882311F40C94050A4D
:1014000081E080937D040C94A00A00917D04053056
:1014100018F011F00C940E0A0C94A00A00917D04AF
:1014200041E0041BA0E0B3E00C93A0E0B3E0AD907A
:10143000BB24A9E3B0E4AA0DBB1D0C910E3711F03B
:101440000C94A00A00913D40003011F00C945E0A0B
:1014500000913E40003011F40C945C0A80913C40B5
:10146000809375400E94610C00917540033011F02B
:101470000C943E0A0E94A10A0C945C0A003811F0F8
:101480000C94460A0E9429100C945C0A003D11F04D
:101490000C944E0A0E94FA0B0C945C0A013D11F068
:1014A0000C94560A0E94FA0B0C945C0A023D11F04F
:1014B0000C945C0A0E94FA0B0C949D0A013011F006
:1014C0000C946B0A89E0809301048091FF03809360
:1014D00002040C949D0A023011F00C94780A8AE000
:1014E000809301048091FF03809302040C949D0A71
:1014F000043011F00C94850A8BE0809301048091F4
:10150000FF03809302040C949D0A083211F00C949E
:10151000920A8CE0809301048091FF03809302047F
:101520000C949D0A033411F00C949D0A8DE0809375
:1015300001048091FF038093020481E080937D0485
:10154000089580913B408093070380913C408093B5
:101550000603A6E0B3E08D919C91ADE6B0E4AD90BA
:10156000BD90AEE7B4E0AA0CBB1CAA0DBB1D8D93C9
:101570009C93A6E0B3E08D919C91ACE1B0E48D9397
:101580009C9380913D408093070380913E408093DF
:101590000603A6E0B3E08D919C91ADE6B0E4AD907A
:1015A000BD90A4E7BAE0AA0CBB1CAA0DBB1D8D938D
:1015B0009C93A6E0B3E08D919C91AEE1B0E48D9355
:1015C0009C9380913F40809307038091404080939B
:1015D0000603A6E0B3E08D919C91ADE6B0E4AD903A
:1015E000BD90AAE6B0E1AA0CBB1CAA0DBB1D8D9351
:1015F0009C93A6E0B3E08D919C91A0E2B0E48D9322
:101600009C93809141408093070380914240809356
:101610000603A6E0B3E08D919C91ADE6B0E4AD90F9
:10162000BD90A0E6B6E1AA0CBB1CAA0DBB1D8D9314
:101630009C93A6E0B3E08D919C91A2E2B0E48D93DF
:101640009C93809143408093070380914440809312
:101650000603A6E0B3E08D919C91ADE6B0E4AD90B9
:10166000BD90A6E5BCE1AA0CBB1CAA0DBB1D8D93C9
:101670009C93A6E0B3E08D919C91A4E2B0E48D939D
:101680009C938091454080930703809146408093CE
:101690000603A6E0B3E08D919C91ADE6B0E4AD9079
:1016A000BD90ACE4B2E2AA0CBB1CAA0DBB1D8D938D
:1016B0009C93A6E0B3E08D919C91A6E2B0E48D935B
:1016C0009C9380914740809307038091484080938A
:1016D0000603A6E0B3E08D919C91ADE6B0E4AD9039
:1016E000BD90A2E4B8E2AA0CBB1CAA0DBB1D8D9351
:1016F0009C93A6E0B3E08D919C91A8E2B0E48D9319
:101700009C93809149408093070380914A40809345
:101710000603A6E0B3E08D919C91ADE6B0E4AD90F8
:10172000BD90A8E3BEE2AA0CBB1CAA0DBB1D8D9305
:101730009C93A6E0B3E08D919C91AAE2B0E48D93D6
:101740009C9380914B408093070380914C40809301
:101750000603A6E0B3E08D919C91ADE6B0E4AD90B8
:10176000BD90AEE2B4E3AA0CBB1CAA0DBB1D8D93C9
:101770009C93A6E0B3E08D919C91ACE2B0E48D9394
:101780009C9380914D408093070380914E408093BD
:101790000603A6E0B3E08D919C91ADE6B0E4AD9078
:1017A000BD90A4E2BAE3AA0CBB1CAA0DBB1D8D938D
:1017B0009C93A6E0B3E08D919C91AEE2B0E48D9352
:1017C0009C93ADE6B0E40E94CE2BADE6B0E40D9163
:1017D0001C910B3F52E0150718F011F00C94F20B1E
:1017E0000C94F80B81E090E0ADE6B0E48D939C930F
:1017F000089508958091A6038093510300913A4083
:1018000041E0041BA2E5B3E00C9383E08093010365
:1018100082E08093020381E00E947F2C00913A4095
:1018200041E0041BA881B9810C9381E080930003FF
:10183000A881B9814C9100910003041718F011F0B0
:101840000C94510CA2E0B3E0AD90BB24A9E3B0E44A
:10185000AA0DBB1D8C9180930303A2E0B3E0AD9071
:10186000BB24A9E3B0E4AA0DBB1D8C91A1E0B3E0B9
:10187000AD90BB24A0E5B3E0AA0DBB1D8C93A1E005
:10188000B3E08C918F5F8C93A2E0B3E08C918F5F7B
:101890008C93A0E0B3E08C918F5F8C9310F40C9448
:1018A000180C81E0481A80E0580A2296A1E0B3E0C3
:1018B0008C91ABEFB3E08D9388278C930E945304F7
:1018C000089581E08093010380E080936F4081E080
:1018D0000E947F2C00917D0442E0041BA881B98105
:1018E0000C9385E080930003A881B9814C9100910D
:1018F0000003041718F011F00C94010DA0E0B3E000
:10190000AD90BB24A9E3B0E4AA0DBB1D0C910D372B
:1019100011F00C94900C81E080936F400C94F90CC2
:1019200000916F40013011F00C94E20CA0E0B3E0A4
:10193000AD90BB24A9E3B0E4AA0DBB1D0C910E35FC
:1019400011F00C94AF0C8FE7A1E0B3E0AD90BB2495
:10195000A9E3B0E4AA0DBB1D8C930C94DD0C0D35EE
:1019600011F00C94BF0C8DE7A1E0B3E0AD90BB2467
:10197000A9E3B0E4AA0DBB1D8C930C94DD0C0133DC
:1019800011F00C94CF0C81E1A1E0B3E0AD90BB2449
:10199000A9E3B0E4AA0DBB1D8C930C94DD0C0333BA
:1019A00011F00C94DD0C83E1A1E0B3E0AD90BB2419
:1019B000A9E3B0E4AA0DBB1D8C9380E080936F4037
:1019C0000C94F40CA0E0B3E0AD90BB24A9E3B0E428
:1019D000AA0DBB1D8C91A1E0B3E0AD90BB24A9E39F
:1019E000B0E4AA0DBB1D8C93A1E0B3E08C918F5F96
:1019F0008C93A0E0B3E08C918F5F8C9310F40C94E7
:101A0000740C81E0481A80E0580A22960895A0E7F5
:101A1000B0E4AD90BB24A0E0B1E0AA0DBB1D0C91D9
:101A20000E3711F00C942F0D8DE7A0E7B0E4AD90C8
:101A3000BB24A0E0B1E0AA0DBB1D8C93A0E7B0E4ED
:101A40008C918F5F8C938EE5A0E7B0E4AD90BB24C2
:101A5000A0E0B1E0AA0DBB1D8C930C948A0D0D374C
:101A600011F00C944E0D8DE7A0E7B0E4AD90BB24CF
:101A7000A0E0B1E0AA0DBB1D8C93A0E7B0E48C916F
:101A80008F5F8C938DE5A0E7B0E4AD90BB24A0E020
:101A9000B1E0AA0DBB1D8C930C948A0D013111F09D
:101AA0000C946D0D8DE7A0E7B0E4AD90BB24A0E0F1
:101AB000B1E0AA0DBB1D8C93A0E7B0E48C918F5FC1
:101AC0008C9381E3A0E7B0E4AD90BB24A0E0B1E04B
:101AD000AA0DBB1D8C930C948A0D033111F00C944C
:101AE0008A0D8DE7A0E7B0E4AD90BB24A0E0B1E0A3
:101AF000AA0DBB1D8C93A0E7B0E48C918F5F8C93F3
:101B000083E3A0E7B0E4AD90BB24A0E0B1E0AA0D70
:101B1000BB1D8C93A0E7B0E48C918F5F8C930895EC
:101B200081E0809300034091394000910003041745
:101B300018F011F00C94B40DA0E0B3E0AD90BB240C
:101B4000A0E0B1E0AA0DBB1D8C918093010331E0B0
:101B5000A1E0B3E00E94232CA0E0B3E08C918F5F62
:101B60008C9310F40C94930D0895ADE4B3E00D91B3
:101B70001C91043050E0150710F40C94630FADE491
:101B8000B3E08D919C91AFE4B3E08D939C93009171
:101B9000A903003011F00C94D10D0E94640F0C9435
:101BA000610FA7EAB3E00D91112740E051E00E94D8
:101BB000872CA6E0B3E00D931C93A6E0B3E08C91D4
:101BC00080FB882780F9082F8827182FA8EAB3E020
:101BD0004D915527040F151FA6E0B3E00D931C93FC
:101BE0008091A90380930003A6E0B3E00D911C91BE
:101BF0000B3F52E0150781E008F080E08F930091E1
:101C000000030F3781E008F080E09F91892388234B
:101C100011F40C94570F8091A60380935103809187
:101C2000A703809352038091A8038093530380916C
:101C3000A9038093540385E090E0ABEFB3E08D936C
:101C40009C9381E080930103409100030091010384
:101C5000041718F011F00C94460F0091A603013000
:101C600011F00C94450EA6E0B3E0AD90BD90AEE748
:101C7000B4E0AA0CBB1CAA0DBB1D8D919C91AAE0DF
:101C8000B3E08D939C930C94090F023011F00C94E7
:101C90005B0EA6E0B3E0AD90BD90A4E7BAE0AA0C5D
:101CA000BB1CAA0DBB1D8D919C91AAE0B3E08D9346
:101CB0009C930C94090F033011F00C94710EA6E064
:101CC000B3E0AD90BD90AAE6B0E1AA0CBB1CAA0D92
:101CD000BB1D8D919C91AAE0B3E08D939C930C94D5
:101CE000090F043011F00C94870EA6E0B3E0AD901C
:101CF000BD90A0E6B6E1AA0CBB1CAA0DBB1D8D9140
:101D00009C91AAE0B3E08D939C930C94090F05304D
:101D100011F00C949D0EA6E0B3E0AD90BD90A6E549
:101D2000BCE1AA0CBB1CAA0DBB1D8D919C91AAE025
:101D3000B3E08D939C930C94090F063011F00C9432
:101D4000B30EA6E0B3E0AD90BD90ACE4B2E2AA0C55
:101D5000BB1CAA0DBB1D8D919C91AAE0B3E08D9395
:101D60009C930C94090F073011F00C94C90EA6E057
:101D7000B3E0AD90BD90A2E4B8E2AA0CBB1CAA0DE2
:101D8000BB1D8D919C91AAE0B3E08D939C930C9424
:101D9000090F083011F00C94DF0EA6E0B3E0AD900F
:101DA000BD90A8E3BEE2AA0CBB1CAA0DBB1D8D9181
:101DB0009C91AAE0B3E08D939C930C94090F093099
:101DC00011F00C94F50EA6E0B3E0AD90BD90AEE23C
:101DD000B4E3AA0CBB1CAA0DBB1D8D919C91AAE07B
:101DE000B3E08D939C930C94090F0A3011F00C947E
:101DF000090FA6E0B3E0AD90BD90A4E2BAE3AA0C4F
:101E0000BB1CAA0DBB1D8D919C91AAE0B3E08D93E4
:101E10009C93AAE0B3E011968C91ABEFB3E0AD9048
:101E2000BD90A0E5B3E0AA0DBB1D8C93ABEFB3E072
:101E30000E94CE2BAAE0B3E08C91ABEFB3E0AD9063
:101E4000BD90A0E5B3E0AA0DBB1D8C93ABEFB3E052
:101E50000E94CE2BA6E0B3E00E94CE2BA6E0B3E01A
:101E60000D911C910B3F52E0150710F40C943E0F9E
:101E700080E090E0A6E0B3E08D939C93A1E0B3E016
:101E80008C918F5F8C9310F40C94240EABEFB3E025
:101E90000D911C91013050E0150718F011F00C94D1
:101EA000530F0C94550F0E9453040C94610F84E05F
:101EB000809301048091FF038093020481E080936A
:101EC00003040E94FA0308958091A60380935103AE
:101ED0000091A603013011F00C94780FACE1B0E44E
:101EE0008D919C91AAE0B3E08D939C930C94F40F98
:101EF000023011F00C94860FAEE1B0E48D919C910C
:101F0000AAE0B3E08D939C930C94F40F033011F08E
:101F10000C94940FA0E2B0E48D919C91AAE0B3E000
:101F20008D939C930C94F40F043011F00C94A20F39
:101F3000A2E2B0E48D919C91AAE0B3E08D939C93D2
:101F40000C94F40F053011F00C94B00FA4E2B0E43F
:101F50008D919C91AAE0B3E08D939C930C94F40F27
:101F6000063011F00C94BE0FA6E2B0E48D919C9166
:101F7000AAE0B3E08D939C930C94F40F073011F01A
:101F80000C94CC0FA8E2B0E48D919C91AAE0B3E050
:101F90008D939C930C94F40F083011F00C94DA0F8D
:101FA000AAE2B0E48D919C91AAE0B3E08D939C935A
:101FB0000C94F40F093011F00C94E80FACE2B0E48B
:101FC0008D919C91AAE0B3E08D939C930C94F40FB7
:101FD0000A3011F00C94F40FAEE2B0E48D919C91B4
:101FE000AAE0B3E08D939C93ADE6B0E411968C919A
:101FF000A2E5B3E08C93ADE6B0E48C91A3E5B3E049
:102000008C9381E080935403AAE0B3E011968C9105
:10201000A5E5B3E08C93AAE0B3E08C91A6E5B3E02C
:102020008C9387E090E0ABEFB3E08D939C93ABEFA4
:10203000B3E00D911C91013050E0150718F011F03C
:102040000C9424100C9426100E9453040E94FA034E
:10205000089508958EE78093010180E08093020146
:1020600080E88093030185E08093040180E0809301
:10207000050180E08093060187E0809370408091A5
:102080007340A0E7B0E4AD90BB24A0E0B1E0AA0D9E
:10209000BB1D8C930E94070D80917240A0E7B0E4B5
:1020A000AD90BB24A0E0B1E0AA0DBB1D8C930E94B3
:1020B000070D80917140A0E7B0E4AD90BB24A0E093
:1020C000B1E0AA0DBB1D8C930E94070D05E810E03E
:1020D000A7EAB3E04D915527040F151FAEE7B4E012
:1020E0000D931C93AEE7B4E00D911C91A8EAB3E008
:1020F0004D915527040F151FAEE7B4E00D931C93C7
:10210000AEE7B4E00D911C91A9EAB3E04D915527DB
:10211000040F151FAEE7B4E00D931C93AEE7B4E0D7
:102120000D911C91AAEAB3E04D915527040F151F9C
:10213000AEE7B4E00D931C93AEE7B4E08C91A0E061
:10214000B3E08C930FEF40910003041BA0E7B0E4D1
:10215000AD90BB24A0E0B1E0AA0DBB1D0C93A0E79D
:10216000B0E48C918F5F8C938EE7A0E7B0E4AD90E4
:10217000BB24A0E0B1E0AA0DBB1D8C938091704000
:10218000809339400E94900D08958EE7809301015D
:1021900080E08093020180E08093030182E08093DD
:1021A000040181E08093050185E08093060187EFBB
:1021B000809307018EE78093080188E0809339407F
:1021C0000E94900D00E010E020E030E0A5E3B0E4D4
:1021D0000D931D932D933C9381E080937640089559
:1021E0008EE78093010180E08093020181E080937B
:1021F000030180E0809304018EEF809305018EE758
:102200008093060186E0809339400E94900D80E023
:10221000809376400E94F208089581E880930F042D
:1022200080E88093100482E0D2018C9381E00E94C8
:102230007F2C0E940B08229681E00E947B2C81E873
:1022400080930F0481E88093100482E0D2018C9384
:1022500081E00E947F2C0E940B08229681E00E9460
:102260007B2C089582E180930F0481E0D2018C934E
:1022700081E00E947F2C0E94FC07229681E00E9450
:102280007B2C089582E980930F048FEF80931004D4
:1022900082E0D2018C9381E00E947F2C0E940B0887
:1022A000229681E00E947B2C81E090E00E94642CC9
:1022B00082E0D2018C9381E00E947F2C0E940B0867
:1022C000229681E00E947B2C089586E080930F0483
:1022D00083E0D2018C9381E00E947F2C0E94FC0756
:1022E000229681E00E947B2CAFE0B4E00C91112794
:1022F0002227332740E050E061E070E00E94912CFB
:10230000ACE0B3E00D931D932D933D93A0E1B4E0B9
:102310000C9111272227332740E051E060E070E064
:102320000E94912CA0E1B3E00D931D932D933D935A
:10233000ACE0B3E00D911D912D913C91A0E1B3E093
:102340004D915D916D917C910E94E92CACE0B3E0E0
:102350000D931D932D933D93ACE0B3E00D911D9132
:102360002D913C91A1E1B4E04C9155276627772748
:102370000E94E92CACE0B3E00D931D932D933D93A7
:10238000ECE0F3E00E94BE2D0E94212EA8E1B3E014
:102390000E94C82DE4EEFDE50E94E32C0E94E52E8C
:1023A000E8E1F3E00E94BE2D0E94A72EEDE0F0E0F0
:1023B000A8E1B3E00E94562DE8EEFDE50E94E32C73
:1023C0000E94E52EE8E1F3E00E94BE2D0E944E2E11
:1023D000EDE0F0E0A8E1B3E00E94562DE8E1F3E083
:1023E0000E94D32DACE0B3E0EDE0FF270E94562D14
:1023F000ACE0B3E00D911D912D913C9140E45EE085
:102400006FEC79E10E94EE2CACE0B3E00D931D93EC
:102410002D933D93ACE0B3E00D911D912D913C9136
:10242000A4E7B4E00D931D932D933C930895ACE085
:10243000B3E00D911D912D913C9140E45EE06FEC75
:1024400079E10E94E92CACE0B3E00D931D932D934C
:102450003D93ECE0F3E00E94BE2D0E94212EACE102
:10246000B3E00E94C82DA8E1B3E0ECEEFDE50E94C8
:10247000E32C0E94C82CE8E1F3E00E94C32DECE1BC
:10248000F3E00E94BE2D0E944E2EEDE0F0E0ACE1A4
:10249000B3E00E94562DECE1F3E00E94D32DACE0B6
:1024A000B3E0EDE0FF270E94562D86E880930F04ED
:1024B00080910E038093100480910D03809311048A
:1024C00080910C038093120484E0D2018C9381E00C
:1024D0000E947F2C0E940B08229681E00E947B2C98
:1024E00008950E940D1181E090E00E94642C0E94EA
:1024F000421181E880930F0485E88093100482E004
:10250000D2018C9381E00E947F2C0E940B082296BE
:1025100081E00E947B2C08950E940D1181E8809338
:102520000F0483E0D2018C9381E00E947F2C0E94F3
:10253000FC07229681E00E947B2C80910F048093FF
:10254000000300910003013811F40C94AB1280E0F9
:1025500080930704089589E880930F048FEC80939B
:10256000100482E0D2018C9381E00E947F2C0E94B3
:102570000B08229681E00E947B2C80EA80930F0456
:1025800083E0809310048FEF8093110483E0D201E5
:102590008C9381E00E947F2C0E940B08229681E0A0
:1025A0000E947B2C86EA80930F0484E080931004C1
:1025B00082E0D2018C9381E00E947F2C0E940B0864
:1025C000229681E00E947B2C8EE980930F0484E7A1
:1025D0008093100482E0D2018C9381E00E947F2CD2
:1025E0000E940B08229681E00E947B2CA4E7B4E0B5
:1025F0000D911D912D913C9148EE53E060E070E00B
:102600000E94912CACE0B3E00D931D932D933D936C
:102610000E9417120E947112089584E680930003AD
:102620000E940D1181E090E00E94642C8DE880935F
:102630000F0480E88093100482E0D2018C9381E043
:102640000E947F2C0E940B08229681E00E947B2C26
:1026500080E880930F040E94820780917C04D2015D
:102660008C9381E00E947F2C0E940B08229681E0CF
:102670000E947B2C82EA80930F0400917C0441E04D
:10268000041BA0E1B4E00C9382E0D2018C9381E0C2
:102690000E947F2C0E940B08229681E00E947B2CD6
:1026A00081E090E00E94642C81E880930F0483E82D
:1026B0008093100482E0D2018C9381E00E947F2CF1
:1026C0000E940B08229681E00E947B2C9FB7F89411
:1026D00080916000886180936000877E80936000B5
:1026E0009FBF80E0809301030E94321100910F048C
:1026F00048E00423A0E0B3E00C930091000308300D
:1027000011F00C9486138AEF80930103A1E0B3E0EB
:102710008C918F5F8C9384E690E00E94642C0091F2
:1027200001030A3F08F4E0CF809160008860809345
:1027300060000E9442118DE880930F0480E880932E
:10274000100482E0D2018C9381E00E947F2C0E94D1
:102750000B08229681E00E947B2C0E9471120E943D
:10276000FA0308950E94321180910F0480930003B0
:1027700000910003003018F011F00C94C1130C9478
:10278000C4140091000340E20423A1E0B3E00C93E1
:102790000091000340E40423A2E0B3E00C93009115
:1027A0000103003211F00C94D9130E9471120C94A1
:1027B000C41400910203003411F00C94C4148DE889
:1027C00080930F0480E08093100482E0D2018C9308
:1027D00081E00E947F2C0E940B08229681E00E94DB
:1027E0007B2C83E180930F0481E0D2018C9381E004
:1027F0000E947F2C0E94FC07229681E00E947B2C85
:1028000080910F048093000380E080930F048091F7
:102810000003D2018C9381E00E947F2C0E94FC0770
:10282000229681E00E947B2CA8E0B4E00E94AA2DB1
:10283000A2E0B3E08C9381E08093010381E0809378
:1028400003034091020300910303041718F011F0F1
:102850000C944B14A3E0B3E0AD90BB24AEE0B4E025
:10286000AA0DBB1D4C91A3E0B3E0AD90BB24A7E043
:10287000B4E0AA0DBB1D0C91041711F40C94431481
:1028800080E080930103A3E0B3E08C918F5F8C9391
:1028900010F40C94211400910103013011F00C94F8
:1028A000BF14A2E0B3E08C918F5F8C9381E08093A2
:1028B000050300910503003011F00C9486148091FB
:1028C0000203809301034091000300910103041768
:1028D00018F011F00C948414A1E0B3E0AD90BB2487
:1028E000AEE0B4E0AA0DBB1D8C918093030331E0F0
:1028F000A3E0B3E00E940D2CA1E0B3E08C918F5FC8
:102900008C9310F40C9463140C94BF1481E08093A6
:10291000030380E090E0ADE4B3E08D939C9380915D
:102920000203809301034091000300910103041707
:1029300018F011F00C94BF14A1E0B3E0AD90BB24EB
:10294000AEE0B4E0AA0DBB1D8C91A3E0B3E0AD9066
:10295000BB24A5EAB3E0AA0DBB1D8C93ADE4B3E0A4
:102960000E94CE2BA3E0B3E08C918F5F8C93A1E00B
:10297000B3E08C918F5F8C9310F40C9493140E94AD
:10298000711284E080930004089547982C9881E0A8
:1029900080930F0481E0D2018C9381E00E947F2C10
:1029A0000E94FC07229681E00E947B2C80910F04FC
:1029B00080930003009100030F3311F40C94E4148E
:1029C00080E08093070408950E949B150E94DE1505
:1029D00081E280930F0481E08093100482E0D201B1
:1029E0008C9381E00E947F2C0E940B08229681E04C
:1029F0000E947B2C82E280930F0481E0809310047C
:102A000082E0D2018C9381E00E947F2C0E940B080F
:102A1000229681E00E947B2C85E280930F048091B6
:102A200078048093100482E0D2018C9381E00E94AC
:102A30007F2C0E940B08229681E00E947B2C81E370
:102A400080930F0480E28093100482E0D2018C9383
:102A500081E00E947F2C0E940B08229681E00E9458
:102A60007B2C86E280930F048BE08093100482E03D
:102A7000D2018C9381E00E947F2C0E940B08229649
:102A800081E00E947B2C8CE380930F0481E0809393
:102A9000100482E0D2018C9381E00E947F2C0E947E
:102AA0000B08229681E00E947B2C8DE380930F041B
:102AB00084E08093100482E0D2018C9381E00E9434
:102AC0007F2C0E940B08229681E00E947B2C80E2E2
:102AD00080930F048FE08093100482E0D2018C93E6
:102AE00081E00E947F2C0E940B08229681E00E94C8
:102AF0007B2C479A089582EE80930F0481E0D201E7
:102B00008C9381E00E947F2C0E940B08229681E02A
:102B10000E947B2C089581EE80930F0481E0D20106
:102B20008C9381E00E947F2C0E940B08229681E00A
:102B30000E947B2C089587E280930F0480E78093A6
:102B4000100482E0D2018C9381E00E947F2C0E94CD
:102B50000B08229681E00E947B2C0895479885E21D
:102B600080930F04809178048093100482E0D20156
:102B70008C9381E00E947F2C0E940B08229681E0BA
:102B80000E947B2C0895479885E080930F0481E094
:102B9000D2018C9381E00E947F2C0E94FC07229638
:102BA00081E00E947B2CAFE0B4E08C91A8E7B4E018
:102BB0008D9388278D938D938C930895479886E005
:102BC00070E0AFE0B4E00E945D2DA8E0B4E00E94A8
:102BD000AA2DA2E0B3E08C9382E08093010381E010
:102BE000809300034091020300910003041718F042
:102BF00011F00C941516A0E0B3E0AD90BB24A7E053
:102C0000B4E0AA0DBB1D8C91A0E0B3E0AD90BB2455
:102C1000AFE0B4E0AA0DBB1D8C93A0E0B3E08C91B3
:102C20008F5F8C9310F40C94F2158AE280930F045A
:102C300086E0D2018C9381E00E947F2C0E940B08D9
:102C4000229681E00E947B2C80E380930F0486E033
:102C5000D2018C9381E00E947F2C0E940B08229667
:102C600081E00E947B2C089547980E948B150E945A
:102C70009B1580E280930F048EE08093100482E025
:102C8000D2018C9381E00E947F2C0E940B08229637
:102C900081E00E947B2C81E08093010381E080939E
:102CA000050380E08093040300917C04003218F057
:102CB00011F00C945D160C94621680E2809303036D
:102CC0000C94691680917C048093030381E08093C7
:102CD000040380EA80930F0482E08093020381E082
:102CE0000E947F2C0091010340910303040FA881EF
:102CF000B9810C938091010380930003A881B9816D
:102D00004C9100910003041718F011F00C94C116B7
:102D100000910503003011F00C94A216A0E0B3E07E
:102D2000AD90BB24A5EAB3E0AA0DBB1D8C91A2E037
:102D3000B3E0AD90BB24AEE0B4E0AA0DBB1D8C9314
:102D40000C94B416A0E0B3E0AD90BB24A0E5B3E0D2
:102D5000AA0DBB1D8C91A2E0B3E0AD90BB24AEE008
:102D6000B4E0AA0DBB1D8C93A2E0B3E08C918F5F01
:102D70008C93A0E0B3E08C918F5F8C9310F40C9453
:102D80007E1681E0481A80E0580A229600910303DB
:102D900041E0040FD2010C9381E00E947F2C0E943D
:102DA0000B08229681E00E947B2C82E090E00E943A
:102DB000642C479A81E090E00E94642C479880E060
:102DC0008093020387E080930F0481E0D2018C930B
:102DD00081E00E947F2C0E94FC07229681E00E94E5
:102DE0007B2C00910F0440E70423A0E0B3E00C9398
:102DF00000910003003211F40C94071781E090E079
:102E00000E94642CA2E0B3E08C918F5F8C930091C0
:102E10000203023380E010F009F081E08F9300910B
:102E20000003003281E009F080E09F91892B882324
:102E300011F40C94E21600910203023318F011F021
:102E40000C9424170C94271781E0809304030091BD
:102E5000010340910303040FA1E0B3E00C93009140
:102E60007C0440910303041BACE7B4E00C93009195
:102E70000403003011F00C94411784E190E00E94AB
:102E8000642C00910403013011F00C9454160E943C
:102E90009B1580E280930F048FE08093100482E002
:102EA000D2018C9381E00E947F2C0E940B08229615
:102EB00081E00E947B2C479A089587E180930F045C
:102EC00081E0D2018C9381E00E947F2C0E94FC075C
:102ED000229681E00E947B2CAFE0B4E00C9100FBD5
:102EE00016F40C94E41747982C9880E680930F040E
:102EF00081E0D2018C9381E00E947F2C0E94FC072C
:102F0000229681E00E947B2C80910F048093000325
:102F100081E680930F0481E080930503009105030F
:102F2000003011F00C94C71780910003D2018C93EC
:102F300081E00E947F2C0E94FC07229681E00E9483
:102F40007B2C81E0809301034091000300910103F9
:102F5000041718F011F00C94C517A1E0B3E0AD9080
:102F6000BB24AEE0B4E0AA0DBB1D8C91809303039B
:102F700031E0A3E0B3E00E940D2CA1E0B3E08C911E
:102F80008F5F8C9310F40C94A4170C94DC172C987E
:102F900091E0AFE0B4E00E94432C90910003A6EAD8
:102FA000B3E00E94382C2C9AA0E0B3E08C91ADE401
:102FB000B3E08D9388278C930E949B150E947B150C
:102FC00084E080930004479A08950E94C9040E94F7
:102FD00053040E94FA0308950E94B50D08950E94BB
:102FE000B50D08950E94B50D08950E94B50D089580
:102FF0000E94B50D08950E94B50D08950E94B50D6B
:1030000008950E94B50D08950E94B50D08950E947F
:10301000B50D0895ADE4B3E08D919C91AFE4B3E0BC
:103020008D939C938BE080935103ADE6B0E41196B1
:103030008C91A2E5B3E08C93ADE6B0E48C91A3E56E
:10304000B3E08C9384E090E0ABEFB3E08D939C937E
:103050000E9453040895ADE4B3E00D911C91023039
:1030600050E0150710F40C945D18ADE4B3E08D91B9
:103070009C91AFE4B3E08D939C930091A803023040
:1030800010F00C9451180091A703013011F00C942A
:103090004D180E94C5100C944F180E94F0100C940B
:1030A0005D1884E0809301048091FF038093020403
:1030B00081E0809303040E94FA030895ADE4B3E035
:1030C0000D911C91023050E0150710F40C94091971
:1030D000ADE4B3E08D919C91AFE4B3E08D939C930C
:1030E0000091A703073010F00C94FD188091A703FE
:1030F0008093304000913040003011F00C948C18D7
:1031000001E010E020E030E0A1E3B0E40D931D9376
:103110002D933C930C94EA18013011F00C949C18F8
:1031200003E010E020E030E0A1E3B0E40D931D9354
:103130002D933C930C94EA18023011F00C94AC18C7
:1031400009E010E020E030E0A1E3B0E40D931D932E
:103150002D933C930C94EA18033011F00C94BC1896
:1031600002E110E020E030E0A1E3B0E40D931D9314
:103170002D933C930C94EA18043011F00C94CC1865
:1031800004EB10E020E030E0A1E3B0E40D931D93E8
:103190002D933C930C94EA18053011F00C94DC1834
:1031A0000CE112E020E030E0A1E3B0E40D931D93C8
:1031B0002D933C930C94EA18063011F00C94EA1805
:1031C00008E314E020E030E0A1E3B0E40D931D93A8
:1031D0002D933C93E2E3F0E0A0E3B0E47BE70E94B0
:1031E0006A2DE3E3F0E0A1E3B0E494E07BE70E9422
:1031F0006D2D0E94F2080C94071984E0809301045D
:103200008091FF038093020481E0809303040E9475
:10321000FA030895ADE4B3E08D919C91AFE4B3E07F
:103220008D939C938EE080935103809130408093E6
:10323000520383E090E0ABEFB3E08D939C930E9448
:1032400053040895ADE4B3E00D911C91043050E0B7
:10325000150710F40C947019ADE4B3E08D919C91B6
:10326000AFE4B3E08D939C9380E080930F03809153
:10327000A70380930E038091A80380930D03809190
:10328000A90380930C0341E65EEA6AE070E0ACE0DB
:10329000B3E00D911D912D913C9104171507260760
:1032A000370710F00C946419ACE0B3E00D911D9158
:1032B0002D913C91A1E7B0E40D931D932D933C9388
:1032C0000E942A100C946E1984E08093010480916E
:1032D000FF038093020481E0809303040E94FA03B9
:1032E0000895ADE4B3E08D919C91AFE4B3E08D938C
:1032F0009C9380E1809351038091734080935203AB
:103300008091724080935303809171408093540365
:1033100085E090E0ABEFB3E08D939C930E94530463
:103320000895ADE4B3E08D919C91AFE4B3E08D934B
:103330009C938EE78093010180E08093020186E5F3
:103340008093030180E08093040189EA8093050162
:103350008EE78093060186E0809339400E94900DAD
:103360000E94FA030895ADE4B3E08D919C91AFE41F
:10337000B3E08D939C938EE78093010180E080936E
:10338000020180ED8093030181E08093040180E0DD
:10339000809305018EE2809306018EE780930701FA
:1033A00087E0809339400E94900D0E94FA030895AF
:1033B000ADE4B3E08D919C91AFE4B3E08D939C9329
:1033C0008EE78093010180E08093020180ED80937D
:1033D000030181E08093040183E0809305018BE287
:1033E000809306018EE78093070187E08093394040
:1033F0000E94900D0E94FA030895ADE4B3E08D9110
:103400009C91AFE4B3E08D939C938EE78093010190
:1034100080E08093020181ED8093030180E080933E
:1034200004018EE2809305018EE78093060186E019
:10343000809339400E94900D0E94FA030895ADE4F4
:10344000B3E08D919C91AFE4B3E08D939C938EE7B4
:103450008093010180E08093020183ED809303015A
:1034600080E0809304018CE2809305018EE78093D5
:10347000060186E0809339400E94900D0E94F20878
:103480000E94FA030895ADE4B3E08D919C91AFE4FE
:10349000B3E08D939C938EE78093010180E080934D
:1034A000020182ED8093030181E08093040180E0BA
:1034B000809305018CE2809306018EE780930701DB
:1034C00087E0809339400E94900D0E94FA0308958E
:1034D000ADE4B3E00D911C91033050E0150710F4FA
:1034E0000C94F61AADE4B3E08D919C91AFE4B3E097
:1034F0008D939C9300910004043011F40C94EA1A0B
:103500001B990C94DE1AA7EAB3E00D91112740E055
:1035100051E00E94872CA6E0B3E00D931C93A6E037
:10352000B3E00D911C91A8EAB3E04D915527040F2B
:10353000151FA6E0B3E00D931C93A6E0B3E00D9138
:103540001C91043A56E0150710F00C94D01AA6E02E
:10355000B3E08D919C91A4E7B4E08D939D9388276F
:103560008D938C93EAE2F0E0A4E7B4E094E07BE78B
:103570000E946D2DA4E7B4E00D911D912D913C9119
:1035800048EE53E060E070E00E94912CACE0B3E0C4
:103590000D931D932D933D930E9417120C94DA1AEC
:1035A00086E0809301048091FF038093020481E010
:1035B000809303040E94FA030C94E81A86E0809337
:1035C00001048091FF038093020481E0809303044F
:1035D0000C94F41A86E0809301048091FF03809399
:1035E000020481E0809303040E94FA030895ADE48D
:1035F000B3E08D919C91AFE4B3E08D939C930091E7
:103600000704003011F00C94071B0E94651188E13B
:1036100080935103E4E7F4E0AAE7B0E40E94072DA9
:103620000E94FE2B0E94122CA4E7B4E08D919C9185
:10363000A6E0B3E08D939C9380910703809352039F
:10364000809106038093530384E090E0ABEFB3E0F6
:103650008D939C930E9453040895ADE4B3E00D91C3
:103660001C91023050E0150710F40C94881BADE457
:10367000B3E08D919C91AFE4B3E08D939C93009166
:103680000004043011F40C947C1B1B990C94701BE7
:103690000091A703013810F00C94641BA0E0B3E084
:1036A0008C91A8E7B4E08D9388278D938D938C93AC
:1036B000EEE2F0E0A8E7B4E094E07BE70E946D2D35
:1036C0000E94AE150C946E1B86E0809301048091DD
:1036D000FF038093020481E0809303040C947A1B1F
:1036E00086E0809301048091FF038093020481E0CF
:1036F000809303040C94861B86E0809301048091E0
:10370000FF038093020481E0809303040E94FA0384
:103710000895ADE4B3E08D919C91AFE4B3E08D9357
:103720009C9300910704043011F00C94991B0E94A3
:10373000C3158AE1809351038091780480935203EA
:1037400083E090E0ABEFB3E08D939C930E94530431
:103750000895ADE4B3E08D919C91AFE4B3E08D9317
:103760009C938BE1809351031B990C94BC1B81E0CB
:10377000809352030C94BF1B80E08093520383E03C
:1037800090E0ABEFB3E08D939C930E9453040895B7
:10379000ADE4B3E08D919C91AFE4B3E08D939C9345
:1037A0000E94FA030895ADE4B3E00D911C9103303B
:1037B00050E0150710F40C94D81CADE4B3E08D91E3
:1037C0009C91AFE4B3E08D939C93A7EAB3E08C9116
:1037D000A9E4B3E08D9388278C93A8EAB3E08C9199
:1037E000ABE4B3E08D9388278C9384E090E0ABEF5B
:1037F000B3E08D939C93A9E4B3E00D911C910D323D
:1038000050E0150781E008F080E08F93ABE4B3E06F
:103810000D911C910D3250E0150781E008F080E019
:103820009F918923882311F40C94CC1CABE4B3E062
:103830000D911C91003050E0150718F011F00C9418
:10384000231C0C94CA1C84E090E0ABEFB3E08D9392
:103850009C9380E090E0A6E0B3E08D939C93A9E474
:10386000B3E08D919C91AAE0B3E08D939C93ECE63C
:10387000FBE40E94E32CAAE0B3E08D919C910E94AE
:10388000D02CA1E0B1E00E94B42CA1E0B1E00E94F4
:10389000AA2DA2E0B3E08C93ABEFB3E00D911C91A5
:1038A000A2E0B3E04D915527040F151FA8E0B3E047
:1038B0000D931C93A3E0B3E08C918F5F8C93A8E0F1
:1038C000B3E00D911C91043550E0150718F011F08C
:1038D0000C94AB1C80910203ABEFB3E0AD90BD90B4
:1038E000A0E5B3E0AA0DBB1D8C93ABEFB3E00E9443
:1038F000CE2B81E0809300034091020300910003EE
:10390000041718F011F00C94A31CA0E0B3E0AD90E4
:10391000BB24A0E0B1E0AA0DBB1D8C91ABEFB3E0DE
:10392000AD90BD90A0E5B3E0AA0DBB1D8C93ABEFAD
:10393000B3E00E94CE2BA0E0B3E08C918F5F8C931C
:1039400010F40C947C1CA6E0B3E00E94CE2BAAE0FD
:10395000B3E00E94CE2BABE4B3E00E94D52BABE4E6
:10396000B3E00D911C91003050E0150711F00C945C
:10397000371C80EF809351038091A70380935203FB
:10398000809106038093000380910003809353038A
:103990000E9453040C94D81C84E08093010480910D
:1039A000FF038093020481E0809303040E94FA03E2
:1039B0000895ADE4B3E00D911C91033050E015077C
:1039C00010F40C94341F83E090E0ABEFB3E08D93E0
:1039D0009C93ADE4B3E08D919C91AFE4B3E08D9303
:1039E0009C931B9B0C94011D86E0809301048091A5
:1039F000FF038093020481E0809303040E94FA0392
:103A000008950091A703003011F00C94541D00910B
:103A10000004023011F40C94461D1B990C943A1DBD
:103A2000ABEFB3E0AD90BD90A5EAB3E0AA0DBB1D2E
:103A30008C918093010300910103043010F00C94E9
:103A40002E1D8091010380933F03EBE1F0E0AFE393
:103A5000B3E07BE70E946A2D0C94381D84E08093CC
:103A600001048091FF038093020481E080930304AA
:103A70000C94441D86E0809301048091FF038093A1
:103A8000020481E0809303040C94501D86E080932F
:103A900001048091FF038093020481E0809303047A
:103AA0000E94FA030C94341F013011F00C94F41DA1
:103AB000ABEFB3E0AD90BD90A5EAB3E0AA0DBB1D9E
:103AC0000C91003011F00C94691D0E94FA030C94C3
:103AD000F21DABEFB3E0AD90BD90A5EAB3E0AA0D47
:103AE000BB1D8C9180930003009100034091FB0368
:103AF000040FA5E0B3E00C93ABEFB3E00E94CE2B34
:103B0000A5E0B3E04D915527ADE4B3E00D911C91D4
:103B10000417150710F40C94F21DADE4B3E08D9179
:103B20009C91AFE4B3E08D939C930091000305302A
:103B300010F00C94E61D00910004023011F40C9476
:103B4000DA1D83E070E0A0E4B3E00E945D2D81E027
:103B5000809301034091000300910103041718F0C2
:103B600011F00C94D11DABEFB3E0AD90BD90A5EA80
:103B7000B3E0AA0DBB1D8C91A1E0B3E0AD90BB24D6
:103B8000AFE3B3E0AA0DBB1D8C93ABEFB3E00E9493
:103B9000CE2BA1E0B3E08C918F5F8C9310F40C944A
:103BA000AA1DE4E2F0E0A8E0B4E07BE70E947B2DF0
:103BB0000C94E41D86E0809301048091FF038093C0
:103BC000020481E0809303040C94F01D84E0809350
:103BD00001048091FF038093020481E08093030439
:103BE0000E94FA030C94341F023011F00C94361E1C
:103BF00000910004043011F40C94281EABEFB3E0E4
:103C0000AD90BD90A5EAB3E0AA0DBB1D8C91809349
:103C1000010300910103073010F00C941C1E8091E9
:103C2000010380930704E2E2F0E0A7E0B4E07BE761
:103C30000E946A2D0C94261E84E0809301048091DA
:103C4000FF038093020481E0809303040C94321EEE
:103C500086E0809301048091FF038093020481E059
:103C6000809303040E94FA030C94341F033011F074
:103C70000C94DE1EABEFB3E0AD90BD90A5EAB3E0CF
:103C8000AA0DBB1D0C91003011F00C944B1E0E942C
:103C9000FA030C94DC1EABEFB3E0AD90BD90A5EA47
:103CA000B3E0AA0DBB1D8C9180930003009100032B
:103CB0004091FB03040FA5E0B3E00C93ABEFB3E03E
:103CC0000E94CE2BA5E0B3E04D915527ADE4B3E0C3
:103CD0000D911C910417150710F40C94DC1EADE433
:103CE000B3E08D919C91AFE4B3E08D939C930091F0
:103CF0000003053010F00C94D01E00910004043035
:103D000011F40C94C41E85E070E0A8E0B4E00E94B9
:103D10005D2D81E080930103409100030091010338
:103D2000041718F011F00C94B31EABEFB3E0AD9094
:103D3000BD90A5EAB3E0AA0DBB1D8C91A1E0B3E054
:103D4000AD90BB24A7E0B4E0AA0DBB1D8C93ABEFF4
:103D5000B3E00E94CE2BA1E0B3E08C918F5F8C93F7
:103D600010F40C948C1EE4E2F0E0A8E0B4E07BE7F1
:103D70000E947B2D00910704043011F00C94C21EA8
:103D80000E94DE150C94CE1E86E080930104809183
:103D9000FF038093020481E0809303040C94DA1EF5
:103DA00084E0809301048091FF038093020481E00A
:103DB000809303040E94FA030C94341F043011F022
:103DC0000C94281F00910004033011F40C941A1F66
:103DD000ABEFB3E0AD90BD90A5EAB3E0AA0DBB1D7B
:103DE0008C918093010300910103003810F00C9432
:103DF0000E1FA1E0B3E00C9142E0049F0C92809171
:103E0000010380933703E8E1F0E0A7E3B3E07BE749
:103E10000E946A2D0E9492050C94181F84E08093E2
:103E200001048091FF038093020481E080930304E6
:103E30000C94241F86E0809301048091FF038093FB
:103E4000020481E0809303040E94FA030C94341F5F
:103E500084E0809301048091FF038093020481E059
:103E6000809303040E94FA030895ADE4B3E00D913A
:103E70001C91023050E0150710F40C944A20ADE478
:103E8000B3E08D919C91AFE4B3E08D939C9387EF69
:103E9000809351038091A7038093520383E090E0C5
:103EA000ABEFB3E08D939C930091A703003011F02A
:103EB0000C946B1F80913F03ABEFB3E0AD90BD90CE
:103EC000A0E5B3E0AA0DBB1D8C93ABEFB3E00E945D
:103ED000CE2B0C943B20013011F00C94B11FA0E4C8
:103EE000B3E00E94AA2DA2E0B3E08C93809102037C
:103EF000ABEFB3E0AD90BD90A0E5B3E0AA0DBB1D64
:103F00008C93ABEFB3E00E94CE2B81E08093000353
:103F10004091020300910003041718F011F00C9473
:103F2000AF1FA0E0B3E0AD90BB24AFE3B3E0AA0DB8
:103F3000BB1D8C91ABEFB3E0AD90BD90A0E5B3E0BD
:103F4000AA0DBB1D8C93ABEFB3E00E94CE2BA0E07B
:103F5000B3E08C918F5F8C9310F40C94881F0C94B9
:103F60003B20023011F00C94C61F80910704ABEF88
:103F7000B3E0AD90BD90A0E5B3E0AA0DBB1D8C935E
:103F8000ABEFB3E00E94CE2B0C943B20033011F03A
:103F90000C940C20A8E0B4E00E94AA2DA2E0B3E0AB
:103FA0008C9380910203ABEFB3E0AD90BD90A0E5A0
:103FB000B3E0AA0DBB1D8C93ABEFB3E00E94CE2BF8
:103FC00081E08093000340910203009100030417F5
:103FD00018F011F00C940A20A0E0B3E0AD90BB24DF
:103FE000A7E0B4E0AA0DBB1D8C91ABEFB3E0AD90A0
:103FF000BD90A0E5B3E0AA0DBB1D8C93ABEFB3E081
:104000000E94CE2BA0E0B3E08C918F5F8C9310F4D4
:104010000C94E31F0C943B20043011F00C942920E5
:104020000091370342E00E949A2DA1E0B3E00C9387
:1040300080910103ABEFB3E0AD90BD90A0E5B3E09C
:10404000AA0DBB1D8C93ABEFB3E00E94CE2B0C945A
:104050003B2084E0809301048091FF03809302045D
:1040600081E08093030480E090E0ABEFB3E08D93B8
:104070009C930E94FA03ABEFB3E00D911C910030CA
:1040800050E0150718F011F00C9448200C944A20C9
:104090000E9453040895ADE4B3E08D919C91AFE488
:1040A000B3E08D939C938EE170E0A1E5B3E00E94B4
:1040B0005D2D8CEF8093510383E080930003EFEF3D
:1040C000F3E0A1E0B1E00E94112DA1E0B1E00E9477
:1040D000AA2DA3E0B3E08C9381E08093010340918B
:1040E000030300910103041718F011F00C949720BA
:1040F000A1E0B3E0AD90BB24A0E0B1E0AA0DBB1DF0
:104100008C91A0E0B3E0AD90BB24A0E5B3E0AA0D94
:10411000BB1D8C93A0E0B3E08C918F5F8C93A1E0EA
:10412000B3E08C918F5F8C9310F40C946F2000910E
:104130000104003011F00C94A720A1E0B1E0EAE006
:10414000FEE50E94E32C0E94B42C0C9481210130E6
:1041500011F00C94B520A1E0B1E0E0E2FEE50E9490
:10416000E32C0E94B42C0C948121023011F00C94A9
:10417000C320A1E0B1E0EEE2FEE50E94E32C0E9444
:10418000B42C0C948121033011F00C94D120A1E0C7
:10419000B1E0E2E4FEE50E94E32C0E94B42C0C9412
:1041A0008121043011F00C94DF20A1E0B1E0E8E5BA
:1041B000FEE50E94E32C0E94B42C0C948121053072
:1041C00011F00C94ED20A1E0B1E0ECE6FEE50E94D8
:1041D000E32C0E94B42C0C948121063011F00C9435
:1041E000FB20A1E0B1E0E2E8FEE50E94E32C0E94A2
:1041F000B42C0C948121073011F00C940921A1E01A
:10420000B1E0EEE9FEE50E94E32C0E94B42C0C9490
:104210008121083011F00C941721A1E0B1E0E6EB08
:10422000FEE50E94E32C0E94B42C0C9481210930FD
:1042300011F00C942521A1E0B1E0E4EDFEE50E942F
:10424000E32C0E94B42C0C9481210A3011F00C94C0
:104250003321A1E0B1E0EEEFFEE50E94E32C0E94E5
:10426000B42C0C9481210B3011F00C944121A1E06D
:10427000B1E0E2E1FFE50E94E32C0E94B42C0C9433
:1042800081210C3011F00C944F21A1E0B1E0E6E463
:10429000FFE50E94E32C0E94B42C0C9481210D3088
:1042A00011F00C945D21A1E0B1E0E2E7FFE50E948E
:1042B000E32C0E94B42C0C9481210E3011F00C944C
:1042C0006B21A1E0B1E0ECE9FFE50E94E32C0E9444
:1042D000B42C0C9481210F3F11F00C947921A1E0B2
:1042E000B1E0E2EBFFE50E94E32C0E94B42C0C94B9
:1042F0008121A1E0B1E0E0ECFFE50E94E32C0E9407
:10430000B42CA1E0B1E00E94AA2DA3E0B3E08C930D
:1043100081E080930103409103030091010304179E
:1043200018F011F00C94B321A1E0B3E0AD90BB24E0
:10433000A0E0B1E0AA0DBB1D8C91A0E0B3E0AD9070
:10434000BB24A0E5B3E0AA0DBB1D8C93A0E0B3E0B5
:104350008C918F5F8C93A1E0B3E08C918F5F8C93F5
:1043600010F40C948B21E2E0F4E0A1E0B1E00E94B3
:10437000112DA1E0B1E00E94AA2DA3E0B3E08C933F
:1043800081E080930103409103030091010304172E
:1043900018F011F00C94EB21A1E0B3E0AD90BB2438
:1043A000A0E0B1E0AA0DBB1D8C91A0E0B3E0AD9000
:1043B000BB24A0E5B3E0AA0DBB1D8C93A0E0B3E045
:1043C0008C918F5F8C93A1E0B3E08C918F5F8C9385
:1043D00010F40C94C3210091000343E0041BA2E5F8
:1043E000B3E00C93A0E0B3E08C91ABEFB3E08D931E
:1043F00088278C930E9453040895ADE4B3E08D9117
:104400009C91AFE4B3E08D939C938DEF8093510327
:1044100084E08093520383E090E0ABEFB3E08D93B0
:104420009C930E9453040895ADE4B3E00D911C9158
:10443000033050E0150710F40C94292483E090E039
:10444000ABEFB3E08D939C93ADE4B3E08D919C9181
:10445000AFE4B3E08D939C930091A703003011F07B
:104460000C94BF22ABEFB3E0AD90BD90A5EAB3E0F2
:10447000AA0DBB1D0C91003011F00C9443220E9438
:10448000FA030C94BD22ABEFB3E0AD90BD90A5EA6A
:10449000B3E0AA0DBB1D8C91809300030091000333
:1044A0004091FB03040FA5E0B3E00C93ABEFB3E046
:1044B0000E94CE2BA5E0B3E04D915527ADE4B3E0CB
:1044C0000D911C910417150710F40C94BD22009156
:1044D0000003043118F011F00C94B122ADE4B3E004
:1044E0008D919C91AFE4B3E08D939C9384E170E057
:1044F000A1E2B3E00E945D2D81E080930103409131
:10450000000300910103041718F011F00C94A62287
:10451000ABEFB3E0AD90BD90A5EAB3E0AA0DBB1D33
:104520008C91A1E0B3E0AD90BB24A0E2B3E0AA0D72
:10453000BB1D8C93ABEFB3E00E94CE2BA1E0B3E0A8
:104540008C918F5F8C9310F40C947F22E2E0F0E06A
:10455000A1E2B3E07BE70E947B2D0E94FA030C945A
:10456000BB2284E0809301048091FF0380930204C6
:1045700081E0809303040E94FA030C942924013003
:1045800011F00C94D922ABEFB3E0AD90BD90A5EA49
:10459000B3E0AA0DBB1D8C9180933603E7E1F0E0F8
:1045A000A6E3B3E07BE70E946A2D0E94FA030C9415
:1045B0002924023011F00C942A23009100040230C7
:1045C00011F40C941C231B990C941023ABEFB3E053
:1045D000AD90BD90A5EAB3E0AA0DBB1D8C91809370
:1045E000010300910103023010F00C940423809128
:1045F000010380933C03EAE1F0E0ACE3B3E07BE746
:104600000E946A2D0C940E2384E080930104809113
:10461000FF038093020481E0809303040C941A2327
:1046200086E0809301048091FF038093020481E07F
:10463000809303040C94262386E0809301048091E8
:10464000FF038093020481E0809303040E94FA0335
:104650000C942924033011F00C947B230091000466
:10466000023011F40C946D231B990C946123ABEF71
:10467000B3E0AD90BD90A5EAB3E0AA0DBB1D8C914F
:104680008093010300910103023010F00C94552334
:104690008091010380934403E0E2F0E0A4E4B3E0FE
:1046A0007BE70E946A2D0C945F2384E080930104D1
:1046B0008091FF038093020481E0809303040C94B3
:1046C0006B2386E0809301048091FF0380930204B2
:1046D00081E0809303040C94772386E080930104A7
:1046E0008091FF038093020481E0809303040E9481
:1046F000FA030C942924043011F00C94CC2300917B
:104700000004043011F40C94BE231B990C94B223C2
:10471000ABEFB3E0AD90BD90A5EAB3E0AA0DBB1D31
:104720008C918093010300910103023010F00C94EE
:10473000A6238091010380934503E1E2F0E0A5E424
:10474000B3E07BE70E946A2D0C94B02384E0809351
:1047500001048091FF038093020481E080930304AD
:104760000C94BC2386E0809301048091FF03809326
:10477000020481E0809303040C94C82386E08093B4
:1047800001048091FF038093020481E0809303047D
:104790000E94FA030C942924053011F00C941D2476
:1047A00000910004033011F40C940F241B990C9415
:1047B0000324ABEFB3E0AD90BD90A5EAB3E0AA0D42
:1047C000BB1D8C918093010300910103023010F016
:1047D0000C94F7238091010380933903E9E1F0E021
:1047E000A9E3B3E07BE70E946A2D0C94012484E0E6
:1047F000809301048091FF038093020481E0809301
:1048000003040C940D2486E0809301048091FF033F
:104810008093020481E0809303040C94192486E0C1
:10482000809301048091FF038093020481E08093D0
:1048300003040E94FA030C94292484E08093010469
:104840008091FF038093020481E0809303040E941F
:10485000FA030895ADE4B3E00D911C91023050E0ED
:10486000150710F40C941B25ADE4B3E08D919C91D9
:10487000AFE4B3E08D939C938FEF809351038091CD
:10488000A7038093520383E090E0ABEFB3E08D93F6
:104890009C930091A703003011F00C949124A1E2A5
:1048A000B3E00E94AA2DA2E0B3E08C9380910203B2
:1048B000ABEFB3E0AD90BD90A0E5B3E0AA0DBB1D9A
:1048C0008C93ABEFB3E00E94CE2B81E0809300038A
:1048D0004091020300910003041718F011F00C94AA
:1048E0008F24A0E0B3E0AD90BB24A0E2B3E0AA0D1A
:1048F000BB1D8C91ABEFB3E0AD90BD90A0E5B3E0F4
:10490000AA0DBB1D8C93ABEFB3E00E94CE2BA0E0B1
:10491000B3E08C918F5F8C9310F40C9468240C940A
:104920000C25013011F00C94A62480913603ABEFD6
:10493000B3E0AD90BD90A0E5B3E0AA0DBB1D8C9394
:10494000ABEFB3E00E94CE2B0C940C25023011F09B
:104950000C94BB2480913C03ABEFB3E0AD90BD90D1
:10496000A0E5B3E0AA0DBB1D8C93ABEFB3E00E94B2
:10497000CE2B0C940C25033011F00C94D024809194
:104980004403ABEFB3E0AD90BD90A0E5B3E0AA0D5A
:10499000BB1D8C93ABEFB3E00E94CE2B0C940C2587
:1049A000043011F00C94E52480914503ABEFB3E0A3
:1049B000AD90BD90A0E5B3E0AA0DBB1D8C93ABEF0D
:1049C000B3E00E94CE2B0C940C25053011F00C9412
:1049D000FA2480913903ABEFB3E0AD90BD90A0E530
:1049E000B3E0AA0DBB1D8C93ABEFB3E00E94CE2BBE
:1049F0000C940C2584E0809301048091FF03809344
:104A0000020481E08093030480E090E0ABEFB3E028
:104A10008D939C930E94FA03ABEFB3E00D911C9130
:104A2000003050E0150718F011F00C9419250C9483
:104A30001B250E94530408950091A6030F3E10F019
:104A40000C947F250091A6030C3110F00C94712575
:104A5000EFE6F5E2EF93FF93E7E3F5E2A6EAB3E0D2
:104A60008C919927880F991FE80FF91F09940C94CE
:104A7000E5170C94EC170C94EF170C94F2170C94A8
:104A8000F5170C94F8170C94FB170C94FE170C9464
:104A900001180C9404180C9407180C940A180C9420
:104AA0002B180C945E180C940A190C9422190C946F
:104AB00071190C9491190C94B3190C94D8190C9485
:104AC000FD190C941F1A0C94431A0C94681A0C9438
:104AD000F71A0C942D1B0C94891B0C94A91B0C9495
:104AE0007D2580E0809301048091FF038093020480
:104AF00081E0809303040E94FA030C94B525009191
:104B0000A60340EF041BA0E0B3E00C93E5EBF5E255
:104B1000EF93FF93E5E9F5E2A0E0B3E08C919927EC
:104B2000880F991FE80FF91F09940C94D31B0C945C
:104B3000C81B0C94C81B0C94C81B0C94C81B0C9469
:104B4000C81B0C94D91C0C94351F0C94C81B0C94D6
:104B5000C81B0C94C81B0C94C81B0C944B200C94C1
:104B6000FD210C9414220C942A240895303B6D3BB3
:104B7000444B3152493B647573742073656E736F97
:104B800072207769746820726164696F20696E743D
:104B90006572666163653B5630312E303B313B3286
:104BA00033303B313B34353B312D3100313B616E8D
:104BB0002C6D61737320636F6E63656E74726174C4
:104BC000696F6E20312E302075672F63626D3B77E1
:104BD0003B3736332C737461727420617420283033
:104BE0002D373633293B3132342C746F2073656E88
:104BF0006420302061637475616C2076616C75652A
:104C000000323B616E2C6D61737320636F6E636560
:104C10006E74726174696F6E20322E352075672F45
:104C200063626D3B773B3736332C7374617274204B
:104C300061742028302D373633293B3132342C74BF
:104C40006F2073656E6420302061637475616C2021
:104C500076616C756500333B616E2C6D61737320FA
:104C6000636F6E63656E74726174696F6E20342E4B
:104C7000302075672F63626D3B773B3736332C737B
:104C8000746172742061742028302D373633293BCB
:104C90003132342C746F2073656E64203020616370
:104CA0007475616C2076616C756500343B616E2CA7
:104CB0006D61737320636F6E63656E747261746986
:104CC0006F6E2031302075672F63626D3B773B3705
:104CD00036332C73746172742061742028302D3740
:104CE0003633293B3132342C746F2073656E642067
:104CF000302061637475616C2076616C7565003578
:104D00003B616E2C6E756D62657220636F6E6365BC
:104D10006E74726174696F6E20302E35202F63625D
:104D20006D3B773B3736332C73746172742061743A
:104D30002028302D373633293B3132342C746F2004
:104D400073656E6420302061637475616C207661D8
:104D50006C756500363B616E2C6E756D62657220F8
:104D6000636F6E63656E74726174696F6E20312E4D
:104D700030202F63626D3B773B3736332C73746181
:104D800072742061742028302D373633293B31323C
:104D9000342C746F2073656E6420302061637475E9
:104DA000616C2076616C756500373B616E2C6E75A9
:104DB0006D62657220636F6E63656E747261746993
:104DC0006F6E20322E35202F63626D3B773B373676
:104DD000332C73746172742061742028302D37363F
:104DE00033293B3132342C746F2073656E6420306C
:104DF0002061637475616C2076616C756500383B69
:104E0000616E2C6E756D62657220636F6E63656E88
:104E100074726174696F6E20342E30202F63626D5E
:104E20003B773B3736332C73746172742061742086
:104E300028302D373633293B3132342C746F2073B0
:104E4000656E6420302061637475616C2076616CDE
:104E5000756500393B616E2C6E756D6265722063FD
:104E60006F6E63656E74726174696F6E203130208D
:104E70002F63626D3B773B3736332C7374617274EA
:104E80002061742028302D373633293B3132342CC1
:104E9000746F2073656E6420302061637475616C7B
:104EA0002076616C75650031303B616E2C747970D1
:104EB0006963616C2073697A6520756D3B773B3758
:104EC00036332C73746172742061742028302D374E
:104ED0003633293B3132342C746F2073656E642075
:104EE000302061637475616C2076616C756500318A
:104EF000313B61612C6D656D6F7279706F696E7495
:104F000065723B770031323B6F732C73746F702F77
:104F10007374617274206D6561737572656D656E11
:104F2000743B313B302C6F66663B312C6F6E003129
:104F3000333B6F732C6D6561737572696E67207496
:104F4000696D653B313B302C33733B312C31307311
:104F50003B322C3330733B332C316D696E3B342C38
:104F600031306D696E3B352C33306D696E3B362CBC
:104F700036306D696E0031343B61732C61733133AF
:104F80000031353B6F702C636C65616E696E672014
:104F9000696E74657276616C3B313B37303030300E
:104FA000303B6C696E3B730031363B61702C617332
:104FB00031350031373B6F752C7374617274206327
:104FC0006C65616E696E673B313B302C69646C6562
:104FD0003B312C73746172740031383B61612C7009
:104FE000726F6475637420747970653B33313B3242
:104FF000322C434841505445522C41444D494E496E
:105000005354524154494F4E0031393B61612C7326
:10501000657269616C206E756D6265723B33313B00
:1050200032322C434841505445522C41444D494E54
:10503000495354524154494F4E0032303B61612C28
:1050400076657273696F6E3B33313B32322C434865
:1050500041505445522C41444D494E4953545241BC
:1050600054494F4E0032313B6F752C726573657435
:105070003B313B302C69646C653B312C7265736548
:10508000740032323B61612C7374617475732072E9
:10509000656769737465723B32303B32322C43482A
:1050A00041505445522C41444D494E49535452416C
:1050B00054494F4E0032333B6F702C6672657175E8
:1050C000656E6379203433334D487A204C6F7261BA
:1050D000203B313B313730302C2C7B315F34333344
:1050E000303030746F3433343730307D3B6C696E20
:1050F0003B6B487A0032343B61702C6132330032B2
:10510000353B6F702C6672657175656E63793B31E6
:105110003B3132382C2C7B315F32343030746F327B
:105120003532377D3B6C696E3B4D487A0032363BF9
:1051300061702C617332350032373B61732C636FC1
:105140006E66696775726174696F6E3B313B302CB6
:105150006F66663B312C6F6E00003234303B616EFF
:105160002C414E4E4F554E43454D454E54533B31C9
:1051700030303B34352C73746172743B34352C659C
:105180006C656D656E74733B32322C4348415054EC
:1051900045522C41444D494E495354524154494F74
:1051A0004E003234363B6F612C434F4D3B622C52E4
:1051B000533233325F424155442C302C7B31396BB2
:1051C00032302C34386B342C3131356B7D3B332C01
:1051D00052533233325F424954532C386E313B6262
:1051E0002C524144494F5F545950452C2C312C7B53
:1051F0006E6F2C4C6F72612C776C616E2C726679BD
:10520000613638392C6E726632352C626C75657475
:105210006F6F74687D3B342C524144494F5F4E415F
:105220004D452C2C72616469783B2C343B622C49CF
:1052300032434144524553532C32383B32322C4393
:105240004841505445522C41444D494E49535452C3
:105250004154494F4E003234373B61612C61733207
:105260003436003235323B61612C4C415354204579
:1052700052524F523B32302C6C6173745F657272C4
:105280006F72003235333B61612C4D594320494EDA
:10529000464F3B622C414354495645003235343B1E
:1052A0006F612C494E444956494455414C495A4135
:1052B00054494F4E3B32302C4E414D452C4465767F
:1052C00069636520313B622C4E554D4245522C316D
:1052D0003B612C52533233322C313B612C555342BB
:1052E0002C313B612C524144494F2C343B612C49B9
:1052F00032432C313B32322C434841505445522CDE
:1053000041444D494E495354524154494F4E003245
:1053100035353B61612C617332353400523B2124B9
:10532000312021243220212433202124342021241F
:105330003234362021243235342049462024353D6C
:1053400030004C3B6F726967696E616C3B656E67DC
:105350006C6973683B64657574736368004C3B6487
:105360007573742073656E736F723B64757374200C
:1053700073656E736F723B4665696E7374617562B7
:1053800073656E736F723B6D61737320636F6E63D1
:10539000656E74726174696F6E20312E303B6D6181
:1053A000737320636F6E63656E74726174696F6E80
:1053B00020312E303B4D61737365204B6F6E7A65E3
:1053C0006E74726174696F6E20312E303B6D617343
:1053D0007320636F6E63656E74726174696F6E20A3
:1053E000322E353B6D61737320636F6E63656E742F
:1053F000726174696F6E20322E353B4D6173736537
:10540000204B6F6E7A656E74726174696F6E2032B4
:105410002E353B004C3B6D61737320636F6E63658B
:105420006E74726174696F6E20342E303B6D6173DF
:105430007320636F6E63656E74726174696F6E2042
:10544000342E303B4D61737365204B6F6E7A656E01
:1054500074726174696F6E20342E303B6D617373AA
:1054600020636F6E63656E74726174696F6E203154
:10547000303B6D61737320636F6E63656E74726130
:1054800074696F6E2031303B4D61737365204B6FD3
:105490006E7A656E74726174696F6E2031303B0094
:1054A0004C3B6E756D62657220636F6E63656E74E2
:1054B000726174696F6E20302E353B6E756D62655A
:1054C0007220636F6E63656E74726174696F6E20B3
:1054D000302E353B5465696C6368656E7A61686C23
:1054E00020302E353B6E756D62657220636F6E6382
:1054F000656E74726174696F6E20312E303B6E750B
:105500006D62657220636F6E63656E74726174693B
:105510006F6E20312E303B5465696C6368656E7A1E
:1055200061686C20312E303B004C3B6E756D6265BE
:105530007220636F6E63656E74726174696F6E2042
:10554000322E353B6E756D62657220636F6E6365DA
:105550006E74726174696F6E20322E353B546569CA
:105560006C6368656E7A61686C20322E353B6E75AF
:105570006D62657220636F6E63656E7472617469CB
:105580006F6E20342E303B6E756D62657220636FD6
:105590006E63656E74726174696F6E20342E303B79
:1055A0005465696C6368656E7A61686C20342E306E
:1055B0003B004C3B6E756D62657220636F6E636578
:1055C0006E74726174696F6E2031303B6E756D62FE
:1055D000657220636F6E63656E74726174696F6E5D
:1055E0002031303B5465696C6368656E7A61686C24
:1055F0002031303B7479706963616C2073697A651E
:105600003B7479706963616C2073697A653B747966
:105610007069736368652047726F657373653B6D6E
:10562000656D6F7279706F696E7465723B6D656DD3
:105630006F7279706F696E7465723B5370656963E0
:105640006865727A65696765723B004C3B73746F7D
:10565000702F7374617274206D6561737572656DFE
:10566000656E743B73746F702F7374617274206D08
:105670006561737572656D656E743B4D65737375A9
:105680006E672073746F702F73746172743B6D65F5
:1056900061737572696E672074696D653B6D6561D4
:1056A000737572696E672074696D653B4D657373C0
:1056B0007A6569743B636C65616E696E6720696EBB
:1056C00074657276616C3B636C65616E696E6720B0
:1056D000696E74657276616C3B5265696E69677557
:1056E0006E6773696E74657276616C6C3B004C3BDF
:1056F000737461727420636C65616E696E673B736D
:105700007461727420636C65616E696E673B73745B
:105710006172746574205265696E6967756E673B66
:1057200070726F6475637420747970653B70726F0A
:105730006475637420747970653B5479703B73654C
:105740007269616C206E756D6265723B736572691A
:10575000616C206E756D6265723B53657269656E32
:105760006E756D6D65723B76657273696F6E3B76B3
:10577000657273696F6E3B2056657273696F6E3B1D
:1057800000000D911D912D913C910F5F1F4F2F4FE8
:105790003F4F3C932E931E930E930895ED91FC91F1
:1057A000EF5FFF4FFC93EE930895ED91FC91E15074
:1057B000F040FC93EE93089505D00E94872C00FCE6
:1057C0000CD008950024E89457FF02C009D06894D3
:1057D00000F80BD010F80124089502D009D00895E4
:1057E000509540954F5F5F4F0895E89417FF0895D7
:1057F000009510950F5F1F4F68940895AAE7B0E4D5
:105800008D91882311F011D0FBCF08950E94BA2CFE
:10581000802D11F00AD0FACF08958D9106D03A95D7
:10582000E1F708958DE001D08AE00090C00005FE08
:10583000FCCF8093C60008950090C80007FEFCCFFF
:105840008091CE0008958D9103D03A95E1F70895A7
:105850000090C80005FEFCCF8093CE00089588EE2E
:1058600093E032D03197D9F708953197F1F7089541
:105870000E94552C8C910E94572C8D939A95D1F7AC
:105880000E94562C08950E94552C8D910E94572CF1
:105890009A95D9F70E94562C0895279A26982E9A01
:1058A000259A249A83E58CBD0895089508958EBDA8
:1058B00000904D0007FEFCCF8EB50895689462F805
:1058C0000895E89462F80895EF93FF93EE27E82B8C
:1058D000E92B31F0E8E8F3E13197F1F70197D1F7DF
:1058E000FF91EF91089501911191219130810895D7
:1058F000481A590A0895481A8827580A0895992776
:105900005A924A92480E591E0895015010400F9223
:10591000B801469F8001479F100D569F100D0F90B4
:1059200008950F921F922F92C801D901489F8001BC
:105930004A9F90014B9F202C499F100D211D321D25
:105940005A9F202C589F100D211D321D599F200D4C
:10595000311D689F200D311D699F300D789F300DDE
:105960002F901F900F9008950E94BA2C0D92002046
:10597000D9F70895D895319628F48F938BB78395EE
:105980008BBF8F910020089591E005C092E003C085
:1059900094E001C098E0EEDF0D929A95E1F708954A
:1059A0000196019721F00E94BA2CE9F7FACF0895E9
:1059B0000F9200240BBE0F9008950F9301E00BBFD0
:1059C0000F91889408950F930027F9CF0F9302E069
:1059D000F6CF040F151F261F371F0895041B150B44
:1059E000260B370B0895000F111F221F331F089538
:1059F00000951095209530950F5F1F4F2F4F3F4F0B
:105A00000895019110810FC00E94732C0EC00E9456
:105A1000732C10C00191108117FF05C03FEF2FEFCD
:105A200004C0008111272227332737FF03C0E0DF9E
:105A30008DE28D93CF92DF92EF92AA24BB24CC24E7
:105A4000DD24EE2440E2EAE0FF2755E093E3808185
:105A5000890F87FD9F7083FD907F891B81935A95E5
:105A6000A9F7C1DFAA1CBB1CCC1CDD1CEE1C4A958F
:105A700051F7E894EFE0FF2782910BD0EB30E0F78D
:105A80001EF068948A2D09D04D93EF90DF90CF904F
:105A90000895982F829501D0892F8F70805D26F010
:105AA000803309F4089568948D93089594E081916A
:105AB0008D939A95E1F7089570E2803021F07D93FF
:105AC0008A95E9F78C930895F999FECFE1BDF2BD6F
:105AD0003196089591E001C092E07B3751F47FB791
