:100000000C94460018950000189500001895000003
:10001000189500001895000018950000189500002C
:10002000189500001895000018950000189500001C
:10003000189500001895000018950000189500000C
:1000400018950000189500001895000018950000FC
:100050000C948A051895000018950000189500006A
:1000600018950000189500000C94030618950000E0
:1000700018950000189500001895000018950000CC
:100080001895000018950000189500008FEF8DBF9F
:10009000C8EDE0EC4E2E80E48EBFD0E4F0E45F2E9D
:1000A000A89584B7082E877F84BF88E1992780931D
:1000B000600090936000EEEFFFE3A0E0B1E08827DE
:1000C0008D933197E9F780E48093C40080E08093BA
:1000D000C50088E18093C1006624E0E0FF2700812D
:1000E000AAE7B1E00C93AAE7B1E00C9103FB16F08C
:1000F0000C94830082E08093BD038091B7038093CA
:10010000BE030C9486008FEF8093BD0322982C9A37
:1001100074B7777F74BF8FE197E08093600090930E
:10012000600078947091C10070687093C100709104
:10013000BC0071607093BC003B9A80E48093CC005B
:1001400080E08093CD007091C8007D7F7093C800DF
:1001500087E08093CA0088E18093C900EAE0F0E07C
:100160000E9425E8EAE8F4ED0E947AE90E94F6E7A9
:100170000E9402E81C990C94BF000E941203E0E068
:10018000F0E0A0E1B0E00E941BEA053011F40C940D
:10019000CB000E9412030E945B0380916000886084
:1001A00080936000ADEAB1E08C918F5F8C930091F9
:1001B000AD010F3F11F00C946401ACEAB1E08C91F9
:1001C0008F5F8C930091AC010A3511F00C940A01F9
:1001D0000091C103003018F011F00C94F1000C9460
:1001E0000801A1ECB3E08C918F5F8C930091C10367
:1001F000083218F011F00C94FF000C9408010E94D2
:10020000460485E08093BD038091B7038093BE03CD
:100210000C946401043B11F00C943901009192019B
:10022000013081E009F080E08F93A6E2B0E00C910C
:1002300001FB81E00EF480E09F918923882311F473
:100240000C943401AEEAB1E08C918F5F8C930091F5
:10025000AE01053018F011F00C9430010C9432010D
:100260000E94EB050C94370180E08093AE010C9462
:1002700064010F3F11F00C946401AFEBB3E00D91FA
:100280001C91003050E0150718F011F00C944A0151
:100290000C944E01AFEBB3E00E9499E7AFEBB3E0F3
:1002A0000D911C91083250E0150718F011F00C94D4
:1002B0005B010C94640183E08093BD038091B703DC
:1002C0008093BE030E9453040E940CE8A4E9B1E0AD
:1002D0008C9300919401013011F00C9440020E9423
:1002E00012E8A4E9B1E08C930091D103003011F041
:1002F0000C947D0181E08093D103009119050A3FA0
:1003000010F00C943702009194010D3F11F40C94FD
:100310009B0180919401A9E1B5E0AD90BB24ADE1D2
:10032000B4E0AA0DBB1D8C93A9E1B5E08C918F5F61
:100330008C930C94350200911905063010F00C9442
:10034000B2018BE08093BD038091B7038093BE031D
:10035000E0E9F4ED0E947AE90E94F6E70E9402E8E3
:100360000C94330280EE809320040091190506302E
:1003700011F00C94F10191E09A93AEE1B4E0EDEF4D
:10038000F3E022270E9406E9A4E9B1E00C93009172
:100390009401003011F00C94EF0191E09A93AEE1DA
:1003A000B4E0E8E0F4E022270E9406E9A4E9B1E025
:1003B0000C9300919401013011F00C94E8018AE053
:1003C0008093BD038091B7038093BE030C94EF012B
:1003D0008BE08093BD038091B7038093BE030C94A0
:1003E0003302AEE1B4E0E7EEF3E0222791E00E94B1
:1003F0000BE9A5E9B1E00C9300919501013011F0F2
:100400000C942C0281E08093940140911905009195
:100410009401041718F011F00C942602A4E9B1E03D
:10042000AD90BB24ADE1B4E0AA0DBB1D8C918093CF
:10043000970131E0A7E9B1E00E94FDE7A4E9B1E04E
:100440008C918F5F8C9310F40C9405020E94BE2750
:100450000E9470040C9433028DE08093BD03809160
:10046000B7038093BE030E9490070C94400289E07A
:100470008093BD038091B7038093BE030E949007D1
:100480000091FD330E3610F00C949B020091FD3369
:100490000D3611F00C9456020E94C43588E6809304
:1004A000FD3381E08093FE330C948E020C3611F004
:1004B0000C9467020091FE33003011F00C94650239
:1004C0000E94AD3581E08093FE330C948E020B3692
:1004D00011F00C9478020091FE33003011F00C946E
:1004E00076020E94765B81E08093FE330C948E024C
:1004F0000B3610F00C948E020091FE33003011F098
:100500000C948E028091FD338093BA0280E0809338
:1005100094010E94151481E08093FE339FB7F894F4
:1005200080916000886180936000877E8093600086
:100530009FBF0C94CD000091B903003018F011F06A
:100540000C94A4020C94F3020091B702013018F04D
:1005500011F00C94AD020C94B90280E08093B501C7
:1005600086E08093BD038091B7038093BE030C9413
:10057000F0020091B802003011F00C94C3020E9406
:10058000AD940C94F0020091B501023010F40C947B
:10059000F0020091B9020E3F81E009F480E08F93F0
:1005A00000919301003081E009F080E09F91892360
:1005B0008F9300919201003081E009F080E09F91DB
:1005C0008923882311F40C94EA0280E08093B5011A
:1005D0000C94F0028091B9028093B4010E94AD9412
:1005E00080E08093B9034091B7020091B6020417EE
:1005F00018F011F00C94FE020C940F030E944604B4
:10060000A2EBB1E00D911C91003050E0150718F0FD
:1006100011F00C940D030C940F030E949C04A895F8
:100620000C94CD00E1E0F0E00E9425E8E6E1F0E086
:10063000A0E1BB2781E08C937BE70E94FFE9A42D1A
:10064000B52DE4E9F4ED0E947AE90E94E5E8E1E0E5
:10065000F0E0D2017BE70E9410EAE7E1F0E0A0E1E0
:10066000BB2781E28C937BE70E94FFE9E8E1F0E0A1
:10067000A0E1BB2781E08C937BE70E94FFE9E9E1E1
:10068000F0E0A0E1BB2781E08C937BE70E94FFE9CB
:10069000EBE1F0E0A0E1BB2784E98C937BE70E94CB
:1006A000FFE9E0E0F0E0A0E1BB2785E08C937BE789
:1006B0000E94FFE90895E6E1F0E0A0E9B1E00E94C0
:1006C0001BEAE1E0F0E0ABE7B1E094E10E9425EA4B
:1006D000E7E1F0E0A1E9B1E00E941BEAE8E1F0E027
:1006E000A2E9B1E00E941BEAE9E1F0E0A3E9B1E090
:1006F0000E941BEA81E08093B70380E08093BE03F1
:1007000080E08093B60181E08093B8030E94530497
:100710000E9446040E94EB0580E08093AC0180E0DB
:100720008093AD01EBE1F0E0A3EDB3E00E941BEAA2
:10073000A2EFB3E0EEE9F4ED0E947AE90E94E5E869
:100740008091D3038093F403A7EEB3E0E4EAF4EDE1
:100750000E947AE90E94E5E88091D3038093EA033E
:10076000ADEFB3E0EAEAF4ED0E947AE90E94E5E831
:100770008091D30380930004A8E0B4E0E0EBF4EDB3
:100780000E947AE90E94E5E88091D30380930B04EC
:100790000E94900780E08093FD3380E08093FE33D9
:1007A00081E08093023480E08093033480E0809382
:1007B000043480E08093053484E18093063480E043
:1007C0008093073480E08093083481E0809309347B
:1007D00080E080930A3480E080930B3488E080933B
:1007E0000C3485E880930D3480E080930E3488E0EB
:1007F00080930F3485E88093103480E08093113427
:1008000080E08093123480E08093133484E18093FD
:10081000143480E08093153480E08093163481E0B6
:100820008093173480E08093183480E080931934EB
:1008300088E080931A3485E880931B3480E08093AD
:100840001C3488E080931D3485E880931E3480E258
:1008500080931F3480E28093203480E2809321349F
:1008600080E28093223480E28093233480E280937C
:10087000243480E28093253480E28093263480E221
:100880008093273480E280932834089581E0809318
:10089000B60281E08093B70280E08093C10370E8E4
:1008A0007093BB00089580E08093B50180E090E0F4
:1008B000AFEBB3E08D939C93A7EBB3E08C918F5F8C
:1008C0008C934091BE030091B703041711F00C9470
:1008D0006F0480E08093BE038FEF8093BD03089583
:1008E0008091B70281508093B70281E08093950197
:1008F0004091B70200919501041718F011F00C9483
:100900009904A5E9B1E0AD90BB24A6EBB1E0AA0D36
:10091000BB1D8C918093960131E0A6E9B1E00E9465
:10092000FDE7A5E9B1E08C918F5F8C9310F40C94F6
:1009300078040E944604089581E080939501009117
:1009400095010E3F18F011F00C94B80480E0A5E971
:10095000B1E0AD90BB24A6EBB1E0AA0DBB1D8C931A
:10096000A5E9B1E08C918F5F8C9310F40C949F04F7
:10097000EAEFF2E40E947AE9A0EBB1E08D919C915C
:100980000E945FE9A7EBB1E00E94E5E8A7EBB1E0C8
:100990000E943FEAA6E9B1E08C930091B6010130D4
:1009A00011F00C94D80481E0809394010C94E80435
:1009B000023011F00C94E10482E0809394010C94D5
:1009C000E804043011F00C94E80487E0809394016B
:1009D00080919601809395014091950101E0041763
:1009E00018F011F00C9416050091950140919401B6
:1009F000040FA7E9B1E00C93A5E9B1E0AD90BB24E9
:100A0000A6EBB1E0AA0DBB1D8C91A7E9B1E0AD90BA
:100A1000BB24A6EBB1E0AA0DBB1D8C938091950180
:100A200081508093950110F00C94EC040091B60174
:100A3000013011F00C942205809196018093B7014A
:100A40000C946105023011F00C94360580E080931F
:100A5000B701809196018093B8010091960143E01F
:100A6000040FA7EBB2E00C930C946105043011F075
:100A70000C9461058FEF8093B70180EF8093B801EC
:100A8000A0EBB1E011968C91A9EBB1E08C93A0EBB7
:100A9000B1E08C91AAEBB1E08C93A2EBB1E011969E
:100AA0008C91ABEBB1E08C93A2EBB1E08C91ACEB11
:100AB000B1E08C93809196018093BD0181E0809399
:100AC000B6010091960140919401040FA7EBB2E0AA
:100AD0000C93A7EBB2E08C918F5F8C93A0EBB1E00D
:100AE0000E9499E7A0EBB1E00D911C91093C53E005
:100AF000150710F40C94820580E090E0A0EBB1E0C3
:100B00008D939C93A2EBB1E00E94A0E781E08093DB
:100B1000B60208950F921F922F923F924F925F92CA
:100B20007F92AF92BF92CF92DF92EF92FF920F939C
:100B30001F932F933F934F935F936F937F938F9365
:100B40009F93AF93BF93CF93DF93EF93FF938FB7B1
:100B50008F938BB78F9388278BBF0091B5010A3F86
:100B600010F00C94B805A5EBB1E08C918F5F8C93DD
:100B7000A5EBB1E0AD90BB24A7EBB2E0AA0DBB1D85
:100B80008091C6008C9381E08093B90381E08093CB
:100B9000B8038F918BBF8F918FBFFF91EF91DF9142
:100BA000CF91BF91AF919F918F917F916F915F9105
:100BB0004F913F912F911F910F91FF90EF90DF90F8
:100BC000CF90BF90AF907F905F904F903F902F90CD
:100BD0001F900F90189580E08093AE0170E07093A5
:100BE000B90070E07093B90071E17093B80070E8DB
:100BF0007093BB00A1E9B1E08C918093BA0075E4D9
:100C00007093BC0008950F921F922F923F924F92C3
:100C10005F927F92AF92BF920F931F932F933F9358
:100C20004F935F936F937F938F939F93AF93BF93F4
:100C3000CF93DF93EF93FF938FB78F938BB78F9300
:100C400088278BBF0091B9004CEF0423A4E9B1E0E1
:100C50000C9300919401003611F00C94340675EC5D
:100C60007093BC000C947207083611F00C943D068A
:100C700075EC7093BC000C947207003711F00C9463
:100C8000460675EC7093BC000C947207083711F09F
:100C90000C944F0675EC7093BC000C9472070038EE
:100CA00011F00C9474060091B5010A3F10F00C94F9
:100CB0005E06A5EBB1E08C918F5F8C93A5EBB1E064
:100CC000AD90BB24A7EBB2E0AA0DBB1D8091BB0089
:100CD0008C9382E08093B80381E08093B90375EC34
:100CE0007093BC000C947207083811F00C949906AC
:100CF0000091B5010A3F10F00C948306A5EBB1E01A
:100D00008C918F5F8C93A5EBB1E0AD90BB24A7EBEA
:100D1000B2E0AA0DBB1D8091BB008C9382E0809352
:100D2000B80381E08093B90375EC7093BC000C9418
:100D30007207003911F00C94BE060091B5010A3F0C
:100D400010F00C94A806A5EBB1E08C918F5F8C930A
:100D5000A5EBB1E0AD90BB24A7EBB2E0AA0DBB1DA3
:100D60008091BB008C9382E08093B80381E08093F4
:100D7000B90375EC7093BC000C947207083911F03C
:100D80000C94E3060091B5010A3F10F00C94CD06D7
:100D9000A5EBB1E08C918F5F8C93A5EBB1E0AD90AA
:100DA000BB24A7EBB2E0AA0DBB1D8091BB008C93C6
:100DB00082E08093B80381E08093B90375EC70936F
:100DC000BC000C947207003A11F00C94EC0675EC20
:100DD0007093BC000C947207083A11F00C94F5065D
:100DE00075EC7093BC000C947207003B11F00C94EE
:100DF000FE0675EC7093BC000C947207083B11F072
:100E00000C9431074091B7020091B602041781E0BB
:100E100008F080E08F9300919201013081E009F0A9
:100E200080E09F918923882311F40C942907A6EB75
:100E3000B2E0AD90BB24A6EBB1E0AA0DBB1D8C9136
:100E40008093BB00A6EBB2E08C918F5F8C930C94E7
:100E50002C0770E87093BB0075EC7093BC000C9489
:100E60007207003C11F00C94670770E87093BB00A8
:100E70004091B7020091B602041781E008F080E0CB
:100E80008F9300919201013081E009F080E09F9101
:100E90008923882311F40C945F07A6EBB2E0AD9090
:100EA000BB24A6EBB1E0AA0DBB1D8C918093BB00C7
:100EB000A6EBB2E08C918F5F8C930C94620770E884
:100EC0007093BB0075EC7093BC000C947207083CE7
:100ED00011F00C94700775EC7093BC000C947207C1
:100EE0000E94EB058F918BBF8F918FBFFF91EF9188
:100EF000DF91CF91BF91AF919F918F917F916F9132
:100F00005F914F913F912F911F910F91BF90AF90A3
:100F10007F905F904F903F902F901F900F9018956B
:100F200081E08093190580E080931A0580E080932A
:100F3000D10380E080931B0583E08093DB0380E096
:100F40008093E60380E090E0A4EDB3E08D939C9362
:100F500081E090E0AFECB3E08D939C93429A0E94C5
:100F60004604089542987091C9007F7E7093C9002D
:100F70008EEF0E941EE88EEF0E941EE831E0A3ED86
:100F8000B3E00E9419E880EE0E941EE881E08093A1
:100F900094014091DA0300919401041718F011F0C4
:100FA0000C94EF07A4E9B1E0AD90BB24AFEFB0E043
:100FB000AA0DBB1D8C918093950131E0A5E9B1E0AC
:100FC0000E9419E831E0A5E9B1E00E94FDE7A4E93B
:100FD000B1E08C918F5F8C9310F40C94C9078DEF66
:100FE0000E941EE8429A0E94530481E090E00E9411
:100FF000A4E87091C90070617093C90008958AE1F6
:10100000A0E0B1E08D9388278C938091D7038093E3
:1010100001018091D8038093020183E08093DA0379
:101020000E94B20708958AE1A0E0B1E08D9388277D
:101030008C9385E0A0E0B1E00E94EFE78D938827D4
:101040008C9380E0A0E0B1E00E94EFE78D938827C9
:101050008C938091D9038093030184E08093DA0319
:101060000E94B20708958AE1A0E0B1E08D9388273D
:101070008C9385E0A0E0B1E00E94EFE78D93882794
:101080008C9381E0A0E0B1E00E94EFE78D93882788
:101090008C938091D9038093030184E08093DA03D9
:1010A0000E94B20708958AE1A0E0B1E08D938827FD
:1010B0008C9385E0A0E0B1E00E94EFE78D93882754
:1010C0008C9382E0A0E0B1E00E94EFE78D93882747
:1010D0008C938091D9038093030184E08093DA0399
:1010E0000E94B20708958AE1A0E0B1E08D938827BD
:1010F0008C9385E0A0E0B1E00E94EFE78D93882714
:101100008C9383E0A0E0B1E00E94EFE78D93882705
:101110008C938091D9038093030184E08093DA0358
:101120000E94B20708958AE1A0E0B1E08D9388277C
:101130008C9385E0A0E0B1E00E94EFE78D938827D3
:101140008C9380E0809302018091D9030E948DE806
:10115000A3E0B1E08C9384E08093DA030E94B207AD
:1011600008958AE1A0E0B1E08D9388278C9385E013
:10117000A0E0B1E00E94EFE78D9388278C9381E097
:10118000809302018091D9030E948DE8A3E0B1E031
:101190008C9384E08093DA030E94B20708958AE179
:1011A000A0E0B1E08D9388278C9385E0A0E0B1E0CA
:1011B0000E94EFE78D9388278C9380E08093020153
:1011C0008091D803809303018091D9038093040117
:1011D00085E08093DA030E94B20708950091B5017B
:1011E000033010F40C941A09409194010091BA0252
:1011F000041710F00C9411098AE1A0E0B1E08D937E
:1012000088278C938091D703809301018091BA0243
:101210008093020183E08093DA030E94B2070C946A
:101220001A0984E08093BD038091B7038093BE03C5
:101230000E94530408950091B501033010F40C94FA
:101240005709409194010091BA02041710F00C94D0
:101250004E098AE1A0E0B1E08D9388278C9385E068
:10126000A0E0B1E00E94EFE78D9388278C9380E0A7
:10127000A0E0B1E00E94EFE78D9388278C938091E6
:10128000D903809303018091BA028093040185E021
:101290008093DA030E94B2070C94570984E080938C
:1012A000BD038091B7038093BE030E945304089549
:1012B0000091B501033010F40C949409409194010D
:1012C0000091BA02041710F00C948B098AE1A0E097
:1012D000B1E08D9388278C9385E0A0E0B1E00E9477
:1012E000EFE78D9388278C9381E0A0E0B1E00E9426
:1012F000EFE78D9388278C938091D9038093030126
:101300008091BA028093040185E08093DA030E9401
:10131000B2070C94920984E08093BD038091B703D7
:101320008093BE030E94530408950091B5010330D9
:1013300010F40C94D109409194010091BA02041761
:1013400010F00C94C8098AE1A0E0B1E08D938827E1
:101350008C9385E0A0E0B1E00E94EFE78D938827B1
:101360008C9382E0A0E0B1E00E94EFE78D938827A4
:101370008C938091D903809303018091BA0280936A
:10138000040185E08093DA030E94B2070C94CF0930
:1013900084E08093BD038091B7038093BE030E94D5
:1013A000530408950091B501033010F40C940E0A13
:1013B000409194010091BA02041710F00C94050AB0
:1013C0008AE1A0E0B1E08D9388278C9385E0A0E0CE
:1013D000B1E00E94EFE78D9388278C9383E0A0E033
:1013E000B1E00E94EFE78D9388278C938091D90319
:1013F000809303018091BA028093040185E0809379
:10140000DA030E94B2070C940C0A84E08093BD03B7
:101410008091B7038093BE030E9453040895009106
:10142000B501033010F40C94390A409194010091F5
:10143000BA02041710F00C94300A8091D6038093FE
:1014400000018091D703809301018091BA028093BB
:10145000020183E08093DA030E94B2070C94370AFA
:1014600084E08093BD038091B7038093BE030E9404
:10147000530408950091B501033010F40C94670AE9
:10148000409194010091BA02041710F00C945E0A86
:101490008091D603809300018091D703809301014E
:1014A0008091BA020E948DE8A2E0B1E08C9383E0C3
:1014B0008093DA030E94B2070C94650A84E080935B
:1014C000BD038091B7038093BE030E945304089527
:1014D0000091B501033010F40C94960A40919401E8
:1014E0000091BA02041710F00C948D0A8091D60373
:1014F000809300018091D703809301018091D803EC
:10150000809302018091BA028093030183E080936B
:10151000DA030E94B2070C94940A84E08093BD031E
:101520008091B7038093BE030E94530408950091F5
:10153000B501033010F40C94D60A40919401009147
:10154000BA02041710F00C94CD0A8AE1A0E0B1E0D1
:101550008D9388278C9385E0A0E0B1E00E94EFE7AF
:101560008D9388278C9381E0A0E0B1E00E94EFE7A3
:101570008D9388278C938091D90380930301809168
:10158000BA020E948DE8A4E0B1E08C9385E08093DC
:10159000DA030E94B2070C94D40A84E08093BD035E
:1015A0008091B7038093BE030E9453040895009175
:1015B000B501033010F40C94160B40919401009186
:1015C000BA02041710F00C940D0B8AE1A0E0B1E010
:1015D0008D9388278C9385E0A0E0B1E00E94EFE72F
:1015E0008D9388278C9382E0A0E0B1E00E94EFE722
:1015F0008D9388278C938091D903809303018091E8
:10160000BA020E948DE8A4E0B1E08C9385E080935B
:10161000DA030E94B2070C94140B84E08093BD039C
:101620008091B7038093BE030E94530408950091F4
:10163000B501033010F40C94450B8091D6038093D0
:1016400000018091D703809301010091BA0244E622
:101650000E942FEAA4E9B1E00C9380919401809359
:1016600002010091BA0244E60E942FEAA4E9B1E027
:101670008C93809194010E948DE8A3E0B1E08C935B
:1016800084E08093DA030E94B20708950091B501C7
:10169000033010F40C946F0B8AE1A0E0B1E08D935D
:1016A00088278C9385E0A0E0B1E00E94EFE78D935E
:1016B00088278C9380E0A0E0B1E00E94EFE78D9353
:1016C00088278C938091D903809303018091BA027B
:1016D0008093040185E08093DA030E94B2070895A5
:1016E0000091B501033010F40C94990B8AE1A0E04D
:1016F000B1E08D9388278C9385E0A0E0B1E00E9453
:10170000EFE78D9388278C9381E0A0E0B1E00E9401
:10171000EFE78D9388278C938091D9038093030101
:101720008091BA028093040185E08093DA030E94DD
:10173000B20708950091B501033010F40C94C30B67
:101740008AE1A0E0B1E08D9388278C9385E0A0E04A
:10175000B1E00E94EFE78D9388278C9382E0A0E0B0
:10176000B1E00E94EFE78D9388278C938091D90395
:10177000809303018091BA028093040185E08093F5
:10178000DA030E94B20708950091B501033010F406
:101790000C94ED0B8AE1A0E0B1E08D9388278C9347
:1017A00085E0A0E0B1E00E94EFE78D9388278C935D
:1017B00083E0A0E0B1E00E94EFE78D9388278C934F
:1017C0008091D903809303018091BA028093040130
:1017D00085E08093DA030E94B20708950091B50175
:1017E000033010F40C94150C8AE1A0E0B1E08D9365
:1017F00088278C9385E0A0E0B1E00E94EFE78D930D
:1018000088278C9380E0809302018091D903809394
:1018100003018091BA020E948DE8A4E0B1E08C93AC
:1018200085E08093DA030E94B20708950091B50124
:10183000033010F40C94420C8AE1A0E0B1E08D93E7
:1018400088278C9385E0A0E0B1E00E94EFE78D93BC
:1018500088278C9382E0A0E0B1E00E94EFE78D93AF
:1018600088278C938091D903809303018091BA02D9
:101870000E948DE8A4E0B1E08C9385E08093DA03C8
:101880000E94B20708950091B501033010F40C9442
:101890006F0C8AE1A0E0B1E08D9388278C9385E0FE
:1018A000A0E0B1E00E94EFE78D9388278C9383E05E
:1018B000A0E0B1E00E94EFE78D9388278C938091A0
:1018C000D903809303018091BA020E948DE8A4E0BD
:1018D000B1E08C9385E08093DA030E94B20708950B
:1018E0000091B501033010F40C94AB0C8AE1A0E038
:1018F000B1E08D9388278C9385E0A0E0B1E00E9451
:10190000EFE78D9388278C9381E0A0E0B1E00E94FF
:10191000EFE78D9388278C938091D90380930301FF
:101920008091BA020E948DE8A4E0B1E08C9300910E
:10193000BA0244E60E942FEAA5E9B1E08C938091B7
:1019400095010E948DE8A5E0B1E08C9386E080933C
:10195000DA030E94B20708950091B501033010F434
:101960000C94E30C409194010091BA02041710F01A
:101970000C94DA0C8AE1A0E0B1E08D9388278C9377
:1019800085E0A0E0B1E00E94EFE78D9388278C937B
:1019900081E0809302010091D9034091BA02040FC3
:1019A000A3E0B1E00C9384E08093DA030E94B207D5
:1019B0000C94E30C84E08093BD038091B703809383
:1019C000BE030E94530408950091B501033010F442
:1019D0000C94240D8AE1A0E0B1E08D9388278C93CC
:1019E00085E0A0E0B1E00E94EFE78D9388278C931B
:1019F00080E0A0E0B1E00E94EFE78D9388278C9310
:101A00008091D903809303010091BA0244E60E94B9
:101A10002FEAA4E9B1E00C93809194018093040132
:101A20000091BA0244E60E942FEAA4E9B1E08C9347
:101A3000809194010E948DE8A5E0B1E08C9386E04E
:101A40008093DA030E94B20708950091B501033034
:101A500010F40C94650D8AE1A0E0B1E08D93882725
:101A60008C9385E0A0E0B1E00E94EFE78D9388279A
:101A70008C9381E0A0E0B1E00E94EFE78D9388278E
:101A80008C938091D903809303010091BA0244E6BC
:101A90000E942FEAA4E9B1E00C9380919401809315
:101AA00004010091BA0244E60E942FEAA4E9B1E0E1
:101AB0008C93809194010E948DE8A5E0B1E08C9315
:101AC00086E08093DA030E94B20708950091B50181
:101AD000043010F40C94DB0DAAEBB2E00D91112749
:101AE00040E051E00E94B8E8AAE9B1E00D931C93F0
:101AF000AAE9B1E00D911C91ABEBB2E04D915527F5
:101B0000040F151FAAE9B1E00D931C93AAE9B1E0F7
:101B10004D915C91AAE9B1E00D911C910417150754
:101B200010F00C94D20D8AE1A0E0B1E08D938827EB
:101B30008C9385E0A0E0B1E00E94EFE78D938827C9
:101B40008C9382E0A0E0B1E00E94EFE78D938827BC
:101B50008C938091D9038093030100919A0144E60C
:101B60000E942FEAA4E9B1E00C93809194010E94B5
:101B70008DE8A4E0B1E08C9300919A0144E60E94C4
:101B80002FEAA4E9B1E08C93809194010E948DE842
:101B9000A5E0B1E08C9386E08093DA030E94B2075F
:101BA0000C94DB0D84E08093BD038091B703809398
:101BB000BE030E94530408950091B501043010F44F
:101BC0000C94510EAAEBB2E00D91112740E051E0C8
:101BD0000E94B8E8AAE9B1E00D931C93AAE9B1E02C
:101BE0000D911C91ABEBB2E04D915527040F151FE1
:101BF000AAE9B1E00D931C93AAE9B1E04D915C9183
:101C0000AAE9B1E00D911C910417150710F00C948E
:101C1000480E8AE1A0E0B1E08D9388278C9385E09F
:101C2000A0E0B1E00E94EFE78D9388278C9383E0DA
:101C3000A0E0B1E00E94EFE78D9388278C9380911C
:101C4000D9038093030100919A0144E60E942FEA90
:101C5000A4E9B1E00C93809194010E948DE8A4E086
:101C6000B1E08C9300919A0144E60E942FEAA4E926
:101C7000B1E08C93809194010E948DE8A5E0B1E0E1
:101C80008C9386E08093DA030E94B2070C94510E85
:101C900084E08093BD038091B7038093BE030E94CC
:101CA00053040895A0E0B1E088278C93ACEDB3E035
:101CB0000D911D912D913C91A8E7B4E34D915D915B
:101CC0006D917C910E9486E9ACEDB3E00D931D937C
:101CD0002D933D93ACEDB3E00D911D912D913C9171
:101CE00040E051EE65EF75E00E9435E8A0EAB1E012
:101CF0004D935D936D937D938091A00180939401AA
:101D0000809194010E948DE8A7E9B1E0AD90BB24D9
:101D1000A3E0B1E0AA0DBB1D8C93ACEDB3E00D9137
:101D20001D912D913C9140E051EE65EF75E00E94D0
:101D300035E8ACEDB3E00D931D932D933D93ACEDE1
:101D4000B3E00D911D912D913C9140E452E46FE080
:101D500070E00E9435E8A0EAB1E04D935D936D9389
:101D60007D938091A00180939401809194010E94C1
:101D70008DE8A7E9B1E0AD90BB24A2E0B1E0AA0DE7
:101D8000BB1D8C93ACEDB3E00D911D912D913C9159
:101D900040E452E46FE070E00E9435E8ACEDB3E05F
:101DA0000D931D932D933D93ACEDB3E00D911D91DB
:101DB0002D913C9140E157E260E070E00E9435E8EF
:101DC000A0EAB1E04D935D936D937D938091A00166
:101DD00080939401809194010E948DE8A7E9B1E07D
:101DE000AD90BB24A1E0B1E0AA0DBB1D8C93ACED7E
:101DF000B3E00D911D912D913C9140E157E260E0DF
:101E000070E00E9435E8ACEDB3E00D931D932D9387
:101E10003D93ACEDB3E00D911C9144E650E00E947F
:101E2000D5E7AAE9B1E04D935C9380919A01809344
:101E30009401809194010E948DE8A7E9B1E0AD90F2
:101E4000BB24A0E0B1E0AA0DBB1D8C93ACEDB3E0C8
:101E50000D911D912D913C9144E650E060E070E0C1
:101E60000E9435E8ACEDB3E00D931D932D933D93A7
:101E70008091DC0380939401809194010E948DE80D
:101E8000A7E9B1E0AD90BB24AFEFB0E0AA0DBB1D58
:101E90008C9308950091B501043010F40C94A30FB5
:101EA0000091BA02053181E008F080E08F93009143
:101EB000BB02053181E008F080E09F9189238823EF
:101EC00011F40C949A0F8AE1A0E0B1E08D93882779
:101ED0008C9385E0A0E0B1E00E94EFE78D93882726
:101EE0008C9380E0809302018091D9038093030159
:101EF0008091BA0280939401809194010E948DE8B0
:101F0000A4E0B1E08C938091BB0280939401A4E99A
:101F1000B1E08C918B5F8C93809194010E948DE84D
:101F2000A5E0B1E08C9386E08093DA030E94B207CB
:101F30000C94A10F84E08093BD038091B70380933C
:101F4000BE030E94530408950091B501043010F4BB
:101F50000C94F70F0091BA02043081E008F080E0A1
:101F60008F930091BB02043081E008F080E09F91E4
:101F70008923882311F40C94EE0F8AE1A0E0B1E0EC
:101F80008D9388278C9385E0A0E0B1E00E94EFE775
:101F90008D9388278C9380E0809302018091D903F0
:101FA000809303018091BA02809304018091BB0267
:101FB0008093940194E0A4E9B1E00E94EBE80091E1
:101FC000040140919401042BA4E0B1E00C9385E05E
:101FD0008093DA030E94B2070C94F50F84E080939B
:101FE000BD038091B7038093BE030E9453040895FC
:101FF0000091B501043010F40C94DA108AE1A0E0ED
:10200000B1E08D9388278C9385E0A0E0B1E00E9439
:10201000EFE78D9388278C9380E080930201809175
:10202000D903809303018091BA0280939B01809130
:10203000BB0280939A01AAE9B1E00D911C910F3186
:102040005EE4150710F00C94D110AAE9B1E00D91EF
:102050001C910E3057E2150718F011F00C94321055
:102060000C94411080E080930701AAE9B1E00D9142
:102070001C910F501742AAE9B1E00D931C930C94E8
:10208000501081E0809307010FE017E2AAE9B1E068
:102090004D915C91041B150BAAE9B1E00D931C93C3
:1020A000AAE9B1E00D911C91222733274AE050E0C4
:1020B00060E070E00E94C2E8A3ECB3E00D931D93D2
:1020C0002D933D9300E117E220E030E0A2EEB3E073
:1020D0000D931D932D933C9387E080939401409141
:1020E000940105E0041718F011F00C94CA10A3EC49
:1020F000B3E00D911D912D913C91A2EEB3E04D9175
:102100005D916D917C910E9435E8A7ECB3E04D9311
:102110005D936D937D938091C7038093950180912A
:1021200095010E948DE8A4E9B1E0AD90BB24AFEF2A
:10213000B0E0AA0DBB1D8C93A3ECB3E00D911D91F3
:102140002D913C91A2EEB3E04D915D916D917C910A
:102150000E9435E8A3ECB3E00D931D932D933D93BE
:10216000A2EEB3E00D911D912D913C9144E650E01B
:1021700060E070E00E9435E8A2EEB3E04D935D931D
:102180006D937D938091940181508093940110F020
:102190000C946F1088E08093DA030E94B2070C94CD
:1021A000D81084E08093BD038091B7038093BE0371
:1021B0000E94530408950091B501053010F40C9469
:1021C00045118AE1A0E0B1E08D9388278C9385E0EA
:1021D000A0E0B1E00E94EFE78D9388278C9381E027
:1021E000A0E0B1E00E94EFE78D9388278C93809167
:1021F000D903809303010091BA0244E60E942FEABA
:10220000A4E0B1E00C930091BA0244E60E942FEAE8
:10221000A4E9B1E08C93809194010E948DE8A5E03F
:10222000B1E08C930091BB0244E60E942FEAA6E045
:10223000B1E00C930091BB0244E60E942FEAA4E9AE
:10224000B1E08C93809194010E948DE8A7E0B1E009
:102250008C930091BC0244E60E942FEAA8E0B1E012
:102260000C930091BC0244E60E942FEAA4E9B1E07D
:102270008C93809194010E948DE8A9E0B1E08C9349
:102280008AE08093DA030E94B20708950091B501B5
:10229000053010F40C94B0118AE1A0E0B1E08D9308
:1022A00088278C9385E0A0E0B1E00E94EFE78D9352
:1022B00088278C9382E0A0E0B1E00E94EFE78D9345
:1022C00088278C938091D903809303010091BA02EF
:1022D00044E60E942FEAA4E0B1E00C930091BA0218
:1022E00044E60E942FEAA4E9B1E08C938091940126
:1022F0000E948DE8A5E0B1E08C930091BB0244E61A
:102300000E942FEAA6E0B1E00C930091BB0244E6E4
:102310000E942FEAA4E9B1E08C93809194010E947D
:102320008DE8A7E0B1E08C930091BC0244E60E94E6
:102330002FEAA8E0B1E00C930091BC0244E60E94B1
:102340002FEAA4E9B1E08C93809194010E948DE87A
:10235000A9E0B1E08C938AE08093DA030E94B2078F
:1023600008950091B501073010F40C94D513ADEB2E
:10237000B2E00D91112740E051E00E94B8E8ACE9CD
:10238000B1E00D931C93ACE9B1E00D911C91AEEB63
:10239000B2E04D915527040F151FACE9B1E00D9344
:1023A0001C93ACE9B1E00D911C91033E53E015077D
:1023B00010F00C94CC13ABEBB2E00C911127222758
:1023C000332740E051E060E070E00E94C2E8A4EAF8
:1023D000B1E00D931D932D933D93A4EAB1E00D91CF
:1023E0001D912D913C91ACEBB2E04C9155276627A5
:1023F00077270E9486E9A4EAB1E00D931D932D93FF
:102400003D93A4EAB1E00D911D912D913C91A0EE78
:10241000B3E04D915C91662777270E9486E9A4EA94
:10242000B1E00D931D932D933D93A4EAB1E00D917E
:102430001D912D913C91ACE9B1E04D915C916627E5
:1024400077270E9486E9A8EAB1E00D931D932D93AA
:102450003D93A8EAB1E00D911D912D913C9145E08D
:1024600050E060E070E00E9486E9A8EAB1E00D93D8
:102470001D932D933D93A0EAB1E04D915D916D9137
:102480007C91A4EAB1E00D911D912D913C9104172E
:1024900015072607370781E010F009F080E08F93D9
:1024A000A0EAB1E04D915D916D917C91A8EAB1E017
:1024B0000D911D912D913C910417150726073707A3
:1024C00081E010F009F080E09F918923882311F4C6
:1024D0000C94CA138AE1A0E0B1E08D9388278C9315
:1024E00085E0A0E0B1E00E94EFE78D9388278C9310
:1024F00081E0A0E0B1E00E94EFE78D9388278C9304
:102500000091D9034091BA02040FA3E0B1E00C930B
:10251000A4EAB1E00D911D912D913C91A3ECB3E0A3
:102520000D931D932D933C93A3ECB3E00D911D915E
:102530002D913C9148EE53E060E070E00E9435E858
:10254000A7ECB3E04D935D936D937D938091C703AA
:1025500080939601809196010E948DE8A6E0B1E0FB
:102560008C93A3ECB3E00D911D912D913C9140E132
:1025700057E260E070E00E9435E8A3ECB3E00D9311
:102580001D932D933D93A3ECB3E00D911D912D91DF
:102590003C9148EE53E060E070E00E9435E8A3EC27
:1025A000B3E00D931D932D933D93A3ECB3E00D91F8
:1025B0001D912D913C914AE050E060E070E00E9456
:1025C00035E8A7ECB3E04D935D936D937D938091D7
:1025D000C70380939601809196010E948DE8A5E043
:1025E000B1E08C93A3ECB3E00D911D912D913C9142
:1025F00044E650E060E070E00E9435E8A3ECB3E010
:102600000D931D932D933D93A3ECB3E00D911D917C
:102610002D913C914AE050E060E070E00E9435E886
:10262000A3ECB3E00D931D932D933D938091C303D1
:1026300080939401809194010E948DE8A4E9B1E017
:102640008C9394E0A4E9B1E00E94EBE880919401BE
:1026500080930401A8EAB1E00D911D912D913C9168
:10266000A3ECB3E00D931D932D933C93A3ECB3E047
:102670000D911D912D913C9148EE53E060E070E08A
:102680000E9435E8A7ECB3E04D935D936D937D9385
:102690008091C70380939601809196010E948DE8F6
:1026A000A9E0B1E08C93A3ECB3E00D911D912D91C5
:1026B0003C9140E157E260E070E00E9435E8A3EC15
:1026C000B3E00D931D932D933D93A3ECB3E00D91D7
:1026D0001D912D913C9148EE53E060E070E00E9426
:1026E00035E8A3ECB3E00D931D932D933D93A3EC3C
:1026F000B3E00D911D912D913C914AE050E060E0D6
:1027000070E00E9435E8A7ECB3E04D935D936D93C4
:102710007D938091C70380939601809196010E94DA
:102720008DE8A8E0B1E08C93A3ECB3E00D911D918E
:102730002D913C9144E650E060E070E00E9435E865
:10274000A3ECB3E00D931D932D933D93A3ECB3E065
:102750000D911D912D913C914AE050E060E070E0B8
:102760000E9435E8A3ECB3E00D931D932D933D93A8
:102770008091C3038093940194E0A4E9B1E00E94A6
:10278000EBE880919401809307018AE08093DA035B
:102790000E94B2070C94D51384E08093BD0380910E
:1027A000B7038093BE030E94530408950091B501BE
:1027B000033010F40C9414140091BA02023310F098
:1027C0000C940B148BE1809300018091D7038093CC
:1027D00001010091BA0241E0040FA4E9B1E00C93B9
:1027E000ECECFEEC0E947AE9A4E9B1E08C91992727
:1027F000AAE9B1E00E9452E980919B018093020115
:1028000080919A018093030184E08093DA030E940F
:10281000B2070C94121484E08093BD038091B70337
:102820008093BE030E94530408958AE180930001BF
:1028300080E080930101AAEBB2E00D91112742E7FD
:1028400050E00E94B8E8AAE9B1E00D931C93AAE910
:10285000B1E00E9499E781E0809394010091940196
:10286000023718F011F00C945314AAE9B1E0AD90BE
:10287000BD90ABE1B5E0AA0DBB1D8C91A4E9B1E020
:10288000AD90BB24A1E0B1E0AA0DBB1D8C93AAE9D9
:10289000B1E00E9499E7A4E9B1E08C918F5F8C933D
:1028A00010F40C942E140091BA0244E60E942FEA10
:1028B000A3E0B1E00C938091BA020E948DE8A4E0FD
:1028C000B1E08C9384E78093DA030E94B207009111
:1028D0007434013011F00C9471140E94C4350E94BC
:1028E0004A3608950091B501033010F40C94A114F8
:1028F0000091BA020C3610F00C949A148AE180937D
:10290000000180E0809301010091BA0244E60E9438
:102910002FEAA2E0B1E00C938091BA020E948DE808
:10292000A3E0B1E08C9384E08093DA030E94B207C5
:102930000C94A11484E08093BD038091B70380932D
:10294000BE030895ACE9B1E00D911C9147E050E061
:1029500004231523AEE9B1E00D931C9380919E01F1
:102960008093940193E0ACE9B1E00E94FBE8ACE90C
:10297000B1E00D911C9147E050E004231523AEE92E
:10298000B1E00D931C9380919E018093950194E09A
:10299000A4E9B1E00E94EBE8009194014091950117
:1029A000042BA5E0B1E00C9393E0AAE9B1E00E940A
:1029B000FBE8AAE9B1E00D911C9147E050E0042347
:1029C0001523ACE9B1E00D931C9380919C01809399
:1029D000950108950091B5010D3010F40C94AB16DB
:1029E0000091BA02033681E008F080E08F930091F5
:1029F000BD02023081E008F080E09F9189238F932F
:102A00000091C102023081E008F080E09F918923AB
:102A10008F930091C402023081E008F080E09F9122
:102A20008923882311F40C94A416ABEBB2E00D912A
:102A3000112740E051E00E94B8E8AAE9B1E00D9307
:102A40001C93ACEBB2E00D911127AAE9B1E04D91D6
:102A50005C91040F151FAAE9B1E00D931C93AFEB35
:102A6000B2E00D91112740E051E00E94B8E8ACE9D6
:102A7000B1E00D931C93A0ECB2E00D911127ACE9ED
:102A8000B1E04D915C91040F151FACE9B1E00D93DD
:102A90001C93A2ECB2E00D91112740E051E00E949E
:102AA000B8E8AEE9B1E00D931C93AEE9B1E00D9149
:102AB0001C91A3ECB2E04D915527040F151FAEE910
:102AC000B1E00D931C93AAE9B1E00D911C910F3573
:102AD0005AEE150781E008F080E08F930091BE0266
:102AE000073C81E008F080E09F9189238F934FEBB2
:102AF00057E269E070E0ACE9B1E00D911C9122274A
:102B000033270E9490E980E00CF481E09F918923B3
:102B10008F934FE35DE063E070E0AEE9B1E00D91CB
:102B20001C91222733270E9490E980E00CF481E079
:102B30009F918923882311F40C949B168AE1A0E0CD
:102B4000B1E08D9388278C9382E0A0E0B1E00E94F1
:102B5000EFE78D9388278C938091BA020E948DE8CD
:102B6000A3E0B1E08C9300919A0148EE0E942FEA15
:102B7000A4E9B1E00C93809194010E948DE8A4E057
:102B8000B1E08C93AAE9B1E00D911C9148EE53E0BD
:102B90000E94D5E7AAE9B1E00D931C9300919A0138
:102BA0004AE00E942FEAA4E9B1E00C9380919401DD
:102BB0000E948DE8A5E0B1E08C9300919A014AE073
:102BC0000E942FEAA4E9B1E08C93A4E9B1E00C9152
:102BD00040E1049F0C92809194010E948DE8A6E050
:102BE000B1E08C938091BD02809307010091BE02F9
:102BF00044E60E942FEAA4E9B1E00C93809194018D
:102C00000E948DE8A8E0B1E08C930091BE0244E6FA
:102C10000E942FEAA4E9B1E08C93809194010E9474
:102C20008DE8A9E0B1E08C9300919C0148EE0E94F0
:102C30002FEAA4E9B1E00C93809194010E948DE801
:102C4000AAE0B1E08C93ACE9B1E00D911C9148EEA3
:102C500053E00E94D5E7ACE9B1E00D931C930091DD
:102C60009C014AE00E942FEAA4E9B1E00C93809114
:102C700094010E948DE8ABE0B1E08C9300919C013F
:102C80004AE00E942FEAA4E9B1E08C93A4E9B1E004
:102C90000C9140E1049F0C92809194010E948DE878
:102CA000ACE0B1E08C938091C10280930D01009162
:102CB0009E0148EE0E942FEAA4E9B1E00C938091B6
:102CC00094010E948DE8AEE0B1E08C93AEE9B1E0F2
:102CD0000D911C9148EE53E00E94D5E7AEE9B1E0BA
:102CE0000D931C9300919E014AE00E942FEAA6E9F1
:102CF000B1E00C93809194010E948DE8AFE0B1E0C7
:102D00008C9300919C014AE00E942FEAA4E9B1E073
:102D10008C93809194010E948DE8A0E1B1E08C93A6
:102D20008091C4028093110182E18093DA030E94B2
:102D3000B2070C94A21684E08093BD038091B70380
:102D40008093BE030C94AB1684E08093BD03809106
:102D5000B7038093BE0308950091B501033010F4CA
:102D60000C942217409194010091BA02041710F0BC
:102D70000C9422170091940143E0040FA5E9B1E0FF
:102D80000C93409195010091B501041710F40C9437
:102D90001B178AE1A0E0B1E08D9388278C9385E032
:102DA000A0E0B1E00E94EFE78D9388278C9382E04A
:102DB000A0E0B1E00E94EFE78D9388278C9384E038
:102DC0008093950184E08093960181E08093940143
:102DD0004091BA0200919401041718F011F00C947C
:102DE0001017A5E9B1E0AD90BB24A7EBB2E0AA0DA6
:102DF000BB1D8C91A4E9B1E0AD90BB24AFEFB0E076
:102E0000AA0DBB1D8C93A5E9B1E08C918F5F8C93CB
:102E1000A4E9B1E08C918F5F8C9310F40C94E816C8
:102E20000091BA0243E0040FAAEDB3E00C930E94B4
:102E3000B2070C94221784E08093BD038091B703FE
:102E40008093BE0308950091B501033010F40C94F3
:102E50009917409194010091BA02041710F00C9454
:102E600099170091940143E0040FA5E9B1E00C9398
:102E7000409195010091B501041710F40C9492173C
:102E80008AE1A0E0B1E08D9388278C9385E0A0E0F3
:102E9000B1E00E94EFE78D9388278C9383E0A0E058
:102EA000B1E00E94EFE78D9388278C9384E08093B4
:102EB000950184E08093960181E080939401409194
:102EC000BA0200919401041718F011F00C948717BE
:102ED000A5E9B1E0AD90BB24A7EBB2E0AA0DBB1D04
:102EE0008C91A4E9B1E0AD90BB24AFEFB0E0AA0DA6
:102EF000BB1D8C93A5E9B1E08C918F5F8C93A4E905
:102F0000B1E08C918F5F8C9310F40C945F1700915B
:102F1000BA0243E0040FAAEDB3E00C930E94B2079B
:102F20000C94991784E08093BD038091B70380933C
:102F3000BE0308950091B501033010F40C94FF17FF
:102F4000409194010091BA02041710F00C94FF17FD
:102F50000091940143E0040FA5E9B1E00C93409186
:102F600095010091B501041710F40C94F81784E052
:102F70008093950184E08093960181E08093940191
:102F80004091BA0200919401041718F011F00C94CA
:102F9000ED17A5E9B1E0AD90BB24A7EBB2E0AA0D17
:102FA000BB1D8C91A6E9B1E0AD90BB24AFEFB0E0C2
:102FB000AA0DBB1D8C93A5E9B1E08C918F5F8C931A
:102FC000A6E9B1E08C918F5F8C93A4E9B1E08C917C
:102FD0008F5F8C9310F40C94C0170091BA0243E0F9
:102FE000040FAAEDB3E00C930E94B2070C94FF17F4
:102FF00084E08093BD038091B7038093BE0308955E
:103000000091B501033010F40C94651840919401BF
:103010000091BA02041710F00C9465180091940105
:1030200043E0040FA5E9B1E00C93409195010091B4
:10303000B501041710F40C945E1884E08093950198
:1030400085E08093960181E0809394014091BA02DB
:1030500000919401041718F011F00C945318A5E98D
:10306000B1E0AD90BB24A7EBB2E0AA0DBB1D8C91E3
:10307000A6E9B1E0AD90BB24AFEFB0E0AA0DBB1D57
:103080008C93A5E9B1E08C918F5F8C93A6E9B1E0B8
:103090008C918F5F8C93A4E9B1E08C918F5F8C93BE
:1030A00010F40C9426180091BA0243E0040FAAED24
:1030B000B3E00C930E94B2070C94651884E08093EF
:1030C000BD038091B7038093BE030895009124044B
:1030D00044E6049FA4E9B1E00C92909125040E947B
:1030E00094E8A5E9B1E08C93009194014091950199
:1030F000040FA4E9B1E00C93809194018150809376
:103100009401A4E9B1E00D91112747E250E00E943B
:10311000B8E8AAE9B1E00D931C93009126040F3F93
:1031200011F00C940019AAE9B1E08D919C91ACE9E1
:10313000B1E08D939C9381E0809394010091940180
:10314000073218F011F00C94C318A4E9B1E0AD9067
:10315000BB24A1E0B4E3AA0DBB1D8C91ACE9B1E0A6
:10316000AD90BD90ABE1B5E0AA0DBB1D8C93ACE971
:10317000B1E00E9499E7A4E9B1E08C918F5F8C9354
:1031800010F40C949E188AE18093000180E08093F3
:103190000101809124048093020180912504809391
:1031A000030185E080939401009194010B3218F0A3
:1031B00011F00C94F918AAE9B1E0AD90BD90ABE123
:1031C000B5E0AA0DBB1D8C91A4E9B1E0AD90BB2484
:1031D000AFEFB0E0AA0DBB1D8C93AAE9B1E00E944D
:1031E00099E7A4E9B1E08C918F5F8C9310F40C9473
:1031F000D4188BE28093DA030E94B2070C9428194A
:1032000081E08093950100919501073218F011F04B
:103210000C942819A5E9B1E0AD90BB24A5E2B4E077
:10322000AA0DBB1D8C91ACE9B1E0AD90BD90ABE1B6
:10323000B5E0AA0DBB1D8C93ACE9B1E00E9499E703
:10324000A5E9B1E08C918F5F8C9310F40C94031975
:10325000ADEFB3E38C918F5F8C9380E08093FE336E
:1032600008950091250444E6049FA4E9B1E00C927E
:10327000909126040E9494E8A5E9B1E08C93009116
:10328000940140919501040FA4E9B1E00C93809161
:103290009401815080939401A4E9B1E00D9111272C
:1032A00042E750E00E94B8E8AAE9B1E00D931C9310
:1032B000AAE9B1E00E9499E700910134003018F0CA
:1032C00011F00C9465190C940F21009125040F3F07
:1032D00011F40C940821809194018093B90100911C
:1032E0000134013011F00C948B1981E08093B70107
:1032F00083EC8093B801AAE9B1E0AD90BD90AFE155
:10330000B5E0AA0DBB1D8C918093BA0185E0809336
:10331000B7020C940321023011F00C949F1981E044
:103320008093B70181E88093B8018BE08093980186
:1033300084E08093B7020E9410210C940321033093
:1033400011F00C94DF1981E08093B70183E880933A
:10335000B801AAE9B1E0AD90BD90A5E2B5E0AA0D33
:10336000BB1D8C918093BA010091BA01053018F011
:1033700011F00C94BD190C94C219AAEBB1E08C9118
:1033800081508C930091BA01063118F011F00C9421
:10339000CB190C94CE1988E08093BA010091BA0140
:1033A000023218F011F00C94D7190C94DA1989E054
:1033B0008093BA0185E08093B7020C940321043016
:1033C00011F00C94FC1981E08093B70185E880939B
:1033D000B801AAE9B1E0AD90BD90A6E2B5E0AA0DB2
:1033E000BB1D0C9141E0041BAAEBB1E00C9385E0FE
:1033F0008093B7020C940321053011F00C94161A37
:1034000081E08093B70187E88093B801AAE9B1E031
:10341000AD90BD90A7E2B5E0AA0DBB1D8C91809345
:10342000BA0185E08093B7020C940321063011F0B5
:103430000C94351A81E08093B70189E88093B80134
:10344000AAE9B1E0AD90BD90A8E2B5E0AA0DBB1D20
:103450008C918093BA01AAEBB1E08C918F708C9320
:1034600085E08093B7020C940321073011F00C948F
:10347000591A81E08093B7018BE88093B801AAE9DB
:10348000B1E0AD90BD90A8E2B5E0AA0DBB1D8C9156
:103490008093BA01AAEBB1E08C91807F8C9394E089
:1034A000AAEBB1E00E94F3E885E08093B7020C94A8
:1034B0000321083011F00C94731A81E08093B70156
:1034C0008DE88093B801AAE9B1E0AD90BD90A9E282
:1034D000B5E0AA0DBB1D8C918093BA0185E0809365
:1034E000B7020C940321093011F00C94BC1A81E04E
:1034F0008093B7018FE88093B801AAE9B1E00D91FC
:103500001C91015F1F4FAAE9B1E00D931C93AAE93A
:10351000B1E0AD90BD90ABE1B5E0AA0DBB1D8C91C3
:1035200080939D01AAE9B1E00E9499E7AAE9B1E080
:10353000AD90BD90ABE1B5E0AA0DBB1D8C91809321
:103540009C0183E38A93ECECFEEC0E947AE9ACE9FF
:10355000B1E00D911C910E9467E9A4E9B1E00C93E0
:103560000091940142E0041BAAEBB1E00C9385E0CA
:103570008093B7020C9403210A3011F00C94051BC0
:1035800081E08093B70181E98093B801AAE9B1E0B5
:103590000D911C910E5E1F4FAAE9B1E00D931C9393
:1035A000AAE9B1E0AD90BD90ABE1B5E0AA0DBB1DBD
:1035B0008C9180939D01AAE9B1E00E9499E7AAE964
:1035C000B1E0AD90BD90ABE1B5E0AA0DBB1D8C9113
:1035D00080939C0183E38A93ECECFEEC0E947AE9F1
:1035E000ACE9B1E00D911C910E9467E9A4E9B1E05A
:1035F0000C930091940142E0041BAAEBB1E00C9300
:1036000085E08093B7020C9403210B3011F00C94E9
:103610007F1B81E08093B70183E98093B801AAE919
:10362000B1E00D911C910A5E1F4FAAE9B1E00D9324
:103630001C93AAE9B1E0AD90BD90ABE1B5E0AA0D55
:10364000BB1D0D91112740E450E00E94B8E8AAE9A3
:10365000B1E00D931C93AAE9B1E00E9499E7AAE9B1
:10366000B1E0AD90BD90ABE1B5E0AA0DBB1D0C91F2
:1036700040EF0423A4E9B1E00C9394E0A4E9B1E0A5
:103680000E94F3E8A4E9B1E00C9148E0049F0C9299
:10369000AAE9B1E00D911C91A4E9B1E04D91552743
:1036A000040F151FAAE9B1E00D931C93AAE9B1E03C
:1036B000AD90BD90ABE1B5E0AA0DBB1D0C914FE004
:1036C0000423A4E9B1E00C93AAE9B1E00D911C91A7
:1036D000A4E9B1E04D915527040F151FAAE9B1E007
:1036E0000D931C9380919B018093BA0180919A0164
:1036F0008093BB0186E08093B7020C9403210C30C9
:1037000011F00C94AF1B81E08093B70185E98093A1
:10371000B801AAE9B1E0AD90BD90AEE2B5E0AA0D66
:10372000BB1D0C9140EF0423AAEBB1E00C9394E095
:10373000AAEBB1E00E94F3E8AAE9B1E0AD90BD9038
:10374000AEE2B5E0AA0DBB1D0C914FE00423ABEB3C
:10375000B1E00C9386E08093B7020C9403210D3006
:1037600011F00C94CC1B81E08093B70187E9809322
:10377000B801AAE9B1E0AD90BD90A1E3B5E0AA0D12
:10378000BB1D9C910E9494E8AAEBB1E08C9385E06C
:103790008093B7020C9403210E3011F00C945A1C44
:1037A00081E08093B70189E98093B801AAE9B1E08B
:1037B0000D911C91075E1F4FAAE9B1E00D931C9378
:1037C000AAE9B1E0AD90BD90ABE1B5E0AA0DBB1D9B
:1037D0009C910E9494E8082F11272227332744E662
:1037E00050E060E070E00E94C2E8ACEDB3E00D9301
:1037F0001D932D933D93AAE9B1E00E94A0E7AAE9A9
:10380000B1E0AD90BD90ABE1B5E0AA0DBB1D9C91C0
:103810000E9494E8082F112744E650E00E94B8E87F
:10382000AAE9B1E00D931C93ACEDB3E00D911D91AD
:103830002D913C91AAE9B1E04D915C9166277727E3
:103840000E9486E9ACEDB3E00D931D932D933D935B
:10385000AAE9B1E00E94A0E7ACEDB3E00D911D91A3
:103860002D913C91AAE9B1E0AD90BD90ABE1B5E0FE
:10387000AA0DBB1D9C910E9494E8482F55276627EE
:1038800077270E9486E9ACEDB3E00D931D932D934D
:103890003D938091DE038093BA018091DD03809394
:1038A000BB018091DC038093BC0187E08093B70269
:1038B0000C9403210F3011F00C949E1C81E0809336
:1038C000B7018BE98093B80188E08093BA01AAE937
:1038D000B1E00D911C91095E1F4FAAE9B1E00D9373
:1038E0001C9381E08093940100919401083018F0BA
:1038F00011F00C94991CAAE9B1E0AD90BD90ABE138
:10390000B5E0AA0DBB1D8C91A4E9B1E0AD90BB243C
:10391000AAEBB1E0AA0DBB1D8C93AAE9B1E00E940D
:1039200099E7A4E9B1E08C918F5F8C9310F40C942B
:10393000741C8FE08093B7020C940321003111F0C6
:103940000C94E21C81E08093B7018DE98093B8016B
:1039500088E08093BA01AAE9B1E00D911C91015E63
:103960001F4FAAE9B1E00D931C9381E0809394016D
:1039700000919401083018F011F00C94DD1CAAE9B4
:10398000B1E0AD90BD90ABE1B5E0AA0DBB1D8C914F
:10399000A4E9B1E0AD90BB24AAEBB1E0AA0DBB1D38
:1039A0008C93AAE9B1E00E9499E7A4E9B1E08C9177
:1039B0008F5F8C9310F40C94B81C8FE08093B70247
:1039C0000C940321013111F00C94261D81E08093A9
:1039D000B7018FE98093B80188E08093BA01AAE922
:1039E000B1E00D911C91095D1F4FAAE9B1E00D9363
:1039F0001C9381E08093940100919401083018F0A9
:103A000011F00C94211DAAE9B1E0AD90BD90ABE19D
:103A1000B5E0AA0DBB1D8C91A4E9B1E0AD90BB242B
:103A2000AAEBB1E0AA0DBB1D8C93AAE9B1E00E94FC
:103A300099E7A4E9B1E08C918F5F8C9310F40C941A
:103A4000FC1C8FE08093B7020C940321023111F02B
:103A50000C943A1D81EA8093B70181E88093B80104
:103A60008BE08093980184E08093B7020E9410213C
:103A70000C940321033111F00C947A1D81E08093A2
:103A8000B70183EA8093B801AAE9B1E0AD90BD9097
:103A9000A5E2B5E0AA0DBB1D8C918093BA010091FF
:103AA000BA01053018F011F00C94581D0C945D1DEE
:103AB000AAEBB1E08C9181508C930091BA01063150
:103AC00018F011F00C94661D0C94691D88E0809329
:103AD000BA010091BA01023218F011F00C94721D73
:103AE0000C94751D89E08093BA0185E08093B7023C
:103AF0000C940321043111F00C94971D81E0809304
:103B0000B70185EA8093B801AAE9B1E0AD90BD9014
:103B1000A6E2B5E0AA0DBB1D0C9141E0041BAAEB87
:103B2000B1E00C9385E08093B7020C94032105313A
:103B300011F00C94B11D81E08093B70187EA809366
:103B4000B801AAE9B1E0AD90BD90A7E2B5E0AA0D39
:103B5000BB1D8C918093BA0185E08093B7020C94D1
:103B60000321063111F00C94D01D81E08093B70140
:103B700089EA8093B801AAE9B1E0AD90BD90A8E2CE
:103B8000B5E0AA0DBB1D8C918093BA01AAEBB1E000
:103B90008C918F708C9385E08093B7020C940321F5
:103BA000073111F00C94F41D81E08093B7018BEA8A
:103BB0008093B801AAE9B1E0AD90BD90A8E2B5E06C
:103BC000AA0DBB1D8C918093BA01AAEBB1E08C9138
:103BD000807F8C9394E0AAEBB1E00E94F3E885E04B
:103BE0008093B7020C940321083111F00C940E1E3F
:103BF00081E08093B7018DEA8093B801AAE9B1E032
:103C0000AD90BD90A9E2B5E0AA0DBB1D8C9180934B
:103C1000BA0185E08093B7020C940321093111F0B9
:103C20000C94571E81E08093B7018FEA8093B8010E
:103C3000AAE9B1E00D911C91015F1F4FAAE9B1E023
:103C40000D931C93AAE9B1E0AD90BD90ABE1B5E056
:103C5000AA0DBB1D8C9180939D01AAE9B1E00E9441
:103C600099E7AAE9B1E0AD90BD90ABE1B5E0AA0D4E
:103C7000BB1D8C9180939C0183E38A93ECECFEEC5A
:103C80000E947AE9ACE9B1E00D911C910E9467E9CC
:103C9000A4E9B1E00C930091940142E0041BAAEB6B
:103CA000B1E00C9385E08093B7020C9403210A31B4
:103CB00011F00C94A01E81E08093B70181EB8093FA
:103CC000B801AAE9B1E00D911C910E5E1F4FAAE95F
:103CD000B1E00D931C93AAE9B1E0AD90BD90ABE1CA
:103CE000B5E0AA0DBB1D8C9180939D01AAE9B1E0BE
:103CF0000E9499E7AAE9B1E0AD90BD90ABE1B5E0D3
:103D0000AA0DBB1D8C9180939C0183E38A93ECECFC
:103D1000FEEC0E947AE9ACE9B1E00D911C910E94A1
:103D200067E9A4E9B1E00C930091940142E0041B1F
:103D3000AAEBB1E00C9385E08093B7020C940321C9
:103D40000B3111F00C941A1F81E08093B70183EBC3
:103D50008093B801AAE9B1E00D911C910A5E1F4F52
:103D6000AAE9B1E00D931C93AAE9B1E0AD90BD9032
:103D7000ABE1B5E0AA0DBB1D0D91112740E450E069
:103D80000E94B8E8AAE9B1E00D931C93AAE9B1E05A
:103D90000E9499E7AAE9B1E0AD90BD90ABE1B5E032
:103DA000AA0DBB1D0C9140EF0423A4E9B1E00C93D4
:103DB00094E0A4E9B1E00E94F3E8A4E9B1E00C9139
:103DC00048E0049F0C92AAE9B1E00D911C91A4E98E
:103DD000B1E04D915527040F151FAAE9B1E00D93ED
:103DE0001C93AAE9B1E0AD90BD90ABE1B5E0AA0D9E
:103DF000BB1D0C914FE00423A4E9B1E00C93AAE9A8
:103E0000B1E00D911C91A4E9B1E04D915527040F4B
:103E1000151FAAE9B1E00D931C9380919B0180933B
:103E2000BA0180919A018093BB0186E08093B7022A
:103E30000C9403210C3111F00C944A1F81E0809303
:103E4000B70185EB8093B801AAE9B1E0AD90BD90D0
:103E5000AEE2B5E0AA0DBB1D0C9140EF0423AAEB26
:103E6000B1E00C9394E0AAEBB1E00E94F3E8AAE978
:103E7000B1E0AD90BD90AEE2B5E0AA0DBB1D0C91D6
:103E80004FE00423ABEBB1E00C9386E08093B702E4
:103E90000C9403210D3111F00C94671F81E0809385
:103EA000B70187EB8093B801AAE9B1E0AD90BD906E
:103EB000A1E3B5E0AA0DBB1D9C910E9494E8AAEB7A
:103EC000B1E08C9385E08093B7020C9403210E310E
:103ED00011F00C94F51F81E08093B70189EB80937A
:103EE000B801AAE9B1E00D911C91075E1F4FAAE944
:103EF000B1E00D931C93AAE9B1E0AD90BD90ABE1A8
:103F0000B5E0AA0DBB1D9C910E9494E8082F1127D3
:103F10002227332744E650E060E070E00E94C2E8C8
:103F2000ACEDB3E00D931D932D933D93AAE9B1E061
:103F30000E94A0E7AAE9B1E0AD90BD90ABE1B5E089
:103F4000AA0DBB1D9C910E9494E8082F112744E6FE
:103F500050E00E94B8E8AAE9B1E00D931C93ACEDE3
:103F6000B3E00D911D912D913C91AAE9B1E04D91E5
:103F70005C91662777270E9486E9ACEDB3E00D934C
:103F80001D932D933D93AAE9B1E00E94A0E7ACED0B
:103F9000B3E00D911D912D913C91AAE9B1E0AD9056
:103FA000BD90ABE1B5E0AA0DBB1D9C910E9494E8C9
:103FB000482F5527662777270E9486E9ACEDB3E0A6
:103FC0000D931D932D933D938091DE038093BA0151
:103FD0008091DD038093BB018091DC038093BC0161
:103FE00087E08093B7020C9403210F3111F00C94F9
:103FF000392081E08093B7018BEB8093B80188E092
:104000008093BA01AAE9B1E00D911C91095E1F4F9E
:10401000AAE9B1E00D931C9381E080939401009193
:104020009401083018F011F00C943420AAE9B1E0A2
:10403000AD90BD90ABE1B5E0AA0DBB1D8C91A4E99C
:10404000B1E0AD90BB24AAEBB1E0AA0DBB1D8C93EF
:10405000AAE9B1E00E9499E7A4E9B1E08C918F5FF1
:104060008C9310F40C940F208DE08093B7020C9485
:104070000321003211F00C947D2081E08093B70180
:104080008DEB8093B80188E08093BA01AAE9B1E092
:104090000D911C91015E1F4FAAE9B1E00D931C9395
:1040A00081E08093940100919401083018F011F0A0
:1040B0000C947820AAE9B1E0AD90BD90ABE1B5E0F9
:1040C000AA0DBB1D8C91A4E9B1E0AD90BB24AAEB75
:1040D000B1E0AA0DBB1D8C93AAE9B1E00E9499E75B
:1040E000A4E9B1E08C918F5F8C9310F40C94532071
:1040F0008DE08093B7020C940321013211F00C94EF
:10410000C12081E08093B7018FEB8093B80188E0F4
:104110008093BA01AAE9B1E00D911C91095D1F4F8E
:10412000AAE9B1E00D931C9381E080939401009182
:104130009401083018F011F00C94BC20AAE9B1E009
:10414000AD90BD90ABE1B5E0AA0DBB1D8C91A4E98B
:10415000B1E0AD90BB24AAEBB1E0AA0DBB1D8C93DE
:10416000AAE9B1E00E9499E7A4E9B1E08C918F5FE0
:104170008C9310F40C9497208DE08093B7020C94EC
:104180000321023211F00C94032181E08093B701E6
:1041900081EC8093B80180E18093BA01AAE9B1E093
:1041A0000D911C910D591F4FAAE9B1E00D931C937D
:1041B00081E08093940100919401003118F011F096
:1041C0000C940021AAE9B1E0AD90BD90ABE1B5E05F
:1041D000AA0DBB1D8C91A4E9B1E0AD90BB24AAEB64
:1041E000B1E0AA0DBB1D8C93AAE9B1E00E9499E74A
:1041F000A4E9B1E08C918F5F8C9310F40C94DB20D8
:1042000085E18093B70280E0809301340C940F2104
:1042100086E08093BD038091B7038093BE03089529
:1042200000E010E020E030E0A0EAB1E00D931D9343
:104230002D933C93A8E9B1E0AD90BB24ADE1B4E08F
:10424000AA0DBB1D8C9180939401909194010E94C2
:1042500094E8A4E9B1E08C93A4E9B1E08C91A0EAE0
:10426000B1E08D9388278D938D938C93A8E9B1E06D
:104270008C918F5F8C93A8E9B1E0AD90BB24ADE148
:10428000B4E0AA0DBB1D8C91809394019091940190
:104290000E9494E8A4E9B1E08C93A4E9B1E00C9108
:1042A00011272227332744E650E060E070E00E94A7
:1042B000C2E8A4EAB1E00D931D932D933D93A0EACB
:1042C000B1E00D911D912D913C91A4EAB1E04D9189
:1042D0005D916D917C910E9486E9A0EAB1E00D9319
:1042E0001D932D933D93A8E9B1E08C918F5F8C9342
:1042F000A8E9B1E0AD90BB24ADE1B4E0AA0DBB1DCF
:104300008C9180939401909194010E9494E8A4E987
:10431000B1E08C93A4E9B1E00C9111272227332757
:1043200040E157E260E070E00E94C2E8A4EAB1E038
:104330000D931D932D933D93A0EAB1E00D911D9136
:104340002D913C91A4EAB1E04D915D916D917C91EC
:104350000E9486E9A0EAB1E00D931D932D933D9351
:10436000A8E9B1E08C918F5F8C93A8E9B1E0AD90A2
:10437000BB24ADE1B4E0AA0DBB1D8C9180939401E8
:10438000909194010E9494E8A4E9B1E08C93A4E98F
:10439000B1E00C9111272227332740E452E46FE06B
:1043A00070E00E94C2E8A4EAB1E00D931D932D9342
:1043B0003D93A0EAB1E00D911D912D913C91A4EAAD
:1043C000B1E04D915D916D917C910E9486E9A0EAEA
:1043D000B1E00D931D932D933D93A8E9B1E08C912D
:1043E0008F5F8C93A8E9B1E0AD90BB24ADE1B4E060
:1043F000AA0DBB1D8C9180939401909194010E9411
:1044000094E8A4E9B1E08C93A4E9B1E00C91112700
:104410002227332740E051EE65EF75E00E94C2E8A5
:10442000A4EAB1E00D931D932D933D93A0EAB1E072
:104430000D911D912D913C91A4EAB1E04D915D91BA
:104440006D917C910E9486E9A0EAB1E00D931D93E5
:104450002D933D93A0EAB1E00D911D912D913C91DA
:1044600040E355E760E070E00E948BE9A0EAB1E02C
:104470000D931D932D933D9384E08093940140917F
:10448000940101E0041718F011F00C946622A4E9DD
:10449000B1E0AD90BB24AFE9B1E0AA0DBB1D8C919A
:1044A000A7EBB2E0AD90BB24A6EBB1E0AA0DBB1D1B
:1044B0008C93A7EBB2E08C918F5F8C9380919401E9
:1044C00081508093940110F00C943F220895009144
:1044D00026044FE00423A9EBB1E00C9300912604DD
:1044E00040EF0423AAEBB1E00C9394E0AAEBB1E017
:1044F0000E94F3E80895909128040E9494E8082F00
:1045000011272227332740E157E260E070E00E9444
:10451000C2E8A0EAB1E00D931D932D933D939091D5
:1045200027040E9494E8082F112744E650E00E94D7
:10453000B8E8ACE9B1E00D931C93A0EAB1E00D91AD
:104540001D912D913C91ACE9B1E04D915C916627B4
:1045500077270E9486E9A0EAB1E00D931D932D9381
:104560003D93A0EAB1E00D911D912D913C91909168
:1045700026040E9494E8482F5527662777270E9433
:1045800086E9A0EAB1E00D931D932D933D93A0EA37
:10459000B1E00D911D912D913C914AE050E060E019
:1045A00070E00E9435E8A0EAB1E04D935D936D9311
:1045B0007D9300912904003011F00C94F322A0EABD
:1045C000B1E00D911D912D913C914FE057E260E0DB
:1045D00070E00E9486E9A0EAB1E00D931D932D934F
:1045E0003D930C9405230FE017E220E030E0A0EAB1
:1045F000B1E04D915D916D917C910E948BE9A0EAB3
:10460000B1E00D931D932D933D93A0EAB1E08D9100
:104610009C91AAE9B1E08D939C9380919B0180933A
:10462000B90180919A018093BA0185E08093B70225
:104630000895009124040F3F10F00C94142500916C
:10464000240441E0041BA9EBB1E00C930091980114
:1046500044E0040FA7E9B1E00C93A7E9B1E0AD9005
:10466000BB24ADE1B4E0AA0DBB1D9C910E9494E86F
:10467000082F11272227332740E051EE65EF75E020
:104680000E94C2E8A0EAB1E00D931D932D933D93E3
:104690000091980143E0040FA7E9B1E00C93A7E96A
:1046A000B1E0AD90BB24ADE1B4E0AA0DBB1D9C917F
:1046B0000E9494E8082F11272227332740E452E470
:1046C0006FE070E00E94C2E8A4EAB1E00D931D9390
:1046D0002D933D93A0EAB1E00D911D912D913C9158
:1046E000A4EAB1E04D915D916D917C910E9486E9C3
:1046F000A0EAB1E00D931D932D933D930091980195
:1047000042E0040FA7E9B1E00C93A7E9B1E0AD9056
:10471000BB24ADE1B4E0AA0DBB1D9C910E9494E8BE
:10472000082F11272227332740E157E260E070E08D
:104730000E94C2E8A4EAB1E00D931D932D933D932E
:10474000A0EAB1E00D911D912D913C91A4EAB1E058
:104750004D915D916D917C910E9486E9A0EAB1E056
:104760000D931D932D933D930091980141E0040F0B
:10477000A7E9B1E00C93A7E9B1E0AD90BB24ADE1AE
:10478000B4E0AA0DBB1D9C910E9494E8082F11274C
:104790002227332744E650E060E070E00E94C2E840
:1047A000A4EAB1E00D931D932D933D93A0EAB1E0EF
:1047B0000D911D912D913C91A4EAB1E04D915D9137
:1047C0006D917C910E9486E9A0EAB1E00D931D9362
:1047D0002D933D93A0EAB1E00D911D912D913C9157
:1047E000A8E9B1E0AD90BB24ADE1B4E0AA0DBB1DDA
:1047F0009C910E9494E8482F5527662777270E94AE
:1048000086E9A0EAB1E00D931D932D933D9380912D
:10481000A3018093BA018091A2018093BB01809192
:10482000A1018093BC018091A0018093BD01009102
:1048300098014AE0040FA7E9B1E00C93A7E9B1E0C1
:10484000AD90BB24ADE1B4E0AA0DBB1D9C910E94CC
:1048500094E8082F11272227332740E051EE65EF17
:1048600075E00E94C2E8A0EAB1E00D931D932D937C
:104870003D930091980149E0040FA7E9B1E00C9342
:10488000A7E9B1E0AD90BB24ADE1B4E0AA0DBB1D3A
:104890009C910E9494E8082F11272227332740E497
:1048A00052E46FE070E00E94C2E8A4EAB1E00D9328
:1048B0001D932D933D93A0EAB1E00D911D912D9193
:1048C0003C91A4EAB1E04D915D916D917C910E9483
:1048D00086E9A0EAB1E00D931D932D933D930091DD
:1048E000980148E0040FA7E9B1E00C93A7E9B1E013
:1048F000AD90BB24ADE1B4E0AA0DBB1D9C910E941C
:1049000094E8082F11272227332740E157E260E07F
:1049100070E00E94C2E8A4EAB1E00D931D932D93CC
:104920003D93A0EAB1E00D911D912D913C91A4EA37
:10493000B1E04D915D916D917C910E9486E9A0EA74
:10494000B1E00D931D932D933D930091980147E0A5
:10495000040FA7E9B1E00C93A7E9B1E0AD90BB2447
:10496000ADE1B4E0AA0DBB1D9C910E9494E8082F14
:1049700011272227332744E650E060E070E00E94D0
:10498000C2E8A4EAB1E00D931D932D933D93A0EAF4
:10499000B1E00D911D912D913C91A4EAB1E04D91B2
:1049A0005D916D917C910E9486E9A0EAB1E00D9342
:1049B0001D932D933D930091980146E0040FA7E9C4
:1049C000B1E00C93A0EAB1E00D911D912D913C91C5
:1049D000A7E9B1E0AD90BB24ADE1B4E0AA0DBB1DE9
:1049E0009C910E9494E8482F5527662777270E94BC
:1049F00086E9A0EAB1E00D931D932D933D9380913C
:104A0000A3018093BE018091A2018093BF01809198
:104A1000A1018093C0018091A0018093C1018CE02D
:104A20008093B7020C941E2586E08093BD0380918D
:104A3000B7038093BE0381E08093B70208959091FD
:104A400028040E9494E8082F11272227332748EED4
:104A500053E060E070E00E94C2E8A0EAB1E00D938C
:104A60001D932D933D93909127040E9494E8082F65
:104A70001127222733274AE050E060E070E00E94CF
:104A8000C2E8A4EAB1E00D931D932D933D93A0EAF3
:104A9000B1E00D911D912D913C91A4EAB1E04D91B1
:104AA0005D916D917C910E9486E9A0EAB1E00D9341
:104AB0001D932D933D93809126048093940194E05F
:104AC000A4E9B1E00E94F3E8A0EAB1E00D911D91E4
:104AD0002D913C91A4E9B1E04C91552766277727A9
:104AE0000E9486E9A0EAB1E00D931D932D933D93BA
:104AF000A0EAB1E00D911C91A0EEB3E04D915C9164
:104B0000041B150BAAE9B1E00D931C9380919B0146
:104B10008093BA0180919A018093BB0190912B04FC
:104B20000E9494E8082F11272227332748EE53E0EC
:104B300060E070E00E94C2E8A8EAB1E00D931D9326
:104B40002D933D9390912A040E9494E8082F1127F9
:104B5000222733274AE050E060E070E00E94C2E87C
:104B6000A4EAB1E00D931D932D933D93A8EAB1E023
:104B70000D911D912D913C91A4EAB1E04D915D9173
:104B80006D917C910E9486E9A8EAB1E00D931D9396
:104B90002D933D93809129048093940194E0A4E99E
:104BA000B1E00E94F3E8A8EAB1E00D911D912D91CA
:104BB0003C91A4E9B1E04C915527662777270E94E4
:104BC00086E9A8EAB1E00D931D932D933D93A8EAE1
:104BD000B1E00D911C91A0EAB1E04D915C91041BF4
:104BE000150BAAE9B1E00D931C93AAE9B1E00D9170
:104BF0001C9105501040AAE9B1E00D931C938091DF
:104C00009B018093BC0180919A018093BD0188E053
:104C10008093B702089504E640912604049FA9EB0F
:104C2000B1E00C920091B9010F93909127040E947A
:104C300094E8482F0F91040FA9EBB1E00C9304E620
:104C400040912804049FAAEBB1E00C920091BA01B4
:104C50000F93909129040E9494E8482F0F91040F1C
:104C6000AAEBB1E00C9304E640912A04049FABEB5D
:104C7000B1E00C920091BB010F9390912B040E9424
:104C800094E8482F0F91040FABEBB1E00C9386E052
:104C90008093B702089580E090E0AAE9B1E08D9397
:104CA0009C93A8E9B1E0AD90BB24ADE1B4E0AA0DBE
:104CB000BB1D8C9180939B01A8E9B1E0AD90BB2412
:104CC000AEE1B4E0AA0DBB1D8C9180939A0183E301
:104CD0008A93ECECFEEC0E947AE9AAE9B1E00D912E
:104CE0001C910E9467E9A4E9B1E00C930091940142
:104CF00042E0041BA7EBB2E0AD90BB24A6EBB1E011
:104D0000AA0DBB1D0C93A7EBB2E08C918F5F8C9327
:104D10000895909126040E9494E8A9EBB1E08C9349
:104D2000909127040E9494E8082F112740E157E250
:104D30000E94B8E8AAE9B1E00D931C939091280471
:104D40000E9494E8082F112744E650E00E94B8E83A
:104D5000ACE9B1E00D931C93AAE9B1E00D911C916F
:104D6000ACE9B1E04D915C91040F151FAAE9B1E0E7
:104D70000D931C93AAE9B1E00D911C910F931F9321
:104D8000909129040E9494E8482F55271F910F9174
:104D9000040F151FAAE9B1E00D931C9380919B01AC
:104DA0008093030180919A018093040180912A04E9
:104DB0008093050100912B0444E6049FA6E0B1E036
:104DC0000C920091060140912C04040FA6E0B1E082
:104DD0000C9390912C040E9494E8082F112740E135
:104DE00057E20E94B8E8AAE9B1E00D931C939091B4
:104DF0002D040E9494E8082F112744E650E00E94F9
:104E0000B8E8ACE9B1E00D931C93AAE9B1E00D91CB
:104E10001C91ACE9B1E04D915C91040F151FAAE91A
:104E2000B1E00D931C93AAE9B1E00D911C910F9391
:104E30001F9390912E040E9494E8482F55271F91AC
:104E40000F91040F151FAAE9B1E00D931C938091F7
:104E50009B018093070180919A01809308018091C2
:104E60002E048093090190912F040E9494E8082F4A
:104E7000112740E157E20E94B8E8AAE9B1E00D939A
:104E80001C93909130040E9494E8082F112744E667
:104E900050E00E94B8E8ACE9B1E00D931C93AAE998
:104EA000B1E00D911C91ACE9B1E04D915C91040F22
:104EB000151FAAE9B1E00D931C93AAE9B1E00D9189
:104EC0001C910F931F93909131040E9494E8482FF6
:104ED00055271F910F91040F151FAAE9B1E00D93FB
:104EE0001C9380919B0180930A0180919A01809389
:104EF0000B018091320480930C018EE08093B70205
:104F000008950091190549E0041BA9EBB1E00C9349
:104F100084E08093950189E0809394014091190584
:104F200000919401041718F011F00C94B627A4E92D
:104F3000B1E0AD90BB24ADE1B4E0AA0DBB1D8C91F6
:104F4000A5E9B1E0AD90BB24AFEFB0E0AA0DBB1D69
:104F50008C93A5E9B1E08C918F5F8C93A4E9B1E0CB
:104F60008C918F5F8C9310F40C948E27009119050F
:104F700046E0041BA7EBB2E00C93089500912204D5
:104F80000A3110F00C945A2A81E08093B701009105
:104F90002204023011F00C94D72784E08093B801EA
:104FA00086E0809398010E9419230C94582A0330BC
:104FB00011F00C94E82781E08093B80186E080939B
:104FC000980183E08093B7020E9410210C94582A24
:104FD000043011F00C94312883E08093B801809163
:104FE00023048093B9010091B901073111F00C94A9
:104FF000FE2788E08093B9010C9417280091B9012D
:10500000023211F00C94092889E08093B9010C94C4
:1050100017280091B901053018F011F00C941228EE
:105020000C941728A9EBB1E08C918F5F8C930091C1
:10503000240441E0041BAAEBB1E00C9385E08093CB
:10504000B7020091FD33083610F00C942F28ADEF15
:10505000B3E38C918F5F8C9380E08093FE330C944C
:10506000582A073011F00C94412888E08093B80149
:10507000809124048093B90184E08093B7020C945A
:10508000582A0F3011F00C94612887E18093B80101
:10509000809123048093B90100912304013018F01A
:1050A00011F00C9455280C945C28009123044FE0D7
:1050B000041BA9EBB1E00C9384E08093B7020C943D
:1050C000582A003111F00C94772889E18093B801B7
:1050D000909123040E9494E8082F41E0041BA9EB5F
:1050E000B1E00C9384E08093B7020C94582A01310C
:1050F00011F00C948F288BE18093B80180E08093AD
:10510000B90100912304003111F00C948A2881E048
:105110008093B90184E08093B7020C94582A04313B
:1051200011F00C94F52888E18093950100912304F7
:1051300042E0049FA4E9B1E00C9200912304043002
:1051400010F00C94A62800000C94D228009123049F
:10515000003110F00C94B328A4E9B1E08C91845094
:105160008C930C94D22800912304033110F00C94FA
:10517000C028A4E9B1E08C9188508C930C94D2287B
:1051800000912304093110F00C94CD28A4E9B1E07A
:105190008C918C508C930C94D228A4E9B1E08C9122
:1051A0008E508C930091950140919401040FA8EBCF
:1051B000B1E00C930091240444E6049FA4E9B1E01B
:1051C0000C92909125040E9494E8A5E9B1E08C939B
:1051D0000091940140919501040FA9EBB1E00C936B
:1051E00084E08093B7020C94582A053111F00C9496
:1051F0007E2900912304013011F00C94082981E4E8
:105200008093B801809124048093B9010C9479298A
:10521000023011F00C94272982E48093B8010091A8
:10522000240444E6049FA9EBB1E00C92909125047C
:105230000E9494E8A4E9B1E08C930091B9014091F7
:105240009401040FA9EBB1E00C930C94792905307B
:1052500011F00C94342983E48093B80180912404E4
:105260008093B9010C947929073011F00C944129ED
:1052700084E48093B801809124048093B9010C9454
:10528000792900912304013181E008F480E08F93B3
:1052900000912304063181E010F009F080E09F9135
:1052A0008923882311F40C9479290091230441E186
:1052B000041BA4E9B1E00C9304E440919401040FB1
:1052C000A8EBB1E00C930091240444E6049FA9EB01
:1052D000B1E00C92909125040E9494E8A4E9B1E019
:1052E0008C930091B90140919401040FA9EBB1E0B6
:1052F0000C9384E08093B7020C94582A063111F085
:105300000C944A2A00912304023011F00C948D2948
:105310008CE48093B8010C941E2A023111F00C9495
:1053200096298EE48093B8010C941E2A023211F063
:105330000C949F2980E58093B8010C941E2A00915B
:105340002304003481E008F480E08F93009123046B
:10535000083481E010F009F080E09F9189238823D0
:1053600011F40C94C9290091230440E4041BA4E91E
:10537000B1E00C93A4E9B1E00C9142E0049F0C92DF
:1053800002E540919401040FA8EBB1E00C930C945A
:105390001E2A0A3411F00C94D22984E68093B801B5
:1053A0000C941E2A0B3411F00C94DB2986E68093B2
:1053B000B8010C941E2A0F3411F00C94E42988E6ED
:1053C0008093B8010C941E2A003511F00C94ED293D
:1053D0008AE68093B8010C941E2A009123040635B6
:1053E00081E008F480E08F93009123040D3581E083
:1053F00010F009F080E09F918923882311F40C9428
:10540000172A0091230448E5041BA4E9B1E00C939A
:10541000A4E9B1E00C9142E0049F0C920CE64091AB
:105420009401040FA8EBB1E00C930C941E2A0536EE
:1054300011F00C941E2A8CE78093B801809124040B
:105440008093B90184E08093B702009123040A3568
:1054500011F00C942F2A8091240480937C340091C5
:1054600023040D3581E009F080E08F93009124043E
:10547000033080E010F009F081E09F9189238823B8
:1054800011F40C94482AA9EBB1E08C9182508C93D2
:105490000C94582A093111F00C94582A8FE7809304
:1054A000B801809123048093B90184E08093B7020E
:1054B0000C94A234009122040B3110F00C94372F7D
:1054C00000912304053010F00C94382B81E0809378
:1054D000B70100912304003011F00C947D2A009153
:1054E000FD330C3610F00C94792A0E9466180C9447
:1054F0007B2A0E9431190C94362B013011F00C9448
:10550000D82A00917634003018F011F00C948A2AD1
:105510000C94D62A8AE1A0E0B1E08D9388278C9381
:1055200081E0A0E0B1E00E94EFE78D9388278C93A3
:10553000809176348093020181E08093030181E0C1
:1055400080939401009194010E3018F011F00C94A6
:10555000C32AA4E9B1E0AD90BB24A5E2B4E0AA0D52
:10556000BB1D8C91A4E9B1E0AD90BB24A3E0B1E0F8
:10557000AA0DBB1D8C93A4E9B1E08C918F5F8C9335
:1055800010F40C94A22AE6EBF4ED0E947AE90E9452
:10559000F6E70E9402E882E18093DA030E94B207F4
:1055A00081E08093B70280E0809376340C94362BB0
:1055B000023011F00C94162B85EC8093B80180E03A
:1055C0008093B90187E0809394014091190500917F
:1055D0009401041718F011F00C940D2BA4E9B1E01C
:1055E000AD90BB24ADE1B4E0AA0DBB1D8C91A4E944
:1055F000B1E0AD90BB24A2EBB1E0AA0DBB1D8C9332
:10560000A9EBB1E08C918F5F8C93A4E9B1E08C9110
:105610008F5F8C9310F40C94E52A0091B90143E05C
:10562000040FA7EBB2E00C930C94362B033011F06F
:105630000C94272B80917D348093B80180912404B1
:105640008093B90184E08093B7020C94362B043028
:1056500011F00C94362B80917D348093B8018091A9
:1056600024048093B90184E08093B7020C94352F11
:1056700000912304053011F00C94E02EA4E2B4E074
:105680000D91112744E650E00E94B8E8AFEFB3E374
:105690000D931C93AFEFB3E30D911C910F931F93E8
:1056A000909125040E9494E8482F55271F910F914F
:1056B000040F151FAFEFB3E30D931C93AFEFB3E3EC
:1056C0000D911C91013050E0150781E008F480E055
:1056D0008F93AFEFB3E30D911C91043650E01507A3
:1056E00081E010F009F080E09F918923882311F474
:1056F0000C945B2CAFEFB3E30D911C910150104063
:10570000AFEFB3E30D931C93E9E5FCE2EF93FF9356
:10571000E3E9FBE2AFEFB3E38D919C91880F991F12
:10572000E80FF91F09940C94197D0C94347D0C94A6
:10573000457D0C94537D0C946E7D0C947C7D0C9473
:105740008A7D0C94A57D0C94B37D0C94C17D0C9442
:10575000DC7D0C94EA7D0C94F87D0C94137E0C9403
:105760002E7E0C943C7E0C944A7E0C94567E0C94B7
:10577000627E0C946E7E0C947A7E0C94887E0C94DF
:10578000967E0C94A47E0C94B27E0C94C07E0C94F5
:10579000CE7E0C94EC7E0C94FA7E0C94087F0C94D4
:1057A000167F0C94487F0C947A7F0C94887F0C941D
:1057B000967F0C94A47F0C94B27F0C94C07F0C94C1
:1057C000CE7F0C94DC7F0C94EA7F0C94F87F0C94D1
:1057D00006800C9414800C941D800C942B800C94E7
:1057E00039800C9447800C9455800C9463800C9401
:1057F00071800C947F800C948D800C949B800C9411
:10580000A9800C94B7800C94C5800C94E3800C9410
:10581000F1800C94FF800C940D810C941B810C94EE
:1058200029810C9437810C9445810C9453810C94FC
:1058300061810C946F810C947D810C948B810C940C
:1058400099810C94A7810C94C5810C94E3810C94EC
:10585000F1810C94FF810C940D820C941B820C94AA
:1058600029820C943A820C9448820C9456820C94AF
:1058700064820C9472820C9480820C948E820C94BC
:10588000AC820C94BA820C94C8820C94D6820C948C
:10589000E4820C94F2820C9400830C940E830C949A
:1058A0001C830C942A830C9438830C9449830C94A5
:1058B00057830C94DE2EAFEFB3E30D911C910536A8
:1058C00050E0150781E008F480E08F93AFEFB3E379
:1058D0000D911C91073C50E0150781E010F009F094
:1058E00080E09F918923882311F40C945A2DAFEF07
:1058F000B3E30D911C9104561040AFEFB3E30D9349
:105900001C93E8E5FDE2EF93FF93E0E9FCE2AFEFE3
:10591000B3E38D919C91880F991FE80FF91F0994AB
:105920000C9465830C9473830C9491830C949F83E3
:105930000C94AD830C94CB830C94D9830C94F78393
:105940000C9405840C9413840C9431840C943F843F
:105950000C944D840C946B840C9489840C94A784CF
:105960000C94B5840C94C3840C94D1840C94DF847F
:105970000C94ED840C94FB840C9409850C9417858D
:105980000C9425850C9433850C9441850C944F859B
:105990000C945D850C947B850C9489850C9497857B
:1059A0000C94A5850C94B3850C94C1850C94CF857B
:1059B0000C94DD850C94EB850C94F9850C9416867B
:1059C0000C9433860C9444860C9475860C94A686AD
:1059D0000C94D7860C9422870C9430870C943E87C5
:1059E0000C9492870C94E6870C943A880C9448881F
:1059F0000C9493880C94B1880C94BF880C94CD8837
:105A00000C94DB880C94E9880C94F7880C94058935
:105A10000C9413890C9421890C942F890C943D8942
:105A20000C944B890C9459890C9467890C94758952
:105A30000C9483890C9491890C949F890C94AD8962
:105A40000C94BB890C94C9890C94D7890C94E58972
:105A50000C94F3890C94018A0C940F8A0C941D8A7F
:105A60000C943C8A0C94548A0C94628A0C94938A09
:105A70000C94A18A0C94F38A0C94018B0C940F8BD8
:105A80000C941D8B0C942B8B0C94398B0C94478BA2
:105A90000C94598B0C94678B0C94758B0C947E8BA7
:105AA0000C94878B0C94908B0C949E8B0C94AC8BE9
:105AB0000C94DE2EAFEFB3E30D911C91093C50E046
:105AC000150781E008F480E08F93AFEFB3E30D9109
:105AD0001C910B3251E0150781E010F009F080E0D5
