:100000000C94460018950000189500001895000003
:10001000189500001895000018950000189500002C
:10002000189500001895000018950000189500001C
:10003000189500001895000018950000189500000C
:1000400018950000189500001895000018950000FC
:100050000C94BE0518950000189500001895000036
:1000600018950000189500000C94370618950000AC
:1000700018950000189500001895000018950000CC
:100080001895000018950000189500008FEF8DBF9F
:10009000C8EDE0EC4E2E80E48EBFD0E4F0E45F2E9D
:1000A000A89584B7082E877F84BF88E1992780931D
:1000B000600090936000EEEFFFE3A0E0B1E08827DE
:1000C0008D933197E9F780E48093C40080E08093BA
:1000D000C50088E18093C1006624E0E0FF2700812D
:1000E000AAE7B1E00C93AAE7B1E00C9103FB16F08C
:1000F0000C94830082E08093BF038091B9038093C6
:10010000C0030C9486008FEF8093BF0322982A9A35
:1001100074B7777F74BF8FE197E08093600090930E
:10012000600078947091C10070687093C100709104
:10013000BC0071607093BC003B9A80E48093CC005B
:1001400080E08093CD007091C8007D7F7093C800DF
:1001500087E08093CA0088E18093C9001A990C94C3
:10016000B3000E940D03E0E0F0E0A0E1B0E00E94E7
:10017000D5EA053011F40C94BF000E940D030E94D3
:10018000560380916000886080936000ADEAB1E022
:100190008C918F5F8C930091AD010F3F11F00C9407
:1001A0005F01ACEAB1E08C918F5F8C930091AC0160
:1001B0000A3511F00C9405010091C303003018F0CA
:1001C00011F00C94E5000C940301A3ECB3E08C91C6
:1001D0008F5F8C930091C303083218F011F00C94D8
:1001E000F3000C94030181E08093B80281E08093D6
:1001F000B90280E08093C30385E08093BF038091C0
:10020000B9038093C0030C945F01043B11F00C947C
:10021000340100919201013081E009F080E08F9378
:10022000A6E2B0E00C9104FB81E00EF480E09F9127
:100230008923882311F40C942F01AEEAB1E08C914C
:100240008F5F8C930091AE01053018F011F00C9483
:100250002B010C942D010E941F060C94320180E0AA
:100260008093AE010C945F010F3F11F00C945F017D
:10027000A1ECB3E00D911C91003050E0150718F08F
:1002800011F00C9445010C944901A1ECB3E00E94DB
:1002900053E8A1ECB3E00D911C91083250E0150732
:1002A00018F011F00C9456010C945F0183E08093D8
:1002B000BF038091B9038093C0030E9448040E9449
:1002C000C6E8A4E9B1E08C9300919401013011F0EB
:1002D0000C940F020E94CCE8A4E9B1E08C93009149
:1002E000D303003011F00C94780181E08093D303A4
:1002F00000911B050A3F10F00C9406020091940136
:100300000D3F11F40C94960180919401ABE1B5E09E
:10031000AD90BB24AFE1B4E0AA0DBB1D8C93ABE163
:10032000B5E08C918F5F8C930C94040200911B05B7
:10033000063010F00C94A5018BE08093BF038091F0
:10034000B9038093C0030C94020280EE80932204D0
:1003500000911B05063011F00C94E40191E09A9392
:10036000A0E2B4E0EFEFF3E022270E94C0E9A4E9A5
:10037000B1E00C9300919401003011F00C94E20173
:1003800091E09A93A0E2B4E0EAE0F4E022270E9430
:10039000C0E9A4E9B1E00C9300919401013011F09F
:1003A0000C94DB018AE08093BF038091B9038093B2
:1003B000C0030C94E2018BE08093BF038091B903EA
:1003C0008093C0030C940202A0E2B4E0E9EEF3E0F3
:1003D000222791E00E94C5E9A5E9B1E00C930091C4
:1003E0009501013011F00C94FB010E943D280E9400
:1003F0006B040C9402028DE08093BF038091B903DB
:100400008093C0030E9411080C940F0289E080932E
:10041000BF038091B9038093C0030E9411088EE648
:100420008093FF330091FF330E3610F00C946D0271
:100430000091FF330D3611F00C9428020E944336D0
:1004400088E68093FF3381E0809300340C9460024F
:100450000C3611F00C94390200910034003011F088
:100460000C9437020E942C3681E0809300340C9467
:1004700060020B3611F00C944A02009100340030F7
:1004800011F00C9448020E94F55B81E080930034E7
:100490000C9460020B3610F00C9460020091003452
:1004A000003011F00C9460028091FF338093BC0205
:1004B00080E0809394010E94941481E08093003442
:1004C0009FB7F89480916000886180936000877E78
:1004D000809360009FBF0C94C1000091BB0300306B
:1004E00018F011F00C9476020C940A0380E08093CB
:1004F000BB030091B902013018F011F00C94820294
:100500000C948E0280E08093B70186E08093BF0355
:100510008091B9038093C0030C940A03A1ECB3E06B
:100520000D911C91003050E0150711F00C949C02C5
:10053000A1ECB3E00E9453E80091BA02003011F040
:100540000C94A6020E946C990C940A030091B701C6
:10055000023010F40C940A038091B7018093B60125
:10056000009193014091BA030423A7E9B1E00C93F1
:1005700000919301013081E009F080E08F930091B8
:10058000BA03013081E009F080E09F91892388233C
:1005900011F40C94CF020E948B990C940A030091E1
:1005A0009201013081E009F080E08F930091BA035D
:1005B000023081E009F080E09F918923882311F4C3
:1005C0000C94E6020E948B990C940A030091BA02E3
:1005D0000F3F81E009F080E08F930091BB020E3F56
:1005E00081E009F080E09F918923882311F40C9425
:1005F000FD020E948B990C940A0380E08093B6015F
:1006000080E08093B70186E08093BF038091B903B7
:100610008093C003A8950C94C100E1E0F0E00E9433
:10062000DFE8E6E1F0E0A0E1BB2781E08C937BE727
:100630000E94B9EAA42DB52DEEEFF5ED0E9434EA43
:100640000E949FE9E1E0F0E0D2017BE70E94CAEA64
:10065000E7E1F0E0A0E1BB2782E48C937BE70E9416
:10066000B9EAE8E1F0E0A0E1BB2781E08C937BE709
:100670000E94B9EAE9E1F0E0A0E1BB2781E08C93B8
:100680007BE70E94B9EAEBE1F0E0A0E1BB2784E957
:100690008C937BE70E94B9EAE0E0F0E0A0E1BB27A1
:1006A00085E08C937BE70E94B9EA0895E6E1F0E0EB
:1006B000A0E9B1E00E94D5EAE1E0F0E0ABE7B1E00B
:1006C00094E10E94DFEAE7E1F0E0A1E9B1E00E94F5
:1006D000D5EAE8E1F0E0A2E9B1E00E94D5EAE9E17B
:1006E000F0E0A3E9B1E00E94D5EA81E08093B9038C
:1006F00080E08093C00380E08093B80181E0809324
:10070000BA030E94480481E08093B80281E080939C
:10071000B90280E08093C3030E941F0680E08093AB
:10072000AC0180E08093AD01EBE1F0E0A5EDB3E03A
:100730000E94D5EAA4EFB3E0E8E0F6ED0E9434EAC7
:100740000E949FE98091D5038093F603A9EEB3E060
:10075000EEE0F6ED0E9434EA0E949FE98091D50315
:100760008093EC03AFEFB3E0E4E1F6ED0E9434EAEE
:100770000E949FE98091D50380930204AAE0B4E02F
:10078000EAE1F6ED0E9434EA0E949FE98091D503E8
:1007900080930D040E94110880E08093FF3380E075
:1007A0008093003481E08093043480E080930534AA
:1007B00080E08093063480E08093073484E1809366
:1007C000083480E08093093480E080930A3481E02B
:1007D00080930B3480E080930C3480E080930D3460
:1007E00088E080930E3485E880930F3480E0809316
:1007F000103488E08093113485E88093123480E0CF
:100800008093133480E08093143480E08093153417
:1008100084E18093163480E08093173480E08093E5
:10082000183481E08093193480E080931A3480E09A
:1008300080931B3488E080931C3485E880931D34BA
:1008400080E080931E3488E080931F3485E8809395
:10085000203480E28093213480E28093223480E24D
:100860008093233480E28093243480E28093253483
:1008700080E28093263480E28093273480E2809364
:10088000283480E28093293480E280932A340895CA
:1008900080E08093B60180E08093B70181E080938F
:1008A000B80280E090E0A1ECB3E08D939C93A9EBBB
:1008B000B3E08C918F5F8C934091C0030091B9039A
:1008C000041711F00C946A0480E08093C0038FEF4A
:1008D0008093BF0308958091B90281508093B9023B
:1008E00081E0809395014091B90200919501041730
:1008F00018F011F00C949404A5E9B1E0AD90BB247C
:10090000A8EBB1E0AA0DBB1D8C918093960131E05C
:10091000A6E9B1E00E94B7E8A5E9B1E08C918F5F4C
:100920008C9310F40C94730481E08093B80281E0FE
:100930008093B90280E08093C3030895EEE6F4E467
:100940000E9434EAA0EBB1E08D919C910E9419EADB
:10095000A9EBB1E00E949FE9A9EBB1E00E94F9EA9E
:10096000A6E9B1E08C930091B801013011F00C942C
:10097000F8040091960141E0040FA7E9B1E00C935F
:1009800080919601809395014091950101E00417B3
:1009900018F011F00C94EB04A5E9B1E0AD90BB2484
:1009A000A8EBB1E0AA0DBB1D8C91A7E9B1E0AD9019
:1009B000BB24A8EBB1E0AA0DBB1D8C9380919701DD
:1009C000815080939701809195018150809395018A
:1009D00010F00C94C404809196018093B9010091A9
:1009E000960142E0040FA9EBB2E00C930C94A2052F
:1009F000023011F00C943E050091960142E0040F84
:100A0000A7E9B1E00C938091960180939501409104
:100A1000950101E0041718F011F00C942E05A5E9DA
:100A2000B1E0AD90BB24A8EBB1E0AA0DBB1D8C9149
:100A3000A7E9B1E0AD90BB24A8EBB1E0AA0DBB1DC6
:100A40008C938091970181508093970180919501BB
:100A500081508093950110F00C94070580E08093FD
:100A6000B901809196018093BA010091960143E00B
:100A7000040FA9EBB2E00C930C94A205043011F022
:100A80000C94A2050091960146E0040FA7E9B1E09D
:100A90000C9380919601809395014091950101E01E
:100AA000041718F011F00C947405A5E9B1E0AD90AD
:100AB000BB24A8EBB1E0AA0DBB1D8C91A7E9B1E066
:100AC000AD90BB24A8EBB1E0AA0DBB1D8C93809127
:100AD0009701815080939701809195018150809377
:100AE000950110F00C944D058FEF8093B90180EFC4
:100AF0008093BA01A0EBB1E011968C91ABEBB1E021
:100B00008C93A0EBB1E08C91ACEBB1E08C93A2EBB9
:100B1000B1E011968C91ADEBB1E08C93A2EBB1E01A
:100B20008C91AEEBB1E08C93809196018093BF01E4
:100B30000091960147E0040FA9EBB2E00C9381E02D
:100B40008093B801A0EBB1E00E9453E8A0EBB1E0C4
:100B50000D911C91093C53E0150710F40C94B60557
:100B600080E090E0A0EBB1E08D939C93A2EBB1E02C
:100B70000E945AE881E08093B80208950F921F9274
:100B80002F923F924F925F927F92AF92BF92CF92FD
:100B9000DF92EF92FF920F931F932F933F934F9308
:100BA0005F936F937F938F939F93AF93BF93CF93F5
:100BB000DF93EF93FF938FB78F938BB78F93882734
:100BC0008BBF0091B7010A3F10F00C94EC05A7EB26
:100BD000B1E08C918F5F8C93A7EBB1E0AD90BB241B
:100BE000A9EBB2E0AA0DBB1D8091C6008C9381E0F9
:100BF0008093BB0381E08093BA038F918BBF8F9169
:100C00008FBFFF91EF91DF91CF91BF91AF919F91F6
:100C10008F917F916F915F914F913F912F911F9194
:100C20000F91FF90EF90DF90CF90BF90AF907F90AB
:100C30005F904F903F902F901F900F90189580E0FD
:100C40008093AE0170E07093B90070E07093B900CA
:100C500071E17093B80070E87093BB00A1E9B1E056
:100C60008C918093BA0075E47093BC0008950F9244
:100C70001F922F923F924F925F927F92AF92BF92BC
:100C80000F931F932F933F934F935F936F937F9394
:100C90008F939F93AF93BF93CF93DF93EF93FF9384
:100CA0008FB78F938BB78F9388278BBF0091B90035
:100CB0004CEF0423A4E9B1E00C93009194010036B9
:100CC00011F00C94680675EC7093BC000C94D3077B
:100CD000083611F00C94710675EC7093BC000C94FE
:100CE000D307003711F00C947A0675EC7093BC00B2
:100CF0000C94D307083711F00C94830675EC7093AD
:100D0000BC000C94D307003811F00C94A806009195
:100D1000B7010A3F10F00C949206A7EBB1E08C915A
:100D20008F5F8C93A7EBB1E0AD90BB24A9EBB2E051
:100D3000AA0DBB1D8091BB008C9382E08093BA0307
:100D400081E08093BB0375EC7093BC000C94D307D7
:100D5000083811F00C94CD060091B7010A3F10F04D
:100D60000C94B706A7EBB1E08C918F5F8C93A7EB47
:100D7000B1E0AD90BB24A9EBB2E0AA0DBB1D809100
:100D8000BB008C9382E08093BA0381E08093BB0325
:100D900075EC7093BC000C94D307003911F00C94DF
:100DA000F2060091B7010A3F10F00C94DC06A7EBA5
:100DB000B1E08C918F5F8C93A7EBB1E0AD90BB2439
:100DC000A9EBB2E0AA0DBB1D8091BB008C9382E021
:100DD0008093BA0381E08093BB0375EC7093BC00F1
:100DE0000C94D307083911F00C9417070091B70140
:100DF0000A3F10F00C940107A7EBB1E08C918F5FD4
:100E00008C93A7EBB1E0AD90BB24A9EBB2E0AA0DA7
:100E1000BB1D8091BB008C9382E08093BA0381E07C
:100E20008093BB0375EC7093BC000C94D307003A1D
:100E300011F00C94200775EC7093BC000C94D30750
:100E4000083A11F00C9453074091B9020091B8028E
:100E5000041781E008F080E08F9300919201013047
:100E600081E009F080E09F918923882311F40C949C
:100E70004B07A8EBB2E0AD90BB24A8EBB1E0AA0D04
:100E8000BB1D8C918093BB00A8EBB2E08C918F5F6F
:100E90008C930C944E0770E87093BB0075EC7093C4
:100EA000BC000C94D307003B11F00C9486074091D2
:100EB000B9020091B802041781E008F080E08F9336
:100EC00000919201013081E009F080E09F91892337
:100ED000882311F40C947E07A8EBB2E0AD90BB24FC
:100EE000A8EBB1E0AA0DBB1D8C918093BB00A8EBD1
:100EF000B2E08C918F5F8C930C94810770E87093B3
:100F0000BB0075EC7093BC000C94D307083B11F048
:100F10000C94B9074091B9020091B802041781E01E
:100F200008F080E08F9300919201013081E009F098
:100F300080E09F918923882311F40C94B107A8EBDA
:100F4000B2E0AD90BB24A8EBB1E0AA0DBB1D8C9123
:100F50008093BB00A8EBB2E08C918F5F8C930C94D4
:100F6000B40770E87093BB0075EC7093BC000C94F0
:100F7000D307003C11F00C94C50770E87093BB00D8
:100F800075EC7093BC000C94D307083C11F00C94E2
:100F9000D10770E87093BB0075EC7093BC000C94A3
:100FA000D3070E941F064091B9020091B8020417AE
:100FB00010F40C94F30781E08093B80281E08093F1
:100FC000B90280E08093C303A2EBB1E00D911C91C4
:100FD000003050E0150718F011F00C94F1070C9454
:100FE000F3070E949E048F918BBF8F918FBFFF915B
:100FF000EF91DF91CF91BF91AF919F918F917F91B1
:101000006F915F914F913F912F911F910F91BF90E1
:10101000AF907F905F904F903F902F901F900F90D8
:10102000189581E080931B0580E080931C0580E08B
:101030008093D30380E080931D0583E08093DD03DC
:1010400080E08093E80380E090E0A6EDB3E08D932C
:101050009C9381E090E0A1EDB3E08D939C93429A44
:10106000089542987091C9007F7E7093C9008EEFF9
:101070000E94D8E88EEF0E94D8E831E0A5EDB3E0F9
:101080000E94D3E880EE0E94D8E881E0809394012A
:101090004091DC0300919401041718F011F00C94B6
:1010A0006E08A4E9B1E0AD90BB24AFEFB0E0AA0DAB
:1010B000BB1D8C918093950131E0A5E9B1E00E94C0
:1010C000D3E831E0A5E9B1E00E94B7E8A4E9B1E0D6
:1010D0008C918F5F8C9310F40C9448088DEF0E94D4
:1010E000D8E8429A0E94480481E090E00E945EE9BC
:1010F0007091C90070617093C90008958AE1A0E001
:10110000B1E08D9388278C938091D903809301015E
:101110008091DA038093020183E08093DC030E94D4
:10112000310808958AE1A0E0B1E08D9388278C937F
:1011300085E0A0E0B1E00E94A9E88D9388278C9318
:1011400080E0A0E0B1E00E94A9E88D9388278C930D
:101150008091DB038093030184E08093DC030E9491
:10116000310808958AE1A0E0B1E08D9388278C933F
:1011700085E0A0E0B1E00E94A9E88D9388278C93D8
:1011800081E0A0E0B1E00E94A9E88D9388278C93CC
:101190008091DB038093030184E08093DC030E9451
:1011A000310808958AE1A0E0B1E08D9388278C93FF
:1011B00085E0A0E0B1E00E94A9E88D9388278C9398
:1011C00082E0A0E0B1E00E94A9E88D9388278C938B
:1011D0008091DB038093030184E08093DC030E9411
:1011E000310808958AE1A0E0B1E08D9388278C93BF
:1011F00085E0A0E0B1E00E94A9E88D9388278C9358
:1012000083E0A0E0B1E00E94A9E88D9388278C9349
:101210008091DB038093030184E08093DC030E94D0
:10122000310808958AE1A0E0B1E08D9388278C937E
:1012300085E0A0E0B1E00E94A9E88D9388278C9317
:1012400080E0809302018091DB030E9447E9A3E0E4
:10125000B1E08C9384E08093DC030E943108089510
:101260008AE1A0E0B1E08D9388278C9385E0A0E02F
:10127000B1E00E94A9E88D9388278C9381E0809348
:1012800002018091DB030E9447E9A3E0B1E08C9367
:1012900084E08093DC030E94310808958AE1A0E095
:1012A000B1E08D9388278C9385E0A0E0B1E00E94A7
:1012B000A9E88D9388278C9380E080930201809128
:1012C000DA03809303018091DB038093040185E0BE
:1012D0008093DC030E94310808950091B601033029
:1012E00010F40C949909409194010091BC020417E8
:1012F00010F00C9490098AE1A0E0B1E08D9388276A
:101300008C938091D903809301018091BC028093DA
:10131000020183E08093DC030E9431080C94990958
:1013200084E08093BF038091B9038093C0030E943F
:10133000480408950091B601033010F40C94D609C6
:10134000409194010091BC02041710F00C94CD0957
:101350008AE1A0E0B1E08D9388278C9385E0A0E03E
:10136000B1E00E94A9E88D9388278C9380E0A0E0EB
:10137000B1E00E94A9E88D9388278C938091DB03CC
:10138000809303018091BC028093040185E08093E7
:10139000DC030E9431080C94D60984E08093BF03DB
:1013A0008091B9038093C0030E944804089500917E
:1013B000B601033010F40C94130A4091940100918B
:1013C000BC02041710F00C940A0A8AE1A0E0B1E014
:1013D0008D9388278C9385E0A0E0B1E00E94A9E876
:1013E0008D9388278C9381E0A0E0B1E00E94A9E86A
:1013F0008D9388278C938091DB03809303018091E8
:10140000BC028093040185E08093DC030E943108D4
:101410000C94110A84E08093BF038091B9038093F8
:10142000C0030E94480408950091B601033010F4EF
:101430000C94500A409194010091BC02041710F0E2
:101440000C94470A8AE1A0E0B1E08D9388278C9341
:1014500085E0A0E0B1E00E94A9E88D9388278C93F5
:1014600082E0A0E0B1E00E94A9E88D9388278C93E8
:101470008091DB03809303018091BC02809304017F
:1014800085E08093DC030E9431080C944E0A84E0CE
:101490008093BF038091B9038093C0030E944804E6
:1014A00008950091B601033010F40C948D0A409118
:1014B00094010091BC02041710F00C94840A8AE194
:1014C000A0E0B1E08D9388278C9385E0A0E0B1E0A7
:1014D0000E94A9E88D9388278C9383E0A0E0B1E077
:1014E0000E94A9E88D9388278C938091DB038093D9
:1014F00003018091BC028093040185E08093DC03AA
:101500000E9431080C948B0A84E08093BF03809181
:10151000B9038093C0030E94480408950091B60166
:10152000033010F40C94B80A409194010091BC026D
:10153000041710F00C94AF0A8091D8038093000137
:101540008091D903809301018091BC0280930201B4
:1015500083E08093DC030E9431080C94B60A84E097
:101560008093BF038091B9038093C0030E94480415
:1015700008950091B601033010F40C94E60A4091EE
:1015800094010091BC02041710F00C94DD0A8091C4
:10159000D803809300018091D90380930101809149
:1015A000BC020E9447E9A2E0B1E08C9383E0809303
:1015B000DC030E9431080C94E40A84E08093BF03AA
:1015C0008091B9038093C0030E944804089500915C
:1015D000B601033010F40C94150B40919401009166
:1015E000BC02041710F00C940C0B8091D80380936C
:1015F00000018091D903809301018091DA038093E7
:1016000002018091BC028093030183E08093DC039C
:101610000E9431080C94130B84E08093BF038091E7
:10162000B9038093C0030E94480408950091B60155
:10163000033010F40C94550B409194010091BC02BE
:10164000041710F00C944C0B8AE1A0E0B1E08D93EC
:1016500088278C9385E0A0E0B1E00E94A9E88D93F3
:1016600088278C9381E0A0E0B1E00E94A9E88D93E7
:1016700088278C938091DB03809303018091BC02C7
:101680000E9447E9A4E0B1E08C9385E08093DC03FD
:101690000E9431080C94530B84E08093BF03809127
:1016A000B9038093C0030E94480408950091B601D5
:1016B000033010F40C94950B409194010091BC02FE
:1016C000041710F00C948C0B8AE1A0E0B1E08D932C
:1016D00088278C9385E0A0E0B1E00E94A9E88D9373
:1016E00088278C9382E0A0E0B1E00E94A9E88D9366
:1016F00088278C938091DB03809303018091BC0247
:101700000E9447E9A4E0B1E08C9385E08093DC037C
:101710000E9431080C94930B84E08093BF03809166
:10172000B9038093C0030E94480408950091B60154
:10173000033010F40C94C40B8091D8038093000103
:101740008091D903809301010091BC0244E60E947C
:10175000E9EAA4E9B1E00C9380919401809302013D
:101760000091BC0244E60E94E9EAA4E9B1E08C934E
:10177000809194010E9447E9A3E0B1E08C9384E05A
:101780008093DC030E94310808950091B601033074
:1017900010F40C94EE0B8AE1A0E0B1E08D93882761
:1017A0008C9385E0A0E0B1E00E94A9E88D938827A2
:1017B0008C9380E0A0E0B1E00E94A9E88D93882797
:1017C0008C938091DB03809303018091BC02809312
:1017D000040185E08093DC030E94310808950091A4
:1017E000B601033010F40C94180C8AE1A0E0B1E0CB
:1017F0008D9388278C9385E0A0E0B1E00E94A9E852
:101800008D9388278C9381E0A0E0B1E00E94A9E845
:101810008D9388278C938091DB03809303018091C3
:10182000BC028093040185E08093DC030E943108B0
:1018300008950091B601033010F40C94420C8AE133
:10184000A0E0B1E08D9388278C9385E0A0E0B1E023
:101850000E94A9E88D9388278C9382E0A0E0B1E0F4
:101860000E94A9E88D9388278C938091DB03809355
:1018700003018091BC028093040185E08093DC0326
:101880000E94310808950091B601033010F40C94C1
:101890006C0C8AE1A0E0B1E08D9388278C9385E001
:1018A000A0E0B1E00E94A9E88D9388278C9383E0A3
:1018B000A0E0B1E00E94A9E88D9388278C938091E5
:1018C000DB03809303018091BC028093040185E0D7
:1018D0008093DC030E94310808950091B601033023
:1018E00010F40C94940C8AE1A0E0B1E08D93882769
:1018F0008C9385E0A0E0B1E00E94A9E88D93882751
:101900008C9380E0809302018091DB03809303013C
:101910008091BC020E9447E9A4E0B1E08C9385E08D
:101920008093DC030E94310808950091B6010330D2
:1019300010F40C94C10C8AE1A0E0B1E08D938827EB
:101940008C9385E0A0E0B1E00E94A9E88D93882700
:101950008C9382E0A0E0B1E00E94A9E88D938827F3
:101960008C938091DB03809303018091BC020E94E1
:1019700047E9A4E0B1E08C9385E08093DC030E940A
:10198000310808950091B601033010F40C94EE0C68
:101990008AE1A0E0B1E08D9388278C9385E0A0E0F8
:1019A000B1E00E94A9E88D9388278C9383E0A0E0A2
:1019B000B1E00E94A9E88D9388278C938091DB0386
:1019C000809303018091BC020E9447E9A4E0B1E04A
:1019D0008C9385E08093DC030E9431080895009188
:1019E000B601033010F40C942A0D8AE1A0E0B1E0B6
:1019F0008D9388278C9385E0A0E0B1E00E94A9E850
:101A00008D9388278C9381E0A0E0B1E00E94A9E843
:101A10008D9388278C938091DB03809303018091C1
:101A2000BC020E9447E9A4E0B1E08C930091BC02A3
:101A300044E60E94E9EAA5E9B1E08C938091950122
:101A40000E9447E9A5E0B1E08C9386E08093DC0337
:101A50000E94310808950091B601033010F40C94EF
:101A6000620D409194010091BC02041710F00C9497
:101A7000590D8AE1A0E0B1E08D9388278C9385E031
:101A8000A0E0B1E00E94A9E88D9388278C9381E0C3
:101A9000809302010091DB034091BC02040FA3E09C
:101AA000B1E00C9384E08093DC030E9431080C9435
:101AB000620D84E08093BF038091B9038093C003DB
:101AC0000E94480408950091B601033010F40C946C
:101AD000A30D8AE1A0E0B1E08D9388278C9385E087
:101AE000A0E0B1E00E94A9E88D9388278C9380E064
:101AF000A0E0B1E00E94A9E88D9388278C938091A3
:101B0000DB03809303010091BC0244E60E94E9EAF2
:101B1000A4E9B1E00C9380919401809304010091B9
:101B2000BC0244E60E94E9EAA4E9B1E08C9380910A
:101B300094010E9447E9A5E0B1E08C9386E0809390
:101B4000DC030E94310808950091B601033010F4BF
:101B50000C94E40D8AE1A0E0B1E08D9388278C938A
:101B600085E0A0E0B1E00E94A9E88D9388278C93DE
:101B700081E0A0E0B1E00E94A9E88D9388278C93D2
:101B80008091DB03809303010091BC0244E60E9434
:101B9000E9EAA4E9B1E00C938091940180930401F7
:101BA0000091BC0244E60E94E9EAA4E9B1E08C930A
:101BB000809194010E9447E9A5E0B1E08C9386E012
:101BC0008093DC030E94310808950091B60104302F
:101BD00010F40C945A0EACEBB2E00D91112740E0DA
:101BE00051E00E9472E9AAE9B1E00D931C93AAE9C1
:101BF000B1E00D911C91ADEBB2E04D915527040F72
:101C0000151FAAE9B1E00D931C93AAE9B1E04D912B
:101C10005C91AAE9B1E00D911C910417150710F031
:101C20000C94510E8AE1A0E0B1E08D9388278C934B
:101C300085E0A0E0B1E00E94A9E88D9388278C930D
:101C400082E0A0E0B1E00E94A9E88D9388278C9300
:101C50008091DB038093030100919A0144E60E9486
:101C6000E9EAA4E9B1E00C93809194010E9447E96C
:101C7000A4E0B1E08C9300919A0144E60E94E9EA65
:101C8000A4E9B1E08C93809194010E9447E9A5E01A
:101C9000B1E08C9386E08093DC030E9431080C94C1
:101CA0005A0E84E08093BF038091B9038093C003F0
:101CB0000E94480408950091B601043010F40C9479
:101CC000D00EACEBB2E00D91112740E051E00E9444
:101CD00072E9AAE9B1E00D931C93AAE9B1E00D9174
:101CE0001C91ADEBB2E04D915527040F151FAAE9E9
:101CF000B1E00D931C93AAE9B1E04D915C91AAE982
:101D0000B1E00D911C910417150710F00C94C70E4B
:101D10008AE1A0E0B1E08D9388278C9385E0A0E074
:101D2000B1E00E94A9E88D9388278C9383E0A0E01E
:101D3000B1E00E94A9E88D9388278C938091DB0302
:101D40008093030100919A0144E60E94E9EAA4E924
:101D5000B1E00C93809194010E9447E9A4E0B1E0C6
:101D60008C9300919A0144E60E94E9EAA4E9B1E06B
:101D70008C93809194010E9447E9A5E0B1E08C9397
:101D800086E08093DC030E9431080C94D00E84E03E
:101D90008093BF038091B9038093C0030E944804DD
:101DA0000895A0E0B1E088278C93AEEDB3E00D91EB
:101DB0001D912D913C91AAE7B4E34D915D916D91F8
:101DC0007C910E9440EAAEEDB3E00D931D932D93FC
:101DD0003D93AEEDB3E00D911D912D913C9140E00E
:101DE00051EE65EF75E00E94EFE8A0EAB1E04D9397
:101DF0005D936D937D938091A00180939401809178
:101E000094010E9447E9A7E9B1E0AD90BB24A3E0AB
:101E1000B1E0AA0DBB1D8C93AEEDB3E00D911D9109
:101E20002D913C9140E051EE65EF75E00E94EFE8A6
:101E3000AEEDB3E00D931D932D933D93AEEDB3E066
:101E40000D911D912D913C9140E452E46FE070E0C2
:101E50000E94EFE8A0EAB1E04D935D936D937D930E
:101E60008091A00180939401809194010E9447E9A0
:101E7000A7E9B1E0AD90BB24A2E0B1E0AA0DBB1D83
:101E80008C93AEEDB3E00D911D912D913C9140E40A
:101E900052E46FE070E00E94EFE8AEEDB3E00D9326
:101EA0001D932D933D93AEEDB3E00D911D912D91BA
:101EB0003C9140E157E260E070E00E94EFE8A0EA68
:101EC000B1E04D935D936D937D938091A0018093DC
:101ED0009401809194010E9447E9A7E9B1E0AD9097
:101EE000BB24A1E0B1E0AA0DBB1D8C93AEEDB3E025
:101EF0000D911D912D913C9140E157E260E070E021
:101F00000E94EFE8AEEDB3E00D931D932D933D934A
:101F1000AEEDB3E00D911C9144E650E00E948FE8D5
:101F2000AAE9B1E04D935C9380919A01809394016A
:101F3000809194010E9447E9A7E9B1E0AD90BB24EC
:101F4000A0E0B1E0AA0DBB1D8C93AEEDB3E00D9106
:101F50001D912D913C9144E650E060E070E00E94BC
:101F6000EFE8AEEDB3E00D931D932D933D9380917B
:101F7000DE0380939401809194010E9447E9A7E9D0
:101F8000B1E0AD90BB24AFEFB0E0AA0DBB1D8C93C8
:101F900008950091B601043010F40C9422100091C1
:101FA000BC02053181E008F080E08F930091BD0212
:101FB000053181E008F080E09F918923882311F4A6
:101FC0000C9419108AE1A0E0B1E08D9388278C93DE
:101FD00085E0A0E0B1E00E94A9E88D9388278C936A
:101FE00080E0809302018091DB0380930301809164
:101FF000BC0280939401809194010E9447E9A4E07F
:10200000B1E08C938091BD0280939401A4E9B1E08A
:102010008C918B5F8C93809194010E9447E9A5E09D
:10202000B1E08C9386E08093DC030E9431080C942D
:10203000201084E08093BF038091B9038093C00394
:102040000E94480408950091B601043010F40C94E5
:1020500076100091BC02043081E008F080E08F939C
:102060000091BD02043081E008F080E09F91892357
:10207000882311F40C946D108AE1A0E0B1E08D93F7
:1020800088278C9385E0A0E0B1E00E94A9E88D93B9
:1020900088278C9380E0809302018091DB038093FA
:1020A00003018091BC02809304018091BD02809362
:1020B000940194E0A4E9B1E00E94A5E90091040133
:1020C00040919401042BA4E0B1E00C9385E080934F
:1020D000DC030E9431080C94741084E08093BF03E9
:1020E0008091B9038093C0030E9448040895009131
:1020F000B601043010F40C9459118AE1A0E0B1E06B
:102100008D9388278C9385E0A0E0B1E00E94A9E838
:102110008D9388278C9380E0809302018091DB036C
:10212000809303018091BC0280939B018091BD024A
:1021300080939A01AAE9B1E00D911C910F315EE400
:10214000150710F00C945011AAE9B1E00D911C9103
:102150000E3057E2150718F011F00C94B1100C94E2
:10216000C01080E080930701AAE9B1E00D911C91B5
:102170000F501742AAE9B1E00D931C930C94CF10B5
:1021800081E0809307010FE017E2AAE9B1E04D91E9
:102190005C91041B150BAAE9B1E00D931C93AAE90D
:1021A000B1E00D911C91222733274AE050E060E016
:1021B00070E00E947CE9A5ECB3E00D931D932D9394
:1021C0003D9300E117E220E030E0A4EEB3E00D9390
:1021D0001D932D933C9387E080939401409194014B
:1021E00005E0041718F011F00C944911A5ECB3E0C8
:1021F0000D911D912D913C91A4EEB3E04D915D9117
:102200006D917C910E94EFE8A9ECB3E04D935D9352
:102210006D937D938091C903809395018091950181
:102220000E9447E9A4E9B1E0AD90BB24AFEFB0E074
:10223000AA0DBB1D8C93A5ECB3E00D911D912D91C2
:102240003C91A4EEB3E04D915D916D917C910E9423
:10225000EFE8A5ECB3E00D931D932D933D93A4EE11
:10226000B3E00D911D912D913C9144E650E060E06A
:1022700070E00E94EFE8A4EEB3E04D935D936D93A0
:102280007D938091940181508093940110F00C947F
:10229000EE1088E08093DC030E9431080C94571103
:1022A00084E08093BF038091B9038093C0030E94B0
:1022B000480408950091B601053010F40C94C4113F
:1022C0008AE1A0E0B1E08D9388278C9385E0A0E0BF
:1022D000B1E00E94A9E88D9388278C9381E0A0E06B
:1022E000B1E00E94A9E88D9388278C938091DB034D
:1022F000809303010091BC0244E60E94E9EAA4E055
:10230000B1E00C930091BC0244E60E94E9EAA4E922
:10231000B1E08C93809194010E9447E9A5E0B1E07F
:102320008C930091BD0244E60E94E9EAA6E0B1E088
:102330000C930091BD0244E60E94E9EAA4E9B1E0F1
:102340008C93809194010E9447E9A7E0B1E08C93BF
:102350000091BE0244E60E94E9EAA8E0B1E00C93D5
:102360000091BE0244E60E94E9EAA4E9B1E08C9340
:10237000809194010E9447E9A9E0B1E08C938AE042
:102380008093DC030E94310808950091B601053066
:1023900010F40C942F128AE1A0E0B1E08D9388270D
:1023A0008C9385E0A0E0B1E00E94A9E88D93882796
:1023B0008C9382E0A0E0B1E00E94A9E88D93882789
:1023C0008C938091DB03809303010091BC0244E66F
:1023D0000E94E9EAA4E0B1E00C930091BC0244E65B
:1023E0000E94E9EAA4E9B1E08C93809194010E94F3
:1023F00047E9A5E0B1E08C930091BD0244E60E945C
:10240000E9EAA6E0B1E00C930091BD0244E60E9427
:10241000E9EAA4E9B1E08C93809194010E9447E934
:10242000A7E0B1E08C930091BE0244E60E94E9EA85
:10243000A8E0B1E00C930091BE0244E60E94E9EAF4
:10244000A4E9B1E08C93809194010E9447E9A9E04E
:10245000B1E08C938AE08093DC030E9431080895F8
:102460000091B601073010F40C945414AFEBB2E0B5
:102470000D91112740E051E00E9472E9ACE9B1E012
:102480000D931C93ACE9B1E00D911C91A0ECB2E06E
:102490004D915527040F151FACE9B1E00D931C9326
:1024A000ACE9B1E00D911C91033E53E0150710F02B
:1024B0000C944B14ADEBB2E00C911127222733277B
:1024C00040E051E060E070E00E947CE9A4EAB1E005
:1024D0000D931D932D933D93A4EAB1E00D911D91B1
:1024E0002D913C91AEEBB2E04C91552766277727B2
:1024F0000E9440EAA4EAB1E00D931D932D933D9311
:10250000A4EAB1E00D911D912D913C91A2EEB3E0B2
:102510004D915C91662777270E9440EAA4EAB1E0DA
:102520000D931D932D933D93A4EAB1E00D911D9160
:102530002D913C91ACE9B1E04D915C9166277727F4
:102540000E9440EAA8EAB1E00D931D932D933D93BC
:10255000A8EAB1E00D911D912D913C9145E050E02C
:1025600060E070E00E9440EAA8EAB1E00D931D939C
:102570002D933D93A0EAB1E04D915D916D917C91D9
:10258000A4EAB1E00D911D912D913C91041715071E
:102590002607370781E010F009F080E08F93A0EA6A
:1025A000B1E04D915D916D917C91A8EAB1E00D9102
:1025B0001D912D913C91041715072607370781E0DF
:1025C00010F009F080E09F918923882311F40C9486
:1025D00049148AE1A0E0B1E08D9388278C9385E0CF
:1025E000A0E0B1E00E94A9E88D9388278C9381E058
:1025F000A0E0B1E00E94A9E88D9388278C93009118
:10260000DB034091BC02040FA3E0B1E00C93A4EA09
:10261000B1E00D911D912D913C91A5ECB3E00D938E
:102620001D932D933C93A5ECB3E00D911D912D913D
:102630003C9148EE53E060E070E00E94EFE8A9ECC6
:10264000B3E04D935D936D937D938091C903809327
:102650009601809196010E9447E9A6E0B1E08C9333
:10266000A5ECB3E00D911D912D913C9140E157E215
:1026700060E070E00E94EFE8A5ECB3E00D931D93DD
:102680002D933D93A5ECB3E00D911D912D913C91BF
:1026900048EE53E060E070E00E94EFE8A5ECB3E0A4
:1026A0000D931D932D933D93A5ECB3E00D911D91DA
:1026B0002D913C914AE050E060E070E00E94EFE82C
:1026C000A9ECB3E04D935D936D937D938091C90325
:1026D00080939601809196010E9447E9A5E0B1E0C0
:1026E0008C93A5ECB3E00D911D912D913C9144E6A6
:1026F00050E060E070E00E94EFE8A5ECB3E00D93DD
:102700001D932D933D93A5ECB3E00D911D912D915B
:102710003C914AE050E060E070E00E94EFE8A5ECF8
:10272000B3E00D931D932D933D938091C50380934A
:102730009401809194010E9447E9A4E9B1E08C934F
:1027400094E0A4E9B1E00E94A5E98091940180930E
:102750000401A8EAB1E00D911D912D913C91A5ECE9
:10276000B3E00D931D932D933C93A5ECB3E00D9135
:102770001D912D913C9148EE53E060E070E00E9485
:10278000EFE8A9ECB3E04D935D936D937D93809159
:10279000C90380939601809196010E9447E9A9E0C0
:1027A000B1E08C93A5ECB3E00D911D912D913C917E
:1027B00040E157E260E070E00E94EFE8A5ECB3E092
:1027C0000D931D932D933D93A5ECB3E00D911D91B9
:1027D0002D913C9148EE53E060E070E00E94EFE8FC
:1027E000A5ECB3E00D931D932D933D93A5ECB3E0C1
:1027F0000D911D912D913C914AE050E060E070E018
:102800000E94EFE8A9ECB3E04D935D936D937D9347
:102810008091C90380939601809196010E9447E9B7
:10282000A8E0B1E08C93A5ECB3E00D911D912D9142
:102830003C9144E650E060E070E00E94EFE8A5ECD7
:10284000B3E00D931D932D933D93A5ECB3E00D9153
:102850001D912D913C914AE050E060E070E00E94B3
:10286000EFE8A5ECB3E00D931D932D933D9380917C
:10287000C5038093940194E0A4E9B1E00E94A5E926
:1028800080919401809307018AE08093DC030E9489
:1028900031080C94541484E08093BF038091B903F1
:1028A0008093C0030E94480408950091B60103304C
:1028B00010F40C9493140091BC02023310F00C94A9
:1028C0008A148BE1809300018091D90380930101E8
:1028D0000091BC0241E0040FA4E9B1E00C93E0E4F4
:1028E000F0ED0E9434EAA4E9B1E08C919927AAE9BD
:1028F000B1E00E940CEA80919B01809302018091DB
:102900009A018093030184E08093DC030E943108E4
:102910000C94911484E08093BF038091B903809359
:10292000C0030E94480408958AE18093000180E07A
:1029300080930101ACEBB2E00D91112742E750E02A
:102940000E9472E9AAE9B1E00D931C93AAE9B1E0F3
:102950000E9453E881E08093940100919401023732
:1029600018F011F00C94D214AAE9B1E0AD90BD902A
:10297000ADE1B5E0AA0DBB1D8C91A4E9B1E0AD902D
:10298000BB24A1E0B1E0AA0DBB1D8C93AAE9B1E084
:102990000E9453E8A4E9B1E08C918F5F8C9310F40E
:1029A0000C94AD140091BC0244E60E94E9EAA3E055
:1029B000B1E00C938091BC020E9447E9A4E0B1E031
:1029C0008C9384E78093DC030E9431080091763475
:1029D000013011F00C94F0140E9443360E94C93665
:1029E00008950091B601033010F40C942015009165
:1029F000BC020C3610F00C9419158AE1809300018A
:102A000080E0809301010091BC0244E60E94E9EA63
:102A1000A2E0B1E00C938091BC020E9447E9A3E0E0
:102A2000B1E08C9384E08093DC030E9431080C9425
:102A3000201584E08093BF038091B9038093C00385
:102A40000895ACE9B1E00D911C9147E050E00423FA
:102A50001523AEE9B1E00D931C9380919E01809304
:102A6000940193E0ACE9B1E00E94B5E9ACE9B1E0D2
:102A70000D911C9147E050E004231523AEE9B1E02D
:102A80000D931C9380919E018093950194E0A4E99D
:102A9000B1E00E94A5E90091940140919501042BB9
:102AA000A5E0B1E00C9393E0AAE9B1E00E94B5E99A
:102AB000AAE9B1E00D911C9147E050E004231523F1
:102AC000ACE9B1E00D931C9380919C01809395013A
:102AD00008950091B6010D3010F40C942A1700915E
:102AE000BC02033681E008F080E08F930091BF02C2
:102AF000023081E008F080E09F9189238F9300915C
:102B0000C302023081E008F080E09F9189238F9317
:102B10000091C602023081E008F080E09F91892395
:102B2000882311F40C942317ADEBB2E00D9111271B
:102B300040E051E00E9472E9AAE9B1E00D931C93D4
:102B4000AEEBB2E00D911127AAE9B1E04D915C9195
:102B5000040F151FAAE9B1E00D931C93A1ECB2E09C
:102B60000D91112740E051E00E9472E9ACE9B1E01B
:102B70000D931C93A2ECB2E00D911127ACE9B1E0EA
:102B80004D915C91040F151FACE9B1E00D931C93BE
:102B9000A4ECB2E00D91112740E051E00E9472E9EF
:102BA000AEE9B1E00D931C93AEE9B1E00D911C913B
:102BB000A5ECB2E04D915527040F151FAEE9B1E029
:102BC0000D931C93AAE9B1E00D911C910F355AEEBB
:102BD000150781E008F080E08F930091C002073C68
:102BE00081E008F080E09F9189238F934FEB57E2BB
:102BF00069E070E0ACE9B1E00D911C912227332728
:102C00000E944AEA80E00CF481E09F9189238F932F
:102C10004FE35DE063E070E0AEE9B1E00D911C913F
:102C2000222733270E944AEA80E00CF481E09F913A
:102C30008923882311F40C941A178AE1A0E0B1E0EB
:102C40008D9388278C9382E0A0E0B1E00E94A9E8F0
:102C50008D9388278C938091BC020E9447E9A3E062
:102C6000B1E08C9300919A0148EE0E94E9EAA4E950
:102C7000B1E00C93809194010E9447E9A4E0B1E097
:102C80008C93AAE9B1E00D911C9148EE53E00E94AB
:102C90008FE8AAE9B1E00D931C9300919A014AE0F4
:102CA0000E94E9EAA4E9B1E00C93809194010E94AA
:102CB00047E9A5E0B1E08C9300919A014AE00E94B7
:102CC000E9EAA4E9B1E08C93A4E9B1E00C9140E118
:102CD000049F0C92809194010E9447E9A6E0B1E024
:102CE0008C938091BF02809307010091C00244E65B
:102CF0000E94E9EAA4E9B1E00C93809194010E945A
:102D000047E9A8E0B1E08C930091C00244E60E943C
:102D1000E9EAA4E9B1E08C93809194010E9447E92B
:102D2000A9E0B1E08C9300919C0148EE0E94E9EA91
:102D3000A4E9B1E00C93809194010E9447E9AAE0D4
:102D4000B1E08C93ACE9B1E00D911C9148EE53E0F9
:102D50000E948FE8ACE9B1E00D931C9300919C01B7
:102D60004AE00E94E9EAA4E9B1E00C938091940161
:102D70000E9447E9ABE0B1E08C9300919C014AE0EE
:102D80000E94E9EAA4E9B1E08C93A4E9B1E00C91D6
:102D900040E1049F0C92809194010E9447E9ACE0CD
:102DA000B1E08C938091C30280930D0100919E014C
:102DB00048EE0E94E9EAA4E9B1E00C938091940105
:102DC0000E9447E9AEE0B1E08C93AEE9B1E00D912D
:102DD0001C9148EE53E00E948FE8AEE9B1E00D93FC
:102DE0001C9300919E014AE00E94E9EAA6E9B1E045
:102DF0000C93809194010E9447E9AFE0B1E08C937D
:102E000000919C014AE00E94E9EAA4E9B1E08C93B8
:102E1000809194010E9447E9A0E1B1E08C938091F8
:102E2000C6028093110182E18093DC030E94310885
:102E30000C94211784E08093BF038091B9038093A1
:102E4000C0030C942A1784E08093BF038091B903D8
:102E50008093C00308950091B601033010F40C94E0
:102E6000A117409194010091BC02041710F00C943A
:102E7000A1170091940143E0040FA5E9B1E00C9380
:102E8000409195010091B601041710F40C949A1723
:102E90008AE1A0E0B1E08D9388278C9385E0A0E0E3
:102EA000B1E00E94A9E88D9388278C9382E0A0E08E
:102EB000B1E00E94A9E88D9388278C9384E08093E9
:102EC000950184E08093960181E080939401409184
:102ED000BC0200919401041718F011F00C948F17A4
:102EE000A5E9B1E0AD90BB24A9EBB2E0AA0DBB1DF2
:102EF0008C91A4E9B1E0AD90BB24AFEFB0E0AA0D96
:102F0000BB1D8C93A5E9B1E08C918F5F8C93A4E9F4
:102F1000B1E08C918F5F8C9310F40C946717009143
:102F2000BC0243E0040FACEDB3E00C930E94310807
:102F30000C94A11784E08093BF038091B903809320
:102F4000C00308950091B601033010F40C941818D2
:102F5000409194010091BC02041710F00C941818D1
:102F60000091940143E0040FA5E9B1E00C93409176
:102F700095010091B601041710F40C9411188AE120
:102F8000A0E0B1E08D9388278C9385E0A0E0B1E0CC
:102F90000E94A9E88D9388278C9383E0A0E0B1E09C
:102FA0000E94A9E88D9388278C9384E080939501F3
:102FB00084E08093960181E0809394014091BC026B
:102FC00000919401041718F011F00C940618A5E96B
:102FD000B1E0AD90BB24A9EBB2E0AA0DBB1D8C9172
:102FE000A4E9B1E0AD90BB24AFEFB0E0AA0DBB1DEA
:102FF0008C93A5E9B1E08C918F5F8C93A4E9B1E04B
:103000008C918F5F8C9310F40C94DE170091BC02AE
:1030100043E0040FACEDB3E00C930E9431080C9434
:10302000181884E08093BF038091B9038093C00394
:1030300008950091B601033010F40C947E1840916D
:1030400094010091BC02041710F00C947E180091BA
:10305000940143E0040FA5E9B1E00C934091950180
:103060000091B601041710F40C94771884E0809353
:10307000950184E08093960181E0809394014091D2
:10308000BC0200919401041718F011F00C946C1814
:10309000A5E9B1E0AD90BB24A9EBB2E0AA0DBB1D40
:1030A0008C91A6E9B1E0AD90BB24AFEFB0E0AA0DE2
:1030B000BB1D8C93A5E9B1E08C918F5F8C93A6E941
:1030C000B1E08C918F5F8C93A4E9B1E08C918F5F1C
:1030D0008C9310F40C943F180091BC0243E0040F51
:1030E000ACEDB3E00C930E9431080C947E1884E0A0
:1030F0008093BF038091B9038093C003089500912A
:10310000B601033010F40C94E4184091940100913E
:10311000BC02041710F00C94E4180091940143E0F1
:10312000040FA5E9B1E00C93409195010091B6011F
:10313000041710F40C94DD1884E08093950185E069
:103140008093960181E0809394014091BC020091AC
:103150009401041718F011F00C94D218A5E9B1E00D
:10316000AD90BB24A9EBB2E0AA0DBB1D8C91A6E9E2
:10317000B1E0AD90BB24AFEFB0E0AA0DBB1D8C93C6
:10318000A5E9B1E08C918F5F8C93A6E9B1E08C91B9
:103190008F5F8C93A4E9B1E08C918F5F8C9310F4D6
:1031A0000C94A5180091BC0243E0040FACEDB3E011
:1031B0000C930E9431080C94E41884E08093BF03C0
:1031C0008091B9038093C00308950091260444E6DA
:1031D000049FA4E9B1E00C92909127040E944EE96B
:1031E000A5E9B1E08C930091940140919501040F01
:1031F000A4E9B1E00C9380919401815080939401F3
:10320000A4E9B1E00D91112747E250E00E9472E974
:10321000AAE9B1E00D931C93009128040F3F11F02F
:103220000C947F19AAE9B1E08D919C91ACE9B1E0D1
:103230008D939C9381E080939401009194010732D7
:1032400018F011F00C944219A4E9B1E0AD90BB2440
:10325000A3E0B4E3AA0DBB1D8C91ACE9B1E0AD9045
:10326000BD90ADE1B5E0AA0DBB1D8C93ACE9B1E01A
:103270000E9453E8A4E9B1E08C918F5F8C9310F425
:103280000C941D198AE18093000180E08093010174
:10329000809126048093020180912704809303018A
:1032A00085E080939401009194010B3218F011F0A5
:1032B0000C947819AAE9B1E0AD90BD90ADE1B5E00C
:1032C000AA0DBB1D8C91A4E9B1E0AD90BB24AFEF7A
:1032D000B0E0AA0DBB1D8C93AAE9B1E00E9453E8AF
:1032E000A4E9B1E08C918F5F8C9310F40C94531986
:1032F0008BE28093DC030E9431080C94A71981E0D3
:103300008093950100919501073218F011F00C940B
:10331000A719A5E9B1E0AD90BB24A7E2B4E0AA0DDE
:10332000BB1D8C91ACE9B1E0AD90BD90ADE1B5E0D5
:10333000AA0DBB1D8C93ACE9B1E00E9453E8A5E94E
:10334000B1E08C918F5F8C9310F40C948219AFEFE5
:10335000B3E38C918F5F8C9380E080930034089569
:103360000091270444E6049FA4E9B1E00C929091F7
:1033700028040E944EE9A5E9B1E08C9300919401E4
:1033800040919501040FA4E9B1E00C938091940160
:10339000815080939401A4E9B1E00D91112742E797
:1033A00050E00E9472E9AAE9B1E00D931C93AAE9EA
:1033B000B1E00E9453E800910334003018F011F09E
:1033C0000C94E4190C948E21009127040F3F11F402
:1033D0000C948721809194018093BB010091033468
:1033E000013011F00C940A1A81E08093B90183EC4A
:1033F0008093BA01AAE9B1E0AD90BD90A1E2B5E039
:10340000AA0DBB1D8C918093BC0185E08093B9020D
:103410000C948221023011F00C941E1A81E08093EA
:10342000B90181E88093BA018BE08093980184E030
:103430008093B9020E948F210C948221033011F0F5
:103440000C945E1A81E08093B90183E88093BA01FD
:10345000AAE9B1E0AD90BD90A7E2B5E0AA0DBB1D11
:103460008C918093BC010091BC01053018F011F0E3
:103470000C943C1A0C94411AACEBB1E08C91815045
:103480008C930091BC01063118F011F00C944A1A8B
:103490000C944D1A88E08093BC010091BC0102326B
:1034A00018F011F00C94561A0C94591A89E0809374
:1034B000BC0185E08093B9020C948221043011F0A4
:1034C0000C947B1A81E08093B90185E88093BA015E
:1034D000AAE9B1E0AD90BD90A8E2B5E0AA0DBB1D90
:1034E0000C9141E0041BACEBB1E00C9385E08093C0
:1034F000B9020C948221053011F00C94951A81E0E8
:103500008093B90187E88093BA01AAE9B1E0AD9050
:10351000BD90A9E2B5E0AA0DBB1D8C918093BC01C2
:1035200085E08093B9020C948221063011F00C944E
:10353000B41A81E08093B90189E88093BA01AAE9BD
:10354000B1E0AD90BD90AAE2B5E0AA0DBB1D8C9193
:103550008093BC01ACEBB1E08C918F708C9385E0D3
:103560008093B9020C948221073011F00C94D81A80
:1035700081E08093B9018BE88093BA01AAE9B1E0B8
:10358000AD90BD90AAE2B5E0AA0DBB1D8C918093D1
:10359000BC01ACEBB1E08C91807F8C9394E0ACEB00
:1035A000B1E00E94ADE985E08093B9020C948221DC
:1035B000083011F00C94F21A81E08093B9018DE883
:1035C0008093BA01AAE9B1E0AD90BD90ABE2B5E05D
:1035D000AA0DBB1D8C918093BC0185E08093B9023C
:1035E0000C948221093011F00C943B1B81E08093F4
:1035F000B9018FE88093BA01AAE9B1E00D911C915D
:10360000015F1F4FAAE9B1E00D931C93AAE9B1E055
:10361000AD90BD90ADE1B5E0AA0DBB1D8C9180933E
:103620009D01AAE9B1E00E9453E8AAE9B1E0AD909A
:10363000BD90ADE1B5E0AA0DBB1D8C9180939C01BE
:1036400083E38A93E0E4F0ED0E9434EAACE9B1E070
:103650000D911C910E9421EAA4E9B1E00C93009124
:10366000940142E0041BACEBB1E00C9385E0809345
:10367000B9020C9482210A3011F00C94841B81E071
:103680008093B90181E98093BA01AAE9B1E00D9173
:103690001C910E5E1F4FAAE9B1E00D931C93AAE99D
:1036A000B1E0AD90BD90ADE1B5E0AA0DBB1D8C9130
:1036B00080939D01AAE9B1E00E9453E8AAE9B1E034
:1036C000AD90BD90ADE1B5E0AA0DBB1D8C9180938E
:1036D0009C0183E38A93E0E4F0ED0E9434EAACE9D4
:1036E000B1E00D911C910E9421EAA4E9B1E00C9394
:1036F0000091940142E0041BACEBB1E00C9385E037
:103700008093B9020C9482210B3011F00C94FE1BB3
:1037100081E08093B90183E98093BA01AAE9B1E01D
:103720000D911C910A5E1F4FAAE9B1E00D931C9305
:10373000AAE9B1E0AD90BD90ADE1B5E0AA0DBB1D29
:103740000D91112740E450E00E9472E9AAE9B1E02E
:103750000D931C93AAE9B1E00E9453E8AAE9B1E0F5
:10376000AD90BD90ADE1B5E0AA0DBB1D0C9140EF51
:103770000423A4E9B1E00C9394E0A4E9B1E00E9431
:10378000ADE9A4E9B1E00C9148E0049F0C92AAE9EC
:10379000B1E00D911C91A4E9B1E04D915527040FC2
:1037A000151FAAE9B1E00D931C93AAE9B1E0AD9011
:1037B000BD90ADE1B5E0AA0DBB1D0C914FE0042317
:1037C000A4E9B1E00C93AAE9B1E00D911C91A4E940
:1037D000B1E04D915527040F151FAAE9B1E00D93F3
:1037E0001C9380919B018093BC0180919A018093EE
:1037F000BD0186E08093B9020C9482210C3011F057
:103800000C942E1C81E08093B90185E98093BA0164
:10381000AAE9B1E0AD90BD90A0E3B5E0AA0DBB1D53
:103820000C9140EF0423ACEBB1E00C9394E0ACEBD3
:10383000B1E00E94ADE9AAE9B1E0AD90BD90A0E38E
:10384000B5E0AA0DBB1D0C914FE00423ADEBB1E038
:103850000C9386E08093B9020C9482210D3011F014
:103860000C944B1C81E08093B90187E98093BA01E5
:10387000AAE9B1E0AD90BD90A3E3B5E0AA0DBB1DF0
:103880009C910E944EE9ACEBB1E08C9385E0809373
:10389000B9020C9482210E3011F00C94D91C81E0F5
:1038A0008093B90189E98093BA01AAE9B1E00D9149
:1038B0001C91075E1F4FAAE9B1E00D931C93AAE982
:1038C000B1E0AD90BD90ADE1B5E0AA0DBB1D9C91FE
:1038D0000E944EE9082F11272227332744E650E0A3
:1038E00060E070E00E947CE9AEEDB3E00D931D93C3
:1038F0002D933D93AAE9B1E00E945AE8AAE9B1E00C
:10390000AD90BD90ADE1B5E0AA0DBB1D9C910E94AC
:103910004EE9082F112744E650E00E9472E9AAE917
:10392000B1E00D931C93AEEDB3E00D911D912D917F
:103930003C91AAE9B1E04D915C91662777270E94FE
:1039400040EAAEEDB3E00D931D932D933D93AAE9AC
:10395000B1E00E945AE8AEEDB3E00D911D912D91BA
:103960003C91AAE9B1E0AD90BD90ADE1B5E0AA0D02
:10397000BB1D9C910E944EE9482F5527662777274B
:103980000E9440EAAEEDB3E00D931D932D933D935D
:103990008091E0038093BC018091DF038093BD019F
:1039A0008091DE038093BE0187E08093B9020C947E
:1039B00082210F3011F00C941D1D81E08093B9011C
:1039C0008BE98093BA0188E08093BC01AAE9B1E059
:1039D0000D911C91095E1F4FAAE9B1E00D931C9354
:1039E00081E08093940100919401083018F011F067
:1039F0000C94181DAAE9B1E0AD90BD90ADE1B5E021
:103A0000AA0DBB1D8C91A4E9B1E0AD90BB24ACEB39
:103A1000B1E0AA0DBB1D8C93AAE9B1E00E9453E866
:103A2000A4E9B1E08C918F5F8C9310F40C94F31C9B
:103A30008FE08093B9020C948221003111F00C9434
:103A4000611D81E08093B9018DE98093BA0188E01E
:103A50008093BC01AAE9B1E00D911C91015E1F4F5A
:103A6000AAE9B1E00D931C9381E080939401009149
:103A70009401083018F011F00C945C1DAAE9B1E033
:103A8000AD90BD90ADE1B5E0AA0DBB1D8C91A4E950
:103A9000B1E0AD90BB24ACEBB1E0AA0DBB1D8C93A3
:103AA000AAE9B1E00E9453E8A4E9B1E08C918F5FEC
:103AB0008C9310F40C94371D8FE08093B9020C9412
:103AC0008221013111F00C94A51D81E08093B90190
:103AD0008FE98093BA0188E08093BC01AAE9B1E044
:103AE0000D911C91095D1F4FAAE9B1E00D931C9344
:103AF00081E08093940100919401083018F011F056
:103B00000C94A01DAAE9B1E0AD90BD90ADE1B5E087
:103B1000AA0DBB1D8C91A4E9B1E0AD90BB24ACEB28
:103B2000B1E0AA0DBB1D8C93AAE9B1E00E9453E855
:103B3000A4E9B1E08C918F5F8C9310F40C947B1D01
:103B40008FE08093B9020C948221023111F00C9421
:103B5000B91D81EA8093B90181E88093BA018BE0B5
:103B60008093980184E08093B9020E948F210C9485
:103B70008221033111F00C94F91D81E08093B90189
:103B800083EA8093BA01AAE9B1E0AD90BD90A7E2C3
:103B9000B5E0AA0DBB1D8C918093BC010091BC01C6
:103BA000053018F011F00C94D71D0C94DC1DACEB13
:103BB000B1E08C9181508C930091BC01063118F0DA
:103BC00011F00C94E51D0C94E81D88E08093BC0175
:103BD0000091BC01023218F011F00C94F11D0C940C
:103BE000F41D89E08093BC0185E08093B9020C94B8
:103BF0008221043111F00C94161E81E08093B901EA
:103C000085EA8093BA01AAE9B1E0AD90BD90A8E23F
:103C1000B5E0AA0DBB1D0C9141E0041BACEBB1E07B
:103C20000C9385E08093B9020C948221053111F048
:103C30000C94301E81E08093B90187EA8093BA0129
:103C4000AAE9B1E0AD90BD90A9E2B5E0AA0DBB1D17
:103C50008C918093BC0185E08093B9020C94822101
:103C6000063111F00C944F1E81E08093B90189EA6E
:103C70008093BA01AAE9B1E0AD90BD90AAE2B5E0A7
:103C8000AA0DBB1D8C918093BC01ACEBB1E08C9173
:103C90008F708C9385E08093B9020C948221073158
:103CA00011F00C94731E81E08093B9018BEA80932C
:103CB000BA01AAE9B1E0AD90BD90AAE2B5E0AA0DC3
:103CC000BB1D8C918093BC01ACEBB1E08C91807FEB
:103CD0008C9394E0ACEBB1E00E94ADE985E0809379
:103CE000B9020C948221083111F00C948D1E81E0F0
:103CF0008093B9018DEA8093BA01AAE9B1E0AD9051
:103D0000BD90ABE2B5E0AA0DBB1D8C918093BC01C8
:103D100085E08093B9020C948221093111F00C9452
:103D2000D61E81E08093B9018FEA8093BA01AAE997
:103D3000B1E00D911C91015F1F4FAAE9B1E00D9315
:103D40001C93AAE9B1E0AD90BD90ADE1B5E0AA0D3C
:103D5000BB1D8C9180939D01AAE9B1E00E9453E8BC
:103D6000AAE9B1E0AD90BD90ADE1B5E0AA0DBB1DF3
:103D70008C9180939C0183E38A93E0E4F0ED0E94B0
:103D800034EAACE9B1E00D911C910E9421EAA4E96A
:103D9000B1E00C930091940142E0041BACEBB1E064
:103DA0000C9385E08093B9020C9482210A3111F0C2
:103DB0000C941F1F81E08093B90181EB8093BA01BD
:103DC000AAE9B1E00D911C910E5E1F4FAAE9B1E086
:103DD0000D931C93AAE9B1E0AD90BD90ADE1B5E0C3
:103DE000AA0DBB1D8C9180939D01AAE9B1E00E94B0
:103DF00053E8AAE9B1E0AD90BD90ADE1B5E0AA0D00
:103E0000BB1D8C9180939C0183E38A93E0E4F0EDE9
:103E10000E9434EAACE9B1E00D911C910E9421EAC4
:103E2000A4E9B1E00C930091940142E0041BACEBD7
:103E3000B1E00C9385E08093B9020C9482210B31A0
:103E400011F00C94991F81E08093B90183EB80936A
:103E5000BA01AAE9B1E00D911C910A5E1F4FAAE9CF
:103E6000B1E00D931C93AAE9B1E0AD90BD90ADE136
:103E7000B5E0AA0DBB1D0D91112740E450E00E9452
:103E800072E9AAE9B1E00D931C93AAE9B1E00E949E
:103E900053E8AAE9B1E0AD90BD90ADE1B5E0AA0D5F
:103EA000BB1D0C9140EF0423A4E9B1E00C9394E016
:103EB000A4E9B1E00E94ADE9A4E9B1E00C9148E0C9
:103EC000049F0C92AAE9B1E00D911C91A4E9B1E024
:103ED0004D915527040F151FAAE9B1E00D931C93CE
:103EE000AAE9B1E0AD90BD90ADE1B5E0AA0DBB1D72
:103EF0000C914FE00423A4E9B1E00C93AAE9B1E0EE
:103F00000D911C91A4E9B1E04D915527040F151FA7
:103F1000AAE9B1E00D931C9380919B018093BC01B1
:103F200080919A018093BD0186E08093B9020C9440
:103F300082210C3111F00C94C91F81E08093B901EA
:103F400085EB8093BA01AAE9B1E0AD90BD90A0E302
:103F5000B5E0AA0DBB1D0C9140EF0423ACEBB1E022
:103F60000C9394E0ACEBB1E00E94ADE9AAE9B1E0BA
:103F7000AD90BD90A0E3B5E0AA0DBB1D0C914FE044
:103F80000423ADEBB1E00C9386E08093B9020C946E
:103F900082210D3111F00C94E61F81E08093B9016C
:103FA00087EB8093BA01AAE9B1E0AD90BD90A3E39D
:103FB000B5E0AA0DBB1D9C910E944EE9ACEBB1E0AF
:103FC0008C9385E08093B9020C9482210E3111F01C
:103FD0000C94742081E08093B90189EB8093BA013D
:103FE000AAE9B1E00D911C91075E1F4FAAE9B1E06B
:103FF0000D931C93AAE9B1E0AD90BD90ADE1B5E0A1
:10400000AA0DBB1D9C910E944EE9082F1127222763
:10401000332744E650E060E070E00E947CE9AEEDBA
:10402000B3E00D931D932D933D93AAE9B1E00E9457
:104030005AE8AAE9B1E0AD90BD90ADE1B5E0AA0DB6
:10404000BB1D9C910E944EE9082F112744E650E0C9
:104050000E9472E9AAE9B1E00D931C93AEEDB3E0C2
:104060000D911D912D913C91AAE9B1E04D915C918A
:10407000662777270E9440EAAEEDB3E00D931D93CB
:104080002D933D93AAE9B1E00E945AE8AEEDB3E06A
:104090000D911D912D913C91AAE9B1E0AD90BD909B
:1040A000ADE1B5E0AA0DBB1D9C910E944EE9482FE1
:1040B0005527662777270E9440EAAEEDB3E00D93BF
:1040C0001D932D933D938091E0038093BC018091DB
:1040D000DF038093BD018091DE038093BE0187E002
:1040E0008093B9020C9482210F3111F00C94B82006
:1040F00081E08093B9018BEB8093BA0188E08093D3
:10410000BC01AAE9B1E00D911C91095E1F4FAAE91B
:10411000B1E00D931C9381E0809394010091940190
:10412000083018F011F00C94B320AAE9B1E0AD907A
:10413000BD90ADE1B5E0AA0DBB1D8C91A4E9B1E045
:10414000AD90BB24ACEBB1E0AA0DBB1D8C93AAE9EA
:10415000B1E00E9453E8A4E9B1E08C918F5F8C93A9
:1041600010F40C948E208DE08093B9020C9482217F
:10417000003211F00C94FC2081E08093B9018DEBAA
:104180008093BA0188E08093BC01AAE9B1E00D9167
:104190001C91015E1F4FAAE9B1E00D931C9381E0D1
:1041A0008093940100919401083018F011F00C9460
:1041B000F720AAE9B1E0AD90BD90ADE1B5E0AA0D60
:1041C000BB1D8C91A4E9B1E0AD90BB24ACEBB1E098
:1041D000AA0DBB1D8C93AAE9B1E00E9453E8A4E9A3
:1041E000B1E08C918F5F8C9310F40C94D2208DE011
:1041F0008093B9020C948221013211F00C94402179
:1042000081E08093B9018FEB8093BA0188E08093BD
:10421000BC01AAE9B1E00D911C91095D1F4FAAE90B
:10422000B1E00D931C9381E080939401009194017F
:10423000083018F011F00C943B21AAE9B1E0AD90E0
:10424000BD90ADE1B5E0AA0DBB1D8C91A4E9B1E034
:10425000AD90BB24ACEBB1E0AA0DBB1D8C93AAE9D9
:10426000B1E00E9453E8A4E9B1E08C918F5F8C9398
:1042700010F40C9416218DE08093B9020C948221E5
:10428000023211F00C94822181E08093B90181EC1B
:104290008093BA0180E18093BC01AAE9B1E00D915D
:1042A0001C910D591F4FAAE9B1E00D931C9381E0B9
:1042B0008093940100919401003118F011F00C9456
:1042C0007F21AAE9B1E0AD90BD90ADE1B5E0AA0DC6
:1042D000BB1D8C91A4E9B1E0AD90BB24ACEBB1E087
:1042E000AA0DBB1D8C93AAE9B1E00E9453E8A4E992
:1042F000B1E08C918F5F8C9310F40C945A2185E17E
:104300008093B90280E0809303340C948E2186E080
:104310008093BF038091B9038093C003089500E0A8
:1043200010E020E030E0A0EAB1E00D931D932D9362
:104330003C93A8E9B1E0AD90BB24AFE1B4E0AA0D95
:10434000BB1D8C9180939401909194010E944EE941
:10435000A4E9B1E08C93A4E9B1E08C91A0EAB1E0CA
:104360008D9388278D938D938C93A8E9B1E08C91E0
:104370008F5F8C93A8E9B1E0AD90BB24AFE1B4E0CE
:10438000AA0DBB1D8C9180939401909194010E9481
:104390004EE9A4E9B1E08C93A4E9B1E00C911127B6
:1043A0002227332744E650E060E070E00E947CE979
:1043B000A4EAB1E00D931D932D933D93A0EAB1E0E3
:1043C0000D911D912D913C91A4EAB1E04D915D912B
:1043D0006D917C910E9440EAA0EAB1E00D931D939B
:1043E0002D933D93A8E9B1E08C918F5F8C93A8E960
:1043F000B1E0AD90BB24AFE1B4E0AA0DBB1D8C9140
:1044000080939401909194010E944EE9A4E9B1E057
:104410008C93A4E9B1E00C9111272227332740E1C6
:1044200057E260E070E00E947CE9A4EAB1E00D93FD
:104430001D932D933D93A0EAB1E00D911D912D9117
:104440003C91A4EAB1E04D915D916D917C910E9407
:1044500040EAA0EAB1E00D931D932D933D93A8E9A6
:10446000B1E08C918F5F8C93A8E9B1E0AD90BB2453
:10447000AFE1B4E0AA0DBB1D8C91809394019091A3
:1044800094010E944EE9A4E9B1E08C93A4E9B1E063
:104490000C9111272227332740E452E46FE070E0AB
:1044A0000E947CE9A4EAB1E00D931D932D933D9306
:1044B000A0EAB1E00D911D912D913C91A4EAB1E0EB
:1044C0004D915D916D917C910E9440EAA0EAB1E02E
:1044D0000D931D932D933D93A8E9B1E08C918F5FCF
:1044E0008C93A8E9B1E0AD90BB24AFE1B4E0AA0D94
:1044F000BB1D8C9180939401909194010E944EE990
:10450000A4E9B1E08C93A4E9B1E00C911127222732
:10451000332740E051EE65EF75E00E947CE9A4EAA4
:10452000B1E00D931D932D933D93A0EAB1E00D9161
:104530001D912D913C91A4EAB1E04D915D916D9159
:104540007C910E9440EAA0EAB1E00D931D932D9367
:104550003D93A0EAB1E00D911D912D913C9140E376
:1045600055E760E070E00E9445EAA0EAB1E00D93F3
:104570001D932D933D9384E0809394014091940189
:1045800001E0041718F011F00C94E522A4E9B1E061
:10459000AD90BB24AFE9B1E0AA0DBB1D8C91A9EB96
:1045A000B2E0AD90BB24A8EBB1E0AA0DBB1D8C938B
:1045B000A9EBB2E08C918F5F8C9380919401815034
:1045C0008093940110F00C94BE2208950091280469
:1045D0004FE00423ABEBB1E00C930091280440EFD3
:1045E0000423ACEBB1E00C9394E0ACEBB1E00E949F
:1045F000ADE9089590912A040E944EE9082F1127F1
:104600002227332740E157E260E070E00E947CE916
:10461000A0EAB1E00D931D932D933D939091290451
:104620000E944EE9082F112744E650E00E9472E9EB
:10463000ACE9B1E00D931C93A0EAB1E00D911D919E
:104640002D913C91ACE9B1E04D915C9166277727C3
:104650000E9440EAA0EAB1E00D931D932D933D9393
:10466000A0EAB1E00D911D912D913C91909128040B
:104670000E944EE9482F5527662777270E9440EA77
:10468000A0EAB1E00D931D932D933D93A0EAB1E014
:104690000D911D912D913C914AE050E060E070E059
:1046A0000E94EFE8A0EAB1E04D935D936D937D9396
:1046B00000912B04003011F00C947223A0EAB1E0B9
:1046C0000D911D912D913C914FE057E260E070E01B
:1046D0000E9440EAA0EAB1E00D931D932D933D9313
:1046E0000C9484230FE017E220E030E0A0EAB1E070
:1046F0004D915D916D917C910E9445EAA0EAB1E0F7
:104700000D931D932D933D93A0EAB1E08D919C9163
:10471000AAE9B1E08D939C9380919B018093BB01AA
:1047200080919A018093BC0185E08093B90208953D
:10473000009126040F3F10F00C949325009126045D
:1047400041E0041BABEBB1E00C930091980144E015
:10475000040FA7E9B1E00C93A7E9B1E0AD90BB2449
:10476000AFE1B4E0AA0DBB1D9C910E944EE9082F59
:1047700011272227332740E051EE65EF75E00E94B4
:104780007CE9A0EAB1E00D931D932D933D93009138
:10479000980143E0040FA7E9B1E00C93A7E9B1E069
:1047A000AD90BB24AFE1B4E0AA0DBB1D9C910E946B
:1047B0004EE9082F11272227332740E452E46FE007
:1047C00070E00E947CE9A4EAB1E00D931D932D9363
:1047D0003D93A0EAB1E00D911D912D913C91A4EA89
:1047E000B1E04D915D916D917C910E9440EAA0EA0B
:1047F000B1E00D931D932D933D930091980142E0FC
:10480000040FA7E9B1E00C93A7E9B1E0AD90BB2498
:10481000AFE1B4E0AA0DBB1D9C910E944EE9082FA8
:1048200011272227332740E157E260E070E00E9421
:104830007CE9A4EAB1E00D931D932D933D93A0EA8A
:10484000B1E00D911D912D913C91A4EAB1E04D9103
:104850005D916D917C910E9440EAA0EAB1E00D93D8
:104860001D932D933D930091980141E0040FA7E91A
:10487000B1E00C93A7E9B1E0AD90BB24AFE1B4E0A7
:10488000AA0DBB1D9C910E944EE9082F11272227DB
:10489000332744E650E060E070E00E947CE9A4EA3F
:1048A000B1E00D931D932D933D93A0EAB1E00D91DE
:1048B0001D912D913C91A4EAB1E04D915D916D91D6
:1048C0007C910E9440EAA0EAB1E00D931D932D93E4
:1048D0003D93A0EAB1E00D911D912D913C91A8E985
:1048E000B1E0AD90BB24AFE1B4E0AA0DBB1D9C913B
:1048F0000E944EE9482F5527662777270E9440EAF5
:10490000A0EAB1E00D931D932D933D938091A301F7
:104910008093BC018091A2018093BD018091A1018F
:104920008093BE018091A0018093BF010091980106
:104930004AE0040FA7E9B1E00C93A7E9B1E0AD901C
:10494000BB24AFE1B4E0AA0DBB1D9C910E944EE9CF
:10495000082F11272227332740E051EE65EF75E03D
:104960000E947CE9A0EAB1E00D931D932D933D9345
:104970000091980149E0040FA7E9B1E00C93A7E981
:10498000B1E0AD90BB24AFE1B4E0AA0DBB1D9C919A
:104990000E944EE9082F11272227332740E452E4D2
:1049A0006FE070E00E947CE9A4EAB1E00D931D93F2
:1049B0002D933D93A0EAB1E00D911D912D913C9175
:1049C000A4EAB1E04D915D916D917C910E9440EA25
:1049D000A0EAB1E00D931D932D933D9300919801B2
:1049E00048E0040FA7E9B1E00C93A7E9B1E0AD906E
:1049F000BB24AFE1B4E0AA0DBB1D9C910E944EE91F
:104A0000082F11272227332740E157E260E070E0AA
:104A10000E947CE9A4EAB1E00D931D932D933D9390
:104A2000A0EAB1E00D911D912D913C91A4EAB1E075
:104A30004D915D916D917C910E9440EAA0EAB1E0B8
:104A40000D931D932D933D930091980147E0040F22
:104A5000A7E9B1E00C93A7E9B1E0AD90BB24AFE1C9
:104A6000B4E0AA0DBB1D9C910E944EE9082F1127AE
:104A70002227332744E650E060E070E00E947CE9A2
:104A8000A4EAB1E00D931D932D933D93A0EAB1E00C
:104A90000D911D912D913C91A4EAB1E04D915D9154
:104AA0006D917C910E9440EAA0EAB1E00D931D93C4
:104AB0002D933D930091980146E0040FA7E9B1E0E2
:104AC0000C93A0EAB1E00D911D912D913C91A7E9C5
:104AD000B1E0AD90BB24AFE1B4E0AA0DBB1D9C9149
:104AE0000E944EE9482F5527662777270E9440EA03
:104AF000A0EAB1E00D931D932D933D938091A30106
:104B00008093C0018091A2018093C1018091A10195
:104B10008093C2018091A0018093C3018CE08093B7
:104B2000B9020C949D2586E08093BF038091B90360
:104B30008093C00381E08093B902089590912A0484
:104B40000E944EE9082F11272227332748EE53E011
:104B500060E070E00E947CE9A0EAB1E00D931D9353
:104B60002D933D93909129040E944EE9082F11271F
:104B7000222733274AE050E060E070E00E947CE9A1
:104B8000A4EAB1E00D931D932D933D93A0EAB1E00B
:104B90000D911D912D913C91A4EAB1E04D915D9153
:104BA0006D917C910E9440EAA0EAB1E00D931D93C3
:104BB0002D933D93809128048093940194E0A4E97F
:104BC000B1E00E94ADE9A0EAB1E00D911D912D91F7
:104BD0003C91A4E9B1E04C915527662777270E94C4
:104BE00040EAA0EAB1E00D931D932D933D93A0EA16
:104BF000B1E00D911C91A2EEB3E04D915C91041BCC
:104C0000150BAAE9B1E00D931C9380919B01809351
:104C1000BC0180919A018093BD0190912D040E9466
:104C20004EE9082F11272227332748EE53E060E092
:104C300070E00E947CE9A8EAB1E00D931D932D93EA
:104C40003D9390912C040E944EE9082F11272227B2
:104C500033274AE050E060E070E00E947CE9A4EA7B
:104C6000B1E00D931D932D933D93A8EAB1E00D9112
:104C70001D912D913C91A4EAB1E04D915D916D9112
:104C80007C910E9440EAA8EAB1E00D931D932D9318
:104C90003D9380912B048093940194E0A4E9B1E0CA
:104CA0000E94ADE9A8EAB1E00D911D912D913C91D2
:104CB000A4E9B1E04C915527662777270E9440EA86
:104CC000A8EAB1E00D931D932D933D93A8EAB1E0BE
:104CD0000D911C91A0EAB1E04D915C91041B150B64
:104CE000AAE9B1E00D931C93AAE9B1E00D911C91E2
:104CF00005501040AAE9B1E00D931C9380919B01EF
:104D00008093BE0180919A018093BF0188E08093D7
:104D1000B902089504E640912804049FABEBB1E08A
:104D20000C920091BB010F93909129040E944EE9CF
:104D3000482F0F91040FABEBB1E00C9304E64091C8
:104D40002A04049FACEBB1E00C920091BC010F93DC
:104D500090912B040E944EE9482F0F91040FACEB69
:104D6000B1E00C9304E640912C04049FADEBB1E05C
:104D70000C920091BD010F9390912D040E944EE979
:104D8000482F0F91040FADEBB1E00C9386E08093B8
:104D9000B902089580E090E0AAE9B1E08D939C9378
:104DA000A8E9B1E0AD90BB24AFE1B4E0AA0DBB1D12
:104DB0008C9180939B01A8E9B1E0AD90BB24A0E267
:104DC000B4E0AA0DBB1D8C9180939A0183E38A9372
:104DD000E0E4F0ED0E9434EAAAE9B1E00D911C9103
:104DE0000E9421EAA4E9B1E00C930091940142E011
:104DF000041BA9EBB2E0AD90BB24A8EBB1E0AA0D77
:104E0000BB1D0C93A9EBB2E08C918F5F8C9308953E
:104E1000909128040E944EE9ABEBB1E08C93909105
:104E200029040E944EE9082F112740E157E20E9411
:104E300072E9AAE9B1E00D931C9390912A040E94B3
:104E40004EE9082F112744E650E00E9472E9ACE9D0
:104E5000B1E00D931C93AAE9B1E00D911C91ACE96E
:104E6000B1E04D915C91040F151FAAE9B1E00D93DB
:104E70001C93AAE9B1E00D911C910F931F9390919F
:104E80002B040E944EE9482F55271F910F91040FC4
:104E9000151FAAE9B1E00D931C9380919B018093AB
:104EA000030180919A018093040180912C048093E6
:104EB000050100912D0444E6049FA6E0B1E00C92A8
:104EC0000091060140912E04040FA6E0B1E00C937E
:104ED00090912E040E944EE9082F112740E157E2DD
:104EE0000E9472E9AAE9B1E00D931C9390912F04FE
:104EF0000E944EE9082F112744E650E00E9472E913
:104F0000ACE9B1E00D931C93AAE9B1E00D911C91BD
:104F1000ACE9B1E04D915C91040F151FAAE9B1E035
:104F20000D931C93AAE9B1E00D911C910F931F936F
:104F3000909130040E944EE9482F55271F910F9100
:104F4000040F151FAAE9B1E00D931C9380919B01FA
:104F50008093070180919A01809308018091300429
:104F600080930901909131040E944EE9082F112786
:104F700040E157E20E9472E9AAE9B1E00D931C9367
:104F8000909132040E944EE9082F112744E650E028
:104F90000E9472E9ACE9B1E00D931C93AAE9B1E07B
:104FA0000D911C91ACE9B1E04D915C91040F151F7E
:104FB000AAE9B1E00D931C93AAE9B1E00D911C910F
:104FC0000F931F93909133040E944EE9482F552769
:104FD0001F910F91040F151FAAE9B1E00D931C93C7
:104FE00080919B0180930A0180919A0180930B012B
:104FF0008091340480930C018EE08093B90208956F
:1050000000911B0549E0041BABEBB1E00C9384E07D
:105010008093950189E08093940140911B05009154
:105020009401041718F011F00C943528A4E9B1E0AC
:10503000AD90BB24AFE1B4E0AA0DBB1D8C91A5E9F6
:10504000B1E0AD90BB24AFEFB0E0AA0DBB1D8C93D7
:10505000A5E9B1E08C918F5F8C93A4E9B1E08C91CC
:105060008F5F8C9310F40C940D2800911B0546E083
:10507000041BA9EBB2E00C930895009124040A31BB
:1050800010F00C94D92A81E08093B9010091240496
:10509000023011F00C94562884E08093BA0186E027
:1050A000809398010E9498230C94D72A033011F022
:1050B0000C94672881E08093BA0186E08093980180
:1050C00083E08093B9020E948F210C94D72A043088
:1050D00011F00C94B02883E08093BA0180912504EC
:1050E0008093BB010091BB01073111F00C947D2826
:1050F00088E08093BB010C9496280091BB0102329A
:1051000011F00C94882889E08093BB010C949628B8
:105110000091BB01053018F011F00C9491280C940B
:105120009628ABEBB1E08C918F5F8C9300912604B5
:1051300041E0041BACEBB1E00C9385E08093B90235
:105140000091FF33083610F00C94AE28AFEFB3E3B4
:105150008C918F5F8C9380E0809300340C94D72ADD
:10516000073011F00C94C02888E08093BA01809138
:1051700026048093BB0184E08093B9020C94D72A63
:105180000F3011F00C94E02887E18093BA018091F0
:1051900025048093BB0100912504013018F011F023
:1051A0000C94D4280C94DB28009125044FE0041BB8
:1051B000ABEBB1E00C9384E08093B9020C94D72A56
:1051C000003111F00C94F62889E18093BA01909196
:1051D00025040E944EE9082F41E0041BABEBB1E02F
:1051E0000C9384E08093B9020C94D72A013111F01A
:1051F0000C940E298BE18093BA0180E08093BB016F
:1052000000912504003111F00C94092981E080936C
:10521000BB0184E08093B9020C94D72A043111F0C9
:105220000C94742988E1809395010091250442E053
:10523000049FA4E9B1E00C9200912504043010F021
:105240000C94252900000C9451290091250400316B
:1052500010F00C943229A4E9B1E08C9184508C9325
:105260000C94512900912504033110F00C943F292E
:10527000A4E9B1E08C9188508C930C945129009151
:105280002504093110F00C944C29A4E9B1E08C916B
:105290008C508C930C945129A4E9B1E08C918E50E0
:1052A0008C930091950140919401040FAAEBB1E019
:1052B0000C930091260444E6049FA4E9B1E00C920B
:1052C000909127040E944EE9A5E9B1E08C930091EA
:1052D000940140919501040FABEBB1E00C9384E095
:1052E0008093B9020C94D72A053111F00C94FD2952
:1052F00000912504013011F00C94872981E48093FA
:10530000BA01809126048093BB010C94F8290230E5
:1053100011F00C94A62982E48093BA01009126042E
:1053200044E6049FABEBB1E00C92909127040E94FD
:105330004EE9A4E9B1E08C930091BB014091940146
:10534000040FABEBB1E00C930C94F829053011F08D
:105350000C94B32983E48093BA018091260480934E
:10536000BB010C94F829073011F00C94C02984E497
:105370008093BA01809126048093BB010C94F82994
:1053800000912504013181E008F480E08F930091C1
:105390002504063181E010F009F080E09F91892317
:1053A000882311F40C94F8290091250441E1041B91
:1053B000A4E9B1E00C9304E440919401040FAAEB3A
:1053C000B1E00C930091260444E6049FABEBB1E0FE
:1053D0000C92909127040E944EE9A4E9B1E08C93CD
:1053E0000091BB0140919401040FABEBB1E00C9331
:1053F00084E08093B9020C94D72A063111F00C9402
:10540000C92A00912504023011F00C940C2A8CE476
:105410008093BA010C949D2A023111F00C94152A44
:105420008EE48093BA010C949D2A023211F00C9400
:105430001E2A80E58093BA010C949D2A00912504D0
:10544000003481E008F480E08F9300912504083453
:1054500081E010F009F080E09F918923882311F406
:105460000C94482A0091250440E4041BA4E9B1E00F
:105470000C93A4E9B1E00C9142E0049F0C9202E588
:1054800040919401040FAAEBB1E00C930C949D2A77
:105490000A3411F00C94512A84E68093BA010C94DA
:1054A0009D2A0B3411F00C945A2A86E68093BA0197
:1054B0000C949D2A0F3411F00C94632A88E6809393
:1054C000BA010C949D2A003511F00C946C2A8AE6DE
:1054D0008093BA010C949D2A00912504063581E041
:1054E00008F480E08F93009125040D3581E010F0E1
:1054F00009F080E09F918923882311F40C94962A67
:105500000091250448E5041BA4E9B1E00C93A4E94B
:10551000B1E00C9142E0049F0C920CE640919401A2
:10552000040FAAEBB1E00C930C949D2A053611F000
:105530000C949D2A8CE78093BA0180912604809375
:10554000BB0184E08093B902009125040A3511F073
:105550000C94AE2A8091260480937E340091250419
:105560000D3581E009F080E08F930091260403302F
:1055700080E010F009F081E09F918923882311F4E5
:105580000C94C72AABEBB1E08C9182508C930C94B5
:10559000D72A093111F00C94D72A8FE78093BA01EA
:1055A000809125048093BB0184E08093B9020C9420
:1055B0002135009124040B3110F00C94B62F00918A
:1055C0002504053010F00C94B72B81E08093B901CD
:1055D00000912504003011F00C94FC2A0091FF3357
:1055E0000C3610F00C94F82A0E94E5180C94FA2A54
:1055F0000E94B0190C94B52B013011F00C94572B6C
:1056000000917834003018F011F00C94092B0C94B0
:10561000552B8AE1A0E0B1E08D9388278C9381E03F
:10562000A0E0B1E00E94A9E88D9388278C93809137
:1056300078348093020181E08093030181E08093BC
:105640009401009194010E3018F011F00C94422B4B
:10565000A4E9B1E0AD90BB24A7E2B4E0AA0DBB1D64
:105660008C91A4E9B1E0AD90BB24A3E0B1E0AA0D18
:10567000BB1D8C93A4E9B1E08C918F5F8C9310F4E7
:105680000C94212BE0E2F6ED0E9434EA0E94B0E88F
:105690000E94BCE882E18093DC030E94310881E033
:1056A0008093B90280E0809378340C94B52B02305B
:1056B00011F00C94952B85EC8093BA0180E08093D7
:1056C000BB0187E08093940140911B0500919401F8
:1056D000041718F011F00C948C2BA4E9B1E0AD90F4
:1056E000BB24AFE1B4E0AA0DBB1D8C91A4E9B1E0ED
:1056F000AD90BB24A4EBB1E0AA0DBB1D8C93ABEB2A
:10570000B1E08C918F5F8C93A4E9B1E08C918F5FB5
:105710008C9310F40C94642B0091BB0143E0040FB4
:10572000A9EBB2E00C930C94B52B033011F00C9460
:10573000A62B80917F348093BA01809126048093B8
:10574000BB0184E08093B9020C94B52B043011F0B6
:105750000C94B52B80917F348093BA0180912604FC
:105760008093BB0184E08093B9020C94B42F009124
:105770002504053011F00C945F2FA6E2B4E00D91E2
:10578000112744E650E00E9472E9A1E0B4E30D93D2
:105790001C93A1E0B4E30D911C910F931F93909182
:1057A00027040E944EE9482F55271F910F91040F9F
:1057B000151FA1E0B4E30D931C93A1E0B4E30D9198
:1057C0001C91013050E0150781E008F480E08F93D0
:1057D000A1E0B4E30D911C91043650E0150781E07F
:1057E00010F009F080E09F918923882311F40C9434
:1057F000DA2CA1E0B4E30D911C9101501040A1E01E
:10580000B4E30D931C93E8EDFCE2EF93FF93E2E128
:10581000FCE2A1E0B4E38D919C91880F991FE80F01
:10582000F91F09940C94987D0C94B37D0C94C47D5D
:105830000C94D27D0C94ED7D0C94FB7D0C94097E30
:105840000C94247E0C94327E0C94407E0C945B7EEF
:105850000C94697E0C94777E0C94927E0C94AD7EB1
:105860000C94BB7E0C94C97E0C94D57E0C94E17E86
:105870000C94ED7E0C94F97E0C94077F0C94157FAC
:105880000C94237F0C94317F0C943F7F0C944D7FBC
:105890000C946B7F0C94797F0C94877F0C94957F8C
:1058A0000C94C77F0C94F97F0C9407800C9415809E
:1058B0000C9423800C9431800C943F800C944D8088
:1058C0000C945B800C9469800C9477800C94858098
:1058D0000C9493800C949C800C94AA800C94B880B7
:1058E0000C94C6800C94D4800C94E2800C94F080CC
:1058F0000C94FE800C940C810C941A810C942881D9
:105900000C9436810C9444810C9462810C947081C7
:105910000C947E810C948C810C949A810C94A881B7
:105920000C94B6810C94C4810C94D2810C94E081C7
:105930000C94EE810C94FC810C940A820C941882D5
:105940000C9426820C9444820C9462820C94708293
:105950000C947E820C948C820C949A820C94A88273
:105960000C94B9820C94C7820C94D5820C94E38277
:105970000C94F1820C94FF820C940D830C942B8375
:105980000C9439830C9447830C9455830C94638353
:105990000C9471830C947F830C948D830C949B8363
:1059A0000C94A9830C94B7830C94C8830C94D6836D
:1059B0000C945D2FA1E0B4E30D911C91053650E0ED
:1059C000150781E008F480E08F93A1E0B4E30D9126
:1059D0001C91073C50E0150781E010F009F080E0D1
:1059E0009F918923882311F40C94D92DA1E0B4E36D
:1059F0000D911C9104561040A1E0B4E30D931C934B
:105A0000E7EDFDE2EF93FF93EFE0FDE2A1E0B4E309
:105A10008D919C91880F991FE80FF91F09940C94A0
:105A2000E4830C94F2830C9410840C941E840C94E4
:105A30002C840C944A840C9458840C9476840C9492
:105A400084840C9492840C94B0840C94BE840C9442
:105A5000CC840C94EA840C9408850C9426850C94D0
:105A600034850C9442850C9450850C945E850C947E
:105A70006C850C947A850C9488850C9496850C948E
:105A8000A4850C94B2850C94C0850C94CE850C949E
:105A9000DC850C94FA850C9408860C9416860C947C
:105AA00024860C9432860C9440860C944E860C947A
:105AB0005C860C946A860C9478860C9495860C947B
:105AC000B2860C94C3860C94F4860C9425870C94AF
:105AD00056870C94A1870C94AF870C94BD870C94C7
