:100000000C94340018950000189500001895000015
:10001000189500001895000018950000189500002C
:10002000189500001895000018950000189500001C
:10003000189500001895000018950000189500000C
:100040000C944E18189500000C947A07189500002F
:1000500018950000189500001895000018950000EC
:100060000C94ED07189500008FEF8DBFC8EDE0EC04
:100070004E2E88E08EBFD8E0F8E05F2EA89584B7BA
:10008000082E877F84BF88E1992780936000909332
:1000900060000E94BD09EEEFF7E0A0E0B1E0882724
:1000A0008D933197E9F780E48093C40080E08093DA
:1000B000C50088E18093C100662484E690E00E9438
:1000C0007D18E0E0FF270081A7E3B1E00C93A7E3F0
:1000D000B1E00C9103FB16F00C94770082E0809362
:1000E000780380917203809379030C947A008FEFE8
:1000F0008093780322982A9A74B7777F74BF8FE130
:1001000097E0809360009093600078947091C100B4
:1001100070687093C1007091BC0071607093BC00F6
:10012000219A5B9A53985B9A559A579A569A2098B7
:10013000289A87E880937A0080E480937C0070B7E7
:100140007F7770BF1A990C94A7000E94CA03E1E060
:10015000F0E0A0E1B0E00E94D719053011F40C9452
:10016000B3000E94CA030E94F4048091600088607A
:1001700080936000AAE6B1E08C918F5F8C93009130
:100180006A010F3F11F00C946C01A9E6B1E08C916B
:100190008F5F8C93009169010A3511F00C94F9007E
:1001A00000917C03003018F011F00C94D9000C94ED
:1001B000F700ACE7B3E08C918F5F8C9300917C03E8
:1001C0000C3318F011F00C94E7000C94F70081E068
:1001D0008093710281E08093720280E080937C03BF
:1001E00085E08093780380917203809379030C9467
:1001F0005301043B11F00C94280100914F01013090
:1002000081E009F080E08F93A6E2B0E00C9104FB5E
:1002100081E00EF480E09F918923882311F40C94EF
:100220002301ABE6B1E08C918F5F8C9300916B0161
:10023000053018F011F00C941F010C9421010E945C
:10024000D5070C94260180E080936B010C94530138
:100250000F3F11F00C945301AAE7B3E00D911C91EC
:10026000003050E0150718F011F00C9439010C948F
:100270003D01AAE7B3E00E945B18AAE7B3E00D9145
:100280001C910C3350E0150718F011F00C944A0142
:100290000C94530183E080937803809172038093E0
:1002A00079030E942006AEEBB3E00E945B18AEEB30
:1002B000B3E00D911C9100325EE4150718F011F0C7
:1002C0000C9464010C946C010E94E40B80E090E0BB
:1002D000AEEBB3E08D939C93A9E2B0E08C9183FBED
:1002E000A1E5B1E0882780F98C93409151010091FC
:1002F000D803041711F40C94A30184E690E00E9443
:100300007D18409151010091D803041711F40C9409
:10031000A30100915101003011F00C949901299A28
:1003200081E08093D903809151018093D8030C948C
:100330009F01299880E08093D9030E94EE09809163
:1003400051018093D8030091D903013011F00C942E
:100350004A03A9E2B0E08C9183FBA1E5B1E08827D4
:1003600080F98C939FB7F8948091600088618093A6
:100370006000877E809360009FBF0E948C18A5ED6F
:10038000B3E02C93A6EDB3E01C930091D6030F3F8E
:1003900011F40C9445034091D7030091D603041740
:1003A00011F40C94450381E080937C0384E18093F5
:1003B00072018091D503809373018091D60380935D
:1003C000740184E0809372020E9443068091D603F8
:1003D0008093D7034091C0030091D503041711F017
:1003E0000C9445030091D6034FE70423A9EAB3E038
:1003F0000C93E3E8F3E0AEE7B3E00E94A319A3E8AF
:10040000B3E0ECEBFCE30E942B194091C103009197
:10041000A903041711F00C941302A3E8B3E0E0EC75
:10042000FCE30E942B194091C2030091A903041719
:1004300011F00C942102A3E8B3E0E4ECFCE30E9489
:100440002B194091C3030091A903041711F00C94D8
:100450002F02A3E8B3E0E8ECFCE30E942B194091E3
:10046000C4030091A903041711F00C943D02A3E802
:10047000B3E0ECECFCE30E942B194091C503009122
:10048000A903041711F00C944B02A3E8B3E0E0EDCC
:10049000FCE30E942B194091C6030091A9030417A5
:1004A00011F00C945902A3E8B3E0E4EDFCE30E94E0
:1004B0002B194091C7030091A903041711F00C9464
:1004C0006702A3E8B3E0E8EDFCE30E942B1940913A
:1004D000C8030091A903041711F00C947502A3E856
:1004E000B3E0ECEDFCE30E942B194091C9030091AD
:1004F000A903041711F00C948302A3E8B3E0E0EE23
:10050000FCE30E942B194091CA030091A903041730
:1005100011F00C949102A3E8B3E0E4EEFCE30E9436
:100520002B194091CB030091A903041711F00C94EF
:100530009F02A3E8B3E0E8EEFCE30E942B19409190
:10054000CC030091A903041711F00C94AD02A3E8A9
:10055000B3E0ECEEFCE30E942B194091CD03009137
:10056000A903041711F00C94BB02A3E8B3E0E0EF79
:10057000FCE30E942B194091CE030091A9030417BC
:1005800011F00C94C902A3E8B3E0E4EFFCE30E948D
:100590002B194091CF030091A903041711F00C947B
:1005A000D702A3E8B3E0E8EFFCE30E942B194091E7
:1005B000D0030091A903041711F00C94E502A3E8FD
:1005C000B3E0ECEFFCE30E942B194091D1030091C2
:1005D000A903041711F00C94F302A3E8B3E0E0E0E0
:1005E000FDE30E942B194091D2030091A903041747
:1005F00011F00C940103A3E8B3E0E4E0FDE30E94F2
:100600002B194091D3030091A903041711F00C9406
:100610000F03A3E8B3E0E8E0FDE30E942B1940914B
:10062000D4030091A903041711F00C941D03A3E84F
:10063000B3E0ECE0FDE30E942B19E3E8F3E00E9455
:10064000B51CECEBFCE30E94511E0E949C1C11F0B7
:100650000C943203E3E8F3E0AEE7B3E00E94A319A1
:100660000C944503E3E8F3E00E94B51CE0ECFCE3E6
:100670000E94511E0E949C1C11F00C944203299868
:100680000C944303299A0E94EE09809160008860CF
:100690008093600000917403003018F011F00C9406
:1006A00053030C94C70380E080937403009172029B
:1006B000013018F011F00C945F030C946B0380E090
:1006C0008093700186E08093780380917203809319
:1006D00079030C94C703AAE7B3E00D911C91003095
:1006E00050E0150711F00C947903AAE7B3E00E94DB
:1006F0005B18009173020E3F11F00C9487038091F8
:10070000700180936F010E94A7140C94C70300919D
:100710005001013081E009F080E08F930091730374
:10072000013081E009F080E09F918923882311F452
:100730000C94A2038091700180936F010E94A71412
:100740000C94C70300914F01013081E009F080E073
:100750008F9300917303023081E009F080E09F9154
:100760008923882311F40C94BD0380917001809338
:100770006F010E94A7140C94C70380E0809370015E
:1007800086E0809378038091720380937903A89523
:100790000C94B500E1E0F0E00E946E18E7E1F0E0B3
:1007A000A0E1BB2781E08C937BE70E94B719A42DC1
:1007B000B52DE8E3FDE30E940619E2E0F0E0D20186
:1007C0000E94CC19E8E1F0E0A0E1BB278AE48C9319
:1007D0007BE70E94B719E9E1F0E0A0E1BB2781E0E7
:1007E0008C937BE70E94B719EAE1F0E0A0E1BB2718
:1007F00081E08C937BE70E94B719ECE1F0E000E226
:100800001EE4A0E1BB277BE70E94B919EFE1F0E00D
:100810000AEF10E0A0E1BB277BE70E94B919E0ECEA
:10082000FCE30E94441EE1E2F0E0ADE0BB2794E06F
:100830007BE70E94BA19EEE1F0E0A0E1BB2780E07F
:100840008C937BE70E94B719ECE1F0E000E21EE434
:10085000A0E1BB277BE70E94B919E5E2F0E0A0E147
:10086000BB2780E08C937BE70E94B719E6E2F0E0BB
:10087000A0E1BB2781E08C937BE70E94B719E7E2F8
:10088000F0E0A0E1BB2782E08C937BE70E94B719E0
:10089000E8E2F0E0A0E1BB2783E08C937BE70E94D5
:1008A000B719E9E2F0E0A0E1BB2784E08C937BE795
:1008B0000E94B719EAE2F0E0A0E1BB2785E08C9343
:1008C0007BE70E94B719EBE2F0E0A0E1BB2786E0EE
:1008D0008C937BE70E94B719ECE2F0E0A0E1BB2724
:1008E00087E08C937BE70E94B719EDE2F0E0A0E18E
:1008F000BB2788E08C937BE70E94B719EEE2F0E01B
:10090000A0E1BB2789E08C937BE70E94B719EFE257
:10091000F0E0A0E1BB2788E38C937BE70E94B71946
:10092000E0E3F0E0A0E1BB2780E08C937BE70E944E
:10093000B719E1E3F0E0A0E1BB2782E28C937BE70B
:100940000E94B719E2E3F0E0A0E1BB2787E58C93B2
:100950007BE70E94B719E3E3F0E0A0E1BB2781E267
:100960008C937BE70E94B719E4E3F0E0A0E1BB279A
:1009700080E28C937BE70E94B719E5E3F0E0A0E109
:10098000BB278DE08C937BE70E94B719E6E3F0E08C
:10099000A0E1BB2781E18C937BE70E94B719E7E3D5
:1009A000F0E0A0E1BB2780E18C937BE70E94B719C0
:1009B000E8E3F0E0A0E1BB2789E28C937BE70E94AB
:1009C000B719E9E3F0E0A0E1BB278EE28C937BE767
:1009D0000E94B719E1E0F0E0A0E1BB2785E08C932D
:1009E0007BE70E94B7190895E7E1F0E0ADE4B1E0DC
:1009F0000E94D719E2E0F0E0A8E3B1E094E10E94A0
:100A0000E119E8E1F0E0AEE4B1E00E94D719E9E1D4
:100A1000F0E0AFE4B1E00E94D719EAE1F0E0A0E530
:100A2000B1E00E94D71981E08093720380E0809347
:100A3000790380E08093710181E0809373030E94C9
:100A4000200681E08093710281E08093720280E051
:100A500080937C030E94D50780E08093690180E049
:100A600080936A01ECE1F0E0A7EAB3E00E94D919B3
:100A7000A9EBB3E0E1E2F0E094E00E94DA1980E053
:100A80008093BD03EEE1F0E0AAEAB3E00E94D7193B
:100A90008AEF90E0ABEAB3E08D939C938AEF90E00D
:100AA000ADEAB3E08D939C938AEF90E0AFEAB3E0B8
:100AB0008D939C9300917C00007F00937C000E94AA
:100AC0000C19A7E5B1E08D939C930E94E40BE5E23D
:100AD000F0E0A0ECB3E00E94D719E6E2F0E0A1EC70
:100AE000B3E00E94D719E7E2F0E0A2ECB3E00E9485
:100AF000D719E8E2F0E0A3ECB3E00E94D719E9E2ED
:100B0000F0E0A4ECB3E00E94D719EAE2F0E0A5EC33
:100B1000B3E00E94D719EBE2F0E0A6ECB3E00E944C
:100B2000D719ECE2F0E0A7ECB3E00E94D719EDE2B0
:100B3000F0E0A8ECB3E00E94D719EEE2F0E0A9ECF7
:100B4000B3E00E94D719EFE2F0E0AAECB3E00E9414
:100B5000D719E0E3F0E0ABECB3E00E94D719E1E392
:100B6000F0E0ACECB3E00E94D719E2E3F0E0ADECCA
:100B7000B3E00E94D719E3E3F0E0AEECB3E00E94EB
:100B8000D719E4E3F0E0AFECB3E00E94D719E5E356
:100B9000F0E0A0EDB3E00E94D719E6E3F0E0A1EDAC
:100BA000B3E00E94D719E7E3F0E0A2EDB3E00E94C2
:100BB000D719E8E3F0E0A3EDB3E00E94D719EFE224
:100BC000F0E0A4EDB3E00E94D71980E29EE4A7EA2A
:100BD000B3E08D939C93A3E8B3E0E4ECFCE30E94C4
:100BE0002B19A7E8B3E0E0ECFCE30E942B19E5E247
:100BF000F0E0A0ECB3E00E94D71980E08093A90355
:100C000080E08093D60380E08093D503A9E2B0E032
:100C10008C9183FBA8EDB3E0882780F98C9380E06A
:100C20008093D9030E94BE0984E690E00E947D185B
:100C300081E08093DA030E94EE0929987894089560
:100C400080E080936F0180E08093700181E0809369
:100C5000710280E090E0AAE7B3E08D939C93A2E755
:100C6000B3E08C918F5F8C93409179030091720374
:100C7000041711F00C94420680E0809379038FEF03
:100C8000809378030895809172028150809372025C
:100C900081E0809352014091720200915201041749
:100CA00018F011F00C946C06A2E5B1E0AD90BB24F5
:100CB000A1E7B1E0AA0DBB1D8C918093530131E0F7
:100CC000A3E5B1E00E946218A2E5B1E08C918F5FCC
:100CD0008C9310F40C944B0681E08093710281E0B8
:100CE0008093720280E080937C030895E4EBFAE243
:100CF000ADE6B1E08C9199270E943319A2E7B1E0EB
:100D00000E940619A2E7B1E00E94FB19A3E5B1E039
:100D10008C9300917101013011F00C94CE0600917A
:100D2000530141E0040FA4E5B1E00C93809153011D
:100D3000809352014091520101E0041718F011F024
:100D40000C94C106A2E5B1E0AD90BB24A1E7B1E0EF
:100D5000AA0DBB1D8C91A4E5B1E0AD90BB24A1E729
:100D6000B1E0AA0DBB1D8C938091540181508093FA
:100D700054018091520181508093520110F00C94E3
:100D80009A0680915301809372010091530142E0D1
:100D9000040FA2E7B2E00C930C946307023011F049
:100DA0000C9414070091530142E0040FA4E5B1E054
:100DB0000C9380915301809352014091520101E0C4
:100DC000041718F011F00C940407A2E5B1E0AD90FF
:100DD000BB24A1E7B1E0AA0DBB1D8C91A4E5B1E055
:100DE000AD90BB24A1E7B1E0AA0DBB1D8C9380910F
:100DF000540181508093540180915201815080931D
:100E0000520110F00C94DD0680E080937201809115
:100E10005301809373010091530143E0040FA2E753
:100E2000B2E00C930C946307043011F00C94630748
:100E30000091530144E0040FA4E5B1E00C938091CC
:100E40005301809352014091520101E0041718F0C0
:100E500011F00C944A07A2E5B1E0AD90BB24A1E7E4
:100E6000B1E0AA0DBB1D8C91A4E5B1E0AD90BB240F
:100E7000A1E7B1E0AA0DBB1D8C9380915401815074
:100E8000809354018091520181508093520110F05F
:100E90000C94230780EF8093720180916D01809301
:100EA000730180916E01809374018091530180934E
:100EB00075010091530145E0040FA2E7B2E00C93E5
:100EC00081E080937101ADE6B1E08C918F5F8C93EE
:100ED00000916D010D3110F40C94710780E0809346
:100EE0006D0180916E01815080936E0181E080934D
:100EF000710208950F921F922F923F924F925F922C
:100F00007F92AF92BF92CF92DF92EF92FF920F93B8
:100F10001F932F933F934F935F936F937F938F9381
:100F20009F93AF93BF93CF93DF93EF93FF938FB7CD
:100F30008F93009170010A3F10F00C94A407A0E772
:100F4000B1E08C918F5F8C93A0E7B1E0AD90BB24B2
:100F5000A2E7B2E0AA0DBB1D8091C6008C9381E090
:100F60008093740381E0809373038F918FBFFF910F
:100F7000EF91DF91CF91BF91AF919F918F917F9131
:100F80006F915F914F913F912F911F910F91FF9022
:100F9000EF90DF90CF90BF90AF907F905F904F9099
:100FA0003F902F901F900F90189580E080936B01D9
:100FB00070E07093B90070E07093B90071E17093C4
:100FC000B80070E87093BB00AEE4B1E08C91809300
:100FD000BA0075E47093BC0008950F921F922F928F
:100FE0003F924F925F927F92AF92BF920F931F9367
:100FF0002F933F934F935F936F937F938F939F9321
:10100000AF93BF93CF93DF93EF93FF938FB78F93FC
:101010000091B9004CEF0423A1E5B1E00C930091DD
:101020005101003611F00C941A0875EC7093BC0055
:101030000C948509083611F00C94230875EC709314
:10104000BC000C948509003711F00C942C0875EC49
:101050007093BC000C948509083711F00C94350886
:1010600075EC7093BC000C948509003811F00C9459
:101070005A08009170010A3F10F00C944408A0E750
:10108000B1E08C918F5F8C93A0E7B1E0AD90BB2471
:10109000A2E7B2E0AA0DBB1D8091BB008C9382E059
:1010A0008093730381E08093740375EC7093BC00AC
:1010B0000C948509083811F00C947F080091700198
:1010C0000A3F10F00C946908A0E7B1E08C918F5FA3
:1010D0008C93A0E7B1E0AD90BB24A2E7B2E0AA0DEB
:1010E000BB1D8091BB008C9382E08093730381E0F1
:1010F0008093740375EC7093BC000C9485090039DF
:1011000011F00C94A408009170010A3F10F00C94A7
:101110008E08A0E7B1E08C918F5F8C93A0E7B1E0DF
:10112000AD90BB24A2E7B2E0AA0DBB1D8091BB002D
:101130008C9382E08093730381E08093740375EC59
:101140007093BC000C948509083911F00C94C908FF
:10115000009170010A3F10F00C94B308A0E7B1E0D1
:101160008C918F5F8C93A0E7B1E0AD90BB24A2E798
:10117000B2E0AA0DBB1D8091BB008C9382E08093EE
:10118000730381E08093740375EC7093BC000C943E
:101190008509003A11F00C94D20875EC7093BC00EC
:1011A0000C948509083A11F00C94050940917202DB
:1011B00000917102041781E008F080E08F930091A4
:1011C0004F01013081E009F080E09F91892388235D
:1011D00011F40C94FD08A1E7B2E0AD90BB24A1E7A7
:1011E000B1E0AA0DBB1D8C918093BB00A1E7B2E0DA
:1011F0008C918F5F8C930C94000970E87093BB0006
:1012000075EC7093BC000C948509003B11F00C94B4
:1012100038094091720200917102041781E008F0D0
:1012200080E08F9300914F01013081E009F080E070
:101230009F918923882311F40C943009A1E7B2E02F
:10124000AD90BB24A1E7B1E0AA0DBB1D8C918093AA
:10125000BB00A1E7B2E08C918F5F8C930C943309B3
:1012600070E87093BB0075EC7093BC000C9485091A
:10127000083B11F00C946B094091720200917102CD
:10128000041781E008F080E08F9300914F01013056
:1012900081E009F080E09F918923882311F40C9468
:1012A0006309A1E7B2E0AD90BB24A1E7B1E0AA0DCC
:1012B000BB1D8C918093BB00A1E7B2E08C918F5F46
:1012C0008C930C94660970E87093BB0075EC709376
:1012D000BC000C948509003C11F00C94770970E86F
:1012E0007093BB0075EC7093BC000C948509083CAE
:1012F00011F00C94830970E87093BB0075EC709347
:10130000BC000C9485090E94D5074091720200919F
:101310007102041710F40C94A10981E0809371020A
:1013200081E08093720280E080937C0300916E01E3
:10133000003018F011F00C949F090C94A1090E9440
:1013400076068F918FBFFF91EF91DF91CF91BF9183
:10135000AF919F918F917F916F915F914F913F914D
:101360002F911F910F91BF90AF907F905F904F9002
:101370003F902F901F900F90189508955F985D985B
:101380005E98EF93FF93EEE2F0E00E947418FF91F5
:10139000EF915E9AEF93FF93EEE2F0E00E947418F3
:1013A000FF91EF915E98EF93FF93EEE2F0E00E94E1
:1013B0007418FF91EF915F9AEF93FF93EEE2F0E0E4
:1013C0000E947418FF91EF915F98EF93FF93EEE204
:1013D000F0E00E947418FF91EF9108959FB7F89480
:1013E00080916000886180936000877E80936000B8
:1013F0009FBF00EE16E42AEB3AE0A7EAB3E04D9176
:101400005C91662777270E943B19ADE5B1E00D930B
:101410001D932D933D93ADE5B1E0EFE9F3E00E941C
:10142000FF1BE3E8F3E0AEE7B3E00E94A3190091ED
:10143000AA03013011F00C94750A0091BD0300302D
:1014400011F00C94750AEDEAF3E0D190E080FF24EE
:1014500000270E94221D0E94C41C2F933F934F938C
:101460005F93EBEAF3E0D190E080FF2400270E9435
:10147000221D5F914F913F912F910E94E71DEDE05A
:10148000F0E0AEE7B3E00E94A319E9EBF3E00E94BD
:10149000BA1CEEE7F3E00E94B51C0E94A81DEDE027
:1014A000F0E0AEE7B3E00E94A319EEE7F3E00E949C
:1014B000BA1CE0E1FDE30E94441E0E94F61DEDE02F
:1014C000F0E0AEE7B3E00E94A319EEE7F3E00E947C
:1014D000BA1CE3E8F3E00E94B51C0E94A81DEDE0F1
:1014E000F0E0AEE7B3E00E94A319EEE7F3E0A7E96E
:1014F000B3E00E944F1CA7E9B3E0BA93AA93E4E1DA
:10150000FDE3AFE8B3E00E94C91AE7E9F3E00E9407
:10151000181A2296A7E9B3E0BA93AA93AFE9B3E009
:10152000E7E9F3E00E94841A2296E7E9F3E0ABE8EA
:10153000B3E00E94191C559A569A5E98ABE8B3E046
:1015400090E28D91983018F4392F992702C038E035
:10155000985087955D9808F45D9A000000005E9AA7
:10156000000000005E98000000003A9591F7992372
:1015700041F70091DA03003011F00C94C40A85E0C1
:10158000809382030C94C70A81E080938203559A6A
:10159000569A5E98A2E8B3E098E08D91983018F4DE
:1015A000392F992702C038E0985087955D9808F444
:1015B0005D9A000000005E9A000000005E98000046
:1015C00000003A9591F7992341F7EF93FF93EEE2EC
:1015D000F0E00E947418FF91EF915F9AEF93FF93F0
:1015E000EEE2F0E00E947418FF91EF915F98809115
:1015F000600088608093600008950091DB030030F4
:1016000011F00C940B0BA3E8B3E0E4ECFCE30E94B4
:101610002B190C94E10B013011F00C94170BA3E87B
:10162000B3E0E8ECFCE30E942B190C94E10B0230D0
:1016300011F00C94230BA3E8B3E0ECECFCE30E9464
:101640002B190C94E10B033011F00C942F0BA3E831
:10165000B3E0E0EDFCE30E942B190C94E10B0430A5
:1016600011F00C943B0BA3E8B3E0E4EDFCE30E9423
:101670002B190C94E10B053011F00C94470BA3E8E7
:10168000B3E0E8EDFCE30E942B190C94E10B06306B
:1016900011F00C94530BA3E8B3E0ECEDFCE30E94D3
:1016A0002B190C94E10B073011F00C945F0BA3E89D
:1016B000B3E0E0EEFCE30E942B190C94E10B083040
:1016C00011F00C946B0BA3E8B3E0E4EEFCE30E9492
:1016D0002B190C94E10B083011F00C94770BA3E854
:1016E000B3E0E8EEFCE30E942B190C94E10B0A3006
:1016F00011F00C94830BA3E8B3E0ECEEFCE30E9442
:101700002B190C94E10B0B3011F00C948F0BA3E808
:10171000B3E0E0EFFCE30E942B190C94E10B0C30DA
:1017200011F00C949B0BA3E8B3E0E4EFFCE30E9400
:101730002B190C94E10B0D3011F00C94A70BA3E8BE
:10174000B3E0E8EFFCE30E942B190C94E10B0E30A0
:1017500011F00C94B30BA3E8B3E0ECEFFCE30E94B0
:101760002B190C94E10B0F3011F00C94BF0BA3E874
:10177000B3E0E0E0FDE30E942B190C94E10B003193
:1017800011F00C94CB0BA3E8B3E0E4E0FDE30E947E
:101790002B190C94E10B013111F00C94D70BA3E839
:1017A000B3E0E8E0FDE30E942B190C94E10B023159
:1017B00011F00C94E10BA3E8B3E0ECE0FDE30E9430
:1017C0002B190E94EE0908950091AA03013011F02F
:1017D0000C94400C00917C00007F00937C000E94E0
:1017E0000C19A7E5B1E08D939C93ECE1FDE30E9419
:1017F000511EE7E5F1E0D190E080FF2400270E9430
:10180000221D0E94A81DEDE0F0E0AEE7B3E00E94CB
:10181000A319E0E2FDE30E94511EEEE7F3E00E940F
:10182000B51C0E944F1DEDE0F0E0AEE7B3E00E9472
:10183000A319E4E2FDE30E94511EEEE7F3E00E94EB
:10184000B51C0E94E71DEDE0F0E0AEE7B3E00E94BA
:10185000A319EEE7F3E00E94CA1CABEAB3E0DD9205
:10186000EC92E9EBF3E00E94B51CE0ECFCE30E9493
:10187000511E0E949C1C11F40C94400C0E94EE0915
:101880000895AFEAB3E00D911C91ADEAB3E04D913C
:101890005C91041B150BA7E5B1E00D931C93A7E524
:1018A000B1E00D911C91023350E0150718F011F0D2
:1018B0000C945C0C0C94D80CE1EBF3E00E94BA1C85
:1018C000E5EBF3E00E94B51C0E94E71DEDE0F0E0BF
:1018D0000E94CA1CADE5B1E0DD92ED92FD920D9340
:1018E000E5EBF3E00E94B51CE1EBF3E00E94BA1CCB
:1018F0000E949C1C11F40C94D80CE7E5F1E0D19007
:10190000E080FF2400270E94221D0E94C41C2F9308
:101910003F934F935F93EDE5F1E00E94B51C0E9469
:10192000221D5F914F913F912F910E944F1DEDE03D
:10193000F0E0AEE7B3E00E94A319E1EBF3E00E9410
:10194000BA1CEEE7F3E00E94B51C0E944F1DEDE0CB
:10195000F0E0AEE7B3E00E94A319EEE7F3E00E94E7
:10196000B51CE8E2FDE30E94511E0E949C1C10F091
:101970000C94D80CEEE7F3E00E94B51CECE2FDE31A
:101980000E94511E0E949C1C18F011F00C94CA0C6D
:101990000C94D80CEEE7F3E0A9EBB3E00E94A31996
:1019A000E1E2F0E0A9EBB3E094E07BE70E94BA1932
:1019B000089500917001053010F40C94180D809179
:1019C0007402809360018091750280935F01809121
:1019D000760280935E018091770280935D0140E8FA
:1019E0005DE16CE274E0ADE5B1E00D911D912D91EA
:1019F0003C91041715072607370718F011F00C94CF
:101A00000F0DEDE5F1E00E94B51C0E94221DA3E838
:101A1000B3E00E94BF1C0E94EE090C94160D84E0F6
:101A20008093780380917203809379030E9420064B
:101A3000089581E080937C03E3E8F3E00E94CA1CF0
:101A4000ADE5B1E0EDE0FF270E94A31982E08093AD
:101A50007201809160018093730180915F01809396
:101A6000740180915E018093750180915D01809386
:101A7000760186E08093720200917303013011F0C9
:101A80000C94440D0E9443060E9420060895089578
:101A9000089500917001023010F40C946A0D0091C9
:101AA0007402023010F00C94610D00917402003049
:101AB00011F00C945E0D29980C945F0D299A0C94EA
:101AC000680D84E08093780380917203809379039A
:101AD0000E942006089581E080937C0386E0809335
:101AE0007201A5E2B0E08C9181FBA3E7B1E0882709
:101AF00080F98C9383E0809372020091730301302C
:101B000011F00C94850D0E9443060E942006089552
:101B100000917001023010F40C94AA0D009174022F
:101B2000023010F00C94A10D809174028093AA03EE
:101B3000EEE1F0E0AAEAB3E07BE70E94B7190C946B
:101B4000A80D84E0809378038091720380937903D9
:101B50000E942006089581E080937C0388E08093B2
:101B600072018091AA038093730183E080937202D3
:101B700000917303013011F00C94C00D0E944306D4
:101B80000E94200608950091AA03013011F00C94E0
:101B9000EB0D0E94E40B81E080937C0389E080934D
:101BA0007201ABEAB3E011968C91A3E7B1E08C939C
:101BB000ABEAB3E08C91A4E7B1E08C9384E080932E
:101BC000720200917303013011F00C94E90D0E9430
:101BD00043060C94F20D80E08093780380917203A9
:101BE000809379030E9420060895009170010530CA
:101BF00010F40C94220E809174028093580180910D
:101C0000750280935701A7E5B1E00D911C91003456
:101C10005CE9150710F00C94190EA7E5B1E08D9161
:101C20009C91A7EAB3E08D939C930E94EE090C94DB
:101C3000200E84E08093780380917203809379036F
:101C40000E942006089581E080937C038BE08093BE
:101C50007201A7EAB3E08D919C91ADE5B1E08D935F
:101C60009D9388278D938C93A7EAB3E011968C916E
:101C7000A3E7B1E08C93A7EAB3E08C91A4E7B1E0CD
:101C80008C9384E08093720200917303013011F011
:101C90000C944C0E0E9443060E94200608950E9458
:101CA000E40BEFE1F0E0ABEAB3E07BE70E94B919A7
:101CB000ECE1F0E0A7EAB3E07BE70E94B9190E94EB
:101CC0002006089500917001023010F40C94960ED5
:101CD00000917402023010F00C948D0E0091AA0352
:101CE000013011F00C94840E00917402003011F058
:101CF0000C947F0E80E08093BD030C94820E81E0F3
:101D00008093BD030C948B0E86E0809378038091C2
:101D10007203809379030C94940E84E0809378038B
:101D200080917203809379030E94200608950091A8
:101D30007001023010F40C94D50E00917402023040
:101D400010F00C94CE0E0091AA03013011F00C9407
:101D5000C50E0E94E40B00917402003011F00C9447
:101D6000BB0EABEAB3E08D919C91ADEAB3E08D93ED
:101D70009C930C94C30EABEAB3E08D919C91AFEAB7
:101D8000B3E08D939C930C94CC0E86E08093780303
:101D900080917203809379030C94D50E84E0809334
:101DA000780380917203809379030E94200608953E
:101DB00000917001053010F40C94240F0091AA03D7
:101DC000013011F00C941B0F80917402809360011C
:101DD0008091750280935F018091760280935E010D
:101DE0008091770280935D0140E85DE16CE274E0F0
:101DF000ADE5B1E00D911D912D913C9104171507B2
:101E00002607370718F011F00C94120FEDE5F1E0FA
:101E10000E94B51C0E94221DA1EBB3E00E94BF1CD2
:101E20000C94190F84E0809378038091720380935F
:101E300079030C94220F86E08093780380917203DB
:101E4000809379030E942006089500917001053067
:101E500010F40C94710F0091AA03013011F00C944E
:101E6000680F809174028093600180917502809365
:101E70005F018091760280935E018091770280936A
:101E80005D0140E85DE16CE274E0ADE5B1E00D912B
:101E90001D912D913C91041715072607370718F05F
:101EA00011F00C945F0FEDE5F1E00E94B51C0E946B
:101EB000221DA5EBB3E00E94BF1C0C94660F84E0CA
:101EC0008093780380917203809379030C946F0F51
:101ED00086E08093780380917203809379030E9457
:101EE0002006089581E080937C0381E18093720154
:101EF000E9EBF3E0AEE7B3E00E94A319E0E3FDE312
:101F00000E94511EEEE7F3E00E94B51C0E94A81D3E
:101F1000EDE0F0E0AEE7B3E00E94A319EEE7F3E0F6
:101F20000E94B51CE0ECFCE30E94511E0E949C1C28
:101F300018F011F00C94AC0FE4E3FDE30E94511E85
:101F4000EEE7F3E00E94B51C0E94F61DEDE0F0E024
:101F5000AEE7B3E00E94A319EEE7F3E00E94CA1CCB
:101F6000A7E5B1E0DD92EC92A7E5B1E011968C9186
:101F7000A3E7B1E08C93A7E5B1E08C91A4E7B1E0D1
:101F80008C9384E08093720200917303013011F00E
:101F90000C94CC0F0E9443060E94200608950091E5
:101FA0007001023010F40C94F10F009174020038AB
:101FB00010F00C94E80F809174028093C003E5E266
:101FC000F0E0A0ECB3E07BE70E94B7190C94EF0FB0
:101FD00084E08093780380917203809379030E9458
:101FE0002006089581E080937C0383E18093720151
:101FF0008091C00380937301E5E2F0E0A0ECB3E0D0
:102000007BE70E94B71983E080937202009173030B
:10201000013011F00C940E100E9443060E9420061D
:10202000089500917001033010F40C945310009146
:102030007402033110F00C944A10009175020038BC
:1020400010F00C94411080917402809351018091A2
:102050007502A1E5B1E0AD90BB24A0ECB3E0AA0D00
:10206000BB1D8C93E1E5F1E0A190BB24E5E2F0E03B
:10207000EA0DFB1DA5E7B2E07BE70E94B7190C94BF
:10208000481084E0809378038091720380937903F1
:102090000C94511084E080937803809172038093B4
:1020A00079030E942006089500917001023010F417
:1020B0000C948F1000917402043110F00C9486106F
:1020C000809174028093510181E080937C0385E1CB
:1020D000809372018091510180937301A1E5B1E079
:1020E000AD90BB24A0ECB3E0AA0DBB1D8C918093F6
:1020F000740184E08093720200917303013011F047
:102100000C9484100E9443060C948D1084E08093FC
:10211000780380917203809379030E9420060895CA
:1021200000917001023010F40C94B510009174020B
:10213000023010F00C94AC1000917402003011F0D9
:102140000C94A71080E08093D9030C94AA1081E02E
:102150008093D9030C94B31084E08093780380912A
:102160007203809379030E942006089581E0809392
:102170007C0387E1809372018091D903809373017E
:1021800083E08093720200917303013011F00C948C
:10219000CB100E9443060E94200608950091700112
:1021A000023010F40C94EB1000917402033110F023
:1021B0000C94E210809174028093DB030E94FD0A6C
:1021C0000C94E91084E080937803809172038093EB
:1021D00079030E942006089580E08093700180E0DA
:1021E00080936F01089500916F01033010F40C94F7
:1021F00047118091740280936D01809175028093E4
:102200006E0100916D010D3181E008F080E08F9347
:1022100000916E010D3181E008F080E09F918923EB
:10222000882311F40C943E1100916E01003018F0D7
:1022300011F00C941D110C943C1181E080937C03EF
:1022400084E0809371010E9476060091730301304F
:1022500011F00C943C110E94430600916E01003075
:1022600018F011F00C9436110C943C110E94760673
:102270000E9443060C942D110C94451184E0809328
:10228000780380917203809379030E942006089559
:1022900081E080937C038EE170E0A2E7B1E00E94D0
:1022A000AA198CEF8093720183E080935101E2E7D9
:1022B000F3E0A6E1B1E00E945E19A6E1B1E00E9460
:1022C000FB19A4E5B1E08C9381E080935201409129
:1022D000540100915201041718F011F00C948F1161
:1022E000A2E5B1E0AD90BB24A5E1B1E0AA0DBB1D14
:1022F0008C91A1E5B1E0AD90BB24A1E7B1E0AA0DBE
:10230000BB1D8C93A1E5B1E08C918F5F8C93A2E50E
:10231000B1E08C918F5F8C9310F40C946711009155
:102320007803003011F00C949D11A6E1B1E0E2E4D5
:10233000FDE30E9406190C940F12013011F00C9469
:10234000A911A6E1B1E0E8E5FDE30E9406190C94AD
:102350000F12023011F00C94B511A6E1B1E0E6E6DF
:10236000FDE30E9406190C940F12033011F00C9437
:10237000C111A6E1B1E0EAE7FDE30E9406190C9461
:102380000F12043011F00C94CD11A6E1B1E0E0E998
:10239000FDE30E9406190C940F12053011F00C9405
:1023A000D911A6E1B1E0E4EAFDE30E9406190C941C
:1023B0000F12063011F00C94E511A6E1B1E0EAEB42
:1023C000FDE30E9406190C940F12073011F00C94D3
:1023D000F111A6E1B1E0E6EDFDE30E9406190C94CF
:1023E0000F12083011F00C94FD11A6E1B1E0EEEEF1
:1023F000FDE30E9406190C940F120F3F11F00C948C
:102400000912A6E1B1E0ECE0FEE30E9406190C948B
:102410000F12A6E1B1E0EAE1FEE30E940619A6E18F
:10242000B1E00E94FB19A4E5B1E08C9381E08093B8
:1024300052014091540100915201041718F011F01B
:102440000C944112A2E5B1E0AD90BB24A5E1B1E04E
:10245000AA0DBB1D8C91A1E5B1E0AD90BB24A1E715
:10246000B1E0AA0DBB1D8C93A1E5B1E08C918F5F0B
:102470008C93A2E5B1E08C918F5F8C9310F40C9457
:102480001912E9E7F3E0A6E1B1E00E945E19A6E1C6
:10249000B1E00E94FB19A4E5B1E08C9381E0809348
:1024A00052014091540100915201041718F011F0AB
:1024B0000C947912A2E5B1E0AD90BB24A5E1B1E0A6
:1024C000AA0DBB1D8C91A1E5B1E0AD90BB24A1E7A5
:1024D000B1E0AA0DBB1D8C93A1E5B1E08C918F5F9B
:1024E0008C93A2E5B1E08C918F5F8C9310F40C94E7
:1024F00051120091510143E0041BA3E7B1E00C939A
:10250000809151018093720200917303013011F0A8
:102510000C948C120E9443060E942006089581E0CC
:1025200080937C038DEF8093720184E0809373012C
:1025300083E08093720200917303013011F00C94D8
:10254000A3120E9443060E942006089500916F0185
:10255000023010F40C94BD1300917402003011F09D
:102560000C94131300916F01033010F40C941113A9
:1025700000917502003011F00C94C2120E942006E6
:102580000C9411130091750243E0040FA1E5B1E032
:102590000C934091510100916F01041710F40C94B9
:1025A000111384E170E0A8E3B1E00E94AA19009140
:1025B0005101073118F011F00C94E0120C94E31261
:1025C00087E18093510184E0809352014091510151
:1025D00000915201041718F011F00C940913A2E5B0
:1025E000B1E0AD90BB24A2E7B2E0AA0DBB1D8C9177
:1025F000A2E5B1E0AD90BB24A4E3B1E0AA0DBB1D00
:102600008C93A2E5B1E08C918F5F8C9310F40C94C5
:10261000E612E2E0F0E0A8E3B1E00E94CC190E94EB
:1026200020060C94BD13013011F00C942C13009172
:102630006F01033010F40C942A138091750280937B
:102640004D01E7E1F0E0ADE4B1E07BE70E94B719AE
:102650000E9420060C94BD13023011F00C94541308
:1026600000916F01033010F40C9452130091750225
:10267000023010F00C9449138091750280934F0141
:10268000E9E1F0E0AFE4B1E07BE70E94B7190C9418
:10269000501384E0809378038091720380937903D0
:1026A0000E9420060C94BD13033011F00C94881383
:1026B00000916F01033010F40C9486138091750221
:1026C0008093520100915201003810F00C947D1358
:1026D000A2E5B1E00C9142E0049F0C92809152017E
:1026E00080934E01E8E1F0E0AEE4B1E07BE70E94C8
:1026F000B7190E94D5070C94841384E08093780363
:1027000080917203809379030E9420060C94BD137C
:10271000043011F00C94B41300916F01033010F4E5
:102720000C94B21380917502809352010091520172
:10273000023010F00C94A913809152018093500143
:10274000EAE1F0E0A0E5B1E07BE70E94B7190C9464
:10275000B01384E0809378038091720380937903AF
:102760000E9420060C94BD1384E08093780380912E
:102770007203809379030E942006089500916F01EF
:10278000023010F40C94A61481E080937C038FEF48
:1027900080937201809174028093730180E0809332
:1027A000720200917402003011F00C942C1484E138
:1027B0007FEFA0E0B1E00E94AA19E0E0F1E0A8E319
:1027C000B1E00E94031A11F00C94F213A8E3B1E0F7
:1027D000EAE2FEE30E940619E2E0F0E0A8E3B1E0DD
:1027E0000E94CC19A8E3B1E00E94FB19A3E5B1E077
:1027F0008C93809153018093740184E080937202E2
:1028000081E08093520140915301009152010417DD
:1028100018F011F00C942A14A2E5B1E0AD90BB249D
:10282000A7E3B1E0AA0DBB1D8C91A2E7B2E0AD9089
:10283000BB24A1E7B1E0AA0DBB1D8C93A2E7B2E0D7
:102840008C918F5F8C93A2E5B1E08C918F5F8C931C
:102850000C9403140C949314013011F00C9439145B
:1028600080914D018093740184E0809372020C94F6
:102870009314023011F00C94461480914F01809310
:10288000740184E0809372020C949314033011F06D
:102890000C945B1400914E0142E00E94EB19A2E5FA
:1028A000B1E00C93809152018093740184E0809395
:1028B00072020C949314043011F00C9468148091FB
:1028C00050018093740184E0809372020C949314FD
:1028D000053011F00C94741480E08093740184E04E
:1028E000809372020C949314063011F00C948C14A3
:1028F00083E08093740188E3A5E7B1E08C938EE4D4
:10290000A6E7B1E08C9381E3A7E7B1E08C9387E081
:10291000809372020C94931484E0809378038091E6
:1029200072038093790300917202003018F011F065
:102930000C949C140C94A41400917303013011F0B6
:102940000C94A4140E9443060E942006089500914E
:102950007302003011F00C94C71481E080937C0363
:1029600080E080936D0181E080936E0182E080932E
:1029700071010E94760600917303013011F00C94EE
:10298000C3140E9443060E9420060C945715009120
:102990007302003F10F00C9421150091730209316D
:1029A00010F00C941615E4E1F5E1EF93FF93E2EEDD
:1029B000F4E1A3E7B2E08C919927880F991FE80F03
:1029C000F91F09940C9400000C94D90C0C94190D67
:1029D0000C94470D0C94480D0C94490D0C946B0D00
:1029E0000C94880D0C94AB0D0C94C30D0C94F50D48
:1029F0000C94230E0C944F0E0C94620E0C94970EB4
:102A00000C94D80E0C94250F0C94720F0C94CF0FCD
:102A10000C94F20F0C9411100C9454100C94901010
:102A20000C94B6100C94CE100C941F1580E080937B
:102A3000780380917203809379030E9420060C949E
:102A400057150091730240EF041BA1E5B1E00C9310
:102A5000E7E5F5E1EF93FF93E7E3F5E1A1E5B1E009
:102A60008C919927880F991FE80FF91F09940C94EE
:102A7000F3100C94EC100C94EC100C94EC100C94DF
:102A8000EC100C94EC100C94EC100C94EC100C94D6
:102A9000EC100C94EC100C94EC100C94EC100C94C6
:102AA00048110C948F120C94A6120C94BE13089526
:102AB000F894FFCF303B6D3B444B3152493B3730AC
:102AC0004D487A204444532053656E6465723B56EA
:102AD00030322E303B313B3138303B313B32393BA9
:102AE000312D3100313B6F702C6672657175656EEA
:102AF00063793B313B37303030303030303B6C69BC
:102B00006E3B487A00323B61702C61733100353B7B
:102B10006F732C72656C6169733B313B302C6F664F
:102B2000663B312C6F6E00363B61732C6173350050
:102B3000373B6F732C74656D706572617475726567
:102B40003B313B302C6E6F2073656E736F723B317F
:102B50002C73656E736F7200383B61732C61733731
:102B600000393B61702C74656D70657261747572AB
:102B7000653B313B313032342C7B302E315F302E8F
:102B800030746F3130322E337D3B6C696E3B4300C5
:102B900031303B6F612C63616C6962726174653BBB
:102BA000772C7B315F2D3230303030746F323030E3
:102BB00030307D3B31332C434841505445522C63D7
:102BC0006F6E66696775726174696F6E0031313B53
:102BD00061612C617331300031323B6F752C73743D
:102BE0006F72652063616C6962726174653B313B31
:102BF000302C69646C653B312C73746F72653B31AA
:102C0000332C434841505445522C636F6E666967BC
:102C100075726174696F6E0031333B6F732C54634E
:102C2000206D6561737572656D656E743B313B3007
:102C30002C6F66663B312C6F6E3B31332C43484121
:102C4000505445522C636F6E666967757261746982
:102C50006F6E0031343B6F752C5463206D6561736A
:102C60007572656D656E742074656D7065726174E2
:102C70007572653B313B302C69646C653B312C745B
:102C80006D696E3B322C746D61783B31332C434857
:102C900041505445522C636F6E666967757261745A
:102CA000696F6E0031353B6F702C5463206D656128
:102CB000737572656D656E74206672657175656E8B
:102CC000637920617420746D696E3B313B3730301D
:102CD00030303030303B6C696E3B487A3B31332CBE
:102CE000434841505445522C636F6E666967757254
:102CF0006174696F6E0031363B6F702C5463206DC8
:102D00006561737572656D656E7420667265717547
:102D1000656E637920617420746D61783B313B3757
:102D2000303030303030303B6C696E3B487A3B316C
:102D3000332C434841505445522C636F6E6669678B
:102D400075726174696F6E0031373B61702C54632A
:102D50003A20646576696174696F6E20617420370A
:102D6000304D487A3B313B36353533362C7B315F3D
:102D70002D3332373638746F33323736377D3B6C0C
:102D8000696E3B487A3B31332C434841505445529D
:102D90002C636F6E66696775726174696F6E00315E
:102DA000383B6F612C524335206164726573733B0D
:102DB000622C7B315F30746F3132377D3B31332C85
:102DC000434841505445522C636F6E666967757273
:102DD0006174696F6E0031393B61612C6173313808
:102DE0000032303B6F6D2C52433520436F64657366
:102DF0003B622C636F64652C7B315F30746F3230C3
:102E00007D3B622C6B65792C7B315F31746F31397E
:102E10007D3B31332C434841505445522C636F6EF7
:102E200066696775726174696F6E0032313B616DFE
:102E30002C617332300032323B6F732C6D6F6465DE
:102E40003B313B302C4D59433B312C4952003233FE
:102E50003B61732C617332320032343B6F732C70E0
:102E60007265646566696E65643B313B302C463241
:102E70003B312C46333B322C46343B332C46353BDE
:102E8000342C46363B352C46373B363B46383B37B1
:102E90002C46393B382C4631303B392C4631313BBE
:102EA00031303B4631323B31312C4631333B3132CC
:102EB0002C4631343B31332C4631353B31342C46B2
:102EC00031363B31352C4631373B31362C463138A3
:102ED0003B31372C4631393B31382C4632300032C9
:102EE00034303B616E2C414E4E4F554E43454D455F
:102EF0004E54533B3130303B32392C737461727411
:102F00002061743B32392C6C696E65733B31342C13
:102F1000434841505445522C41444D494E49535425
:102F2000524154494F4E003235323B61612C4C4185
:102F30005354204552524F523B32302C6C617374C3
:102F40005F6572726F72003235333B61612C4D598F
:102F50004320494E464F3B622C414354495645005D
:102F60003235343B6F612C494E44495649445541F2
:102F70004C495A4154494F4E3B32302C4E414D45FD
:102F80002C44657669636520313B622C4E554D4279
:102F900045522C313B612C4932432C313B622C4150
:102FA00044524553532C33372C7B315F30746F318F
:102FB00032377D3B612C52533233322C313B612C02
:102FC0005553422C313B31342C43484150544552E7
:102FD0002C41444D494E495354524154494F4E009F
:102FE0003235353B61612C494E444956494455417F
:102FF0004C495A4154494F4E3B32302C4E414D457D
:103000002C44657669636520313B622C4E554D42F8
:1030100045522C313B612C4932432C313B622C41CF
:1030200044524553532C33372C7B315F30746F310E
:1030300032377D3B612C52533233322C313B622C80
:1030400042415544524154452C302C7B3139323069
:10305000307D3B332C4E554D4245525F4F465F42CB
:103060004954532C386E313B612C5553422C313B23
:1030700031342C434841505445522C41444D494E23
:10308000495354524154494F4E0052202432322069
:10309000494620243230203D203100008F939F93F9
:1030A0008FB73395539509F4439591E696BD9F915B
:1030B0008FBF8F911895ED91FC91EF5FFF4FFC93BF
:1030C000EE9308958D9103D03A95E1F7089500901D
:1030D000C00005FEFCCF8093C600089588EE93E003
:1030E0000CD03197D9F708953197F1F70895689486
:1030F00062F80895E89462F80895EF93FF93EE273D
:10310000E82BE92B31F0E8E8F3E13197F1F701978B
:10311000D1F7FF91EF9108950F933F934F935F93F2
:103120002F923F928F939F938FB78F9385B58F93F5
:10313000826085BD80916E008F93816080936E0068
:1031400081E686BD552744273327383C08F047C021
:10315000373320F4189BF8CFF8CF41C0383CE8F75C
:103160001899FCCF33273232C0F7189BFCCF932F2E
:10317000332711272227913110F0969511E0292E3F
:103180002694322C290E990F390E113021F0321568
:1031900020F71899FCCF33270CE03215F0F318997B
:1031A00009C08894111F221F3315C8F4189BFCCF47
:1031B000332708C00894111F221F331580F4189973
:1031C000FCCF33270A9549F7912F991F221F991F8A
:1031D000221F25FB17F926FB16F92F7102C01FEFDE
:1031E0002FEF8F9180936E008F9185BD8F918FBF50
:1031F0009F918F913F902F905F914F913F910F91B1
:103200000895019111912191308108950E9423190F
:103210000D920020D9F7089570917A007064709330
:103220007A0000907A0006FCFCCF70917A007064FE
:1032300070937A0000907A0006FCFCCF80917800B1
:10324000909179000895C89531960020089591E0F5
:1032500005C092E003C094E001C098E0F4DF0D9255
:103260009A95E1F708950196019721F00E9423199C
:10327000E9F7FACF0895040F151F261F371F089589
:10328000000F111F221F331F0895009510952095E0
:1032900030950F5F1F4F2F4F3F4F089501911081C1
:1032A0000FC00E9401190EC00E94011910C00191A7
:1032B000108117FF05C03FEF2FEF04C000811127D9
:1032C0002227332737FF03C0E0DF8DE28D93CF92B3
:1032D000DF92EF92AA24BB24CC24DD24EE2440E22A
:1032E000EAE0FF2755E093E38081890F87FD9F7017
:1032F00083FD907F891B81935A95A9F7C1DFAA1C92
:10330000BB1CCC1CDD1CEE1C4A9551F7E894EFE089
:10331000FF2782910BD0EB30E0F71EF068948A2DE6
:1033200009D04D93EF90DF90CF900895982F82951C
:1033300001D0892F8F70805D26F0803309F40895C5
:1033400068948D93089594E081918D939A95E1F717
:10335000089570E2803021F07D938A95E9F78C938F
:103360000895F999FECFE1BDF2BD3196089591E03F
:1033700001C092E07B3771F47FB7F894F2DF8D9152
:10338000F89A60B5681719F080BDFA9AF99A9A957B
:10339000A9F77FBF77270895E4DF8D917B3729F464
:1033A00080BDFA9AF99A8823B9F77727089591E0B2
:1033B00001C092E0D6DFF89A80B58D939A95D1F747
:1033C0000895CFDFF89A80B58D93882319F09A95E8
:1033D000C1F79D930895FF93881BF9E0001FFA95AC
:1033E00011F4FF910895881F841B18F4840F8894AA
:1033F000F5CF0894F3CF8FEF83959D919923E1F753
:103400000895689401C0E894AF93BF938D9116F02E
:10341000919103C00E942319902D891718F011F47F
:103420008823A1F7BF91AF91089594D104D0CAC069
:103430000F0101D0CAC008E1A4D109F00895480FD6
:10344000591F4F5F534067276F935F934F9388D106
:103450002227F001EDD093E0110F331F441F551FB9
:10346000661F771F881F9A95B9F7FD01A7E0BB2754
:103470009191A13011F49F709061992301F1939F74
:10348000A00CB11CBB1F959FB695C01CD11CBB1FC7
:10349000979FB695E01CF11C0B1F919F200DA11C5E
:1034A000BB1F949FB695B01CC11CBB1F969FB695C1
:1034B000D01CE11CBB1F989FB695F01C011DAA955E
:1034C00049F02A2DAB2CBC2CCD2CDE2CEF2CF02E71
:1034D0000027CECF4F915F916F9104FB16F0D2D0B1
:1034E00002C04F5F5F4FD7C0FF9309901124F8E0EF
:1034F000069408F4190E17940794FA95D1F7FF91E2
:10350000089528D104D05EC00F0101D05EC004E24E
:1035100038D109F00895481B590B41505C4F67277B
:103520006F935F934F93F00178D02FEFFD0180D020
:10353000ADE3BA2FB77019F420952F932FEFA11692
:10354000B306C406D506E606F706080738F0A11A42
:10355000B30AC40AD50AE60AF70A080B221FAA0C06
:10356000BB1CCC1CDD1CEE1CFF1C001FAA9509F720
:103570002095AF90BF90CF90DF90EF90FF900F918C
:103580004F915F916F9104FB1EF07CD041505040F1
:1035900082C088E005900D928A95E1F7189708950A
:1035A000A082B182C282D382E482F582068317832D
:1035B0000895A080B180C280D380E480F580068128
:1035C00017810895EC81FD81EBCFE881F981E8CF87
:1035D00086819781332797FB37F988949F7721F469
:1035E000882311F4326008952FEE28172FE729075A
:1035F00040F42FE02823089411F4316008953460DA
:103600000895807F96958795969587959695879549
:1036100096958795989488940895A080B180C280EB
:10362000D380E480F58006810F7000612227089521
:1036300010813181428153816481758186818F70CF
:1036400080610895883050F02A2DAB2CBC2CCD2CF5
:10365000DE2CEF2CF02E00278850F4CF08956894CC
:1036600001C0E894882369F00595F794E794D7940E
:10367000C794B794A794279516F44F5F5F4F8A9528
:10368000F1CF0895220FAA1CBB1CCC1CDD1CEE1C24
:10369000FF1C001F089501D025C0203848F011F408
:1036A000A0FE06C0089412D005FF089581E0D7CF90
:1036B00008952095A094B094C094D094E094F09490
:1036C00000950F9200240894201D0F9050F40F9243
:1036D0000024A01CB01CC01CD01CE01CF01C001D51
:1036E0000F9008955523B2F0352F342B99F03FEF0A
:1036F000431737E0530778F4440F551F440F551F05
:10370000440F551F440F551F0F7E042B152F67FBC9
:1037100017F9089525C02BC087E03F2D303230E0E7
:10372000030778F40F2DFE2CED2CDC2CCB2CBA2CBF
:10373000A22E2227485050408A9579F744275527D2
:103740000FC088E004FD05C09DDF415050408A95C0
:10375000C9F70895EA81FB81A881B9810F01089515
:10376000AA24BB2465017501850198940895F8DFAA
:1037700000EF1FE708958FEFA82EB82EF3DF1F7715
:10378000089526DF632FAC01FD0122DF732F00C0F7
:10379000372F362B3F7709F4089532FDECCF262FD3
:1037A0002727372F60FB32F961FB33F93F70E8E0E0
:1037B000F9E3002311F427FD3C96030FE00F0027E7
:1037C000F01F849187FDD7CF86FDD1DF85FDC8DF4F
:1037D00084FD0AD083FD0AD082FD0AD081FD0BD082
:1037E00080FD0BD098940895F001E3CEFD01E1CE69
:1037F00067FB17F9089577FBFCCF27FBFACFCD9035
:10380000DD90ED90FD90AA24BB24002711272227EC
:10381000662743E254E080DF65DFC2CEC094D094D7
:10382000E094F09481E0C80E8827D81EE81EF81EA8
:103830000895CEDE31FD19C032FD17C030FD2AC01B
:103840008E5F934092F0992329F5803238F4E5DEBB
:1038500081958B5DF7DEE89404DF0CC0CC24C09426
:10386000DC2CEC2CFC2CF69412C0CC24DD24EE24B1
:10387000FF2410C080E8B81650F031F4BA28B22AFC
:10388000B81611F4C0FC03C0CDDFF7FCE7CF37FF5B
:1038900001C0C4DFCD92DD92ED92FD92089560DF0C
:1038A0000E94B51C602F6078FF0C001F0894F794ED
:1038B000402F002311F454DF17C00F3F41F4FF20C5
:1038C00021F455DF67FB17F90FC055DF0DC0112735
:1038D000002785E0DD0CEE1CFF1C001F8A95D1F748
:1038E000552740585C4FFEDEFD015ACEB7FE0895C5
:1038F00090E8B91611F4D0FE08959FEFD91AE90A9D
:10390000F90A09F40395089500081000101010003A
:10391000080820000008100010801000080820008F
:103920000041200041418000208020000020440010
:1039300041804400202080000F928F939F93D216E5
:10394000E306F4060FB680E890E8802795270FBEBF
:10395000890739F00FB6892B87FD02C081E0082660
:103960000FBE9F918F910F900895D190E190F190AB
:103970000191089521913191419151910895DD92E4
:10398000ED92FD920C930895502F2D2D3E2D4F2D2D
:10399000612F0895EADF992711278F2D880F80E87E
:1039A000F82A802F881F08F41FEF41F08F57082F47
:1039B00007FD04C0003240F08FEF01C08827982F28
:1039C000D82EE82EF82E09C08FE1801B082FF69420
:1039D000E794D79497950A95D1F7112351F09095D4
:1039E000D094E094F09481E0980F8827D81EE81EC8
:1039F000F81E0F2DFE2CED2CD92E0895D094E094B6
:103A0000F09491E0D90E9927E91EF91E10950895BA
:103A1000652F90E8440F551F5927990F47956078F7
:103A2000102F90E8FF0C001F0927990FF7941078CA
:103A300000380895FF0C90E89027110F9795F794A0
:103A4000092F08951127BD2CDE2CEF2CF02E0EE14E
:103A5000FF2039F4FE2CED2CDB2CBB240850C2F7E0
:103A600052C032F00A95BB0CDD1CEE1CFF1CF9CFD6
:103A70003DDFE0CF2DEC3CEC4CEC5DE366270FC066
:103A800074DF82DFDD24EE2490E8F92E0FE307C017
:103A900071DF05C02227332740E251E46627552312
:103AA00051F1002381F1B4DF71F11627005850580D
:103AB0000894050B18F407FD03C025C007FD23C0BB
:103AC000469537952795F694E794D79425D0FF200F
:103AD0002AF0DD0CEE1CFF1C015073F09D2D969515
:103AE00048F0DD203AF4EE202AF491E0D90E99272F
:103AF000E91EF91E9FCF07C09FE7092FF92A9FEF04
:103B0000D92EE92E0895DD24EE24FF240027112765
:103B100008950FE79FEFF2CF9F929924AA24BB2428
:103B200088E1D216E306F40628F0D21AE30AF40A72
:103B3000089401C08894991CAA1CBB1CDD0CEE1CC7
:103B4000FF1C8A9571F7D92CEA2CFB2C9F900895C5
:103B50005FDFD9F05038C9F016270058952F9058DC
:103B60000894091F12F418F40EC008F00EC00FD00C
:103B7000FF202AF0BB0CDD1CEE1CFF1C02C00395CD
:103B800013F0B4DE57CF0C947C1D0C94831D9F92D0
:103B9000FF92EF928D2DFF24EE24DD24BB2493E0D1
:103BA000849F1001829FB00CD11CE21CF31C839FE8
:103BB000D00CE11C2224F21C9A9531F0BD2CDE2C95
:103BC000EF2CFF248F91ECCF9F900895D3DE20DF60
:103BD000503829F090E869270CC00AF045D02ACF68
:103BE0005FE322273327442701C0C4DE11DF5038AA
:103BF000B1F3003899F3902F951B8BF312F434D066
:103C0000FACF983118F0222733274427983028F02C
:103C1000232F342F44279850F9CF992329F0469524
:103C2000379527959A95D9F7912F962742F014D07A
:103C3000B0F6F794E794D7940F5F8BF65DCF10D072
:103C400051F008F4DBDEFF2052F2DD0CEE1CFF1C0D
:103C50000150CBF751CF57CFD20EE31EF41E08957B
:103C6000D21AE30AF40A0895DF92EF92FF920F93BB
:103C70001F93D22EE32EF42E052F162F6F915F91F6
:103C80004F913F912F9108950E942319D02C0E94AB
:103C90002319E02C0E942319F02C0E942319002DD7
:103CA00008950E942319202D0E942319302D0E946F
:103CB0002319402D0E942319502D089520BCBE4C7D
:103CC0000000000000761348C03B564A40C75E4AD9
:103CD000C052674AC0ACD84A6894194BD062564B60
:103CE000184B584B28E35A4B34D3894B4899A04B77
:103CF00040BEA14BC49CA34BA87CB74B2801D64B1C
:103D0000B0F6DA4B40C7DE4B2836E24BC81D3F4CBD
:103D10000000803F000000000000F04100409C4592
:103D20000000804400B82A45E65DF539E65DF5B946
:103D3000B083854C00000047446576696365203197
:103D400000003A20636F6D6D616E64206E6F7420A9
:103D5000666F756E643A20003A20493243206572DE
:103D6000726F723A20003A207761746368646F67FB
:103D70002072657365743A2000003A20636F6D6DA0
:103D8000616E64207761746368646F673A20000035
:103D90003A20706172616D65746572206572726F30
:103DA000723A20003A2074782074696D6520746F2F
:103DB0006F206C6F6E673A2000003A206E6F74209F
:103DC00076616C6964206174207468617420746920
:103DD0006D653A2000003A206932635F627566665D
:103DE0006572206F766572666C6F773A20003A20B4
:103DF000493263206E6F7420726561647920746F3C
:103E000020726563656976653A2000003A206E6F1E
:103E1000206572726F723A2000003A206F746865F4
:103E200072206572726F723A20004465766963652C
:023E300031005F
:00000001FF
