:100000000C94340018950000189500001895000015
:10001000189500001895000018950000189500002C
:10002000189500001895000018950000189500001C
:10003000189500001895000018950000189500000C
:1000400018950000189500000C94C5031895000041
:1000500018950000189500001895000018950000EC
:100060000C943804189500008FEF8DBFC8EDE0ECBC
:100070004E2E88E08EBFD8E0F8E05F2EA89584B7BA
:10008000082E877F84BF88E1992780936000909332
:100090006000EEEFF7E0A0E0B1E088278D933197A4
:1000A000E9F780E48093C40080E08093C50088E194
:1000B0008093C1006624E0E0FF270081A1E2B1E067
:1000C0000C93A1E2B1E00C9103FB16F00C947100CB
:1000D00082E08093620380915C03809363030C94BD
:1000E00074008FEF8093620322982A9A74B7777F07
:1000F00074BF8FE197E080936000909360007894E4
:100100007091C10070687093C1007091BC00716003
:100110007093BC003B98439A3A98429A3998419A16
:100120003898409A25982D9A24982C9A23982B9A9F
:100130002098289A2198299A56985E9A57985F9AFB
:10014000559A549A539A529A87E880937A0080E499
:1001500080937C001A990C94AF000E94DB01E0E0D0
:10016000F0E0A0E1B0E00E94C910053011F40C9459
:10017000BB000E94DB010E94220280916000886027
:1001800080936000A4E5B1E08C918F5F8C93009127
:1001900054010F3F11F00C945B01A3E5B1E08C9189
:1001A0008F5F8C93009153010A3511F00C9401017B
:1001B00000916603003018F011F00C94E1000C94EB
:1001C000FF00A6E6B3E08C918F5F8C9300916603ED
:1001D0000C3318F011F00C94EF000C94FF0081E048
:1001E00080935B0281E080935C0280E080936603F1
:1001F00085E08093620380915C03809363030C9499
:100200005B01043B11F00C94300100913901013085
:1002100081E009F080E08F93A6E2B0E00C9104FB4E
:1002200081E00EF480E09F918923882311F40C94DF
:100230002B01A5E5B1E08C918F5F8C930091550166
:10024000053018F011F00C9427010C9429010E943C
:1002500020040C942E0180E0809355010C945B01E6
:100260000F3F11F00C945B01A4E6B3E00D911C91DB
:10027000003050E0150718F011F00C9441010C9477
:100280004501A4E6B3E00E94DD0FA4E6B3E00D91C2
:100290001C910C3350E0150718F011F00C9452012A
:1002A0000C945B0183E08093620380915C038093F4
:1002B00063030E946B0200915E03003018F011F09E
:1002C0000C9464010C94D80180E080935E0300914B
:1002D0005C02013018F011F00C9470010C947C0158
:1002E00080E080935A0186E08093620380915C03F2
:1002F000809363030C94D801A4E6B3E00D911C91A4
:10030000003050E0150711F00C948A01A4E6B3E028
:100310000E94DD0F00915D020E3F11F00C949801D8
:1003200080915A01809359010E943E0D0C94D8018E
:1003300000913A01013081E009F080E08F93009153
:100340005D03013081E009F080E09F9189238823DB
:1003500011F40C94B30180915A01809359010E94C9
:100360003E0D0C94D80100913901013081E009F073
:1003700080E08F9300915D03023081E009F080E01E
:100380009F918923882311F40C94CE0180915A0106
:10039000809359010E943E0D0C94D80180E0809317
:1003A0005A0186E08093620380915C03809363032B
:1003B000A8950C94BD00E1E0F0E00E94F00FE6E1AA
:1003C000F0E0A0E1BB2781E08C937BE70E94AD10B9
:1003D000A42DB52DE6EEF1E20E941310E1E0F0E06D
:1003E000D2010E94BE10E7E1F0E0A0E1BB2780E16E
:1003F0008C937BE70E94AD10E8E1F0E0A0E1BB2721
:1004000081E08C937BE70E94AD10E9E1F0E0A0E190
:10041000BB2781E08C937BE70E94AD1080E0809346
:100420006A03EBE1F0E0AAE6B3E07BE70E94AD10DF
:10043000E0E0F0E0A0E1BB2785E08C937BE70E9441
:10044000AD100895E6E1F0E0A7E3B1E00E94C91025
:10045000E1E0F0E0A2E2B1E094E10E94D310E7E134
:10046000F0E0A8E3B1E00E94C910E8E1F0E0A9E300
:10047000B1E00E94C910E9E1F0E0AAE3B1E00E9416
:10048000C91081E080935C0380E08093630380E087
:1004900080935B0181E080935D030E946B0281E0A9
:1004A00080935B0281E080935C0280E0809366032E
:1004B0000E94200480E08093530180E080935401E7
:1004C000EBE1F0E0AAE6B3E00E94C9105D985C9809
:1004D0005B985A98089580E08093590180E080935A
:1004E0005A0181E080935B0280E090E0A4E6B3E0F3
:1004F0008D939C93ACE5B3E08C918F5F8C9340918E
:10050000630300915C03041711F00C948D0280E0EA
:10051000809363038FEF80936203089580915C0260
:10052000815080935C0281E080933C0140915C02A9
:1005300000913C01041718F011F00C94B702ACE3E1
:10054000B1E0AD90BB24ABE5B1E0AA0DBB1D8C9131
:1005500080933D0131E0ADE3B1E00E94E40FACE3F4
:10056000B1E08C918F5F8C9310F40C94960281E033
:1005700080935B0281E080935C0280E0809366035D
:100580000895EAEEFBE1A7E5B1E08C9199270E947E
:100590003410ACE5B1E00E941310ACE5B1E00E946C
:1005A000ED10ADE3B1E08C9300915B01013011F0EF
:1005B0000C94190300913D0141E0040FAEE3B1E05A
:1005C0000C9380913D0180933C0140913C0101E0FE
:1005D000041718F011F00C940C03ACE3B1E0AD90EB
:1005E000BB24ABE5B1E0AA0DBB1D8C91AEE3B1E03D
:1005F000AD90BB24ABE5B1E0AA0DBB1D8C938091FF
:100600003E01815080933E0180913C018150809356
:100610003C0110F00C94E50280913D0180935C0157
:1006200000913D0142E0040FACE5B2E00C930C9464
:10063000AE03023011F00C945F0300913D0142E0E3
:10064000040FAEE3B1E00C9380913D0180933C0137
:1006500040913C0101E0041718F011F00C944F0395
:10066000ACE3B1E0AD90BB24ABE5B1E0AA0DBB1D9E
:100670008C91AEE3B1E0AD90BB24ABE5B1E0AA0D47
:10068000BB1D8C9380913E01815080933E018091EF
:100690003C01815080933C0110F00C94280380E0D1
:1006A00080935C0180913D0180935D0100913D014B
:1006B00043E0040FACE5B2E00C930C94AE030430BD
:1006C00011F00C94AE0300913D0144E0040FAEE341
:1006D000B1E00C9380913D0180933C0140913C013D
:1006E00001E0041718F011F00C949503ACE3B1E0AD
:1006F000AD90BB24ABE5B1E0AA0DBB1D8C91AEE380
:10070000B1E0AD90BB24ABE5B1E0AA0DBB1D8C936D
:1007100080913E01815080933E0180913C01815047
:1007200080933C0110F00C946E0380EF80935C0189
:100730008091570180935D018091580180935E0103
:1007400080913D0180935F0100913D0145E0040FE0
:10075000ACE5B2E00C9381E080935B01A7E5B1E0EA
:100760008C918F5F8C9300915701003210F40C94A0
:10077000BC0380E0809357018091580181508093A1
:10078000580181E080935B0208950F921F922F928F
:100790003F924F925F927F92AF92BF92CF92DF9241
:1007A000EF92FF920F931F932F933F934F935F937B
:1007B0006F937F938F939F93AF93BF93CF93DF9369
:1007C000EF93FF938FB78F9300915A010A3F10F078
:1007D0000C94EF03AAE5B1E08C918F5F8C93AAE5AE
:1007E000B1E0AD90BB24ACE5B2E0AA0DBB1D809199
:1007F000C6008C9381E080935E0381E080935D036B
:100800008F918FBFFF91EF91DF91CF91BF91AF910A
:100810009F918F917F916F915F914F913F912F9118
:100820001F910F91FF90EF90DF90CF90BF90AF900E
:100830007F905F904F903F902F901F900F90189552
:1008400080E08093550170E07093B90070E0709380
:10085000B90071E17093B80070E87093BB00A8E331
:10086000B1E08C918093BA0075E47093BC00089558
:100870000F921F922F923F924F925F927F92AF9270
:10088000BF920F931F932F933F934F935F936F9359
:100890007F938F939F93AF93BF93CF93DF93EF9308
:1008A000FF938FB78F930091B9004CEF0423ABE314
:1008B000B1E00C9300913B01003611F00C946504FB
:1008C00075EC7093BC000C94D005083611F00C94B4
:1008D0006E0475EC7093BC000C94D005003711F0D9
:1008E0000C94770475EC7093BC000C94D005083719
:1008F00011F00C94800475EC7093BC000C94D0053E
:10090000003811F00C94A50400915A010A3F10F030
:100910000C948F04AAE5B1E08C918F5F8C93AAE5CB
:10092000B1E0AD90BB24ACE5B2E0AA0DBB1D809157
:10093000BB008C9382E080935D0381E080935E0333
:1009400075EC7093BC000C94D005083811F00C9431
:10095000CA0400915A010A3F10F00C94B404AAE5AD
:10096000B1E08C918F5F8C93AAE5B1E0AD90BB2490
:10097000ACE5B2E0AA0DBB1D8091BB008C9382E078
:1009800080935D0381E080935E0375EC7093BC00FF
:100990000C94D005003911F00C94EF0400915A0129
:1009A0000A3F10F00C94D904AAE5B1E08C918F5F56
:1009B0008C93AAE5B1E0AD90BB24ACE5B2E0AA0D02
:1009C000BB1D8091BB008C9382E080935D0381E02E
:1009D00080935E0375EC7093BC000C94D0050839CD
:1009E00011F00C94140500915A010A3F10F00C9478
:1009F000FE04AAE5B1E08C918F5F8C93AAE5B1E08B
:100A0000AD90BB24ACE5B2E0AA0DBB1D8091BB004C
:100A10008C9382E080935D0381E080935E0375ECAC
:100A20007093BC000C94D005003A11F00C941D0595
:100A300075EC7093BC000C94D005083A11F00C943E
:100A4000500540915C0200915B02041781E008F0C0
:100A500080E08F9300913901013081E009F080E05E
:100A60009F918923882311F40C944805ABE5B2E0EB
:100A7000AD90BB24ABE5B1E0AA0DBB1D8C9180937A
:100A8000BB00ABE5B2E08C918F5F8C930C944B056F
:100A900070E87093BB0075EC7093BC000C94D005AB
:100AA000003B11F00C94830540915C0200915B02C5
:100AB000041781E008F080E08F9300913901013044
:100AC00081E009F080E09F918923882311F40C9440
:100AD0007B05ABE5B2E0AD90BB24ABE5B1E0AA0D80
:100AE000BB1D8C918093BB00ABE5B2E08C918F5F16
:100AF0008C930C947E0570E87093BB0075EC70933A
:100B0000BC000C94D005083B11F00C94B605409144
:100B10005C0200915B02041781E008F080E08F9393
:100B200000913901013081E009F080E09F91892333
:100B3000882311F40C94AE05ABE5B2E0AD90BB2474
:100B4000ABE5B1E0AA0DBB1D8C918093BB00ABE57A
:100B5000B2E08C918F5F8C930C94B10570E8709328
:100B6000BB0075EC7093BC000C94D005003C11F0F8
:100B70000C94C20570E87093BB0075EC7093BC00D8
:100B80000C94D005083C11F00C94CE0570E87093DD
:100B9000BB0075EC7093BC000C94D0050E9420043F
:100BA00040915C0200915B02041710F40C94EC0578
:100BB00081E080935B0281E080935C0280E080931F
:100BC000660300915801003018F011F00C94EA050A
:100BD0000C94EC050E94C1028F918FBFFF91EF91A1
:100BE000DF91CF91BF91AF919F918F917F916F9145
:100BF0005F914F913F912F911F910F91BF90AF90B7
:100C00007F905F904F903F902F901F900F9018957E
:100C100070917A00706870937A0080915D02809381
:100C20005C0100915C010C3011F00C9431060091D4
:100C30007C00007F036000937C000E941910A8E6EE
:100C4000B3E08D939C9300917C00007F0360009340
:100C50007C000E941910A8E6B3E08D939C930C943D
:100C600087060D3011F00C944F0600917C00007F38
:100C7000026000937C000E941910A8E6B3E08D93F7
:100C80009C9300917C00007F026000937C000E9496
:100C90001910A8E6B3E08D939C930C9487060E3050
:100CA00011F00C946D0600917C00007F01600093B0
:100CB0007C000E941910A8E6B3E08D939C930091EC
:100CC0007C00007F016000937C000E941910A8E660
:100CD000B3E08D939C930C9487060F3011F00C9425
:100CE000870600917C00007F00937C000E94191011
:100CF000A8E6B3E08D939C9300917C00007F009365
:100D00007C000E941910A8E6B3E08D939C9370912B
:100D10007A007F7770937A00A8E6B3E011968C9101
:100D2000ADE5B1E08C93A8E6B3E08C91AEE5B1E01F
:100D30008C9381E08093660384E080935C02009151
:100D40005D03013011F00C94A7060E948E020E94F0
:100D50006B020895A6E2B0E08C9183FBADE5B1E0B3
:100D6000882780F98C9381E08093660380915D02EF
:100D700080935C0183E080935C0200915D0301300D
:100D800011F00C94C5060E948E020E946B02089519
:100D9000A6E2B0E08C9182FBADE5B1E0882780F956
:100DA0008C9381E08093660380915D0280935C0167
:100DB00083E080935C0200915D03013011F00C949C
:100DC000E3060E948E020E946B020895A6E2B0E044
:100DD0008C9181FBADE5B1E0882780F98C9381E0AF
:100DE0008093660380915D0280935C0183E0809331
:100DF0005C0200915D03013011F00C9401070E9428
:100E00008E020E946B020895A6E2B0E08C9180FBF6
:100E1000ADE5B1E0882780F98C9381E0809366038B
:100E200080915D0280935C0183E080935C0200917D
:100E30005D03013011F00C941F070E948E020E9486
:100E40006B020895A3E2B0E08C9185FBADE5B1E0C3
:100E5000882780F98C9381E08093660380915D02FE
:100E600080935C0183E080935C0200915D0301301C
:100E700011F00C943D070E948E020E946B020895AF
:100E8000A3E2B0E08C9184FBADE5B1E0882780F966
:100E90008C9381E08093660380915D0280935C0176
:100EA00083E080935C0200915D03013011F00C94AB
:100EB0005B070E948E020E946B020895A3E2B0E0DD
:100EC0008C9183FBADE5B1E0882780F98C9381E0BC
:100ED0008093660380915D0280935C0183E0809340
:100EE0005C0200915D03013011F00C9479070E94BF
:100EF0008E020E946B020895A3E2B0E08C9180FB09
:100F0000ADE5B1E0882780F98C9381E0809366039A
:100F100080915D0280935C0183E080935C0200918C
:100F20005D03013011F00C9497070E948E020E941D
:100F30006B020895A3E2B0E08C9181FBADE5B1E0D6
:100F4000882780F98C9381E08093660380915D020D
:100F500080935C0183E080935C0200915D0301302B
:100F600011F00C94B5070E948E020E946B02089546
:100F7000A9E2B0E08C9186FBADE5B1E0882780F96D
:100F80008C9381E08093660380915D0280935C0185
:100F900083E080935C0200915D03013011F00C94BA
:100FA000D3070E948E020E946B020895A9E2B0E06E
:100FB0008C9187FBADE5B1E0882780F98C9381E0C7
:100FC0008093660380915D0280935C0183E080934F
:100FD0005C0200915D03013011F00C94F1070E9456
:100FE0008E020E946B0208950E94080608950E94D6
:100FF000080608950E94080608950E9408060895AC
:1010000080E080933B01339B0C94090881E080933E
:101010003B01329B0C941108ABE3B1E08C918E5FE5
:101020008C93319B0C941908ABE3B1E08C918C5FED
:101030008C93309B0C942108ABE3B1E08C91885FDA
:101040008C931D9B0C942908ABE3B1E08C91805FDD
:101050008C931C9B0C943108ABE3B1E08C91805EC7
:101060008C931B9B0C943908ABE3B1E08C91805CB2
:101070008C93189B0C944108ABE3B1E08C918058A1
:101080008C9380E180935C0180913B0180935E01B1
:1010900080E080933B01199B0C94510881E0809380
:1010A0003B014E9B0C945908ABE3B1E08C918E5FF1
:1010B0008C934F9B0C946108ABE3B1E08C918C5FF7
:1010C0008C9380913B0180935D0181E08093660366
:1010D00084E080935C0200915D03013011F00C9478
:1010E00073080E948E020E946B02089500915901BC
:1010F000013018F011F00C947F080C948B080091CB
:101100005E02013011F00C9488085D9A0C948908F5
:101110005D980E946B020895ABE2B0E08C9185FB74
:10112000ADE5B1E0882780F98C9381E08093660378
:1011300080915D0280935C0183E080935C0200916A
:101140005D03013011F00C94A7080E948E020E94EA
:101150006B02089500915901013018F011F00C94C0
:10116000B3080C94BF0800915E02013011F00C949A
:10117000BC085C9A0C94BD085C980E946B020895B0
:10118000ABE2B0E08C9184FBADE5B1E0882780F95B
:101190008C9381E08093660380915D0280935C0173
:1011A00083E080935C0200915D03013011F00C94A8
:1011B000DB080E948E020E946B0208950091590183
:1011C000013018F011F00C94E7080C94F30800912A
:1011D0005E02013011F00C94F0085B9A0C94F10857
:1011E0005B980E946B020895ABE2B0E08C9183FBA8
:1011F000ADE5B1E0882780F98C9381E080936603A8
:1012000080915D0280935C0183E080935C02009199
:101210005D03013011F00C940F090E948E020E94B0
:101220006B02089500915901013018F011F00C94EF
:101230001B090C94270900915E02013011F00C94F7
:1012400024095A9A0C9425095A980E946B02089511
:10125000ABE2B0E08C9182FBADE5B1E0882780F98C
:101260008C9381E08093660380915D0280935C01A2
:1012700083E080935C0200915D03013011F00C94D7
:1012800043090E948E020E946B0208950091590149
:10129000013018F011F00C944F090C94860900915C
:1012A0005E02003011F00C94670980E080936A03BD
:1012B000EBE1F0E0AAE6B3E07BE70E94AD1087E83F
:1012C00080937A0080E480937C000C948409013040
:1012D00011F00C947D0981E080936A03EBE1F0E06A
:1012E000AAE6B3E07BE70E94AD1087E880937A001E
:1012F00080EC80937C000C94840984E080936203EA
:1013000080915C03809363030E946B020895809137
:101310006A0380935D0181E08093660380915D02A2
:1013200080935C0183E080935C0200915D03013057
:1013300011F00C949D090E948E020E946B02089588
:1013400080E080935A0180E08093590108950091D4
:101350005901033010F40C94FB0980915F028093D3
:10136000570180915E02809358010091570100322D
:1013700081E008F080E08F9300915801003281E015
:1013800008F080E09F918923882311F40C94F209DE
:1013900000915801003018F011F00C94D1090C9410
:1013A000F00981E08093660384E080935B010E94F2
:1013B000C10200915D03013011F00C94F0090E940C
:1013C0008E0200915801003018F011F00C94EA09D7
:1013D0000C94F0090E94C1020E948E020C94E10953
:1013E0000C94F90984E08093620380915C038093FC
:1013F00063030E946B02089581E0809366038EE18F
:1014000070E0ACE5B1E00E94A0108CEF80935C012D
:1014100083E080933B01ECE5F3E0A0E0B1E00E94C3
:101420005A10A0E0B1E00E94ED10AEE3B1E08C9361
:1014300081E080933C0140913E0100913C01041702
:1014400018F011F00C94430AACE3B1E0AD90BB246A
:10145000AFEFB0E0AA0DBB1D8C91ABE3B1E0AD9056
:10146000BB24ABE5B1E0AA0DBB1D8C93ABE3B1E0AF
:101470008C918F5F8C93ACE3B1E08C918F5F8C93F8
:1014800010F40C941B0A00916203003011F00C94CC
:10149000510AA0E0B1E0E0EFF1E20E9413100C94D9
:1014A000C30A013011F00C945D0AA0E0B1E0E6E05F
:1014B000F2E20E9413100C94C30A023011F00C9453
:1014C000690AA0E0B1E0E4E1F2E20E9413100C949A
:1014D000C30A033011F00C94750AA0E0B1E0E8E211
:1014E000F2E20E9413100C94C30A043011F00C9421
:1014F000810AA0E0B1E0EEE3F2E20E9413100C9446
:10150000C30A053011F00C948D0AA0E0B1E0E2E5C9
:10151000F2E20E9413100C94C30A063011F00C94EE
:10152000990AA0E0B1E0E8E6F2E20E9413100C9400
:10153000C30A073011F00C94A50AA0E0B1E0E4E87A
:10154000F2E20E9413100C94C30A083011F00C94BC
:10155000B10AA0E0B1E0ECE9F2E20E9413100C94B1
:10156000C30A0F3F11F00C94BD0AA0E0B1E0EAEB12
:10157000F2E20E9413100C94C30AA0E0B1E0E8EC80
:10158000F2E20E941310A0E0B1E00E94ED10AEE381
:10159000B1E08C9381E080933C0140913E01009149
:1015A0003C01041718F011F00C94F50AACE3B1E01B
:1015B000AD90BB24AFEFB0E0AA0DBB1D8C91ABE3A7
:1015C000B1E0AD90BB24ABE5B1E0AA0DBB1D8C939F
:1015D000ABE3B1E08C918F5F8C93ACE3B1E08C9185
:1015E0008F5F8C9310F40C94CD0AE3E6F3E0A0E057
:1015F000B1E00E945A10A0E0B1E00E94ED10AEE30D
:10160000B1E08C9381E080933C0140913E010091D8
:101610003C01041718F011F00C942D0BACE3B1E071
:10162000AD90BB24AFEFB0E0AA0DBB1D8C91ABE336
:10163000B1E0AD90BB24ABE5B1E0AA0DBB1D8C932E
:10164000ABE3B1E08C918F5F8C93ACE3B1E08C9114
:101650008F5F8C9310F40C94050B00913B0143E0D9
:10166000041BADE5B1E00C9380913B0180935C02DB
:1016700000915D03013011F00C94400B0E948E022A
:101680000E946B02089581E0809366038DEF809342
:101690005C0184E080935D0183E080935C020091B3
:1016A0005D03013011F00C94570B0E948E020E94D2
:1016B0006B02089500915901023010F40C946F0CE4
:1016C00000915E02003011F00C94C50B009159019D
:1016D000033010F40C94C30B00915F02003011F042
:1016E0000C94760B0E946B020C94C30B00915F026A
:1016F00043E0040FABE3B1E00C9340913B01009158
:101700005901041710F40C94C30B84E170E0A2E2B9
:10171000B1E00E94A01000913B01073118F011F0D8
:101720000C94940B0C94970B87E180933B0184E01D
:1017300080933C0140913B0100913C01041718F05B
:1017400011F00C94BD0BACE3B1E0AD90BB24ACE563
:10175000B2E0AA0DBB1D8C91ACE3B1E0AD90BB240F
:10176000AEE1B1E0AA0DBB1D8C93ACE3B1E08C916E
:101770008F5F8C9310F40C949A0BE1E0F0E0A2E2FE
:10178000B1E00E94BE100C946F0C013011F00C946B
:10179000DE0B00915901033010F40C94DC0B8091A6
:1017A0005F0280933701E6E1F0E0A7E3B1E07BE779
:1017B0000E94AD100E946B020C946F0C023011F06D
:1017C0000C94060C00915901033010F40C94040C95
:1017D00000915F02023010F00C94FB0B80915F02CD
:1017E00080933901E8E1F0E0A9E3B1E07BE70E94F2
:1017F000AD100C94020C84E08093620380915C0332
:10180000809363030E946B020C946F0C033011F001
:101810000C943A0C00915901033010F40C94380CDC
:1018200080915F0280933C0100913C01003810F0F0
:101830000C942F0CACE3B1E00C9142E0049F0C92AD
:1018400080913C0180933801E7E1F0E0A8E3B1E04A
:101850007BE70E94AD100E9420040C94360C84E0BB
:101860008093620380915C03809363030E946B0208
:101870000C946F0C043011F00C94660C009159011B
:10188000033010F40C94640C80915F0280933C014F
:1018900000913C01023010F00C945B0C80913C01F3
:1018A00080933A01E9E1F0E0AAE3B1E07BE70E942E
:1018B000AD100C94620C84E08093620380915C0311
:1018C000809363030E946B020C946F0C84E08093FE
:1018D000620380915C03809363030E946B0208950E
:1018E00000915901023010F40C943D0D81E0809379
:1018F00066038FEF80935C0180915E0280935D01AF
:1019000080E080935C0200915E02003011F00C9444
:10191000C30CA2E2B1E00E94ED10ADE3B1E08C9304
:1019200080913D0180935E0184E080935C0281E0C0
:1019300080933C0140913D0100913C01041718F057
:1019400011F00C94C10CACE3B1E0AD90BB24A1E26A
:10195000B1E0AA0DBB1D8C91ACE5B2E0AD90BB240B
:10196000ABE5B1E0AA0DBB1D8C93ACE5B2E08C9168
:101970008F5F8C93ACE3B1E08C918F5F8C930C9470
:101980009A0C0C942A0D013011F00C94D00C80911B
:10199000370180935E0184E080935C020C942A0DF1
:1019A000023011F00C94DD0C8091390180935E01BE
:1019B00084E080935C020C942A0D033011F00C94A7
:1019C000F20C0091380142E00E94DD10ACE3B1E07E
:1019D0000C9380913C0180935E0184E080935C02D3
:1019E0000C942A0D043011F00C94FF0C80913A01F4
:1019F00080935E0184E080935C020C942A0D053094
:101A000011F00C940B0D80E080935E0184E08093D4
:101A10005C020C942A0D063011F00C94230D83E027
:101A200080935E0188E3AFE5B1E08C938EE4A0E69D
:101A3000B1E08C9381E3A1E6B1E08C9387E08093E1
:101A40005C020C942A0D84E08093620380915C0315
:101A50008093630300915C02003018F011F00C9445
:101A6000330D0C943B0D00915D03013011F00C948B
:101A70003B0D0E948E020E946B02089500915D0250
:101A8000003011F00C945E0D81E08093660380E0DD
:101A90008093570181E08093580182E080935B013D
:101AA0000E94C10200915D03013011F00C945A0DA7
:101AB0000E948E020E946B020C94F20D00915D0256
:101AC0000F3E10F00C94BC0D00915D020B3110F034
:101AD0000C94B10DEFEAFDE0EF93FF93E9E7FDE031
:101AE000ADE5B2E08C919927880F991FE80FF91F97
:101AF00009940C9400000C94AA060C94C8060C944B
:101B0000E6060C9404070C9422070C9440070C94EE
:101B10005E070C947C070C949A070C94B8070C94FD
:101B2000D6070C94F4070C94F7070C94FA070C945E
:101B3000FD070C9400080C9476080C948C080C9407
:101B4000AA080C94C0080C94DE080C94F4080C94B9
:101B500012090C9428090C9446090C9487090C94DA
:101B6000BA0D80E08093620380915C0380936303ED
:101B70000E946B020C94F20D00915D0240EF041B79
:101B8000ABE3B1E00C93E2EFFDE0EF93FF93E2ED06
:101B9000FDE0ABE3B1E08C919927880F991FE80F26
:101BA000F91F09940C94A7090C94A0090C94A0099E
:101BB0000C94A0090C94A0090C94A0090C94A00901
:101BC0000C94A0090C94A0090C94A0090C94A009F1
:101BD0000C94A0090C94FC090C94430B0C945A0B24
:101BE0000C94700C0895F894FFCF303B6D3B444B40
:101BF0003152493B342052656C61697320426F72E7
:101C0000643B5630362E303B313B3139303B313B33
:101C100033323B312D3100313B61732C494E503111
:101C20003B313B302C303B312C3100323B61732C4B
:101C3000494E50323B313B302C303B312C3100335C
:101C40003B61732C494E50333B313B302C303B31A0
:101C50002C3100343B61732C494E50343B313B30C6
:101C60002C303B312C3100353B61732C494E5035C3
:101C70003B313B302C303B312C3100363B61732CF7
:101C8000494E50363B313B302C303B312C31003704
:101C90003B61732C494E50373B313B302C303B314C
:101CA0002C3100383B61732C494E50383B313B306E
:101CB0002C303B312C3100393B61732C494E50396B
:101CC0003B313B302C303B312C310031303B6173A8
:101CD0002C494E5031303B313B302C303B312C3194
:101CE0000031313B61732C494E5031313B313B3037
:101CF0002C303B312C310031323B61702C494E503D
:101D0000313B313B313032343B6C696E3B2D00311D
:101D1000333B61702C494E50323B313B31303234D1
:101D20003B6C696E3B2D0031343B61702C494E5049
:101D3000333B313B313032343B6C696E3B2D0031EB
:101D4000353B61702C494E50343B313B313032349D
:101D50003B6C696E3B2D0031363B61612C616C6CD4
:101D60003B772C7B315F30746F343039357D0031F7
:101D7000373B6F732C72656C616973313B313B305B
:101D80002C6F66663B312C6F6E0031383B61732CD3
:101D9000617331370031393B6F732C72656C616947
:101DA00073323B313B302C6F66663B312C6F6E00DB
:101DB00032303B61732C617331390032313B6F73C8
:101DC0002C72656C616973333B313B302C6F6666F6
:101DD0003B312C6F6E0032323B61732C61733231B8
:101DE0000032333B6F732C2072656C616973343B36
:101DF000313B302C6F66663B312C6F6E0032343BCA
:101E000061732C617332330032353B6F732C726512
:101E1000666572656E63653B313B302C35563B31F0
:101E20002C312E31560032363B61732C61733235C2
:101E3000003234303B616E2C414E4E4F554E43457F
:101E40004D454E54533B3139303B33323B31342CCA
:101E5000434841505445522C41444D494E495354F6
:101E6000524154494F4E003235323B61612C4C4156
:101E70005354204552524F523B32302C6C61737494
:101E80005F6572726F72003235333B61612C4D5960
:101E90004320494E464F3B622C414354495645002E
:101EA0003235343B6F612C494E44495649445541C3
:101EB0004C495A4154494F4E3B32302C4E414D45CE
:101EC0002C44657669636520313B622C4E554D424A
:101ED00045522C313B612C4932432C313B622C4121
:101EE00044524553532C382C7B315F30746F313260
:101EF000377D3B612C53455249414C2C313B3134A9
:101F00002C434841505445522C41444D494E49536D
:101F100054524154494F4E003235353B61612C4992
:101F20004E444956494455414C495A4154494F4EF3
:101F30003B32302C4E414D452C446576696365201B
:101F4000313B622C4E554D4245522C313B612C4960
:101F500032432C313B622C4144524553532C382C94
:101F60007B315F30746F3132377D3B612C5345528A
:101F700049414C2C313B622C42415544524154451D
:101F80002C302C7B31393230307D3B332C4E554D4B
:101F90004245525F4F465F424954532C386E313BA5
:101FA00031342C434841505445522C41444D494E04
:101FB000495354524154494F4E00ED91FC91EF5F0B
:101FC000FF4FFC93EE9308958D9103D03A95E1F77E
:101FD00008950090C00005FEFCCF8093C6000895D0
:101FE00088EE93E00CD03197D9F708953197F1F747
:101FF0000895689462F80895E89462F80895EF935C
:10200000FF93EE27E82BE92B31F0E8E8F3E1319775
:10201000F1F70197D1F7FF91EF9108950191119197
:102020002191308108950E9430100D920020D9F73F
:10203000089570917A00706470937A0000907A002D
:1020400006FCFCCF70917A00706470937A00009067
:102050007A0006FCFCCF8091780090917900089579
:10206000C8953196002008950196019721F00E94AD
:102070003010E9F7FACF0895000F111F221F331F08
:10208000089500951095209530950F5F1F4F2F4FA5
:102090003F4F0895019110810FC00E940E100EC095
:1020A0000E940E1010C00191108117FF05C03FEF74
:1020B0002FEF04C0008111272227332737FF03C0E9
:1020C000E0DF8DE28D93CF92DF92EF92AA24BB24C2
:1020D000CC24DD24EE2440E2EAE0FF2755E093E340
:1020E0008081890F87FD9F7083FD907F891B81937D
:1020F0005A95A9F7C1DFAA1CBB1CCC1CDD1CEE1C29
:102100004A9551F7E894EFE0FF2782910BD0EB302E
:10211000E0F71EF068948A2D09D04D93EF90DF9080
:10212000CF900895982F829501D0892F8F70805D70
:1021300026F0803309F4089568948D93089570E231
:10214000803021F07D938A95E9F78C930895F99971
:10215000FECFE1BDF2BD3196089591E001C092E05D
:102160007B3751F47FB7F894F2DF8D9180BDFA9AF6
:10217000F99A9A95C9F77FBF77270895E8DF8D917F
:102180007B3729F480BDFA9AF99A8823B9F7772723
:10219000089591E001C092E0DADFF89A80B58D935E
:1021A0009A95D1F70895D3DFF89A80B58D93882357
:1021B00019F09A95C1F79D930895FF93881BF9E054
:1021C000001FFA9511F4FF910895881F841B18F4DD
:1021D000840F8894F5CF0894F3CF8FEF83959D916A
:1021E0009923E1F70895446576696365203100001D
:1021F0003A20636F6D6D616E64206E6F7420666F40
:10220000756E643A20003A20493243206572726F3D
:10221000723A20003A207761746368646F672072B5
:10222000657365743A2000003A20636F6D6D616ECE
:1022300064207761746368646F673A2000003A2015
:10224000706172616D65746572206572726F723A49
:1022500020003A2074782074696D6520746F6F20B7
:102260006C6F6E673A2000003A206E6F74207661C2
:102270006C696420617420746861742074696D6590
:102280003A2000003A206932635F627566666572C3
:10229000206F766572666C6F773A20003A2049327B
:1022A00063206E6F7420726561647920746F207290
:1022B0006563656976653A2000003A206E6F206597
:1022C00072726F723A2000003A206F746865722053
:0822D0006572726F723A200082
:00000001FF
