:100000000C94460018950000189500001895000003
:10001000189500001895000018950000189500002C
:10002000189500001895000018950000189500001C
:10003000189500001895000018950000189500000C
:1000400018950000189500001895000018950000FC
:100050000C9476041895000018950000189500007F
:1000600018950000189500000C94EF0418950000F6
:1000700018950000189500001895000018950000CC
:100080001895000018950000189500008FEF8DBF9F
:10009000C8EDE0EC4E2E80E48EBFD0E4F0E45F2E9D
:1000A000A89584B7082E877F84BF88E1992780931D
:1000B000600090936000EEEFFFE3A0E0B1E08827DE
:1000C0008D933197E9F780E48093C40080E08093BA
:1000D000C50088E18093C1006624E0E0FF2700812D
:1000E000AAE7B1E00C93AAE7B1E00C9103FB16F08C
:1000F0000C94830082E08093BA038091B4038093D0
:10010000BB030C9486008FEF8093BA0322982C9A3D
:1001100074B7777F74BF8FE197E08093600090930E
:10012000600078947091C10070687093C100709104
:10013000BC0071607093BC003B9A80E48093CC005B
:1001400080E08093CD007091C8007D7F7093C800DF
:1001500087E08093CA0088E18093C9001C990C94C1
:10016000B3000E949302E0E0F0E0A0E1B0E00E9462
:100170006414053011F40C94BF000E9493020E9495
:10018000DC0280916000886080936000ADEAB1E09D
:100190008C918F5F8C930091AD010F3F11F00C9407
:1001A0005801ACEAB1E08C918F5F8C930091AC0167
:1001B0000A3511F00C94FE000091BE03003018F0D7
:1001C00011F00C94E5000C94FC00AEEBB3E08C91C4
:1001D0008F5F8C930091BE03083218F011F00C94DD
:1001E000F3000C94FC000E944C0385E08093BA035A
:1001F0008091B4038093BB030C945801043B11F02D
:100200000C942D0100919201013081E009F080E011
:100210008F93A6E2B0E00C9101FB81E00EF480E048
:100220009F918923882311F40C942801AEEAB1E050
:100230008C918F5F8C930091AE01053018F011F016
:100240000C9424010C9426010E94D7040C942B01D9
:1002500080E08093AE010C9458010F3F11F00C9494
:100260005801ACEBB3E00D911C91003050E0150744
:1002700018F011F00C943E010C944201ACEBB3E089
:100280000E943712ACEBB3E00D911C91083250E0A4
:10029000150718F011F00C944F010C94580183E0ED
:1002A0008093BA038091B4038093BB030E945903E7
:1002B0000E949C12A4E9B1E08C930091940101305A
:1002C00011F00C9434020E94A212A4E9B1E08C93C4
:1002D0000091C203003011F00C94710181E0809311
:1002E000C2030091F2040A3F10F00C942B0200911B
:1002F00094010D3F11F40C948F0180919401A2EFB1
:10030000B4E0AD90BB24A6EFB3E0AA0DBB1D8C9367
:10031000A2EFB4E08C918F5F8C930C942902009132
:10032000F204063010F00C94A6018BE08093BA031F
:100330008091B4038093BB03ECE1F9E20E94C913FE
:100340000E9486120E9492120C94270280EE8093E3
:10035000F9030091F204063011F00C94E50191E0EC
:100360009A93A7EFB3E0E1EEF3E022270E947B131C
:10037000A4E9B1E00C9300919401003011F00C94C9
:10038000E30191E09A93A7EFB3E0ECEEF3E02227CC
:100390000E947B13A4E9B1E00C9300919401013019
:1003A00011F00C94DC018AE08093BA038091B403CD
:1003B0008093BB030C94E3018BE08093BA0380919C
:1003C000B4038093BB030C942702A7EFB3E0EBECDC
:1003D000F3E0222791E00E948013A5E9B1E00C939D
:1003E00000919501013011F00C94200281E080937E
:1003F00094014091F20400919401041718F011F057
:100400000C941A02A4E9B1E0AD90BB24A6EFB3E0CE
:10041000AA0DBB1D8C918093970131E0A7E9B1E053
:100420000E948D12A4E9B1E08C918F5F8C9310F43F
:100430000C94F9010E94DD060E9476030C942702B9
:100440008DE08093BA038091B4038093BB030E9434
:100450007C060C94340289E08093BA038091B40343
:100460008093BB030E947C060091B603003018F015
:1004700011F00C943D020C9478020091B40201300A
:1004800018F011F00C9446020C94520280E0809314
:10049000B20186E08093BA038091B4038093BB03DA
:1004A0000C9475020091B5020E3F81E009F480E0E2
:1004B0008F9300919301003081E009F080E09F91DB
:1004C00089238F9300919201003081E009F080E050
:1004D0009F918923882311F40C94730280E0809308
:1004E000B2010C9475020E94450C80E08093B60323
:1004F0004091B4020091B302041718F011F00C946B
:1005000083020C9490020E944C030091B1010030D0
:1005100018F011F00C948E020C9490020E94A20329
:10052000A8950C94C100E1E0F0E00E94B512E6E16C
:10053000F0E0A0E1BB2781E08C937BE70E944814A8
:10054000A42DB52DE0E2F9E20E94C9130E947513B3
:10055000E1E0F0E0D2017BE70E945914E7E1F0E02E
:10056000A0E1BB278FE18C937BE70E944814E8E170
:10057000F0E0A0E1BB2781E08C937BE70E94481468
:10058000E9E1F0E0A0E1BB2781E08C937BE70E94EA
:100590004814EBE1F0E0A0E1BB2784E28C937BE719
:1005A0000E944814E0E0F0E0A0E1BB2785E08C93D6
:1005B0007BE70E9448140895E6E1F0E0A0E9B1E08D
:1005C0000E946414E1E0F0E0ABE7B1E094E10E9446
:1005D0006E14E7E1F0E0A1E9B1E00E946414E8E103
:1005E000F0E0A2E9B1E00E946414E9E1F0E0A3E9DF
:1005F000B1E00E94641481E08093B40380E08093B2
:10060000BB0380E08093B30181E08093B5030E9437
:1006100059030E944C030E94D70480E08093AC01F0
:1006200080E08093AD01EBE1F0E0A3ECB3E00E9449
:100630006414A6EDB3E0EAE2F9E20E94C9130E9455
:1006400075138091C3038093D803ABECB3E0E0E370
:10065000F9E20E94C9130E9475138091C30380932D
:10066000CE03A1EEB3E0E6E3F9E20E94C9130E94D3
:1006700075138091C3038093E403ACEEB3E0ECE325
:10068000F9E20E94C9130E9475138091C3038093FD
:10069000EF030E947C06089581E08093B30281E01D
:1006A0008093B40280E08093BE0370E87093BB0037
:1006B000089580E08093B20180E090E0ACEBB3E07D
:1006C0008D939C93A4EBB3E08C918F5F8C934091BE
:1006D000BB030091B403041711F00C94750380E080
:1006E0008093BB038FEF8093BA0308958091B40287
:1006F00081508093B40281E0809395014091B402CF
:1007000000919501041718F011F00C949F03A5E9CE
:10071000B1E0AD90BB24A3EBB1E0AA0DBB1D8C9161
:100720008093960131E0A6E9B1E00E948D12A5E91F
:10073000B1E08C918F5F8C9310F40C947E030E9437
:100740004C03089581E080939501009195010E3F3F
:1007500018F011F00C94BE0380E0A5E9B1E0AD9073
:10076000BB24A3EBB1E0AA0DBB1D8C93A5E9B1E0BE
:100770008C918F5F8C9310F40C94A503E4E2F1E26A
:100780000E94C913A0EBB1E08C9199270E94BB1382
:10079000A4EBB1E00E947513A4EBB1E00E948814B1
:1007A000A6E9B1E08C930091B301013011F00C94F3
:1007B000DE0381E0809394010C94EE03023011F08B
:1007C0000C94E70382E0809394010C94EE030430D0
:1007D00011F00C94EE0385E08093940180919601D2
:1007E000809395014091950101E0041718F011F0F4
:1007F0000C941C040091950140919401040FA7E909
:10080000B1E00C93A5E9B1E0AD90BB24A3EBB1E05E
:10081000AA0DBB1D8C91A7E9B1E0AD90BB24A3EB61
:10082000B1E0AA0DBB1D8C938091950181508093FE
:10083000950110F00C94F2030091B301013011F016
:100840000C942804809196018093B4010C94520476
:10085000023011F00C943C0480E08093B40180914C
:1008600096018093B5010091960143E0040FA4EB3B
:10087000B2E00C930C945204043011F00C94520426
:1008800080EF8093B4018091B0018093B501809195
:10089000B1018093B601809196018093B70181E008
:1008A0008093B3010091960140919401040FA4EB51
:1008B000B2E00C93A4EBB2E08C918F5F8C93A0EB31
:1008C000B1E08C918F5F8C930091B001013110F4F5
:1008D0000C946D0480E08093B0018091B10181504F
:1008E0008093B10181E08093B30208950F921F922B
:1008F0002F923F924F925F927F92AF92BF92CF9290
:10090000DF92EF92FF920F931F932F933F934F939A
:100910005F936F937F938F939F93AF93BF93CF9387
:10092000DF93EF93FF938FB78F938BB78F938827C6
:100930008BBF0091B2010A3F10F00C94A404A2EB0B
:10094000B1E08C918F5F8C93A2EBB1E0AD90BB24B2
:10095000A4EBB2E0AA0DBB1D8091C6008C9381E090
:100960008093B60381E08093B5038F918BBF8F9105
:100970008FBFFF91EF91DF91CF91BF91AF919F9189
:100980008F917F916F915F914F913F912F911F9127
:100990000F91FF90EF90DF90CF90BF90AF907F903E
:1009A0005F904F903F902F901F900F90189580E090
:1009B0008093AE0170E07093B90070E07093B9005D
:1009C00071E17093B80070E87093BB00A1E9B1E0E9
:1009D0008C918093BA0075E47093BC0008950F92D7
:1009E0001F922F923F924F925F927F92AF92BF924F
:1009F0000F931F932F933F934F935F936F937F9327
:100A00008F939F93AF93BF93CF93DF93EF93FF9316
:100A10008FB78F938BB78F9388278BBF0091B900C7
:100A20004CEF0423A4E9B1E00C930091940100364B
:100A300011F00C94200575EC7093BC000C945E06CC
:100A4000083611F00C94290575EC7093BC000C94D9
:100A50005E06003711F00C94320575EC7093BC0003
:100A60000C945E06083711F00C943B0575EC7093FE
:100A7000BC000C945E06003811F00C9460050091E7
:100A8000B2010A3F10F00C944A05A2EBB1E08C9140
:100A90008F5F8C93A2EBB1E0AD90BB24A4EBB2E0EE
:100AA000AA0DBB1D8091BB008C9382E08093B5039F
:100AB00081E08093B60375EC7093BC000C945E06E5
:100AC000083811F00C9485050091B2010A3F10F02E
:100AD0000C946F05A2EBB1E08C918F5F8C93A2EB2D
:100AE000B1E0AD90BB24A4EBB2E0AA0DBB1D809198
:100AF000BB008C9382E08093B50381E08093B603C2
:100B000075EC7093BC000C945E06003911F00C94E7
:100B1000AA050091B2010A3F10F00C949405A2EBD3
:100B2000B1E08C918F5F8C93A2EBB1E0AD90BB24D0
:100B3000A4EBB2E0AA0DBB1D8091BB008C9382E0B8
:100B40008093B50381E08093B60375EC7093BC008D
:100B50000C945E06083911F00C94CF050091B20197
:100B60000A3F10F00C94B905A2EBB1E08C918F5FB5
:100B70008C93A2EBB1E0AD90BB24A4EBB2E0AA0D44
:100B8000BB1D8091BB008C9382E08093B50381E014
:100B90008093B60375EC7093BC000C945E06003A2B
:100BA00011F00C94D80575EC7093BC000C945E06A3
:100BB000083A11F00C94E10575EC7093BC000C94AC
:100BC0005E06003B11F00C94EA0575EC7093BC00D6
:100BD0000C945E06083B11F00C941D064091B40283
:100BE0000091B302041781E008F080E08F93009138
:100BF0009201013081E009F080E09F9189238823F0
:100C000011F40C941506A3EBB2E0AD90BB24A3EB5A
:100C1000B1E0AA0DBB1D8C918093BB00A3EBB2E0A9
:100C20008C918F5F8C930C94180670E87093BB00C6
:100C300075EC7093BC000C945E06003C11F00C94B3
:100C4000530670E87093BB004091B4020091B30268
:100C5000041781E008F080E08F9300919201013049
:100C600081E009F080E09F918923882311F40C949E
:100C70004B06A3EBB2E0AD90BB24A3EBB1E0AA0D11
:100C8000BB1D8C918093BB00A3EBB2E08C918F5F76
:100C90008C930C944E0670E87093BB0075EC7093C7
:100CA000BC000C945E06083C11F00C945C0675ECDC
:100CB0007093BC000C945E060E94D7048F918BBF8A
:100CC0008F918FBFFF91EF91DF91CF91BF91AF9146
:100CD0009F918F917F916F915F914F913F912F9154
:100CE0001F910F91BF90AF907F905F904F903F907A
:100CF0002F901F900F90189581E08093F20480E070
:100D00008093F30480E08093C20380E090E0A4EC41
:100D1000B3E08D939C9381E090E0A0ECB3E08D93E1
:100D20009C93429A0E944C03089542987091C90086
:100D30007F7E7093C9008EEF0E94AE128EEF0E94EC
:100D4000AE1231E0A3ECB3E00E94A91280EE0E9443
:100D5000AE1281E0809394014091C603009194010A
:100D6000041718F011F00C94CD06A4E9B1E0AD9091
:100D7000BB24AFEFB0E0AA0DBB1D8C918093950111
:100D800031E0A5E9B1E00E94A912A4E9B1E08C919B
:100D90008F5F8C9310F40C94AC068DEF0E94AE1212
:100DA000429A0E94590381E090E00E9434137091AE
:100DB000C90070617093C90008950091FB0302306F
:100DC00011F00C94730885E08093B40190910004B5
:100DD0000E942413082F11272227332740E051EEC9
:100DE00065EF75E00E945213A0EAB1E00D931D93E8
:100DF0002D933D939091FF030E942413082F1127F8
:100E00002227332740E452E46FE070E00E9452133F
:100E1000A4EAB1E00D931D932D933D93A0EAB1E0B8
:100E20000D911D912D913C91A4EAB1E04D915D9100
:100E30006D917C910E94CF13A0EAB1E00D931D93B8
:100E40002D933D939091FE030E942413082F1127A8
:100E50002227332740E157E260E070E00E945213FE
:100E6000A4EAB1E00D931D932D933D93A0EAB1E068
:100E70000D911D912D913C91A4EAB1E04D915D91B0
:100E80006D917C910E94CF13A0EAB1E00D931D9368
:100E90002D933D939091FD030E942413082F112759
:100EA0002227332744E650E060E070E00E945213AE
:100EB000A4EAB1E00D931D932D933D93A0EAB1E018
:100EC0000D911D912D913C91A4EAB1E04D915D9160
:100ED0006D917C910E94CF13A0EAB1E00D931D9318
:100EE0002D933D93A0EAB1E00D911D912D913C9180
:100EF0009091FC030E942413482F552766277727DB
:100F00000E94CF13A0EAB1E00D931D932D933D9362
:100F1000A0EAB1E00D911D912D913C9140E056EE7B
:100F200068EE79E40E94D413A0EAB1E00D931D931A
:100F30002D933D938091A3018093B5018091A201EF
:100F40008093B6018091A1018093B7018091A001A7
:100F50008093B801909106040E942413082F112752
:100F60002227332740E051EE65EF75E00E945213CF
:100F7000A0EAB1E00D931D932D933D93909105044C
:100F80000E942413082F11272227332740E452E41C
:100F90006FE070E00E945213A4EAB1E00D931D933C
:100FA0002D933D93A0EAB1E00D911D912D913C91BF
:100FB000A4EAB1E04D915D916D917C910E94CF13B7
:100FC000A0EAB1E00D931D932D933D9390910404FD
:100FD0000E942413082F11272227332740E157E2CC
:100FE00060E070E00E945213A4EAB1E00D931D93FB
:100FF0002D933D93A0EAB1E00D911D912D913C916F
:10100000A4EAB1E04D915D916D917C910E94CF1366
:10101000A0EAB1E00D931D932D933D9390910304AD
:101020000E942413082F11272227332744E650E07B
:1010300060E070E00E945213A4EAB1E00D931D93AA
:101040002D933D93A0EAB1E00D911D912D913C911E
:10105000A4EAB1E04D915D916D917C910E94CF1316
:10106000A0EAB1E00D931D932D933D93A0EAB1E06A
:101070000D911D912D913C9140E05DE66CE77DE482
:101080000E94D413A0EAB1E00D931D932D933D93DC
:10109000A0EAB1E00D911D912D913C919091020437
:1010A0000E942413482F5527662777270E94CF13C5
:1010B000A0EAB1E00D931D932D933D938091A30180
:1010C0008093B9018091A2018093BA018091A1011E
:1010D0008093BB018091A0018093BC018AE0809342
:1010E000B4020C94DA09033011F00C944F0982E039
:1010F0008093B4019091FC030E942413A0EAB1E014
:101100008D9388278D938D938C939091FD030E94EE
:101110002413082F11272227332744E650E060E0EC
:1011200070E00E945213A4EAB1E00D931D932D9339
:101130003D93A0EAB1E00D911D912D913C91A4EA5F
:10114000B1E04D915D916D917C910E94CF13A0EA29
:10115000B1E00D931D932D933D939091FE030E945A
:101160002413082F11272227332740E157E260E09C
:1011700070E00E945213A4EAB1E00D931D932D93E9
:101180003D93A0EAB1E00D911D912D913C91A4EA0F
:10119000B1E04D915D916D917C910E94CF13A0EAD9
:1011A000B1E00D931D932D933D939091FF030E9409
:1011B0002413082F11272227332740E452E46FE03D
:1011C00070E00E945213A4EAB1E00D931D932D9399
:1011D0003D93A0EAB1E00D911D912D913C91A4EABF
:1011E000B1E04D915D916D917C910E94CF13A0EA89
:1011F000B1E00D931D932D933D93909100040E94B7
:101200002413082F11272227332740E051EE65EFE2
:1012100075E00E945213A4EAB1E00D931D932D9343
:101220003D93A0EAB1E00D911D912D913C91A4EA6E
:10123000B1E04D915D916D917C910E94CF13A0EA38
:10124000B1E00D931D932D933D93A0EAB1E00D9174
:101250001D912D913C9140E056EE68EE79E40E949C
:10126000D413A0EAB1E00D931D932D933D9382E03A
:101270008093B4028091A3018093B5018091A20173
:101280008093B6018091A1018093B7018091A00164
:101290008093B80185E08093B4020C94DA0904309D
:1012A00011F00C94740984E08093B4018091FC03E4
:1012B0008093B5010091B501053018F011F00C9440
:1012C00063090C9468098091B50181508093B50140
:1012D0000091FD0341E0041BA6EBB1E00C9384E018
:1012E0008093B4020C94DA090C3011F00C94DA09F2
:1012F0008BE08093B4019091FE030E942413082F89
:1013000011272227332740E157E260E070E00E9476
:101310005213A0EAB1E00D931D932D933D9390914C
:10132000FD030E942413082F112744E650E00E9479
:101330004813ACE9B1E00D931C93A0EAB1E00D9124
:101340001D912D913C91ACE9B1E04D915C916627E6
:1013500077270E94CF13A0EAB1E00D931D932D9340
:101360003D93A0EAB1E00D911D912D913C9190919A
:10137000FC030E942413482F5527662777270E94D5
:10138000CF13A0EAB1E00D931D932D933D93A0EAF6
:10139000B1E08D919C91AAE9B1E08D939C938091ED
:1013A0009B018093B50180919A018093B60183E0FF
:1013B0008093B40208950091B201053010F40C94AA
:1013C000ED0A8091B6028093CA038091B7028093A0
:1013D000C9038091B8028093C8038091B9028093B9
:1013E000C703A0E0B1E0E2E4F9E20E94C9130E9461
:1013F000751340E85DE16CE274E0A7ECB3E00D9199
:101400001D912D913C91041715072607370710F001
:101410000C94E40AA7ECB3E00D911D912D913C9141
:1014200040E056EE68EE79E40E94CF13A7ECB3E0FB
:101430000D931D932D933D93A7ECB3E00D911D915A
:101440002D913C9140E051EE65EF75E00E94C51290
:10145000A0EAB1E04D935D936D937D938091A001DF
:1014600080939401809194010E941D13A5E0B1E046
:101470008C93A7ECB3E00D911D912D913C9140E030
:1014800051EE65EF75E00E94C512A7ECB3E00D9335
:101490001D932D933D93A7ECB3E00D911D912D91DC
:1014A0003C9140E452E46FE070E00E94C512A0EA73
:1014B000B1E04D935D936D937D938091A0018093F6
:1014C0009401809194010E941D13A4E0B1E08C93DB
:1014D000A7ECB3E00D911D912D913C9140E452E4B5
:1014E0006FE070E00E94C512A7ECB3E00D931D936E
:1014F0002D933D93A7ECB3E00D911D912D913C915F
:1015000040E157E260E070E00E94C512A0EAB1E05D
:101510004D935D936D937D938091A0018093940191
:10152000809194010E941D13A3E0B1E08C93A7EC7D
:10153000B3E00D911D912D913C9140E157E260E0A7
:1015400070E00E94C512A7ECB3E00D931D932D939C
:101550003D93A7ECB3E00D911C9144E650E00E944E
:101560006C12AAE9B1E04D935C9380919A0180934B
:101570009401809194010E941D13A2E0B1E08C932C
:10158000A7ECB3E00D911D912D913C9144E650E004
:1015900060E070E00E94C512A7ECB3E00D931D93CC
:1015A0002D933D938091C703809394018091940182
:1015B0000E941D13A1E0B1E08C9386E08093C603E6
:1015C0000E9495060C94EB0A84E08093BA03809104
:1015D000B4038093BB030E9459030895A0E0B1E0D7
:1015E000EAE4F9E20E94C9130E94751381E0809336
:1015F000C6030E94950608950091B201043010F4CC
:101600000C94370B0091B702053081E008F080E0C0
:101610008F930091B702023081E008F080E09F9143
:101620008923882311F40C942E0B86E0809300010B
:101630008091B6028093940180919401809301017E
:101640000091B70241E0040FA2E0B1E00C9383E007
:101650008093C6030E9495060C94370B84E0809318
:10166000BA038091B4038093BB030E945903089589
:10167000A0E0B1E0ECE4F9E20E94C9130E94751306
:1016800081E08093C6030E949506089582E0A0E061
:10169000B1E08C9381E08093C6030E949506089583
:1016A000A0E0B1E0EEE4F9E20E94C9130E947513D4
:1016B00081E08093C6030E9495060895A0E0B1E002
:1016C000E0E5F9E20E94C9130E94751381E080935E
:1016D000C6030E9495060895A0E0B1E0E2E5F9E2B4
:1016E0000E94C9130E94751381E08093C6030E9473
:1016F00095060895A0E0B1E0E4E5F9E20E94C9137F
:101700000E94751381E08093C6030E949506089598
:101710000091B201043010F40C94360CA6EBB2E048
:101720000D91112744E650E00E944813AAE9B1E068
:101730000D931C93A7EBB2E00D91112740E051E00F
:101740000E944813ACE9B1E00D931C93AAE9B1E003
:101750000D911C91ACE9B1E04D915C91040F151F06
:10176000AAE9B1E00D931C93AAE9B1E00D911C9197
:10177000A8EBB2E04D915527040F151FAAE9B1E07F
:101780000D931C9340EA56E861E070E0AAE9B1E0ED
:101790000D911C91222733270E94D9130CF402C00B
:1017A0000C942D0C8DE080930001AAE9B1E00D911D
:1017B0001C9140E157E20E946C12ACE9B1E04D93FC
:1017C0005C9380919C0180939401809194010E948C
:1017D0001D13A3E0B1E08C93AAE9B1E00D911C9137
:1017E00040E157E20E946C12AAE9B1E00D931C930C
:1017F000AAE9B1E00D911C9144E650E00E946C1200
:10180000ACE9B1E04D935C9380919C01809394018D
:10181000809194010E941D13A2E0B1E08C93AAE98B
:10182000B1E00D911C9144E650E00E946C12AAE9CF
:10183000B1E00D931C9380919A0180939401809163
:1018400094010E941D13A1E0B1E08C9384E0809389
:10185000C6030E9495060C94360C84E08093BA036C
:101860008091B4038093BB030E9459030895A0E0C4
:10187000B1E0E6E5F9E20E94C9130E94751381E028
:101880008093C6030E94950608950091B5020A3020
:1018900010F00C94720CE0E7FCE0EF93FF93EAE5A4
:1018A000FCE0A5EBB2E08C919927880F991FE80F17
:1018B000F91F09940C9400000C94DB090C94EE0AB7
:1018C0000C94FC0A0C94380B0C94460B0C94500BA3
:1018D0000C945E0B0C946C0B0C947A0B0C94880B90
:1018E0000C9491100091B502003F11F00C94D00CB3
:1018F0000091B201033010F40C94CE0C8091B6022A
:101900008093B0018091B7028093B1010091B00142
:10191000013181E008F080E08F930091B101013145
:1019200081E008F080E09F918923882311F40C94D2
:10193000C50C0091B101003018F011F00C94A20C0C
:101940000C94C30C81E08093BE0384E08093B301C8
:101950000E94A2030091B503013011F00C94C30C56
:101960000E9476030091B101003018F011F00C9440
:10197000BB0C0C94C10C0E94A2030E9476030C9431
:10198000B20C0E944C030C94CC0C84E08093BA03FC
:101990008091B4038093BB030E9459030C9491106F
:1019A0000C3F11F00C94820E81E08093BE039EE107
:1019B00080E0A4EBB1E00E943F128CEF8093B40171
:1019C00082E080939401E4EBF3E0A0E0B1E00E94B8
:1019D000FC13A0E0B1E00E948814A7E9B1E08C9369
:1019E00081E0809395014091970100919501041742
:1019F00018F011F00C941B0DA5E9B1E0AD90BB24DB
:101A0000AFEFB0E0AA0DBB1D8C91A4E9B1E0AD90A1
:101A1000BB24A3EBB1E0AA0DBB1D8C93A4E9B1E0FC
:101A20008C918F5F8C93A5E9B1E08C918F5F8C9343
:101A300010F40C94F30C80E2A4E9B1E0AD90BB2467
:101A4000A3EBB1E0AA0DBB1D8C930091BA0300304B
:101A500011F00C94350DA0E0B1E0E8E5F9E20E9448
:101A6000C9130E9475130C94010E013011F00C94EF
:101A7000430DA0E0B1E0EEE6F9E20E94C9130E9436
:101A800075130C94010E023011F00C94510DA0E06E
:101A9000B1E0ECE7F9E20E94C9130E9475130C94BF
:101AA000010E033011F00C945F0DA0E0B1E0E0E90D
:101AB000F9E20E94C9130E9475130C94010E0430C0
:101AC00011F00C946D0DA0E0B1E0E6EAF9E20E949D
:101AD000C9130E9475130C94010E053011F00C947B
:101AE0007B0DA0E0B1E0EAEBF9E20E94C9130E948D
:101AF00075130C94010E063011F00C94890DA0E0C2
:101B0000B1E0E0EDF9E20E94C9130E9475130C9454
:101B1000010E073011F00C94970DA0E0B1E0ECEE4F
:101B2000F9E20E94C9130E9475130C94010E08304B
:101B300011F00C94A50DA0E0B1E0E4E0FAE20E94FF
:101B4000C9130E9475130C94010E093011F00C9406
:101B5000B30DA0E0B1E0E2E2FAE20E94C9130E94F4
:101B600075130C94010E0A3011F00C94C10DA0E015
:101B7000B1E0E4E3FAE20E94C9130E9475130C94E9
:101B8000010E0B3011F00C94CF0DA0E0B1E0E0E4B9
:101B9000FAE20E94C9130E9475130C94010E0C30D6
:101BA00011F00C94DD0DA0E0B1E0E4E5FAE20E9452
:101BB000C9130E9475130C94010E0D3011F00C9492
:101BC000EB0DA0E0B1E0E6E6FAE20E94C9130E9444
:101BD00075130C94010E0F3F11F00C94F90DA0E059
:101BE000B1E0EEE7FAE20E94C9130E9475130C946B
:101BF000010EA0E0B1E0ECE8FAE20E94C9130E94F5
:101C00007513A0E0B1E00E948814A7E9B1E08C93BD
:101C100081E080939501409197010091950104170F
:101C200018F011F00C94330EA5E9B1E0AD90BB248F
:101C3000AFEFB0E0AA0DBB1D8C91A4E9B1E0AD906F
:101C4000BB24A3EBB1E0AA0DBB1D8C93A4E9B1E0CA
:101C50008C918F5F8C93A5E9B1E08C918F5F8C9311
:101C600010F40C940B0EEBEBF3E0A0E0B1E00E945B
:101C7000FC13A0E0B1E00E948814A7E9B1E08C93C6
:101C800081E080939501409197010091950104179F
:101C900018F011F00C946B0EA5E9B1E0AD90BB24E7
:101CA000AFEFB0E0AA0DBB1D8C91A4E9B1E0AD90FF
:101CB000BB24A3EBB1E0AA0DBB1D8C93A4E9B1E05A
:101CC0008C918F5F8C93A5E9B1E08C918F5F8C93A1
:101CD00010F40C94430E0091940143E0041BA5EB17
:101CE000B1E00C93809194018093B4020091B5030C
:101CF000013011F00C947E0E0E9476030E9459036D
:101D00000C9491100D3F11F00C949E0E81E0809385
:101D1000BE038DEF8093B40184E08093B50183E02E
:101D20008093B4020091B503013011F00C949A0E27
:101D30000E9476030E9459030C9491100E3F11F0FB
:101D40000C94BA0F0091B201023010F40C94B80F49
:101D50000091B602003011F00C940E0F0091B20108
:101D6000033010F40C940C0F0091B702003011F006
:101D70000C94BE0E0E9459030C940C0F0091B702F4
:101D800043E0040FA4E9B1E00C9340919401009169
:101D9000B201041710F40C940C0F94E180E0ABE74F
:101DA000B1E00E943F1200919401073118F011F048
:101DB0000C94DC0E0C94DF0E87E18093940184E098
:101DC000809395014091940100919501041718F0BA
:101DD00011F00C94050FA5E9B1E0AD90BB24A4EB84
:101DE000B2E0AA0DBB1D8C91A5E9B1E0AD90BB247A
:101DF000A7E7B1E0AA0DBB1D8C93A5E9B1E08C91DA
:101E00008F5F8C9310F40C94E20EE1E0F0E0ABE70E
:101E1000B1E07BE70E9459140C94B80F013011F027
:101E20000C94270F0091B201033010F40C94250F8D
:101E30008091B70280939001E6E1F0E0A0E9B1E083
:101E40007BE70E9448140E9459030C94B80F02309B
:101E500011F00C944F0F0091B201033010F40C9468
:101E60004D0F0091B702023010F00C94440F809196
:101E7000B70280939201E8E1F0E0A2E9B1E07BE7EC
:101E80000E9448140C944B0F84E08093BA03809115
:101E9000B4038093BB030E9459030C94B80F033022
:101EA00011F00C94830F0091B201033010F40C94E4
:101EB000810F8091B70280939501009195010038C0
:101EC00010F00C94780FA5E9B1E00C9142E0049F6A
:101ED0000C928091950180939101E7E1F0E0A1E9F6
:101EE000B1E07BE70E9448140E94D7040C947F0F56
:101EF00084E08093BA038091B4038093BB030E9473
:101F000059030C94B80F043011F00C94AF0F0091EA
:101F1000B201033010F40C94AD0F8091B70280939E
:101F2000950100919501023010F00C94A40F80915E
:101F3000950180939301E9E1F0E0A3E9B1E07BE74B
:101F40000E9448140C94AB0F84E08093BA038091F4
:101F5000B4038093BB030E9459030C94B80F84E030
:101F60008093BA038091B4038093BB030E9459030A
:101F70000C9491100F3F11F00C948F100091B2014E
:101F8000023010F40C948D1081E08093BE038FEF2B
:101F90008093B4018091B6028093B50180E0809374
:101FA000B4020091B602003011F00C941110ABE7AE
:101FB000B1E00E948814A6E9B1E08C93809196016B
:101FC0008093B60184E08093B40281E08093950110
:101FD0004091960100919501041718F011F00C94AE
:101FE0000F10A5E9B1E0AD90BB24AAE7B1E0AA0DBE
:101FF000BB1D8C91A4EBB2E0AD90BB24A3EBB1E090
:10200000AA0DBB1D8C93A4EBB2E08C918F5F8C93D7
:10201000A5E9B1E08C918F5F8C930C94E80F0C9440
:102020007A10013011F00C941E1080919001809371
:10203000B60184E08093B4020C947A10023011F05F
:102040000C942B10809192018093B60184E08093D0
:10205000B4020C947A10033011F00C9440100091EB
:10206000910142E00E947814A5E9B1E00C938091BF
:1020700095018093B60184E08093B4020C947A10A9
:10208000043011F00C944D10809193018093B601AF
:1020900084E08093B4020C947A10053011F00C9413
:1020A000591080E08093B60184E08093B4020C94D0
:1020B0007A10063011F00C94711083E08093B60111
:1020C00088E3A7EBB1E08C938EE4A8EBB1E08C93AE
:1020D00081E3A9EBB1E08C9387E08093B4020C9488
:1020E0007A1084E08093BA038091B4038093BB0399
:1020F0000E944C030091B402003018F011F00C94CF
:1021000083100C948B100091B503013011F00C94E6
:102110008B100E9476030E9459030C9491100E9428
:1021200059030895303B6D3B444B3152493B494381
:102130003132373120496E746572666163653B5692
:1021400030312E323B313B3137353B313B31373B40
:10215000312D3100313B6F702C66726571656E6395
:10216000793B313B36303030303030302C7B3132BF
:10217000343030303030303020746F2031333939E2
:102180003939393939307D3B6C696E3B487A0032D8
:102190003B61702C61733100333B6F732C6D6F6446
:1021A000653B323B302C4C53423B312C5553423B28
:1021B000312C414D3B332C43573B342C5254545912
:1021C0003B352C464D3B302C46494C313B312C465F
:1021D000494C3200342C61733300353B61702C6202
:1021E000616E642065646765206672657175656EF1
:1021F000636965733B313B312C7B31323430303095
:10220000303030307D2C6C6F773B6C696E3B487A98
:102210003B312C7B313330303030303030307D2C1E
:10222000686967683B6C696E3B2A3130487A0036D2
:102230003B6F752C7365742076666F206D6F6465D7
:102240003B313B302C69646C653B312C56464F204A
:102250006D6F646500373B6F752C736574206D6519
:102260006D6F7279206D6F64653B313B302E696410
:102270006C653B312C6D656D6F7279206D6F646597
:1022800000383B6F752C636F70792076666F206124
:102290006E64206D6F646520746F206D656D6F7264
:1022A000793B313B302C69646C653B312C636F703A
:1022B0007920746F206D656D6F727900393B6F7591
:1022C0002C636F7079206D656D6F727920746F204B
:1022D00076666F20616E64206D6F64653B313B30C4
:1022E0002C69646C653B312C636F707920746F20AE
:1022F00076666F20616E64206D6F64650031303BDF
:102300006F702C7772697465206F66667365743BB5
:10231000313B3630303030303B6C696E3B2A3130E7
:1023200030487A0031313B61702C617331300032BA
:1023300034303B6C6E2C414E4E4F554E43454D450F
:102340004E54533B3137353B3137003235323B61E8
:10235000612C4C415354204552524F523B32302C49
:102360006C6173745F6572726F72003235333B61FA
:10237000612C4D594320494E464F3B622C414354FA
:10238000495645003235343B6B612C494E44495621
:10239000494455414C495A4154494F4E3B32302CE7
:1023A0004E414D452C44657669636520313B622C76
:1023B0004E554D4245522C313B612C4932432C3114
:1023C0003B622C4144524553532C33312C7B3020FB
:1023D000746F203132377D3B612C53455249414C5B
:1023E0002C3100323535203B6C612C494E44495626
:1023F000494455414C495A4154494F4E3B32302C87
:102400004E414D452C44657669636520313B622C15
:102410004E554D4245522C313B612C4932432C31B3
:102420003B622C4144524553532C33312C7B30209A
:10243000746F203132377D3B612C53455249414CFA
:102440002C313B622C42415544524154452C302C96
:102450007B31393230307D3B332C4E554D42455225
:102460005F4F465F424954532C386E310000ED9166
:10247000FC91EF5FFF4FFC93EE93089580E2903064
:1024800019F08D939A95E9F79C93089509D00E94CD
:10249000481300FC10D0089503D01ED001F8F9CFE6
:1024A0000024E89457FF02C009D0689400F80BD0CC
:1024B00010F80124089502D009D008955095409550
:1024C0004F5F5F4F0895E89417FF089500951095AA
:1024D0000F5F1F4F68940895352F242FE894452BE4
:1024E00011F468940895512F402F0027112780E19F
:1024F000440F551F001F111F021B130B416018F4DE
:10250000020F131F4E7F8A9599F708950E94B11309
:10251000802D11F00AD0FACF08958D9106D03A950A
:10252000E1F708958DE001D08AE00090C00005FE3B
:10253000FCCF8093C600089581E00090C80007FE9C
:10254000882708950090C80007FEFCCF8091CE0038
:1025500008958D9103D03A95E1F708950090C80051
:1025600005FEFCCF8093CE00089588EE93E07CD0EA
:102570003197D9F7089500FC05D0089530D005D0E3
:1025800001F8F9CF37D03FD00895842F952FA62F8B
:10259000B72FE894452B462B472B11F468940895E8
:1025A000402F512F622F732F002711272227332707
:1025B000F0E2440F551F661F771F001F111F221FD7
:1025C000331F081B190B2A0B3B0B416028F4080F23
:1025D000191F2A1F3B1F4E7FFA9559F708950024B3
:1025E000E89477FF02C006D0689400F809D010F88C
:1025F0000124089512D04F5F5F4F6F4F7F4F0895B2
:10260000E89437FF089500951095209530950F5F59
:102610001F4F2F4F3F4F68940895409550956095F8
:1026200070950895982F82958F70805D8D939F701F
:10263000905D9D9388278C9308954AE0082F0E940F
:1026400078140295802B0895892F8F70905110F087
:10265000865FFCCF08953197F1F70895689462F88A
:102660000895E89462F80895EF93FF93EE27E82B1E
:10267000E92B31F0E8E8F3E13197F1F70197D1F771
:10268000FF91EF9108950191119121913081089569
:102690000F92B801469F8001479F100D569F100D65
:1026A0000F9008950F921F922F92C801D901489F51
:1026B00080014A9F90014B9F202C499F100D211DA6
:1026C000321D5A9F202C589F100D211D321D599FDD
:1026D000200D311D689F200D311D699F300D789FA1
:1026E000300D2F901F900F9008950E94B1130D92FE
:1026F0000020D9F7089599910027A90FB01F1197CD
:10270000492F4A95FBB65E2F6F2FE894112743950A
:10271000203019F0D895802D01C080818823E1F008
:102720007C917723C9F0781759F40EF0042F139594
:1027300068941196319658F78BB783958BBFE7CF86
:10274000112321F0411BA11B1127B10BE894E52FA8
:10275000F62FFBBE1196DBCF882311F000270895DA
:102760000895D895319628F48F938BB783958BBFB6
:102770008F91002008950196019721F00E94B113D6
:10278000E9F7FACF08950F9301E00BBF0F918894FA
:1027900008950F930027F9CF0F9302E0F6CF040FAF
:1027A000151F261F371F0895041B150B260B370B0B
:1027B000089504171507260737070895000F111FFE
:1027C000221F331F089500951095209530950F5FB7
:1027D0001F4F2F4F3F4F0895019110810FC00E944E
:1027E00043130EC00E94431310C00191108117FFC4
:1027F00005C03FEF2FEF04C00081112722273327A8
:1028000037FF03C0E0DF8DE28D93CF92DF92EF922E
:10281000AA24BB24CC24DD24EE2440E2EAE0FF27F6
:1028200055E093E38081890F87FD9F7083FD907F42
:10283000891B81935A95A9F7C1DFAA1CBB1CCC1C2C
:10284000DD1CEE1C4A9551F7E894EFE0FF278291DA
:102850000CD0EB30E0F71EF068948A2D0AD0882760
:102860008D93EF90DF90CF900895982F829501D0AF
:10287000892F8F70805D26F0803309F40895689465
:102880008D930895F999FECFE1BDF2BD319608957B
:1028900091E001C092E07B3751F47FB7F894F2DF0A
:1028A0008D9180BDFA9AF99A9A95C9F77FBF7727DB
:1028B0000895E8DF8D917B3729F480BDFA9AF99A63
:1028C0008823B9F77727089591E001C092E0DADF15
:1028D000F89A80B58D939A95D1F70895D3DFF89A39
:1028E00080B58D93882319F09A95C1F79D9308952B
:1028F000FF93881BF9E0001FFA9511F4FF910895EA
:10290000881F841B18F4840F8894F5CF0894F3CFA4
:102910008FEF83959D919923E1F708954F4500002E
:1029200044657669636520310000FEFE00E000002A
:10293000FEFEE0000000FEFEE000FB00FEFEE00008
:10294000FA0030303030303000000300040007005F
:10295000080009000A000C003A20636F6D6D616E7B
:1029600064206E6F7420666F756E643A20003A20A2
:10297000493243206572726F723A20003A207761C3
:10298000746368646F672072657365743A20000031
:102990003A20636F6D6D616E642077617463686463
:1029A0006F673A2000003A20706172616D6574654E
:1029B00072206572726F723A20003A207478207427
:1029C000696D6520746F6F206C6F6E673A20000030
:1029D0003A206E6F742076616C6964206174207493
:1029E0006861742074696D653A2000003A2069328C
:1029F000635F627566666572206F766572666C6F7E
:102A0000773A20003A20493263206E6F7420726555
:102A100061647920746F20726563656976653A2018
:102A200000003A20434956206F766572666C6F77D6
:102A30003A2000003A20434956204E4F4B3A20009E
:102A40003A206F7468657220434956206572726F30
:102A5000723A20003A2043495620776174636864D3
:102A60006F673A2000003A204E6F2076616C6964EF
:102A700020434956206865616465723A20003A2017
:102A80006E6F206572726F723A2000003A206F7488
:0C2A9000686572206572726F723A200057
:00000001FF
