:100000000C94460018950000189500001895000003
:10001000189500001895000018950000189500002C
:10002000189500001895000018950000189500001C
:10003000189500001895000018950000189500000C
:1000400018950000189500001895000018950000FC
:100050000C941D04189500001895000018950000D8
:1000600018950000189500000C949604189500004F
:1000700018950000189500001895000018950000CC
:100080001895000018950000189500008FEF8DBF9F
:10009000C8EDE0EC4E2E80E48EBFD0E4F0E45F2E9D
:1000A000A89584B7082E877F84BF88E1992780931D
:1000B000600090936000EEEFFFE3A0E0B1E08827DE
:1000C0008D933197E9F780E48093C40080E08093BA
:1000D000C50088E18093C1006624E0E0FF2700812D
:1000E000A8E3B1E00C93A8E3B1E00C9103FB16F098
:1000F0000C94830082E08093790380917303809352
:100100007A030C9486008FEF8093790322982A9AC1
:1001100074B7777F74BF8FE197E08093600090930E
:10012000600078947091C10070687093C100709104
:10013000BC0071607093BC0080E08093800085E01B
:100140008093810080918100887F80938100E1E02D
:10015000F0E00E942B131A990C94B0000E94070241
:10016000E1E0F0E0A0E1B0E00E940814053011F4F5
:100170000C94BC000E9407020E945E028091600005
:10018000886080936000ABE6B1E08C918F5F8C93C8
:1001900000916B010F3F11F00C945C01AAE6B1E0F5
:1001A0008C918F5F8C9300916A010A3511F00C9449
:1001B000020100917D03003018F011F00C94E20070
:1001C0000C940001ADE7B3E08C918F5F8C930091AC
:1001D0007D030C3318F011F00C94F0000C94000126
:1001E00081E08093720281E08093730280E08093CB
:1001F0007D0385E0809379038091730380937A0374
:100200000C945C01043B11F00C94310100915001FD
:10021000013081E009F080E08F93A6E2B0E00C911C
:1002200004FB81E00EF480E09F918923882311F480
:100230000C942C01ACE6B1E08C918F5F8C93009113
:100240006C01053018F011F00C9428010C942A016F
:100250000E947E040C942F0180E080936C010C942A
:100260005C010F3F11F00C945C01ABE7B3E00D9122
:100270001C91003050E0150718F011F00C94420169
:100280000C944601ABE7B3E00E941813ABE7B3E070
:100290000D911C910C3350E0150718F011F00C94DF
:1002A00053010C945C0183E0809379038091730384
:1002B00080937A030E94C102A4E8B0E00D911C91E2
:1002C000013A57E0150718F011F00C9469010C94ED
:1002D000850180E090E09093850080938400A1E800
:1002E000B3E00E941813AFE7B3E04D915C91A1E831
:1002F000B3E00D911C910417150718F011F00C9440
:1003000083010C9485010E9475070E946C06009180
:100310007503003018F011F00C9490010C94040255
:1003200080E08093750300917302013018F011F0A2
:100330000C949C010C94A80180E08093710186E0EC
:10034000809379038091730380937A030C94040261
:10035000ABE7B3E00D911C91003050E0150711F0B0
:100360000C94B601ABE7B3E00E941813009174023D
:100370000E3F11F00C94C4018091710180937001C3
:100380000E94AE0F0C94040200915101013081E0F3
:1003900009F080E08F9300917403013081E009F04F
:1003A00080E09F918923882311F40C94DF018091D0
:1003B0007101809370010E94AE0F0C9404020091B1
:1003C0005001013081E009F080E08F9300917403C7
:1003D000023081E009F080E09F918923882311F4A5
:1003E0000C94FA0180917101809370010E94AE0F0C
:1003F0000C94040280E08093710186E0809379037D
:100400008091730380937A03A8950C94BE00E1E079
:10041000F0E00E942B13E7E1F0E0A0E1BB2781E0D0
:100420008C937BE70E94E813A42DB52DECE8F8E24D
:100430000E946C130E944E13E2E0F0E0D2010E9491
:10044000FD13E8E1F0E0A0E1BB2788E18C937BE7B6
:100450000E94E813E9E1F0E0A0E1BB2781E08C9382
:100460007BE70E94E813EAE1F0E0A0E1BB2781E02E
:100470008C937BE70E94E81380E080939003E6E290
:10048000F0E0A0E9B3E07BE70E94E813A6E8B3E060
:10049000E6E9F8E20E946C130E944E13ECE1F0E0F2
:1004A000A6E8B3E00E94FD13E1E0F0E0A0E1BB2785
:1004B00085E08C937BE70E94E8130895E7E1F0E084
:1004C000AEE4B1E00E940814E2E0F0E0A9E3B1E09C
:1004D00094E10E941214E8E1F0E0AFE4B1E00E9480
:1004E0000814E9E1F0E0A0E5B1E00E940814EAE1B7
:1004F000F0E0A1E5B1E00E94081481E0809373036D
:1005000080E080937A0380E08093720181E08093A1
:1005100074030E94C10281E08093720281E08093A3
:10052000730280E080937D030E947E0480E08093CC
:100530006A0180E080936B010E947507E6E2F0E0BB
:10054000A0E9B3E00E940814ECE1F0E0A6E8B3E013
:1005500099E00E94121480E090E0909385008093CF
:10056000840080E090E0A1E8B3E08D939C9380E06C
:100570008093A90380E08093910380E08093AA0395
:10058000089580E08093700180E08093710181E0A4
:100590008093720280E090E0ABE7B3E08D939C9390
:1005A000A3E7B3E08C918F5F8C9340917A03009125
:1005B0007303041711F00C94E30280E080937A0334
:1005C0008FEF809379030895809173028150809317
:1005D000730281E0809353014091730200915301B3
:1005E000041718F011F00C940D03A3E5B1E0AD90E1
:1005F000BB24A2E7B1E0AA0DBB1D8C9180935401EE
:1006000031E0A4E5B1E00E941F13A3E5B1E08C91B5
:100610008F5F8C9310F40C94EC0281E08093720253
:1006200081E08093730280E080937D030895E6E982
:10063000F0E20E946C13AEE6B1E08C9199270E9423
:100640005E13A3E7B1E00E944E13A3E7B1E00E945E
:100650002C14A4E5B1E08C9300917201013011F0EB
:100660000C9471030091540141E0040FA5E5B1E041
:100670000C9380915401809353014091530101E008
:10068000041718F011F00C946403A3E5B1E0AD90E9
:10069000BB24A2E7B1E0AA0DBB1D8C91A5E5B1E09A
:1006A000AD90BB24A2E7B1E0AA0DBB1D8C93809155
:1006B0005501815080935501809153018150809361
:1006C000530110F00C943D03809154018093730109
:1006D0000091540142E0040FA3E7B2E00C930C94A4
:1006E0000604023011F00C94B7030091540142E06B
:1006F000040FA5E5B1E00C93809154018093530160
:100700004091530101E0041718F011F00C94A70375
:10071000A3E5B1E0AD90BB24A2E7B1E0AA0DBB1DFB
:100720008C91A5E5B1E0AD90BB24A2E7B1E0AA0DA4
:10073000BB1D8C9380915501815080935501809110
:10074000530181508093530110F00C94800380E09A
:10075000809373018091540180937401009154013E
:1007600043E0040FA3E7B2E00C930C9406040430BA
:1007700011F00C9406040091540144E0040FA5E527
:10078000B1E00C9380915401809353014091530147
:1007900001E0041718F011F00C94ED03A3E5B1E0AB
:1007A000AD90BB24A2E7B1E0AA0DBB1D8C91A5E5DD
:1007B000B1E0AD90BB24A2E7B1E0AA0DBB1D8C93C4
:1007C0008091550181508093550180915301815052
:1007D0008093530110F00C94C60380EF8093730153
:1007E00080916E018093740180916F0180937501F7
:1007F00080915401809376010091540145E0040FEB
:10080000A3E7B2E00C9381E080937201AEE6B1E021
:100810008C918F5F8C9300916E01053110F40C94D4
:10082000140480E080936E0180916F018150809369
:100830006F0181E08093720208950F921F922F92B0
:100840003F924F925F927F92AF92BF92CF92DF9290
:10085000EF92FF920F931F932F933F934F935F93CA
:100860006F937F938F939F93AF93BF93CF93DF93B8
:10087000EF93FF938FB78F938BB78F9388278BBF9F
:10088000009171010A3F10F00C944B04A1E7B1E014
:100890008C918F5F8C93A1E7B1E0AD90BB24A3E76F
:1008A000B2E0AA0DBB1D8091C6008C9381E08093BD
:1008B000750381E0809374038F918BBF8F918FBFFD
:1008C000FF91EF91DF91CF91BF91AF919F918F9168
:1008D0007F916F915F914F913F912F911F910F9158
:1008E000FF90EF90DF90CF90BF90AF907F905F90A0
:1008F0004F903F902F901F900F90189580E080931D
:100900006C0170E07093B90070E07093B90071E110
:100910007093B80070E87093BB00AFE4B1E08C91C5
:100920008093BA0075E47093BC0008950F921F92F3
:100930002F923F924F925F927F92AF92BF920F930E
:100940001F932F933F934F935F936F937F938F9357
:100950009F93AF93BF93CF93DF93EF93FF938FB7A3
:100960008F938BB78F9388278BBF0091B9004CEF83
:100970000423A2E5B1E00C9300915201003611F07E
:100980000C94C70475EC7093BC000C9432060836C6
:1009900011F00C94D00475EC7093BC000C943206EA
:1009A000003711F00C94D90475EC7093BC000C94D2
:1009B0003206083711F00C94E20475EC7093BC0019
:1009C0000C943206003811F00C9407050091710167
:1009D0000A3F10F00C94F104A1E7B1E08C918F5F15
:1009E0008C93A1E7B1E0AD90BB24A3E7B2E0AA0DE0
:1009F000BB1D8091BB008C9382E08093740381E0E7
:100A00008093750375EC7093BC000C943206083823
:100A100011F00C942C05009171010A3F10F00C9418
:100A20001605A1E7B1E08C918F5F8C93A1E7B1E04F
:100A3000AD90BB24A3E7B2E0AA0DBB1D8091BB0023
:100A40008C9382E08093740381E08093750375EC4E
:100A50007093BC000C943206003911F00C945105CF
:100A6000009171010A3F10F00C943B05A1E7B1E041
:100A70008C918F5F8C93A1E7B1E0AD90BB24A3E78D
:100A8000B2E0AA0DBB1D8091BB008C9382E08093E5
:100A9000740381E08093750375EC7093BC000C9433
:100AA0003206083911F00C947605009171010A3F65
:100AB00010F00C946005A1E7B1E08C918F5F8C93EE
:100AC000A1E7B1E0AD90BB24A3E7B2E0AA0DBB1D46
:100AD0008091BB008C9382E08093740381E08093CB
:100AE000750375EC7093BC000C943206003A11F05B
:100AF0000C947F0575EC7093BC000C943206083A98
:100B000011F00C94B2054091730200917202041727
:100B100081E008F080E08F9300915001013081E086
:100B200009F080E09F918923882311F40C94AA0591
:100B3000A2E7B2E0AD90BB24A2E7B1E0AA0DBB1DD5
:100B40008C918093BB00A2E7B2E08C918F5F8C9375
:100B50000C94AD0570E87093BB0075EC7093BC000D
:100B60000C943206003B11F00C94E50540917302A1
:100B700000917202041781E008F080E08F930091E9
:100B80005001013081E009F080E09F9189238823A2
:100B900011F40C94DD05A2E7B2E0AD90BB24A2E70E
:100BA000B1E0AA0DBB1D8C918093BB00A2E7B2E01F
:100BB0008C918F5F8C930C94E00570E87093BB0070
:100BC00075EC7093BC000C943206083B11F00C9449
:100BD00018064091730200917202041781E008F038
:100BE00080E08F9300915001013081E009F080E0B6
:100BF0009F918923882311F40C941006A2E7B2E098
:100C0000AD90BB24A2E7B1E0AA0DBB1D8C918093EF
:100C1000BB00A2E7B2E08C918F5F8C930C9413061B
:100C200070E87093BB0075EC7093BC000C943206B6
:100C3000003C11F00C94240670E87093BB0075EC36
:100C40007093BC000C943206083C11F00C943006F2
:100C500070E87093BB0075EC7093BC000C94320686
:100C60000E947E044091730200917202041710F4F6
:100C70000C944E0681E08093720281E080937302AF
:100C800080E080937D0300916F01003018F011F037
:100C90000C944C060C944E060E9417038F918BBF48
:100CA0008F918FBFFF91EF91DF91CF91BF91AF9166
:100CB0009F918F917F916F915F914F913F912F9174
:100CC0001F910F91BF90AF907F905F904F903F909A
:100CD0002F901F900F9018950091AA03003011F0EB
:100CE0000C94D10600919103003011F00C947B0616
:100CF00000000C94D106013011F00C948206000023
:100D00000C94D106023011F00C9492060E947507E3
:100D100081E08093A8030E94D20683E08093910330
:100D20000C94D106033011F00C94A9064091850370
:100D30000091A803041718F011F00C94A5060E9466
:100D400075070E94D2060C94A7060E9475070C94A2
:100D5000D106043011F00C94B00600000C94D106BA
:100D6000053011F00C94CB068091840380935201DE
:100D70000E94950781E090E0AFE7B3E08D939C93EC
:100D800086E08093910381E08093AA0385E08093BD
:100D900081000C94D106063011F00C94D1060E940B
:100DA0007507089581E090E0AFE7B3E08D939C93E1
:100DB000A8EAB3E0AD90BB24ACE9B3E0AA0DBB1D3B
:100DC0008C918093830380E0809384030E94F406D7
:100DD000A8EAB3E08C918F5F8C9381E08093AA03A3
:100DE00085E080938100089500918303013011F024
:100DF0000C94FE063F9A47980C943407023011F089
:100E00000C9406073E9A46980C943407033011F070
:100E10000C940E073D9A46980C943407043011F058
:100E20000C9416073C9A44980C943407053011F042
:100E30000C941E073B9A43980C943407063011F02B
:100E40000C9426073A9A42980C943407073011F014
:100E50000C942E07579A5F980C943407083011F0C1
:100E60000C943407569A5E9800918403013011F077
:100E70000C943E073F9A47980C947407023011F087
:100E80000C9446073E9A46980C947407033011F070
:100E90000C944E073D9A46980C947407043011F058
:100EA0000C9456073C9A44980C947407053011F042
:100EB0000C945E073B9A43980C947407063011F02B
:100EC0000C9466073A9A42980C947407073011F014
:100ED0000C946E07579A5F980C947407083011F0C1
:100EE0000C947407569A5E98089580918100887FCB
:100EF0008093810080E090E090938500809384004F
:100F000080E090E0A1E8B3E08D939C9380E0809333
:100F1000AA0380E0809391033F983E983D983C98C7
:100F20003B983A985798569808950091520101308D
:100F300011F00C949E073F980C94CD07023011F0ED
:100F40000C94A5073E980C94CD07033011F00C9437
:100F5000AC073D980C94CD07043011F00C94B30706
:100F60003C980C94CD07053011F00C94BA073B98CF
:100F70000C94CD07063011F00C94C1073A980C94EC
:100F8000CD07073011F00C94C80757980C94CD0783
:100F9000083011F00C94CD07569808950091700117
:100FA000023010F40C94310800917502023010F0F8
:100FB0000C94280800919103003011F00C941F0844
:100FC00000917502003011F00C94FA0780E08093D4
:100FD0009003E6E2F0E0A0E1BB2780E08C937BE7A2
:100FE0000E94E81381E08093830384E0809384036C
:100FF0000C940C0881E080939003E6E2F0E0A0E11D
:10100000BB2781E08C937BE70E94E81382E080930A
:10101000830383E0809384038CE390E0AFE7B3E045
:101020008D939C9381E08093910381E08093AA0348
:101030000E94F40685E0809381000C94260886E0E7
:10104000809379038091730380937A030C942F0823
:1010500084E0809379038091730380937A030E94E4
:10106000C102089581E080937D0382E08093730143
:10107000809190038093740183E0809373020091C8
:101080007403013011F00C9447080E94E4020E949E
:10109000C102089500917001033010F40C94BA0855
:1010A00000919003003011F00C94B108009175028A
:1010B000043010F00C94A80800917602023010F071
:1010C0000C949F0800919103003011F00C94960845
:1010D0000091750241E0040FA3E8B3E00C93A3E88C
:1010E000B3E00C9142E0049F0C9200917602003034
:1010F00011F00C94800880918303815080938303C6
:1011000080E08093840381E090E0AFE7B3E08D93CB
:101110009C9381E08093910381E08093AA030E94D5
:10112000F40685E0809381000C949D0886E080930E
:1011300079038091730380937A030C94A60884E06A
:10114000809379038091730380937A030C94AF08A2
:1011500084E0809379038091730380937A030C94E5
:10116000B80880E0809379038091730380937A03B9
:101170000E94C102089500917001033010F40C9494
:101180000B0900919003003011F00C9402090091BA
:101190007502083010F00C94F9080091750241E0D6
:1011A000041BA3E8B3E00C9380E0809384030091D8
:1011B0009103003011F00C94F00885E090E0AFE767
:1011C000B3E08D939C9381E08093910381E08093C1
:1011D000AA030E94F40685E0809381000C94F7082E
:1011E00086E0809379038091730380937A030C9453
:1011F000000984E0809379038091730380937A03DC
:101200000C94090980E080937903809173038093A3
:101210007A030E94C102089500917001023010F417
:101220000C946B0900919003003011F00C9462094A
:1012300000917502043010F00C945909009191034B
:10124000003011F00C9450090091750241E0040F38
:10125000A3E8B3E00C93A3E8B3E00C9142E0049F51
:101260000C920091830341E0041BA4E8B3E00C93CB
:101270008091840381508093840384E190E0AFE700
:10128000B3E08D939C9381E08093910381E0809300
:10129000AA030E94F40685E0809381000C9457090C
:1012A00086E0809379038091730380937A030C9492
:1012B000600984E0809379038091730380937A03BB
:1012C0000C94690980E08093790380917303809383
:1012D0007A030E94C102089500917001023010F457
:1012E0000C94BC0900919003013011F00C94B309E7
:1012F00000917502083010F00C94AA090091910336
:10130000003011F00C94A1090091750241E0040F26
:10131000A3E8B3E00C9380E08093840381E090E045
:10132000AFE7B3E08D939C9381E08093910381E0DC
:101330008093AA030E94F40685E0809381000C94B8
:10134000A80986E0809379038091730380937A03E0
:101350000C94B10984E080937903809173038093A6
:101360007A030C94BA0980E0809379038091730327
:1013700080937A030E94C1020895009170010330A6
:1013800010F40C94170A00919003013011F00C94A2
:101390000E0A00917502003110F00C94050A0091BC
:1013A0007502073018F011F00C94D8090C94010A5A
:1013B00000919103003011F00C94F809009175022E
:1013C00047E0041BA3E8B3E00C9380E08093840320
:1013D00085E090E0AFE7B3E08D939C9381E080934C
:1013E000910381E08093AA030E94F4060C94FF0904
:1013F00086E0809379038091730380937A030C9441
:10140000030A0E9475070C940C0A84E08093790308
:101410008091730380937A030C94150A80E0809383
:1014200079038091730380937A030E94C102089527
:1014300000917001023010F40C94800A0091900326
:10144000013011F00C94770A00917502083010F009
:101450000C946E0A00919103003011F00C94650A0F
:101460000091750241E0040FA3E8B3E00C930091F2
:10147000830342E00E941C14A2E5B1E08C9300912A
:101480005201003011F00C944E0A0091830341E0A8
:10149000041BA4E8B3E00C930C94550A0091830359
:1014A00041E0040FA4E8B3E00C9384E190E0AFE7DF
:1014B000B3E08D939C9385E08093910381E08093CA
:1014C000AA030E94F4060C946C0A86E080937903C8
:1014D0008091730380937A030C94750A84E080935F
:1014E00079038091730380937A030C947E0A80E0E1
:1014F000809379038091730380937A030E94C102E1
:10150000089581E080937D0389E08093730183E0F7
:10151000809373028091910380937401009174030E
:10152000013011F00C94960A0E94E4020E94C1025C
:101530000895009170010A3010F40C94690B009129
:101540009103003011F00C94600B80E08093540103
:1015500000917502083011F40C94B10A81E0809377
:10156000540183E080935201009152010A3018F037
:1015700011F00C94E50AA2E5B1E0AD90BB24A3E71D
:10158000B2E0AA0DBB1D8C918093530100915301D1
:10159000013381E008F080E08F9300915301043320
:1015A00080E010F009F081E09F91892B882311F4ED
:1015B0000C94DD0A81E080935401A2E5B1E08C91A6
:1015C0008F5F8C9310F40C94B40A00915401003096
:1015D00011F00C94570B8AE070E0A2E9B3E00E948E
:1015E000DB1383E08093550181E0809352010091E9
:1015F0005201083018F011F00C942E0BA5E5B1E063
:10160000AD90BB24A3E7B2E0AA0DBB1D8C918093E3
:10161000530180915301A2E5B1E0AD90BB24A1E953
:10162000B3E0AA0DBB1D8C930091530140E3041B52
:10163000A2E5B1E0AD90BB24ACE9B3E0AA0DBB1DBF
:101640000C93A5E5B1E08C918F5F8C93A2E5B1E09E
:101650008C918F5F8C9310F40C94F70AE2E9F3E01D
:10166000A6E8B3E00E94D513ECE1F0E0A6E8B3E011
:101670000E94FD1381E08093830383E080938403C1
:101680008CE390E0AFE7B3E08D939C9382E080938E
:10169000910381E08093AA0388E08093850381E031
:1016A0008093A80385E0809381000C945E0B84E016
:1016B000809379038091730380937A030C94670B72
:1016C00086E0809379038091730380937A030E946C
:1016D000C102089581E080937D038BE080937301C4
:1016E00088E08093740181E08093530183E08093CC
:1016F0005201009152010A3018F011F00C949F0B26
:10170000A3E5B1E0AD90BB24A5E8B3E0AA0DBB1DF5
:101710008C91A2E5B1E0AD90BB24A2E7B1E0AA0DA7
:10172000BB1D8C93A3E5B1E08C918F5F8C93A2E5F8
:10173000B1E08C918F5F8C9310F40C94790B8BE05B
:101740008093730200917403013011F00C94AA0B82
:101750000E94E4020E94C1020895009191030030AA
:1017600011F00C94D30B82E08093830384E0809388
:1017700084038CE390E0AFE7B3E08D939C9382E029
:101780008093910381E08093AA0381E080939D037D
:1017900081E08093850381E08093A80385E08093B6
:1017A00081000C94DA0B86E08093790380917303B7
:1017B00080937A03089580E08093710180E08093A4
:1017C0007001089500917001033010F40C94360CF0
:1017D0008091750280936E018091760280936F01F3
:1017E00000916E01053181E008F080E08F93009157
:1017F0006F01053181E008F080E09F918923882303
:1018000011F40C942D0C00916F01003018F011F0C0
:101810000C940C0C0C942B0C81E080937D0384E0E1
:10182000809372010E94170300917403013011F03C
:101830000C942B0C0E94E40200916F01003018F010
:1018400011F00C94250C0C942B0C0E9417030E9491
:10185000E4020C941C0C0C94340C84E08093790307
:101860008091730380937A030E94C102089581E0FE
:1018700080937D038EE170E0A3E7B1E00E94DB136B
:101880008CEF8093730183E080935201E3E7F3E0F0
:10189000A7E1B1E00E949013A7E1B1E00E942C14EF
:1018A000A5E5B1E08C9381E080935301409155010F
:1018B00000915301041718F011F00C947E0CA3E56D
:1018C000B1E0AD90BB24A6E1B1E0AA0DBB1D8C91A7
:1018D000A2E5B1E0AD90BB24A2E7B1E0AA0DBB1D2B
:1018E0008C93A2E5B1E08C918F5F8C93A3E5B1E07E
:1018F0008C918F5F8C9310F40C94560C00917903AB
:10190000003011F00C948E0CA7E1B1E0E0EAF8E2AF
:101910000E946C130E944E130C94140D013011F0B0
:101920000C949C0CA7E1B1E0E6EBF8E20E946C138A
:101930000E944E130C94140D023011F00C94AA0C5A
:10194000A7E1B1E0E4ECF8E20E946C130E944E13B0
:101950000C94140D033011F00C94B80CA7E1B1E015
:10196000E8EDF8E20E946C130E944E130C94140DE3
:10197000043011F00C94C60CA7E1B1E0EEEEF8E2F1
:101980000E946C130E944E130C94140D053011F03C
:101990000C94D40CA7E1B1E0E2E0F9E20E946C13F0
:1019A0000E944E130C94140D063011F00C94E20CAE
:1019B000A7E1B1E0E8E1F9E20E946C130E944E1346
:1019C0000C94140D073011F00C94F00CA7E1B1E069
:1019D000E4E3F9E20E946C130E944E130C94140D80
:1019E000083011F00C94FE0CA7E1B1E0ECE4F9E250
:1019F0000E946C130E944E130C94140D0F3F11F0B3
:101A00000C940C0DA7E1B1E0EAE6F9E20E946C1338
:101A10000E944E130C94140DA7E1B1E0E8E7F9E23F
:101A20000E946C130E944E13A7E1B1E00E942C1497
:101A3000A5E5B1E08C9381E080935301409155017D
:101A400000915301041718F011F00C94460DA3E512
:101A5000B1E0AD90BB24A6E1B1E0AA0DBB1D8C9115
:101A6000A2E5B1E0AD90BB24A2E7B1E0AA0DBB1D99
:101A70008C93A2E5B1E08C918F5F8C93A3E5B1E0EC
:101A80008C918F5F8C9310F40C941E0DEAE7F3E0B9
:101A9000A7E1B1E00E949013A7E1B1E00E942C14ED
:101AA000A5E5B1E08C9381E080935301409155010D
:101AB00000915301041718F011F00C947E0DA3E56A
:101AC000B1E0AD90BB24A6E1B1E0AA0DBB1D8C91A5
:101AD000A2E5B1E0AD90BB24A2E7B1E0AA0DBB1D29
:101AE0008C93A2E5B1E08C918F5F8C93A3E5B1E07C
:101AF0008C918F5F8C9310F40C94560D00915201D1
:101B000043E0041BA4E7B1E00C9380915201809361
:101B1000730200917403013011F00C94910D0E9436
:101B2000E4020E94C102089581E080937D038DEF5D
:101B30008093730184E08093740183E08093730247
:101B400000917403013011F00C94A80D0E94E4027E
:101B50000E94C102089500917001023010F40C94AB
:101B6000C20E00917502003011F00C94180E009115
:101B70007001033010F40C94160E009176020030C0
:101B800011F00C94C70D0E94C1020C94160E009126
:101B9000760243E0040FA2E5B1E00C9340915201BC
:101BA00000917001041710F40C94160E84E170E09B
:101BB000A9E3B1E00E94DB1300915201073118F054
:101BC00011F00C94E50D0C94E80D87E1809352011F
:101BD00084E0809353014091520100915301041716
:101BE00018F011F00C940E0EA3E5B1E0AD90BB24FB
:101BF000A3E7B2E0AA0DBB1D8C91A3E5B1E0AD90C7
:101C0000BB24A5E3B1E0AA0DBB1D8C93A3E5B1E015
:101C10008C918F5F8C9310F40C94EB0DE2E0F0E06C
:101C2000A9E3B1E00E94FD130E94C1020C94C20E10
:101C3000013011F00C94310E00917001033010F45A
:101C40000C942F0E8091760280934E01E7E1F0E034
:101C5000AEE4B1E07BE70E94E8130E94C1020C945D
:101C6000C20E023011F00C94590E00917001033035
:101C700010F40C94570E00917602023010F00C9480
:101C80004E0E8091760280935001E9E1F0E0A0E5EC
:101C9000B1E07BE70E94E8130C94550E84E080933A
:101CA00079038091730380937A030E94C1020C949C
:101CB000C20E033011F00C948D0E009170010330B0
:101CC00010F40C948B0E8091760280935301009156
:101CD0005301003810F00C94820EA3E5B1E00C9192
:101CE00042E0049F0C928091530180934F01E8E100
:101CF000F0E0AFE4B1E07BE70E94E8130E947E04CD
:101D00000C94890E84E0809379038091730380930F
:101D10007A030E94C1020C94C20E043011F00C949C
:101D2000B90E00917001033010F40C94B70E80913D
:101D300076028093530100915301023010F00C940D
:101D4000AE0E8091530180935101EAE1F0E0A1E5EC
:101D5000B1E07BE70E94E8130C94B50E84E0809319
:101D600079038091730380937A030E94C1020C94DB
:101D7000C20E84E0809379038091730380937A0389
:101D80000E94C102089500917001023010F40C9479
:101D9000AD0F81E080937D038FEF8093730180917D
:101DA00075028093740180E0809373020091750244
:101DB000003011F00C94330F84E17FEFA1E0B1E02B
:101DC0000E94DB13E1E0F1E0A9E3B1E00E943414EA
:101DD00011F00C94F90EA9E3B1E0E8E8F9E20E94F1
:101DE0006C130E944E13E2E0F0E0A9E3B1E00E9420
:101DF000FD13A9E3B1E00E942C14A4E5B1E08C939B
:101E0000809154018093750184E08093730281E096
:101E1000809353014091540100915301041718F02D
:101E200011F00C94310FA3E5B1E0AD90BB24A8E311
:101E3000B1E0AA0DBB1D8C91A3E7B2E0AD90BB242D
:101E4000A2E7B1E0AA0DBB1D8C93A3E7B2E08C9191
:101E50008F5F8C93A3E5B1E08C918F5F8C930C9492
:101E60000A0F0C949A0F013011F00C94400F8091DE
:101E70004E018093750184E0809373020C949A0F55
:101E8000023011F00C944D0F809150018093750138
:101E900084E0809373020C949A0F033011F00C9439
:101EA000620F00914F0142E00E941C14A3E5B1E0D3
:101EB0000C93809153018093750184E080937302A9
:101EC0000C949A0F043011F00C946F0F8091510113
:101ED0008093750184E0809373020C949A0F05300F
:101EE00011F00C947B0F80E08093750184E0809367
:101EF00073020C949A0F063011F00C94930F83E048
:101F00008093750188E3A6E7B1E08C938EE4A7E7A0
:101F1000B1E08C9381E3A8E7B1E08C9387E08093F4
:101F200073020C949A0F84E0809379038091730379
:101F300080937A0300917302003018F011F00C9432
:101F4000A30F0C94AB0F00917403013011F00C94AB
:101F5000AB0F0E94E4020E94C10208950091740236
:101F6000003011F00C94CE0F81E080937D0380E06F
:101F700080936E0181E080936F0182E08093720113
:101F80000E94170300917403013011F00C94CA0FE2
:101F90000E94E4020E94C1020C9448100091740255
:101FA0000F3E10F00C941210009174020E3010F0DD
:101FB0000C940710E5E0F0E1EF93FF93E9EEFFE00A
:101FC000A4E7B2E08C919927880F991FE80FF91FB9
:101FD00009940C9400000C94CE070C9432080C94D5
:101FE0004A080C94BB080C940C090C946C090C94D2
:101FF000BD090C94180A0C94810A0C94990A0C944B
:102000006A0B0C94AD0B0C940D000C94101080E036
:10201000809379038091730380937A030E94C102B5
:102020000C9448100091740240EF041BA2E5B1E04B
:102030000C93E8E4F0E1EF93FF93E8E2F0E1A2E52E
:10204000B1E08C919927880F991FE80FF91F099427
:102050000C94E20B0C94DB0B0C94DB0B0C94DB0B61
:102060000C94DB0B0C94DB0B0C94DB0B0C94DB0B58
:102070000C94DB0B0C94DB0B0C94DB0B0C94DB0B48
:102080000C94370C0C94940D0C94AB0D0C94C30E63
:102090000895F894FFCF303B6D3B444B3152493BA0
:1020A000465332302038206368616E616C2073655E
:1020B0006E6465723B5630372E303B313B323035E3
:1020C0003B313B32313B312D3100313B6F732C635F
:1020D00068616E616C733B313B302C343B312C3882
:1020E0003B31332C434841505445522C636F6E664C
:1020F000696775726174696F6E00323B61732C6140
:10210000733100333B6F722C7377697463683B31B2
:102110003B302C6368616E616C313B312C636861CC
:102120006E616C323B322C6368616E616C333B33A1
:102130002C6368616E616C3400343B6F732C737474
:10214000617274202F2073746F702064696D6D69E3
:102150006E673B313B302C6368616E616C3120648B
:102160006F776E3B312C6368616E616C31207570E6
:102170003B322C6368616E616C3220646F776E3B1A
:10218000332C6368616E616C322075703B342C6354
:1021900068616E616C3320646F776E3B352C6368C9
:1021A000616E616C332075703B362C6368616E61C3
:1021B0006C3420646F776E3B372C6368616E616CA2
:1021C0003420757000353B6F752C74696D65722015
:1021D00073746172742F73746F703B313B302C6376
:1021E00068616E616C313B312C6368616E616C3289
:1021F0003B322C6368616E616C333B332C636861E6
:102200006E616C3400363B6F752C746F67676C655C
:102210003B313B302C6368616E616C313B312C6328
:1022200068616E616C323B322C6368616E616C3345
:102230003B332C6368616E616C343B342C636861A2
:102240006E616C353B352C6368616E616C363B3674
:102250002C6368616E616C373B372C6368616E611B
:102260006C3800373B6F732C64696D6D2075702F6F
:10227000646F776E3B313B302C6368312073746F31
:10228000703B312C6368322073746F703B322C6367
:1022900068332073746F703B332C6368342073741D
:1022A0006F703B342C6368352073746F703B352C32
:1022B0006368362073746F703B362C636837207305
:1022C000746F703B372C6368382073746F703B38C1
:1022D0002C6368312073746172743B392C636832EB
:1022E0002073746172743B31302C636833207374D3
:1022F0006172743B31312C63683420737461727481
:102300003B31322C6368352073746172743B313316
:102310002C6368362073746172743B31342C6368AB
:10232000372073746172743B31352C6368382073C5
:102330007461727400383B6F752C54696D6572203E
:1023400073746172742F73746F703B313B302C6304
:1023500068616E616C313B312C6368616E616C3217
:102360003B322C6368616E616C333B332C63686174
:102370006E616C343B342C6368616E616C353B3547
:102380002C6368616E616C363B362C6368616E61EC
:102390006C373B372C6368616E616C3800393B6188
:1023A000612C627573793B622C200031303B6F6188
:1023B0002C686F757365636F64653B382C7B317473
:1023C0006F347D3B31332C434841505445522C638C
:1023D0006F6E66696775726174696F6E0031313B4B
:1023E00061612C617331300031323B6F752C726545
:1023F0007365743B313B302C69646C653B312C72E6
:10240000657365743B31332C434841505445522C1D
:10241000636F6E66696775726174696F6E003234DE
:10242000303B616E2C414E4E4F554E43454D454E0F
:1024300054533B3230353B32312C7374617274200B
:1024400061743B32312C656C656D656E74733B3124
:10245000342C434841505445522C41444D494E4937
:102460005354524154494F4E003235323B61612C36
:102470004C415354204552524F523B32302C6C61E8
:1024800073745F6572726F72003235333B61612C19
:102490004D594320494E464F3B622C4143544956C7
:1024A00045003235343B6F612C494E44495649440E
:1024B00055414C495A4154494F4E3B32302C4E41C4
:1024C0004D452C44657669636520313B622C4E5541
:1024D0004D4245522C313B612C4932432C313B62F9
:1024E0002C4144524553532C31322C7B315F307494
:1024F0006F3132377D3B612C52533233322C313BBA
:10250000612C5553422C313B31342C4348415054BB
:1025100045522C41444D494E495354524154494F20
:102520004E003235353B61612C494E444956494491
:1025300055414C495A4154494F4E3B32302C4E4143
:102540004D452C44657669636520313B622C4E55C0
:102550004D4245522C313B612C4932432C313B6278
:102560002C4144524553532C31322C7B315F307413
:102570006F3132377D3B612C52533233322C313B39
:10258000622C42415544524154452C302C7B313908
:102590003230307D3B332C4E554D4245525F4F46D5
:1025A0005F424954532C386E313B612C5553422CB9
:1025B000313B31342C434841505445522C41444D19
:1025C000494E495354524154494F4E005220212400
:1025D000312021243320212434202124352021249A
:1025E00036202124372021243820212431302C206A
:1025F00021313220494620243231203D2031005201
:102600002021243320212434202124352049462030
:102610002432203D2031005220212436202124372D
:1026200020212438204946202432203D203000003B
:10263000ED91FC91EF5FFF4FFC93EE9308958D9128
:1026400003D03A95E1F708950090C00005FEFCCF55
:102650008093C600089588EE93E00CD03197D9F7A7
:1026600008953197F1F70895689462F80895E89411
:1026700062F80895EF93FF93EE27E82BE92B31F0F2
:10268000E8E8F3E13197F1F70197D1F7FF91EF9186
:102690000895019111912191308108950E94541360
:1026A0000D920020D9F70895D895319628F48F938C
:1026B0008BB783958BBF8F9100200895019601976A
:1026C00021F00E945413E9F7FACF08950F9301E027
:1026D0000BBF0F91889408950F930027F9CF0F93A4
:1026E00002E0F6CF000F111F221F331F089500953F
:1026F0001095209530950F5F1F4F2F4F3F4F089536
:10270000019110810FC00E9449130EC00E9449130D
:1027100010C00191108117FF05C03FEF2FEF04C0DB
:10272000008111272227332737FF03C0E0DF8DE226
:102730008D93CF92DF92EF92AA24BB24CC24DD2488
:10274000EE2440E2EAE0FF2755E093E38081890F21
:1027500087FD9F7083FD907F891B81935A95A9F710
:10276000C1DFAA1CBB1CCC1CDD1CEE1C4A9551F71A
:10277000E894EFE0FF2782910BD0EB30E0F71EF0FA
:1027800068948A2D09D04D93EF90DF90CF900895F3
:10279000982F829501D0892F8F70805D26F080332D
:1027A00009F4089568948D93089581918D938823F9
:1027B000E1F7089570E2803021F07D938A95E9F782
:1027C0008C930895F999FECFE1BDF2BD319608953D
:1027D00091E001C092E07B3771F47FB7F894F2DFAB
:1027E0008D91F89A60B5681719F080BDFA9AF99A38
:1027F0009A95A9F77FBF77270895E4DF8D917B37FE
:1028000029F480BDFA9AF99A8823B9F777270895B1
:1028100091E001C092E0D6DFF89A80B58D939A9549
:10282000D1F70895CFDFF89A80B58D93882319F0FA
:102830009A95C1F79D930895FF93881BF9E0001FB7
:10284000FA9511F4FF910895881F841B18F4840FE2
:102850008894F5CF0894F3CF8FEF83959D919923BA
:10286000E1F70895689401C0E894AF93BF938D9108
:1028700016F0919103C00E945413902D891718F0FF
:1028800011F48823A1F7BF91AF910895446576694B
:10289000636520310000313233343132333400008B
:1028A0003A20636F6D6D616E64206E6F7420666F89
:1028B000756E643A20003A20493243206572726F87
:1028C000723A20003A207761746368646F672072FF
:1028D000657365743A2000003A20636F6D6D616E18
:1028E00064207761746368646F673A2000003A205F
:1028F000706172616D65746572206572726F723A93
:1029000020003A2074782074696D6520746F6F2000
:102910006C6F6E673A2000003A206E6F742076610B
:102920006C696420617420746861742074696D65D9
:102930003A2000003A206932635F6275666665720C
:10294000206F766572666C6F773A20003A204932C4
:1029500063206E6F7420726561647920746F2072D9
:102960006563656976653A2000003A206E6F2065E0
:1029700072726F723A2000003A206F74686572209C
:102980006572726F723A2000446576696365310042
:00000001FF
