:100000000C94340018950000189500001895000015
:10001000189500001895000018950000189500002C
:10002000189500001895000018950000189500001C
:10003000189500001895000018950000189500000C
:1000400018950000189500001895000018950000FC
:1000500018950000189500001895000018950000EC
:1000600018950000189500008FEF8DBFC8EDE0ECEB
:100070004E2E84E08EBFD4E0F4E05F2EA89584B7C6
:10008000082E877F84BF88E1992780936000909332
:100090006000EEEFF3E0A0E0B1E088278D933197A8
:1000A000E9F780E48093C40080E08093C50088E194
:1000B0008093C10072E07093C0006624E0E0FF27E7
:1000C0000081A0E0B1E00C93A0E0B1E00C9103FB53
:1000D00016F00C94740082E08093550380915003D5
:1000E000809356030C9477008FEF809355032298EA
:1000F0002A9A1A9A74B7777F74BF8FE197E080933A
:10010000600090936000229A0E94CB171A990C9479
:100110008B000E945102E0E0F0E0A0E1B0E00E941C
:100120001919053011F40C9497000E9451020E9495
:10013000AE0280916000886080936000A8E4B1E026
:100140008C918F5F8C93009148010F3F11F00C94BC
:100150004A01A7E4B1E08C918F5F8C930091470135
:100160000A3511F00C94DD00A9E5B3E00D911C9166
:10017000003050E0150718F011F00C94C1000C94F9
:10018000DB00A9E5B3E00E941D17A9E5B3E00D91DE
:100190001C91083250E0150718F011F00C94D200B1
:1001A0000C94DB000E94000385E08093550380914E
:1001B0005003809356030C943701043B11F00C94C8
:1001C0000C0100911801013081E009F080E08F936B
:1001D000A6E2B0E00C9104FB81E00EF480E09F9178
:1001E0008923882311F40C940701A9E4B1E08C91D0
:1001F0008F5F8C9300914901023318F011F00C9439
:1002000003010C9405010E94FD040C940A0180E096
:10021000809349010C9437010F3F11F00C94370182
:10022000A7E5B3E00D911C91003050E0150718F0E0
:1002300011F00C941D010C942101A7E5B3E00E947C
:100240001D17A7E5B3E00D911C91083250E015078A
:1002500018F011F00C942E010C94370183E0809378
:10026000550380915003809356030E941003009120
:1002700047010E3111F00C944A010E9496070E942A
:100280004B080E945A09ADECB3E0BA93AA930E94BE
:100290003C0B22960E942C17AAE4B1E08C930091AB
:1002A0004A01013011F00C9495010E943217AAE422
:1002B000B1E08C9300911901013081E009F080E0F8
:1002C0008F93009150020E3F81E009F080E09F91F2
:1002D000892B882311F40C948E0100914F02003079
:1002E00011F00C94850180914A01AFE4B3E0AD9028
:1002F000BB24AFE4B2E0AA0DBB1D8C9381E08093D8
:1003000051030E94420E0C948C0186E080935503A9
:1003100080915003809356030C94950186E080935E
:1003200055038091500380935603ACEBB0E00C91E1
:1003300007FB16F00C944402AAE1B1E08091B900E9
:100340008C93EAE1F1E0A8EAB4E00E94B1180E94BF
:100350003F170E944C170091B900003811F00C941F
:10036000F30100911801013081E009F080E08F93E2
:10037000009150020E3F81E009F080E09F91892BAF
:10038000882311F40C94EA0100914F02003011F01F
:100390000C94E101AAE1B1E08091BB008C938091C3
:1003A0001A01AFE4B3E0AD90BB24AFE4B2E0AA0D14
:1003B000BB1D8C9382E0809351030E94420E0C94EB
:1003C000E80188E0809355038091500380935603A1
:1003D0000C94F10188E08093550380915003809341
:1003E00056030C943E020091B900083B11F00C94A6
:1003F0003E0200914E02013081E009F080E08F93CF
:1004000000911801003081E009F080E09F91892B74
:10041000882311F40C94110270E87093BB000C94C3
:100420003E0240914E0200914D02041710F00C94D0
:100430003E02ADE4B2E0AD90BB24ADE4B1E0AA0D64
:10044000BB1D8C918093BB00ADE4B2E08C918F5FBB
:100450008C9340914E0200914D02041710F40C94BD
:100460003E020E94000300914C01003018F011F090
:100470000C943C020C943E020E94590380E080934D
:10048000490174EC7093BC009FB7F89480916000B0
:10049000886180936000877E809360009FBF0C948A
:1004A0009900E1E0F0E00E945617E6E1F0E0A0E1FB
:1004B000BB2781E08C937BE70E94FD18A42DB52D0E
:1004C000E4E4F9E30E943218E1E0F0E0D2017BE7D6
:1004D0000E940E19E7E1F0E0A0E1BB2788E58C93CC
:1004E0007BE70E94FD18E8E1F0E0A0E1BB2781E096
:1004F0008C937BE70E94FD18E9E1F0E0A0E1BB27C7
:1005000081E08C937BE70E94FD18ECE3F0E0A0E132
:10051000BB2785E08C937BE70E94FD18EDE3F0E0BC
:10052000A0E1BB2787EB8C937BE70E94FD18EEE3ED
:10053000F0E0A0E1BB2780E18C937BE70E94FD18EF
:100540000E942C050E943705E0E0F0E0A0E1BB2707
:1005500085E08C937BE70E94FD180895E6E1F0E0CA
:10056000A6E1B1E00E941919E1E0F0E0A1E0B1E0FC
:1005700094E10E942319E7E1F0E0A7E1B1E00E94D5
:100580001919E8E1F0E0A8E1B1E00E941919E9E1E8
:10059000F0E0A9E1B1E00E94191981E080935003D5
:1005A00080E08093560380E080934D0181E080934A
:1005B00051030E9410030E9400030E94FD0480E08A
:1005C0008093470180E080934801ECE3F0E0A7EDE1
:1005D000B3E00E941919EDE3F0E0A8EDB3E00E944A
:1005E0001919EEE3F0E0A9EDB3E00E941919E1E07A
:1005F000F0E00E9456170E942C050E940F050895F6
:1006000081E080934D0281E080934E0280E08093F0
:100610004F0280E090E0A9E5B3E08D939C930895AC
:1006200081E080934F0380E090E0A7E5B3E08D93F5
:100630009C93A0E5B3E08C918F5F8C93409156031F
:1006400000915003041711F00C942C0380E0809368
:1006500056038FEF80935503089580914E02815089
:1006600080934E0281E080931B0140914E020091E5
:100670001B01041718F011F00C945603ABE1B1E024
:10068000AD90BB24ADE4B1E0AA0DBB1D8C9180936D
:100690001C0131E0ACE1B1E00E944717ABE1B1E0F1
:1006A0008C918F5F8C9310F40C9435030E9400039F
:1006B000089581E080931B0100911B010E3F18F00B
:1006C00011F00C94750380E0ABE1B1E0AD90BB2478
:1006D000ADE4B1E0AA0DBB1D8C93ABE1B1E08C9110
:1006E0008F5F8C9310F40C945C0300914B010030ED
:1006F00011F00C948103E8EFFAE20E9417170C94B2
:100700004704013011F00C948B03E4E2FBE20E94F9
:1007100017170C944704023011F00C949503EEE582
:10072000FBE20E9417170C944704033011F00C945D
:100730009F03E4E9FBE20E9417170C94470404307E
:1007400011F00C94A903EEECFBE20E9417170C9435
:100750004704053011F00C94B303EAEFFBE20E946A
:1007600017170C944704063011F00C94BD03E4E015
:10077000FCE20E9417170C944704073011F00C9408
:10078000C703E0E3FCE20E9417170C94470408300B
:1007900011F00C94D103EAE3FCE20E9417170C94C9
:1007A0004704093011F00C94DB03E8E6FCE20E94F8
:1007B00017170C9447040A3011F00C94E503E2E794
:1007C000FCE20E9417170C9447040B3011F00C94B4
:1007D000EF03EAEAFCE20E9417170C9447040C307E
:1007E00011F00C94F903E6EBFCE20E9417170C944D
:1007F00047040D3011F00C940304E2EDFCE20E947A
:1008000017170C9447040E3011F00C940D04EEED04
:10081000FCE20E9417170C9447040F3011F00C945F
:100820001704EEEEFCE20E9417170C944704003107
:1008300011F00C942104EEEEFCE20E9417170C94C8
:100840004704013111F00C942B04EAE0FDE20E9410
:1008500017170C944704023111F00C943504EAE2A6
:10086000FDE20E9417170C944704033111F00C9419
:100870003F04E4E4FDE20E9417170C94470404319E
:1008800011F00C944704E4EAFDE20E9417170E945D
:100890001A17AEE4B1E00E9432180E941717AEE4B6
:1008A000B1E00E943D19ACE1B1E08C9380911C0154
:1008B00080931B0140911B0101E0041718F011F017
:1008C0000C94840400911B0140914D01040FAAE196
:1008D000B1E00C93ABE1B1E0AD90BB24ADE4B1E08D
:1008E000AA0DBB1D8C91AAE1B1E0AD90BB24ADE493
:1008F000B1E0AA0DBB1D8C9380911B0181508093A8
:100900001B0110F00C945A0400914D01013011F0BC
:100910000C94B20480911C0180934E0100911C0143
:1009200042E0040FAEE4B2E00C9381E080934D010D
:10093000ABE4B1E08C918F5F8C9300911C0142E09D
:10094000040FAEE4B2E00C9300914B01053110F4BA
:100950000C94AD0480E080934B0182E080934F02C1
:100960000C94F404023011F00C94C60480E08093DF
:100970004E0180911C0180934F0100911C0143E0C6
:10098000040FAEE4B2E00C930C94F404043011F0C4
:100990000C94F40480EF80934E0180914B0180937E
:1009A0004F0180914C018093500180911C018093F4
:1009B000510100911C0145E0040FAEE4B2E00C933C
:1009C00081E080934D01ABE4B1E08C918F5F8C931B
:1009D00000914B01053110F40C94F10480E08093F8
:1009E0004B0182E080934F0280914C0181508093B3
:1009F0004C0181E080934D02089580E0809349018D
:100A000070E07093B90070E87093BB00A7E1B1E0AB
:100A10008C918093BA0074EC7093BC00089582E7C7
:100A2000809378038091D7038093790385E780933F
:100A30007A038091D90380937B0384E780937C03BE
:100A40008091D80380937D032A9896E0A8E7B3E0CD
:100A50000E94C1172A9A089585E090E00E94E2174B
:100A60002A988AE090E00E94E2172A9A089588E87E
:100A7000809378032A9891E0A8E7B3E00E94C11719
:100A800098E1AEE7B3E00E94B6172A9AAFE7B3E069
:100A90008C91A8E9B3E08D9388278C9398E0A8E91E
:100AA000B3E00E944018A8E9B3E00D911C91AEE7B5
:100AB000B3E04D915527040F151FA8E9B3E00D933E
:100AC0001C93EBE1F0E0A8E9B3E07BE70E94FF189C
:100AD000A1E8B3E08C91AAE9B3E08D9388278C93C9
:100AE00098E0AAE9B3E00E944018AAE9B3E00D91AA
:100AF0001C91A0E8B3E04D915527040F151FAAE9FA
:100B0000B3E00D931C93EDE1F0E0AAE9B3E07BE7DD
:100B10000E94FF18A3E8B3E08C91ACE9B3E08D9399
:100B200088278C9398E0ACE9B3E00E944018ACE9C8
:100B3000B3E00D911C91A2E8B3E04D915527040F4D
:100B4000151FACE9B3E00D931C93EFE1F0E0ACE9C5
:100B5000B3E07BE70E94FF18A5E8B3E08C91AEE913
:100B6000B3E08D9388278C9398E0AEE9B3E00E94C0
:100B70004018AEE9B3E00D911C91A4E8B3E04D91AB
:100B80005527040F151FAEE9B3E00D931C93E1E266
:100B9000F0E0AEE9B3E07BE70E94FF18A7E8B3E01E
:100BA0008C91A0EAB3E08D9388278C9398E0A0EA1B
:100BB000B3E00E944018A0EAB3E00D911C91A6E8B2
:100BC000B3E04D915527040F151FA0EAB3E00D9334
:100BD0001C93E3E2F0E0A0EAB3E07BE70E94FF1899
:100BE000A9E8B3E08C91A2EAB3E08D9388278C93B7
:100BF00098E0A2EAB3E00E944018A2EAB3E00D91A7
:100C00001C91A8E8B3E04D915527040F151FA2EAE7
:100C1000B3E00D931C93E5E2F0E0A2EAB3E07BE7DA
:100C20000E94FF18ABE8B3E08C91A4EAB3E08D9387
:100C300088278C9398E0A4EAB3E00E944018A4EAC5
:100C4000B3E00D911C91AAE8B3E04D915527040F34
:100C5000151FA4EAB3E00D931C93E7E2F0E0A4EAC9
:100C6000B3E07BE70E94FF18ADE8B3E08C91A6EA01
:100C7000B3E08D9388278C9398E0A6EAB3E00E94B6
:100C80004018A6EAB3E00D911C91ACE8B3E04D9199
:100C90005527040F151FA6EAB3E00D931C93E9E254
:100CA000F0E0A6EAB3E07BE70E94FF18AFE8B3E00C
:100CB0008C91A8EAB3E08D9388278C9398E0A8EAFA
:100CC000B3E00E944018A8EAB3E00D911C91AEE891
:100CD000B3E04D915527040F151FA8EAB3E00D931B
:100CE0001C93EBE2F0E0A8EAB3E07BE70E94FF1878
:100CF000A1E9B3E08C91AAEAB3E08D9388278C93A5
:100D000098E0AAEAB3E00E944018AAEAB3E00D9185
:100D10001C91A0E9B3E04D915527040F151FAAEAD5
:100D2000B3E00D931C93EDE2F0E0AAEAB3E07BE7B9
:100D30000E94FF18A3E9B3E08C91ACEAB3E08D9375
:100D400088278C9398E0ACEAB3E00E944018ACEAA4
:100D5000B3E00D911C91A2E9B3E04D915527040F2A
:100D6000151FACEAB3E00D931C93EFE2F0E0ACEAA0
:100D7000B3E07BE70E94FF18A5E9B3E08C91AEEAEF
:100D8000B3E08D9388278C9398E0AEEAB3E00E949D
:100D90004018AEEAB3E00D911C91A4E9B3E04D9187
:100DA0005527040F151FAEEAB3E00D931C93E1E342
:100DB000F0E0AEEAB3E07BE70E94FF1881EA80939F
:100DC00078032A9891E0A8E7B3E00E94C11791E068
:100DD000AEE7B3E00E94B6172A9A80917E03809313
:100DE000B003E3E3F0E0A0EBB3E07BE70E94FD1883
:100DF00081EE809378032A9891E0A8E7B3E00E94FF
:100E0000C11798E0AEE7B3E00E94B6172A9AAFE7A1
:100E1000B3E08C91A1EBB3E08D9388278C9398E09D
:100E2000A1EBB3E00E944018A1EBB3E00D911C913F
:100E3000AEE7B3E04D915527040F151FA1EBB3E0CA
:100E40000D931C93E4E3F0E0A1EBB3E07BE70E9499
:100E5000FF18809180038093B303E6E3F0E0A3EBF7
:100E6000B3E07BE70E94FD18A1E8B3E08C91A4EB0E
:100E7000B3E08D9388278C9394E0A4EBB3E00E94B9
:100E800040188091820380931A01AAE1B1E08C910D
:100E90008F708C93A4EBB3E00D911C91AAE1B1E0AB
:100EA0004D915527040F151FA4EBB3E00D931C9330
:100EB000E7E3F0E0A4EBB3E07BE70E94FF18A4E8CF
:100EC000B3E08C91A6EBB3E08D9388278C9394E0EC
:100ED000A6EBB3E00E9440188091830380931A012F
:100EE00094E0AAE1B1E00E945818A6EBB3E00D919E
:100EF0001C91AAE1B1E04D915527040F151FA6EBF7
:100F0000B3E00D931C93E9E3F0E0A6EBB3E07BE7DD
:100F10000E94FF18809185038093B803EBE3F0E013
:100F2000A8EBB3E07BE70E94FD18089587EF80935C
:100F300078032A9891E0A8E7B3E00E94C11798E0EF
:100F4000AEE7B3E00E94B6172A9AAEE7B3E08C9101
:100F5000ADEBB3E08D9388278D938D938C9398E0C0
:100F6000ADEBB3E00E944B18ADEBB3E00D911D91DA
:100F70002D913C91AFE7B3E04C9155276627772739
:100F80000E948418ADEBB3E00D931D932D933D9318
:100F900098E0ADEBB3E00E944B18ADEBB3E00D91E0
:100FA0001D912D913C91A0E8B3E04C915527662707
:100FB00077270E948418ADEBB3E00D931D932D931A
:100FC0003D9394E0ADEBB3E00E946018A1E8B3E07C
:100FD0008C91A9EBB3E08D9388278D938D938C939F
:100FE00098E0A9EBB3E00E944B18A9EBB3E00D9198
:100FF0001D912D913C91A2E8B3E04C9155276627B5
:1010000077270E948418A9EBB3E00D931D932D93CD
:101010003D9398E0A9EBB3E00E944B18A9EBB3E035
:101020000D911D912D913C91A3E8B3E04C91552772
:10103000662777270E948418A9EBB3E00D931D93D0
:101040002D933D9394E0A9EBB3E00E946018A4E8CF
:10105000B3E08C91A1ECB3E08D9388278D938D93B1
:101060008C9398E0A1ECB3E00E944B18A1ECB3E0A4
:101070000D911D912D913C91A5E8B3E04C91552720
:10108000662777270E948418A1ECB3E00D931D9387
:101090002D933D930895A9EBB3E00D911D912D91F2
:1010A0003C91A4E6B3E00D931D932D933C9393E004
:1010B000A4E6B3E00E946D18A8E9B3E08D919C917D
:1010C000ACE6B3E08D939D9388278D938C9391E04C
:1010D000ACE6B3E00E944B18A4E6B3E00D911D917D
:1010E0002D913C91ACE6B3E04D915D916D917C9179
:1010F0000E948918A4E6B3E00D931D932D933D93B0
:10110000A4E6B3E00D911D912D913C91AAE9B3E0C5
:101110004D915D9157FB1EF46FEF7FEF02C0662784
:1011200077270E940F18A4E6B3E00D931D932D932B
:101130003D939BE0A4E6B3E00E946D18A9EBB3E0F9
:101140000D911D912D913C91A8E6B3E00D931D9357
:101150002D933C9394E0A8E6B3E00E946D18A8E6B6
:10116000B3E00D911D912D913C91A8E9B3E04D9113
:101170005C91662777270E948918A8E6B3E00D9353
:101180001D932D933D93A8E6B3E00D911D912D91F4
:101190003C91A8E6B3E04D915D916D917C910E94E8
:1011A0000F18A8E6B3E00D931D932D933D939CE09B
:1011B000A8E6B3E00E946D18A8E6B3E00D911D917A
:1011C0002D913C91ACE9B3E04D915D9157FB1EF43C
:1011D0006FEF7FEF02C0662777270E940F18A8E6FF
:1011E000B3E00D931D932D933D939EE0A8E6B3E0ED
:1011F0000E946D18A4E6B3E00D911D912D913C91D4
:10120000A8E6B3E04D915D916D917C910E948418A8
:10121000A5ECB3E00D931D932D933D93A5ECB3E0A6
:101220000D911D912D913C9145E050E060E070E002
:101230000E940F18ACE6B3E00D931D932D933D93E0
:10124000ACE6B3E00D911D912D913C9140E850E04A
:1012500060E070E00E948418ACE6B3E00D931D934B
:101260002D933D9398E0ACE6B3E00E946D1840E604
:1012700050EF6FEF7FEFACE6B3E00D911D912D9134
:101280003C910E948E180CF002C00C945309ACE6FD
:10129000B3E00D911C910056104FA5EDB3E00D93F6
:1012A0001C930C94590980E090E0A5EDB3E08D9378
:1012B0009C930895A5ECB3E00D911D912D913C9167
:1012C00040E05CE261E070E00E948918A4E6B3E0CF
:1012D0000D931D932D933D93A1ECB3E00D911D91C2
:1012E0002D913C91ACE6B3E00D931D932D933C936F
:1012F0009EE0ACE6B3E00E944B18A4EBB3E08D9106
:101300009C91A0E7B3E08D939C930E94F11794E128
:10131000A0E7B3E00E944B18ACE6B3E00D911D913D
:101320002D913C91A0E7B3E04D915D916D917C9141
:101330000E948918ACE6B3E00D931D932D933D9365
:10134000A6EBB3E00D911D9117FB1EF42FEF3FEFBD
:1013500002C022273327A4E6B3E04D915D916D9141
:101360007C910E940F18A0E7B3E00D931D932D937D
:101370003D93ACE6B3E00D911D912D913C91A0E71A
:10138000B3E04D915D916D917C910E948918ACE61E
:10139000B3E00D931D932D933D93ACE6B3E00D9117
:1013A0001D912D913C9140E050E460E070E00E947E
:1013B0008418ACE6B3E00D931D932D933D939FE00D
:1013C000ACE6B3E00E946D18A4E6B3E00D911D9168
:1013D0002D913C91A8EBB3E04C91552766277727D8
:1013E0000E940F18A0E7B3E00D931D932D933D933A
:1013F0009AE0A0E7B3E00E946D18A4E6B3E00D9177
:101400001D912D913C91A3EBB3E04C91552766279C
:1014100077270E940F18A4E7B3E00D931D932D9337
:101420003D939BE0A4E7B3E00E946D18A4E7B3E00E
:101430000D911D912D913C9140E050E860E070E0ED
:101440000E948418A4E7B3E00D931D932D933D9360
:10145000A0E7B3E00D911D912D913C91A4E7B3E07D
:101460004D915D916D917C910E940F18A0E7B3E0C2
:101470000D931D932D933D939AE0A0E7B3E00E9456
:101480006D18A0E7B3E00D911D912D913C9140E0C6
:1014900050E060E270E00E948418A0E7B3E00D9392
:1014A0001D932D933D93A0E7B3E00D911D912D91D8
:1014B0003C91A1EBB3E04D915D9157FB1EF46FEFB2
:1014C0007FEF02C0662777270E940F18A0E7B3E0DE
:1014D0000D931D932D933D93A0E7B3E00D911D91C6
:1014E0002D913C9140E050E260E070E00E94841851
:1014F000A0E7B3E00D931D932D933D939EE0A0E7ED
:10150000B3E00E946D18ACE6B3E00D911D912D91F2
:101510003C91A0E7B3E04D915D916D917C910E946B
:101520000F18A4E6B3E00D931D932D933D93A4E60D
:10153000B3E00D911D912D913C91ACE6B3E00D937C
:101540001D932D933C939FE0ACE6B3E00E946D1891
:10155000ACE6B3E00D911D912D913C91ACE6B3E06A
:101560004D915D916D917C910E940F18ACE6B3E0B6
:101570000D931D932D933D9397E0ACE6B3E00E944D
:101580006D18ACE6B3E00D911D912D913C91A0EB4F
:10159000B3E04C915527662777270E940F18ACE6D9
:1015A000B3E00D931D932D933D9394E0ACE6B3E02F
:1015B0000E946D18A4E6B3E00D911D912D913C9110
:1015C000ACE6B3E04D915D916D917C910E948918DC
:1015D000A4E6B3E00D931D932D933D9340E050E0BE
:1015E00060E070E0A4E6B3E00D911D912D913C9177
:1015F0000E948E180CF402C00C94080B00E010E05E
:1016000020E030E0A4E6B3E00D931D932D933C93CE
:1016100040E050E060E079E1A4E6B3E00D911D9177
:101620002D913C910E948E181CF011F00C941A0B15
:101630000C94240B00E010E020E039E1A4E6B3E0D4
:101640000D931D932D933C939CE0A4E6B3E00E9480
:101650006D18A4E6B3E00D911D912D913C9141E0F0
:1016600050E060E070E00E946617A1EDB3E04D939A
:101670005D936D937D93089588E00E94091888E03A
:101680000E94091888E00E94091888E00E94091841
:1016900088E00E94091884E00E94091884E00E94F2
:1016A0000918E5ECF3E00E94131C0E943D1CAA817E
:1016B000BB810E94181CEA81FB81AE81BF810E9420
:1016C000C61BA885B985ECECF8E30E94471AAC85E7
:1016D000BD85BA93AA93AA85BB85E885F9850E9442
:1016E00046192296AA85BB85BA93AA93AE85BF8573
:1016F000EE85FF850E9496192296E8EAF3E0D190E4
:10170000E0808FEFE7FE8827F82E082F0E943D1C0F
:10171000AA81BB810E94181CEA81FB81A885B9853A
:101720000E94C61BAA85BB85BA93AA93AA85BB85CE
:10173000EC85FD850E9496192296E6EAF3E0D190A9
:10174000E0808FEFE7FE8827F82E082F0E943D1CCF
:10175000AA81BB810E94181CEA81FB81A885B985FA
:101760000E94C61BA885B985BA93AA93AA85BB8592
:10177000EE85FF850E9496192296AE81BF81E4ED29
:10178000F8E30E94471AA885B985BA93AA93A88559
:10179000B985EA85FB850E9496192296AA85BB85A4
:1017A000BA93AA93AA85BB85EC85FD850E945B1937
:1017B0002296E4EAF3E0D190E0808FEFE7FE8827FD
:1017C000F82E082F0E943D1CAA81BB810E94181C84
:1017D000EA81FB81A885B9850E94C61BAE81BF81C5
:1017E000ECEDF8E30E94471AA885B985BA93AA934D
:1017F000A885B985EA85FB850E9496192296AA8557
:10180000BB85BA93AA93AA85BB85EC85FD850E940A
:101810005B192296A885B985BA93AA93AE85BF8530
:10182000EE85FF850E9496192296E2EAF3E0D190B8
:10183000E0808FEFE7FE8827F82E082F0E943D1CDE
:10184000AA81BB810E94181CEA81FB81AC81BD8109
:101850000E94C61BA885B985BA93AA93AE81BF81A1
:10186000EA85FB850E9496192296AE81BF81E4EE3F
:10187000F8E30E94471AA885B985BA93AA93A88568
:10188000B985EA85FB850E94021A2296E0EAF3E018
:10189000D190E0808FEFE7FE8827F82E082F0E9476
:1018A0003D1CAA81BB810E94181CEA81FB81AC818E
:1018B000BD810E94C61BAE81BF81BA93AA93AE813F
:1018C000BF81EE85FF850E9496192296AC81BD816D
:1018D000ECEEF8E30E94471AAE81BF81BA93AA9357
:1018E000AE81BF81E885F9850E9496192296AC8564
:1018F000BD85BA93AA93A885B985EA85FB850E9420
:101900005B192296A885B985E4EFF8E30E94471A8F
:10191000A885B985BA93AA93AE85BF85EA85FB856C
:101920000E945B192296EEE9F3E0D190E080FF245B
:1019300000270E94251CAA81BB810E94181CEA81F5
:10194000FB81AC81BD810E94C61BAC85BD85BA936D
:10195000AA93AE81BF81EA85FB850E9496192296E3
:10196000AE81BF81ECEFF8E30E94471AAC85BD85DC
:10197000BA93AA93A885B985EE85FF850E94021ABD
:101980002296EC85FD85A881B9810E94901B40E0DC
:1019900050E060E070E0A881B9810D911D912D911A
:1019A0003C910E948E1811F00C94E40CA9ECB3E069
:1019B0000D911D912D913C91AE85BF850D931D9389
:1019C0002D933C930C943C0EA885B985E4E0F9E393
:1019D0000E94471AEDEBF3E00E94131C0E943D1C8D
:1019E000AA81BB810E94181CEA81FB81AC81BD8168
:1019F0000E94C61BA885B985BA93AA93AE81BF8100
:101A0000EA85FB850E9446192296AE81BF81ECE0F3
:101A1000F9E30E94471AA885B985BA93AA93A885C5
:101A2000B985EA85FB850E9496192296A885B98515
:101A3000BA93AA93AC85BD85EA85FB850E944619B9
:101A40002296AE81BF81E4E1F9E30E94471AA8859E
:101A5000B985BA93AA93A885B985EA85FB850E94C2
:101A600096192296A885B985BA93AA93AE85BF85A3
:101A7000EA85FB850E94021A2296E885F985AC81E9
:101A8000BD810E94661AAE81BF81ECE1F9E30E943C
:101A9000471AAC81BD81BA93AA93A885B985EE8116
:101AA000FF810E94021A2296EEEAF3E0D190E080D4
:101AB0008FEFE7FE8827F82E082F0E943D1CAA8191
:101AC000BB810E94181CEA81FB81AE81BF810E940C
:101AD000C61BAC85BD85BA93AA93AE81BF81E8854C
:101AE000F9850E9496192296AC85BD85BA93AA9372
:101AF000AE81BF81EE85FF850E9496192296AE8148
:101B0000BF81E4E2F9E30E94471AAC85BD85BA9330
:101B1000AA93A885B985EE85FF850E94021A2296B0
:101B2000ECEAF3E0D190E0808FEFE7FE8827F82E13
:101B3000082F0E943D1CAA81BB810E94181CEA81CB
:101B4000FB81AE81BF810E94C61BAA85BB85BA936B
:101B5000AA93AA85BB85E885F9850E9496192296E5
:101B6000AE81BF81ECE2F9E30E94471AAA85BB85EA
:101B7000BA93AA93A885B985EC85FD850E94021ABF
:101B80002296A885B985BA93AA93AE85BF85EA85C2
:101B9000FB850E945B192296A885B985BA93AA9302
:101BA000AC85BD85EA85FB850E945B192296AE81D6
:101BB000BF81E4EEF8E30E94471AA885B985BA937D
:101BC000AA93A885B985EA85FB850E94021A229608
:101BD000EAEAF3E0D190E0808FEFE7FE8827F82E65
:101BE000082F0E943D1CAA81BB810E94181CEA811B
:101BF000FB81AE81BF810E94C61BAC81BD81E4E345
:101C0000F9E30E94471AAE81BF81BA93AA93AE81CD
:101C1000BF81E885F9850E9496192296A885B98525
:101C2000BA93AA93A885B985EA85FB850E945B19BA
:101C30002296AE81BF81ECE3F9E30E94471AA885A2
:101C4000B985BA93AA93A885B985EA85FB850E94D0
:101C5000021A2296E885F985AE85BF850E94901B01
:101C6000AE85BF850D911D912D913C91A9ECB3E0FE
:101C70000D931D932D933C9380E3481A80E0580AFE
:101C80002E960895A7E5B3E00D911C91003050E029
:101C9000150711F00C94500EA7E5B3E00E941D1734
:101CA00000915002003011F00C94760E82E0809387
:101CB0004F0281E090E0A9E5B3E08D939C9380E032
:101CC00080934B0181E080934C0182E080934D0131
:101CD0000E94590300915103013011F00C94720ECF
:101CE0000E942D030E9410030C947915013011F00D
:101CF0000C949D0E82E080934F0281E090E0A9E574
:101D0000B3E08D939C9381E080934E018091D60344
:101D100080934F018091D5038093500184E080939C
:101D20004E0200915103013011F00C94990E0E9463
:101D30002D030E9410030C947915023011F00C94BD
:101D4000C80E82E080934F0281E090E0A9E5B3E005
:101D50008D939C9382E080934E018091D303809376
:101D60004F018091D203809350018091D1038093E1
:101D7000510185E080934E0200915103013011F032
:101D80000C94C40E0E942D030E9410030C9479152C
:101D9000033011F00C94F30E82E080934F0281E047
:101DA00090E0A9E5B3E08D939C9383E080934E018E
:101DB0008091CF0380934F018091CE038093500197
:101DC0008091CD038093510185E080934E02009174
:101DD0005103013011F00C94EF0E0E942D030E946C
:101DE00010030C947915043011F00C94240F009119
:101DF0004F03023011F00C941D0F00915102063078
:101E000010F00C94120F809151028093D703ECE3F1
:101E1000F0E0A7EDB3E07BE70E94FD180E940F05FC
:101E20000C94190F84E080935503809150038093A4
:101E300056030E9410030C94220FAFE4B3E08C9180
:101E40008F5F8C930C947915053011F00C94470F2B
:101E500082E080934F0281E090E0A9E5B3E08D93AA
:101E60009C9385E080934E018091D70380934F012E
:101E700083E080934E0200915103013011F00C94E5
:101E8000430F0E942D030E9410030C947915063015
:101E900011F00C94860F00914F03023010F40C9453
:101EA0007F0F00915102063010F00C94740F92E0F5
:101EB000A1E5B2E00E943818A8EDB3E08C91837ED2
:101EC0008C930091D80340915102042BA8EDB3E00C
:101ED0000C93EDE3F0E0A8EDB3E07BE70E94FD1882
:101EE0000E940F050C947B0F84E080935503809132
:101EF0005003809356030E9410030C94840FAFE4A8
:101F0000B3E08C918F5F8C930C947915073011F0AE
:101F10000C94B70F82E080934F0281E090E0A9E536
:101F2000B3E08D939C9387E080934E018091D8031A
:101F300080931A01AAE1B1E08C918C718C9392E0AC
:101F4000AAE1B1E00E94581880911A0180934F01D4
:101F500083E080934E0200915103013011F00C9404
:101F6000B30F0E942D030E9410030C9479150830C2
:101F700011F00C94F60F00914F03023010F40C9402
:101F8000EF0F00915102063010F00C94E40F95E031
:101F9000A1E5B2E00E943818A8EDB3E08C918F71F2
:101FA0008C930091D80340915102042BA8EDB3E02B
:101FB0000C93EDE3F0E0A8EDB3E07BE70E94FD18A1
:101FC0000E940F050C94EB0F84E0809355038091E1
:101FD0005003809356030E9410030C94F40FAFE457
:101FE000B3E08C918F5F8C930C947915093011F0CC
:101FF0000C94271082E080934F0281E090E0A9E5E5
:10200000B3E08D939C9389E080934E018091D80337
:1020100080931A01AAE1B1E08C91807E8C9395E0C7
:10202000AAE1B1E00E94581880911A0180934F01F3
:1020300083E080934E0200915103013011F00C9423
:1020400023100E942D030E9410030C9479150A306E
:1020500011F00C94661000914F03023011F00C94B3
:102060005F1000915102083010F00C94541095E06C
:10207000A1E5B2E00E943818A9EDB3E08C918F7110
:102080008C930091D90340915102042BA9EDB3E048
:102090000C93EEE3F0E0A9EDB3E07BE70E94FD18BE
:1020A0000E940F050C945B1084E08093550380918F
:1020B0005003809356030E9410030C946410AFE405
:1020C000B3E08C918F5F8C930C9479150B3011F0E9
:1020D0000C94971082E080934F0281E090E0A9E594
:1020E000B3E08D939C938BE080934E018091D90354
:1020F00080931A01AAE1B1E08C91807E8C9395E0E7
:10210000AAE1B1E00E94581880911A0180934F0112
:1021100083E080934E0200915103013011F00C9442
:1021200093100E942D030E9410030C9479150C301B
:1021300011F00C94D61000914F03023011F00C9462
:10214000CF1000915102053010F00C94C41092E0B1
:10215000A1E5B2E00E943818A9EDB3E08C91837E2E
:102160008C930091D90340915102042BA9EDB3E067
:102170000C93EEE3F0E0A9EDB3E07BE70E94FD18DD
:102180000E940F050C94CB1084E08093550380913E
:102190005003809356030E9410030C94D410AFE4B4
:1021A000B3E08C918F5F8C930C9479150D3011F006
:1021B0000C94071182E080934F0281E090E0A9E542
:1021C000B3E08D939C938DE080934E018091D90371
:1021D00080931A01AAE1B1E08C918C718C9392E00A
:1021E000AAE1B1E00E94581880911A0180934F0132
:1021F00083E080934E0200915103013011F00C9462
:1022000003110E942D030E9410030C9479150E30C7
:1022100011F00C94391180ED809378032A9891E0A5
:10222000A8E7B3E00E94C11791E0AEE7B3E00E94D7
:10223000B6172A9A82E080934F0281E090E0A9E5E8
:10224000B3E08D939C938EE080934E0180917E034A
:1022500080934F0183E080934E020091510301303F
:1022600011F00C9435110E942D030E9410030C9460
:1022700079150F3011F00C9462119FB7F89480918A
:102280006000886180936000877E809360009FBFBC
:1022900080E6809378032A9886EB8093790392E016
:1022A000A8E7B3E00E94C1172A9A0E942C050E9459
:1022B0003705809160008860809360000E94100361
:1022C0000C947915003F11F00C94CB1100914F0341
:1022D000033010F40C94C4118091510280934B018F
:1022E0008091520280934C0100914B01053181E0B5
:1022F00008F080E08F9300914C01053181E008F0F7
:1023000080E09F918923882311F40C94B9110091E6
:102310005202003018F011F00C9490110C94B71187
:1023200082E080934F0281E090E0A9E5B3E08D93D5
:102330009C9384E080934D010E94590300915103C6
:10234000013011F00C94B7110E942D0300914C0143
:10235000003018F011F00C94AF110C94B5110E94DC
:1023600059030E942D030C94A6110E9400030C94A3
:10237000C01184E0809355038091500380935603ED
:102380000E9410030C94C911AFE4B3E08C918F5FED
:102390008C930C9479150C3F11F00C941F1382E070
:1023A00080934F0281E090E0A9E5B3E08D939C9388
:1023B00000915503003011F00C94E611AEE4B1E049
:1023C000EEE4F9E30E9432180C945812013011F037
:1023D0000C94F211AEE4B1E0E4E6F9E30E943218A5
:1023E0000C945812023011F00C94FE11AEE4B1E0DE
:1023F000E2E7F9E30E9432180C945812033011F00E
:102400000C940A12AEE4B1E0E6E8F9E30E94321857
:102410000C945812043011F00C941612AEE4B1E092
:10242000ECE9F9E30E9432180C945812053011F0CF
:102430000C942212AEE4B1E0E0EBF9E30E94321812
:102440000C945812063011F00C942E12AEE4B1E048
:10245000E6ECF9E30E9432180C945812073011F0A0
:102460000C943A12AEE4B1E0E2EEF9E30E943218C5
:102470000C945812083011F00C944612AEE4B1E0FE
:10248000EAEFF9E30E9432180C9458120F3F11F052
:102490000C945212AEE4B1E0E6E1FAE30E94321885
:1024A0000C945812AEE4B1E0E4E2FAE30E94321870
:1024B000AEE4B1E00E943D19ACE1B1E08C938091B3
:1024C0001C0180931B0140911B0101E0041718F0CF
:1024D00011F00C948512ABE1B1E0AD90BB24ADE4FA
:1024E000B1E0AA0DBB1D8C91ABE1B1E0AD90BB2476
:1024F000A2E5B1E0AA0DBB1D8C9380911B01815018
:1025000080931B0110F00C9463128CEF80934E01AA
:1025100080E280934F0180E28093500180E28093BB
:10252000510180E280935201E0E5F3E0A2E3B1E0E3
:102530000E94B118A2E3B1E00E943D19ADE1B1E003
:102540008C9381E080931B0140911D0100911B0140
:10255000041718F011F00C94C712ABE1B1E0AD9084
:10256000BB24A1E3B1E0AA0DBB1D8C91ABE1B1E0AE
:10257000AD90BB24AFE4B1E0AA0DBB1D8C93ABE1E1
:10258000B1E08C918F5F8C9310F40C94A4120091A5
:102590001C0146E0040FAEE4B2E00C93E6E5F3E084
:1025A000A2E3B1E00E94B118A2E3B1E00E943D199C
:1025B000ADE1B1E08C9381E080931B0140911D015E
:1025C00000911B01041718F011F00C940613ABE1F5
:1025D000B1E0AD90BB24A1E3B1E0AA0DBB1D8C918D
:1025E000AEE4B2E0AD90BB24ADE4B1E0AA0DBB1DFA
:1025F0008C93AEE4B2E08C918F5F8C93ABE1B1E051
:102600008C918F5F8C9310F40C94DE12ACE1B1E0EE
:102610008C918D5F8C9300911C0140911D01040FE2
:10262000AFE4B1E00C9300915103013011F00C9430
:102630001B130E942D030E9410030C9479150D3F6B
:1026400011F00C94411382E080934F0281E090E0FE
:10265000A9E5B3E08D939C938DEF80934E0184E0C8
:1026600080934F0183E080934E020091510301302B
:1026700011F00C943D130E942D030E9410030C9442
:1026800079150E3F11F00C948E1400914F03023017
:1026900010F40C94871400915102003011F00C9446
:1026A000BF1300914F03033010F40C94B813009142
:1026B0005202003011F00C9461130E9410030C942C
:1026C000B6130091520243E0040FAAE1B1E00C936B
:1026D00040911A0100914F03041710F40C94B113A8
:1026E00094E180E0A1E0B1E00E94251700911A0179
:1026F000073118F011F00C947F130C94821387E1CA
:1027000080931A0184E080931B0140911A0100918B
:102710001B01041718F011F00C94A813ABE1B1E001
:10272000AD90BB24AFE4B2E0AA0DBB1D8C91ABE130
:10273000B1E0AD90BB24ADEFB0E0AA0DBB1D8C9312
:10274000ABE1B1E08C918F5F8C9310F40C94851306
:10275000E1E0F0E0A1E0B1E07BE70E940E190C940B
:10276000B613AFE4B3E08C918F5F8C930C94BD13E0
:10277000AFE4B3E08C918F5F8C930C94851401309F
:1027800011F00C94DF1300914F03033010F40C94FC
:10279000D8138091520280931601E6E1F0E0A6E1A1
:1027A000B1E07BE70E94FD180E9410030C94DD133A
:1027B000AFE4B3E08C918F5F8C930C94851402305E
:1027C00011F00C940E1400914F03033010F40C948C
:1027D000071400915202023010F00C94FC13809107
:1027E000520280931801E8E1F0E0A8E1B1E07BE754
:1027F0000E94FD180C94031484E08093550380918B
:102800005003809356030E9410030C940C14AFE401
:10281000B3E08C918F5F8C930C948514033011F08E
:102820000C94491400914F03033010F40C9442149B
:102830008091520280931B0100911B01003810F01F
:102840000C943714ABE1B1E00C9142E0049F0C9280
:1028500080911B0180931701E7E1F0E0A7E1B1E06F
:102860007BE70E94FD180E94FD040C943E1484E056
:102870008093550380915003809356030E94100368
:102880000C944714AFE4B3E08C918F5F8C930C945D
:102890008514043011F00C947C1400914F03033024
:1028A00010F40C9475148091520280931B010091D6
:1028B0001B01023010F00C946A1480911B0180936C
:1028C0001901E9E1F0E0A9E1B1E07BE70E94FD1820
:1028D0000C94711484E0809355038091500380938D
:1028E00056030E9410030C947A14AFE4B3E08C9169
:1028F0008F5F8C930C94851484E0809355038091B2
:102900005003809356030E9410030C948C14AFE480
:10291000B3E08C918F5F8C930C9479150F3F11F07D
:102920000C94701500914F03023010F40C9469154B
:1029300082E080934F0281E090E0A9E5B3E08D93BF
:102940009C938FEF80934E018091510280934F01B1
:1029500080E080934E0200915102003011F00C94FF
:10296000EB14A1E0B1E00E943D19ACE1B1E08C9321
:1029700080911C018093500184E080934E0281E09D
:1029800080931B0140911C0100911B01041718F05A
:1029900011F00C94E914ABE1B1E0AD90BB24A0E0E0
:1029A000B1E0AA0DBB1D8C91AEE4B2E0AD90BB24AA
:1029B000ADE4B1E0AA0DBB1D8C93AEE4B2E08C9106
:1029C0008F5F8C93ABE1B1E08C918F5F8C930C9413
:1029D000C2140C945415013011F00C94F814809129
:1029E00016018093500184E080934E020C9454159C
:1029F000023011F00C94051580911801809350015C
:102A000084E080934E020C945415033011F00C9422
:102A10001A150091170142E00E942D19ABE1B1E0B7
:102A20000C9380911B018093500184E080934E02AF
:102A30000C945415043011F00C9427158091190151
:102A40008093500184E080934E020C94541505301D
:102A500011F00C94331580E08093500184E0809352
:102A60004E020C945415063011F00C944B1583E073
:102A70008093500188E3A1E5B1E08C938EE4A2E558
:102A8000B1E08C9381E3A3E5B1E08C9387E0809380
:102A90004E020C94541584E08093550380915003AA
:102AA000809356030E94000300914E02003018F0FC
:102AB00011F00C945D150C946515009151030130D3
:102AC00011F00C9465150E942D030E9410030C94C4
:102AD0006E15AFE4B3E08C918F5F8C930C947915F5
:102AE00080E08093550380915003809356030E94A9
:102AF00010030895F894FFCF303B6D3B444B3152A7
:102B0000493B4B6C696D6173656E736F723B5630F8
:102B1000322E323B313B3134353B313B32313B316C
:102B20002D310000313B61702C7265616420746549
:102B30006D70657261747572653B313B3132353051
:102B4000302C7B2D34302E303020746F2038342ED2
:102B500039397D3B6C696E3B446567430000323B0D
:102B600061702C726561642068756D69646974793F
:102B70003B313B3130303030312C7B302E303030F7
:102B800020746F203130302E3030307D3B6C696ED8
:102B90003B250000333B61702C72656164207072CC
:102BA0006573737572653B313B3131303030303194
:102BB0002C7B302E30303020746F20313130302E6D
:102BC0003030307D3B6C696E3B6850610000343BB7
:102BD0006F612C6F76657273616D706C696E6720C2
:102BE00068756D69646974793B622C7B302C312C7B
:102BF000322C342C382C31367D00353B61612C6110
:102C000073340000363B6F612C6F76657273616DB3
:102C1000706C696E672070726573737572653B6264
:102C20002C7B302C312C322C342C382C31367D003E
:102C3000373B61612C6173360000383B6F612C6F4C
:102C400076657273616D706C696E672054656D7026
:102C50006572617475723B622C7B302C312C322C86
:102C6000342C382C31367D00313B61612C61733856
:102C7000000031303B6F612C6E6F6E2061637469B0
:102C8000762074696D653B622C7B302E352C363294
:102C90002E352C3132352C3530302C313030302C33
:102CA00031302C32307D2C6D730031313B61612C21
:102CB00061733130000031323B6F612C66696C7496
:102CC00065723B622C7B302C322C342C382C313604
:102CD0007D0031333B61612C61733132000031344E
:102CE0003B61612C726561642049443B620032346F
:102CF000303B6C6E2C414E4E4F554E43454D454E2C
:102D000054533B3134353B3231003235323B616113
:102D10002C4C415354204552524F523B32302C6C74
:102D20006173745F6572726F72003235333B61613B
:102D30002C4D594320494E464F3B622C4143544948
:102D4000564500003235343B6B612C494E444956A0
:102D5000494455414C495A4154494F4E3B32302C1D
:102D60004E414D452C44657669636520313B622CAC
:102D70004E554D4245522C313B612C4932432C314A
:102D80003B622C4144524553532C32322C7B302031
:102D9000746F203132377D3B612C53455249414C91
:102DA0002C3100003235353B6C612C494E4449567C
:102DB000494455414C495A4154494F4E3B32302CBD
:102DC0004E414D452C44657669636520313B622C4C
:102DD0004E554D4245522C313B612C4932432C31EA
:102DE0003B622C4144524553532C32322C7B3020D1
:102DF000746F203132377D3B612C53455249414C31
:102E00002C313B622C42415544524154452C302CCC
:102E10007B31393230307D3B332C4E554D4245525B
:102E20005F4F465F424954532C386E3100008E2E5E
:102E30009F2E0895E82DF92D0895ED91FC91EF5FF7
:102E4000FF4FFC93EE93089580E2903019F08D933C
:102E50009A95E9F79C93089581E00090C00007FEE1
:102E60008827089588270090C00007FE089500C0B5
:102E70008091C00087FFFCCF8091C6000895A8EA2A
:102E8000B4E08D91882311F00AD0FBCF08958D9185
:102E900006D03A95E1F708958DE001D08AE00090E0
:102EA000C00005FEFCCF8093C600089588EE93E035
:102EB00089D03197D9F7089500FC05D0089530D016
:102EC00005D001F8F9CF37D03FD00895842F952F42
:102ED000A62FB72FE894452B462B472B11F4689467
:102EE0000895402F512F622F732F0027112722277B
:102EF0003327F0E2440F551F661F771F001F111F75
:102F0000221F331F081B190B2A0B3B0B416028F4AF
:102F1000080F191F2A1F3B1F4E7FFA9559F7089576
:102F20000024E89477FF02C006D0689400F809D026
:102F300010F80124089512D04F5F5F4F6F4F7F4FFD
:102F40000895E89437FF08950095109520953095E1
:102F50000F5F1F4F2F4F3F4F689408954095509536
:102F60006095709508953197F1F708950E94D317F1
:102F70008C910E94D5178D939A95D1F70E94D41702
:102F800008950E94D3178D910E94D5179A95D9F76D
:102F90000E94D4170895259A24982C9A239A229A4D
:102FA0008CE58CBD0895089508958EBD00904D0068
:102FB00007FEFCCF8EB50895689462F80895E894F2
:102FC00062F80895EF93FF93EE27E82BE92B31F099
:102FD000E4ECF9E03197F1F70197D1F7FF91EF9128
:102FE00008958D9187FB16F48FEF01C088278D938C
:102FF0008C9308950D911D912D913C91089501910F
:1030000011912191308108953C932E931E930E933C
:10301000089599275A924A92480E591E08950F9280
:103020001F922F92C801D901489F80014A9F9001A9
:103030004B9F202C499F100D211D321D5A9F202C83
:10304000589F100D211D321D599F200D311D689F65
:10305000200D311D699F300D789F300D2F901F90EE
:103060000F9008950E9480180D920020D9F70895BE
:10307000903029F08C91880F9A95E9F78C930895F8
:10308000903041F00D911C91000F111F9A95E1F7BE
:103090001C930E930895903051F00E94FA17000F80
:1030A000111F221F331F9A95D1F70C94041808950D
:1030B000903029F08C9186959A95E9F78C93089534
:1030C000903051F00E94FA1736952795179507957D
:1030D0009A95D1F70C9404180895903081F00E94CD
:1030E000FA17772737FD70E8072E000C37952795DC
:1030F000179507959A95C1F7372B0C9404180895E6
:10310000C895319600200895040F151F261F371FFC
:103110000895041B150B260B370B0895041715078C
:10312000260737070895000F111F221F331F089528
:1031300000951095209530950F5F1F4F2F4F3F4FF3
:103140000895019110810FC00E94FF170EC00E94C8
:10315000FF1710C00191108117FF05C03FEF2FEF3F
:1031600004C0008111272227332737FF03C0E0DF87
:103170008DE28D93CF92DF92EF92AA24BB24CC24D0
:10318000DD24EE2440E2EAE0FF2755E093E380816E
:10319000890F87FD9F7083FD907F891B81935A95CE
:1031A000A9F7C1DFAA1CBB1CCC1CDD1CEE1C4A9578
:1031B00051F7E894EFE0FF2782910CD0EB30E0F775
:1031C0001EF068948A2D0AD088278D93EF90DF90A7
:1031D000CF900895982F829501D0892F8F70805DB0
:1031E00026F0803309F4089568948D930895F99931
:1031F000FECFE1BDF2BD3196089591E001C092E0AD
:103200007B3751F47FB7F894F2DF8D9180BDFA9A45
:10321000F99A9A95C9F77FBF77270895E8DF8D91CE
:103220007B3729F480BDFA9AF99A8823B9F7772772
:10323000089591E001C092E0DADFF89A80B58D93AD
:103240009A95D1F70895D3DFF89A80B58D938823A6
:1032500019F09A95C1F79D930895FF93881BF9E0A3
:10326000001FFA9511F4FF910895881F841B18F42C
:10327000840F8894F5CF0894F3CF8FEF83959D91B9
:103280009923E1F70895ECD104D01AC10F0101D0C0
:103290001AC1FD01FF93EF9387818F9390E88927EF
:1032A0008783F0010BD08F91EF91FF918783089571
:1032B000D7D104D005C10F0101D005C100E0E7D18D
:1032C00009F008959A01281B390B1AF4D0010F0157
:1032D000F5CF00272733300708F00CC2822F23D107
:1032E00037D145D1372F36270AF469D1F0018081D3
:1032F000A80E8181B81E8281C81E8381D81E848158
:10330000E81E8581F81E86818F708061081F1AF47F
:1033100056D180E8682705FF02C081E026D104FD70
:1033200001C080D13EC19CD104D0CAC00F0101D0E0
:10333000CAC008E1ACD109F00895480F591F4F5F8A
:10334000534067276F935F934F9390D12227F001EB
:10335000F5D093E0110F331F441F551F661F771FD1
:10336000881F9A95B9F7FD01A7E0BB279191A1307D
:1033700011F49F709061992301F1939FA00CB11CEF
:10338000BB1F959FB695C01CD11CBB1F979FB695C0
:10339000E01CF11C0B1F919F200DA11CBB1F949FD3
:1033A000B695B01CC11CBB1F969FB695D01CE11CE6
:1033B000BB1F989FB695F01C011DAA9549F02A2DB8
:1033C000AB2CBC2CCD2CDE2CEF2CF02E0027CECF3E
:1033D0004F915F916F9104FB16F0DAD002C04F5FFE
:1033E0005F4FDFC0FF9309901124F8E0069408F4C2
:1033F000190E17940794FA95D1F7FF91089530D1DB
:1034000004D05EC00F0101D05EC004E240D109F0DB
:103410000895481B590B41505C4F67276F935F938A
:103420004F93F00180D02FEFFD0188D0ADE3BA2F8C
:10343000B77019F420952F932FEFA116B306C40689
:10344000D506E606F706080738F0A11AB30AC40A3B
:10345000D50AE60AF70A080B221FAA0CBB1CCC1CD3
:10346000DD1CEE1CFF1C001FAA9509F72095AF90EC
:10347000BF90CF90DF90EF90FF900F914F915F91B1
:103480006F9104FB1EF084D0415050408AC088E008
:1034900005900D928A95E1F718970895A082B18260
:1034A000C282D382E482F582068317830895A080C6
:1034B000B180C280D380E480F580068117810895B1
:1034C000EC81FD81EBCFE881F981E8CF88E0919133
:1034D0009D938A95E1F7189738970895868197818B
:1034E000332797FB37F988949F7721F4882311F4C9
:1034F000326008952FEE28172FE7290740F42FE0B8
:103500002823089411F43160089534600895807F71
:10351000969587959695879596958795969587958F
:10352000989488940895A080B180C280D380E4806C
:10353000F58006810F700061222708951081318186
:10354000428153816481758186818F708061089585
:10355000883050F02A2DAB2CBC2CCD2CDE2CEF2C3F
:10356000F02E00278850F4CF0895689401C0E894A5
:10357000882369F00595F794E794D794C794B79496
:10358000A794279516F44F5F5F4F8A95F1CF089562
:10359000220FAA1CBB1CCC1CDD1CEE1CFF1C001F38
:1035A000089501D025C0203848F011F4A0FE06C0CF
:1035B000089412D005FF089581E0D7CF0895209593
:1035C000A094B094C094D094E094F09400950F929D
:1035D00000240894201D0F9050F40F920024A01C8A
:1035E000B01CC01CD01CE01CF01C001D0F900895E6
:1035F0005523B2F0352F342B99F03FEF431737E0C6
:10360000530778F4440F551F440F551F440F551F9F
:10361000440F551F0F7E042B152F67FB17F90895D4
:1036200025C02BC087E03F2D303230E0030778F40F
:103630000F2DFE2CED2CDC2CCB2CBA2CA22E22270D
:10364000485050408A9579F7442755270FC088E0A5
:1036500004FD05C09DDF415050408A95C9F708958B
:10366000EA81FB81A881B9810F010895AA24BB24B6
:1036700065017501850198940895F8DF00EF1FE753
:1036800008958FEFA82EB82EF3DF1F77089526DF59
:10369000632FAC01FD0122DF732F00C0372F362BC3
:1036A0003F7709F4089532FDECCF262F2727372FD7
:1036B00060FB32F961FB33F93F70E6EFF7E300237B
:1036C00011F427FD3C96030FE00F0027F01F8491B3
:1036D00087FDD7CF86FDD1DF85FDC8DF84FD0AD009
:1036E00083FD0AD082FD0AD081FD0BD080FD0BD076
:1036F00098940895F001DBCEFD01D9CE67FB17F950
:10370000089577FBFCCF27FBFACFC094D094E094C8
:10371000F09481E0C80E8827D81EE81EF81E089590
:10372000DDDE31FD19C032FD17C030FD2AC08E5FCD
:10373000934092F0992329F5803238F4F4DE819594
:103740008B5D06DFE89413DF0CC0CC24C094DC2C26
:10375000EC2CFC2CF69412C0CC24DD24EE24FF24A7
:1037600010C080E8B81650F031F4BA28B22AB81662
:1037700011F4C0FC03C0CDDFF7FCE7CF37FF01C079
:10378000C4DFCD92DD92ED92FD9208956FDF0E942D
:10379000131C602F6078FF0C001F0894F794402FD3
:1037A000002311F463DF17C00F3F41F4FF2021F421
:1037B00064DF67FB17F90FC064DF0DC01127002716
:1037C00085E0DD0CEE1CFF1C001F8A95D1F7552704
:1037D00040585C4F0DDFFD0161CEB7FE089590E8C3
:1037E000B91611F4D0FE08959FEFD91AE90AF90A23
:1037F00009F403950895000810001010100008083F
:10380000200000081000108010000808200000416F
:1038100020004141800020802000002044004180A1
:10382000440020208000D190E190F1900191089512
:10383000DD92ED92FD920C930895FF0C90E8902795
:10384000110F9795F794092F08951127BD2CDE2CA1
:10385000EF2CF02E0EE1FF2039F4FE2CED2CDB2CAA
:10386000BB240850C2F72CC032F00A95BB0CDD1CFB
:10387000EE1CFF1CF9CFB1DFE0CF102FBD2CDE2CEA
:10388000EF2CF02E11234AF4B094D094E094F094ED
:103890009FEFB91AD90AE90AF90A0EE1FF2039F4B3
:1038A000FE2CED2CDB2CBB240850C2F709C032F0F3
:1038B0000A95BB0CDD1CEE1CFF1CF9CF8EDFBDCFC3
:1038C000DD24EE24FF2400271127089500000000C6
:1038D0000040FF4000000000000000410000000028
:1038E00000002042000000000000704000000000C6
:1038F0000000B040000000000000E04200000000B6
:103900000000004200000000000030410000000004
:103910000000E04100000000006AA8400000000034
:103920000000C040000000000000804100000000D6
:103930000000204100000000000030409A99999951
:1039400099993940446576696365203100003A20D1
:10395000636F6D6D616E64206E6F7420666F756E3F
:10396000643A20003A20493243206572726F723AFD
:1039700020003A207761746368646F672072657312
:1039800065743A2000003A20636F6D6D616E6420AB
:103990007761746368646F673A2000003A20706151
:1039A00072616D65746572206572726F723A200083
:1039B0003A2074782074696D6520746F6F206C6F85
:1039C0006E673A2000003A206E6F742076616C6951
:1039D0006420617420746861742074696D653A2094
:1039E00000003A206932635F627566666572206F17
:1039F000766572666C6F773A2000493263206E6F8D
:103A00007420726561647920746F207265636569E2
:103A100076653A2000003A206E6F206572726F72F0
:103A20003A2000003A206F74686572206572726FE8
:043A3000723A2000C6
:00000001FF
