:100000000C943800189500000C946B0618950000AD
:10001000189500001895000018950000189500002C
:10002000189500001895000018950000189500001C
:10003000189500001895000018950000189500000C
:1000400018950000189500001895000018950000FC
:100050000C94910318950000189500001895000065
:1000600018950000189500000C940C0418950000D9
:100070008FEF8DBFC8EDE0EC4E2E80E18EBFD0E15A
:10008000F0E15F2EA89584B7082E882784BF88E109
:1000900099278093600090936000EEEFFFE0A0E06E
:1000A000B1E088278D933197E9F780E48093C4000D
:1000B00080E08093C50088E18093C100662484E6D7
:1000C00090E00E947817E0E0FF270081A9E4B1E00A
:1000D0000C93A9E4B1E00C9103FB16F00C947900A9
:1000E00082E08093950380919003809396030C9413
:1000F0007C008FEF809395030E945E172298429AAE
:100100003F9A479A2198299A23982B9A74B7777F18
:1001100074BF8FE197E080936000909360007894C3
:100120007091C10070687093C1007091BC007160E3
:100130007093BC0080916900837F88608093690020
:1001400080E08093800082E08093810082E0809351
:1001500081007894E99A53985B9A1A990C94B200AA
:100160000E94B001E1E0F0E0A0E1B0E00E9462187E
:10017000053011F40C94BE000E94B0010E941202DE
:1001800080916000886080936000A8E8B1E08C9165
:100190008F5F8C93009188010F3F11F00C945E01EA
:1001A000A7E8B1E08C918F5F8C93009187010A35AD
:1001B00011F00C94040100919903003018F011F033
:1001C0000C94E4000C940201A9E9B3E08C918F5FD8
:1001D0008C93009199030C3318F011F00C94F200F9
:1001E0000C94020181E080938F0281E08093900261
:1001F00080E08093990385E080939503809190033C
:10020000809396030C945E01043B11F00C9433012F
:1002100000916101013081E009F080E08F93A6E256
:10022000B0E00C9101FB81E00EF480E09F91892306
:10023000882311F40C942E01A9E8B1E08C918F5F12
:100240008C9300918901053018F011F00C942A016B
:100250000C942C010E94F4030C94310180E08093F3
:1002600089010C945E010F3F11F00C945E01A7E927
:10027000B3E00D911C91003050E0150718F011F01B
:100280000C9444010C944801A7E9B3E00E94D616EF
:10029000A7E9B3E00D911C910C3350E0150718F05D
:1002A00011F00C9455010C945E0183E0809395034A
:1002B00080919003809396030E94BB020E94B30634
:1002C00000919C03013011F00C946E0100919E038B
:1002D000003011F00C946E010E94EB080091910324
:1002E000003018F011F00C9477010C94AD0180E00F
:1002F0008093910300919002013018F011F00C945A
:1003000083010C948F0180E080938E0186E08093BE
:10031000950380919003809396030C94AD01A7E917
:10032000B3E00D911C91003050E0150711F00C94D2
:100330009D01A7E9B3E00E94D61680918E018093BB
:100340008D01009191020E3F11F00C94AB010E94BF
:10035000D7130C94AD010E94D713A8950C94C0003C
:10036000E1E0F0E00E94E916E7E1F0E0A0E1BB2760
:1003700081E08C937BE70E944218A42DB52DE4E325
:10038000F5E30E94AF17E2E0F0E0D2017BE70E94C4
:100390005718E8E1F0E0A0E1BB2782E58C937BE70A
:1003A0000E944218E9E1F0E0A0E1BB2781E08C93D4
:1003B0007BE70E944218EAE1F0E0A0E1BB2781E080
:1003C0008C937BE70E944218EBE1F0E0A0E1BB27B1
:1003D00081E08C937BE70E94421881E080939D032B
:1003E00081E080939A03ECE1F0E0A0E1BB2781E09B
:1003F0008C937BE70E944218A42DB52DEEE3F5E324
:100400000E94AF17EDE1F0E0D2017BE70E945718A0
:10041000E1E0F0E0A0E1BB2785E08C937BE70E9460
:100420004218089581E080939B03E7E1F0E0AFE597
:10043000B1E00E946218E2E0F0E0AAE4B1E094E1E9
:100440000E946C18E8E1F0E0A0E6B1E00E946218BA
:10045000E9E1F0E0A1E6B1E00E946218EAE1F0E033
:10046000A3E6B1E00E946218EBE1F0E0A4E6B1E09F
:100470000E94621880919D0380939C030E94D00586
:1004800081E08093900380E08093960380E08093E6
:100490008F01ECE1F0E0AEE9B3E00E946218EDE11B
:1004A000F0E0AFE9B3E094E00E946C180E94BB0258
:1004B00081E080938F0281E08093900280E08093BE
:1004C00099030E94F40380E08093870180E0809389
:1004D000880181E08093670100916701003011F08D
:1004E0000C947C0200E019EE24EA35E3AAE1B4E0C2
:1004F0000D931D932D933C931B990C94840280E0E3
:1005000080939A030C94870281E080939A0380E0A1
:100510008093AC0380E08093120480E08093130406
:1005200080E08093140480E08093150481E0809340
:100530009E0380E08093160480E08093180488EB8B
:100540009BE0A6E2B4E08D939C9388EB9BE0A8E24D
:10055000B4E08D939C9388EB9BE0A0E2B4E08D9394
:100560009C9388EB9BE0AFE2B4E08D939C9388EC86
:1005700080932A04089580E080938D0180E0809329
:100580008E0181E080938F0280E090E0A7E9B3E0E4
:100590008D939C93A0E9B3E08C918F5F8C934091F5
:1005A000960300919003041711F00C94DD0280E093
:1005B000809396038FEF8093950308958091900226
:1005C00081508093900281E0809368014091900275
:1005D00000916801041718F011F00C941A03A8E6B2
:1005E000B1E0AD90BB24AFE8B1E0AA0DBB1D8C918A
:1005F0008093690100919B03003011F00C940D036E
:1006000000919A03013011F00C940B0331E0A9E63C
:10061000B1E00E94DD160C94120331E0A9E6B1E0CE
:100620000E94DD16A8E6B1E08C918F5F8C9310F4E8
:100630000C94E60200919B03003011F00C942A0305
:1006400000919A03003011F00C9428030E94E307F4
:100650000C94400300919C03013011F00C94400372
:1006600000919E03033010F00C943A030E94E307BC
:100670000C944003033011F00C9440030E94440A90
:1006800081E080938F0281E08093900280E08093EC
:1006900099030895E4EBF8E280E090E00E94B91736
:1006A000A1E9B2E00E94AF17A1E9B2E00E9486186A
:1006B000A9E6B1E08C9380E080939001809169017C
:1006C0008093910183E08093900281E080936801A0
:1006D0004091690100916801041718F011F00C9421
:1006E0009003A8E6B1E0AD90BB24A0E9B2E0AA0D6A
:1006F000BB1D8C91A0E9B2E0AD90BB24AFE8B1E0A6
:10070000AA0DBB1D8C93A0E9B2E08C918F5F8C93F6
:10071000A8E6B1E08C918F5F8C9310F40C94680381
:1007200008950F921F922F923F924F925F927F9265
:10073000AF92BF92CF92DF92EF92FF920F931F93EF
:100740002F933F934F935F936F937F938F939F93D9
:10075000AF93BF93CF93DF93EF93FF938FB78F93B5
:10076000A7E6B1E08091C6008C9300916201013050
:1007700011F00C94D40300918E010A3F10F00C94F8
:10078000C603AEE8B1E08C918F5F8C9380916701D6
:10079000AEE8B1E0AD90BB24A0E9B2E0AA0DBB1D6C
:1007A0008C9381E0809391038F918FBFFF91EF91A4
:1007B000DF91CF91BF91AF919F918F917F916F9179
:1007C0005F914F913F912F911F910F91FF90EF906B
:1007D000DF90CF90BF90AF907F905F904F903F9011
:1007E0002F901F900F90189580E08093890170E002
:1007F0007093B90070E07093B90071E17093B80024
:1008000070E87093BB00A0E6B1E08C918093BA00D1
:1008100075E47093BC0008950F921F922F923F923F
:100820004F925F927F92AF92BF920F931F932F933D
:100830003F934F935F936F937F938F939F93AF9368
:10084000BF93CF93DF93EF93FF938FB78F93009175
:10085000B9004CEF0423A7E6B1E00C9300916701C7
:10086000003611F00C94390475EC7093BC000C94B4
:100870009805083611F00C94420475EC7093BC0096
:100880000C949805003711F00C944B0475EC7093A0
:10089000BC000C949805083711F00C94540475ECC6
:1008A0007093BC000C949805003811F00C947604F9
:1008B00000918E010A3F10F00C946304AEE8B1E0A1
:1008C0008C918F5F8C93AEE8B1E0AD90BB24A0E932
:1008D000B2E0AA0DBB1D8091BB008C9381E0809398
:1008E000910375EC7093BC000C949805083811F0D6
:1008F0000C94980400918E010A3F10F00C9485042A
:10090000AEE8B1E08C918F5F8C93AEE8B1E0AD9032
:10091000BB24A0E9B2E0AA0DBB1D8091BB008C9363
:1009200081E08093910375EC7093BC000C94980562
:10093000003911F00C94BA0400918E010A3F10F0B6
:100940000C94A704AEE8B1E08C918F5F8C93AEE875
:10095000B1E0AD90BB24A0E9B2E0AA0DBB1D80912F
:10096000BB008C9381E08093910375EC7093BC0085
:100970000C949805083911F00C94DC0400918E0158
:100980000A3F10F00C94C904AEE8B1E08C918F5F7F
:100990008C93AEE8B1E0AD90BB24A0E9B2E0AA0D23
:1009A000BB1D8091BB008C9381E08093910375EC1B
:1009B0007093BC000C949805003A11F00C94E50477
:1009C00075EC7093BC000C949805083A11F00C94E7
:1009D00018054091900200918F02041781E008F001
:1009E00080E08F9300916101013081E009F080E0A7
:1009F0009F918923882311F40C941005AFE8B2E08D
:100A0000AD90BB24AFE8B1E0AA0DBB1D8C918093E3
:100A1000BB00AFE8B2E08C918F5F8C930C94130510
:100A200070E87093BB0075EC7093BC000C94980553
:100A3000003B11F00C944B054091900200918F0205
:100A4000041781E008F080E08F930091610101308C
:100A500081E009F080E09F918923882311F40C94B0
:100A60004305AFE8B2E0AD90BB24AFE8B1E0AA0D1A
:100A7000BB1D8C918093BB00AFE8B2E08C918F5F7F
:100A80008C930C94460570E87093BB0075EC7093E2
:100A9000BC000C949805083B11F00C947E05409125
:100AA000900200918F02041781E008F080E08F939C
:100AB00000916101013081E009F080E09F9189237C
:100AC000882311F40C947605AFE8B2E0AD90BB2416
:100AD000AFE8B1E0AA0DBB1D8C918093BB00AFE8DD
:100AE000B2E08C918F5F8C930C94790570E87093D1
:100AF000BB0075EC7093BC000C949805003C11F0A1
:100B00000C948A0570E87093BB0075EC7093BC0080
:100B10000C949805083C11F00C94960570E87093BD
:100B2000BB0075EC7093BC000C9498050E94F40314
:100B30004091900200918F02041710F40C94B405B8
:100B400081E080938F0281E08093900280E0809327
:100B5000990300918C01003018F011F00C94B2054B
:100B60000C94B4050E944A038F918FBFFF91EF91BF
:100B7000DF91CF91BF91AF919F918F917F916F91B5
:100B80005F914F913F912F911F910F91BF90AF9027
:100B90007F905F904F903F902F901F900F901895EF
:100BA00080E08093620100916301013081E009F0EF
:100BB00080E08F9300916401013081E009F080E0D2
:100BC0009F91892B882311F40C94E90581E080938F
:100BD000620100916101013081E009F080E08F93B2
:100BE00000916201013081E009F080E09F91892B42
:100BF000882311F40C94FC0500919C03013011F042
:100C00000C940206089581E08093670180E0809350
:100C1000680100916701003011F00C941A060091F0
:100C20009A03003011F00C94180681E0809368015B
:100C30000C94230600919C03013011F00C942306C0
:100C400081E08093680100916801013011F00C94FB
:100C500039060091A403003011F00C9433060E9471
:100C6000B8090C943906033011F00C9439060E942F
:100C7000520A089591E0A6EAB3E00E9454179091B9
:100C8000AC03ADEAB3E00E944917089591E0A6EAEB
:100C9000B3E00E945417089592E0A6EAB3E00E94E0
:100CA0005417089594E0A6EAB3E00E9454170895FB
:100CB0009091AC03A0E9B1E00E945417089591E02F
:100CC000A6EAB3E00E94541790911304ADEAB3E092
:100CD0000E94491708950F921F922F923F924F92B0
:100CE0005F927F92AF92BF920F931F932F933F9388
:100CF0004F935F936F937F938F939F93AF93BF9324
:100D0000CF93DF93EF93FF938FB78F93A4E8B0E077
:100D10008D919C91AEE1B4E08D939C9380E090E046
:100D2000909385008093840082E0809381008F916E
:100D30008FBFFF91EF91DF91CF91BF91AF919F91C5
:100D40008F917F916F915F914F913F912F911F9163
:100D50000F91BF90AF907F905F904F903F902F90FA
:100D60001F900F901895EEE1F4E0D190E080FF2401
:100D700000270E943419AFE7B1E00E94D11880E04B
:100D800090E0AEE1B4E08D939C93EFE7F1E00E9438
:100D9000C718E8E1F5E30E947F1A0E94AE1818F028
:100DA00011F00C94D5060C94A30700912A0400308E
:100DB00011F00C949E07ECE1F5E30E947F1AEFE737
:100DC000F1E00E94C7180E94DD19EDE0F0E0AFE706
:100DD000B1E00E942E18EFE7F1E00E94CC18E0E2AB
:100DE000F5E30E94721A0E948419EDE0F0E0AFE78B
:100DF000B1E00E942E18EFE7F1E00E94C718E4E28C
:100E0000F5E30E947F1A0E94AE1880E010F009F00E
:100E100081E08F93EFE7F1E00E94C718E8E2F5E385
:100E20000E947F1A0E94AE1881E008F080E09F9136
:100E30008923882311F40C949C07EFE7F1E00E94CA
:100E4000DC18ADE6B1E0DD92EC92ADE6B1E00D91DB
:100E50001C910859174BA0E2B4E00D931C93A6E235
:100E6000B4E04D915C91A0E2B4E00D911C910417A7
:100E7000150710F00C944407A0E2B4E08D919C910A
:100E8000A6E2B4E08D939C93A8E2B4E04D915C910E
:100E9000A0E2B4E00D911C910417150718F011F0B1
:100EA0000C9454070C945C07A0E2B4E08D919C91E3
:100EB000A8E2B4E08D939C93AFE2B4E00D911C9155
:100EC0002227332748EE53E060E070E00E948C1741
:100ED000ABE2B4E00D931D932D933D93ABE2B4E0F0
:100EE0000D911D912D913C91A0E2B4E04D915C914A
:100EF000662777270E94C117ABE2B4E00D931D93DC
:100F00002D933D93ABE2B4E00D911D912D913C9159
:100F100049EE53E060E070E00E94F916ABE2B4E005
:100F20004D935D936D937D93ABE2B4E08D919C9175
:100F3000AFE2B4E08D939C930C94A30780912A04B4
:100F4000815080932A04089581E88093A60380E865
:100F50008093A7030E944C06089581E88093A6031E
:100F600081E88093A7030E944C06089581E880934E
:100F7000A60383E88093A7030E944C06089581E8A6
:100F80008093A60385E88093A7030E944C060895EA
:100F900082E18093A6038FEF8093A7030E944C0603
:100FA00008958DE08093A60380E08093A7030E94BC
:100FB0004C0608958DE08093A60380E88093A703F4
:100FC0000E944C0608950E94AD078DE88093A60309
:100FD00080E88093A7030E944C060E944C06009173
:100FE0009B03003011F00C94FE0700918E0141E04C
:100FF000041BA7E1B4E00C930C94050800918F0248
:1010000041E0041BA7E1B4E00C9381E08093680108
:1010100081E080931904AFE9B3E00E948618A7E647
:10102000B1E08C930091170440916701040FACEA82
:10103000B3E00C938091AC038093680100919B0313
:10104000003011F00C9451088091170480936901CD
:101050004091690101E0041718F011F00C944F0859
:10106000A9E6B1E0AD90BB24A0E9B2E0AA0DBB1D9A
:101070008C91A8E6B1E0AD90BB24AFE8B1E0AA0D39
:10108000BB1D8C9380916801815080936801809191
:10109000690181508093690110F00C9428080C9428
:1010A0007C0880911704809369014091690101E0F7
:1010B000041718F011F00C947C08A9E6B1E0AD908B
:1010C000BB24AFE8B1E0AA0DBB1D8C91A8E6B1E04E
:1010D000AD90BB24AFE8B1E0AA0DBB1D8C9380910D
:1010E00068018150809368018091690181508093EB
:1010F000690110F00C94550881E0809369014091DA
:10110000670100916901041718F011F00C94A2080E
:10111000A9E6B1E0AD90BB24AEE9B3E0AA0DBB1DDA
:101120008C91A9E6B1E0AD90BB24AFE8B1E0AA0D87
:10113000BB1D8C93A9E6B1E08C918F5F8C9310F46A
:101140000C947F0880E880939001009117044091EF
:101150006701040FA1E9B1E00C930E94580682EAEE
:101160008093A603809117048093A7030E944C06E6
:101170000E94DA070E94B6078AEF70E0A1E9B2E0A8
:101180000E943518089582E18093A6030E943A06D2
:101190008091AD0380936701A7E6B1E08C918870E0
:1011A0008C9300916701083011F00C94EA0881E0FB
:1011B0008093A60380E88093A7030E94C80781E07C
:1011C00090E00E9478170E94AD070E94BF0780E060
:1011D00080931904089582E18093A60381E08093AF
:1011E000AC030E943A060091AD0340E40423A7E655
:1011F000B1E00C9300916701003411F00C94B70931
:101200000091AD0340E30423A7E6B1E00C93009105
:101210006701003911F00C94AD0983E18093A603B6
:101220000E943A068091AD03809313048DE8809369
:10123000A60380E08093A7030E944C060E945F06ED
:1012400081E08093680181E08093670100916701EC
:10125000043018F011F00C944E09A7E6B1E0AD90FF
:10126000BB24ACEAB3E0AA0DBB1D4C91A7E6B1E0EC
:10127000AD90BB24AEE9B3E0AA0DBB1D0C910417E1
:1012800011F00C94460980E080936801A7E6B1E074
:101290008C918F5F8C9310F40C94260900911304A9
:1012A00044E0041BA8E6B1E00C9385E0809369015B
:1012B00081E080938E0181E0809367014091680115
:1012C00000916701041718F011F00C94A509009122
:1012D0009B03013011F00C948609A9E6B1E0AD90B2
:1012E000BB24ACEAB3E0AA0DBB1D8C91A7E6B1E02C
:1012F000AD90BB24A0E9B2E0AA0DBB1D8C93AEE873
:10130000B1E08C918F5F8C930C949809A9E6B1E0C1
:10131000AD90BB24ACEAB3E0AA0DBB1D8C91A7E64F
:10132000B1E0AD90BB24AFE8B1E0AA0DBB1D8C933A
:10133000A9E6B1E08C918F5F8C93A7E6B1E08C9128
:101340008F5F8C9310F40C945E0900919B03003026
:1013500011F00C94AD090E94DE020E94C8078DE0D6
:101360008093A60380E08093A7030E944C06089513
:1013700008950E94A40786E88093A60380911B0429
:101380008093A7030E944C0687E88093A603809170
:101390001C048093A7030E944C0688E88093A60350
:1013A00080911D048093A7030E944C060E94BF07F2
:1013B00008950E94A40786E08093A60383E08093AB
:1013C000AC030E943A06ECE2F5E30E947F1AEDEAD4
:1013D000F3E0D080EE24FF2400270E944C190E94E5
:1013E000DD19EDE0F0E0AFE7B1E00E942E18E0E398
:1013F000F5E30E947F1AEEEAF3E0D080EE24FF24AA
:1014000000270E944C190E94DD19EDE0F0E0A3E8EE
:10141000B1E00E942E18E3E8F1E00E94CC18EFE75B
:10142000F1E00E94C7180E94241AEDE0F0E0AFE757
:10143000B1E00E942E18EFEAF3E0D080EE24FF2402
:1014400000270E944C190E94D618EFE7F1E00E9495
:10145000C7180E94241AEDE0F0E0AFE7B1E00E9467
:101460002E18EFE7F1E00E94DC18AAE1B4E0EDE00D
:10147000FF270E942E180E94BF07089591E0ADEA51
:10148000B3E00E944917089580EA8093A60384E0A0
:101490008093A7030E944C0681EE8093A6030E94CE
:1014A00046060895089581E08093990380E0809333
:1014B0008B0181E080938C0182E080938F010E94F8
:1014C0004A030E94DE020E94BB02089581E08093DD
:1014D0009001809121048093910180912004809358
:1014E000920184E0809390020E94DE020E94BB027F
:1014F000089582E080939001809127048093910168
:10150000809126048093920184E0809390020E944F
:10151000DE020E94BB02089583E0809390018091D7
:10152000290480939101809128048093920184E0A2
:10153000809390020E94DE020E94BB02089584E024
:1015400080939001809130048093910180912F04C9
:101550008093920184E0809390020E94DE020E94B8
:10156000BB02089500919102013011F00C94CE0A53
:1015700008EB1BE020E030E0ABE2B4E00D931D93FC
:101580002D933C9380E797E1A6E2B4E08D939C9382
:1015900080E090E0A8E2B4E08D939C930E94BB02AF
:1015A000089500919A03003011F00C94050B0091FE
:1015B0008D01023010F40C94030B00919202043060
:1015C00010F00C94FA0A4091920200919E030417C5
:1015D00011F40C94F80A8091920280939E03ECE13E
:1015E000F0E0A2E9B2E07BE70E9442180C94AD0063
:1015F0000C94010B84E08093950380919003809379
:1016000096030E94BB020C940E0B86E08093950318
:1016100080919003809396030E94BB0208950091ED
:101620009A03003011F00C94270B81E0809399030A
:1016300087E08093900181E08093910183E0809323
:1016400090020E94DE020E94BB020C94300B86E0E6
:101650008093950380919003809396030E94BB0230
:10166000089500919A03003011F00C94970B0091AB
:101670008D01023010F40C94950B0091920241E020
:10168000040FA7E6B1E00C9300916701053018F054
:1016900011F00C948C0B4091670100918D0104179F
:1016A00010F40C948A0B81E08093680183E08093AE
:1016B00067014091670100916701041718F011F06C
:1016C0000C94810BA7E6B1E0AD90BB24A0E9B2E099
:1016D000AA0DBB1D8C91A8E6B1E0AD90BB24AEE98C
:1016E000B3E0AA0DBB1D8C93A8E6B1E08C918F5F8F
:1016F0008C93A7E6B1E08C918F5F8C9310F40C94DF
:10170000590BEDE1F0E0AFE9B3E07BE70E94571839
:101710000E94BB020C94950B84E08093950380910A
:101720009003809396030E94BB020C949E0B86E06C
:101730008093950380919003809396030895009180
:101740009A03003011F00C94EA0B81E08093990326
:1017500089E080939001AFE9B3E00E948618A1E987
:10176000B1E08C9383E08093680181E0809367010E
:101770004091910100916701041718F011F00C9449
:10178000E00BA7E6B1E0AD90BB24AEE9B3E0AA0D53
:10179000BB1D8C91A8E6B1E0AD90BB24AFE8B1E0F1
:1017A000AA0DBB1D8C93A8E6B1E08C918F5F8C9342
:1017B000A7E6B1E08C918F5F8C9310F40C94B80B7A
:1017C00080916801809390020E94DE020E94BB0219
:1017D0000C94F30B86E080939503809190038093A3
:1017E00096030E94BB02089500919A03003011F005
:1017F0000C94760C00918D01033010F40C94740C51
:10180000A2E9B2E00C9111272227332740E051E0F2
:1018100060E070E00E948C17AAE1B4E00D931D9384
:101820002D933D93AAE1B4E00D911D912D913C9132
:10183000A3E9B2E04C915527662777270E94C1178C
:10184000AAE1B4E00D931D932D933D9347E25AE531
:1018500069E070E0AAE1B4E00D911D912D913C91F9
:10186000041715072607370710F00C946D0CAAE132
:10187000B4E00D911D912D913C9140E454E76AE252
:1018800078E00E94C117AAE1B4E00D931D932D9357
:101890003D93AAE1B4E00D911D912D913C914EE351
:1018A00050E060E070E00E948C17AAE1B4E00D9374
:1018B0001D932D933D93E2E2F0E0AAE1B4E094E0C1
:1018C0007BE70E94451800919E03003011F00C94B4
:1018D0006B0C0E94B9090C94740C84E080939503FE
:1018E00080919003809396030C947F0C86E0809304
:1018F000950380919003809396030E94BB02089504
:1019000000919A03003011F00C94C10C81E0809397
:1019100099038BE080939001AAE1B4E00D911D91B1
:101920002D913C9140E454E76AE278E00E94C617AA
:10193000A3E7B1E00D931D932D933D93A3E7B1E091
:101940000D911D912D913C914EE350E060E070E0CF
:101950000E94F916A3E7B1E04D935D936D937D93DB
:101960008091730180939101809174018093920121
:1019700084E0809390020E94DE020E94BB020C94DD
:10198000CA0C86E080939503809190038093960320
:101990000E94BB02089500919A03003011F00C944C
:1019A0004D0D00918D01043010F40C944B0DA2E903
:1019B000B2E00C9111272227332740E051E060E08C
:1019C00070E00E948C17AAE1B4E00D931D932D9353
:1019D0003D93AAE1B4E00D911D912D913C91A3E9B5
:1019E000B2E04C915527662777270E94C117AAE1DC
:1019F000B4E00D931D932D933D9346E75DE46CE1B8
:101A000070E0AAE1B4E00D911D912D913C91041775
:101A100015072607370710F00C94440DAAE1B4E02F
:101A20000D911D912D913C9140E85AE160E778E1DC
:101A30000E94C117AAE1B4E00D931D932D933D932D
:101A4000AAE1B4E00D911D912D913C914EE350E03F
:101A500060E070E00E948C17AAE1B4E00D931D9342
:101A60002D933D93E2E2F0E0AAE1B4E094E07BE75D
:101A70000E94451800919E03003011F00C94420D15
:101A80000E94B9090C944B0D84E0809395038091DA
:101A90009003809396030C94560D86E080939503F3
:101AA00080919003809396030E94BB020895009159
:101AB0009A03003011F00C949C0D81E080939903FF
:101AC0008DE080939001AAE1B4E00D911D912D91DC
:101AD0003C9140E85AE160E778E10E94C617A3E72D
:101AE000B1E00D931D932D933D93A3E7B1E00D91CC
:101AF0001D912D913C914EE350E060E070E00E941A
:101B0000F916A3E7B1E04D935D936D937D938091BA
:101B1000730180939101809174018093920180916F
:101B200075018093930185E0809390020E94DE020C
:101B30000E94BB020C94A50D86E0809395038091D2
:101B40009003809396030E94BB02089500919A032C
:101B5000003011F00C94280E00918D01043010F427
:101B60000C94260EA2E9B2E00C911127222733270C
:101B700040E051E060E070E00E948C17AAE1B4E020
:101B80000D931D932D933D93AAE1B4E00D911D910A
:101B90002D913C91A3E9B2E04C9155276627772718
:101BA0000E94C117AAE1B4E00D931D932D933D93BC
:101BB0004FE550E96FE070E0AAE1B4E00D911D91AE
:101BC0002D913C91041715072607370710F00C9448
:101BD0001F0EAAE1B4E00D911D912D913C9140E0C2
:101BE00055E360EE70E30E94C117AAE1B4E00D93E3
:101BF0001D932D933D93AAE1B4E00D911D912D917C
:101C00003C914EE350E060E070E00E948C17AAE146
:101C1000B4E00D931D932D933D93E2E2F0E0AAE131
:101C2000B4E094E07BE70E94451800919E030030E9
:101C300011F00C941D0E0E94B9090C94260E84E03C
:101C40008093950380919003809396030C94310EBA
:101C500086E08093950380919003809396030E9481
:101C6000BB02089500919A03003011F00C94770E96
:101C700081E0809399038FE080939001AAE1B4E022
:101C80000D911D912D913C9140E055E360EE70E384
:101C90000E94C617A3E7B1E00D931D932D933D93CA
:101CA000A3E7B1E00D911D912D913C914EE350E0E1
:101CB00060E070E00E94F916A3E7B1E04D935D93F8
:101CC0006D937D9380917301809391018091740154
:101CD00080939201809175018093930185E08093B8
:101CE00090020E94DE020E94BB020C94800E86E0ED
:101CF0008093950380919003809396030E94BB028A
:101D0000089580E080938E0180E080938D01089596
:101D100000918D01033010F40C94CF0F809192024A
:101D200080938B018091930280938C0100918B01B1
:101D3000063181E008F080E08F9300918C0106313C
:101D400081E008F080E09F918923882311F40C94AE
:101D5000C60F00918C01003018F011F00C94B20EF7
:101D60000C94C40F80E08093660181E08093990316
:101D700080EF8093900180918B01809391018091FD
:101D80008C018093920184E080939002E4EBF8E26E
:101D9000ABE8B1E08C9199270E94B917A1E9B2E0B4
:101DA0000E94AF17A1E9B2E00E948618A9E6B1E04F
:101DB0008C9380916901A0E9B2E0AD90BB24AFE8BB
:101DC000B1E0AA0DBB1D8C93A0E9B2E08C918F5FAE
:101DD0008C9381E0809368014091690100916801D2
:101DE000041718F011F00C94140FA8E6B1E0AD90B0
:101DF000BB24A0E9B2E0AA0DBB1D8C91A0E9B2E022
:101E0000AD90BB24AFE8B1E0AA0DBB1D8C93A0E957
:101E1000B2E08C918F5F8C93A8E6B1E08C918F5FDC
:101E20008C9310F40C94EC0E81E080936501ABE888
:101E3000B1E08C918F5F8C9380918C018150809365
:101E40008C0100918C01003018F011F00C942A0FD5
:101E50000C94BE0F00918C01003080E010F009F06E
:101E600081E08F9300916601003081E009F080E00D
:101E70009F918923882311F40C94BE0FE4EBF8E2C0
:101E8000ABE8B1E08C9199270E94B917A1E9B2E0C3
:101E90000E94AF17A1E9B2E00E948618A9E6B1E05E
:101EA0008C93A0E9B2E00D911127A9E6B1E04D9124
:101EB0005527040F151FADE6B1E00D931C93ADE659
:101EC000B1E00E94D616ADE6B1E00D911C910A3F3B
:101ED00050E0150710F00C94AF0F80916901A0E954
:101EE000B2E0AD90BB24AFE8B1E0AA0DBB1D8C936E
:101EF000A0E9B2E08C918F5F8C9381E080936801C0
:101F00004091690100916801041718F011F00C94D8
:101F1000A80FA8E6B1E0AD90BB24A0E9B2E0AA0DFD
:101F2000BB1D8C91A0E9B2E0AD90BB24AFE8B1E05D
:101F3000AA0DBB1D8C93A0E9B2E08C918F5F8C93AE
:101F4000A8E6B1E08C918F5F8C9310F40C94800F15
:101F5000A5E6B1E08C918F5F8C930C94B20F81E079
:101F60008093660180918C01815080938C01ABE855
:101F7000B1E08C918F5F8C930C942A0F8091650156
:101F8000809392010E94DE020C94CD0F84E0809336
:101F9000950380919003809396030E94BB0208955D
:101FA00081E0809399038EE170E0A0E9B1E00E94A6
:101FB00035188CEF8093900183E080936701E0E90E
:101FC000F3E0A6E1B1E00E94E917A6E1B1E00E94CA
:101FD0008618AAE6B1E08C9381E080936801409175
:101FE0006A0100916801041718F011F00C941710A1
:101FF000A8E6B1E0AD90BB24A5E1B1E0AA0DBB1D00
:102000008C91A7E6B1E0AD90BB24AFE8B1E0AA0D9A
:10201000BB1D8C93A7E6B1E08C918F5F8C93A8E6F3
:10202000B1E08C918F5F8C9310F40C94EF0F0091C2
:102030009503003011F00C942510A6E1B1E0E4E422
:10204000F5E30E94AF170C94DF10013011F00C94EF
:102050003110A6E1B1E0EAE5F5E30E94AF170C9478
:10206000DF10023011F00C943D10A6E1B1E0E8E67B
:10207000F5E30E94AF170C94DF10033011F00C94BD
:102080004910A6E1B1E0ECE7F5E30E94AF170C942C
:10209000DF10043011F00C945510A6E1B1E0E2E934
:1020A000F5E30E94AF170C94DF10053011F00C948B
:1020B0006110A6E1B1E0E6EAF5E30E94AF170C94E7
:1020C000DF10063011F00C946D10A6E1B1E0ECEBDE
:1020D000F5E30E94AF170C94DF10073011F00C9459
:1020E0007910A6E1B1E0E8EDF5E30E94AF170C949A
:1020F000DF10083011F00C948510A6E1B1E0E0EF9C
:10210000F5E30E94AF170C94DF10093011F00C9426
:102110009110A6E1B1E0EEE0F6E30E94AF170C9457
:10212000DF100A3011F00C949D10A6E1B1E0E8E355
:10213000F6E30E94AF170C94DF100B3011F00C94F3
:10214000A910A6E1B1E0ECE4F6E30E94AF170C940D
:10215000DF100C3011F00C94B510A6E1B1E0E0E80E
:10216000F6E30E94AF170C94DF100D3011F00C94C1
:10217000C110A6E1B1E0ECEAF6E30E94AF170C94BF
:10218000DF100E3011F00C94CD10A6E1B1E0E6EDB9
:10219000F6E30E94AF170C94DF100F3F11F00C9480
:1021A000D910A6E1B1E0ECEEF6E30E94AF170C9473
:1021B000DF10A6E1B1E0EAEFF6E30E94AF17A6E177
:1021C000B1E00E948618AAE6B1E08C9381E080938A
:1021D000680140916A0100916801041718F011F03C
:1021E0000C941111A8E6B1E0AD90BB24A5E1B1E0DB
:1021F000AA0DBB1D8C91A7E6B1E0AD90BB24AFE862
:10220000B1E0AA0DBB1D8C93A7E6B1E08C918F5F66
:102210008C93A8E6B1E08C918F5F8C9310F40C94B2
:10222000E910E6E9F3E0A6E1B1E00E94E917A6E1D2
:10223000B1E00E948618AAE6B1E08C9381E0809319
:10224000680140916A0100916801041718F011F0CB
:102250000C944911A8E6B1E0AD90BB24A5E1B1E032
:10226000AA0DBB1D8C91A7E6B1E0AD90BB24AFE8F1
:10227000B1E0AA0DBB1D8C93A7E6B1E08C918F5FF6
:102280008C93A8E6B1E08C918F5F8C9310F40C9442
:1022900021110091670143E0041BA1E9B1E00C9317
:1022A00080916701809390020E94DE020E94BB022F
:1022B000089581E0809399038DEF8093900184E0ED
:1022C0008093910183E0809390020E94DE020E943D
:1022D000BB02089500918D01023010F40C94D812C5
:1022E00000919202003011F00C94D81100918D01F0
:1022F000033010F40C94D61100919302003011F0C9
:102300000C9486110E94BB020C94D611009193028A
:1023100043E0040FA7E6B1E00C9340916701009100
:102320008D01041710F40C94D61184E170E0AAE436
:10233000B1E00E94351800916701073118F011F0E3
:102340000C94A4110C94A71187E18093670184E099
:10235000809368014091670100916801041718F0AB
:1023600011F00C94CD11A8E6B1E0AD90BB24A0E92A
:10237000B2E0AA0DBB1D8C91A8E6B1E0AD90BB24E4
:10238000A6E4B1E0AA0DBB1D8C93A8E6B1E08C9148
:102390008F5F8C9310F40C94AA11E2E0F0E0AAE4B1
:1023A000B1E07BE70E9457180E94BB020C94D61242
:1023B000013011F00C94F11100918D01033010F4F3
:1023C0000C94EF118091930280935F01E7E1F0E0BC
:1023D000AFE5B1E07BE70E9442180E94BB020C947B
:1023E000D612023011F00C941D1200918D010330B1
:1023F00010F40C941B128091930280936801009159
:102400006801023010F00C941212809168018093E0
:102410006301EAE1F0E0A3E6B1E07BE70E94421845
:102420000C94191284E0809395038091900380931B
:1024300096030E94BB020C94D612033011F00C9448
:10244000491200918D01033010F40C9447128091D1
:1024500093028093680100916801023010F00C949F
:102460003E128091680180936401EBE1F0E0A4E604
:10247000B1E07BE70E9442180C94451284E08093FF
:10248000950380919003809396030E94BB020C9465
:10249000D612043011F00C94711200918D010330AA
:1024A00010F40C946F1200919302053010F00C940C
:1024B00066128091930280939E03ECE1F0E0AEE916
:1024C000B3E07BE70E9442180C946D1284E0809385
:1024D000950380919003809396030E94BB020C9415
:1024E000D612053011F00C94991200918D01033031
:1024F00010F40C94971200919302023010F00C9497
:102500008E128091930280936101E9E1F0E0A1E6EF
:10251000B1E07BE70E9442180C94951284E080930E
:10252000950380919003809396030E94BB020C94C4
:10253000D612063011F00C94CD1200918D010330AB
:1025400010F40C94CB128091930280936801009157
:102550006801003810F00C94C212A8E6B1E00C91AA
:1025600042E0049F0C928091680180936001E8E151
:10257000F0E0A0E6B1E07BE70E9442180E94F4037D
:102580000C94C91284E0809395038091900380930A
:1025900096030E94BB020C94D61284E080939503AC
:1025A00080919003809396030E94BB020E94D00505
:1025B000089500918D01023010F40C94D61381E03F
:1025C000809399038FEF8093900180919202809382
:1025D000910180E08093900200919202003011F00E
:1025E0000C94481384E17FEFA0E0B1E00E9435181D
:1025F000E0E0F1E0AAE4B1E00E948E1811F00C9442
:102600000E13AAE4B1E0EAE0F7E30E94AF17E2E0BC
:10261000F0E0AAE4B1E07BE70E945718AAE4B1E039
:102620000E948618A9E6B1E08C938091690180939D
:10263000920184E08093900281E080936801409150
:10264000690100916801041718F011F00C94461309
:10265000A8E6B1E0AD90BB24A9E4B1E0AA0DBB1D92
:102660008C91A0E9B2E0AD90BB24AFE8B1E0AA0D37
:10267000BB1D8C93A0E9B2E08C918F5F8C93A8E690
:10268000B1E08C918F5F8C930C941F130C94C91341
:10269000013011F00C94551380915F0180939201E9
:1026A00084E0809390020C94C913023011F00C94D2
:1026B0006213809163018093920184E08093900281
:1026C0000C94C913033011F00C946E1380E08093C6
:1026D000920184E0809390020C94C913063011F0AB
:1026E0000C94861383E08093920188E3A3E9B1E020
:1026F0008C938EE4A4E9B1E08C9381E3A5E9B1E089
:102700008C9384E0809390020C94C913043011F0F0
:102710000C949313809164018093920184E08093E0
:1027200090020C94C913053011F00C94A013809101
:102730009E038093920184E0809390020C94C913CD
:10274000063011F00C94AD138091610180939201D9
:1027500084E0809390020C94C913073011F00C941C
:10276000C2130091600142E00E947618A8E6B1E031
:102770000C93809168018093920184E08093900291
:102780000C94C91384E08093950380919003809307
:10279000960300919002003018F011F00C94D213BF
:1027A0000C94D4130E94DE020E94BB020895009193
:1027B0009102003F10F00C9421140091910201311C
:1027C00010F00C941614E4E1F4E1EF93FF93E2EFC0
:1027D000F3E1A1E9B2E08C919927880F991FE80FE6
:1027E000F91F09940C94530A0C94660A0C94790A04
:1027F0000C948C0A0C949F0A0C94B20A0C94D10A83
:102800000C940F0B0C94310B0C949F0B0C94F40B49
:102810000C94800C0C94CB0C0C94570D0C94A60DBE
:102820000C94320E0C9410000C941F1480E08093D2
:10283000950380919003809396030E94BB020C94B1
:1028400057140091910240EF041BA7E6B1E00C93EE
:10285000E7E5F4E1EF93FF93E7E3F4E1A7E6B1E006
:102860008C919927880F991FE80FF91F09940C94F0
:10287000880E0C94810E0C94810E0C94810E0C9495
:10288000810E0C94810E0C94810E0C94810E0C948C
:10289000810E0C94810E0C94810E0C94810E0C947C
:1028A000D00F0C9459110C946A110C94D9120895FC
:1028B000F894FFCF303B6D3B444B3152493B3530B0
:1028C000487A2073656E736F723B5630312E303B01
:1028D000313B3134353B313B32333B312D310031EB
:1028E0003B61702C6672657175656E63793B313B37
:1028F000363030312C2C7B315F3437303030746FD0
:1029000035333030307D3B6C696E3B6D487A003238
:102910003B61702C6D696E3B313B363030312C2C75
:102920007B315F3437303030746F35333030307D49
:102930003B6C696E3B6D487A00333B61702C6D6176
:10294000783B313B363030312C2C7B315F343730A3
:102950003030746F35333030307D3B6C696E3B6D99
:10296000487A00343B61702C6D65616E3B313B36BB
:102970003030312C2C7B315F3437303030746F3550
:10298000333030307D3B6C696E3B6D487A00353BAF
:102990006F752C72657365743B313B302C69646CC8
:1029A000653B20312C726573657400363B6F732C68
:1029B000726164696F20747970653B313B302C52D1
:1029C000464D3935203930303B312C52464D393562
:1029D000203435303B20322C52464D3935203135AC
:1029E000303B332C6E524632343B342C574C414EE4
:1029F0003B352C525946413638393B31342C43480B
:102A000041505445522C41444D494E495354524132
:102A100054494F4E00373B61732C6173363B313460
:102A20002C434841505445522C41444D494E495342
:102A300054524154494F4E222000383B6F612C7252
:102A40006164696F206E616D653B352C2C72616429
:102A5000693B31342C434841505445522C41444D3C
:102A6000494E495354524154494F4E222000393B5C
:102A700061612C6173383B31342C434841505445DB
:102A8000522C41444D494E495354524154494F4EA2
:102A90000031303B6F702C6672657175656E6379BD
:102AA0003B313B3631323930332C2C7B36325F317F
:102AB0003337303030303030746F3137353030307C
:102AC0003030307D3B6C696E3B487A3B31342C436F
:102AD0004841505445522C41444D494E495354525B
:102AE0004154494F4E0031313B61702C617331309C
:102AF0000031323B6F702C6672657175656E63795B
:102B00003B313B313835343833382C7B36325F3407
:102B10003130303030303030746F35323530303025
:102B20003030307D3B6C696E3B487A3B31342C430E
:102B30004841505445522C41444D494E49535452FA
:102B40004154494F4E0031333B61702C6173313237
:102B50000031343B6F702C6672657175656E6379F8
:102B60003B313B313031393939392C7B36325F38A2
:102B70003230303030303030746F313032303030CD
:102B8000303030307D3B6C696E3B487A3B31342CC1
:102B9000434841505445522C41444D494E495354A9
:102BA000524154494F4E0031353B61702C617331B5
:102BB00034003234303B616E2C414E4E4F554E4303
:102BC000454D454E54533B3134353B32322C7374B2
:102BD0006172742061743B32322C656C656D656E78
:102BE00074733B31342C434841505445522C41447A
:102BF0004D494E495354524154494F4E003235329B
:102C00003B61612C4C415354204552524F523B364C
:102C1000302C6C6173745F6572726F720032353381
:102C20003B61612C4D594320494E464F3B622C413C
:102C30004354495645003235343B6F612C494E446C
:102C40004956494455414C495A4154494F4E3B32EB
:102C5000302C4E414D452C44657669636520313BEF
:102C6000622C4E554D4245522C313B612C52533211
:102C700033322C313B612C5553422C313B612C7744
:102C80006972656C6573732C303B612C493243610A
:102C9000637469762C313B622C49326361646472DF
:102CA0006573732C34313B31342C434841505445C7
:102CB000522C41444D494E495354524154494F4E70
:102CC000003235353B61612C494E444956494455E3
:102CD000414C495A4154494F4E3B32302C4E414DA4
:102CE000452C44657669636520313B622C4E554D19
:102CF0004245522C313B612C52533233322C313B02
:102D0000622C42415544524154452C302C7B313980
:102D10003230307D3B332C4E554D4245525F4F464D
:102D20005F424954532C386E313B612C5553422C31
:102D3000313B612C776972656C6573732C303B6134
:102D40002C49324361637469762C313B622C4932E1
:102D500063616464726573732C34313B31342C438A
:102D60004841505445522C41444D494E49535452C8
:102D70004154494F4E00523B21342021243520211B
:102D800024362021243720212438202124392021D1
:102D900024313020212431312021243132202124BA
:102DA0003132204946202431343D3100ED91FC91EF
:102DB000EF5FFF4FFC93EE9308958D9103D03A950A
:102DC000E1F708950090C00005FEFCCF8093C60097
:102DD000089588EE93E08CD03197D9F7089500FCE0
:102DE00005D0089530D005D001F8F9CF37D03FD0C5
:102DF0000895842F952FA62FB72FE894452B462BA7
:102E0000472B11F468940895402F512F622F732F90
:102E10000027112722273327F0E2440F551F661F92
:102E2000771F001F111F221F331F081B190B2A0BAE
:102E30003B0B416028F4080F191F2A1F3B1F4E7FD0
:102E4000FA9559F708950024E89477FF02C006D058
:102E5000689400F809D010F80124089512D04F5F4B
:102E60005F4F6F4F7F4F0895E89437FF08950095A7
:102E70001095209530950F5F1F4F2F4F3F4F68944F
:102E80000895409550956095709508953197F1F7A4
:102E900008950E9467178C910E946B178D939A95E5
:102EA000D1F70E94691708950E9467178D910E94BB
:102EB0006B179A95D9F70E9469170895279A269853
:102EC0002E9A259A249A2C9A83E58CBD08952C98E5
:102ED00008952C9A08958EBD00904D0007FEFCCFFA
:102EE0008EB50895689462F80895E89462F808959C
:102EF000EF93FF93EE27E82BE92B31F0E8E8F3E1BD
:102F00003197F1F70197D1F7FF91EF910895019172
:102F100011912191308108950F921F922F92C80133
:102F2000D901489F80014A9F90014B9F202C499FC7
:102F3000100D211D321D5A9F202C589F100D211D50
:102F4000321D599F200D311D689F200D311D699F35
:102F5000300D789F300D2F901F900F9008950E9494
:102F6000B5170D920020D9F70895C8953196002025
:102F700008950196019721F00E94B517E9F7FACF5D
:102F80000895040F151F261F371F0895041B150BE6
:102F9000260B370B0895000F111F221F331F0895B2
:102FA00000951095209530950F5F1F4F2F4F3F4F85
:102FB0000895019110810FC00E9487170EC00E94D2
:102FC000871710C00191108117FF05C03FEF2FEF49
:102FD00004C0008111272227332737FF03C0E0DF19
:102FE0008DE28D93CF92DF92EF92AA24BB24CC2462
:102FF000DD24EE2440E2EAE0FF2755E093E3808100
:10300000890F87FD9F7083FD907F891B81935A955F
:10301000A9F7C1DFAA1CBB1CCC1CDD1CEE1C4A9509
:1030200051F7E894EFE0FF2782910BD0EB30E0F707
:103030001EF068948A2D09D04D93EF90DF90CF90C9
:103040000895982F829501D0892F8F70805D26F08A
:10305000803309F4089568948D93089594E08191E4
:103060008D939A95E1F7089570E2803021F07D9379
:103070008A95E9F78C930895F999FECFE1BDF2BDE9
:103080003196089591E001C092E07B3771F47FB7EB
:10309000F894F2DF8D91F89A60B5681719F080BD49
:1030A000FA9AF99A9A95A9F77FBF77270895E4DFEE
:1030B0008D917B3729F480BDFA9AF99A8823B9F764
:1030C0007727089591E001C092E0D6DFF89A80B5A5
:1030D0008D939A95D1F70895CFDFF89A80B58D93A7
:1030E000882319F09A95C1F79D930895FF93881B43
:1030F000F9E0001FFA9511F4FF910895881F841BD1
:1031000018F4840F8894F5CF0894F3CF8FEF83954C
:103110009D919923E1F70895689401C0E894AF93D5
:10312000BF938D9116F0919103C00E94B517902D19
:10313000891718F011F48823A1F7BF91AF91089572
:10314000B7FE089590E8B91611F4D0FE08959FEFE8
:10315000D91AE90AF90A09F4039508950F928F9391
:103160009F93D216E306F4060FB680E890E8802716
:1031700095270FBE890739F00FB6892B87FD02C04E
:1031800081E008260FBE9F918F910F900895D190F6
:10319000E190F190019108952191319141915191E6
:1031A0000895DD92ED92FD920C930895502F2D2DF0
:1031B0003E2D4F2D612F0895EADF992711278F2D7E
:1031C000880F80E8F82A802F881F08F41FEF41F04D
:1031D0008F57082F07FD04C0003240F08FEF01C069
:1031E0008827982FD82EE82EF82E09C08FE1801B53
:1031F000082FF694E794D79497950A95D1F7112361
:1032000051F09095D094E094F09481E0980F882745
:10321000D81EE81EF81E0F2DFE2CED2CD92E089579
:10322000D094E094F09491E0D90E9927E91EF91E0C
:1032300010950895652F90E8440F551F5927990F51
:1032400047956078102F90E8FF0C001F0927990F11
:10325000F794107800380895FF0C90E89027110F2C
:103260009795F794092F08951127BD2CDE2CEF2C8C
:10327000F02E0EE1FF2039F4FE2CED2CDB2CBB24CC
:103280000850C2F775C032F00A95BB0CDD1CEE1C6D
:10329000FF1CF9CF55DFE0CF102FBD2CDE2CEF2C1B
:1032A000F02E11234AF4B094D094E094F0949FEF60
:1032B000B91AD90AE90AF90A0EE1FF2039F4FE2CFD
:1032C000ED2CDB2CBB240850C2F752C032F00A951B
:1032D000BB0CDD1CEE1CFF1CF9CF32DFBDCF2DEC8B
:1032E0003CEC4CEC5DE366270FC051DF5FDFDD2473
:1032F000EE2490E8F92E0FE307C04EDF05C0222729
:10330000332740E251E46627552351F1002381F130
:1033100091DF71F11627005850580894050B18F4E6
:1033200007FD03C025C007FD23C0469537952795A7
:10333000F694E794D79425D0FF202AF0DD0CEE1CFC
:10334000FF1C015073F09D2D969548F0DD203AF456
:10335000EE202AF491E0D90E9927E91EF91E7CCFC0
:1033600007C09FE7092FF92A9FEFD92EE92E08956C
:10337000DD24EE24FF240027112708950FE79FEF97
:10338000F2CF9F929924AA24BB2488E1D216E306A7
:10339000F40628F0D21AE30AF40A089401C08894CB
:1033A000991CAA1CBB1CDD0CEE1CFF1C8A9571F736
:1033B000D92CEA2CFB2C9F9008953CDFD9F0503893
:1033C000C9F016270058952F90580894091F12F439
:1033D00018F40EC008F00EC00FD0FF202AF0BB0C6E
:1033E000DD1CEE1CFF1C02C0039513F0A9DE34CFD8
:1033F0000C94B1190C94B8199F92FF92EF928D2DF5
:10340000FF24EE24DD24BB2493E0849F1001829FDF
:10341000B00CD11CE21CF31C839FD00CE11C2224B5
:10342000F21C9A9531F0BD2CDE2CEF2CFF248F91ED
:10343000ECCF9F9008950AF045D00ECF5FE322278E
:103440003327442701C0A8DEF5DE5038B1F3003839
:1034500099F3902F951B8BF312F434D0FACF983157
:1034600018F0222733274427983028F0232F342FB1
:1034700044279850F9CF992329F0469537952795F9
:103480009A95D9F7912F962742F014D0B0F6F79479
:10349000E794D7940F5F8BF664CF10D051F008F407
:1034A000BFDEFF2052F2DD0CEE1CFF1C0150CBF7FB
:1034B00058CF5ECFD20EE31EF41E0895D21AE30A4F
:1034C000F40A0895DF92EF92FF920F931F93D22E8A
:1034D000E32EF42E052F162F6F915F914F913F91A0
:1034E0002F9108950E94B517D02C0E94B517E02C9B
:1034F0000E94B517F02C0E94B517002D08950E9468
:10350000B517202D0E94B517302D0E94B517402DFC
:103510000E94B517502D089500000000FFE6DB2F34
:103520000000803F0097374700094F4700F57F476D
:103530000000804344657669636520310000726154
:10354000646900003A20636F6D6D616E64206E6F78
:103550007420666F756E643A20003A204932432029
:103560006572726F723A20003A2077617463686402
:103570006F672072657365743A2000003A20636FAC
:103580006D6D616E64207761746368646F673A2063
:1035900000003A20706172616D6574657220657219
:1035A000726F723A20003A2074782074696D652039
:1035B000746F6F206C6F6E673A2000003A206E6F58
:1035C000742076616C696420617420746861742071
:1035D00074696D653A2000003A206932635F627554
:1035E00066666572206F766572666C6F773A20004A
:1035F0003A20493263206E6F7420726561647920CD
:10360000746F20726563656976653A2000003A2020
:1036100057726F6E672064617461206C656E6774A9
:103620006820746F6F206D75636820202F206C698F
:1036300074746C65203A20003A20556E6B6E6F777B
:103640006E20636F6D6D616E643A20003A20496CA4
:103650006C6567616C20636F6D6D616E6420706175
:1036600072616D65746572206F7574206F6620617C
:103670006C6C6F7765642072616E67653A2000003C
:103680003A20496E7465726E616C2066756E637463
:10369000696F6E20617267756D656E74206F7574E9
:1036A000206F662072616E67653A20003A20436F92
:1036B0006D6D616E64206E6F7420616C6C6F7765E8
:1036C0006420696E2063757272656E742073746114
:1036D00074653A2000003A206E6F206461746120A6
:1036E000617661696C61626C653A20003A206E6FA8
:1036F000206572726F723A2000003A206F7468651C
:1037000072206572726F723A200044657669636553
:02371000310086
:00000001FF
