:100000000C94460018950000189500001895000003
:10001000189500001895000018950000189500002C
:10002000189500001895000018950000189500001C
:10003000189500001895000018950000189500000C
:1000400018950000189500001895000018950000FC
:100050000C948A051895000018950000189500006A
:1000600018950000189500000C94030618950000E0
:1000700018950000189500001895000018950000CC
:100080001895000018950000189500008FEF8DBF9F
:10009000C8EDE0EC4E2E80E48EBFD0E4F0E45F2E9D
:1000A000A89584B7082E877F84BF88E1992780931D
:1000B000600090936000EEEFFFE3A0E0B1E08827DE
:1000C0008D933197E9F780E48093C40080E08093BA
:1000D000C50088E18093C1006624E0E0FF2700812D
:1000E000AAE7B1E00C93AAE7B1E00C9103FB16F08C
:1000F0000C94830082E08093BD038091B7038093CA
:10010000BE030C9486008FEF8093BD0322982C9A37
:1001100074B7777F74BF8FE197E08093600090930E
:10012000600078947091C10070687093C100709104
:10013000BC0071607093BC003B9A80E48093CC005B
:1001400080E08093CD007091C8007D7F7093C800DF
:1001500087E08093CA0088E18093C900EAE0F0E07C
:100160000E944490E8EAF4E20E948E910E94159069
:100170000E9421901C990C94BF000E941203E0E0A1
:10018000F0E0A0E1B0E00E942A92053011F40C9456
:10019000CB000E9412030E945B0380916000886084
:1001A00080936000ADEAB1E08C918F5F8C930091F9
:1001B000AD010F3F11F00C946401ACEAB1E08C91F9
:1001C0008F5F8C930091AC010A3511F00C940A01F9
:1001D0000091C103003018F011F00C94F1000C9460
:1001E0000801A1ECB3E08C918F5F8C930091C10367
:1001F000083218F011F00C94FF000C9408010E94D2
:10020000460485E08093BD038091B7038093BE03CD
:100210000C946401043B11F00C943901009192019B
:10022000013081E009F080E08F93A6E2B0E00C910C
:1002300001FB81E00EF480E09F918923882311F473
:100240000C943401AEEAB1E08C918F5F8C930091F5
:10025000AE01053018F011F00C9430010C9432010D
:100260000E94EB050C94370180E08093AE010C9462
:1002700064010F3F11F00C946401AFEBB3E00D91FA
:100280001C91003050E0150718F011F00C944A0151
:100290000C944E01AFEBB3E00E94B08FAFEBB3E034
:1002A0000D911C91083250E0150718F011F00C94D4
:1002B0005B010C94640183E08093BD038091B703DC
:1002C0008093BE030E9453040E942B90A4E9B1E0E6
:1002D0008C9300919401013011F00C9440020E9423
:1002E0003190A4E9B1E08C930091D103003011F07A
:1002F0000C947D0181E08093D103009119050A3FA0
:1003000010F00C943702009194010D3F11F40C94FD
:100310009B0180919401A9E1B5E0AD90BB24ADE1D2
:10032000B4E0AA0DBB1D8C93A9E1B5E08C918F5F61
:100330008C930C94350200911905063010F00C9442
:10034000B2018BE08093BD038091B7038093BE031D
:10035000EEEAF4E20E948E910E9415900E94219094
:100360000C94330280EE809320040091190506302E
:1003700011F00C94F10191E09A93AEE1B4E0EDEF4D
:10038000F3E022270E941A91A4E9B1E00C930091B6
:100390009401003011F00C94EF0191E09A93AEE1DA
:1003A000B4E0E8E0F4E022270E941A91A4E9B1E069
:1003B0000C9300919401013011F00C94E8018AE053
:1003C0008093BD038091B7038093BE030C94EF012B
:1003D0008BE08093BD038091B7038093BE030C94A0
:1003E0003302AEE1B4E0E7EEF3E0222791E00E94B1
:1003F0001F91A5E9B1E00C9300919501013011F036
:100400000C942C0281E08093940140911905009195
:100410009401041718F011F00C942602A4E9B1E03D
:10042000AD90BB24ADE1B4E0AA0DBB1D8C918093CF
:10043000970131E0A7E9B1E00E941C90A4E9B1E086
:100440008C918F5F8C9310F40C9405020E942E1AED
:100450000E9470040C9433028DE08093BD03809160
:10046000B7038093BE030E9490070C94400289E07A
:100470008093BD038091B7038093BE030E949007D1
:1004800000918014083610F00C949B0200918014A7
:10049000073611F00C9456020E946E2F88E6809366
:1004A000801481E0809381140C948E02063611F042
:1004B0000C94670200918114003011F00C946502D5
:1004C0000E94572F81E0809381140C948E02053690
:1004D00011F00C94780200918114003011F00C940A
:1004E00076020E94F14881E0809381140C948E0280
:1004F000053610F00C948E0200918114003011F03A
:100500000C948E02809180148093BA0280E08093D4
:1005100094010E943C1081E0809381149FB7F8946D
:1005200080916000886180936000877E8093600086
:100530009FBF0C94CD000091B903003018F011F06A
:100540000C94A4020C94F3020091B702013018F04D
:1005500011F00C94AD020C94B90280E08093B501C7
:1005600086E08093BD038091B7038093BE030C9413
:10057000F0020091B802003011F00C94C3020E9406
:1005800044580C94F0020091B501023010F40C9420
:10059000F0020091B9020E3F81E009F480E08F93F0
:1005A00000919301003081E009F080E09F91892360
:1005B0008F9300919201003081E009F080E09F91DB
:1005C0008923882311F40C94EA0280E08093B5011A
:1005D0000C94F0028091B9028093B4010E944458B7
:1005E00080E08093B9034091B7020091B6020417EE
:1005F00018F011F00C94FE020C940F030E944604B4
:10060000A2EBB1E00D911C91003050E0150718F0FD
:1006100011F00C940D030C940F030E949C04A895F8
:100620000C94CD00E1E0F0E00E944490E6E1F0E0BF
:10063000A0E1BB2781E08C937BE70E940E92A42D62
:10064000B52DE2EBF4E20E948E910E940491E1E06C
:10065000F0E0D2017BE70E941F92E7E1F0E0A0E129
:10066000BB2787E18C937BE70E940E92E8E1F0E0E4
:10067000A0E1BB2781E08C937BE70E940E92E9E129
:10068000F0E0A0E1BB2781E08C937BE70E940E9213
:10069000EBE1F0E0A0E1BB2784E98C937BE70E94CB
:1006A0000E92E0E0F0E0A0E1BB2785E08C937BE7D1
:1006B0000E940E920895E6E1F0E0A0E9B1E00E9408
:1006C0002A92E1E0F0E0ABE7B1E094E10E943492DD
:1006D000E7E1F0E0A1E9B1E00E942A92E8E1F0E070
:1006E000A2E9B1E00E942A92E9E1F0E0A3E9B1E0D9
:1006F0000E942A9281E08093B70380E08093BE033A
:1007000080E08093B60181E08093B8030E94530497
:100710000E9446040E94EB0580E08093AC0180E0DB
:100720008093AD01EBE1F0E0A3EDB3E00E942A92EB
:10073000A2EFB3E0ECEBF4E20E948E910E940491F0
:100740008091D3038093F403A7EEB3E0E2ECF4E2EC
:100750000E948E910E9404918091D3038093EA03BA
:10076000ADEFB3E0E8ECF4E20E948E910E940491B8
:100770008091D30380930004A8E0B4E0EEECF4E2AF
:100780000E948E910E9404918091D30380930B0468
:100790000E94900780E08093801480E08093811411
:1007A00080E08093841480E08093851480E08093BF
:1007B000861480E08093871484E18093881480E01D
:1007C0008093891480E080938A1481E080938B1455
:1007D00080E080938C1480E080938D1488E0809377
:1007E0008E1485E880938F1480E08093901488E0C5
:1007F0008093911485E88093921480E08093931401
:1008000080E08093941480E08093951484E1809339
:10081000961480E08093971480E08093981481E090
:100820008093991480E080939A1480E080939B14C5
:1008300088E080939C1485E880939D1480E08093E9
:100840009E1488E080939F1485E88093A01480E232
:100850008093A11480E28093A21480E28093A31479
:1008600080E28093A41480E28093A51480E28093B8
:10087000A61480E28093A71480E28093A81480E2FB
:100880008093A91480E28093AA14089581E0809354
:10089000B60281E08093B70280E08093C10370E8E4
:1008A0007093BB00089580E08093B50180E090E0F4
:1008B000AFEBB3E08D939C93A7EBB3E08C918F5F8C
:1008C0008C934091BE030091B703041711F00C9470
:1008D0006F0480E08093BE038FEF8093BD03089583
:1008E0008091B70281508093B70281E08093950197
:1008F0004091B70200919501041718F011F00C9483
:100900009904A5E9B1E0AD90BB24A6EBB1E0AA0D36
:10091000BB1D8C918093960131E0A6E9B1E00E9465
:100920001C90A5E9B1E08C918F5F8C9310F40C942E
:1009300078040E944604089581E080939501009117
:1009400095010E3F18F011F00C94B80480E0A5E971
:10095000B1E0AD90BB24A6EBB1E0AA0DBB1D8C931A
:10096000A5E9B1E08C918F5F8C9310F40C949F04F7
:10097000E6EFF3EC0E949491A0EBB1E08D919C9195
:100980000E947391A7EBB1E00E940491A7EBB1E044
:100990000E944E92A6E9B1E08C930091B60101301D
:1009A00011F00C94D80481E0809394010C94E80435
:1009B000023011F00C94E10482E0809394010C94D5
:1009C000E804043011F00C94E80487E0809394016B
:1009D00080919601809395014091950101E0041763
:1009E00018F011F00C9416050091950140919401B6
:1009F000040FA7E9B1E00C93A5E9B1E0AD90BB24E9
:100A0000A6EBB1E0AA0DBB1D8C91A7E9B1E0AD90BA
:100A1000BB24A6EBB1E0AA0DBB1D8C938091950180
:100A200081508093950110F00C94EC040091B60174
:100A3000013011F00C942205809196018093B7014A
:100A40000C946105023011F00C94360580E080931F
:100A5000B701809196018093B8010091960143E01F
:100A6000040FA7EBB2E00C930C946105043011F075
:100A70000C9461058FEF8093B70180EF8093B801EC
:100A8000A0EBB1E011968C91A9EBB1E08C93A0EBB7
:100A9000B1E08C91AAEBB1E08C93A2EBB1E011969E
:100AA0008C91ABEBB1E08C93A2EBB1E08C91ACEB11
:100AB000B1E08C93809196018093BD0181E0809399
:100AC000B6010091960140919401040FA7EBB2E0AA
:100AD0000C93A7EBB2E08C918F5F8C93A0EBB1E00D
:100AE0000E94B08FA0EBB1E00D911C91083352E051
:100AF000150710F40C94820580E090E0A0EBB1E0C3
:100B00008D939C93A2EBB1E00E94B78F81E080931C
:100B1000B60208950F921F922F923F924F925F92CA
:100B20007F92AF92BF92CF92DF92EF92FF920F939C
:100B30001F932F933F934F935F936F937F938F9365
:100B40009F93AF93BF93CF93DF93EF93FF938FB7B1
:100B50008F938BB78F9388278BBF0091B5010A3F86
:100B600010F00C94B805A5EBB1E08C918F5F8C93DD
:100B7000A5EBB1E0AD90BB24A7EBB2E0AA0DBB1D85
:100B80008091C6008C9381E08093B90381E08093CB
:100B9000B8038F918BBF8F918FBFFF91EF91DF9142
:100BA000CF91BF91AF919F918F917F916F915F9105
:100BB0004F913F912F911F910F91FF90EF90DF90F8
:100BC000CF90BF90AF907F905F904F903F902F90CD
:100BD0001F900F90189580E08093AE0170E07093A5
:100BE000B90070E07093B90071E17093B80070E8DB
:100BF0007093BB00A1E9B1E08C918093BA0075E4D9
:100C00007093BC0008950F921F922F923F924F92C3
:100C10005F927F92AF92BF920F931F932F933F9358
:100C20004F935F936F937F938F939F93AF93BF93F4
:100C3000CF93DF93EF93FF938FB78F938BB78F9300
:100C400088278BBF0091B9004CEF0423A4E9B1E0E1
:100C50000C9300919401003611F00C94340675EC5D
:100C60007093BC000C947207083611F00C943D068A
:100C700075EC7093BC000C947207003711F00C9463
:100C8000460675EC7093BC000C947207083711F09F
:100C90000C944F0675EC7093BC000C9472070038EE
:100CA00011F00C9474060091B5010A3F10F00C94F9
:100CB0005E06A5EBB1E08C918F5F8C93A5EBB1E064
:100CC000AD90BB24A7EBB2E0AA0DBB1D8091BB0089
:100CD0008C9382E08093B80381E08093B90375EC34
:100CE0007093BC000C947207083811F00C949906AC
:100CF0000091B5010A3F10F00C948306A5EBB1E01A
:100D00008C918F5F8C93A5EBB1E0AD90BB24A7EBEA
:100D1000B2E0AA0DBB1D8091BB008C9382E0809352
:100D2000B80381E08093B90375EC7093BC000C9418
:100D30007207003911F00C94BE060091B5010A3F0C
:100D400010F00C94A806A5EBB1E08C918F5F8C930A
:100D5000A5EBB1E0AD90BB24A7EBB2E0AA0DBB1DA3
:100D60008091BB008C9382E08093B80381E08093F4
:100D7000B90375EC7093BC000C947207083911F03C
:100D80000C94E3060091B5010A3F10F00C94CD06D7
:100D9000A5EBB1E08C918F5F8C93A5EBB1E0AD90AA
:100DA000BB24A7EBB2E0AA0DBB1D8091BB008C93C6
:100DB00082E08093B80381E08093B90375EC70936F
:100DC000BC000C947207003A11F00C94EC0675EC20
:100DD0007093BC000C947207083A11F00C94F5065D
:100DE00075EC7093BC000C947207003B11F00C94EE
:100DF000FE0675EC7093BC000C947207083B11F072
:100E00000C9431074091B7020091B602041781E0BB
:100E100008F080E08F9300919201013081E009F0A9
:100E200080E09F918923882311F40C942907A6EB75
:100E3000B2E0AD90BB24A6EBB1E0AA0DBB1D8C9136
:100E40008093BB00A6EBB2E08C918F5F8C930C94E7
:100E50002C0770E87093BB0075EC7093BC000C9489
:100E60007207003C11F00C94670770E87093BB00A8
:100E70004091B7020091B602041781E008F080E0CB
:100E80008F9300919201013081E009F080E09F9101
:100E90008923882311F40C945F07A6EBB2E0AD9090
:100EA000BB24A6EBB1E0AA0DBB1D8C918093BB00C7
:100EB000A6EBB2E08C918F5F8C930C94620770E884
:100EC0007093BB0075EC7093BC000C947207083CE7
:100ED00011F00C94700775EC7093BC000C947207C1
:100EE0000E94EB058F918BBF8F918FBFFF91EF9188
:100EF000DF91CF91BF91AF919F918F917F916F9132
:100F00005F914F913F912F911F910F91BF90AF90A3
:100F10007F905F904F903F902F901F900F9018956B
:100F200081E08093190580E080931A0580E080932A
:100F3000D10380E080931B0583E08093DB0380E096
:100F40008093E60380E090E0A4EDB3E08D939C9362
:100F500081E090E0AFECB3E08D939C93429A0E94C5
:100F60004604089542987091C9007F7E7093C9002D
:100F70008EEF0E943D908EEF0E943D9031E0A3EDF8
:100F8000B3E00E94389080EE0E943D9081E0809313
:100F900094014091DA0300919401041718F011F0C4
:100FA0000C94EF07A4E9B1E0AD90BB24AFEFB0E043
:100FB000AA0DBB1D8C918093950131E0A5E9B1E0AC
:100FC0000E94389031E0A5E9B1E00E941C90A4E9AC
:100FD000B1E08C918F5F8C9310F40C94C9078DEF66
:100FE0000E943D90429A0E94530481E090E00E944A
:100FF000C3907091C90070617093C90008958AE12F
:10100000A0E0B1E08D9388278C938091D7038093E3
:1010100001018091D8038093020183E08093DA0379
:101020000E94B20708958AE1A0E0B1E08D9388277D
:101030008C9385E0A0E0B1E00E9406908D93882714
:101040008C9380E0809302018091D9038093030107
:1010500084E08093DA030E94B20708958AE1A0E059
:10106000B1E08D9388278C9385E0A0E0B1E00E94E9
:1010700006908D9388278C9380E080930201809165
:10108000D9030E94AC90A3E0B1E08C9384E08093FC
:10109000DA030E94B20708958AE1A0E0B1E08D93DF
:1010A00088278C9385E0A0E0B1E00E9406908D93A4
:1010B00088278C9381E0809302018091D9030E945C
:1010C000AC90A3E0B1E08C9384E08093DA030E94BB
:1010D000B20708958AE1A0E0B1E08D9388278C9350
:1010E00085E0A0E0B1E00E9406908D9388278C9364
:1010F00081E0A0E0B1E00E9406908D9388278C9358
:101100008091D9038093030184E08093DA030E94E5
:10111000B20708958AE1A0E0B1E08D9388278C930F
:1011200085E0A0E0B1E00E9406908D9388278C9323
:1011300080E0809302018091D80380930301809125
:10114000D9038093040185E08093DA030E94B207FB
:1011500008950091B501033010F40C94D508409126
:1011600094010091BA02041710F00C94CC088AE1A3
:10117000A0E0B1E08D9388278C938091D703809372
:1011800001018091BA028093020183E08093DA0327
:101190000E94B2070C94D50884E08093BD0380912F
:1011A000B7038093BE030E94530408950091B501D4
:1011B000033010F40C940D09409194010091BA028F
:1011C000041710F00C9404098AE1A0E0B1E08D93BB
:1011D00088278C9385E0A0E0B1E00E9406908D9373
:1011E00088278C9380E0809302018091D9038093BB
:1011F00003018091BA028093040185E08093DA03B1
:101200000E94B2070C940D0984E08093BD03809185
:10121000B7038093BE030E94530408950091B50163
:10122000033010F40C943809409194010091BA02F3
:10123000041710F00C942F098091D60380930001BD
:101240008091D703809301018091BA0280930201BB
:1012500083E08093DA030E94B2070C94360984E09D
:101260008093BD038091B7038093BE030E94530413
:1012700008950091B501033010F40C947009409169
:1012800094010091BA02041710F00C9467098AE1E6
:10129000A0E0B1E08D9388278C9385E0A0E0B1E0D9
:1012A0000E9406908D9388278C9381E080930201A1
:1012B0008091D903809303018091BA028093040145
:1012C00085E08093DA030E94B2070C946E0984E0F3
:1012D0008093BD038091B7038093BE030E945304A3
:1012E00008950091B501033010F40C949F0980918A
:1012F000D603809300018091D70380930101009170
:10130000BA0244E60E943E92A4E9B1E00C938091B7
:101310009401809302010091BA0244E60E943E9239
:10132000A4E9B1E08C93809194010E94AC90A3E079
:10133000B1E08C9384E08093DA030E94B2070895B1
:101340000091B501033010F40C94C4098AE1A0E0C7
:10135000B1E08D9388278C9385E0A0E0B1E00E94F6
:1013600006908D9388278C9380E080930201809172
:10137000D903809303018091BA028093040185E030
:101380008093DA030E94B20708950091B5010330FB
:1013900010F40C94EC098AE1A0E0B1E08D93882769
:1013A0008C9385E0A0E0B1E00E9406908D938827A1
:1013B0008C9380E0809302018091D9038093030194
:1013C0008091BA020E94AC90A4E0B1E08C9385E0D9
:1013D0008093DA030E94B20708950091B5010330AB
:1013E00010F40C94240A409194010091BA0204175D
:1013F00010F00C941B0A8AE1A0E0B1E08D938827DD
:101400008C9385E0A0E0B1E00E9406908D93882740
:101410008C9381E0809302010091D9034091BA023C
:10142000040FA3E0B1E00C9384E08093DA030E9400
:10143000B2070C94240A84E08093BD038091B70323
:101440008093BE030E94530408950091B5010330B8
:1014500010F40C94650A8AE1A0E0B1E08D9388272E
:101460008C9385E0A0E0B1E00E9406908D938827E0
:101470008C9380E0A0E0B1E00E9406908D938827D5
:101480008C938091D903809303010091BA0244E6C2
:101490000E943E92A4E9B1E00C9380919401809364
:1014A00004010091BA0244E60E943E92A4E9B1E030
:1014B0008C93809194010E94AC90A5E0B1E08C9354
:1014C00086E08093DA030E94B20708950091B50187
:1014D000033010F40C94A60A8AE1A0E0B1E08D93E9
:1014E00088278C9385E0A0E0B1E00E9406908D9360
:1014F00088278C9381E0A0E0B1E00E9406908D9354
:1015000088278C938091D903809303010091BA02BC
:1015100044E60E943E92A4E9B1E00C9380919401CC
:10152000809304010091BA0244E60E943E92A4E92D
:10153000B1E08C93809194010E94AC90A5E0B1E061
:101540008C9386E08093DA030E94B2070895A0E0AE
:10155000B1E088278C93A8E9B1E0AD90BB24A7EB5C
:10156000B2E0AA0DBB1D8C918093DF03A8E9B1E026
:10157000AD90BB24A8EBB2E0AA0DBB1D8C9180936B
:10158000DE03A8E9B1E0AD90BB24A9EBB2E0AA0D5F
:10159000BB1D8C918093DD03A8E9B1E0AD90BB2425
:1015A000AAEBB2E0AA0DBB1D8C918093DC03A4EAE8
:1015B000B1E04D915D916D917C91ACEDB3E00D91F9
:1015C0001D912D913C91041715072607370710F040
:1015D0000C94DB0BACEDB3E00D911D912D913C9182
:1015E00040E355E760E070E00E949A91ACEDB3E013
:1015F0000D931D932D933D93ACEDB3E00D911D9193
:101600002D913C9140E051EE65EF75E00E945490C1
:10161000A0EAB1E04D935D936D937D938091A0011D
:1016200080939401809194010E94AC90A7E9B1E06D
:10163000AD90BB24A3E0B1E0AA0DBB1D8C93ACED33
:10164000B3E00D911D912D913C9140E051EE65EF7D
:1016500075E00E945490ACEDB3E00D931D932D9373
:101660003D93ACEDB3E00D911D912D913C9140E483
:1016700052E46FE070E00E945490A0EAB1E04D9314
:101680005D936D937D938091A001809394018091EF
:1016900094010E94AC90A7E9B1E0AD90BB24A2E018
:1016A000B1E0AA0DBB1D8C93ACEDB3E00D911D9183
:1016B0002D913C9140E452E46FE070E00E94549020
:1016C000ACEDB3E00D931D932D933D93ACEDB3E0E2
:1016D0000D911D912D913C9140E157E260E070E049
:1016E0000E945490A0EAB1E04D935D936D937D9379
:1016F0008091A00180939401809194010E94AC900C
:10170000A7E9B1E0AD90BB24A1E0B1E0AA0DBB1DFB
:101710008C93ACEDB3E00D911D912D913C9140E186
:1017200057E260E070E00E945490ACEDB3E00D939E
:101730001D932D933D93ACEDB3E00D911C9144E6C8
:1017400050E00E94EC8FAAE9B1E04D935C93809148
:101750009A0180939401809194010E94AC90A7E932
:10176000B1E0AD90BB24A0E0B1E0AA0DBB1D8C930D
:10177000ACEDB3E00D911D912D913C9144E650E00C
:1017800060E070E00E945490ACEDB3E00D931D93C7
:101790002D933D938091DC0380939401809194017B
:1017A0000E94AC90A7E9B1E0AD90BB24AFEFB0E0F0
:1017B000AA0DBB1D8C9308950091B501043010F45F
:1017C0000C94350C0091BA02053181E008F080E0FC
:1017D0008F930091BB02053181E008F080E09F917A
:1017E0008923882311F40C942C0C8AE1A0E0B1E049
:1017F0008D9388278C9385E0A0E0B1E00E9406904D
:101800008D9388278C9380E0809302018091D90387
:10181000809303018091BA02809394018091940196
:101820000E94AC90A4E0B1E08C938091BB028093C5
:101830009401A4E9B1E08C918B5F8C938091940129
:101840000E94AC90A5E0B1E08C9386E08093DA032F
:101850000E94B2070C94330C84E08093BD03809106
:10186000B7038093BE030E94530408950091B5010D
:10187000043010F40C94890C0091BA02043081E019
:1018800008F080E08F930091BB02043081E008F003
:1018900080E09F918923882311F40C94800C8AE1C5
:1018A000A0E0B1E08D9388278C9385E0A0E0B1E0C3
:1018B0000E9406908D9388278C9380E0809302018C
:1018C0008091D903809303018091BA02809304012F
:1018D0008091BB028093940194E0A4E9B1E00E945E
:1018E0000A910091040140919401042BA4E0B1E01D
:1018F0000C9385E08093DA030E94B2070C94870C66
:1019000084E08093BD038091B7038093BE030E945F
:10191000530408950091B501043010F40C946C0D3B
:101920008AE1A0E0B1E08D9388278C9385E0A0E068
:10193000B1E00E9406908D9388278C9380E080937D
:1019400002018091D903809303018091BA028093B0
:101950009B018091BB0280939A01AAE9B1E00D91AD
:101960001C910F315EE4150710F00C94630DAAE989
:10197000B1E00D911C910E3057E2150718F011F0EF
:101980000C94C40C0C94D30C80E080930701AAE95A
:10199000B1E00D911C910F501742AAE9B1E00D93EF
:1019A0001C930C94E20C81E0809307010FE017E296
:1019B000AAE9B1E04D915C91041B150BAAE9B1E0D5
:1019C0000D931C93AAE9B1E00D911C9122273327B6
:1019D0004AE050E060E070E00E94E190A3ECB3E0E8
:1019E0000D931D932D933D9300E117E220E030E02D
:1019F000A2EEB3E00D931D932D933C9387E080936B
:101A000094014091940105E0041718F011F00C9432
:101A10005C0DA3ECB3E00D911D912D913C91A2EED4
:101A2000B3E04D915D916D917C910E945490A7EC33
:101A3000B3E04D935D936D937D938091C703809345
:101A40009501809195010E94AC90A4E9B1E0AD9020
:101A5000BB24AFEFB0E0AA0DBB1D8C93A3ECB3E0A9
:101A60000D911D912D913C91A2EEB3E04D915D91B0
:101A70006D917C910E945490A3ECB3E00D931D9363
:101A80002D933D93A2EEB3E00D911D912D913C91CC
:101A900044E650E060E070E00E945490A2EEB3E0B3
:101AA0004D935D936D937D938091940181508093CC
:101AB000940110F00C94010D88E08093DA030E94E9
:101AC000B2070C946A0D84E08093BD038091B70344
:101AD0008093BE030E94530408950091B501053020
:101AE00010F40C94D70D8AE1A0E0B1E08D93882723
:101AF0008C9385E0A0E0B1E00E9406908D9388274A
:101B00008C9381E0A0E0B1E00E9406908D9388273D
:101B10008C938091D903809303010091BA0244E62B
:101B20000E943E92A4E0B1E00C930091BA0244E618
:101B30000E943E92A4E9B1E08C93809194010E94AE
:101B4000AC90A5E0B1E08C930091BB0244E60E940A
:101B50003E92A6E0B1E00C930091BB0244E60E94E5
:101B60003E92A4E9B1E08C93809194010E94AC90E4
:101B7000A7E0B1E08C930091BC0244E60E943E9243
:101B8000A8E0B1E00C930091BC0244E60E943E92B2
:101B9000A4E9B1E08C93809194010E94AC90A9E0FB
:101BA000B1E08C938AE08093DA030E94B207089533
:101BB0000091B501073010F40C94FC0FADEBB2E0CE
:101BC0000D91112740E051E00E94D790ACE9B1E0BF
:101BD0000D931C93ACE9B1E00D911C91AEEBB2E01A
:101BE0004D915527040F151FACE9B1E00D931C93DF
:101BF000ACE9B1E00D911C91033E53E0150710F0E4
:101C00000C94F30FABEBB2E00C9111272227332792
:101C100040E051E060E070E00E94E190A4EAB1E0B1
:101C20000D931D932D933D93A4EAB1E00D911D9169
:101C30002D913C91ACEBB2E04C915527662777276C
:101C40000E949A91A4EAB1E00D931D932D933D93C8
:101C5000A4EAB1E00D911D912D913C91A0EEB3E06D
:101C60004D915C91662777270E949A91A4EAB1E092
:101C70000D931D932D933D93A4EAB1E00D911D9119
:101C80002D913C91ACE9B1E04D915C9166277727AD
:101C90000E949A91A8EAB1E00D931D932D933D9374
:101CA000A8EAB1E00D911D912D913C9145E050E0E5
:101CB00060E070E00E949A91A8EAB1E00D931D9354
:101CC0002D933D93A0EAB1E04D915D916D917C9192
:101CD000A4EAB1E00D911D912D913C9104171507D7
:101CE0002607370781E010F009F080E08F93A0EA23
:101CF000B1E04D915D916D917C91A8EAB1E00D91BB
:101D00001D912D913C91041715072607370781E097
:101D100010F009F080E09F918923882311F40C943E
:101D2000F10F8AE1A0E0B1E08D9388278C9385E0E4
:101D3000A0E0B1E00E9406908D9388278C9381E00B
:101D4000A0E0B1E00E9406908D9388278C930091CB
:101D5000D9034091BA02040FA3E0B1E00C93A4EAC6
:101D6000B1E00D911D912D913C91A3ECB3E00D9349
:101D70001D932D933C93A3ECB3E00D911D912D91F8
:101D80003C9148EE53E060E070E00E945490A7EC74
:101D9000B3E04D935D936D937D938091C7038093E2
:101DA0009601809196010E94AC90A6E0B1E08C93E0
:101DB000A3ECB3E00D911D912D913C9140E157E2D0
:101DC00060E070E00E945490A3ECB3E00D931D938B
:101DD0002D933D93A3ECB3E00D911D912D913C917A
:101DE00048EE53E060E070E00E945490A3ECB3E052
:101DF0000D931D932D933D93A3ECB3E00D911D9195
:101E00002D913C914AE050E060E070E00E945490D7
:101E1000A7ECB3E04D935D936D937D938091C703E1
:101E200080939601809196010E94AC90A5E0B1E06C
:101E30008C93A3ECB3E00D911D912D913C9144E660
:101E400050E060E070E00E945490A3ECB3E00D938A
:101E50001D932D933D93A3ECB3E00D911D912D9116
:101E60003C914AE050E060E070E00E945490A3ECA6
:101E7000B3E00D931D932D933D938091C303809305
:101E80009401809194010E94AC90A4E9B1E08C93FC
:101E900094E0A4E9B1E00E940A91809194018093BA
:101EA0000401A8EAB1E00D911D912D913C91A3ECA4
:101EB000B3E00D931D932D933C93A3ECB3E00D91F0
:101EC0001D912D913C9148EE53E060E070E00E943E
:101ED0005490A7ECB3E04D935D936D937D93809107
:101EE000C70380939601809196010E94AC90A9E06F
:101EF000B1E08C93A3ECB3E00D911D912D913C9139
:101F000040E157E260E070E00E945490A3ECB3E03F
:101F10000D931D932D933D93A3ECB3E00D911D9173
:101F20002D913C9148EE53E060E070E00E945490A7
:101F3000A3ECB3E00D931D932D933D93A3ECB3E07D
:101F40000D911D912D913C914AE050E060E070E0D0
:101F50000E945490A7ECB3E04D935D936D937D93F5
:101F60008091C70380939601809196010E94AC9066
:101F7000A8E0B1E08C93A3ECB3E00D911D912D91FD
:101F80003C9144E650E060E070E00E945490A3EC85
:101F9000B3E00D931D932D933D93A3ECB3E00D910E
:101FA0001D912D913C914AE050E060E070E00E946C
:101FB0005490A3ECB3E00D931D932D933D9380912A
:101FC000C3038093940194E0A4E9B1E00E940A91D4
:101FD00080919401809307018AE08093DA030E9444
:101FE000B2070C94FC0F84E08093BD038091B7038B
:101FF0008093BE030E94530408950091B5010330FD
:1020000010F40C943B100091BA02023310F00C94BF
:1020100032108BE1809300018091D70380930101FE
:102020000091BA0241E0040FA4E9B1E00C93EAEF99
:10203000FEE10E948E91A4E9B1E08C919927AAE972
:10204000B1E00E94669180919B0180930201809192
:102050009A018093030184E08093DA030E94B2071F
:102060000C94391084E08093BD038091B703809372
:10207000BE030E94530408958AE18093000180E02A
:10208000809301010091BA02023618F011F00C940D
:102090004B100C94571081E0809302010091BA021A
:1020A00043E6041BA3E0B1E00C930C94681080E0BD
:1020B000809302010091BA0241E0040FA5E9B1E06A
:1020C0000C93809195010E94AC90A3E0B1E08C93B9
:1020D00000919401003018F011F00C9471100C94E0
:1020E000BA10AAEBB2E00D91112747E250E00E942E
:1020F000D790AAE9B1E00D931C93AAE9B1E00E9440
:10210000B08F85E080939401009194010B3218F018
:1021100011F00C94A910AAE9B1E0AD90BD90ABE12B
:10212000B5E0AA0DBB1D8C91A4E9B1E0AD90BB2434
:10213000AFEFB0E0AA0DBB1D8C93AAE9B1E00E94FD
:10214000B08FA4E9B1E08C918F5F8C9310F40C9464
:1021500084108BE28093DA030E94B2070091AC14E2
:10216000013011F00C94B8100E946E2F0E94B92F0C
:102170000C94BF1084E08093DA030E94B2070895A4
:102180000091B501033010F40C94DA100091BA02FA
:10219000043610F00C94D31080E0809394010E94D8
:1021A0003C100C94DA1084E08093BD038091B70357
:1021B0008093BE0308950091240444E6049FA4E99B
:1021C000B1E00C92909125040E94B390A5E9B1E092
:1021D0008C930091940140919501040FA4E9B1E022
:1021E0000C9380919401815080939401A4E9B1E013
:1021F0000D91112747E250E00E94D790AAE9B1E083
:102200000D931C93009126040F3F11F00C9475114F
:10221000AAE9B1E08D919C91ACE9B1E08D939C93DA
:1022200081E08093940100919401073218F011F03D
:102230000C943811A4E9B1E0AD90BB24A3E8B4E15B
:10224000AA0DBB1D8C91ACE9B1E0AD90BD90ABE1A6
:10225000B5E0AA0DBB1D8C93ACE9B1E00E94B08F34
:10226000A4E9B1E08C918F5F8C9310F40C9413115E
:102270008AE18093000180E0809301018091240431
:1022800080930201809125048093030185E080936F
:102290009401009194010B3218F011F00C946E111E
:1022A000AAE9B1E0AD90BD90ABE1B5E0AA0DBB1DD0
:1022B0008C91A4E9B1E0AD90BB24AFEFB0E0AA0DE2
:1022C000BB1D8C93AAE9B1E00E94B08FA4E9B1E0F4
:1022D0008C918F5F8C9310F40C9449118BE2809356
:1022E000DA030E94B2070C949D1181E0809395015E
:1022F00000919501073218F011F00C949D11A5E999
:10230000B1E0AD90BB24A5E2B4E0AA0DBB1D8C9159
:10231000ACE9B1E0AD90BD90ABE1B5E0AA0DBB1D5D
:102320008C93ACE9B1E00E94B08FA5E9B1E08C914B
:102330008F5F8C9310F40C947811A0E8B4E18C9129
:102340008F5F8C9380E08093811408950091240422
:1023500044E6049FA4E9B1E00C92909125040E9408
:10236000B390A5E9B1E08C9300919401409195015F
:10237000040FA4E9B1E00C93809194018150809303
:102380009401A4E9B1E00D91112747E250E00E94C9
:10239000D790AAE9B1E00D931C93AAE9B1E00E949D
:1023A000B08F00918314003018F011F00C94DA1102
:1023B0000C94B414009124040F3F11F40C94AD1448
:1023C000809194018093B90100918314013011F040
:1023D0000C94001283E08093B7018BE18093B801E5
:1023E000AAE9B1E0AD90BD90ABE1B5E0AA0DBB1D8F
:1023F0008C918093BA0185E08093B7020C94A81465
:10240000023011F00C94141282E08093B7018DEF2A
:102410008093B8018AE08093980184E08093B702AA
:102420000E94B5140C94A814033011F00C943C12C3
:1024300082E08093B7018FEF8093B801AAE9B1E001
:10244000AD90BD90A1E2B5E0AA0DBB1D8C9180932B
:10245000BA010091BA01053018F011F00C94321253
:102460000C943712AAEBB1E08C9181508C9385E0EB
:102470008093B7020C94A814043011F00C945912F4
:1024800083E08093B70181E08093B801AAE9B1E0CD
:10249000AD90BD90A2E2B5E0AA0DBB1D0C9141E04C
:1024A000041BAAEBB1E00C9385E08093B7020C9477
:1024B000A814053011F00C94781283E08093B701D2
:1024C00083E08093B801AAE9B1E0AD90BD90A3E2AA
:1024D000B5E0AA0DBB1D8C918093BA01AAEBB1E0C7
:1024E0008C918F708C9385E08093B7020C94A81424
:1024F000063011F00C949C1283E08093B70185E0C4
:102500008093B801AAE9B1E0AD90BD90A3E2B5E037
:10251000AA0DBB1D8C918093BA01AAEBB1E08C91FE
:10252000807F8C9394E0AAEBB1E00E94129185E049
:102530008093B7020C94A814073011F00C94EB129E
:1025400083E08093B70187E08093B801AAE9B1E006
:102550000D911C91075F1F4FAAE9B1E00D931C93E9
:10256000AAE9B1E0AD90BD90ABE1B5E0AA0DBB1D0D
:102570008C9180939D01AAE9B1E00E94B08FAAE9F5
:10258000B1E0AD90BD90ABE1B5E0AA0DBB1D8C9163
:1025900080939C0185E898E0AAE9B1E08D939C9333
:1025A00083E38A93EAEFFEE10E948E91ACE9B1E009
:1025B0000D911C910E947B91A4E9B1E00C930091D4
:1025C000940142E0041BAAEBB1E00C9385E08093F8
:1025D000B7020C94A814083011F00C943A1383E05D
:1025E0008093B70189E08093B801AAE9B1E00D9129
:1025F0001C91045F1F4FAAE9B1E00D931C93AAE957
:10260000B1E0AD90BD90ABE1B5E0AA0DBB1D8C91E2
:1026100080939D01AAE9B1E00E94B08FAAE9B1E0E0
:10262000AD90BD90ABE1B5E0AA0DBB1D8C91809340
:102630009C0185E898E0AAE9B1E08D939C9383E33F
:102640008A93EAEFFEE10E948E91ACE9B1E00D9130
:102650001C910E947B91A4E9B1E00C93009194013C
:1026600042E0041BAAEBB1E00C9385E08093B70233
:102670000C94A814093011F00C944E1383E080934D
:10268000B7018BE08093B80188E18093980184E0E2
:102690008093B7020E94B5140C94A8140A3011F06C
:1026A0000C94761382E08093B7018DE08093B8019B
:1026B000AAE9B1E0AD90BD90AFE2B5E0AA0DBB1DB7
:1026C0008C918093BA010091BA01053018F011F095
:1026D0000C946C130C947113AAEBB1E08C918150A3
:1026E0008C9385E08093B7020C94A8140B3011F002
:1026F0000C94931383E08093B7018FE08093B8012B
:10270000AAE9B1E0AD90BD90A0E3B5E0AA0DBB1D74
:102710000C9141E0041BAAEBB1E00C9385E080939F
:10272000B7020C94A8140C3011F00C94B21383E08F
:102730008093B70181E08093B801AAE9B1E0AD9040
:10274000BD90A1E3B5E0AA0DBB1D8C918093BA01A9
:10275000AAEBB1E08C918F708C9385E08093B702E7
:102760000C94A8140D3011F00C94D61383E08093D0
:10277000B70183E18093B801AAE9B1E0AD90BD90C3
:10278000A1E3B5E0AA0DBB1D8C918093BA01AAEB21
:10279000B1E08C91807F8C9394E0AAEBB1E00E9431
:1027A000129185E08093B7020C94A8140E3011F0BA
:1027B0000C94251483E08093B70185E18093B801E0
:1027C000AAE9B1E00D911C91095E1F4FAAE9B1E0A1
:1027D0000D931C93AAE9B1E0AD90BD90ABE1B5E0DB
:1027E000AA0DBB1D8C9180939D01AAE9B1E00E94C6
:1027F000B08FAAE9B1E0AD90BD90ABE1B5E0AA0D14
:10280000BB1D8C9180939C0185E898E0AAE9B1E01A
:102810008D939C9383E38A93EAEFFEE10E948E916D
:10282000ACE9B1E00D911C910E947B91A4E9B1E06B
:102830000C930091940142E0041BA9EBB1E00C93CE
:1028400084E08093B7020C94A8140F3011F00C941C
:10285000741483E08093B70187E18093B801AAE9FB
:10286000B1E00D911C91065E1F4FAAE9B1E00D93F6
:102870001C93AAE9B1E0AD90BD90ABE1B5E0AA0D23
:10288000BB1D8C9180939D01AAE9B1E00E94B08F9D
:10289000AAE9B1E0AD90BD90ABE1B5E0AA0DBB1DDA
:1028A0008C9180939C0185E898E0AAE9B1E08D9332
:1028B0009C9383E38A93EAEFFEE10E948E91ACE958
:1028C000B1E00D911C910E947B91A4E9B1E00C93C1
:1028D0000091940142E0041BA9EBB1E00C9384E069
:1028E0008093B7020C94A814003111F00C94A81432
:1028F00083E08093B70189E18093B8018AE08093F7
:10290000B90184E080939401009194010E3018F095
:1029100011F00C94A514AAE9B1E0AD90BD90A8E324
:10292000B5E0AA0DBB1D8C91A4E9B1E0AD90BB242C
:10293000A6EBB1E0AA0DBB1D8C93A4E9B1E08C918C
:102940008F5F8C9310F40C9484148FE08093B70203
:1029500080E0809383140C94B41486E08093BD03CC
:102960008091B7038093BE03089500E010E020E05B
:1029700030E0A0EAB1E00D931D932D933C93A8E9BC
:10298000B1E0AD90BB24ADE1B4E0AA0DBB1D8C91CC
:1029900080939401909194010E94B390A4E9B1E0D6
:1029A0008C93A4E9B1E08C91A0EAB1E08D938827E3
:1029B0008D938D938C93A8E9B1E08C918F5F8C936C
:1029C000A8E9B1E0AD90BB24ADE1B4E0AA0DBB1D18
:1029D0008C9180939401909194010E94B390A4E90A
:1029E000B1E08C93A4E9B1E00C91112722273327A1
:1029F00044E650E060E070E00E94E190A4EAB1E0BB
:102A00000D931D932D933D93A0EAB1E00D911D917F
:102A10002D913C91A4EAB1E04D915D916D917C9135
:102A20000E949A91A0EAB1E00D931D932D933D93DE
:102A3000A8E9B1E08C918F5F8C93A8E9B1E0AD90EB
:102A4000BB24ADE1B4E0AA0DBB1D8C918093940131
:102A5000909194010E94B390A4E9B1E08C93A4E911
:102A6000B1E00C9111272227332740E157E260E0C3
:102A700070E00E94E190A4EAB1E00D931D932D93C4
:102A80003D93A0EAB1E00D911D912D913C91A4EAF6
:102A9000B1E04D915D916D917C910E949A91A0EA77
:102AA000B1E00D931D932D933D93A8E9B1E08C9176
:102AB0008F5F8C93A8E9B1E0AD90BB24ADE1B4E0A9
:102AC000AA0DBB1D8C9180939401909194010E945A
:102AD000B390A4E9B1E08C93A4E9B1E00C91112783
:102AE0002227332740E452E46FE070E00E94E19037
:102AF000A4EAB1E00D931D932D933D93A0EAB1E0BC
:102B00000D911D912D913C91A4EAB1E04D915D9103
:102B10006D917C910E949A91A0EAB1E00D931D9372
:102B20002D933D93A8E9B1E08C918F5F8C93A8E938
:102B3000B1E0AD90BB24ADE1B4E0AA0DBB1D8C911A
:102B400080939401909194010E94B390A4E9B1E024
:102B50008C93A4E9B1E00C9111272227332740E0A0
:102B600051EE65EF75E00E94E190A4EAB1E00D93AB
:102B70001D932D933D93A0EAB1E00D911D912D91F0
:102B80003C91A4EAB1E04D915D916D917C910E94E0
:102B90009A91A0EAB1E00D931D932D933D93A0EA85
:102BA000B1E00D911D912D913C9140E355E760E01E
:102BB00070E00E949F91A0EAB1E00D931D932D93C8
:102BC0003D9384E0809394014091940101E00417C7
:102BD00018F011F00C940B16A4E9B1E0AD90BB24F1
:102BE000AFE9B1E0AA0DBB1D8C91A7EBB2E0AD90AF
:102BF000BB24A6EBB1E0AA0DBB1D8C93A7EBB2E002
:102C00008C918F5F8C93809194018150809394017B
:102C100010F00C94E4150895009126044FE004236D
:102C2000A9EBB1E00C930091260440EF0423AAEB3A
:102C3000B1E00C9394E0AAEBB1E00E9412910895E8
:102C4000909128040E94B390082F11272227332740
:102C500040E157E260E070E00E94E190A0EAB1E05C
:102C60000D931D932D933D93909127040E94B39053
:102C7000082F112744E650E00E94D790ACE9B1E05C
:102C80000D931C93A0EAB1E00D911D912D913C9103
:102C9000ACE9B1E04D915C91662777270E949A914B
:102CA000A0EAB1E00D931D932D933D93A0EAB1E00E
:102CB0000D911D912D913C91909126040E94B3900D
:102CC000482F5527662777270E949A91A0EAB1E0FE
:102CD0000D931D932D933D93A0EAB1E00D911D91AD
:102CE0002D913C914AE050E060E070E00E945490E9
:102CF000A0EAB1E04D935D936D937D93009129041B
:102D0000003011F00C949816A0EAB1E00D911D91DD
:102D10002D913C914FE057E260E070E00E949A9163
:102D2000A0EAB1E00D931D932D933D930C94AA1648
:102D30000FE017E220E030E0A0EAB1E04D915D91B4
:102D40006D917C910E949F91A0EAB1E00D931D933B
:102D50002D933D93A0EAB1E08D919C91AAE9B1E059
:102D60008D939C9380919B018093B90180919A01EE
:102D70008093BA0185E08093B702089500912404FE
:102D80000F3F10F00C94B9180091240441E0041B8B
:102D9000A9EBB1E00C930091980144E0040FA7E97E
:102DA000B1E00C93A7E9B1E0AD90BB24ADE1B4E094
:102DB000AA0DBB1D9C910E94B390082F11272227BA
:102DC000332740E051EE65EF75E00E94E190A0EA04
:102DD000B1E00D931D932D933D930091980143E035
:102DE000040FA7E9B1E00C93A7E9B1E0AD90BB24D3
:102DF000ADE1B4E0AA0DBB1D9C910E94B390082FD9
:102E000011272227332740E452E46FE070E00E944C
:102E1000E190A4EAB1E00D931D932D933D93A0EAB8
:102E2000B1E00D911D912D913C91A4EAB1E04D913D
:102E30005D916D917C910E949A91A0EAB1E00D9311
:102E40001D932D933D930091980142E0040FA7E953
:102E5000B1E00C93A7E9B1E0AD90BB24ADE1B4E0E3
:102E6000AA0DBB1D9C910E94B390082F1127222709
:102E7000332740E157E260E070E00E94E190A4EA6D
:102E8000B1E00D931D932D933D93A0EAB1E00D9118
:102E90001D912D913C91A4EAB1E04D915D916D9110
:102EA0007C910E949A91A0EAB1E00D931D932D931D
:102EB0003D930091980141E0040FA7E9B1E00C9324
:102EC000A7E9B1E0AD90BB24ADE1B4E0AA0DBB1D14
:102ED0009C910E94B390082F11272227332744E6A4
:102EE00050E060E070E00E94E190A4EAB1E00D9350
:102EF0001D932D933D93A0EAB1E00D911D912D916D
:102F00003C91A4EAB1E04D915D916D917C910E945C
:102F10009A91A0EAB1E00D931D932D933D93A0EA01
:102F2000B1E00D911D912D913C91A8E9B1E0AD90DA
:102F3000BB24ADE1B4E0AA0DBB1D9C910E94B390EF
:102F4000482F5527662777270E949A91A0EAB1E07B
:102F50000D931D932D933D938091A3018093BA010E
:102F60008091A2018093BB018091A1018093BC015B
:102F70008091A0018093BD01009198014AE0040F67
:102F8000A7E9B1E00C93A7E9B1E0AD90BB24ADE1B6
:102F9000B4E0AA0DBB1D9C910E94B390082F11278D
:102FA0002227332740E051EE65EF75E00E94E19063
:102FB000A0EAB1E00D931D932D933D9300919801EC
:102FC00049E0040FA7E9B1E00C93A7E9B1E0AD90A7
:102FD000BB24ADE1B4E0AA0DBB1D9C910E94B3904F
:102FE000082F11272227332740E452E46FE070E0D6
:102FF0000E94E190A4EAB1E00D931D932D933D93BF
:10300000A0EAB1E00D911D912D913C91A4EAB1E0AF
:103010004D915D916D917C910E949A91A0EAB1E0F1
:103020000D931D932D933D930091980148E0040F5B
:10303000A7E9B1E00C93A7E9B1E0AD90BB24ADE105
:10304000B4E0AA0DBB1D9C910E94B390082F1127DC
:103050002227332740E157E260E070E00E94E190D0
:10306000A4EAB1E00D931D932D933D93A0EAB1E046
:103070000D911D912D913C91A4EAB1E04D915D918E
:103080006D917C910E949A91A0EAB1E00D931D93FD
:103090002D933D930091980147E0040FA7E9B1E01B
:1030A0000C93A7E9B1E0AD90BB24ADE1B4E0AA0D6B
:1030B000BB1D9C910E94B390082F11272227332714
:1030C00044E650E060E070E00E94E190A4EAB1E0E4
:1030D0000D931D932D933D93A0EAB1E00D911D91A9
:1030E0002D913C91A4EAB1E04D915D916D917C915F
:1030F0000E949A91A0EAB1E00D931D932D933D9308
:103100000091980146E0040FA7E9B1E00C93A0EA12
:10311000B1E00D911D912D913C91A7E9B1E0AD90E9
:10312000BB24ADE1B4E0AA0DBB1D9C910E94B390FD
:10313000482F5527662777270E949A91A0EAB1E089
:103140000D931D932D933D938091A3018093BE0118
:103150008091A2018093BF018091A1018093C00161
:103160008091A0018093C1018CE08093B7020C9400
:10317000C31886E08093BD038091B7038093BE039C
:1031800081E08093B7020895909128040E94B39043
:10319000082F11272227332748EE53E060E070E024
:1031A0000E94E190A0EAB1E00D931D932D933D9311
:1031B000909127040E94B390082F112722273327CC
:1031C0004AE050E060E070E00E94E190A4EAB1E0E3
:1031D0000D931D932D933D93A0EAB1E00D911D91A8
:1031E0002D913C91A4EAB1E04D915D916D917C915E
:1031F0000E949A91A0EAB1E00D931D932D933D9307
:10320000809126048093940194E0A4E9B1E00E94A7
:103210001291A0EAB1E00D911D912D913C91A4E98C
:10322000B1E04C915527662777270E949A91A0EA32
:10323000B1E00D931D932D933D93A0EAB1E00D9164
:103240001C91A0EEB3E04D915C91041B150BAAE913
:10325000B1E00D931C9380919B018093BA01809102
:103260009A018093BB0190912B040E94B390082F88
:1032700011272227332748EE53E060E070E00E94D8
:10328000E190A8EAB1E00D931D932D933D939091A9
:103290002A040E94B390082F1127222733274AE0DF
:1032A00050E060E070E00E94E190A4EAB1E00D938C
:1032B0001D932D933D93A8EAB1E00D911D912D91A1
:1032C0003C91A4EAB1E04D915D916D917C910E9499
:1032D0009A91A8EAB1E00D931D932D933D938091AF
:1032E00029048093940194E0A4E9B1E00E94129132
:1032F000A8EAB1E00D911D912D913C91A4E9B1E0B6
:103300004C915527662777270E949A91A8EAB1E049
:103310000D931D932D933D93A8EAB1E00D911C915F
:10332000A0EAB1E04D915C91041B150BAAE9B1E054
:103330000D931C93AAE9B1E00D911C91055010402A
:10334000AAE9B1E00D931C9380919B018093BC018D
:1033500080919A018093BD0188E08093B70208951F
:1033600004E640912604049FA9EBB1E00C92009181
:10337000B9010F93909127040E94B390482F0F91A9
:10338000040FA9EBB1E00C9304E640912804049FDC
:10339000AAEBB1E00C920091BA010F93909129042D
:1033A0000E94B390482F0F91040FAAEBB1E00C9349
:1033B00004E640912A04049FABEBB1E00C9200912B
:1033C000BB010F9390912B040E94B390482F0F9153
:1033D000040FABEBB1E00C9386E08093B702089545
:1033E00080E090E0AAE9B1E08D939C93A8E9B1E078
:1033F000AD90BB24ADE1B4E0AA0DBB1D8C918093D0
:103400009B01A8E9B1E0AD90BB24AEE1B4E0AA0D08
:10341000BB1D8C9180939A0183E38A93EAEFFEE1CE
:103420000E948E91AAE9B1E00D911C910E947B91BE
:10343000A4E9B1E00C930091940142E0041BA7EBD6
:10344000B2E0AD90BB24A6EBB1E0AA0DBB1D0C937E
:10345000A7EBB2E08C918F5F8C93089500912204CA
:103460000A3110F00C94531C81E08093B701009155
:103470002204023011F00C94471A84E08093B801C2
:1034800086E0809398010E94BE160C94511C033074
:1034900011F00C94581A81E08093B80186E0809373
:1034A000980183E08093B7020E94B5140C94511CDC
:1034B000043011F00C948B1A83E08093B801809152
:1034C00023048093B9010091B901053018F011F07F
:1034D0000C946C1A0C94711AA9EBB1E08C918F5F6B
:1034E0008C930091240441E0041BAAEBB1E00C93FF
:1034F00085E08093B70200918014083610F00C9498
:10350000891AA0E8B4E18C918F5F8C9380E080935E
:1035100081140C94511C0F3011F00C949B1A83E110
:103520008093B801809123048093B90184E0809353
:10353000B7020C94511C003111F00C94AB1A85E1C8
:103540008093B801809123048093B90184E0809333
:10355000B7020C94511C013111F00C94C31A87E18D
:103560008093B80180E08093B90100912304003278
:1035700011F00C94BE1A81E08093B90184E080932D
:10358000B7020C94511C043111F00C94291B88E1F2
:10359000809395010091230442E0049FA4E9B1E0E7
:1035A0000C9200912304043010F00C94DA1A0000FD
:1035B0000C94061B00912304003110F00C94E71AC0
:1035C000A4E9B1E08C9184508C930C94061B00917B
:1035D0002304033110F00C94F41AA4E9B1E08C91A7
:1035E00088508C930C94061B00912304093110F031
:1035F0000C94011BA4E9B1E08C918C508C930C9439
:10360000061BA4E9B1E08C918E508C93009195013A
:1036100040919401040FA8EBB1E00C9300912404B5
:1036200044E6049FA4E9B1E00C92909125040E9425
:10363000B390A5E9B1E08C9300919401409195017C
:10364000040FA9EBB1E00C9384E08093B7020C94D3
:10365000511C053111F00C94B51B0091230401306D
:1036600011F00C943C1B8DE38093B80180912404ED
:103670008093B9010C94B01B023011F00C945B1BC9
:103680008EE38093B8010091240444E6049FA9EBE3
:10369000B1E00C92909125040E94B390A4E9B1E0AE
:1036A0008C930091B90140919401040FA9EBB1E012
:1036B0000C930C94B01B053011F00C94681B8FE335
:1036C0008093B801809124048093B9010C94B01BBD
:1036D000073011F00C94781B83E08093B7018EE1E2
:1036E0008093B801809124048093B9010C94B01B9D
:1036F00000912304013181E008F480E08F93009170
:103700002304063181E010F009F080E09F918923C5
:10371000882311F40C94B01B0091230441E1041B95
:10372000A4E9B1E00C9300E440919401040FA8EBEC
:10373000B1E00C930091240444E6049FA9EBB1E0AE
:103740000C92909125040E94B390A4E9B1E08C936F
:103750000091B90140919401040FA9EBB1E00C93E1
:1037600084E08093B7020C94511C063111F00C9444
:10377000431C00912304023011F00C94C41B87E415
:103780008093B8010C943A1C023111F00C94CD1BBB
:1037900089E48093B8010C943A1C023211F00C9425
:1037A000D61B8BE48093B8010C943A1C009123043F
:1037B000003481E008F480E08F9300912304083402
:1037C00081E010F009F080E09F918923882311F4B3
:1037D0000C94001C0091230440E4041BA4E9B1E014
:1037E0000C93A4E9B1E00C9142E0049F0C920DE42B
:1037F00040919401040FA8EBB1E00C930C943A1C97
:103800000F3411F00C94091C8FE58093B8010C94CF
:103810003A1C003511F00C94121C81E68093B8011B
:103820000C943A1C00912304063581E008F480E0F2
:103830008F9300912304083581E010F009F080E0B7
:103840009F918923882311F40C943A1C009123043E
:1038500046E5041BA4E9B1E00C93A4E9B1E00C91A6
:1038600042E0049F0C9203E640919401040FA8EB00
:10387000B1E00C93809124048093B90184E080939B
:10388000B7020C94511C093111F00C94511C8AE6BA
:103890008093B801809123048093B90184E08093E0
:1038A000B7020C94C02E009122040B3110F00C943E
:1038B000652B00912304053010F00C942F1D81E03E
:1038C0008093B70100912304003011F00C94761C12
:1038D00000918014053610F00C94721C0E94DB10CD
:1038E0000C94741C0E94A6110C942D1D013011F033
:1038F0000C94D11C0091AE14003018F011F00C940F
:10390000831C0C94CF1C8AE1A0E0B1E08D93882742
:103910008C9381E0A0E0B1E00E9406908D9388270F
:103920008C938091AE148093020181E08093030117
:1039300081E080939401009194010E3018F011F011
:103940000C94BC1CA4E9B1E0AD90BB24A5E2B4E0AA
:10395000AA0DBB1D8C91A4E9B1E0AD90BB24A3E0FE
:10396000B1E0AA0DBB1D8C93A4E9B1E08C918F5FEF
:103970008C9310F40C949B1CE4EDF4E20E948E9165
:103980000E9415900E94219082E18093DA030E94A8
:10399000B20781E08093B70280E08093AE140C946C
:1039A0002D1D023011F00C940F1D8CE68093B80190
:1039B00080E08093B90187E08093940140911905DC
:1039C00000919401041718F011F00C94061DA4E95D
:1039D000B1E0AD90BB24ADE1B4E0AA0DBB1D8C916C
:1039E000A4E9B1E0AD90BB24A2EBB1E0AA0DBB1DF0
:1039F0008C93A9EBB1E08C918F5F8C93A4E9B1E03B
:103A00008C918F5F8C9310F40C94DE1C0091B901A3
:103A100041E0040FA7EBB2E00C930C942D1D033092
:103A200011F00C941F1D8EE68093B8018091240440
:103A30008093B90184E08093B7020C942D1D04306B
:103A400011F00C942D1D84E78093B801809124041B
:103A50008093B90184E08093B7020C94632B0091AA
:103A60002304053011F00C94352B0091240444E616
:103A7000049FA2E8B4E10C92009182140F939091FC
:103A800025040E94B390482F0F91040FA2E8B4E1DF
:103A90000C9300918214003610F00C9418240091BD
:103AA0008214003310F00C94CA2000918214083163
:103AB00010F00C943F1F81E08093B70100918214B5
:103AC000013011F00C947D1D86E78093B801909130
:103AD00026040E94B390A9EBB1E08C939091270447
:103AE0000E94B390082F45E0041BAAEBB1E00C93B1
:103AF00085E08093B7020C943D1F023011F00C94C6
:103B0000901D88E78093B801909126040E94B3909D
:103B1000A9EBB1E08C9384E08093B7020C943D1F35
:103B2000033011F00C94A31D8AE78093B8019091A3
:103B300026040E94B390A9EBB1E08C9384E08093BB
:103B4000B7020C943D1F043011F00C94C01D8CE79B
:103B50008093B801909126040E94B390A9EBB1E044
:103B60008C93909127040E94B390082F45E0041B8A
:103B7000AAEBB1E00C9385E08093B7020C943D1F53
:103B8000053011F00C94D31D8EE78093B80190910D
:103B900026040E94B390A9EBB1E08C9384E080935B
:103BA000B7020C943D1F063011F00C94E61D80E81E
:103BB0008093B801909126040E94B390A9EBB1E0E4
:103BC0008C9384E08093B7020C943D1F073011F072
:103BD0000C94031E82E88093B801909126040E9401
:103BE000B390A9EBB1E08C93909127040E94B3901D
:103BF000082F45E0041BAAEBB1E00C9385E080930D
:103C0000B7020C943D1F083011F00C94161E84E886
:103C10008093B801909126040E94B390A9EBB1E083
:103C20008C9384E08093B7020C943D1F093011F00F
:103C30000C94291E86E88093B801909126040E9476
:103C4000B390A9EBB1E08C9384E08093B7020C941D
:103C50003D1F0A3011F00C94461E88E88093B8018D
:103C6000909126040E94B390A9EBB1E08C939091BF
:103C700027040E94B390082F45E0041BAAEBB1E093
:103C80000C9385E08093B7020C943D1F0B3011F02C
:103C90000C94631E8AE88093B801909126040E94D8
:103CA000B390A9EBB1E08C93909127040E94B3905C
:103CB000082F45E0041BAAEBB1E00C9385E080934C
:103CC000B7020C943D1F0C3011F00C94761E8CE85A
:103CD0008093B801909126040E94B390A9EBB1E0C3
:103CE0008C9384E08093B7020C943D1F0D3011F04B
:103CF0000C94891E8EE88093B801909126040E944E
:103D0000B390A9EBB1E08C9384E08093B7020C945C
:103D10003D1F0E3011F00C94971E80E98093B8017E
:103D20000E940C1685E08093B7020C943D1F0F3063
:103D300011F00C94A51E82E98093B8010E940C1624
:103D400085E08093B7020C943D1F003111F00C9474
:103D5000B31E84E98093B8010E940C1685E080931D
:103D6000B7020C943D1F013111F00C94C61E86E978
:103D70008093B801909126040E94B390A9EBB1E022
:103D80008C9384E08093B7020C943D1F023111F0B4
:103D90000C94D91E88E98093B801909126040E9462
:103DA000B390A9EBB1E08C9384E08093B7020C94BC
:103DB0003D1F033111F00C94EC1E8AE98093B80189
:103DC000909126040E94B390A9EBB1E08C9384E01B
:103DD0008093B7020C943D1F043111F00C94FF1E28
:103DE0008CE98093B801909126040E94B390A9EBCE
:103DF000B1E08C9384E08093B7020C943D1F0531B1
:103E000011F00C941F1F8EE98093B80104E64091D5
:103E10002604049FA9EBB1E00C920091B9010F9325
:103E2000909127040E94B390482F0F91040FA9EBA3
:103E3000B1E00C9384E08093B7020C943D1F0631EF
:103E400011F00C942F1F80EA8093B8018091260412
:103E50008093B90184E08093B7020C943D1F073131
:103E600011F00C943D1F82EA8093B80180912604E2
:103E70008093B90184E08093B7020C94C82081E05C
:103E80008093B70100918214083111F00C94541FF3
:103E900084EA8093B801809126048093B90184E07C
:103EA0008093B7020C94C820093111F00C94641F60
:103EB00086EA8093B801809126048093B90184E05A
:103EC0008093B7020C94C8200A3111F00C94741F2F
:103ED00088EA8093B801809126048093B90184E038
:103EE0008093B7020C94C8200B3111F00C94841FFE
:103EF0008AEA8093B801809126048093B90184E016
:103F00008093B7020C94C8200C3111F00C94941FCC
:103F10008CEA8093B801809126048093B90184E0F3
:103F20008093B7020C94C8200D3111F00C94A41F9B
:103F30008EEA8093B801809126048093B90184E0D1
:103F40008093B7020C94C8200E3111F00C94B41F6A
:103F500080EB8093B801809126048093B90184E0BE
:103F60008093B7020C94C8200F3111F00C94BF1F3E
:103F700082EB8093B8010E9420160C94C820003276
:103F800011F00C94CA1F84EB8093B8010E94201694
:103F90000C94C820013211F00C94DA1F86EB809348
:103FA000B801809126048093B90184E08093B70220
:103FB0000C94C820023211F00C94EA1F88EB809315
:103FC000B801809126048093B90184E08093B70200
:103FD0000C94C820033211F00C94FA1F8AEB8093E2
:103FE000B801809126048093B90184E08093B702E0
:103FF0000C94C820043211F00C940A208CEB8093AE
:10400000B801809126048093B90184E08093B702BF
:104010000C94C820053211F00C941A208EEB80937A
:10402000B801809126048093B90184E08093B7029F
:104030000C94C820063211F00C942A2080EC809356
:10404000B801809126048093B90184E08093B7027F
:104050000C94C820073211F00C943A2082EC809323
:10406000B801809126048093B90184E08093B7025F
:104070000C94C820083211F00C944A2084EC8093F0
:10408000B801809126048093B90184E08093B7023F
:104090000C94C820093211F00C945A2086EC8093BD
:1040A000B801809126048093B90184E08093B7021F
:1040B0000C94C8200A3211F00C946A2088EC80938A
:1040C000B801809126048093B90184E08093B702FF
:1040D0000C94C8200B3211F00C948A208AEC809347
:1040E000B80104E640912604049FA9EBB1E00C92CC
:1040F0000091B9010F93909127040E94B390482F2B
:104100000F91040FA9EBB1E00C9384E08093B70208
:104110000C94C8200C3211F00C949A208CEC8093F3
:10412000B801809126048093B90184E08093B7029E
:104130000C94C8200D3211F00C94AA208EEC8093C0
:10414000B801809126048093B90184E08093B7027E
:104150000C94C8200E3211F00C94BA2080ED80939C
:10416000B801809126048093B90184E08093B7025E
:104170000C94C8200F3211F00C94C82082ED80936B
:10418000B801809126048093B90184E08093B7023E
:104190000C94162400918214083410F00C94AB2275
:1041A00081E08093B70100918214003311F00C94E8
:1041B000E52084ED8093B801809126048093B901B5
:1041C00084E08093B7020C94A922013311F00C947F
:1041D000F52086ED8093B801809126048093B90183
:1041E00084E08093B7020C94A922023311F00C945E
:1041F000052188ED8093B801809126048093B90150
:1042000084E08093B7020C94A922033311F00C943C
:1042100015218AED8093B801809126048093B9011D
:1042200084E08093B7020C94A922043311F00C941B
:1042300025218CED8093B801809126048093B901EB
:1042400084E08093B7020C94A922053311F00C94FA
:1042500035218EED8093B801809126048093B901B9
:1042600084E08093B7020C94A922063311F00C94D9
:10427000452180EE8093B801809126048093B90196
:1042800084E08093B7020C94A922073311F00C94B8
:10429000552182EE8093B801809126048093B90164
:1042A00084E08093B7020C94A922083311F00C9497
:1042B000652184EE8093B801809126048093B90132
:1042C00084E08093B7020C94A922093311F00C9476
:1042D000752186EE8093B801809126048093B90100
:1042E00084E08093B7020C94A9220A3311F00C9455
:1042F000952188EE8093B80104E640912604049F3E
:10430000A9EBB1E00C920091B9010F9390912704B1
:104310000E94B390482F0F91040FA9EBB1E00C93CA
:1043200084E08093B7020C94A9220B3311F00C9413
:10433000A5218AEE8093B801809126048093B9016B
:1043400084E08093B7020C94A9220C3311F00C94F2
:10435000C5218CEE8093B80104E640912604049FA9
:10436000A9EBB1E00C920091B9010F939091270451
:104370000E94B390482F0F91040FA9EBB1E00C936A
:1043800084E08093B7020C94A9220D3311F00C94B1
:10439000D5218EEE8093B801809126048093B901D7
:1043A00084E08093B7020C94A9220E3311F00C9490
:1043B000E52180EF8093B801809126048093B901B4
:1043C00084E08093B7020C94A9220F3311F00C946F
:1043D000052282EF8093B80104E640912604049FF1
:1043E000A9EBB1E00C920091B9010F9390912704D1
:1043F0000E94B390482F0F91040FA9EBB1E00C93EA
:1044000084E08093B7020C94A922003411F00C943C
:10441000252284EF8093B80104E640912604049F8E
:10442000A9EBB1E00C920091B9010F939091270490
:104430000E94B390482F0F91040FA9EBB1E00C93A9
:1044400084E08093B7020C94A922013411F00C94FB
:10445000452286EF8093B80104E640912604049F2C
:10446000A9EBB1E00C920091B9010F939091270450
:104470000E94B390482F0F91040FA9EBB1E00C9369
:1044800084E08093B7020C94A922023411F00C94BA
:10449000552288EF8093B801809126048093B9015A
:1044A00084E08093B7020C94A922033411F00C9499
:1044B00065228AEF8093B801809126048093B90128
:1044C00084E08093B7020C94A922043411F00C9478
:1044D00075228CEF8093B801809126048093B901F6
:1044E00084E08093B7020C94A922053411F00C9457
:1044F00085228EEF8093B801809126048093B901C4
:1045000084E08093B7020C94A922063411F00C9435
:10451000982282E08093B70180E08093B801809177
:1045200026048093B90184E08093B7020C94A922F9
:10453000073411F00C94A92282E08093B70182E045
:104540008093B801809126048093B90184E0809320
:10455000B7020C94162482E08093B7018091260460
:104560008093B90184E08093B702009182140834EB
:1045700011F00C94D42284E08093B80104E64091B9
:104580002604049FA9EBB1E00C920091B9010F93AE
:10459000909127040E94B390482F0F91040FA9EB2C
:1045A000B1E00C930C941624093411F00C94DD2224
:1045B00086E08093B8010C9416240A3411F00C9410
:1045C000E62288E08093B8010C9416240B3411F095
:1045D0000C94EF228AE08093B8010C9416240C34DA
:1045E00011F00C94F8228CE08093B8010C941624FE
:1045F0000D3411F00C9401238EE08093B8010C94DB
:1046000016240E3411F00C940A2380E18093B80133
:104610000C9416240F3411F00C94132382E1809330
:10462000B8010C941624003511F00C941C2384E17D
:104630008093B8010C941624013511F00C943923A1
:1046400086E18093B80104E640912604049FA9EB1B
:10465000B1E00C920091B9010F93909127040E9450
:10466000B390482F0F91040FA9EBB1E00C930C9479
:104670001624023511F00C94422388E18093B8018E
:104680000C941624033511F00C944B238AE180938B
:10469000B8010C941624043511F00C9454238CE1C9
:1046A0008093B8010C941624053511F00C945D2309
:1046B0008EE18093B8010C941624063511F00C9409
:1046C000662380E28093B8010C941624073511F01C
:1046D0000C946F2382E28093B8010C941624083561
:1046E00011F00C94782384E28093B8010C94162482
:1046F000093511F00C94812386E28093B8010C9463
:1047000016240A3511F00C948A2388E28093B801AC
:104710000C9416240B3511F00C94CB238AE2809371
:10472000B8010091190549E0041BA4E9B1E00C931C
:10473000809194018093B90181E08093950140912B
:10474000940100919501041718F011F00C94C22304
:10475000A5E9B1E0AD90BB24A6E2B4E0AA0DBB1D73
:104760008C91A5E9B1E0AD90BB24A9EBB1E0AA0D15
:10477000BB1D8C93A5E9B1E08C918F5F8C9310F4F5
:104780000C949F2304E040919401040FA7EBB2E046
:104790000C930C9416240C3511F00C94D4238CE259
:1047A0008093B8010C9416240D3511F00C94DD2380
:1047B0008EE28093B8010C9416240E3511F00C94FF
:1047C000FE2380E38093B801909127040E94B39068
:1047D000A9EBB1E08C93909128040E94B390AAEBCE
:1047E000B1E08C93909129040E94B390ABEBB1E0BF
:1047F0008C9386E08093B7020C9416240F3511F049
:104800000C94162482E38093B801909126040E94B0
:10481000B390A9EBB1E08C93909127040E94B390E0
:10482000AAEBB1E08C9385E08093B7020C94332B14
:1048300000918214003910F00C9496270091821494
:10484000083710F00C94B12582E08093B701809175
:1048500026048093B90184E08093B702009182140A
:10486000003611F00C94842484E38093B801909175
:1048700026040E94B390082F11274CE350E00E94B9
:10488000D790AAE9B1E00D931C93AAE9B1E00D918C
:104890001C910F931F93909127040E94B390482F6F
:1048A00055271F910F91040F151FAAE9B1E00D9331
:1048B0001C9300912804003011F00C946B24AAE999
:1048C000B1E00D911C91085B1C4FAAE9B1E00D937A
:1048D0001C930C94772408E413E0AAE9B1E04D910D
:1048E0005C91041B150BAAE9B1E00D931C93809118
:1048F0009B018093B90180919A018093BA0185E070
:104900008093B7020C94AF25013611F00C948D24DE
:1049100086E38093B8010C94AF25023611F00C9415
:10492000962488E38093B8010C94AF25033611F0E8
:104930000C949F248AE38093B8010C94AF2504362D
:1049400011F00C94A8248CE38093B8010C94AF254B
:10495000053611F00C94B1248EE38093B8010C94C9
:10496000AF25063611F00C94BA2480E48093B80188
:104970000C94AF25073611F00C94C32482E4809385
:10498000B8010C94AF25083611F00C94CE2484E4C1
:104990008093B8010E94B0190C94AF25093611F02C
:1049A0000C94D92486E48093B8010E94B0190C9429
:1049B000AF250A3611F00C94E42488E48093B80102
:1049C0000E94B0190C94AF250B3611F00C94ED2415
:1049D0008AE48093B8010C94AF250C3611F00C9446
:1049E000F6248CE48093B8010C94AF250D3611F0B9
:1049F0000C94FF248EE48093B8010C94AF250E36FE
:104A000011F00C94082580E58093B8010C94AF2533
:104A10000F3611F00C94112582E58093B8010C94A7
:104A2000AF25003711F00C94252584E58093B8015B
:104A300080E08093B9018EE190E0A0EEB3E08D9329
:104A40009C930E94C4180C94AF25013711F00C946C
:104A5000392584E58093B80181E08093B9018EE126
:104A600090E0A0EEB3E08D939C930E94C4180C9448
:104A7000AF25023711F00C944D2584E58093B801E1
:104A800082E08093B9018EE190E0A0EEB3E08D93D7
:104A90009C930E94C4180C94AF25033711F00C941A
:104AA000612585E58093B80180E08093B90180E4B9
:104AB00096E0A0EEB3E08D939C930E94C4180C94F2
:104AC000AF25043711F00C94752585E58093B80166
:104AD00081E08093B90180E496E0A0EEB3E08D938D
:104AE0009C930E94C4180C94AF25053711F00C94C8
:104AF000892585E58093B80182E08093B90180E43F
:104B000096E0A0EEB3E08D939C930E94C4180C94A1
:104B1000AF25063711F00C949D2588E58093B801E8
:104B200080E08093B90180ED97E0A0EEB3E08D9333
:104B30009C930E94C4180C94AF25073711F00C9475
:104B4000AF2588E58093B80181E08093B90180EDBD
:104B500097E0A0EEB3E08D939C930E94C4180C9450
:104B6000942782E08093B70100918214083711F0F6
:104B70000C94CA2588E58093B80182E08093B9013E
:104B800080ED97E0AAE9B1E08D939C930E94C41850
:104B90000C949427093711F00C94DE258AE5809354
:104BA000B80180E08093B90180E797E1AAE9B1E01C
:104BB0008D939C930E94C4180C9494270A3711F08B
:104BC0000C94F2258AE58093B80181E08093B901C5
:104BD00080E797E1AAE9B1E08D939C930E94C41805
:104BE0000C9494270B3711F00C9406268AE58093D9
:104BF000B80182E08093B90180E797E1AAE9B1E0CA
:104C00008D939C930E94C4180C9494270C3711F038
:104C10000C941A268CE58093B80180E08093B9014A
:104C200080E49FE1AAE9B1E08D939C930E94C418AF
:104C30000C9494270D3711F00C942E268CE580935C
:104C4000B80181E08093B90180E49FE1AAE9B1E075
:104C50008D939C930E94C4180C9494270E3711F0E6
:104C60000C9442268CE58093B80182E08093B901D0
:104C700080E49FE1AAE9B1E08D939C930E94C4185F
:104C80000C9494270F3711F00C9456268EE58093E0
:104C9000B80180E08093B90188EF9AE2AAE9B1E017
:104CA0008D939C930E94C4180C949427003811F0A3
:104CB0000C946A268EE58093B80181E08093B90157
:104CC00088EF9AE2AAE9B1E08D939C930E94C41800
:104CD0000C949427013811F00C947E268EE5809375
:104CE000B80182E08093B90188EF9AE2AAE9B1E0C5
:104CF0008D939C930E94C4180C949427023811F051
:104D00000C94922680E68093B80180E08093B901EC
:104D100088E99AE3AAE9B1E08D939C930E94C418B4
:104D20000C949427033811F00C94A62680E6809307
:104D3000B80181E08093B90188E99AE3AAE9B1E07A
:104D40008D939C930E94C4180C949427043811F0FE
:104D50000C94BA2680E68093B80182E08093B90172
:104D600088E99AE3AAE9B1E08D939C930E94C41864
:104D70000C949427053811F00C94CE2682E680938B
:104D8000B80180E08093B90180E29EE4AAE9B1E035
:104D90008D939C930E94C4180C949427063811F0AC
:104DA0000C94E22682E68093B80181E08093B901F9
:104DB00080E29EE4AAE9B1E08D939C930E94C4181E
:104DC0000C949427073811F00C94F62682E6809311
:104DD000B80182E08093B90180E29EE4AAE9B1E0E3
:104DE0008D939C930E94C4180C949427083811F05A
:104DF0000C940A2784E68093B80180E08093B9017F
:104E000080EF95E5AAE9B1E08D939C930E94C418C8
:104E10000C949427093811F00C941E2784E6809393
:104E2000B80181E08093B90180EF95E5AAE9B1E08E
:104E30008D939C930E94C4180C9494270A3811F007
:104E40000C94322784E68093B80182E08093B90104
:104E500080EF95E5AAE9B1E08D939C930E94C41878
:104E60000C9494270B3811F00C94462786E6809317
:104E7000B80180E08093B90180E995E6AAE9B1E044
:104E80008D939C930E94C4180C9494270C3811F0B5
:104E90000C945A2786E68093B80181E08093B9018B
:104EA00080E995E6AAE9B1E08D939C930E94C4182D
:104EB0000C9494270D3811F00C946E2786E680939D
:104EC000B80182E08093B90180E995E6AAE9B1E0F2
:104ED0008D939C930E94C4180C9494270E3811F063
:104EE0000C94822788E68093B80180E08093B90112
:104EF00080E395E7AAE9B1E08D939C930E94C418E2
:104F00000C9494270F3811F00C94942788E6809322
:104F1000B80181E08093B90180E395E7AAE9B1E0A7
:104F20008D939C930E94C4180C94332B009182148F
:104F3000083A10F00C947C2982E08093B70100912C
:104F40008214003911F00C94B52788E68093B801DB
:104F500082E08093B90180E395E7AAE9B1E08D93FF
:104F60009C930E94C4180C947A29013911F00C9476
:104F7000C9278AE68093B80180E08093B90188EC64
:104F80009FEAAAE9B1E08D939C930E94C4180C9407
:104F90007A29023911F00C94DD278AE68093B80152
:104FA00081E08093B90188EC9FEAAAE9B1E08D9392
:104FB0009C930E94C4180C947A29033911F00C9424
:104FC000F1278AE68093B80182E08093B90188ECEA
:104FD0009FEAAAE9B1E08D939C930E94C4180C94B7
:104FE0007A29043911F00C9405288CE68093B801D5
:104FF00080E08093B90180E69AEEAAE9B1E08D9352
:105000009C930E94C4180C947A29053911F00C94D1
:1050100019288CE68093B80181E08093B90180E67D
:105020009AEEAAE9B1E08D939C930E94C4180C9467
:105030007A29063911F00C942D288CE68093B8015A
:1050400082E08093B90180E69AEEAAE9B1E08D93FF
:105050009C930E94C4180C947A29073911F00C947F
:105060003D288EE68093B801809126048093B90193
:1050700084E08093B7020C947A29083911F00C94DB
:10508000482880E78093B8010E94B0190C947A29CF
:10509000093911F00C94582882E78093B801809167
:1050A00026048093B90184E08093B7020C947A2996
:1050B0000A3911F00C94632884E78093B8010E94A8
:1050C000B0190C947A290B3911F00C94732886E7E7
:1050D0008093B801809126048093B90184E0809385
:1050E000B7020C947A290C3911F00C94862888E7C1
:1050F0008093B8010091260441E0041BA9EBB1E0C4
:105100000C9384E08093B7020C947A290D3911F046
:105110000C94C0288AE78093B801909126040E94DD
:10512000B390082F112744E650E00E94D790AAE9D7
:10513000B1E00D931C93AAE9B1E00D911C910F937E
:105140001F93909127040E94B390482F55271F91D9
:105150000F91040F151FAAE9B1E00D931C93AAE962
:10516000B1E00E94B78F80919B018093B90180913B
:105170009A018093BA0185E08093B7020C947A2952
:105180000E3911F00C94E3288CE78093B8019091CC
:1051900026040E94B390082F44E6049FA4E9B1E0DE
:1051A0000C92009194010F93909127040E94B39068
:1051B000482F0F91040FA9EBB1E00C9384E080938A
:1051C000B7020C947A290F3911F00C94F3288EE76A
:1051D0008093B801809126048093B90184E0809384
:1051E000B7020C947A29003A11F00C94092980E84E
:1051F0008093B801909126040E94B390082F41E05B
:10520000041BA9EBB1E00C9384E08093B7020C94EB
:105210007A29013A11F00C94212982E88093B8018F
:10522000909126040E94B390A9EBB1E08C93A9EB76
:10523000B1E08C918C518C9384E08093B7020C94F4
:105240007A29023A11F00C94312984E88093B8014C
:10525000809126048093B90184E08093B7020C9476
:105260007A29033A11F00C94412986E88093B80119
:10527000809126048093B90184E08093B7020C9456
:105280007A29043A11F00C94512988E88093B801E6
:10529000809126048093B90184E08093B7020C9436
:1052A0007A29053A11F00C9461298AE88093B801B3
:1052B000809126048093B90184E08093B7020C9416
:1052C0007A29063A11F00C9471298CE88093B80180
:1052D000809126048093B90184E08093B7020C94F6
:1052E0007A29073A11F00C947A298EE88093B80154
:1052F0000E94B0190C94332B82E08093B701009187
:105300008214083A11F00C94912980E98093B80135
:10531000809126048093B90184E08093B7020C94B5
:10532000332B093A11F00C94A12982E98093B8013A
:10533000809126048093B90184E08093B7020C9495
:10534000332B0A3A11F00C94B12984E98093B80107
:10535000809126048093B90184E08093B7020C9475
:10536000332B0B3A11F00C94BC2986E98093B801D9
:105370000E94B0190C94332B0C3A11F00C94C729ED
:1053800088E98093B8010E94B0190C94332B0D3A30
:1053900011F00C94D7298AE98093B80180912604F2
:1053A0008093B90184E08093B7020C94332B0E3ABA
:1053B00011F00C94E7298CE98093B80180912604C0
:1053C0008093B90184E08093B7020C94332B0F3A99
:1053D00011F00C94F7298EE98093B801809126048E
:1053E0008093B90184E08093B7020C94332B003B87
:1053F00011F00C94072A80EA8093B801809126046A
:105400008093B90184E08093B7020C94332B013B65
:1054100011F00C94172A82EA8093B8018091260437
:105420008093B90184E08093B7020C94332B023B44
:1054300011F00C94272A84EA8093B8018091260405
:105440008093B90184E08093B7020C94332B033B23
:1054500011F00C94372A86EA8093B80180912604D3
:105460008093B90184E08093B7020C94332B043B02
:1054700011F00C94472A88EA8093B80180912604A1
:105480008093B90184E08093B7020C94332B053BE1
:1054900011F00C945F2A8AEA8093B8019091260457
:1054A0000E94B390A9EBB1E08C938091B901815037
:1054B0008093B90184E08093B7020C94332B063BB0
:1054C00011F00C946F2A8CEA8093B8018091260425
:1054D0008093B90184E08093B7020C94332B073B8F
:1054E00011F00C947F2A8EEA8093B80180912604F3
:1054F0008093B90184E08093B7020C94332B083B6E
:1055000011F00C948F2A80EB8093B80180912604CF
:105510008093B90184E08093B7020C94332B093B4C
:1055200011F00C949F2A82EB8093B801809126049D
:105530008093B90184E08093B7020C94332B0A3B2B
:1055400011F00C94AF2A84EB8093B801809126046B
:105550008093B90184E08093B7020C94332B0B3B0A
:1055600011F00C94BF2A86EB8093B8018091260439
:105570008093B90184E08093B7020C94332B0C3BE9
:1055800011F00C94CF2A88EB8093B8018091260407
:105590008093B90184E08093B7020C94332B0D3BC8
:1055A00011F00C94DF2A8AEB8093B80180912604D5
:1055B0008093B90184E08093B7020C94332B0E3BA7
:1055C00011F00C94022B8CEB8093B801909126047F
:1055D0000E94B390082F44E6049FA4E9B1E00C9226
:1055E000009194010F93909127040E94B390482F4B
:1055F0000F91040FA9EBB1E00C9384E08093B70204
:105600000C94332B0F3B11F00C94152B8EEB8093E5
:10561000B801909126040E94B390A9EBB1E08C935D
:1056200084E08093B7020C94332B003C11F00C946F
:10563000252B80EC8093B801809126048093B901DA
:1056400084E08093B7020C94332B013C11F00C944E
:10565000332B82EC8093B801809126048093B901AA
:1056600084E08093B7020C94632B82E08093B701AF
:1056700000912304063011F00C94552B84EC809398
:10568000B80100912404003011F00C944C2B80E000
:105690008093B9010C94502B809125048093B9011B
:1056A00084E08093B7020C94632B073011F00C94C4
:1056B000632B86EC8093B801809124048093B90118
:1056C00084E08093B7020C94C02E009122040B3129
:1056D00011F00C94922B82E08093B70187E08093C5
:1056E000980183E08093B70200912304003011F009
:1056F0000C94842B88EC8093B80188E08093980107
:105700000E94F0190C94902B013011F00C94902B06
:105710008AEC8093B80188E0809398010E94F01988
:105720000C94C02E0C3111F00C94EF2B82E080937E
:10573000B70100912304003011F00C94AB2B8CECDA
:105740008093B801809124048093B90184E0809310
:10575000B7020C94ED2B013011F00C94BE2B8EECA3
:105760008093B801809124048093B90184E08093F0
:10577000B70284E08093B7020C94ED2B023011F055
:105780000C94CE2B80ED8093B801809124048093FB
:10579000B90184E08093B7020C94ED2B033011F033
:1057A0000C94DF2B81ED8093B80187E08093980102
:1057B00083E08093B7020E94B5140C94ED2B043063
:1057C00011F00C94ED2B83ED8093B80180912404AB
:1057D0008093B90184E08093B7020C94C02E073205
:1057E00011F00C947D2D82E08093B7010091230489
:1057F000003111F00C94082C85EE8093B801809153
:1058000024048093B90184E08093B7020C947B2D2B
:10581000013111F00C94182C87EE8093B80180911F
:1058200024048093B90184E08093B7020C947B2D0B
:10583000023111F00C94282C88EE8093B8018091ED
:1058400024048093B90184E08093B7020C947B2DEB
:10585000033111F00C94382C89EE8093B8018091BB
:1058600024048093B90184E08093B7020C947B2DCB
:10587000043111F00C94502CEAEDF4E20E948E9168
:105880000E9415900E9421908BEE8093B801809128
:1058900025048093B90184E08093B7020C947B2D9A
:1058A000053111F00C94D82C8DEE8093B8019091B5
:1058B00027040E94B390082F112744E650E00E946D
:1058C000D790AAE9B1E00D931C93AAE9B1E00D913C
:1058D0001C910F931F93909126040E94B390482F20
:1058E00055271F910F91040F151FAAE9B1E00D93E1
:1058F0001C93AAE9B1E00D911C91093150E0150704
:1059000011F00C94882C80E08093B9010C94D32C76
:10591000023350E0150711F00C94932C81E0809332
:10592000B9010C94D32C043650E0150711F00C94F7
:105930009E2C82E08093B9010C94D32C0A3F50E056
:10594000150711F00C94A92C83E08093B9010C94F5
:10595000D32C043F51E0150711F00C94B42C84E0D3
:105960008093B9010C94D32C083E53E0150711F035
:105970000C94BF2C85E08093B9010C94D32C043C8B
:1059800059E0150711F00C94CA2C86E08093B901F8
:105990000C94D32C083853E1150711F00C94D32C38
:1059A00087E08093B90184E08093B7020C947B2D4B
:1059B000063111F00C94EB2C8FEE8093B80100911E
:1059C000250441E0041BA9EBB1E00C9384E0809333
:1059D000B7020C947B2D073111F00C94FB2C81EF56
:1059E0008093B801809125048093B90184E080936D
:1059F000B7020C947B2D093111F00C943D2D83EFEF
:105A00008093B801909125040E94B390082F42E042
:105A1000049FA4E9B1E00C9200912704003011F03A
:105A20000C94262D0091940148E2040FA9EBB1E0FB
:105A30000C9300912604003511F00C94242DA9EB51
:105A4000B1E08C918F5F8C930C94382D08E24091DB
:105A50009401041BA9EBB1E00C93009126040035DE
:105A600011F00C94382D8091B90181508093B901C7
:105A700084E08093B7020C947B2D0A3111F00C94D2
:105A80004D2D85EF8093B801809125048093B90155
:105A900084E08093B7020C947B2D0B3111F00C94B1
:105AA0005D2D87EF8093B801809124048093B90124
:105AB00084E08093B7020C947B2D0C3111F00C9490
:105AC0006D2D89EF8093B801809124048093B901F2
:105AD00084E08093B7020C947B2D0D3111F00C946F
