:100000000C94460018950000189500001895000003
:10001000189500001895000018950000189500002C
:10002000189500001895000018950000189500001C
:10003000189500001895000018950000189500000C
:1000400018950000189500001895000018950000FC
:100050000C9476041895000018950000189500007F
:1000600018950000189500000C94EF0418950000F6
:1000700018950000189500001895000018950000CC
:100080001895000018950000189500008FEF8DBF9F
:10009000C8EDE0EC4E2E80E48EBFD0E4F0E45F2E9D
:1000A000A89584B7082E877F84BF88E1992780931D
:1000B000600090936000EEEFFFE3A0E0B1E08827DE
:1000C0008D933197E9F780E48093C40080E08093BA
:1000D000C50088E18093C1006624E0E0FF2700812D
:1000E000AAE7B1E00C93AAE7B1E00C9103FB16F08C
:1000F0000C94830082E08093BA038091B4038093D0
:10010000BB030C9486008FEF8093BA0322982C9A3D
:1001100074B7777F74BF8FE197E08093600090930E
:10012000600078947091C10070687093C100709104
:10013000BC0071607093BC003B9A80E48093CC005B
:1001400080E08093CD007091C8007D7F7093C800DF
:1001500087E08093CA0088E18093C9001C990C94C1
:10016000B3000E949302E0E0F0E0A0E1B0E00E9462
:100170002614053011F40C94BF000E9493020E94D3
:10018000DC0280916000886080936000ADEAB1E09D
:100190008C918F5F8C930091AD010F3F11F00C9407
:1001A0005801ACEAB1E08C918F5F8C930091AC0167
:1001B0000A3511F00C94FE000091BE03003018F0D7
:1001C00011F00C94E5000C94FC00AEEBB3E08C91C4
:1001D0008F5F8C930091BE03083218F011F00C94DD
:1001E000F3000C94FC000E944C0385E08093BA035A
:1001F0008091B4038093BB030C945801043B11F02D
:100200000C942D0100919201013081E009F080E011
:100210008F93A6E2B0E00C9101FB81E00EF480E048
:100220009F918923882311F40C942801AEEAB1E050
:100230008C918F5F8C930091AE01053018F011F016
:100240000C9424010C9426010E94D7040C942B01D9
:1002500080E08093AE010C9458010F3F11F00C9494
:100260005801ACEBB3E00D911C91003050E0150744
:1002700018F011F00C943E010C944201ACEBB3E089
:100280000E94FE11ACEBB3E00D911C91083250E0DE
:10029000150718F011F00C944F010C94580183E0ED
:1002A0008093BA038091B4038093BB030E945903E7
:1002B0000E946312A4E9B1E08C9300919401013093
:1002C00011F00C9434020E946912A4E9B1E08C93FD
:1002D0000091C203003011F00C94710181E0809311
:1002E000C2030091F2040A3F10F00C942B0200911B
:1002F00094010D3F11F40C948F0180919401A2EFB1
:10030000B4E0AD90BB24A6EFB3E0AA0DBB1D8C9367
:10031000A2EFB4E08C918F5F8C930C942902009132
:10032000F204063010F00C94A6018BE08093BA031F
:100330008091B4038093BB03E0EAF8E20E9490133B
:100340000E944D120E9459120C94270280EE809355
:10035000F9030091F204063011F00C94E50191E0EC
:100360009A93A7EFB3E0E1EEF3E022270E94421355
:10037000A4E9B1E00C9300919401003011F00C94C9
:10038000E30191E09A93A7EFB3E0ECEEF3E02227CC
:100390000E944213A4E9B1E00C9300919401013052
:1003A00011F00C94DC018AE08093BA038091B403CD
:1003B0008093BB030C94E3018BE08093BA0380919C
:1003C000B4038093BB030C942702A7EFB3E0EBECDC
:1003D000F3E0222791E00E944713A5E9B1E00C93D6
:1003E00000919501013011F00C94200281E080937E
:1003F00094014091F20400919401041718F011F057
:100400000C941A02A4E9B1E0AD90BB24A6EFB3E0CE
:10041000AA0DBB1D8C918093970131E0A7E9B1E053
:100420000E945412A4E9B1E08C918F5F8C9310F478
:100430000C94F9010E94DD060E9476030C942702B9
:100440008DE08093BA038091B4038093BB030E9434
:100450007C060C94340289E08093BA038091B40343
:100460008093BB030E947C060091B603003018F015
:1004700011F00C943D020C9478020091B40201300A
:1004800018F011F00C9446020C94520280E0809314
:10049000B20186E08093BA038091B4038093BB03DA
:1004A0000C9475020091B5020E3F81E009F480E0E2
:1004B0008F9300919301003081E009F080E09F91DB
:1004C00089238F9300919201003081E009F080E050
:1004D0009F918923882311F40C94730280E0809308
:1004E000B2010C9475020E94160C80E08093B60352
:1004F0004091B4020091B302041718F011F00C946B
:1005000083020C9490020E944C030091B1010030D0
:1005100018F011F00C948E020C9490020E94A20329
:10052000A8950C94C100E1E0F0E00E947C12E6E1A5
:10053000F0E0A0E1BB2781E08C937BE70E940A14E6
:10054000A42DB52DE4EAF8E20E9490130E943C131A
:10055000E1E0F0E0D2017BE70E941B14E7E1F0E06C
:10056000A0E1BB278DE18C937BE70E940A14E8E1B0
:10057000F0E0A0E1BB2781E08C937BE70E940A14A6
:10058000E9E1F0E0A0E1BB2781E08C937BE70E94EA
:100590000A14EBE1F0E0A0E1BB2780E28C937BE75B
:1005A0000E940A14E0E0F0E0A0E1BB2785E08C9314
:1005B0007BE70E940A140895E6E1F0E0A0E9B1E0CB
:1005C0000E942614E1E0F0E0ABE7B1E094E10E9484
:1005D0003014E7E1F0E0A1E9B1E00E942614E8E17F
:1005E000F0E0A2E9B1E00E942614E9E1F0E0A3E91D
:1005F000B1E00E94261481E08093B40380E08093F0
:10060000BB0380E08093B30181E08093B5030E9437
:1006100059030E944C030E94D70480E08093AC01F0
:1006200080E08093AD01EBE1F0E0A3ECB3E00E9449
:100630002614A6EDB3E0EEEAF8E20E9490130E94C1
:100640003C138091C3038093D803ABECB3E0E4EB9D
:10065000F8E20E9490130E943C138091C3038093A0
:10066000CE03A1EEB3E0EAEBF8E20E9490130E9401
:100670003C138091C3038093E403ACEEB3E0E0EC61
:10068000F8E20E9490130E943C138091C303809370
:10069000EF030E947C06089581E08093B30281E01D
:1006A0008093B40280E08093BE0370E87093BB0037
:1006B000089580E08093B20180E090E0ACEBB3E07D
:1006C0008D939C93A4EBB3E08C918F5F8C934091BE
:1006D000BB030091B403041711F00C94750380E080
:1006E0008093BB038FEF8093BA0308958091B40287
:1006F00081508093B40281E0809395014091B402CF
:1007000000919501041718F011F00C949F03A5E9CE
:10071000B1E0AD90BB24A3EBB1E0AA0DBB1D8C9161
:100720008093960131E0A6E9B1E00E945412A5E958
:10073000B1E08C918F5F8C9310F40C947E030E9437
:100740004C03089581E080939501009195010E3F3F
:1007500018F011F00C94BE0380E0A5E9B1E0AD9073
:10076000BB24A3EBB1E0AA0DBB1D8C93A5E9B1E0BE
:100770008C918F5F8C9310F40C94A503E6ECF0E25F
:100780000E949013A0EBB1E08C9199270E948213F4
:10079000A4EBB1E00E943C13A4EBB1E00E944A1428
:1007A000A6E9B1E08C930091B301013011F00C94F3
:1007B000DE0381E0809394010C94EE03023011F08B
:1007C0000C94E70382E0809394010C94EE030430D0
:1007D00011F00C94EE0385E08093940180919601D2
:1007E000809395014091950101E0041718F011F0F4
:1007F0000C941C040091950140919401040FA7E909
:10080000B1E00C93A5E9B1E0AD90BB24A3EBB1E05E
:10081000AA0DBB1D8C91A7E9B1E0AD90BB24A3EB61
:10082000B1E0AA0DBB1D8C938091950181508093FE
:10083000950110F00C94F2030091B301013011F016
:100840000C942804809196018093B4010C94520476
:10085000023011F00C943C0480E08093B40180914C
:1008600096018093B5010091960143E0040FA4EB3B
:10087000B2E00C930C945204043011F00C94520426
:1008800080EF8093B4018091B0018093B501809195
:10089000B1018093B601809196018093B70181E008
:1008A0008093B3010091960140919401040FA4EB51
:1008B000B2E00C93A4EBB2E08C918F5F8C93A0EB31
:1008C000B1E08C918F5F8C930091B001013110F4F5
:1008D0000C946D0480E08093B0018091B10181504F
:1008E0008093B10181E08093B30208950F921F922B
:1008F0002F923F924F925F927F92AF92BF92CF9290
:10090000DF92EF92FF920F931F932F933F934F939A
:100910005F936F937F938F939F93AF93BF93CF9387
:10092000DF93EF93FF938FB78F938BB78F938827C6
:100930008BBF0091B2010A3F10F00C94A404A2EB0B
:10094000B1E08C918F5F8C93A2EBB1E0AD90BB24B2
:10095000A4EBB2E0AA0DBB1D8091C6008C9381E090
:100960008093B60381E08093B5038F918BBF8F9105
:100970008FBFFF91EF91DF91CF91BF91AF919F9189
:100980008F917F916F915F914F913F912F911F9127
:100990000F91FF90EF90DF90CF90BF90AF907F903E
:1009A0005F904F903F902F901F900F90189580E090
:1009B0008093AE0170E07093B90070E07093B9005D
:1009C00071E17093B80070E87093BB00A1E9B1E0E9
:1009D0008C918093BA0075E47093BC0008950F92D7
:1009E0001F922F923F924F925F927F92AF92BF924F
:1009F0000F931F932F933F934F935F936F937F9327
:100A00008F939F93AF93BF93CF93DF93EF93FF9316
:100A10008FB78F938BB78F9388278BBF0091B900C7
:100A20004CEF0423A4E9B1E00C930091940100364B
:100A300011F00C94200575EC7093BC000C945E06CC
:100A4000083611F00C94290575EC7093BC000C94D9
:100A50005E06003711F00C94320575EC7093BC0003
:100A60000C945E06083711F00C943B0575EC7093FE
:100A7000BC000C945E06003811F00C9460050091E7
:100A8000B2010A3F10F00C944A05A2EBB1E08C9140
:100A90008F5F8C93A2EBB1E0AD90BB24A4EBB2E0EE
:100AA000AA0DBB1D8091BB008C9382E08093B5039F
:100AB00081E08093B60375EC7093BC000C945E06E5
:100AC000083811F00C9485050091B2010A3F10F02E
:100AD0000C946F05A2EBB1E08C918F5F8C93A2EB2D
:100AE000B1E0AD90BB24A4EBB2E0AA0DBB1D809198
:100AF000BB008C9382E08093B50381E08093B603C2
:100B000075EC7093BC000C945E06003911F00C94E7
:100B1000AA050091B2010A3F10F00C949405A2EBD3
:100B2000B1E08C918F5F8C93A2EBB1E0AD90BB24D0
:100B3000A4EBB2E0AA0DBB1D8091BB008C9382E0B8
:100B40008093B50381E08093B60375EC7093BC008D
:100B50000C945E06083911F00C94CF050091B20197
:100B60000A3F10F00C94B905A2EBB1E08C918F5FB5
:100B70008C93A2EBB1E0AD90BB24A4EBB2E0AA0D44
:100B8000BB1D8091BB008C9382E08093B50381E014
:100B90008093B60375EC7093BC000C945E06003A2B
:100BA00011F00C94D80575EC7093BC000C945E06A3
:100BB000083A11F00C94E10575EC7093BC000C94AC
:100BC0005E06003B11F00C94EA0575EC7093BC00D6
:100BD0000C945E06083B11F00C941D064091B40283
:100BE0000091B302041781E008F080E08F93009138
:100BF0009201013081E009F080E09F9189238823F0
:100C000011F40C941506A3EBB2E0AD90BB24A3EB5A
:100C1000B1E0AA0DBB1D8C918093BB00A3EBB2E0A9
:100C20008C918F5F8C930C94180670E87093BB00C6
:100C300075EC7093BC000C945E06003C11F00C94B3
:100C4000530670E87093BB004091B4020091B30268
:100C5000041781E008F080E08F9300919201013049
:100C600081E009F080E09F918923882311F40C949E
:100C70004B06A3EBB2E0AD90BB24A3EBB1E0AA0D11
:100C8000BB1D8C918093BB00A3EBB2E08C918F5F76
:100C90008C930C944E0670E87093BB0075EC7093C7
:100CA000BC000C945E06083C11F00C945C0675ECDC
:100CB0007093BC000C945E060E94D7048F918BBF8A
:100CC0008F918FBFFF91EF91DF91CF91BF91AF9146
:100CD0009F918F917F916F915F914F913F912F9154
:100CE0001F910F91BF90AF907F905F904F903F907A
:100CF0002F901F900F90189581E08093F20480E070
:100D00008093F30480E08093C20380E090E0A4EC41
:100D1000B3E08D939C9381E090E0A0ECB3E08D93E1
:100D20009C93429A0E944C03089542987091C90086
:100D30007F7E7093C9008EEF0E9475128EEF0E9425
:100D4000751231E0A3ECB3E00E94701280EE0E94B5
:100D5000751281E0809394014091C6030091940143
:100D6000041718F011F00C94CD06A4E9B1E0AD9091
:100D7000BB24AFEFB0E0AA0DBB1D8C918093950111
:100D800031E0A5E9B1E00E947012A4E9B1E08C91D4
:100D90008F5F8C9310F40C94AC068DEF0E9475124B
:100DA000429A0E94590381E090E00E94FB127091E8
:100DB000C90070617093C90008950091FB0302306F
:100DC00011F00C94730885E08093B40190910004B5
:100DD0000E94EB12082F11272227332740E051EE03
:100DE00065EF75E00E941913A0EAB1E00D931D9321
:100DF0002D933D939091FF030E94EB12082F112732
:100E00002227332740E452E46FE070E00E94191378
:100E1000A4EAB1E00D931D932D933D93A0EAB1E0B8
:100E20000D911D912D913C91A4EAB1E04D915D9100
:100E30006D917C910E949613A0EAB1E00D931D93F1
:100E40002D933D939091FE030E94EB12082F1127E2
:100E50002227332740E157E260E070E00E94191337
:100E6000A4EAB1E00D931D932D933D93A0EAB1E068
:100E70000D911D912D913C91A4EAB1E04D915D91B0
:100E80006D917C910E949613A0EAB1E00D931D93A1
:100E90002D933D939091FD030E94EB12082F112793
:100EA0002227332744E650E060E070E00E941913E7
:100EB000A4EAB1E00D931D932D933D93A0EAB1E018
:100EC0000D911D912D913C91A4EAB1E04D915D9160
:100ED0006D917C910E949613A0EAB1E00D931D9351
:100EE0002D933D93A0EAB1E00D911D912D913C9180
:100EF0009091FC030E94EB12482F55276627772715
:100F00000E949613A0EAB1E00D931D932D933D939B
:100F1000A0EAB1E00D911D912D913C9140E054E487
:100F200065E978E00E949B13A0EAB1E00D931D9360
:100F30002D933D938091A3018093B5018091A201EF
:100F40008093B6018091A1018093B7018091A001A7
:100F50008093B801909106040E94EB12082F11278C
:100F60002227332740E051EE65EF75E00E94191308
:100F7000A0EAB1E00D931D932D933D93909105044C
:100F80000E94EB12082F11272227332740E452E456
:100F90006FE070E00E941913A4EAB1E00D931D9375
:100FA0002D933D93A0EAB1E00D911D912D913C91BF
:100FB000A4EAB1E04D915D916D917C910E949613F0
:100FC000A0EAB1E00D931D932D933D9390910404FD
:100FD0000E94EB12082F11272227332740E157E206
:100FE00060E070E00E941913A4EAB1E00D931D9334
:100FF0002D933D93A0EAB1E00D911D912D913C916F
:10100000A4EAB1E04D915D916D917C910E9496139F
:10101000A0EAB1E00D931D932D933D9390910304AD
:101020000E94EB12082F11272227332744E650E0B5
:1010300060E070E00E941913A4EAB1E00D931D93E3
:101040002D933D93A0EAB1E00D911D912D913C911E
:10105000A4EAB1E04D915D916D917C910E9496134F
:10106000A0EAB1E00D931D932D933D93A0EAB1E06A
:101070000D911D912D913C9140E858EC63EB78E087
:101080000E949B13A0EAB1E00D931D932D933D9315
:10109000A0EAB1E00D911D912D913C919091020437
:1010A0000E94EB12482F5527662777270E94961338
:1010B000A0EAB1E00D931D932D933D938091A30180
:1010C0008093B9018091A2018093BA018091A1011E
:1010D0008093BB018091A0018093BC018AE0809342
:1010E000B4020C94CC09033011F00C944F0982E047
:1010F0008093B4019091FC030E94EB12A0EAB1E04E
:101100008D9388278D938D938C939091FD030E94EE
:10111000EB12082F11272227332744E650E060E026
:1011200070E00E941913A4EAB1E00D931D932D9372
:101130003D93A0EAB1E00D911D912D913C91A4EA5F
:10114000B1E04D915D916D917C910E949613A0EA62
:10115000B1E00D931D932D933D939091FE030E945A
:10116000EB12082F11272227332740E157E260E0D6
:1011700070E00E941913A4EAB1E00D931D932D9322
:101180003D93A0EAB1E00D911D912D913C91A4EA0F
:10119000B1E04D915D916D917C910E949613A0EA12
:1011A000B1E00D931D932D933D939091FF030E9409
:1011B000EB12082F11272227332740E452E46FE077
:1011C00070E00E941913A4EAB1E00D931D932D93D2
:1011D0003D93A0EAB1E00D911D912D913C91A4EABF
:1011E000B1E04D915D916D917C910E949613A0EAC2
:1011F000B1E00D931D932D933D93909100040E94B7
:10120000EB12082F11272227332740E051EE65EF1C
:1012100075E00E941913A4EAB1E00D931D932D937C
:101220003D93A0EAB1E00D911D912D913C91A4EA6E
:10123000B1E04D915D916D917C910E949613A0EA71
:10124000B1E00D931D932D933D93A0EAB1E00D9174
:101250001D912D913C9140E054E465E978E00E94B5
:101260009B13A0EAB1E00D931D932D933D9382E073
:101270008093B4028091A3018093B5018091A20173
:101280008093B6018091A1018093B7018091A00164
:101290008093B80185E08093B4020C94CC090430AB
:1012A00011F00C94660984E08093B4018091FC03F2
:1012B0008093B5010091FD0341E0041BA6EBB1E072
:1012C0000C9384E08093B4020C94CC090C3011F0A0
:1012D0000C94CC098BE08093B4019091FE030E94A2
:1012E000EB12082F11272227332740E157E260E055
:1012F00070E00E941913A0EAB1E00D931D932D93A5
:101300003D939091FD030E94EB12082F112744E6B4
:1013100050E00E940F13ACE9B1E00D931C93A0EADA
:10132000B1E00D911D912D913C91ACE9B1E04D9151
:101330005C91662777270E949613A0EAB1E00D938F
:101340001D932D933D93A0EAB1E00D911D912D9138
:101350003C919091FC030E94EB12482F5527662781
:1013600077270E949613A0EAB1E00D931D932D9369
:101370003D93A0EAB1E08D919C91AAE9B1E08D93F3
:101380009C9380919B018093B50180919A018093F9
:10139000B60183E08093B40208950091B201043055
:1013A00010F40C94DE0A80E08093CA038091B602A8
:1013B0008093C9038091B7028093C8038091B802DB
:1013C0008093C703A0E0B1E0E6ECF8E20E9490133E
:1013D0000E943C1340E854E86EE170E0A7ECB3E0F3
:1013E0000D911D912D913C91041715072607370784
:1013F00010F00C94D50AA7ECB3E00D911D912D913E
:101400003C9140E054E465E978E00E949613A7EC33
:10141000B3E00D931D932D933D93A7ECB3E00D9195
:101420001D912D913C9140E051EE65EF75E00E94D9
:101430008C12A0EAB1E04D935D936D937D93809102
:10144000A00180939401809194010E94E412A5E090
:10145000B1E08C93A7ECB3E00D911D912D913C91DF
:1014600040E051EE65EF75E00E948C12A7ECB3E00E
:101470000D931D932D933D93A7ECB3E00D911D911A
:101480002D913C9140E452E46FE070E00E948C1298
:10149000A0EAB1E04D935D936D937D938091A0019F
:1014A00080939401809194010E94E412A4E0B1E041
:1014B0008C93A7ECB3E00D911D912D913C9140E4EC
:1014C00052E46FE070E00E948C12A7ECB3E00D9341
:1014D0001D932D933D93A7ECB3E00D911D912D919C
:1014E0003C9140E157E260E070E00E948C12A0EA7B
:1014F000B1E04D935D936D937D938091A0018093B6
:101500009401809194010E94E412A3E0B1E08C93D5
:10151000A7ECB3E00D911D912D913C9140E157E274
:1015200060E070E00E948C12A7ECB3E00D931D9375
:101530002D933D93A7ECB3E00D911C9144E650E050
:101540000E943312AAE9B1E04D935C9380919A0115
:1015500080939401809194010E94E412A2E0B1E092
:101560008C93A7ECB3E00D911D912D913C9144E635
:1015700050E060E070E00E948C12A7ECB3E00D93A5
:101580001D932D933D938091C70380939401809187
:1015900094010E94E412A1E0B1E08C9386E0809374
:1015A000C6030E9495060C94DC0A84E08093BA037B
:1015B0008091B4038093BB030E9459030895A0E077
:1015C000B1E0EEECF8E20E9490130E943C1381E03F
:1015D0008093C6030E94950608950091B2010430DD
:1015E00010F40C94280B0091B702043081E008F04D
:1015F00080E08F930091B702023081E008F080E034
:101600009F918923882311F40C941F0B86E080930B
:1016100000018091B602809394018091940180939F
:1016200001010091B70241E0040FA2E0B1E00C9388
:1016300083E08093C6030E9495060C94280B84E0F7
:101640008093BA038091B4038093BB030E94590333
:101650000895A0E0B1E0E0EDF8E20E9490130E944E
:101660003C1381E08093C6030E949506089582E0B2
:10167000A0E0B1E08C9381E08093C6030E949506C0
:101680000895A0E0B1E0E2EDF8E20E9490130E941C
:101690003C1381E08093C6030E9495060895A0E064
:1016A000B1E0E4EDF8E20E9490130E943C1381E067
:1016B0008093C6030E9495060895A0E0B1E0E6ED90
:1016C000F8E20E9490130E943C1381E08093C603CD
:1016D0000E9495060895A0E0B1E0E8EDF8E20E94CE
:1016E00090130E943C1381E08093C6030E949506EC
:1016F00008950091B201033010F40C94070CA6EB8E
:10170000B2E00D91112740E051E00E940F13AAE9C9
:10171000B1E00D931C93AAE9B1E00D911C91A7EBE8
:10172000B2E04D915527040F151FAAE9B1E00D93C2
:101730001C93AAE9B1E00D911C9100325EE41507FB
:1017400010F00C94FE0B8DE080930001AAE9B1E04B
:101750000D911C9140E157E20E943312ACE9B1E0D7
:101760004D935C9380919C018093940180919401AE
:101770000E94E412A3E0B1E08C93AAE9B1E00D91DC
:101780001C9140E157E20E943312AAE9B1E00D93A7
:101790001C93AAE9B1E00D911C9144E650E00E942F
:1017A0003312ACE9B1E04D935C9380919C0180933E
:1017B0009401809194010E94E412A2E0B1E08C9324
:1017C000AAE9B1E00D911C9144E650E00E94331269
:1017D000AAE9B1E00D931C9380919A018093940142
:1017E000809194010E94E412A1E0B1E08C9384E026
:1017F0008093C6030E9495060C94070C84E08093A6
:10180000BA038091B4038093BB030E9459030895E7
:10181000A0E0B1E0EAEDF8E20E9490130E943C13D0
:1018200081E08093C6030E94950608950091B50259
:101830000A3010F00C94430CE1E4FCE0EF93FF93CA
:10184000EBE2FCE0A5EBB2E08C919927880F991FA1
:10185000E80FF91F09940C9400000C94CD090C9426
:10186000DF0A0C94ED0A0C94290B0C94370B0C94A2
:10187000410B0C944F0B0C945D0B0C946B0B0C9464
:10188000790B0C9462100091B502003F11F00C949A
:10189000A10C0091B201033010F40C949F0C8091C4
:1018A000B6028093B0018091B7028093B10100919C
:1018B000B001013181E008F080E08F930091B10127
:1018C000013181E008F080E09F918923882311F4A1
:1018D0000C94960C0091B101003018F011F00C94AA
:1018E000730C0C94940C81E08093BE0384E080938D
:1018F000B3010E94A2030091B503013011F00C94D2
:10190000940C0E9476030091B101003018F011F0A0
:101910000C948C0C0C94920C0E94A2030E947603EF
:101920000C94830C0E944C030C949D0C84E08093D7
:10193000BA038091B4038093BB030E9459030C94B3
:1019400062100C3F11F00C94530E81E08093BE03A3
:101950009EE180E0A4EBB1E00E9406128CEF809340
:10196000B40182E080939401E4EBF3E0A0E0B1E005
:101970000E94BE13A0E0B1E00E944A14A7E9B1E0C2
:101980008C9381E08093950140919701009195019E
:10199000041718F011F00C94EC0CA5E9B1E0AD902F
:1019A000BB24AFEFB0E0AA0DBB1D8C91A4E9B1E060
:1019B000AD90BB24A3EBB1E0AA0DBB1D8C93A4E9B1
:1019C000B1E08C918F5F8C93A5E9B1E08C918F5F32
:1019D0008C9310F40C94C40C80E2A4E9B1E0AD90B7
:1019E000BB24A3EBB1E0AA0DBB1D8C930091BA03FD
:1019F000003011F00C94060DA0E0B1E0ECEDF8E23F
:101A00000E9490130E943C130C94D20D013011F0EF
:101A10000C94140DA0E0B1E0E2EFF8E20E94901304
:101A20000E943C130C94D20D023011F00C94220D44
:101A3000A0E0B1E0E0E0F9E20E9490130E943C13C4
:101A40000C94D20D033011F00C94300DA0E0B1E0F5
:101A5000E4E1F9E20E9490130E943C130C94D20D31
:101A6000043011F00C943E0DA0E0B1E0EAE2F9E29E
:101A70000E9490130E943C130C94D20D053011F07B
:101A80000C944C0DA0E0B1E0EEE3F9E20E9490135B
:101A90000E943C130C94D20D063011F00C945A0D98
:101AA000A0E0B1E0E4E5F9E20E9490130E943C134B
:101AB0000C94D20D073011F00C94680DA0E0B1E049
:101AC000E0E7F9E20E9490130E943C130C94D20DBF
:101AD000083011F00C94760DA0E0B1E0E8E8F9E2EE
:101AE0000E9490130E943C130C94D20D093011F007
:101AF0000C94840DA0E0B1E0E6EAF9E20E949013B4
:101B00000E943C130C94D20D0A3011F00C94920DEB
:101B1000A0E0B1E0E8EBF9E20E9490130E943C13D0
:101B20000C94D20D0B3011F00C94A00DA0E0B1E09C
:101B3000E4ECF9E20E9490130E943C130C94D20D45
:101B40000C3011F00C94AE0DA0E0B1E0E8EDF9E23C
:101B50000E9490130E943C130C94D20D0D3011F092
:101B60000C94BC0DA0E0B1E0EAEEF9E20E94901303
:101B70000E943C130C94D20D0F3F11F00C94CA0D2F
:101B8000A0E0B1E0E2E0FAE20E9490130E943C1370
:101B90000C94D20DA0E0B1E0E0E1FAE20E949013D3
:101BA0000E943C13A0E0B1E00E944A14A7E9B1E012
:101BB0008C9381E08093950140919701009195016C
:101BC000041718F011F00C94040EA5E9B1E0AD90E3
:101BD000BB24AFEFB0E0AA0DBB1D8C91A4E9B1E02E
:101BE000AD90BB24A3EBB1E0AA0DBB1D8C93A4E97F
:101BF000B1E08C918F5F8C93A5E9B1E08C918F5F00
:101C00008C9310F40C94DC0DEBEBF3E0A0E0B1E06E
:101C10000E94BE13A0E0B1E00E944A14A7E9B1E01F
:101C20008C9381E0809395014091970100919501FB
:101C3000041718F011F00C943C0EA5E9B1E0AD903A
:101C4000BB24AFEFB0E0AA0DBB1D8C91A4E9B1E0BD
:101C5000AD90BB24A3EBB1E0AA0DBB1D8C93A4E90E
:101C6000B1E08C918F5F8C93A5E9B1E08C918F5F8F
:101C70008C9310F40C94140E0091940143E0041B17
:101C8000A5EBB1E00C93809194018093B402009194
:101C9000B503013011F00C944F0E0E9476030E94A0
:101CA00059030C9462100D3F11F00C946F0E81E0FB
:101CB0008093BE038DEF8093B40184E08093B501DF
:101CC00083E08093B4020091B503013011F00C94CD
:101CD0006B0E0E9476030E9459030C9462100E3F13
:101CE00011F00C948B0F0091B201023010F40C949F
:101CF000890F0091B602003011F00C94DF0E0091B4
:101D0000B201033010F40C94DD0E0091B7020030E4
:101D100011F00C948F0E0E9459030C94DD0E00916B
:101D2000B70243E0040FA4E9B1E00C9340919401A1
:101D30000091B201041710F40C94DD0E94E180E0E0
:101D4000ABE7B1E00E94061200919401073118F050
:101D500011F00C94AD0E0C94B00E87E180939401B9
:101D600084E08093950140919401009195010417BE
:101D700018F011F00C94D60EA5E9B1E0AD90BB249B
:101D8000A4EBB2E0AA0DBB1D8C91A5E9B1E0AD902A
:101D9000BB24A7E7B1E0AA0DBB1D8C93A5E9B1E078
:101DA0008C918F5F8C9310F40C94B30EE1E0F0E013
:101DB000ABE7B1E07BE70E941B140C94890F013064
:101DC00011F00C94F80E0091B201033010F40C9451
:101DD000F60E8091B70280939001E6E1F0E0A0E971
:101DE000B1E07BE70E940A140E9459030C94890F0A
:101DF000023011F00C94200F0091B201033010F466
:101E00000C941E0F0091B702023010F00C94150FC5
:101E10008091B70280939201E8E1F0E0A2E9B1E09D
:101E20007BE70E940A140C941C0F84E08093BA0391
:101E30008091B4038093BB030E9459030C94890FD3
:101E4000033011F00C94540F0091B201033010F4E0
:101E50000C94520F8091B7028093950100919501E7
:101E6000003810F00C94490FA5E9B1E00C9142E064
:101E7000049F0C928091950180939101E7E1F0E03D
:101E8000A1E9B1E07BE70E940A140E94D7040C94F8
:101E9000500F84E08093BA038091B4038093BB0316
:101EA0000E9459030C94890F043011F00C94800F98
:101EB0000091B201033010F40C947E0F8091B702B0
:101EC0008093950100919501023010F00C94750FEC
:101ED0008091950180939301E9E1F0E0A3E9B1E0FD
:101EE0007BE70E940A140C947C0F84E08093BA0371
:101EF0008091B4038093BB030E9459030C94890F13
:101F000084E08093BA038091B4038093BB030E9462
:101F100059030C9462100F3F11F00C946010009163
:101F2000B201023010F40C945E1081E08093BE0385
:101F30008FEF8093B4018091B6028093B50180E069
:101F40008093B4020091B602003011F00C94E20FBD
:101F5000ABE7B1E00E944A14A6E9B1E08C9380910E
:101F600096018093B60184E08093B40281E080936F
:101F700095014091960100919501041718F011F018
:101F80000C94E00FA5E9B1E0AD90BB24AAE7B1E065
:101F9000AA0DBB1D8C91A4EBB2E0AD90BB24A3EBCA
:101FA000B1E0AA0DBB1D8C93A4EBB2E08C918F5FC6
:101FB0008C93A5E9B1E08C918F5F8C930C94B90F51
:101FC0000C944B10013011F00C94EF0F80919001A4
:101FD0008093B60184E08093B4020C944B100230DD
:101FE00011F00C94FC0F809192018093B60184E073
:101FF0008093B4020C944B10033011F00C94111028
:102000000091910142E00E943A14A5E9B1E00C93DD
:10201000809195018093B60184E08093B4020C9482
:102020004B10043011F00C941E108091930180939A
:10203000B60184E08093B4020C944B10053011F08B
:102040000C942A1080E08093B60184E08093B4025F
:102050000C944B10063011F00C94421083E08093E6
:10206000B60188E3A7EBB1E08C938EE4A8EBB1E076
:102070008C9381E3A9EBB1E08C9387E08093B40269
:102080000C944B1084E08093BA038091B403809346
:10209000BB030E944C030091B402003018F011F011
:1020A0000C9454100C945C100091B503013011F0A5
:1020B0000C945C100E9476030E9459030C946210E9
:1020C0000E9459030895303B6D3B444B3152493BCC
:1020D000494332373120496E746572666163653BEE
:1020E0005630312E323B313B3137353B313B313786
:1020F0003B312D3100313B6F702C66726571656E1E
:1021000063793B313B323030303030302C7B3134EE
:102110003430303030303020746F2031343539393C
:10212000393939397D3B6C696E3B487A00323B6105
:10213000702C61733100333B6F732C6D6F64653BA2
:10214000323B302C4C53423B312C5553423B312CCB
:10215000414D3B332C43573B302C46494C313B31AE
:102160002C46494C3200342C61733300353B61708E
:102170002C62616E642065646765206672657175A6
:10218000656E636965733B313B312C7B3134343090
:1021900030303030307D2C6C6F773B6C696E3B4853
:1021A0007A3B312C7B3134363030303030307D2C3E
:1021B000686967683B6C696E3B2A3130487A003643
:1021C0003B6F752C7365742076666F206D6F646548
:1021D0003B313B302C69646C653B312C56464F20BB
:1021E0006D6F646500373B6F752C736574206D658A
:1021F0006D6F7279206D6F64653B313B302E696481
:102200006C653B312C6D656D6F7279206D6F646507
:1022100000383B6F752C636F70792076666F206194
:102220006E64206D6F646520746F206D656D6F72D4
:10223000793B313B302C69646C653B312C636F70AA
:102240007920746F206D656D6F727900393B6F7501
:102250002C636F7079206D656D6F727920746F20BB
:1022600076666F20616E64206D6F64653B313B3034
:102270002C69646C653B312C636F707920746F201E
:1022800076666F20616E64206D6F64650031303B4F
:102290006F702C7772697465206F66667365743B26
:1022A000313B32303030303B6C696E3B2A3130305C
:1022B000487A0031313B61702C6173313000323427
:1022C000303B6C6E2C414E4E4F554E43454D454E66
:1022D00054533B3137353B3137003235323B616146
:1022E0002C4C415354204552524F523B32302C6CAF
:1022F0006173745F6572726F72003235333B616176
:102300002C4D594320494E464F3B622C4143544982
:102310005645003235343B6B612C494E4449564991
:102320004455414C495A4154494F4E3B32302C4E52
:10233000414D452C44657669636520313B622C4EE6
:10234000554D4245522C313B612C4932432C313B97
:10235000622C4144524553532C32392C7B3020742B
:102360006F203132377D3B612C53455249414C2C13
:102370003100323535203B6C612C494E4449564979
:102380004455414C495A4154494F4E3B32302C4EF2
:10239000414D452C44657669636520313B622C4E86
:1023A000554D4245522C313B612C4932432C313B37
:1023B000622C4144524553532C32392C7B302074CB
:1023C0006F203132377D3B612C53455249414C2CB3
:1023D000313B622C42415544524154452C302C7BB8
:1023E00031393230307D3B332C4E554D4245525FB2
:1023F0004F465F424954532C386E3100ED91FC91A9
:10240000EF5FFF4FFC93EE93089580E2903019F058
:102410008D939A95E9F79C93089509D00E940F1324
:1024200000FC10D0089503D01ED001F8F9CF00248D
:10243000E89457FF02C009D0689400F80BD010F858
:102440000124089502D009D00895509540954F5F1A
:102450005F4F0895E89417FF0895009510950F5F5A
:102460001F4F68940895352F242FE894452B11F4BD
:1024700068940895512F402F0027112780E1440FC1
:10248000551F001F111F021B130B416018F4020F90
:10249000131F4E7F8A9599F708950E947813802D17
:1024A00011F00AD0FACF08958D9106D03A95E1F750
:1024B00008958DE001D08AE00090C00005FEFCCFB9
:1024C0008093C600089581E00090C80007FE882729
:1024D00008950090C80007FEFCCF8091CE000895BB
:1024E0008D9103D03A95E1F708950090C80005FE5C
:1024F000FCCF8093CE00089588EE93E07CD0319796
:10250000D9F7089500FC05D0089530D005D001F822
:10251000F9CF37D03FD00895842F952FA62FB72F0E
:10252000E894452B462B472B11F468940895402FCF
:10253000512F622F732F0027112722273327F0E214
:10254000440F551F661F771F001F111F221F331FC7
:10255000081B190B2A0B3B0B416028F4080F191FAD
:102560002A1F3B1F4E7FFA9559F708950024E894DF
:1025700077FF02C006D0689400F809D010F8012453
:10258000089512D04F5F5F4F6F4F7F4F0895E894CB
:1025900037FF089500951095209530950F5F1F4FD8
:1025A0002F4F3F4F689408954095509560957095D2
:1025B0000895982F82958F70805D8D939F70905DA8
:1025C0009D9388278C9308954AE0082F0E943A141F
:1025D0000295802B0895892F8F70905110F0865F9F
:1025E000FCCF08953197F1F70895689462F8089543
:1025F000E89462F80895EF93FF93EE27E82BE92B18
:1026000031F0E8E8F3E13197F1F70197D1F7FF9165
:10261000EF910895019111912191308108950F92C8
:10262000B801469F8001479F100D569F100D0F90D7
:1026300008950F921F922F92C801D901489F8001DF
:102640004A9F90014B9F202C499F100D211D321D48
:102650005A9F202C589F100D211D321D599F200D6F
:10266000311D689F200D311D699F300D789F300D01
:102670002F901F900F9008950E9478130D920020C4
:10268000D9F7089599910027A90FB01F1197492FE5
:102690004A95FBB65E2F6F2FE894112743952030A3
:1026A00019F0D895802D01C080818823E1F07C91BC
:1026B0007723C9F0781759F40EF0042F1395689416
:1026C0001196319658F78BB783958BBFE7CF1123BF
:1026D00021F0411BA11B1127B10BE894E52FF62F28
:1026E000FBBE1196DBCF882311F0002708950895D3
:1026F000D895319628F48F938BB783958BBF8F91A4
:10270000002008950196019721F00E947813E9F7BF
:10271000FACF08950F9301E00BBF0F9188940895AD
:102720000F930027F9CF0F9302E0F6CF040F151F88
:10273000261F371F0895041B150B260B370B089512
:10274000000F111F221F331F08950095109520952B
:1027500030950F5F1F4F2F4F3F4F0895019110810C
:102760000FC00E940A130EC00E940A1310C00191EC
:10277000108117FF05C03FEF2FEF04C00081112724
:102780002227332737FF03C0E0DF8DE28D93CF92FE
:10279000DF92EF92AA24BB24CC24DD24EE2440E275
:1027A000EAE0FF2755E093E38081890F87FD9F7062
:1027B00083FD907F891B81935A95A9F7C1DFAA1CDD
:1027C000BB1CCC1CDD1CEE1C4A9551F7E894EFE0D5
:1027D000FF2782910CD0EB30E0F71EF068948A2D31
:1027E0000AD088278D93EF90DF90CF900895982F8F
:1027F000829501D0892F8F70805D26F0803309F497
:10280000089568948D930895F999FECFE1BDF2BDC6
:102810003196089591E001C092E07B3751F47FB783
:10282000F894F2DF8D9180BDFA9AF99A9A95C9F7DA
:102830007FBF77270895E8DF8D917B3729F480BD2E
:10284000FA9AF99A8823B9F77727089591E001C099
:1028500092E0DADFF89A80B58D939A95D1F70895D2
:10286000D3DFF89A80B58D93882319F09A95C1F734
:102870009D930895FF93881BF9E0001FFA9511F4CA
:10288000FF910895881F841B18F4840F8894F5CF56
:102890000894F3CF8FEF83959D919923E1F70895E5
:1028A0004F45000044657669636520310000FEFEF7
:1028B00000E00000FEFEE0000000FEFEE000FB0085
:1028C000FEFEE000FA00303030303030000003000F
:1028D00004000700080009000A000C003A20636F9A
:1028E0006D6D616E64206E6F7420666F756E643AF4
:1028F00020003A20493243206572726F723A2000FC
:102900003A207761746368646F67207265736574D9
:102910003A2000003A20636F6D6D616E642077612C
:10292000746368646F673A2000003A2070617261D6
:102930006D65746572206572726F723A20003A207C
:1029400074782074696D6520746F6F206C6F6E678A
:102950003A2000003A206E6F742076616C69642022
:10296000617420746861742074696D653A20000098
:102970003A206932635F627566666572206F7665BC
:1029800072666C6F773A20003A20493263206E6F8E
:102990007420726561647920746F20726563656963
:1029A00076653A2000003A20434956206F766572DA
:1029B000666C6F773A2000003A20434956204E4F0C
:1029C0004B3A20003A206F746865722043495620C4
:1029D0006572726F723A20003A204349562077613F
:1029E000746368646F673A2000003A204E6F207667
:1029F000616C696420434956206865616465723A78
:102A000020003A206E6F206572726F723A200000CB
:102A10003A206F74686572206572726F723A200096
:00000001FF
